0040820167523txtp.txt                  ARQUIVO PADRAO CON  0107201600007523CDL TRINDADE/GO                                   R. PE JOSÉ BALESTIERI, 16                         VILA PERPETUO SOCORRO         075380000TRINDADE                      GO00000623505247200000062505015000000034622350001930000000000000000000000000000000000                                                                                                                                                                                                                                                000001
10107201600000000007002008201620082016999000000000000000000010720163107201603082016012433040820160127560000000000700                                                                                                                                                                                                                                                0000023641000000000000                                                            CONSOLIDACAO                                                                                                                       000002
2237BANCO BRADESCO S/A                                1633  9410           2 1 1     R$                                                                                                                                                                                                                                                                                                                                                                                                                                                                                                  000003
32008201600000234620022880338000000024711700559874JC CORRETORA E COMERCIO DE VEICULOS MULTIMARCAS LTAVENIDA   REPUBLICA DO LIBANO, 395  QD 56 A LT 9              SETOR AEROPORTO               074070045GOIANIA                       GO000006299520659000000000000000J0000001919754000102              00000000000000000000000000AVENIDA   REPUBLICA DO LIBANO, 395  QD 56 A LT 9              SETOR AEROPORTO               074070045GOIANIA                       GO                       D                              SJC CORRETORA E COMERCIO DE VEICULOS MULTIMARCAS LT        000004
40000008NOVO SPC MIX MAIS INTERNET                        000033500000002680DCO10356511                      0022880338000010323000102N0                                                                                                                                                                                                                                                                                                                                                                                                                                                 000005
40000490NOVO SPC MAXI INTERNET                            000049200000241080DCO10359302                      0022880338000020325000102N0                                                                                                                                                                                                                                                                                                                                                                                                                                                 000006
40000012SPC BUSCA INTERNET                                000009300000001116DCO10374066                      0022880338000030089000102N0                                                                                                                                                                                                                                                                                                                                                                                                                                                 000007
40000003SPC MIX MAIS + AÇÃO + PARTICIPAÇÃO EM EMPRESAS INT000074700000002241DCO18302937                      0022880338000040243000102N0                                                                                                                                                                                                                                                                                                                                                                                                                                                 000008
32008201600000236220022880503000000000548601000259NOVA MODA CONFECÇÕES LTDA                         AV ANHANGUERA, 6242  LT 9 N 6242 QD 2 A                       JARDIM NOVO MUNDO             074075010GOIANIA                       GO000006232120162000000000000000J0000000898098000499              00000000000000000000000000AV ANHANGUERA, 6242  LT 9 N 6242 QD 2 A                       JARDIM NOVO MUNDO             074075010GOIANIA                       GO                       D                              SJEAN DARROT GETS                                          000009
40000021SPC MIX (SPC + CHEQUE) . INTERNET                 000019100000004011DCO19776698                      0022880503000010013000102N0                                                                                                                                                                                                                                                                                                                                                                                                                                                 000010
40000005SPC MIX +. INTERNET                               000029500000001475DCO19779806                      0022880503000020095000102N0                                                                                                                                                                                                                                                                                                                                                                                                                                                 000011
32008201600000236230022880504000000000267501000260NOVA MODA CONFECÇÕES LTDA AVENIDA T N 39          AVENIDA T 9  N  39  LT 14 QD G 20                             SETOR MARISTA                 074150300GOIANIA                       GO000006232412944000000000000000J0000000898098000570              00000000000000000000000000AVENIDA T 9  N  39  LT 14 QD G 20                             SETOR MARISTA                 074150300GOIANIA                       GO                       D                              SJEAN DARROT GETS                                          000012
40000002SPC TOP FISICA . INTERNET                         000047500000000950DCO166799                        0022880504000010007000102N0                                                                                                                                                                                                                                                                                                                                                                                                                                                 000013
40000001SPC . INTERNET                                    000013700000000137DCO19776634                      0022880504000020012000102N0                                                                                                                                                                                                                                                                                                                                                                                                                                                 000014
40000003SPC MIX (SPC + CHEQUE) . INTERNET                 000019100000000573DCO19776698                      0022880504000030013000102N0                                                                                                                                                                                                                                                                                                                                                                                                                                                 000015
40000002SPC MIX +. INTERNET                               000029500000000590DCO19779806                      0022880504000040095000102N0                                                                                                                                                                                                                                                                                                                                                                                                                                                 000016
40000001SPC JURIDICO . INTERNET                           000042500000000425DCO19779838                      0022880504000050010000102N0                                                                                                                                                                                                                                                                                                                                                                                                                                                 000017
32008201600000236250022880506000000001346901000262NOVA MODA CONFECÇÕES LTDA AVENIDA 85 N  2234      AVENIDA 85  N  2234    LT 15 QD H 24                          SETOR MARISTA                 074160010GOIANIA                       GO000006232810046000000000000000J0000000898098000731              00000000000000000000000000AVENIDA 85  N  2234    LT 15 QD H 24                          SETOR MARISTA                 074160010GOIANIA                       GO                       D                              SJEAN DARROT GETS                                          000018
40000001SPC MIX PLUS. INTERNET                            000030500000000305DCO1455671                       0022880506000010127000102N0                                                                                                                                                                                                                                                                                                                                                                                                                                                 000019
40000006SPC MAX INTERNET                                  000051500000003090DCO1455699                       0022880506000020129000102N0                                                                                                                                                                                                                                                                                                                                                                                                                                                 000020
40000001CONFIRME PF INTERNET                              000002800000000028DCO7866802                       0022880506000030011000102N0                                                                                                                                                                                                                                                                                                                                                                                                                                                 000021
40000003NOVO SPC MIX (SPC + CHEQUE). INTERNET             000019100000000573DCO18554021                      0022880506000040308000102N0                                                                                                                                                                                                                                                                                                                                                                                                                                                 000022
40000008SPC MIX (SPC + CHEQUE) . INTERNET                 000019100000001528DCO19776698                      0022880506000050013000102N0                                                                                                                                                                                                                                                                                                                                                                                                                                                 000023
40000018SPC MIX +. INTERNET                               000029500000005310DCO19779806                      0022880506000060095000102N0                                                                                                                                                                                                                                                                                                                                                                                                                                                 000024
40000004SPC TOP FISICA +. INTERNET                        000052500000002100DCO19779821                      0022880506000070096000102N0                                                                                                                                                                                                                                                                                                                                                                                                                                                 000025
40000001SPC MASTER JURIDICO . INTERNET                    000053500000000535DCO19779862                      0022880506000080014000102N0                                                                                                                                                                                                                                                                                                                                                                                                                                                 000026
32008201600000236280022880509000000000466801000266NOVA MODA CONFECÇÕES LTDA AV136                   AVENIDA 136 N  42   LT 14 SL 32 QD 232                        SETOR MARISTA                 074180040GOIANIA                       GO000006231810054000000000000000J0000000898098001118              00000000000000000000000000AVENIDA 136 N  42   LT 14 SL 32 QD 232                        SETOR MARISTA                 074180040GOIANIA                       GO                       D                              SJEAN DARROT GETS                                          000027
40000001CONFIRME PF INTERNET                              000002800000000028DCO7866802                       0022880509000010011000102N0                                                                                                                                                                                                                                                                                                                                                                                                                                                 000028
40000020SPC MIX (SPC + CHEQUE) . INTERNET                 000019100000003820DCO19776698                      0022880509000020013000102N0                                                                                                                                                                                                                                                                                                                                                                                                                                                 000029
40000001SPC MIX +. INTERNET                               000029500000000295DCO19779806                      0022880509000030095000102N0                                                                                                                                                                                                                                                                                                                                                                                                                                                 000030
40000001SPC TOP FISICA +. INTERNET                        000052500000000525DCO19779821                      0022880509000040096000102N0                                                                                                                                                                                                                                                                                                                                                                                                                                                 000031
32008201600000236260022880507000000000377201000263NOVA MODA CONFECÇÕES LTDA AV T -10                AVENIDA T 10  N  1.300                                        SETOR BUENO                   074223900GOIANIA                       GO000006232340004000000000000000J0000000898098000812              00000000000000000000000000AVENIDA T 10  N  1.300                                        SETOR BUENO                   074223900GOIANIA                       GO                       D                              SJEAN DARROT GETS                                          000032
40000004SPC TOP FISICA . INTERNET                         000047500000001900DCO166799                        0022880507000010007000102N0                                                                                                                                                                                                                                                                                                                                                                                                                                                 000033
40000001SPC TOP JURIDICO . INTERNET                       000149000000001490DCO363315                        0022880507000020008000102N0                                                                                                                                                                                                                                                                                                                                                                                                                                                 000034
40000002NOVO SPC MIX (SPC + CHEQUE). INTERNET             000019100000000382DCO19484450                      0022880507000030308000102N0                                                                                                                                                                                                                                                                                                                                                                                                                                                 000035
32008201600000236140022880494000000000651001000238SAS COMERCIO DE SECOS E MOLHADOS LTDA - EPP       AVENIDA   NAPOLI, 355  QD.05  LT. AREA                        RESIDENCIAL ELDORADO          074367640GOIANIA                       GO000006232569300000000000000000J0000012279637000148104792647     00000000000000000000000000AV NAPOLI, 500  QD. QC - 1  LT. AREA                          RESIDENCIAL ELDORADO          074367640GOIANIA                       GO                       D                              SSUPER STORE (ELDORADO)                                    000036
40000001MENSALIDADE 1/1                                   000480000000004800DNC2074                          0022880494000010000000001N0                                                                                                                                                                                                                                                                                                                                                                                                                                                 000037
40000009NOTIFICACAO                                       000019000000001710DNC2075                          0022880494000020000000001N0                                                                                                                                                                                                                                                                                                                                                                                                                                                 000038
32008201600000235050022880383000000000420000559972ARAUJO FRANCA CONFECCOES LTDA ME                  RUA   ROCHA POMBO, SN  QD.60 LT.21 SALA 05                    SAO FRANCISCO                 074455230GOIANIA                       GO000006235818408000000000000000J0000016983414000118              00000000000000000000000000RUA   ROCHA POMBO, SN  QD.60 LT.21 SALA 05                    SAO FRANCISCO                 074455230GOIANIA                       GO                       D                              SBOUTIQUE BOM PREÇO                                        000039
40000001COMPLEMENTO FATURAMENTO MINIMO                    000112000000001120DNC57893                         0022880383000010000000001N0                                                                                                                                                                                                                                                                                                                                                                                                                                                 000040
40000008NOVO SPC MIX MAIS INTERNET                        000038500000003080DCO18521086                      0022880383000020323000102N0                                                                                                                                                                                                                                                                                                                                                                                                                                                 000041
32008201600000236160022880496000000000575001000240ISA COMERCIO E PRODUTOS DE SECOS E MOLHADOS LTDA -RUA   BARTOLOMEU BUENO, 30  LT 17 QD 48 /27                   SETOR CANDIDA DE MORAIS       074463315GOIANIA                       GO000006232976520000000000000000J0000012319700000122104792663     00000000000000000000000000AVENIDA   PERIMETRAL NORTE, 1226  QD.48   LT. 18              SETOR CANDIDA DE MORAIS       074463330GOIANIA                       GO                       D                              SSUPER STORE (CANDIDO DE MORAIS)                           000042
40000001MENSALIDADE 1/1                                   000480000000004800DNC2074                          0022880496000010000000001N0                                                                                                                                                                                                                                                                                                                                                                                                                                                 000043
40000005NOTIFICACAO                                       000019000000000950DNC2075                          0022880496000020000000001N0                                                                                                                                                                                                                                                                                                                                                                                                                                                 000044
32008201600000235260022880404000000000807900560065KLESIO FERREIRA FERNANDES                         AVENIDA   CENTRAL, S/N  QD. 60 LT. 17                         JARDIM NOVA ESPERANCA         074465100GOIANIA                       GO000006232995133000000000000000J0000013174027000142104926830     00000000000000000000000000AVENIDA   CENTRAL, S/N  QD. 60 LT. 17                         JARDIM NOVA ESPERANCA         074465100GOIANIA                       GO                       D                              SMODA VIP                                                  000045
40000001MENSALIDADE 1/1                                   000480000000004800DNC2074                          0022880404000010000000001N0                                                                                                                                                                                                                                                                                                                                                                                                                                                 000046
40000005NOTIFICACAO                                       000019000000000950DNC2075                          0022880404000020000000001N0                                                                                                                                                                                                                                                                                                                                                                                                                                                 000047
40000017SPC . INTERNET                                    000013700000002329DCO19776634                      0022880404000030012000102N0                                                                                                                                                                                                                                                                                                                                                                                                                                                 000048
32008201600000235430022880422000000000950200560148NOVA MODA CONFECÇÕES LTDA                         AVENIDA   BERNARDO SAYAO, 1785  QD 16 LT 01                   SETOR CENTRO OESTE            074550025GOIANIA                       GO000006235051234000000000000000J0000000898098001975104553901     00000000000000000000000000AVENIDA   BERNARDO SAYAO, 1785  QD 16 LT 01                   SETOR CENTRO OESTE            074550025GOIANIA                       GO                       D                              SJEAN DARROT (LOJA FAMA II)                                000049
40000001SPC TOP FISICA . INTERNET                         000047500000000475DCO166799                        0022880422000010007000102N0                                                                                                                                                                                                                                                                                                                                                                                                                                                 000050
40000001SPC . INTERNET                                    000013700000000137DCO19776634                      0022880422000020012000102N0                                                                                                                                                                                                                                                                                                                                                                                                                                                 000051
40000045SPC MIX (SPC + CHEQUE) . INTERNET                 000019100000008595DCO19776698                      0022880422000030013000102N0                                                                                                                                                                                                                                                                                                                                                                                                                                                 000052
40000001SPC MIX +. INTERNET                               000029500000000295DCO19779806                      0022880422000040095000102N0                                                                                                                                                                                                                                                                                                                                                                                                                                                 000053
32008201600000236270022880508000000001043001000264NOVA MODA CONFECÇÕES LTDA RUA B                   RUA B N  210  LT 19 QD 24                                     SETOR CENTRO OESTE            074550270GOIANIA                       GO000006230911014000000000000000J0000000898098000901              00000000000000000000000000RUA B N  210  LT 19 QD 24                                     SETOR CENTRO OESTE            074550270GOIANIA                       GO                       D                              SJEAN DARROT GETS                                          000054
40000070SPCHEQUE ANALITICA . INTERNET                     000014900000010430DCO19776478                      0022880508000010015000102N0                                                                                                                                                                                                                                                                                                                                                                                                                                                 000055
32008201600000235990022880478000000000480001000087ANA ALVES DE OLIVEIRA                             AVENIDA   MARIANA JACOB DE MENESES, S/N                       JARDIM BALNEARIO MEIA PONTE   074593390GOIANIA                       GO000006232107743000000000000000F0000000033702110178150235470     00000000000000000000000000AV. COMERCIAL, SN  QD.01 LT. 05                               VILA GOIANY                   075345000ABADIA DE GOIAS               GO                       D                              STROPI-KALHA                                               000056
40000001MENSALIDADE 1/1                                   000480000000004800DNC2074                          0022880478000010000000001N0                                                                                                                                                                                                                                                                                                                                                                                                                                                 000057
32008201600000236300022880511000000000210101000268NOVA MODA CONFECÇÕES LTDA AV ANHANGUERA           AV ANHANGUERA, 1404                                           VILA MORAIS                   074620010GOIANIA                       GO000006232971066000000000000000J0000000898098001380              00000000000000000000000000AVENIDA   ANHANGUERA, 14404                                   CAPUAVA                       074450010GOIANIA                       GO                       D                              SJEAN DARROT GETS                                          000058
40000011SPC MIX (SPC + CHEQUE) . INTERNET                 000019100000002101DCO19776698                      0022880511000010013000102N0                                                                                                                                                                                                                                                                                                                                                                                                                                                 000059
32008201600000236240022880505000000000222301000261NOVA MODA CONFECÇÕES LTDA AVENIDA GOIAS           AVENIDA GOIAS N 4066   LT 5 E QD 24 SL                        CRIMEIA OESTE                 074916260APARECIDA DE GOIANIA          GO000006232102875000000000000000J0000000898098000650              00000000000000000000000000AVENIDA GOIAS N 4066   LT 5 E QD 24 SL                        CRIMEIA OESTE                 074916260APARECIDA DE GOIANIA          GO                       D                              SJEAN DARROT GETS                                          000060
40000009SPC PLUS INTERNET                                 000024700000002223DCO1455657                       0022880505000010128000102N0                                                                                                                                                                                                                                                                                                                                                                                                                                                 000061
32008201600000236290022880510000000000228701000267NOVA MODA CONFECÇÕES LTDA AV RIO VERDE            AVENIDA RIO VERDE  N  102  LJ 30                              JARDIM NOVA ERA               074916260APARECIDA DE GOIANIA          GO000006232484297000000000000000J0000000898098001207              00000000000000000000000000AVENIDA RIO VERDE  N  102   LJ 30                             JARDIM NOVA ERA               074916260APARECIDA DE GOIANIA          GO                       D                              SJEAN DARROT GETS                                          000062
40000002SPC TOP FISICA . INTERNET                         000047500000000950DCO166799                        0022880510000010007000102N0                                                                                                                                                                                                                                                                                                                                                                                                                                                 000063
40000007SPC MIX (SPC + CHEQUE) . INTERNET                 000019100000001337DCO19776698                      0022880510000020013000102N0                                                                                                                                                                                                                                                                                                                                                                                                                                                 000064
32008201600000236170022880497000000000594001000241G F COMERCIO DE PRODUTOS ALIMENTICIOS LTDA        AVENIDA DOM  FERNANDO GOMES DOS SANTOS, S/N  LT 15  QD. 117   CIDADE LIVRE                  074970110APARECIDA DE GOIANIA          GO000006232484242000000000000000J0000006963092000353103796630     00000000000000000000000000AV DOM FERNANDO GOMES DOS SANTOS, S/N  LT 15 QD 1 17          CIDADE LIVRE                  074970110APARECIDA DE GOIANIA          GO                       D                              SSUPER STORE (CIDADE LIVRE)                                000065
40000001MENSALIDADE 1/1                                   000480000000004800DNC2074                          0022880497000010000000001N0                                                                                                                                                                                                                                                                                                                                                                                                                                                 000066
40000006NOTIFICACAO                                       000019000000001140DNC2075                          0022880497000020000000001N0                                                                                                                                                                                                                                                                                                                                                                                                                                                 000067
32008201600000236320022880513000000000668501000270NOVA MODA CONFECÇÕES LTDA AV GOIAS                AVENIDA GOIAS  N  650                                         SETOR CENTRAL                 075025090ANAPOLIS                      GO000000000000000000000000000000J0000000898098001703              00000000000000000000000000AVENIDA GOIAS  N  650                                         SETOR CENTRAL                 075025090ANAPOLIS                      GO                       D                              SJEAN DARROT GETS                                          000068
40000035SPC MIX (SPC + CHEQUE) . INTERNET                 000019100000006685DCO19776698                      0022880513000010013000102N0                                                                                                                                                                                                                                                                                                                                                                                                                                                 000069
32008201600000236360022880517000000000509701000323NOVA MODA CONFECCOES LTDA                         AVENIDA BRASIL 505                                            CIDADE JARDIM                 075080240ANAPOLIS                      GO000006233270123000000000000000J0000000898098001894              00000000000000000000000000AV BRASIL 505  LJ 43                                          CIDADE JARDIM                 075080240ANAPOLIS                      GO                       D                              SJEAN DARROT                                               000070
40000009SPC TOP FISICA . INTERNET                         000047500000004275DCO166799                        0022880517000010007000102N0                                                                                                                                                                                                                                                                                                                                                                                                                                                 000071
40000006SPC . INTERNET                                    000013700000000822DCO19776634                      0022880517000020012000102N0                                                                                                                                                                                                                                                                                                                                                                                                                                                 000072
32008201600000234880022880366000000000350400559926ALEXANDRE DE OLIVEIRA VIANA 02815545101           RUA JK, SN  QD.01 LT.07-B                                     CENTRO                        075345000ABADIA DE GOIAS               GO000006284997120000000000000000J0000014834211000134              00000000000000000000000000RUA JK, SN  QD.01 LT.07-B                                     CENTRO                        075345000ABADIA DE GOIAS               GO                       D                              SVIANA´S OTICA E RELOJARIA                                 000073
40000001NOVO SPC MIX MAIS INTERNET                        000039300000000393DCO10355139                      0022880366000010323000102N0                                                                                                                                                                                                                                                                                                                                                                                                                                                 000074
40000001NOVO SPC MAXI INTERNET                            000079600000000796DCO10356278                      0022880366000020325000102N0                                                                                                                                                                                                                                                                                                                                                                                                                                                 000075
40000001SPCHEQUE ANALITICA . INTERNET                     000015000000000150DCO10373618                      0022880366000030015000102N0                                                                                                                                                                                                                                                                                                                                                                                                                                                 000076
40000001$ÓCHEQUE INTERNET                                 000003700000000037DCO10373786                      0022880366000040004000102N0                                                                                                                                                                                                                                                                                                                                                                                                                                                 000077
40000004SPC MIX MAIS + SCORE 12 MESES INTERNET            000053200000002128DCO18304105                      0022880366000050245000102N0                                                                                                                                                                                                                                                                                                                                                                                                                                                 000078
32008201600000235040022880382000000000230000559968JC MOVEIS E ELETRODOMESTICOS -                    AVENIDA SOLAR DAS PAINEIRAS, SN  QD.12 LT.27                  RESIDENCIAL SOLAR DAS PAINEIRA075370000GOIANIRA                      GO000006232946030000000000000000J0000017881622000179              00000000000000000000000000AVENIDA SOLAR DAS PAINEIRAS, SN  QD.12  LT.27                 RESIDENCIAL SOLAR DAS PAINEIRA075370000GOIANIRA                      GO                       D                              SJC MOVEIS E ELETRODOMESTICOS -                            000079
40000001COMPLEMENTO FATURAMENTO MINIMO                    000230000000002300DNC57893                         0022880382000010000000001N0                                                                                                                                                                                                                                                                                                                                                                                                                                                 000080
32008201600000234550022880331000000000230000559866SILVA E NEVES COMERCIO DE MOVEIS LTDA ME          AV MANOEL MONTEIRO, 406  QD 15, LT 22, CASA 2                 JARDIM SALVADOR               075380000TRINDADE                      GO000006285288571000000000000000J0000020967577000184              00000000000000000000000000AV MANOEL MONTEIRO, 406  QD 15, LT 22, CASA 2                 JARDIM SALVADOR               075380000TRINDADE                      GO                       D                              SSTILLO MÓVEIS                                             000081
40000001COMPLEMENTO FATURAMENTO MINIMO                    000150400000001504DNC57893                         0022880331000010000000001N0                                                                                                                                                                                                                                                                                                                                                                                                                                                 000082
40000001NOVO SPC MAXI INTERNET                            000079600000000796DCO10356278                      0022880331000020325000102N0                                                                                                                                                                                                                                                                                                                                                                                                                                                 000083
32008201600000234560022880332000000000230000559867KELLY GARDENYA NAVES 00127139109                  AV. ADJUNTO RODRIGUES VAZ, 79  QD D, LT 15-A                  ESTRELA DO ORIENTE            075380000TRINDADE                      GO000006285359644000000000000000J0000023057911000150              00000000000000000000000000AV. ADJUNTO RODRIGUES VAZ, 79  QD D, LT 15-A                  ESTRELA DO ORIENTE            075380000TRINDADE                      GO                       D                              SCENTRO DE ENSINO SUPERIOR GOIANO / FAC UNICAMPS           000084
40000001COMPLEMENTO FATURAMENTO MINIMO                    000230000000002300DNC57893                         0022880332000010000000001N0                                                                                                                                                                                                                                                                                                                                                                                                                                                 000085
32008201600000234570022880333000000000590000559868JD E SILVA CONFECCOES ME                          R 27, 182  LT 12 QD B                                         VILA MARIA                    075380000TRINDADE                      GO000006296194821000000000000000J0000022223641000148              00000000000000000000000000R 27, 182  LT 12 QD B                                         VILA MARIA                    075380000TRINDADE                      GO                       D                              SFLOR DE MINAS                                             000086
40000001COMPLEMENTO FATURAMENTO MINIMO                    000590000000005900DNC57893                         0022880333000010000000001N0                                                                                                                                                                                                                                                                                                                                                                                                                                                 000087
32008201600000234580022880334000000000590000559869GOIAS METAIS COMERCIAL LTDA-ME                    RUA PEDRO CANDIDO RIBEIRO, SN  QD 23 LT 13                    CRISTINA II                   075380000TRINDADE                      GO000006285715551000000000000000J0000004087090000150              00000000000000000000000000RUA PEDRO CANDIDO RIBEIRO, SN  QD 23 LT 13                    CRISTINA II                   075380000TRINDADE                      GO                       D                              SGOIAS METAIS                                              000088
40000001COMPLEMENTO FATURAMENTO MINIMO                    000040500000000405DNC57893                         0022880334000010000000001N0                                                                                                                                                                                                                                                                                                                                                                                                                                                 000089
40000014NOVO SPC MIX MAIS INTERNET                        000037700000005278DCO19984666                      0022880334000020323000102N0                                                                                                                                                                                                                                                                                                                                                                                                                                                 000090
40000007$ÓCHEQUE INTERNET                                 000003100000000217DCO19984680                      0022880334000030004000102N0                                                                                                                                                                                                                                                                                                                                                                                                                                                 000091
32008201600000234600022880336000000000230000559871SANTA FE CENTRO AUTOMOTIVO EIRELI-ME              AV. RAIMUNDO DE AQUINO, ESQ. C/ AVENIDA BRASILIA, 150  QD 17 LVILA JOÃO BRAZ                075380000TRINDADE                      GO000006231103881000000000000000J0000021256422000100              00000000000000000000000000AV. RAIMUNDO DE AQUINO, ESQ. C/ AVENIDA BRASILIA, 150  QD 17 LVILA JOÃO BRAZ                075380000TRINDADE                      GO                       D                              SSANTA FE CENTRO AUTOMOTIVO                                000092
40000001COMPLEMENTO FATURAMENTO MINIMO                    000230000000002300DNC57893                         0022880336000010000000001N0                                                                                                                                                                                                                                                                                                                                                                                                                                                 000093
32008201600000234630022880339000000000420000559876LOKTOTAL LOCACAO E COMERCIO DE MAQUINAS E EQUIPAMEAV. RAIMUNDO DE AQUINO, 943  QD 100 LT 4                      SETOR VILA PAI ETERNO         075380000TRINDADE                      GO000006293167391000000000000000J0000011699468000132              00000000000000000000000000AV DO AGRICULTOR, 350                                         TRES MARIAS                   063015010JUAZEIRO DO NORTE             CE                       D                              SLOKTOTAL                                                  000094
40000001COMPLEMENTO FATURAMENTO MINIMO                    000381500000003815DNC57893                         0022880339000010000000001N0                                                                                                                                                                                                                                                                                                                                                                                                                                                 000095
40000001NOVO SPC MIX MAIS INTERNET                        000038500000000385DCO18521086                      0022880339000020323000102N0                                                                                                                                                                                                                                                                                                                                                                                                                                                 000096
32008201600000234640022880340000000000230000559877TRINDADE SERVICOS CARTORARIOS LTDA ME             RUA BOA VISTA, 185  QD 3 LT 16 SL 2                           SETOR CENTRAL                 075380000TRINDADE                      GO000006231104002000000000000000J0000023055287000152              00000000000000000000000000RUA BOA VISTA, 185  QD 3 LT 16 SL 2                           SETOR CENTRAL                 075380000TRINDADE                      GO                       D                              SCARTORIO MAIS                                             000097
40000001COMPLEMENTO FATURAMENTO MINIMO                    000170000000001700DNC57893                         0022880340000010000000001N0                                                                                                                                                                                                                                                                                                                                                                                                                                                 000098
40000004SPC BUSCA INTERNET                                000015000000000600DCO10373954                      0022880340000020089000102N0                                                                                                                                                                                                                                                                                                                                                                                                                                                 000099
32008201600000234650022880341000000000230000559878LORRAYNE FRANCIS MARTINS 01670892182              RUA CORONEL ANACLETO, 445  QD 3, LT 6, SL 4                   CENTRO                        075380000TRINDADE                      GO000006294666410000000000000000J0000015259306000134              00000000000000000000000000RUA CORONEL ANACLETO, 445  QD 3, LT 6, SL 4                   CENTRO                        075380000TRINDADE                      GO                       D                              SYES COSMETICS                                             000100
40000001COMPLEMENTO FATURAMENTO MINIMO                    000190700000001907DNC57893                         0022880341000010000000001N0                                                                                                                                                                                                                                                                                                                                                                                                                                                 000101
40000001NOVO SPC MIX MAIS INTERNET                        000039300000000393DCO10355139                      0022880341000020323000102N0                                                                                                                                                                                                                                                                                                                                                                                                                                                 000102
32008201600000234660022880342000000000420000559880DROGARIA SEJANE LTDA-ME                           AV DOS FLAMBOYANTS, SN  Q 20 L 33                             PONTAKAYANA                   075380000TRINDADE                      GO000006291741122000000000000000J0000016515990000130              00000000000000000000000000AV DOS FLAMBOYANTS, SN  Q 20 L 33                             PONTAKAYANA                   075380000TRINDADE                      GO                       D                              SDROGARIA MARILAC                                          000103
40000001COMPLEMENTO FATURAMENTO MINIMO                    000074000000000740DNC57893                         0022880342000010000000001N0                                                                                                                                                                                                                                                                                                                                                                                                                                                 000104
40000005NOVO SPC MAXI INTERNET                            000069200000003460DCO10356405                      0022880342000020325000102N0                                                                                                                                                                                                                                                                                                                                                                                                                                                 000105
32008201600000234670022880343000000000420000559881SILVA BARROS COMERCIO DE VEICULOS EIRELI ME       R ROCHA LIMA, 341  LT 2 QD 3                                  JARDIM SALVADOR               075380000TRINDADE                      GO000006285100153000000000000000J0000022533286000103              00000000000000000000000000R ROCHA LIMA, 341  LT 2 QD 3                                  JARDIM SALVADOR               075380000TRINDADE                      GO                       D                              SGOIAS CAR                                                 000106
40000001COMPLEMENTO FATURAMENTO MINIMO                    000217600000002176DNC57893                         0022880343000010000000001N0                                                                                                                                                                                                                                                                                                                                                                                                                                                 000107
40000001SPC MIX MAIS + SCORE 3 MESES INTERNET             000050600000000506DCO18303853                      0022880343000020244000102N0                                                                                                                                                                                                                                                                                                                                                                                                                                                 000108
40000003SPC MIX MAIS + SCORE 12 MESES INTERNET            000050600000001518DCO18304119                      0022880343000030245000102N0                                                                                                                                                                                                                                                                                                                                                                                                                                                 000109
32008201600000234680022880344000000000240000559882PNEUS ALMEIDA LTDA ME                             AV MANOEL MONTEIRO, 2315  LT 233 SL 1 QD 27                   SETOR OESTE                   075380000TRINDADE                      GO000006285477883000000000000000J0000021332803000113              00000000000000000000000000AV MANOEL MONTEIRO, 2315  LT 233 SL 1 QD 27                   SETOR OESTE                   075380000TRINDADE                      GO                       D                              SPNEUS ALMEIDA                                             000110
40000001SPC MIX MAIS INTERNET                             000039300000000393DCO18296200                      0022880344000010240000102N0                                                                                                                                                                                                                                                                                                                                                                                                                                                 000111
40000001SPC MAXI INTERNET                                 000079600000000796DCO18296686                      0022880344000020246000102N0                                                                                                                                                                                                                                                                                                                                                                                                                                                 000112
40000001SPC MAXI + AÇÃO INTERNET                          000121100000001211DCO20181107                      0022880344000030248000102N0                                                                                                                                                                                                                                                                                                                                                                                                                                                 000113
32008201600000234690022880345000000000278100559883LUCIANO TOLEDO ROSA 81747780120                   R DR IRANI FERREIRA, 21  CS 3                                 CENTRO                        075380000TRINDADE                      GO000006299573437000000000000000J0000021227150000102              00000000000000000000000000R DR IRANI FERREIRA, 21  CS 3                                 CENTRO                        075380000TRINDADE                      GO                       D                              SRELUZ JOIAS                                               000114
40000001NOVO SPC MIX MAIS INTERNET                        000039300000000393DCO10355139                      0022880345000010323000102N0                                                                                                                                                                                                                                                                                                                                                                                                                                                 000115
40000003NOVO SPC MAXI INTERNET                            000079600000002388DCO10356278                      0022880345000020325000102N0                                                                                                                                                                                                                                                                                                                                                                                                                                                 000116
32008201600000234700022880346000000003130600559884MARIA JOSE DE OLIVEIRA EIRELI ME                  AV. A, SN  QD Q; LT 19; SALA 1                                SETOR VILA MARIA              075380000TRINDADE                      GO000006231103500000000000000000J0000016466341000197              00000000000000000000000000AV. A, SN  QD Q; LT 19; SALA 1                                SETOR VILA MARIA              075380000TRINDADE                      GO                       D                              SCASA BRASIL                                               000117
40000050NOVO SPC MAXI INTERNET                            000059800000029900DCO10356773                      0022880346000010325000102N0                                                                                                                                                                                                                                                                                                                                                                                                                                                 000118
40000001SPC MAXI + SCORE 3 MESES INTERNET                 000070300000000703DCO18303175                      0022880346000020250000102N0                                                                                                                                                                                                                                                                                                                                                                                                                                                 000119
40000001SPC MAXI + SCORE 12 MESES INTERNET                000070300000000703DCO19869172                      0022880346000030251000102N0                                                                                                                                                                                                                                                                                                                                                                                                                                                 000120
32008201600000234710022880347000000000484400559885KIEVSTIEN EMPREENDIMENTOS IMOBILIARIOS LTDA-ME    AV A 327, SN  Q 28 L 9                                        JARDIM DAS OLIVEIRAS          075380000TRINDADE                      GO000006232944352000000000000000J0000019207041000181              00000000000000000000000000AV A 327, SN  Q 28 L 9                                        JARDIM DAS OLIVEIRAS          075380000TRINDADE                      GO                       D                              SKIEVSTIEN EMPREENDIMENTOS IMOBILIARIOS                    000121
40000007NOVO SPC MAXI INTERNET                            000069200000004844DCO10356405                      0022880347000010325000102N0                                                                                                                                                                                                                                                                                                                                                                                                                                                 000122
32008201600000234720022880348000000000230000559891CENTRO EDUCACIONAL IGOR XAVIER LTDA ME            AV MANOEL MONTEIRO, 485  QD.05 LT.03                          JARDIM SALVADOR               075380000TRINDADE                      GO000006283241544000000000000000J0000022573713000187              00000000000000000000000000AVENIDA MANOEL MONTEIRO, 485  QD.05 LT.03                     JARDIM SALVADOR               075380000TRINDADE                      GO                       D                              SCENTRO EDUCACIONAL IGOR XAVIER                            000123
40000001COMPLEMENTO FATURAMENTO MINIMO                    000230000000002300DNC57893                         0022880348000010000000001N0                                                                                                                                                                                                                                                                                                                                                                                                                                                 000124
32008201600000234740022880350000000000420000559897SUPERMERCADO IRMAOS VAULA LTDA                    AV JOSE ANTONIO PEREIRA, 202  QD.07 LT.22                     BANDEIRANTES                  075380000TRINDADE                      GO000006291212001000000000000000J0000008598908000150              00000000000000000000000000AV JOSE ANTONIO PEREIRA, 202  QD.07 LT.22                     BANDEIRANTES                  075380000TRINDADE                      GO                       D                              SMERCEARIA BANDEIRANTES                                    000125
40000001COMPLEMENTO FATURAMENTO MINIMO                    000420000000004200DNC57893                         0022880350000010000000001N0                                                                                                                                                                                                                                                                                                                                                                                                                                                 000126
32008201600000234750022880351000000000420000559899RODRIGO CHAVEIRO SILVA                            AV. ELIZABETH MARQUES, SN  QD 14 LT 1                         MAISA 1                       075380000TRINDADE                      GO000006291473716000000000000000J0000018413836000183              00000000000000000000000000AV. ELIZABETH MARQUES, SN  QD 14 LT 1                         MAISA 1                       075380000TRINDADE                      GO                       D                              SOTICA VITORYA                                             000127
40000001COMPLEMENTO FATURAMENTO MINIMO                    000073500000000735DNC57893                         0022880351000010000000001N0                                                                                                                                                                                                                                                                                                                                                                                                                                                 000128
40000001NOVO SPC MIX MAIS INTERNET                        000038500000000385DCO18521086                      0022880351000020323000102N0                                                                                                                                                                                                                                                                                                                                                                                                                                                 000129
40000008NOVO SPC MIX MAIS TELEFONE                        000038500000003080DCO18521091                      0022880351000030323000402N0                                                                                                                                                                                                                                                                                                                                                                                                                                                 000130
32008201600000234760022880352000000000420000559900GESSI CARDOSO PIRES 03363132174                   AV. MANOEL MONTEIRO, 244                                      JARDIM SALVADOR               075380000TRINDADE                      GO000000000000000000000000000000J0000020337676000182              00000000000000000000000000AV. MANOEL MONTEIRO, 244                                      JARDIM SALVADOR               075380000TRINDADE                      GO                       D                              SAPALOOZA BY COUNTRY                                       000131
40000001COMPLEMENTO FATURAMENTO MINIMO                    000212400000002124DNC57893                         0022880352000010000000001N0                                                                                                                                                                                                                                                                                                                                                                                                                                                 000132
40000003NOVO SPC MAXI INTERNET                            000069200000002076DCO10356405                      0022880352000020325000102N0                                                                                                                                                                                                                                                                                                                                                                                                                                                 000133
32008201600000234770022880354000000000230000559903EVERTON CORREA AZEVEDO ARAUJO                     RUA 03, SN  QD. 5  LT. 1                                      SANTUARIO                     075380000TRINDADE                      GO000000000000000000000000000000F0000000089473833172              00000000000000000000000000RUA 03, SN  QD. 5  LT. 1                                      SANTUARIO                     075380000TRINDADE                      GO                       D                              SAZEVEDO ADVOGADOS                                         000134
40000001COMPLEMENTO FATURAMENTO MINIMO                    000189800000001898DNC57893                         0022880354000010000000001N0                                                                                                                                                                                                                                                                                                                                                                                                                                                 000135
40000001SPC BUSCA INTERNET                                000015000000000150DCO10373954                      0022880354000020089000102N0                                                                                                                                                                                                                                                                                                                                                                                                                                                 000136
40000003CONFIRME PF INTERNET                              000008400000000252DCO10374444                      0022880354000030011000102N0                                                                                                                                                                                                                                                                                                                                                                                                                                                 000137
32008201600000234780022880355000000000237800559904MARCOS ROGERIO COMERCIO DE VEICULOS LTDA ME       AVENIDA RAIMUNDO DE AQUINO, 249  QD.21 LT.17                  VILA JOÃO BRAZ                075380000TRINDADE                      GO000006292442989000000000000000J0000020533322000103              00000000000000000000000000AVENIDA RAIMUNDO DE AQUINO, 249  QD.21 LT.17                  VILA JOÃO BRAZ                075380000TRINDADE                      GO                       D                              SMR VEICULOS                                               000138
40000002NOVO SPC MIX MAIS INTERNET                        000039300000000786DCO10355139                      0022880355000010323000102N0                                                                                                                                                                                                                                                                                                                                                                                                                                                 000139
40000002NOVO SPC MAXI INTERNET                            000079600000001592DCO10356278                      0022880355000020325000102N0                                                                                                                                                                                                                                                                                                                                                                                                                                                 000140
32008201600000234790022880356000000000590000559905THAYCE KELLY CARDOSO NUNES - ME                   RUA FLOR DE MAIO, SN  QD.45 LT.09                             PONTA KAYANA                  075380000TRINDADE                      GO000006291515507000000000000000J0000013787112000186              00000000000000000000000000RUA FLOR DE MAIO, SN  QD.45 LT.09                             PONTA KAYANA                  075380000TRINDADE                      GO                       D                              SFILTROS & CIA                                             000141
40000001COMPLEMENTO FATURAMENTO MINIMO                    000552300000005523DNC57893                         0022880356000010000000001N0                                                                                                                                                                                                                                                                                                                                                                                                                                                 000142
40000001NOVO SPC MIX MAIS INTERNET                        000037700000000377DCO10355728                      0022880356000020323000102N0                                                                                                                                                                                                                                                                                                                                                                                                                                                 000143
32008201600000234800022880357000000001059500559907JK COMERCIO DE SECOS E MOLHADOS LTDA ME           RUA A-26, 11  QD. 28  LT. 18                                  SETOR SUL                     075380000TRINDADE                      GO000006499507923000000000000000J0000019255004000149105868582     00000000000000000000000000RUA A-26, 11  QD. 28  LT. 18                                  SETOR SUL                     075380000TRINDADE                      GO                       D                              SSUPERMERCADO JK                                           000144
40000007REGISTRO/NOTIFICAÇÃO FATURAMENTO MINIMO R$ 59,00  000035400000002478DNC67414                         0022880357000010000000001N0                                                                                                                                                                                                                                                                                                                                                                                                                                                 000145
40000003SPCHEQUE ANALITICA . INTERNET                     000012400000000372DCO10373646                      0022880357000020015000102N0                                                                                                                                                                                                                                                                                                                                                                                                                                                 000146
40000004SPC BUSCA INTERNET                                000012400000000496DCO10373982                      0022880357000030089000102N0                                                                                                                                                                                                                                                                                                                                                                                                                                                 000147
40000011SPC MAXI INTERNET                                 000065900000007249DCO18296728                      0022880357000040246000102N0                                                                                                                                                                                                                                                                                                                                                                                                                                                 000148
32008201600000234810022880358000000000420000559908TECNOLOGIA DO FRIO MULTMARCAS LTDA                RUA A-22, 445  QD. 33  LT. 09                                 SETOR SUL                     075380000TRINDADE                      GO000006235051160000000000000000J0000009394865000154              00000000000000000000000000RUA A-22, 445  QD. 33  LT. 09                                 SETOR SUL                     075380000TRINDADE                      GO                       D                              STECFRIO                                                   000149
40000001COMPLEMENTO FATURAMENTO MINIMO                    000350800000003508DNC57893                         0022880358000010000000001N0                                                                                                                                                                                                                                                                                                                                                                                                                                                 000150
40000001NOVO SPC MAXI INTERNET                            000069200000000692DCO10356405                      0022880358000020325000102N0                                                                                                                                                                                                                                                                                                                                                                                                                                                 000151
32008201600000234820022880359000000038712200559910WELLITON JULIO CARDOSO                            AVENIDA MANOEL MONTEIRO, 1955                                 VILA CARVELO                  075380000TRINDADE                      GO000006291052699000000000000000F0000000002479490190              00000000000000000000000000AVENIDA MANOEL MONTEIRO, 1955                                 VILA CARVELO                  075380000TRINDADE                      GO                       D                              SWELLITON JULIO CARDOSO                                    000152
40001217NOVO SPC MIX MAIS INTERNET                        000031600000384572DCO10357443                      0022880359000010323000102N0                                                                                                                                                                                                                                                                                                                                                                                                                                                 000153
40000006NOVO SPC MAXI INTERNET                            000042500000002550DCO10359616                      0022880359000020325000102N0                                                                                                                                                                                                                                                                                                                                                                                                                                                 000154
32008201600000234830022880360000000001286500559912AILTON DE SOUZA 05901703170                       RUA PADRE ORLANDO MORAIS, SN                                  VILLA PERPETUO SOCORRO        075380000TRINDADE                      GO000000000000000000000000000000J0000022625574000198              00000000000000000000000000AVENIDA   CASTELO BRANCO, 2149  SALA 11                       SETOR COIMBRA                 074530010GOIANIA                       GO                       D                              SGRUPO MERITO                                              000155
40000002SPC MIX +. INTERNET                               000037700000000754DCO1270338                       0022880360000010095000102N0                                                                                                                                                                                                                                                                                                                                                                                                                                                 000156
40000004SPC TOP JURIDICO . INTERNET                       000298900000011956DCO10373478                      0022880360000020008000102N0                                                                                                                                                                                                                                                                                                                                                                                                                                                 000157
40000001$ÓCHEQUE INTERNET                                 000003100000000031DCO10373814                      0022880360000030004000102N0                                                                                                                                                                                                                                                                                                                                                                                                                                                 000158
40000001SPC BUSCA INTERNET                                000012400000000124DCO10373982                      0022880360000040089000102N0                                                                                                                                                                                                                                                                                                                                                                                                                                                 000159
32008201600000234840022880362000000000230000559917CAIO EMERSON PEREIRA RODRIGUES ASSESSORIAS E CONSURUA SÃO SEBASTIÃO, 34                                         CENTRO                        075380000TRINDADE                      GO000006296019946000000000000000J0000008537593000131              00000000000000000000000000RUA   MARIA PEDRO DE JESUS, SN  QD. 11  LT. 03                JARDIM PRIMAVERA              075390343TRINDADE                      GO                       D                              SCONSUCESSO CONTABILIDADE                                  000160
40000001COMPLEMENTO FATURAMENTO MINIMO                    000230000000002300DNC57893                         0022880362000010000000001N0                                                                                                                                                                                                                                                                                                                                                                                                                                                 000161
32008201600000234850022880363000000000230000559918REGINA SOUSA SA SILVA 62919121391                 RUA 123, 1247  QD.08 LT.11                                    ANA ROSA                      075380000TRINDADE                      GO000006235050745000000000000000J0000012492202000187              00000000000000000000000000RUA 123, 1247  QD.08   LT.11                                  ANA ROSA                      075380000TRINDADE                      GO                       D                              SART BELLE ACESSÓRIOS INFANTIS                             000162
40000001COMPLEMENTO FATURAMENTO MINIMO                    000230000000002300DNC57893                         0022880363000010000000001N0                                                                                                                                                                                                                                                                                                                                                                                                                                                 000163
32008201600000234860022880364000000001320000559921CONCREPOSTE INDUSTRIA E COMERCIO DE ARTEFATOS DE CAVENIDA 75, 80  QD.22                                         RESIDENCIAL RENATA PARK       075380000TRINDADE                      GO000006292699799000000000000000J0000003906716000140              00000000000000000000000000AVENIDA 75, 80  QD.22                                         RESIDENCIAL RENATA PARK       075380000TRINDADE                      GO                       D                              SCONCREPOSTE                                               000164
40000001COMPLEMENTO FATURAMENTO MINIMO                    000446200000004462DNC57893                         0022880364000010000000001N0                                                                                                                                                                                                                                                                                                                                                                                                                                                 000165
40000005NOVO SPC MIX MAIS INTERNET                        000035500000001775DCO10356103                      0022880364000020323000102N0                                                                                                                                                                                                                                                                                                                                                                                                                                                 000166
40000001NOVO SPC MAXI INTERNET                            000056900000000569DCO10356936                      0022880364000030325000102N0                                                                                                                                                                                                                                                                                                                                                                                                                                                 000167
40000002INSUMO PARTICIP.EMPRESAS INTERNET                 000017200000000344DCO10358264                      0022880364000040318000102N0                                                                                                                                                                                                                                                                                                                                                                                                                                                 000168
40000003INSUMO CONTROLE SOCIETARIO SERASA INTERNET        000017200000000516DCO10358869                      0022880364000050268000102N0                                                                                                                                                                                                                                                                                                                                                                                                                                                 000169
40000003INSUMO ACAO INTERNET                              000030200000000906DCO10360585                      0022880364000060314000102N0                                                                                                                                                                                                                                                                                                                                                                                                                                                 000170
40000002INSUMO TELEFONE VINCULADO INTERNET                000007000000000140DCO10361915                      0022880364000070315000102N0                                                                                                                                                                                                                                                                                                                                                                                                                                                 000171
40000002INSUMO PEFIN SERASA INTERNET                      000021400000000428DCO20215231                      0022880364000080168000102N0                                                                                                                                                                                                                                                                                                                                                                                                                                                 000172
40000002INSUMO LIMITE DE CRÉDITO PJ INTERNET              000101500000002030DCO20278298                      0022880364000090403000102N0                                                                                                                                                                                                                                                                                                                                                                                                                                                 000173
