10400000         2116559540001590000000000000000000001298027300700000000FEDERAL SISTEMAS              CAIXA ECONOMICA FEDERAL                 10608201819013600015405000000                    REMESSA-PRODUCAO                                 
10400011R0100030 20116559540001592730070000000000000001298027300700000000FEDERAL SISTEMAS                                                                                              000001540608201800000000                                 
1040001300001P 0101298027300700000000000140000000000342341122034234          1008201800000000003900000000099N0608201821008201800000000000060000000000000000000000000000000000000000000000000000000034234                    3001029090000000000 
1040001300002Q 012011963712000122BJ SAT TENCOLOGIA EM RESTREAMENTO       AV. PRESIDENTE VARGAS                   CENTRO         76300000CERES          GO0000000000000000                                                                       
1040001300003R 01000000000000000000000000000000000000000000000000210082018000000000000200                                                                                                                                                       
1040001300004P 0101298027300700000000000140000000000342351122034235          1008201800000000017737000000099N0608201821008201800000000000060000000000000000000000000000000000000000000000000000000034235                    3001029090000000000 
1040001300005Q 012011088454000182FERDINAND BATISTA DE ARAUJO - ME        AV. PRESIDENTE VARGAS                   CENTRO         76300000CERES          GO0000000000000000                                                                       
1040001300006R 01000000000000000000000000000000000000000000000000210082018000000000000200                                                                                                                                                       
1040001300007P 0101298027300700000000000140000000000342361122034236          1008201800000000001794000000099N0608201821008201800000000000060000000000000000000000000000000000000000000000000000000034236                    3001029090000000000 
1040001300008Q 012001640145000110ONE CITY GPS EQUIP ELETRONICOS LTDA ME  AV. PRESIDENTE VARGAS                   CENTRO         76300000CERES          GO0000000000000000                                                                       
1040001300009R 01000000000000000000000000000000000000000000000000210082018000000000000200                                                                                                                                                       
1040001300010P 0101298027300700000000000140000000000342371122034237          1008201800000000012091000000099N0608201821008201800000000000060000000000000000000000000000000000000000000000000000000034237                    3001029090000000000 
1040001300011Q 012004626774000183M F LIMA CARNEIRO E CIA LTDA - EPP      AV. PRESIDENTE VARGAS                   CENTRO         76300000CERES          GO0000000000000000                                                                       
1040001300012R 01000000000000000000000000000000000000000000000000210082018000000000000200                                                                                                                                                       
1040001300013P 0101298027300700000000000140000000000342381122034238          1008201800000000005928000000099N0608201821008201800000000000060000000000000000000000000000000000000000000000000000000034238                    3001029090000000000 
1040001300014Q 011000044705190300ROGERIO H. MAZUAD                       AV. PRESIDENTE VARGAS                   CENTRO         76300000CERES          GO0000000000000000                                                                       
1040001300015R 01000000000000000000000000000000000000000000000000210082018000000000000200                                                                                                                                                       
1040001300016P 0101298027300700000000000140000000000342391122034239          1008201800000000015939000000099N0608201821008201800000000000060000000000000000000000000000000000000000000000000000000034239                    3001029090000000000 
1040001300017Q 012018765152000140CAMILA REGO DA SILVA ARAGAO ME          AV. PRESIDENTE VARGAS                   CENTRO         76300000CERES          GO0000000000000000                                                                       
1040001300018R 01000000000000000000000000000000000000000000000000210082018000000000000200                                                                                                                                                       
1040001300019P 0101298027300700000000000140000000000342401122034240          1008201800000000003240000000099N0608201821008201800000000000060000000000000000000000000000000000000000000000000000000034240                    3001029090000000000 
1040001300020Q 011000001488919348GERSON GAMA LEAL                        AV. PRESIDENTE VARGAS                   CENTRO         76300000CERES          GO0000000000000000                                                                       
1040001300021R 01000000000000000000000000000000000000000000000000210082018000000000000200                                                                                                                                                       
1040001300022P 0101298027300700000000000140000000000342411122034241          1008201800000000010783700000099N0608201821008201800000000000060000000000000000000000000000000000000000000000000000000034241                    3001029090000000000 
1040001300023Q 012019677627000100ELITE SEGURANCA ELETR E MONITORAMENTO   AV. PRESIDENTE VARGAS                   CENTRO         76300000CERES          GO0000000000000000                                                                       
1040001300024R 01000000000000000000000000000000000000000000000000210082018000000000000200                                                                                                                                                       
1040001300025P 0101298027300700000000000140000000000342421122034242          1008201800000000012403000000099N0608201821008201800000000000060000000000000000000000000000000000000000000000000000000034242                    3001029090000000000 
1040001300026Q 012022379734000166J DE A F DA SILVA - ME                  AV. PRESIDENTE VARGAS                   CENTRO         76300000CERES          GO0000000000000000                                                                       
1040001300027R 01000000000000000000000000000000000000000000000000210082018000000000000200                                                                                                                                                       
1040001300028P 0101298027300700000000000140000000000342441122034244          1008201800000000002418000000099N0608201821008201800000000000060000000000000000000000000000000000000000000000000000000034244                    3001029090000000000 
1040001300029Q 012017055560000146ALVES DA SILVA E GAMA LEAL LTDA - ME    AV. PRESIDENTE VARGAS                   CENTRO         76300000CERES          GO0000000000000000                                                                       
1040001300030R 01000000000000000000000000000000000000000000000000210082018000000000000200                                                                                                                                                       
1040001300031P 0101298027300700000000000140000000000342451122034245          1008201800000000015513000000099N0608201821008201800000000000060000000000000000000000000000000000000000000000000000000034245                    3001029090000000000 
1040001300032Q 012018707079000150SYSROTA EIRELI - ME                     AV. PRESIDENTE VARGAS                   CENTRO         76300000CERES          GO0000000000000000                                                                       
1040001300033R 01000000000000000000000000000000000000000000000000210082018000000000000200                                                                                                                                                       
1040001300034P 0101298027300700000000000140000000000342461122034246          1008201800000000002322000000099N0608201821008201800000000000060000000000000000000000000000000000000000000000000000000034246                    3001029090000000000 
1040001300035Q 012023606665000149M2 DO BRASIL MONITORAMENTO ONLINE EIRELIAV. PRESIDENTE VARGAS                   CENTRO         76300000CERES          GO0000000000000000                                                                       
1040001300036R 01000000000000000000000000000000000000000000000000210082018000000000000200                                                                                                                                                       
1040001300037P 0101298027300700000000000140000000000342471122034247          1008201800000000008706000000099N0608201821008201800000000000060000000000000000000000000000000000000000000000000000000034247                    3001029090000000000 
1040001300038Q 012000097489000161LA VIDAL E CIA LTDA - EPP               AV. PRESIDENTE VARGAS                   CENTRO         76300000CERES          GO0000000000000000                                                                       
1040001300039R 01000000000000000000000000000000000000000000000000210082018000000000000200                                                                                                                                                       
1040001300040P 0101298027300700000000000140000000000342491122034249          1008201800000000000198000000099N0608201821008201800000000000060000000000000000000000000000000000000000000000000000000034249                    3001029090000000000 
1040001300041Q 011000031179567862FABIO FRANCO BONANATI                   AV. PRESIDENTE VARGAS                   CENTRO         76300000CERES          GO0000000000000000                                                                       
1040001300042R 01000000000000000000000000000000000000000000000000210082018000000000000200                                                                                                                                                       
1040001300043P 0101298027300700000000000140000000000342501122034250          1008201800000000005044000000099N0608201821008201800000000000060000000000000000000000000000000000000000000000000000000034250                    3001029090000000000 
1040001300044Q 011000072435968272GEORGE WILLTON SANTOS PEREIRA           AV. PRESIDENTE VARGAS                   CENTRO         76300000CERES          GO0000000000000000                                                                       
1040001300045R 01000000000000000000000000000000000000000000000000210082018000000000000200                                                                                                                                                       
1040001300046P 0101298027300700000000000140000000000342511122034251          1008201800000000009399000000099N0608201821008201800000000000060000000000000000000000000000000000000000000000000000000034251                    3001029090000000000 
1040001300047Q 011000011646215729DOMINGOS RONIVALDO DA SILVA RUFINO      AV. PRESIDENTE VARGAS                   CENTRO         76300000CERES          GO0000000000000000                                                                       
1040001300048R 01000000000000000000000000000000000000000000000000210082018000000000000200                                                                                                                                                       
1040001300049P 0101298027300700000000000140000000000342521122034252          1008201800000000004344000000099N0608201821008201800000000000060000000000000000000000000000000000000000000000000000000034252                    3001029090000000000 
1040001300050Q 011000050477285520ARNALDO BATISTA                         AV. PRESIDENTE VARGAS                   CENTRO         76300000CERES          GO0000000000000000                                                                       
1040001300051R 01000000000000000000000000000000000000000000000000210082018000000000000200                                                                                                                                                       
1040001300052P 0101298027300700000000000140000000000342531122034253          1008201800000000001244300000099N0608201821008201800000000000060000000000000000000000000000000000000000000000000000000034253                    3001029090000000000 
1040001300053Q 011000010936180781ANDRE LUIZ OLIVEIRA ATAIDE              AV. PRESIDENTE VARGAS                   CENTRO         76300000CERES          GO0000000000000000                                                                       
1040001300054R 01000000000000000000000000000000000000000000000000210082018000000000000200                                                                                                                                                       
1040001300055P 0101298027300700000000000140000000000342541122034254          1008201800000000000517000000099N0608201821008201800000000000060000000000000000000000000000000000000000000000000000000034254                    3001029090000000000 
1040001300056Q 011000007767300960AUTOBUSKA RASTREADORES E BLOQUEADORES VEAV. PRESIDENTE VARGAS                   CENTRO         76300000CERES          GO0000000000000000                                                                       
1040001300057R 01000000000000000000000000000000000000000000000000210082018000000000000200                                                                                                                                                       
1040001300058P 0101298027300700000000000140000000000342551122034255          1008201800000000000297000000099N0608201821008201800000000000060000000000000000000000000000000000000000000000000000000034255                    3001029090000000000 
1040001300059Q 011000004012365525GILMAR SILVA SAMPAIO                    AV. PRESIDENTE VARGAS                   CENTRO         76300000CERES          GO0000000000000000                                                                       
1040001300060R 01000000000000000000000000000000000000000000000000210082018000000000000200                                                                                                                                                       
1040001300061P 0101298027300700000000000140000000000342561122034256          1008201800000000000495000000099N0608201821008201800000000000060000000000000000000000000000000000000000000000000000000034256                    3001029090000000000 
1040001300062Q 011000008105070642HARLEY TEIXEIRA DE FREITAS              AV. PRESIDENTE VARGAS                   CENTRO         76300000CERES          GO0000000000000000                                                                       
1040001300063R 01000000000000000000000000000000000000000000000000210082018000000000000200                                                                                                                                                       
1040001300064P 0101298027300700000000000140000000000342571122034257          1008201800000000000220000000099N0608201821008201800000000000060000000000000000000000000000000000000000000000000000000034257                    3001029090000000000 
1040001300065Q 011000000342887327JULIELSON NUNES                         AV. PRESIDENTE VARGAS                   CENTRO         76300000CERES          GO0000000000000000                                                                       
1040001300066R 01000000000000000000000000000000000000000000000000210082018000000000000200                                                                                                                                                       
1040001300067P 0101298027300700000000000140000000000342581122034258          1008201800000000001073400000099N0608201821008201800000000000060000000000000000000000000000000000000000000000000000000034258                    3001029090000000000 
1040001300068Q 011000002701961882JOSE LUIZ ALBERTO SOBRINHO              AV. PRESIDENTE VARGAS                   CENTRO         76300000CERES          GO0000000000000000                                                                       
1040001300069R 01000000000000000000000000000000000000000000000000210082018000000000000200                                                                                                                                                       
1040001300070P 0101298027300700000000000140000000000342591122034259          1008201800000000000297000000099N0608201821008201800000000000060000000000000000000000000000000000000000000000000000000034259                    3001029090000000000 
1040001300071Q 011000087630451334EVERARDO GOMES DE ARAUJO                AV. PRESIDENTE VARGAS                   CENTRO         76300000CERES          GO0000000000000000                                                                       
1040001300072R 01000000000000000000000000000000000000000000000000210082018000000000000200                                                                                                                                                       
1040001300073P 0101298027300700000000000140000000000342601122034260          1008201800000000004556100000099N0608201821008201800000000000060000000000000000000000000000000000000000000000000000000034260                    3001029090000000000 
1040001300074Q 011000008479656786FERNANDO JOSE SIQUEIRA DE MAGALHAES BASTAV. PRESIDENTE VARGAS                   CENTRO         76300000CERES          GO0000000000000000                                                                       
1040001300075R 01000000000000000000000000000000000000000000000000210082018000000000000200                                                                                                                                                       
1040001300076P 0101298027300700000000000140000000000342611122034261          1008201800000000000099000000099N0608201821008201800000000000060000000000000000000000000000000000000000000000000000000034261                    3001029090000000000 
1040001300077Q 011000004267859914DOUGLAS BORGES                          AV. PRESIDENTE VARGAS                   CENTRO         76300000CERES          GO0000000000000000                                                                       
1040001300078R 01000000000000000000000000000000000000000000000000210082018000000000000200                                                                                                                                                       
1040001300079P 0101298027300700000000000140000000000342621122034262          1008201800000000004914000000099N0608201821008201800000000000060000000000000000000000000000000000000000000000000000000034262                    3001029090000000000 
1040001300080Q 012025167634000164RASTRO RS SERVICOS DE MONITORAMENTO EIREAV. PRESIDENTE VARGAS                   CENTRO         76300000CERES          GO0000000000000000                                                                       
1040001300081R 01000000000000000000000000000000000000000000000000210082018000000000000200                                                                                                                                                       
1040001300082P 0101298027300700000000000140000000000342631122034263          1008201800000000001386000000099N0608201821008201800000000000060000000000000000000000000000000000000000000000000000000034263                    3001029090000000000 
1040001300083Q 011000004601350662FRANKLIN LIMA                           AV. PRESIDENTE VARGAS                   CENTRO         76300000CERES          GO0000000000000000                                                                       
1040001300084R 01000000000000000000000000000000000000000000000000210082018000000000000200                                                                                                                                                       
1040001300085P 0101298027300700000000000140000000000342641122034264          1008201800000000001950000000099N0608201821008201800000000000060000000000000000000000000000000000000000000000000000000034264                    3001029090000000000 
1040001300086Q 011000057194270072EBER BELEM                              AV. PRESIDENTE VARGAS                   CENTRO         76300000CERES          GO0000000000000000                                                                       
1040001300087R 01000000000000000000000000000000000000000000000000210082018000000000000200                                                                                                                                                       
1040001300088P 0101298027300700000000000140000000000342651122034265          1008201800000000017798000000099N0608201821008201800000000000060000000000000000000000000000000000000000000000000000000034265                    3001029090000000000 
1040001300089Q 011000003908501369PEDRO HENRIQUE BESSA GURGEL             AV. PRESIDENTE VARGAS                   CENTRO         76300000CERES          GO0000000000000000                                                                       
1040001300090R 01000000000000000000000000000000000000000000000000210082018000000000000200                                                                                                                                                       
1040001300091P 0101298027300700000000000140000000000342661122034266          1008201800000000008764000000099N0608201821008201800000000000060000000000000000000000000000000000000000000000000000000034266                    3001029090000000000 
1040001300092Q 011000003434917454FABIO MENDONCA FERREIRA                 AV. PRESIDENTE VARGAS                   CENTRO         76300000CERES          GO0000000000000000                                                                       
1040001300093R 01000000000000000000000000000000000000000000000000210082018000000000000200                                                                                                                                                       
1040001300094P 0101298027300700000000000140000000000342671122034267          1008201800000000007466000000099N0608201821008201800000000000060000000000000000000000000000000000000000000000000000000034267                    3001029090000000000 
1040001300095Q 011000000912863285LEONARDO ROCHA DA SILVA                 AV. PRESIDENTE VARGAS                   CENTRO         76300000CERES          GO0000000000000000                                                                       
1040001300096R 01000000000000000000000000000000000000000000000000210082018000000000000200                                                                                                                                                       
1040001300097P 0101298027300700000000000140000000000342681122034268          1008201800000000002964000000099N0608201821008201800000000000060000000000000000000000000000000000000000000000000000000034268                    3001029090000000000 
1040001300098Q 011000093293259715WILSON MARTINS CARREIRA                 AV. PRESIDENTE VARGAS                   CENTRO         76300000CERES          GO0000000000000000                                                                       
1040001300099R 01000000000000000000000000000000000000000000000000210082018000000000000200                                                                                                                                                       
1040001300100P 0101298027300700000000000140000000000342691122034269          1008201800000000000198000000099N0608201821008201800000000000060000000000000000000000000000000000000000000000000000000034269                    3001029090000000000 
1040001300101Q 011000003700881746LAZARO TUBARAO                          AV. PRESIDENTE VARGAS                   CENTRO         76300000CERES          GO0000000000000000                                                                       
1040001300102R 01000000000000000000000000000000000000000000000000210082018000000000000200                                                                                                                                                       
1040001300103P 0101298027300700000000000140000000000342701122034270          1008201800000000000338000000099N0608201821008201800000000000060000000000000000000000000000000000000000000000000000000034270                    3001029090000000000 
1040001300104Q 011000003765813443JOSE ADRIANO LINO DE LIMA (CASA DA CONSTAV. PRESIDENTE VARGAS                   CENTRO         76300000CERES          GO0000000000000000                                                                       
1040001300105R 01000000000000000000000000000000000000000000000000210082018000000000000200                                                                                                                                                       
1040001300106P 0101298027300700000000000140000000000342711122034271          1008201800000000000198000000099N0608201821008201800000000000060000000000000000000000000000000000000000000000000000000034271                    3001029090000000000 
1040001300107Q 012015290483000183ICARO SIMAS                             AV. PRESIDENTE VARGAS                   CENTRO         76300000CERES          GO0000000000000000                                                                       
1040001300108R 01000000000000000000000000000000000000000000000000210082018000000000000200                                                                                                                                                       
1040001300109P 0101298027300700000000000140000000000342721122034272          1008201800000000000198000000099N0608201821008201800000000000060000000000000000000000000000000000000000000000000000000034272                    3001029090000000000 
1040001300110Q 011000028187156104LUZIA CONCEICAO ALVES                   AV. PRESIDENTE VARGAS                   CENTRO         76300000CERES          GO0000000000000000                                                                       
1040001300111R 01000000000000000000000000000000000000000000000000210082018000000000000200                                                                                                                                                       
1040001300112P 0101298027300700000000000140000000000342731122034273          1008201800000000001386000000099N0608201821008201800000000000060000000000000000000000000000000000000000000000000000000034273                    3001029090000000000 
1040001300113Q 011000047403705300JAIRO ROCHA                             AV. PRESIDENTE VARGAS                   CENTRO         76300000CERES          GO0000000000000000                                                                       
1040001300114R 01000000000000000000000000000000000000000000000000210082018000000000000200                                                                                                                                                       
1040001300115P 0101298027300700000000000140000000000342741122034274          1008201800000000000099000000099N0608201821008201800000000000060000000000000000000000000000000000000000000000000000000034274                    3001029090000000000 
1040001300116Q 011000002086194102CARLOS ALBERTO ALMEIDA RODRIGUES        AV. PRESIDENTE VARGAS                   CENTRO         76300000CERES          GO0000000000000000                                                                       
1040001300117R 01000000000000000000000000000000000000000000000000210082018000000000000200                                                                                                                                                       
1040001300118P 0101298027300700000000000140000000000342751122034275          1008201800000000055040600000099N0608201821008201800000000000060000000000000000000000000000000000000000000000000000000034275                    3001029090000000000 
1040001300119Q 012015686018000166SRS TECNOLOGIA E SEGURANCA-SAMUEL       AV. PRESIDENTE VARGAS                   CENTRO         76300000CERES          GO0000000000000000                                                                       
1040001300120R 01000000000000000000000000000000000000000000000000210082018000000000000200                                                                                                                                                       
1040001300121P 0101298027300700000000000140000000000342761122034276          1008201800000000000099000000099N0608201821008201800000000000060000000000000000000000000000000000000000000000000000000034276                    3001029090000000000 
1040001300122Q 011000009613933786NILSON CARVALHO                         AV. PRESIDENTE VARGAS                   CENTRO         76300000CERES          GO0000000000000000                                                                       
1040001300123R 01000000000000000000000000000000000000000000000000210082018000000000000200                                                                                                                                                       
1040001300124P 0101298027300700000000000140000000000342771122034277          1008201800000000000693000000099N0608201821008201800000000000060000000000000000000000000000000000000000000000000000000034277                    3001029090000000000 
1040001300125Q 011000009533034700HIGO BRAGA FONSECA E SILVA              AV. PRESIDENTE VARGAS                   CENTRO         76300000CERES          GO0000000000000000                                                                       
1040001300126R 01000000000000000000000000000000000000000000000000210082018000000000000200                                                                                                                                                       
1040001300127P 0101298027300700000000000140000000000342781122034278          1008201800000000000297000000099N0608201821008201800000000000060000000000000000000000000000000000000000000000000000000034278                    3001029090000000000 
1040001300128Q 011000004200874199JEFFERSON CHAVES DA SILVA               AV. PRESIDENTE VARGAS                   CENTRO         76300000CERES          GO0000000000000000                                                                       
1040001300129R 01000000000000000000000000000000000000000000000000210082018000000000000200                                                                                                                                                       
1040001300130P 0101298027300700000000000140000000000342791122034279          1008201800000000040572000000099N0608201821008201800000000000060000000000000000000000000000000000000000000000000000000034279                    3001029090000000000 
1040001300131Q 012022790326000100ULTRA SOLUCOES EM SERVICOS DA TECNOLOGIAAV. PRESIDENTE VARGAS                   CENTRO         76300000CERES          GO0000000000000000                                                                       
1040001300132R 01000000000000000000000000000000000000000000000000210082018000000000000200                                                                                                                                                       
1040001300133P 0101298027300700000000000140000000000342801122034280          1008201800000000008100000000099N0608201821008201800000000000060000000000000000000000000000000000000000000000000000000034280                    3001029090000000000 
1040001300134Q 011000084430133972MICHELY LIMA                            AV. PRESIDENTE VARGAS                   CENTRO         76300000CERES          GO0000000000000000                                                                       
1040001300135R 01000000000000000000000000000000000000000000000000210082018000000000000200                                                                                                                                                       
1040001300136P 0101298027300700000000000140000000000342811122034281          1008201800000000001782000000099N0608201821008201800000000000060000000000000000000000000000000000000000000000000000000034281                    3001029090000000000 
1040001300137Q 011000000147721679WANDERSON ASSUNCAO DA SILVA             AV. PRESIDENTE VARGAS                   CENTRO         76300000CERES          GO0000000000000000                                                                       
1040001300138R 01000000000000000000000000000000000000000000000000210082018000000000000200                                                                                                                                                       
1040001300139P 0101298027300700000000000140000000000342821122034282          1008201800000000000198000000099N0608201821008201800000000000060000000000000000000000000000000000000000000000000000000034282                    3001029090000000000 
1040001300140Q 011000056052995300EDMAR OLIVEIRA GUEDES  JUNIOR           AV. PRESIDENTE VARGAS                   CENTRO         76300000CERES          GO0000000000000000                                                                       
1040001300141R 01000000000000000000000000000000000000000000000000210082018000000000000200                                                                                                                                                       
1040001300142P 0101298027300700000000000140000000000342831122034283          1008201800000000000099000000099N0608201821008201800000000000060000000000000000000000000000000000000000000000000000000034283                    3001029090000000000 
1040001300143Q 011000002523867362FRANCIVALDO FEITOSA                     AV. PRESIDENTE VARGAS                   CENTRO         76300000CERES          GO0000000000000000                                                                       
1040001300144R 01000000000000000000000000000000000000000000000000210082018000000000000200                                                                                                                                                       
1040001300145P 0101298027300700000000000140000000000342841122034284          1008201800000000002912000000099N0608201821008201800000000000060000000000000000000000000000000000000000000000000000000034284                    3001029090000000000 
1040001300146Q 011000026355703888ENEAS GIL MARQUES                       AV. PRESIDENTE VARGAS                   CENTRO         76300000CERES          GO0000000000000000                                                                       
1040001300147R 01000000000000000000000000000000000000000000000000210082018000000000000200                                                                                                                                                       
1040001300148P 0101298027300700000000000140000000000342851122034285          1008201800000000000594000000099N0608201821008201800000000000060000000000000000000000000000000000000000000000000000000034285                    3001029090000000000 
1040001300149Q 011000042308542004GREGORIO VILAS BOAS                     AV. PRESIDENTE VARGAS                   CENTRO         76300000CERES          GO0000000000000000                                                                       
1040001300150R 01000000000000000000000000000000000000000000000000210082018000000000000200                                                                                                                                                       
1040001300151P 0101298027300700000000000140000000000342861122034286          1008201800000000000792000000099N0608201821008201800000000000060000000000000000000000000000000000000000000000000000000034286                    3001029090000000000 
1040001300152Q 012041454554000146FRANCISCO RICARDO MONTEIRO - ME         AV. PRESIDENTE VARGAS                   CENTRO         76300000CERES          GO0000000000000000                                                                       
1040001300153R 01000000000000000000000000000000000000000000000000210082018000000000000200                                                                                                                                                       
1040001300154P 0101298027300700000000000140000000000342871122034287          1008201800000000000396000000099N0608201821008201800000000000060000000000000000000000000000000000000000000000000000000034287                    3001029090000000000 
1040001300155Q 011000079050859291RODRIGO SILVA SOUSA                     AV. PRESIDENTE VARGAS                   CENTRO         76300000CERES          GO0000000000000000                                                                       
1040001300156R 01000000000000000000000000000000000000000000000000210082018000000000000200                                                                                                                                                       
1040001300157P 0101298027300700000000000140000000000342881122034288          1008201800000000000099000000099N0608201821008201800000000000060000000000000000000000000000000000000000000000000000000034288                    3001029090000000000 
1040001300158Q 011000083833706368ALEXSANDRO JOSE FELIX NOGUEIRA          AV. PRESIDENTE VARGAS                   CENTRO         76300000CERES          GO0000000000000000                                                                       
1040001300159R 01000000000000000000000000000000000000000000000000210082018000000000000200                                                                                                                                                       
1040001300160P 0101298027300700000000000140000000000342891122034289          1008201800000000000693000000099N0608201821008201800000000000060000000000000000000000000000000000000000000000000000000034289                    3001029090000000000 
1040001300161Q 011000003551174601FERNANDO FERNANDES FERREIRA             AV. PRESIDENTE VARGAS                   CENTRO         76300000CERES          GO0000000000000000                                                                       
1040001300162R 01000000000000000000000000000000000000000000000000210082018000000000000200                                                                                                                                                       
1040001300163P 0101298027300700000000000140000000000342901122034290          1008201800000000000198000000099N0608201821008201800000000000060000000000000000000000000000000000000000000000000000000034290                    3001029090000000000 
1040001300164Q 011000037921092802MAICON DOUGLAS MARQUES DA SILVA         AV. PRESIDENTE VARGAS                   CENTRO         76300000CERES          GO0000000000000000                                                                       
1040001300165R 01000000000000000000000000000000000000000000000000210082018000000000000200                                                                                                                                                       
1040001300166P 0101298027300700000000000140000000000342911122034291          1008201800000000000099000000099N0608201821008201800000000000060000000000000000000000000000000000000000000000000000000034291                    3001029090000000000 
1040001300167Q 011000004754091329ESTENIO DA SILVA LEITE                  AV. PRESIDENTE VARGAS                   CENTRO         76300000CERES          GO0000000000000000                                                                       
1040001300168R 01000000000000000000000000000000000000000000000000210082018000000000000200                                                                                                                                                       
1040001300169P 0101298027300700000000000140000000000342921122034292          1008201800000000000297000000099N0608201821008201800000000000060000000000000000000000000000000000000000000000000000000034292                    3001029090000000000 
1040001300170Q 011000096544970263EDMIR CELSO LEDO BARBOSA FILHO          AV. PRESIDENTE VARGAS                   CENTRO         76300000CERES          GO0000000000000000                                                                       
1040001300171R 01000000000000000000000000000000000000000000000000210082018000000000000200                                                                                                                                                       
1040001300172P 0101298027300700000000000140000000000342931122034293          1008201800000000002340000000099N0608201821008201800000000000060000000000000000000000000000000000000000000000000000000034293                    3001029090000000000 
1040001300173Q 012007726179000108GUSTAVO ZACCARON MARCON ME              AV. PRESIDENTE VARGAS                   CENTRO         76300000CERES          GO0000000000000000                                                                       
1040001300174R 01000000000000000000000000000000000000000000000000210082018000000000000200                                                                                                                                                       
1040001300175P 0101298027300700000000000140000000000342941122034294          1008201800000000000099000000099N0608201821008201800000000000060000000000000000000000000000000000000000000000000000000034294                    3001029090000000000 
1040001300176Q 011000001903657733JULIO CESAR DOMINGUES PORTO             AV. PRESIDENTE VARGAS                   CENTRO         76300000CERES          GO0000000000000000                                                                       
1040001300177R 01000000000000000000000000000000000000000000000000210082018000000000000200                                                                                                                                                       
1040001300178P 0101298027300700000000000140000000000342951122034295          1008201800000000003787000000099N0608201821008201800000000000060000000000000000000000000000000000000000000000000000000034295                    3001029090000000000 
1040001300179Q 012017583701000101DIEGO RILKO COSTA 37204056809           AV. PRESIDENTE VARGAS                   CENTRO         76300000CERES          GO0000000000000000                                                                       
1040001300180R 01000000000000000000000000000000000000000000000000210082018000000000000200                                                                                                                                                       
1040001300181P 0101298027300700000000000140000000000342961122034296          1008201800000000000099000000099N0608201821008201800000000000060000000000000000000000000000000000000000000000000000000034296                    3001029090000000000 
1040001300182Q 011000039222103840ANTONIO O PURCELO JUNIOR                AV. PRESIDENTE VARGAS                   CENTRO         76300000CERES          GO0000000000000000                                                                       
1040001300183R 01000000000000000000000000000000000000000000000000210082018000000000000200                                                                                                                                                       
1040001300184P 0101298027300700000000000140000000000342971122034297          1008201800000000000990000000099N0608201821008201800000000000060000000000000000000000000000000000000000000000000000000034297                    3001029090000000000 
1040001300185Q 011000099252830197CARLOS MAGNO ALVES DE ALMEIDA           AV. PRESIDENTE VARGAS                   CENTRO         76300000CERES          GO0000000000000000                                                                       
1040001300186R 01000000000000000000000000000000000000000000000000210082018000000000000200                                                                                                                                                       
1040001300187P 0101298027300700000000000140000000000342981122034298          1008201800000000005538000000099N0608201821008201800000000000060000000000000000000000000000000000000000000000000000000034298                    3001029090000000000 
1040001300188Q 012026216149000104CAIO DOS SANTOS E SOUSA 04422993119     AV. PRESIDENTE VARGAS                   CENTRO         76300000CERES          GO0000000000000000                                                                       
1040001300189R 01000000000000000000000000000000000000000000000000210082018000000000000200                                                                                                                                                       
1040001300190P 0101298027300700000000000140000000000342991122034299          1008201800000000000099000000099N0608201821008201800000000000060000000000000000000000000000000000000000000000000000000034299                    3001029090000000000 
1040001300191Q 011000096518189304JACKSON WILLIAM CHAVES LEAO             AV. PRESIDENTE VARGAS                   CENTRO         76300000CERES          GO0000000000000000                                                                       
1040001300192R 01000000000000000000000000000000000000000000000000210082018000000000000200                                                                                                                                                       
1040001300193P 0101298027300700000000000140000000000343001122034300          1008201800000000000099000000099N0608201821008201800000000000060000000000000000000000000000000000000000000000000000000034300                    3001029090000000000 
1040001300194Q 011000006446218699FABIO LUIZ                              AV. PRESIDENTE VARGAS                   CENTRO         76300000CERES          GO0000000000000000                                                                       
1040001300195R 01000000000000000000000000000000000000000000000000210082018000000000000200                                                                                                                                                       
1040001300196P 0101298027300700000000000140000000000343011122034301          1008201800000000009834000000099N0608201821008201800000000000060000000000000000000000000000000000000000000000000000000034301                    3001029090000000000 
1040001300197Q 011000007032342779MARCELO SOARES                          AV. PRESIDENTE VARGAS                   CENTRO         76300000CERES          GO0000000000000000                                                                       
1040001300198R 01000000000000000000000000000000000000000000000000210082018000000000000200                                                                                                                                                       
1040001300199P 0101298027300700000000000140000000000343021122034302          1008201800000000000198000000099N0608201821008201800000000000060000000000000000000000000000000000000000000000000000000034302                    3001029090000000000 
1040001300200Q 011000007406488459FRANCINALDO MENDES VENANCIO             AV. PRESIDENTE VARGAS                   CENTRO         76300000CERES          GO0000000000000000                                                                       
1040001300201R 01000000000000000000000000000000000000000000000000210082018000000000000200                                                                                                                                                       
1040001300202P 0101298027300700000000000140000000000343031122034303          1008201800000000000891000000099N0608201821008201800000000000060000000000000000000000000000000000000000000000000000000034303                    3001029090000000000 
1040001300203Q 012015598500000144WR COMERCIO E SERVICOS LTDA - EPP       AV. PRESIDENTE VARGAS                   CENTRO         76300000CERES          GO0000000000000000                                                                       
1040001300204R 01000000000000000000000000000000000000000000000000210082018000000000000200                                                                                                                                                       
1040001300205P 0101298027300700000000000140000000000343051122034305          1008201800000000006448000000099N0608201821008201800000000000060000000000000000000000000000000000000000000000000000000034305                    3001029090000000000 
1040001300206Q 011000005460942608FLAVIO MUNIZ DE ALMEIDA                 AV. PRESIDENTE VARGAS                   CENTRO         76300000CERES          GO0000000000000000                                                                       
1040001300207R 01000000000000000000000000000000000000000000000000210082018000000000000200                                                                                                                                                       
1040001300208P 0101298027300700000000000140000000000343061122034306          1008201800000000010050000000099N0608201821008201800000000000060000000000000000000000000000000000000000000000000000000034306                    3001029090000000000 
1040001300209Q 012021233248000172GABRIEL ANDRADE BORGES                  AV. PRESIDENTE VARGAS                   CENTRO         76300000CERES          GO0000000000000000                                                                       
1040001300210R 01000000000000000000000000000000000000000000000000210082018000000000000200                                                                                                                                                       
1040001300211P 0101298027300700000000000140000000000343071122034307          1008201800000000000792000000099N0608201821008201800000000000060000000000000000000000000000000000000000000000000000000034307                    3001029090000000000 
1040001300212Q 011000005221241781WENDEL MARMO                            AV. PRESIDENTE VARGAS                   CENTRO         76300000CERES          GO0000000000000000                                                                       
1040001300213R 01000000000000000000000000000000000000000000000000210082018000000000000200                                                                                                                                                       
1040001300214P 0101298027300700000000000140000000000343081122034308          1008201800000000001386000000099N0608201821008201800000000000060000000000000000000000000000000000000000000000000000000034308                    3001029090000000000 
1040001300215Q 012024598464000100E S NASCIMENTO SISTEMAS DE MONITORAMENTOAV. PRESIDENTE VARGAS                   CENTRO         76300000CERES          GO0000000000000000                                                                       
1040001300216R 01000000000000000000000000000000000000000000000000210082018000000000000200                                                                                                                                                       
1040001300217P 0101298027300700000000000140000000000343091122034309          1008201800000000003510000000099N0608201821008201800000000000060000000000000000000000000000000000000000000000000000000034309                    3001029090000000000 
1040001300218Q 011000030931320534LUIZ ANTONIO FRANCA DE CARVALHO         AV. PRESIDENTE VARGAS                   CENTRO         76300000CERES          GO0000000000000000                                                                       
1040001300219R 01000000000000000000000000000000000000000000000000210082018000000000000200                                                                                                                                                       
1040001300220P 0101298027300700000000000140000000000343101122034310          1008201800000000001089000000099N0608201821008201800000000000060000000000000000000000000000000000000000000000000000000034310                    3001029090000000000 
1040001300221Q 011000060768932220CARLOS EDUARDO DE OLIVEIRA MIRANDA      AV. PRESIDENTE VARGAS                   CENTRO         76300000CERES          GO0000000000000000                                                                       
1040001300222R 01000000000000000000000000000000000000000000000000210082018000000000000200                                                                                                                                                       
1040001300223P 0101298027300700000000000140000000000343111122034311          1008201800000000010810600000099N0608201821008201800000000000060000000000000000000000000000000000000000000000000000000034311                    3001029090000000000 
1040001300224Q 011000015348812803MARCIO ALVES DOS SANTOS / FABIANA       AV. PRESIDENTE VARGAS                   CENTRO         76300000CERES          GO0000000000000000                                                                       
1040001300225R 01000000000000000000000000000000000000000000000000210082018000000000000200                                                                                                                                                       
1040001300226P 0101298027300700000000000140000000000343121122034312          1008201800000000007738000000099N0608201821008201800000000000060000000000000000000000000000000000000000000000000000000034312                    3001029090000000000 
1040001300227Q 011000073981362268CHARLES LOPES                           AV. PRESIDENTE VARGAS                   CENTRO         76300000CERES          GO0000000000000000                                                                       
1040001300228R 01000000000000000000000000000000000000000000000000210082018000000000000200                                                                                                                                                       
1040001300229P 0101298027300700000000000140000000000343131122034313          1008201800000000000396000000099N0608201821008201800000000000060000000000000000000000000000000000000000000000000000000034313                    3001029090000000000 
1040001300230Q 011000063619164649SERGIO GOLGHER                          AV. PRESIDENTE VARGAS                   CENTRO         76300000CERES          GO0000000000000000                                                                       
1040001300231R 01000000000000000000000000000000000000000000000000210082018000000000000200                                                                                                                                                       
1040001300232P 0101298027300700000000000140000000000343141122034314          1008201800000000028300000000099N0608201821008201800000000000060000000000000000000000000000000000000000000000000000000034314                    3001029090000000000 
1040001300233Q 011000006751341610CRISTIANO RODRIGO DE MORAES BORGES      AV. PRESIDENTE VARGAS                   CENTRO         76300000CERES          GO0000000000000000                                                                       
1040001300234R 01000000000000000000000000000000000000000000000000210082018000000000000200                                                                                                                                                       
1040001300235P 0101298027300700000000000140000000000343151122034315          1008201800000000043165000000099N0608201821008201800000000000060000000000000000000000000000000000000000000000000000000034315                    3001029090000000000 
1040001300236Q 011000065973232204CARLOS DEANE LIMA DE SOUZA              AV. PRESIDENTE VARGAS                   CENTRO         76300000CERES          GO0000000000000000                                                                       
1040001300237R 01000000000000000000000000000000000000000000000000210082018000000000000200                                                                                                                                                       
1040001300238P 0101298027300700000000000140000000000343161122034316          1008201800000000000099000000099N0608201821008201800000000000060000000000000000000000000000000000000000000000000000000034316                    3001029090000000000 
1040001300239Q 011000008577593452ANTONIO CARLOS                          AV. PRESIDENTE VARGAS                   CENTRO         76300000CERES          GO0000000000000000                                                                       
1040001300240R 01000000000000000000000000000000000000000000000000210082018000000000000200                                                                                                                                                       
1040001300241P 0101298027300700000000000140000000000343171122034317          1008201800000000000099000000099N0608201821008201800000000000060000000000000000000000000000000000000000000000000000000034317                    3001029090000000000 
1040001300242Q 011000007041857921MARCELO MARTINS VIEIRA JUNIOR           AV. PRESIDENTE VARGAS                   CENTRO         76300000CERES          GO0000000000000000                                                                       
1040001300243R 01000000000000000000000000000000000000000000000000210082018000000000000200                                                                                                                                                       
1040001300244P 0101298027300700000000000140000000000343181122034318          1008201800000000000693000000099N0608201821008201800000000000060000000000000000000000000000000000000000000000000000000034318                    3001029090000000000 
1040001300245Q 011000008398525762VICTOR FERNANDES PAES                   AV. PRESIDENTE VARGAS                   CENTRO         76300000CERES          GO0000000000000000                                                                       
1040001300246R 01000000000000000000000000000000000000000000000000210082018000000000000200                                                                                                                                                       
1040001300247P 0101298027300700000000000140000000000343191122034319          1008201800000000000616000000099N0608201821008201800000000000060000000000000000000000000000000000000000000000000000000034319                    3001029090000000000 
1040001300248Q 011000002795229323ANDREIDE JOSE SILVA                     AV. PRESIDENTE VARGAS                   CENTRO         76300000CERES          GO0000000000000000                                                                       
1040001300249R 01000000000000000000000000000000000000000000000000210082018000000000000200                                                                                                                                                       
1040001300250P 0101298027300700000000000140000000000343201122034320          1008201800000000032842000000099N0608201821008201800000000000060000000000000000000000000000000000000000000000000000000034320                    3001029090000000000 
1040001300251Q 011000060005553342JOSE AIRTON DE SOUSA ALMEIDA            AV. PRESIDENTE VARGAS                   CENTRO         76300000CERES          GO0000000000000000                                                                       
1040001300252R 01000000000000000000000000000000000000000000000000210082018000000000000200                                                                                                                                                       
1040001300253P 0101298027300700000000000140000000000343211122034321          1008201800000000000792000000099N0608201821008201800000000000060000000000000000000000000000000000000000000000000000000034321                    3001029090000000000 
1040001300254Q 011000007302713588ALEXSANDER BARBOSA                      AV. PRESIDENTE VARGAS                   CENTRO         76300000CERES          GO0000000000000000                                                                       
1040001300255R 01000000000000000000000000000000000000000000000000210082018000000000000200                                                                                                                                                       
1040001300256P 0101298027300700000000000140000000000343221122034322          1008201800000000001485000000099N0608201821008201800000000000060000000000000000000000000000000000000000000000000000000034322                    3001029090000000000 
1040001300257Q 011000011483301788CAIO CARDOSO                            AV. PRESIDENTE VARGAS                   CENTRO         76300000CERES          GO0000000000000000                                                                       
1040001300258R 01000000000000000000000000000000000000000000000000210082018000000000000200                                                                                                                                                       
1040001300259P 0101298027300700000000000140000000000343231122034323          1008201800000000000198000000099N0608201821008201800000000000060000000000000000000000000000000000000000000000000000000034323                    3001029090000000000 
1040001300260Q 011000001113974486PAULO VASCONCELOS SALLES                AV. PRESIDENTE VARGAS                   CENTRO         76300000CERES          GO0000000000000000                                                                       
1040001300261R 01000000000000000000000000000000000000000000000000210082018000000000000200                                                                                                                                                       
1040001300262P 0101298027300700000000000140000000000343241122034324          1008201800000000001386000000099N0608201821008201800000000000060000000000000000000000000000000000000000000000000000000034324                    3001029090000000000 
1040001300263Q 012041595521000116C E M DISTRIBUIDORA DE CARNES LTDA      AV. PRESIDENTE VARGAS                   CENTRO         76300000CERES          GO0000000000000000                                                                       
1040001300264R 01000000000000000000000000000000000000000000000000210082018000000000000200                                                                                                                                                       
1040001300265P 0101298027300700000000000140000000000343251122034325          1008201800000000000990000000099N0608201821008201800000000000060000000000000000000000000000000000000000000000000000000034325                    3001029090000000000 
1040001300266Q 012020085595000119CTX LOCACOES DE EQUIPAMENTOS E CONTAINERAV. PRESIDENTE VARGAS                   CENTRO         76300000CERES          GO0000000000000000                                                                       
1040001300267R 01000000000000000000000000000000000000000000000000210082018000000000000200                                                                                                                                                       
1040001300268P 0101298027300700000000000140000000000343261122034326          1008201800000000000158000000099N0608201821008201800000000000060000000000000000000000000000000000000000000000000000000034326                    3001029090000000000 
1040001300269Q 011000001094527394MARCICLEIA RODRIGUES DE OLIVEIRA        AV. PRESIDENTE VARGAS                   CENTRO         76300000CERES          GO0000000000000000                                                                       
1040001300270R 01000000000000000000000000000000000000000000000000210082018000000000000200                                                                                                                                                       
1040001300271P 0101298027300700000000000140000000000343271122034327          1008201800000000003131700000099N0608201821008201800000000000060000000000000000000000000000000000000000000000000000000034327                    3001029090000000000 
1040001300272Q 012026320803000117MARCOS SOARES DOS SANTOS                AV. PRESIDENTE VARGAS                   CENTRO         76300000CERES          GO0000000000000000                                                                       
1040001300273R 01000000000000000000000000000000000000000000000000210082018000000000000200                                                                                                                                                       
1040001300274P 0101298027300700000000000140000000000343281122034328          1008201800000000002638000000099N0608201821008201800000000000060000000000000000000000000000000000000000000000000000000034328                    3001029090000000000 
1040001300275Q 012018207345000186ODAIR JOSE SAVALAIO 41084080206         AV. PRESIDENTE VARGAS                   CENTRO         76300000CERES          GO0000000000000000                                                                       
1040001300276R 01000000000000000000000000000000000000000000000000210082018000000000000200                                                                                                                                                       
1040001300277P 0101298027300700000000000140000000000343291122034329          1008201800000000000099000000099N0608201821008201800000000000060000000000000000000000000000000000000000000000000000000034329                    3001029090000000000 
1040001300278Q 011000060001832328MARIANA DE OLIVEIRA CAMPOS              AV. PRESIDENTE VARGAS                   CENTRO         76300000CERES          GO0000000000000000                                                                       
1040001300279R 01000000000000000000000000000000000000000000000000210082018000000000000200                                                                                                                                                       
1040001300280P 0101298027300700000000000140000000000343301122034330          1008201800000000015455000000099N0608201821008201800000000000060000000000000000000000000000000000000000000000000000000034330                    3001029090000000000 
1040001300281Q 012021515839000132CLUBE AUTO PRIME (AC. ANTONIO BONIN DOS AV. PRESIDENTE VARGAS                   CENTRO         76300000CERES          GO0000000000000000                                                                       
1040001300282R 01000000000000000000000000000000000000000000000000210082018000000000000200                                                                                                                                                       
1040001300283P 0101298027300700000000000140000000000343311122034331          1008201800000000023963000000099N0608201821008201800000000000060000000000000000000000000000000000000000000000000000000034331                    3001029090000000000 
1040001300284Q 011000067147909372LEANDRO ROSA DE LIMA                    AV. PRESIDENTE VARGAS                   CENTRO         76300000CERES          GO0000000000000000                                                                       
1040001300285R 01000000000000000000000000000000000000000000000000210082018000000000000200                                                                                                                                                       
1040001300286P 0101298027300700000000000140000000000343321122034332          1008201800000000000099000000099N0608201821008201800000000000060000000000000000000000000000000000000000000000000000000034332                    3001029090000000000 
1040001300287Q 011000012455010708EVERTON ANTUNES DA PAZ                  AV. PRESIDENTE VARGAS                   CENTRO         76300000CERES          GO0000000000000000                                                                       
1040001300288R 01000000000000000000000000000000000000000000000000210082018000000000000200                                                                                                                                                       
1040001300289P 0101298027300700000000000140000000000343331122034333          1008201800000000000268300000099N0608201821008201800000000000060000000000000000000000000000000000000000000000000000000034333                    3001029090000000000 
1040001300290Q 011000004897591651DANILO PEREIRA FERNANDES                AV. PRESIDENTE VARGAS                   CENTRO         76300000CERES          GO0000000000000000                                                                       
1040001300291R 01000000000000000000000000000000000000000000000000210082018000000000000200                                                                                                                                                       
1040001300292P 0101298027300700000000000140000000000343341122034334          1008201800000000003574000000099N0608201821008201800000000000060000000000000000000000000000000000000000000000000000000034334                    3001029090000000000 
1040001300293Q 011000003518664344KESLEY MENDONCA CARVALHO                AV. PRESIDENTE VARGAS                   CENTRO         76300000CERES          GO0000000000000000                                                                       
1040001300294R 01000000000000000000000000000000000000000000000000210082018000000000000200                                                                                                                                                       
1040001300295P 0101298027300700000000000140000000000343351122034335          1008201800000000005304000000099N0608201821008201800000000000060000000000000000000000000000000000000000000000000000000034335                    3001029090000000000 
1040001300296Q 012019765963000104VINICIUS CASTRO E SILVA                 AV. PRESIDENTE VARGAS                   CENTRO         76300000CERES          GO0000000000000000                                                                       
1040001300297R 01000000000000000000000000000000000000000000000000210082018000000000000200                                                                                                                                                       
1040001300298P 0101298027300700000000000140000000000343361122034336          1008201800000000000099000000099N0608201821008201800000000000060000000000000000000000000000000000000000000000000000000034336                    3001029090000000000 
1040001300299Q 011000051059282372AURICELIO HOLANDA MOURA                 AV. PRESIDENTE VARGAS                   CENTRO         76300000CERES          GO0000000000000000                                                                       
1040001300300R 01000000000000000000000000000000000000000000000000210082018000000000000200                                                                                                                                                       
1040001300301P 0101298027300700000000000140000000000343371122034337          1008201800000000000792000000099N0608201821008201800000000000060000000000000000000000000000000000000000000000000000000034337                    3001029090000000000 
1040001300302Q 012011543951000123JMS CUNHA LOCACAO DE MAQUINAS E EQUIPAMEAV. PRESIDENTE VARGAS                   CENTRO         76300000CERES          GO0000000000000000                                                                       
1040001300303R 01000000000000000000000000000000000000000000000000210082018000000000000200                                                                                                                                                       
1040001300304P 0101298027300700000000000140000000000343381122034338          1008201800000000000495000000099N0608201821008201800000000000060000000000000000000000000000000000000000000000000000000034338                    3001029090000000000 
1040001300305Q 011000016381149353IVANILDO RAMOS MACHADO                  AV. PRESIDENTE VARGAS                   CENTRO         76300000CERES          GO0000000000000000                                                                       
1040001300306R 01000000000000000000000000000000000000000000000000210082018000000000000200                                                                                                                                                       
1040001300307P 0101298027300700000000000140000000000343391122034339          1008201800000000000198000000099N0608201821008201800000000000060000000000000000000000000000000000000000000000000000000034339                    3001029090000000000 
1040001300308Q 011000048595519315ALEX BRANDAO DE PAULA                   AV. PRESIDENTE VARGAS                   CENTRO         76300000CERES          GO0000000000000000                                                                       
1040001300309R 01000000000000000000000000000000000000000000000000210082018000000000000200                                                                                                                                                       
1040001300310P 0101298027300700000000000140000000000343401122034340          1008201800000000000099000000099N0608201821008201800000000000060000000000000000000000000000000000000000000000000000000034340                    3001029090000000000 
1040001300311Q 011000006625536407EDUARDO ALVES DOS SANTOS MIRANDA        AV. PRESIDENTE VARGAS                   CENTRO         76300000CERES          GO0000000000000000                                                                       
1040001300312R 01000000000000000000000000000000000000000000000000210082018000000000000200                                                                                                                                                       
1040001300313P 0101298027300700000000000140000000000343411122034341          1008201800000000033488600000099N0608201821008201800000000000060000000000000000000000000000000000000000000000000000000034341                    3001029090000000000 
1040001300314Q 012025344785000140JOSE MAGNO FERREIRA DA SILVA            AV. PRESIDENTE VARGAS                   CENTRO         76300000CERES          GO0000000000000000                                                                       
1040001300315R 01000000000000000000000000000000000000000000000000210082018000000000000200                                                                                                                                                       
1040001300316P 0101298027300700000000000140000000000343421122034342          1008201800000000001794000000099N0608201821008201800000000000060000000000000000000000000000000000000000000000000000000034342                    3001029090000000000 
1040001300317Q 012015589293000161FRANCA PINTO & CIA LTDA-EPP             AV. PRESIDENTE VARGAS                   CENTRO         76300000CERES          GO0000000000000000                                                                       
1040001300318R 01000000000000000000000000000000000000000000000000210082018000000000000200                                                                                                                                                       
1040001300319P 0101298027300700000000000140000000000343431122034343          1008201800000000000495000000099N0608201821008201800000000000060000000000000000000000000000000000000000000000000000000034343                    3001029090000000000 
1040001300320Q 011000095798420272JOAO VIEIRA DE MEDEIROS NETO            AV. PRESIDENTE VARGAS                   CENTRO         76300000CERES          GO0000000000000000                                                                       
1040001300321R 01000000000000000000000000000000000000000000000000210082018000000000000200                                                                                                                                                       
1040001300322P 0101298027300700000000000140000000000343441122034344          1008201800000000000099000000099N0608201821008201800000000000060000000000000000000000000000000000000000000000000000000034344                    3001029090000000000 
1040001300323Q 011000027766148889GUSTAVO OLIVEIRA LEME                   AV. PRESIDENTE VARGAS                   CENTRO         76300000CERES          GO0000000000000000                                                                       
1040001300324R 01000000000000000000000000000000000000000000000000210082018000000000000200                                                                                                                                                       
1040001300325P 0101298027300700000000000140000000000343451122034345          1008201800000000000099000000099N0608201821008201800000000000060000000000000000000000000000000000000000000000000000000034345                    3001029090000000000 
1040001300326Q 011000002357346167LELSON AMARAL MARTINS                   AV. PRESIDENTE VARGAS                   CENTRO         76300000CERES          GO0000000000000000                                                                       
1040001300327R 01000000000000000000000000000000000000000000000000210082018000000000000200                                                                                                                                                       
1040001300328P 0101298027300700000000000140000000000343461122034346          1008201800000000000099000000099N0608201821008201800000000000060000000000000000000000000000000000000000000000000000000034346                    3001029090000000000 
1040001300329Q 011000050608282049FLAVIO HENRIQUE ASCARI                  AV. PRESIDENTE VARGAS                   CENTRO         76300000CERES          GO0000000000000000                                                                       
1040001300330R 01000000000000000000000000000000000000000000000000210082018000000000000200                                                                                                                                                       
1040001300331P 0101298027300700000000000140000000000343471122034347          1008201800000000001089000000099N0608201821008201800000000000060000000000000000000000000000000000000000000000000000000034347                    3001029090000000000 
1040001300332Q 011000008423716643TATIANA GARCIA DE MORAIS                AV. PRESIDENTE VARGAS                   CENTRO         76300000CERES          GO0000000000000000                                                                       
1040001300333R 01000000000000000000000000000000000000000000000000210082018000000000000200                                                                                                                                                       
1040001300334P 0101298027300700000000000140000000000343481122034348          1008201800000000000534000000099N0608201821008201800000000000060000000000000000000000000000000000000000000000000000000034348                    3001029090000000000 
1040001300335Q 012013955553000140KLEITON MOURA DA PAIXAO                 AV. PRESIDENTE VARGAS                   CENTRO         76300000CERES          GO0000000000000000                                                                       
1040001300336R 01000000000000000000000000000000000000000000000000210082018000000000000200                                                                                                                                                       
1040001300337P 0101298027300700000000000140000000000343491122034349          1008201800000000000495000000099N0608201821008201800000000000060000000000000000000000000000000000000000000000000000000034349                    3001029090000000000 
1040001300338Q 012042793844000187LOCNORTE LOCADORA DE EQUIPAMENTOS P/ CONAV. PRESIDENTE VARGAS                   CENTRO         76300000CERES          GO0000000000000000                                                                       
1040001300339R 01000000000000000000000000000000000000000000000000210082018000000000000200                                                                                                                                                       
1040001300340P 0101298027300700000000000140000000000343501122034350          1008201800000000000198000000099N0608201821008201800000000000060000000000000000000000000000000000000000000000000000000034350                    3001029090000000000 
1040001300341Q 011000061444510304FRANCISCO OMILSON BARBOSA DA SILVA      AV. PRESIDENTE VARGAS                   CENTRO         76300000CERES          GO0000000000000000                                                                       
1040001300342R 01000000000000000000000000000000000000000000000000210082018000000000000200                                                                                                                                                       
1040001300343P 0101298027300700000000000140000000000343511122034351          1008201800000000000099000000099N0608201821008201800000000000060000000000000000000000000000000000000000000000000000000034351                    3001029090000000000 
1040001300344Q 011000054781949668NILTON LEFUNDES DA SILVA                AV. PRESIDENTE VARGAS                   CENTRO         76300000CERES          GO0000000000000000                                                                       
1040001300345R 01000000000000000000000000000000000000000000000000210082018000000000000200                                                                                                                                                       
1040001300346P 0101298027300700000000000140000000000343521122034352          1008201800000000000891000000099N0608201821008201800000000000060000000000000000000000000000000000000000000000000000000034352                    3001029090000000000 
1040001300347Q 011000003870412305DIEGO ALMEIDA DE OLIVEIRA               AV. PRESIDENTE VARGAS                   CENTRO         76300000CERES          GO0000000000000000                                                                       
1040001300348R 01000000000000000000000000000000000000000000000000210082018000000000000200                                                                                                                                                       
1040001300349P 0101298027300700000000000140000000000343531122034353          1008201800000000000099000000099N0608201821008201800000000000060000000000000000000000000000000000000000000000000000000034353                    3001029090000000000 
1040001300350Q 011000001953016332JOSE ORLANDO                            AV. PRESIDENTE VARGAS                   CENTRO         76300000CERES          GO0000000000000000                                                                       
1040001300351R 01000000000000000000000000000000000000000000000000210082018000000000000200                                                                                                                                                       
1040001300352P 0101298027300700000000000140000000000343541122034354          1008201800000000001287000000099N0608201821008201800000000000060000000000000000000000000000000000000000000000000000000034354                    3001029090000000000 
1040001300353Q 012026097788000190JESSE RODRIGUES DE SOUSA 41194341845    AV. PRESIDENTE VARGAS                   CENTRO         76300000CERES          GO0000000000000000                                                                       
1040001300354R 01000000000000000000000000000000000000000000000000210082018000000000000200                                                                                                                                                       
1040001300355P 0101298027300700000000000140000000000343551122034355          1008201800000000005304000000099N0608201821008201800000000000060000000000000000000000000000000000000000000000000000000034355                    3001029090000000000 
1040001300356Q 011000007374853963WILLIAN AMARAL DE OLIVEIRA              AV. PRESIDENTE VARGAS                   CENTRO         76300000CERES          GO0000000000000000                                                                       
1040001300357R 01000000000000000000000000000000000000000000000000210082018000000000000200                                                                                                                                                       
1040001300358P 0101298027300700000000000140000000000343561122034356          1008201800000000000099000000099N0608201821008201800000000000060000000000000000000000000000000000000000000000000000000034356                    3001029090000000000 
1040001300359Q 011000075176882353ALEXSANDRO ANDRADE SILVA                AV. PRESIDENTE VARGAS                   CENTRO         76300000CERES          GO0000000000000000                                                                       
1040001300360R 01000000000000000000000000000000000000000000000000210082018000000000000200                                                                                                                                                       
1040001300361P 0101298027300700000000000140000000000343571122034357          1008201800000000000099000000099N0608201821008201800000000000060000000000000000000000000000000000000000000000000000000034357                    3001029090000000000 
1040001300362Q 011000071339493187ANTONIO DA COSTA AMANCIO                AV. PRESIDENTE VARGAS                   CENTRO         76300000CERES          GO0000000000000000                                                                       
1040001300363R 01000000000000000000000000000000000000000000000000210082018000000000000200                                                                                                                                                       
1040001300364P 0101298027300700000000000140000000000343581122034358          1008201800000000004580000000099N0608201821008201800000000000060000000000000000000000000000000000000000000000000000000034358                    3001029090000000000 
1040001300365Q 011000076140881234JOSE NILSON SILVA DOS SANTOS            AV. PRESIDENTE VARGAS                   CENTRO         76300000CERES          GO0000000000000000                                                                       
1040001300366R 01000000000000000000000000000000000000000000000000210082018000000000000200                                                                                                                                                       
1040001300367P 0101298027300700000000000140000000000343591122034359          1008201800000000002481000000099N0608201821008201800000000000060000000000000000000000000000000000000000000000000000000034359                    3001029090000000000 
1040001300368Q 011000064507734304ELTON DE SOUSA E SILVA                  AV. PRESIDENTE VARGAS                   CENTRO         76300000CERES          GO0000000000000000                                                                       
1040001300369R 01000000000000000000000000000000000000000000000000210082018000000000000200                                                                                                                                                       
1040001300370P 0101298027300700000000000140000000000343601122034360          1008201800000000000099000000099N0608201821008201800000000000060000000000000000000000000000000000000000000000000000000034360                    3001029090000000000 
1040001300371Q 011000058892176072LEANDRO MARQUES UFLACKER                AV. PRESIDENTE VARGAS                   CENTRO         76300000CERES          GO0000000000000000                                                                       
1040001300372R 01000000000000000000000000000000000000000000000000210082018000000000000200                                                                                                                                                       
1040001300373P 0101298027300700000000000140000000000343611122034361          1008201800000000000319000000099N0608201821008201800000000000060000000000000000000000000000000000000000000000000000000034361                    3001029090000000000 
1040001300374Q 011000033739261811JEFFERSON QUINTILIANO                   AV. PRESIDENTE VARGAS                   CENTRO         76300000CERES          GO0000000000000000                                                                       
1040001300375R 01000000000000000000000000000000000000000000000000210082018000000000000200                                                                                                                                                       
1040001300376P 0101298027300700000000000140000000000343621122034362          1008201800000000000198000000099N0608201821008201800000000000060000000000000000000000000000000000000000000000000000000034362                    3001029090000000000 
1040001300377Q 011000003837526127MYKE ALVES SILVA                        AV. PRESIDENTE VARGAS                   CENTRO         76300000CERES          GO0000000000000000                                                                       
1040001300378R 01000000000000000000000000000000000000000000000000210082018000000000000200                                                                                                                                                       
1040001300379P 0101298027300700000000000140000000000343631122034363          1008201800000000019786000000099N0608201821008201800000000000060000000000000000000000000000000000000000000000000000000034363                    3001029090000000000 
1040001300380Q 011000072831693268CARLOS ALBERTO SILVA DE SOUZA           AV. PRESIDENTE VARGAS                   CENTRO         76300000CERES          GO0000000000000000                                                                       
1040001300381R 01000000000000000000000000000000000000000000000000210082018000000000000200                                                                                                                                                       
1040001300382P 0101298027300700000000000140000000000343641122034364          1008201800000000001159000000099N0608201821008201800000000000060000000000000000000000000000000000000000000000000000000034364                    3001029090000000000 
1040001300383Q 011000015961130738LEANDRO SOUSA DA SILVA                  AV. PRESIDENTE VARGAS                   CENTRO         76300000CERES          GO0000000000000000                                                                       
1040001300384R 01000000000000000000000000000000000000000000000000210082018000000000000200                                                                                                                                                       
1040001300385P 0101298027300700000000000140000000000343651122034365          1008201800000000001560000000099N0608201821008201800000000000060000000000000000000000000000000000000000000000000000000034365                    3001029090000000000 
1040001300386Q 012004554488000150WAGNER DE SOUZA SANTOS                  AV. PRESIDENTE VARGAS                   CENTRO         76300000CERES          GO0000000000000000                                                                       
1040001300387R 01000000000000000000000000000000000000000000000000210082018000000000000200                                                                                                                                                       
1040001300388P 0101298027300700000000000140000000000343661122034366          1008201800000000000099000000099N0608201821008201800000000000060000000000000000000000000000000000000000000000000000000034366                    3001029090000000000 
1040001300389Q 011000005320225997THIAGO LUIZ LEITE                       AV. PRESIDENTE VARGAS                   CENTRO         76300000CERES          GO0000000000000000                                                                       
1040001300390R 01000000000000000000000000000000000000000000000000210082018000000000000200                                                                                                                                                       
1040001300391P 0101298027300700000000000140000000000343671122034367          1008201800000000000198000000099N0608201821008201800000000000060000000000000000000000000000000000000000000000000000000034367                    3001029090000000000 
1040001300392Q 011000006772209605MARCOS VINICIUS SILVEIRA DOS SANTOS     AV. PRESIDENTE VARGAS                   CENTRO         76300000CERES          GO0000000000000000                                                                       
1040001300393R 01000000000000000000000000000000000000000000000000210082018000000000000200                                                                                                                                                       
1040001300394P 0101298027300700000000000140000000000343681122034368          1008201800000000000099000000099N0608201821008201800000000000060000000000000000000000000000000000000000000000000000000034368                    3001029090000000000 
1040001300395Q 011000007022953961CARLOS HENRIQUE RODRIGUES DA SILVA CAMPAAV. PRESIDENTE VARGAS                   CENTRO         76300000CERES          GO0000000000000000                                                                       
1040001300396R 01000000000000000000000000000000000000000000000000210082018000000000000200                                                                                                                                                       
1040001300397P 0101298027300700000000000140000000000343691122034369          1008201800000000000495000000099N0608201821008201800000000000060000000000000000000000000000000000000000000000000000000034369                    3001029090000000000 
1040001300398Q 011000004294200723ANDRE VINICIUS DIAS MARTINS LIMA        AV. PRESIDENTE VARGAS                   CENTRO         76300000CERES          GO0000000000000000                                                                       
1040001300399R 01000000000000000000000000000000000000000000000000210082018000000000000200                                                                                                                                                       
1040001300400P 0101298027300700000000000140000000000343701122034370          1008201800000000000099000000099N0608201821008201800000000000060000000000000000000000000000000000000000000000000000000034370                    3001029090000000000 
1040001300401Q 011000072807059520MARLON DA SILVA GARRIDO                 AV. PRESIDENTE VARGAS                   CENTRO         76300000CERES          GO0000000000000000                                                                       
1040001300402R 01000000000000000000000000000000000000000000000000210082018000000000000200                                                                                                                                                       
1040001300403P 0101298027300700000000000140000000000343711122034371          1008201800000000000099000000099N0608201821008201800000000000060000000000000000000000000000000000000000000000000000000034371                    3001029090000000000 
1040001300404Q 011000002091491160RENATO ELYONE DE ALMEIDA                AV. PRESIDENTE VARGAS                   CENTRO         76300000CERES          GO0000000000000000                                                                       
1040001300405R 01000000000000000000000000000000000000000000000000210082018000000000000200                                                                                                                                                       
1040001300406P 0101298027300700000000000140000000000343721122034372          1008201800000000000099000000099N0608201821008201800000000000060000000000000000000000000000000000000000000000000000000034372                    3001029090000000000 
1040001300407Q 011000033873383845VALTERLINO NUNES PEREIRA JUNIOR         AV. PRESIDENTE VARGAS                   CENTRO         76300000CERES          GO0000000000000000                                                                       
1040001300408R 01000000000000000000000000000000000000000000000000210082018000000000000200                                                                                                                                                       
1040001300409P 0101298027300700000000000140000000000343731122034373          1008201800000000000151000000099N0608201821008201800000000000060000000000000000000000000000000000000000000000000000000034373                    3001029090000000000 
1040001300410Q 011000008182976464WYLLAMYS CAVALCANTE DE OLIVEIRA         AV. PRESIDENTE VARGAS                   CENTRO         76300000CERES          GO0000000000000000                                                                       
1040001300411R 01000000000000000000000000000000000000000000000000210082018000000000000200                                                                                                                                                       
1040001300412P 0101298027300700000000000140000000000343741122034374          1008201800000000000199000000099N0608201821008201800000000000060000000000000000000000000000000000000000000000000000000034374                    3001029090000000000 
