10400000         2116559540001590000000000000000000001298027300700000000FEDERAL SISTEMAS              CAIXA ECONOMICA FEDERAL                 10509201816335700016105000000                    REMESSA-PRODUCAO                                 
10400011R0100030 20116559540001592730070000000000000001298027300700000000FEDERAL SISTEMAS                                                                                              000001610509201800000000                                 
1040001300001P 0101298027300700000000000140000000000356271122035627          1009201800000000030961000000099N0509201821009201800000000000060000000000000000000000000000000000000000000000000000000035627                    3001029090000000000 
1040001300002Q 012020771562000146LOCALIZA GOIAS LTDA - ME                AV. PRESIDENTE VARGAS                   CENTRO         76300000CERES          GO0000000000000000                                                                       
1040001300003R 01000000000000000000000000000000000000000000000000210092018000000000000200                                                                                                                                                       
1040001300004P 0101298027300700000000000140000000000356281122035628          1009201800000000003900000000099N0509201821009201800000000000060000000000000000000000000000000000000000000000000000000035628                    3001029090000000000 
1040001300005Q 012011963712000122BJ SAT TENCOLOGIA EM RESTREAMENTO       AV. PRESIDENTE VARGAS                   CENTRO         76300000CERES          GO0000000000000000                                                                       
1040001300006R 01000000000000000000000000000000000000000000000000210092018000000000000200                                                                                                                                                       
1040001300007P 0101298027300700000000000140000000000356291122035629          1009201800000000017625000000099N0509201821009201800000000000060000000000000000000000000000000000000000000000000000000035629                    3001029090000000000 
1040001300008Q 012011088454000182FERDINAND BATISTA DE ARAUJO - ME        AV. PRESIDENTE VARGAS                   CENTRO         76300000CERES          GO0000000000000000                                                                       
1040001300009R 01000000000000000000000000000000000000000000000000210092018000000000000200                                                                                                                                                       
1040001300010P 0101298027300700000000000140000000000356301122035630          1009201800000000001794000000099N0509201821009201800000000000060000000000000000000000000000000000000000000000000000000035630                    3001029090000000000 
1040001300011Q 012001640145000110ONE CITY GPS EQUIP ELETRONICOS LTDA ME  AV. PRESIDENTE VARGAS                   CENTRO         76300000CERES          GO0000000000000000                                                                       
1040001300012R 01000000000000000000000000000000000000000000000000210092018000000000000200                                                                                                                                                       
1040001300013P 0101298027300700000000000140000000000356311122035631          1009201800000000013213000000099N0509201821009201800000000000060000000000000000000000000000000000000000000000000000000035631                    3001029090000000000 
1040001300014Q 012004626774000183M F LIMA CARNEIRO E CIA LTDA - EPP      AV. PRESIDENTE VARGAS                   CENTRO         76300000CERES          GO0000000000000000                                                                       
1040001300015R 01000000000000000000000000000000000000000000000000210092018000000000000200                                                                                                                                                       
1040001300016P 0101298027300700000000000140000000000356321122035632          1009201800000000005928000000099N0509201821009201800000000000060000000000000000000000000000000000000000000000000000000035632                    3001029090000000000 
1040001300017Q 011000044705190300ROGERIO H. MAZUAD                       AV. PRESIDENTE VARGAS                   CENTRO         76300000CERES          GO0000000000000000                                                                       
1040001300018R 01000000000000000000000000000000000000000000000000210092018000000000000200                                                                                                                                                       
1040001300019P 0101298027300700000000000140000000000356331122035633          1009201800000000015175000000099N0509201821009201800000000000060000000000000000000000000000000000000000000000000000000035633                    3001029090000000000 
1040001300020Q 012018765152000140CAMILA REGO DA SILVA ARAGAO ME          AV. PRESIDENTE VARGAS                   CENTRO         76300000CERES          GO0000000000000000                                                                       
1040001300021R 01000000000000000000000000000000000000000000000000210092018000000000000200                                                                                                                                                       
1040001300022P 0101298027300700000000000140000000000356341122035634          1009201800000000003240000000099N0509201821009201800000000000060000000000000000000000000000000000000000000000000000000035634                    3001029090000000000 
1040001300023Q 011000001488919348GERSON GAMA LEAL                        AV. PRESIDENTE VARGAS                   CENTRO         76300000CERES          GO0000000000000000                                                                       
1040001300024R 01000000000000000000000000000000000000000000000000210092018000000000000200                                                                                                                                                       
1040001300025P 0101298027300700000000000140000000000356351122035635          1009201800000000007912000000099N0509201821009201800000000000060000000000000000000000000000000000000000000000000000000035635                    3001029090000000000 
1040001300026Q 012019677627000100ELITE SEGURANCA ELETR E MONITORAMENTO   AV. PRESIDENTE VARGAS                   CENTRO         76300000CERES          GO0000000000000000                                                                       
1040001300027R 01000000000000000000000000000000000000000000000000210092018000000000000200                                                                                                                                                       
1040001300028P 0101298027300700000000000140000000000356361122035636          1009201800000000009134800000099N0509201821009201800000000000060000000000000000000000000000000000000000000000000000000035636                    3001029090000000000 
1040001300029Q 012022379734000166J DE A F DA SILVA - ME                  AV. PRESIDENTE VARGAS                   CENTRO         76300000CERES          GO0000000000000000                                                                       
1040001300030R 01000000000000000000000000000000000000000000000000210092018000000000000200                                                                                                                                                       
1040001300031P 0101298027300700000000000140000000000356381122035638          1009201800000000002418000000099N0509201821009201800000000000060000000000000000000000000000000000000000000000000000000035638                    3001029090000000000 
1040001300032Q 012017055560000146ALVES DA SILVA E GAMA LEAL LTDA - ME    AV. PRESIDENTE VARGAS                   CENTRO         76300000CERES          GO0000000000000000                                                                       
1040001300033R 01000000000000000000000000000000000000000000000000210092018000000000000200                                                                                                                                                       
1040001300034P 0101298027300700000000000140000000000356391122035639          1009201800000000019935000000099N0509201821009201800000000000060000000000000000000000000000000000000000000000000000000035639                    3001029090000000000 
1040001300035Q 012018707079000150SYSROTA EIRELI - ME                     AV. PRESIDENTE VARGAS                   CENTRO         76300000CERES          GO0000000000000000                                                                       
1040001300036R 01000000000000000000000000000000000000000000000000210092018000000000000200                                                                                                                                                       
1040001300037P 0101298027300700000000000140000000000356401122035640          1009201800000000002322000000099N0509201821009201800000000000060000000000000000000000000000000000000000000000000000000035640                    3001029090000000000 
1040001300038Q 012023606665000149M2 DO BRASIL MONITORAMENTO ONLINE EIRELIAV. PRESIDENTE VARGAS                   CENTRO         76300000CERES          GO0000000000000000                                                                       
1040001300039R 01000000000000000000000000000000000000000000000000210092018000000000000200                                                                                                                                                       
1040001300040P 0101298027300700000000000140000000000356411122035641          1009201800000000008616000000099N0509201821009201800000000000060000000000000000000000000000000000000000000000000000000035641                    3001029090000000000 
1040001300041Q 012000097489000161LA VIDAL E CIA LTDA - EPP               AV. PRESIDENTE VARGAS                   CENTRO         76300000CERES          GO0000000000000000                                                                       
1040001300042R 01000000000000000000000000000000000000000000000000210092018000000000000200                                                                                                                                                       
1040001300043P 0101298027300700000000000140000000000356421122035642          1009201800000000006464100000099N0509201821009201800000000000060000000000000000000000000000000000000000000000000000000035642                    3001029090000000000 
1040001300044Q 012018072993000172LEAL COMERCIO VAREJISTA EIRELI ME       AV. PRESIDENTE VARGAS                   CENTRO         76300000CERES          GO0000000000000000                                                                       
1040001300045R 01000000000000000000000000000000000000000000000000210092018000000000000200                                                                                                                                                       
1040001300046P 0101298027300700000000000140000000000356431122035643          1009201800000000000079200000099N0509201821009201800000000000060000000000000000000000000000000000000000000000000000000035643                    3001029090000000000 
1040001300047Q 012000000000000000FEDERAL MICRO CHIP                      AV. PRESIDENTE VARGAS                   CENTRO         76300000CERES          GO0000000000000000                                                                       
1040001300048R 01000000000000000000000000000000000000000000000000210092018000000000000200                                                                                                                                                       
1040001300049P 0101298027300700000000000140000000000356451122035645          1009201800000000000198000000099N0509201821009201800000000000060000000000000000000000000000000000000000000000000000000035645                    3001029090000000000 
1040001300050Q 011000031179567862FABIO FRANCO BONANATI                   AV. PRESIDENTE VARGAS                   CENTRO         76300000CERES          GO0000000000000000                                                                       
1040001300051R 01000000000000000000000000000000000000000000000000210092018000000000000200                                                                                                                                                       
1040001300052P 0101298027300700000000000140000000000356461122035646          1009201800000000005044000000099N0509201821009201800000000000060000000000000000000000000000000000000000000000000000000035646                    3001029090000000000 
1040001300053Q 011000072435968272GEORGE WILLTON SANTOS PEREIRA           AV. PRESIDENTE VARGAS                   CENTRO         76300000CERES          GO0000000000000000                                                                       
1040001300054R 01000000000000000000000000000000000000000000000000210092018000000000000200                                                                                                                                                       
1040001300055P 0101298027300700000000000140000000000356471122035647          1009201800000000009399000000099N0509201821009201800000000000060000000000000000000000000000000000000000000000000000000035647                    3001029090000000000 
1040001300056Q 011000011646215729DOMINGOS RONIVALDO DA SILVA RUFINO      AV. PRESIDENTE VARGAS                   CENTRO         76300000CERES          GO0000000000000000                                                                       
1040001300057R 01000000000000000000000000000000000000000000000000210092018000000000000200                                                                                                                                                       
1040001300058P 0101298027300700000000000140000000000356481122035648          1009201800000000003354000000099N0509201821009201800000000000060000000000000000000000000000000000000000000000000000000035648                    3001029090000000000 
1040001300059Q 011000050477285520ARNALDO BATISTA                         AV. PRESIDENTE VARGAS                   CENTRO         76300000CERES          GO0000000000000000                                                                       
1040001300060R 01000000000000000000000000000000000000000000000000210092018000000000000200                                                                                                                                                       
1040001300061P 0101298027300700000000000140000000000356491122035649          1009201800000000000396000000099N0509201821009201800000000000060000000000000000000000000000000000000000000000000000000035649                    3001029090000000000 
1040001300062Q 011000010936180781ANDRE LUIZ OLIVEIRA ATAIDE              AV. PRESIDENTE VARGAS                   CENTRO         76300000CERES          GO0000000000000000                                                                       
1040001300063R 01000000000000000000000000000000000000000000000000210092018000000000000200                                                                                                                                                       
1040001300064P 0101298027300700000000000140000000000356501122035650          1009201800000000000517000000099N0509201821009201800000000000060000000000000000000000000000000000000000000000000000000035650                    3001029090000000000 
1040001300065Q 011000007767300960AUTOBUSKA RASTREADORES E BLOQUEADORES VEAV. PRESIDENTE VARGAS                   CENTRO         76300000CERES          GO0000000000000000                                                                       
1040001300066R 01000000000000000000000000000000000000000000000000210092018000000000000200                                                                                                                                                       
1040001300067P 0101298027300700000000000140000000000356511122035651          1009201800000000000297000000099N0509201821009201800000000000060000000000000000000000000000000000000000000000000000000035651                    3001029090000000000 
1040001300068Q 011000004012365525GILMAR SILVA SAMPAIO                    AV. PRESIDENTE VARGAS                   CENTRO         76300000CERES          GO0000000000000000                                                                       
1040001300069R 01000000000000000000000000000000000000000000000000210092018000000000000200                                                                                                                                                       
1040001300070P 0101298027300700000000000140000000000356521122035652          1009201800000000000495000000099N0509201821009201800000000000060000000000000000000000000000000000000000000000000000000035652                    3001029090000000000 
1040001300071Q 011000008105070642HARLEY TEIXEIRA DE FREITAS              AV. PRESIDENTE VARGAS                   CENTRO         76300000CERES          GO0000000000000000                                                                       
1040001300072R 01000000000000000000000000000000000000000000000000210092018000000000000200                                                                                                                                                       
1040001300073P 0101298027300700000000000140000000000356531122035653          1009201800000000000220000000099N0509201821009201800000000000060000000000000000000000000000000000000000000000000000000035653                    3001029090000000000 
1040001300074Q 011000000342887327JULIELSON NUNES                         AV. PRESIDENTE VARGAS                   CENTRO         76300000CERES          GO0000000000000000                                                                       
1040001300075R 01000000000000000000000000000000000000000000000000210092018000000000000200                                                                                                                                                       
1040001300076P 0101298027300700000000000140000000000356541122035654          1009201800000000009735000000099N0509201821009201800000000000060000000000000000000000000000000000000000000000000000000035654                    3001029090000000000 
1040001300077Q 011000007032342779MARCELO SOARES                          AV. PRESIDENTE VARGAS                   CENTRO         76300000CERES          GO0000000000000000                                                                       
1040001300078R 01000000000000000000000000000000000000000000000000210092018000000000000200                                                                                                                                                       
1040001300079P 0101298027300700000000000140000000000356551122035655          1009201800000000000198000000099N0509201821009201800000000000060000000000000000000000000000000000000000000000000000000035655                    3001029090000000000 
1040001300080Q 011000007406488459FRANCINALDO MENDES VENANCIO             AV. PRESIDENTE VARGAS                   CENTRO         76300000CERES          GO0000000000000000                                                                       
1040001300081R 01000000000000000000000000000000000000000000000000210092018000000000000200                                                                                                                                                       
1040001300082P 0101298027300700000000000140000000000356561122035656          1009201800000000000891000000099N0509201821009201800000000000060000000000000000000000000000000000000000000000000000000035656                    3001029090000000000 
1040001300083Q 012015598500000144WR COMERCIO E SERVICOS LTDA - EPP       AV. PRESIDENTE VARGAS                   CENTRO         76300000CERES          GO0000000000000000                                                                       
1040001300084R 01000000000000000000000000000000000000000000000000210092018000000000000200                                                                                                                                                       
1040001300085P 0101298027300700000000000140000000000356571122035657          1009201800000000006448000000099N0509201821009201800000000000060000000000000000000000000000000000000000000000000000000035657                    3001029090000000000 
1040001300086Q 011000005460942608FLAVIO MUNIZ DE ALMEIDA                 AV. PRESIDENTE VARGAS                   CENTRO         76300000CERES          GO0000000000000000                                                                       
1040001300087R 01000000000000000000000000000000000000000000000000210092018000000000000200                                                                                                                                                       
1040001300088P 0101298027300700000000000140000000000356581122035658          1009201800000000010050000000099N0509201821009201800000000000060000000000000000000000000000000000000000000000000000000035658                    3001029090000000000 
1040001300089Q 012021233248000172GABRIEL ANDRADE BORGES                  AV. PRESIDENTE VARGAS                   CENTRO         76300000CERES          GO0000000000000000                                                                       
1040001300090R 01000000000000000000000000000000000000000000000000210092018000000000000200                                                                                                                                                       
1040001300091P 0101298027300700000000000140000000000356591122035659          1009201800000000000792000000099N0509201821009201800000000000060000000000000000000000000000000000000000000000000000000035659                    3001029090000000000 
1040001300092Q 011000005221241781WENDEL MARMO                            AV. PRESIDENTE VARGAS                   CENTRO         76300000CERES          GO0000000000000000                                                                       
1040001300093R 01000000000000000000000000000000000000000000000000210092018000000000000200                                                                                                                                                       
1040001300094P 0101298027300700000000000140000000000356601122035660          1009201800000000001386000000099N0509201821009201800000000000060000000000000000000000000000000000000000000000000000000035660                    3001029090000000000 
1040001300095Q 012024598464000100E S NASCIMENTO SISTEMAS DE MONITORAMENTOAV. PRESIDENTE VARGAS                   CENTRO         76300000CERES          GO0000000000000000                                                                       
1040001300096R 01000000000000000000000000000000000000000000000000210092018000000000000200                                                                                                                                                       
1040001300097P 0101298027300700000000000140000000000356611122035661          1009201800000000003510000000099N0509201821009201800000000000060000000000000000000000000000000000000000000000000000000035661                    3001029090000000000 
1040001300098Q 011000030931320534LUIZ ANTONIO FRANCA DE CARVALHO         AV. PRESIDENTE VARGAS                   CENTRO         76300000CERES          GO0000000000000000                                                                       
1040001300099R 01000000000000000000000000000000000000000000000000210092018000000000000200                                                                                                                                                       
1040001300100P 0101298027300700000000000140000000000356621122035662          1009201800000000001089000000099N0509201821009201800000000000060000000000000000000000000000000000000000000000000000000035662                    3001029090000000000 
1040001300101Q 011000060768932220CARLOS EDUARDO DE OLIVEIRA MIRANDA      AV. PRESIDENTE VARGAS                   CENTRO         76300000CERES          GO0000000000000000                                                                       
1040001300102R 01000000000000000000000000000000000000000000000000210092018000000000000200                                                                                                                                                       
1040001300103P 0101298027300700000000000140000000000356631122035663          1009201800000000011352000000099N0509201821009201800000000000060000000000000000000000000000000000000000000000000000000035663                    3001029090000000000 
1040001300104Q 011000015348812803MARCIO ALVES DOS SANTOS / FABIANA       AV. PRESIDENTE VARGAS                   CENTRO         76300000CERES          GO0000000000000000                                                                       
1040001300105R 01000000000000000000000000000000000000000000000000210092018000000000000200                                                                                                                                                       
1040001300106P 0101298027300700000000000140000000000356661122035666          1009201800000000022930000000099N0509201821009201800000000000060000000000000000000000000000000000000000000000000000000035666                    3001029090000000000 
1040001300107Q 011000006751341610CRISTIANO RODRIGO DE MORAES BORGES      AV. PRESIDENTE VARGAS                   CENTRO         76300000CERES          GO0000000000000000                                                                       
1040001300108R 01000000000000000000000000000000000000000000000000210092018000000000000200                                                                                                                                                       
1040001300109P 0101298027300700000000000140000000000356671122035667          1009201800000000038710000000099N0509201821009201800000000000060000000000000000000000000000000000000000000000000000000035667                    3001029090000000000 
1040001300110Q 011000065973232204CARLOS DEANE LIMA DE SOUZA              AV. PRESIDENTE VARGAS                   CENTRO         76300000CERES          GO0000000000000000                                                                       
1040001300111R 01000000000000000000000000000000000000000000000000210092018000000000000200                                                                                                                                                       
1040001300112P 0101298027300700000000000140000000000356681122035668          1009201800000000000099000000099N0509201821009201800000000000060000000000000000000000000000000000000000000000000000000035668                    3001029090000000000 
1040001300113Q 011000008577593452ANTONIO CARLOS                          AV. PRESIDENTE VARGAS                   CENTRO         76300000CERES          GO0000000000000000                                                                       
1040001300114R 01000000000000000000000000000000000000000000000000210092018000000000000200                                                                                                                                                       
1040001300115P 0101298027300700000000000140000000000356691122035669          1009201800000000000099000000099N0509201821009201800000000000060000000000000000000000000000000000000000000000000000000035669                    3001029090000000000 
1040001300116Q 011000007041857921MARCELO MARTINS VIEIRA JUNIOR           AV. PRESIDENTE VARGAS                   CENTRO         76300000CERES          GO0000000000000000                                                                       
1040001300117R 01000000000000000000000000000000000000000000000000210092018000000000000200                                                                                                                                                       
1040001300118P 0101298027300700000000000140000000000356701122035670          1009201800000000000693000000099N0509201821009201800000000000060000000000000000000000000000000000000000000000000000000035670                    3001029090000000000 
1040001300119Q 011000008398525762VICTOR FERNANDES PAES                   AV. PRESIDENTE VARGAS                   CENTRO         76300000CERES          GO0000000000000000                                                                       
1040001300120R 01000000000000000000000000000000000000000000000000210092018000000000000200                                                                                                                                                       
1040001300121P 0101298027300700000000000140000000000356711122035671          1009201800000000000616000000099N0509201821009201800000000000060000000000000000000000000000000000000000000000000000000035671                    3001029090000000000 
1040001300122Q 011000002795229323ANDREIDE JOSE SILVA                     AV. PRESIDENTE VARGAS                   CENTRO         76300000CERES          GO0000000000000000                                                                       
1040001300123R 01000000000000000000000000000000000000000000000000210092018000000000000200                                                                                                                                                       
1040001300124P 0101298027300700000000000140000000000356721122035672          1009201800000000038746000000099N0509201821009201800000000000060000000000000000000000000000000000000000000000000000000035672                    3001029090000000000 
1040001300125Q 011000060005553342JOSE AIRTON DE SOUSA ALMEIDA            AV. PRESIDENTE VARGAS                   CENTRO         76300000CERES          GO0000000000000000                                                                       
1040001300126R 01000000000000000000000000000000000000000000000000210092018000000000000200                                                                                                                                                       
1040001300127P 0101298027300700000000000140000000000356731122035673          1009201800000000000792000000099N0509201821009201800000000000060000000000000000000000000000000000000000000000000000000035673                    3001029090000000000 
1040001300128Q 011000007302713588ALEXSANDER BARBOSA                      AV. PRESIDENTE VARGAS                   CENTRO         76300000CERES          GO0000000000000000                                                                       
1040001300129R 01000000000000000000000000000000000000000000000000210092018000000000000200                                                                                                                                                       
1040001300130P 0101298027300700000000000140000000000356741122035674          1009201800000000001485000000099N0509201821009201800000000000060000000000000000000000000000000000000000000000000000000035674                    3001029090000000000 
1040001300131Q 011000011483301788CAIO CARDOSO                            AV. PRESIDENTE VARGAS                   CENTRO         76300000CERES          GO0000000000000000                                                                       
1040001300132R 01000000000000000000000000000000000000000000000000210092018000000000000200                                                                                                                                                       
1040001300133P 0101298027300700000000000140000000000356751122035675          1009201800000000001188000000099N0509201821009201800000000000060000000000000000000000000000000000000000000000000000000035675                    3001029090000000000 
1040001300134Q 011000002701961882JOSE LUIZ ALBERTO SOBRINHO              AV. PRESIDENTE VARGAS                   CENTRO         76300000CERES          GO0000000000000000                                                                       
1040001300135R 01000000000000000000000000000000000000000000000000210092018000000000000200                                                                                                                                                       
1040001300136P 0101298027300700000000000140000000000356761122035676          1009201800000000000297000000099N0509201821009201800000000000060000000000000000000000000000000000000000000000000000000035676                    3001029090000000000 
1040001300137Q 011000087630451334EVERARDO GOMES DE ARAUJO                AV. PRESIDENTE VARGAS                   CENTRO         76300000CERES          GO0000000000000000                                                                       
1040001300138R 01000000000000000000000000000000000000000000000000210092018000000000000200                                                                                                                                                       
1040001300139P 0101298027300700000000000140000000000356771122035677          1009201800000000004606000000099N0509201821009201800000000000060000000000000000000000000000000000000000000000000000000035677                    3001029090000000000 
1040001300140Q 011000008479656786FERNANDO JOSE SIQUEIRA DE MAGALHAES BASTAV. PRESIDENTE VARGAS                   CENTRO         76300000CERES          GO0000000000000000                                                                       
1040001300141R 01000000000000000000000000000000000000000000000000210092018000000000000200                                                                                                                                                       
1040001300142P 0101298027300700000000000140000000000356781122035678          1009201800000000000099000000099N0509201821009201800000000000060000000000000000000000000000000000000000000000000000000035678                    3001029090000000000 
1040001300143Q 011000004267859914DOUGLAS BORGES                          AV. PRESIDENTE VARGAS                   CENTRO         76300000CERES          GO0000000000000000                                                                       
1040001300144R 01000000000000000000000000000000000000000000000000210092018000000000000200                                                                                                                                                       
1040001300145P 0101298027300700000000000140000000000356791122035679          1009201800000000006975700000099N0509201821009201800000000000060000000000000000000000000000000000000000000000000000000035679                    3001029090000000000 
1040001300146Q 012031074419000111RASTRO RS SERVICOS DE MONITORAMENTO EIREAV. PRESIDENTE VARGAS                   CENTRO         76300000CERES          GO0000000000000000                                                                       
1040001300147R 01000000000000000000000000000000000000000000000000210092018000000000000200                                                                                                                                                       
1040001300148P 0101298027300700000000000140000000000356801122035680          1009201800000000001386000000099N0509201821009201800000000000060000000000000000000000000000000000000000000000000000000035680                    3001029090000000000 
1040001300149Q 011000004601350662FRANKLIN LIMA                           AV. PRESIDENTE VARGAS                   CENTRO         76300000CERES          GO0000000000000000                                                                       
1040001300150R 01000000000000000000000000000000000000000000000000210092018000000000000200                                                                                                                                                       
1040001300151P 0101298027300700000000000140000000000356811122035681          1009201800000000001950000000099N0509201821009201800000000000060000000000000000000000000000000000000000000000000000000035681                    3001029090000000000 
1040001300152Q 011000057194270072EBER BELEM                              AV. PRESIDENTE VARGAS                   CENTRO         76300000CERES          GO0000000000000000                                                                       
1040001300153R 01000000000000000000000000000000000000000000000000210092018000000000000200                                                                                                                                                       
1040001300154P 0101298027300700000000000140000000000356821122035682          1009201800000000017747000000099N0509201821009201800000000000060000000000000000000000000000000000000000000000000000000035682                    3001029090000000000 
1040001300155Q 011000003908501369PEDRO HENRIQUE BESSA GURGEL             AV. PRESIDENTE VARGAS                   CENTRO         76300000CERES          GO0000000000000000                                                                       
1040001300156R 01000000000000000000000000000000000000000000000000210092018000000000000200                                                                                                                                                       
1040001300157P 0101298027300700000000000140000000000356831122035683          1010201800000000003000000000099N0509201821010201800000000000060000000000000000000000000000000000000000000000000000000035683                    3001029090000000000 
1040001300158Q 012030918945000158FREEDOM PRODUTOS PARA FESTAS LTDA       AV. PRESIDENTE VARGAS                   CENTRO         76300000CERES          GO0000000000000000                                                                       
1040001300159R 01000000000000000000000000000000000000000000000000210102018000000000000200                                                                                                                                                       
1040001300160P 0101298027300700000000000140000000000356841122035684          1011201800000000003000000000099N0509201821011201800000000000060000000000000000000000000000000000000000000000000000000035684                    3001029090000000000 
1040001300161Q 012030918945000158FREEDOM PRODUTOS PARA FESTAS LTDA       AV. PRESIDENTE VARGAS                   CENTRO         76300000CERES          GO0000000000000000                                                                       
1040001300162R 01000000000000000000000000000000000000000000000000210112018000000000000200                                                                                                                                                       
1040001300163P 0101298027300700000000000140000000000356851122035685          1012201800000000003000000000099N0509201821012201800000000000060000000000000000000000000000000000000000000000000000000035685                    3001029090000000000 
1040001300164Q 012030918945000158FREEDOM PRODUTOS PARA FESTAS LTDA       AV. PRESIDENTE VARGAS                   CENTRO         76300000CERES          GO0000000000000000                                                                       
1040001300165R 01000000000000000000000000000000000000000000000000210122018000000000000200                                                                                                                                                       
1040001300166P 0101298027300700000000000140000000000356861122035686          1001201900000000003000000000099N0509201821001201900000000000060000000000000000000000000000000000000000000000000000000035686                    3001029090000000000 
1040001300167Q 012030918945000158FREEDOM PRODUTOS PARA FESTAS LTDA       AV. PRESIDENTE VARGAS                   CENTRO         76300000CERES          GO0000000000000000                                                                       
1040001300168R 01000000000000000000000000000000000000000000000000210012019000000000000200                                                                                                                                                       
1040001300169P 0101298027300700000000000140000000000356871122035687          1002201900000000003000000000099N0509201821002201900000000000060000000000000000000000000000000000000000000000000000000035687                    3001029090000000000 
1040001300170Q 012030918945000158FREEDOM PRODUTOS PARA FESTAS LTDA       AV. PRESIDENTE VARGAS                   CENTRO         76300000CERES          GO0000000000000000                                                                       
1040001300171R 01000000000000000000000000000000000000000000000000210022019000000000000200                                                                                                                                                       
1040001300172P 0101298027300700000000000140000000000356881122035688          1003201900000000003000000000099N0509201821003201900000000000060000000000000000000000000000000000000000000000000000000035688                    3001029090000000000 
1040001300173Q 012030918945000158FREEDOM PRODUTOS PARA FESTAS LTDA       AV. PRESIDENTE VARGAS                   CENTRO         76300000CERES          GO0000000000000000                                                                       
1040001300174R 01000000000000000000000000000000000000000000000000210032019000000000000200                                                                                                                                                       
1040001300175P 0101298027300700000000000140000000000356891122035689          1004201900000000003000000000099N0509201821004201900000000000060000000000000000000000000000000000000000000000000000000035689                    3001029090000000000 
1040001300176Q 012030918945000158FREEDOM PRODUTOS PARA FESTAS LTDA       AV. PRESIDENTE VARGAS                   CENTRO         76300000CERES          GO0000000000000000                                                                       
1040001300177R 01000000000000000000000000000000000000000000000000210042019000000000000200                                                                                                                                                       
1040001300178P 0101298027300700000000000140000000000356901122035690          1005201900000000003000000000099N0509201821005201900000000000060000000000000000000000000000000000000000000000000000000035690                    3001029090000000000 
1040001300179Q 012030918945000158FREEDOM PRODUTOS PARA FESTAS LTDA       AV. PRESIDENTE VARGAS                   CENTRO         76300000CERES          GO0000000000000000                                                                       
1040001300180R 01000000000000000000000000000000000000000000000000210052019000000000000200                                                                                                                                                       
1040001300181P 0101298027300700000000000140000000000356911122035691          1006201900000000003000000000099N0509201821006201900000000000060000000000000000000000000000000000000000000000000000000035691                    3001029090000000000 
1040001300182Q 012030918945000158FREEDOM PRODUTOS PARA FESTAS LTDA       AV. PRESIDENTE VARGAS                   CENTRO         76300000CERES          GO0000000000000000                                                                       
1040001300183R 01000000000000000000000000000000000000000000000000210062019000000000000200                                                                                                                                                       
1040001300184P 0101298027300700000000000140000000000356921122035692          1007201900000000003000000000099N0509201821007201900000000000060000000000000000000000000000000000000000000000000000000035692                    3001029090000000000 
1040001300185Q 012030918945000158FREEDOM PRODUTOS PARA FESTAS LTDA       AV. PRESIDENTE VARGAS                   CENTRO         76300000CERES          GO0000000000000000                                                                       
1040001300186R 01000000000000000000000000000000000000000000000000210072019000000000000200                                                                                                                                                       
1040001300187P 0101298027300700000000000140000000000356931122035693          1008201900000000003000000000099N0509201821008201900000000000060000000000000000000000000000000000000000000000000000000035693                    3001029090000000000 
1040001300188Q 012030918945000158FREEDOM PRODUTOS PARA FESTAS LTDA       AV. PRESIDENTE VARGAS                   CENTRO         76300000CERES          GO0000000000000000                                                                       
1040001300189R 01000000000000000000000000000000000000000000000000210082019000000000000200                                                                                                                                                       
1040001300190P 0101298027300700000000000140000000000356941122035694          1009201900000000003000000000099N0509201821009201900000000000060000000000000000000000000000000000000000000000000000000035694                    3001029090000000000 
1040001300191Q 012030918945000158FREEDOM PRODUTOS PARA FESTAS LTDA       AV. PRESIDENTE VARGAS                   CENTRO         76300000CERES          GO0000000000000000                                                                       
1040001300192R 01000000000000000000000000000000000000000000000000210092019000000000000200                                                                                                                                                       
1040001300193P 0101298027300700000000000140000000000356951122035695          1009201800000000008764000000099N0509201821009201800000000000060000000000000000000000000000000000000000000000000000000035695                    3001029090000000000 
1040001300194Q 011000003434917454FABIO MENDONCA FERREIRA                 AV. PRESIDENTE VARGAS                   CENTRO         76300000CERES          GO0000000000000000                                                                       
1040001300195R 01000000000000000000000000000000000000000000000000210092018000000000000200                                                                                                                                                       
1040001300196P 0101298027300700000000000140000000000356961122035696          1009201800000000007466000000099N0509201821009201800000000000060000000000000000000000000000000000000000000000000000000035696                    3001029090000000000 
1040001300197Q 011000000912863285LEONARDO ROCHA DA SILVA                 AV. PRESIDENTE VARGAS                   CENTRO         76300000CERES          GO0000000000000000                                                                       
1040001300198R 01000000000000000000000000000000000000000000000000210092018000000000000200                                                                                                                                                       
1040001300199P 0101298027300700000000000140000000000356971122035697          1009201800000000003354000000099N0509201821009201800000000000060000000000000000000000000000000000000000000000000000000035697                    3001029090000000000 
1040001300200Q 011000093293259715WILSON MARTINS CARREIRA                 AV. PRESIDENTE VARGAS                   CENTRO         76300000CERES          GO0000000000000000                                                                       
1040001300201R 01000000000000000000000000000000000000000000000000210092018000000000000200                                                                                                                                                       
1040001300202P 0101298027300700000000000140000000000356981122035698          1009201800000000000198000000099N0509201821009201800000000000060000000000000000000000000000000000000000000000000000000035698                    3001029090000000000 
1040001300203Q 011000003700881746LAZARO TUBARAO                          AV. PRESIDENTE VARGAS                   CENTRO         76300000CERES          GO0000000000000000                                                                       
1040001300204R 01000000000000000000000000000000000000000000000000210092018000000000000200                                                                                                                                                       
1040001300205P 0101298027300700000000000140000000000356991122035699          1009201800000000000338000000099N0509201821009201800000000000060000000000000000000000000000000000000000000000000000000035699                    3001029090000000000 
1040001300206Q 011000003765813443JOSE ADRIANO LINO DE LIMA (CASA DA CONSTAV. PRESIDENTE VARGAS                   CENTRO         76300000CERES          GO0000000000000000                                                                       
1040001300207R 01000000000000000000000000000000000000000000000000210092018000000000000200                                                                                                                                                       
1040001300208P 0101298027300700000000000140000000000357001122035700          1009201800000000000198000000099N0509201821009201800000000000060000000000000000000000000000000000000000000000000000000035700                    3001029090000000000 
1040001300209Q 012015290483000183ICARO SIMAS                             AV. PRESIDENTE VARGAS                   CENTRO         76300000CERES          GO0000000000000000                                                                       
1040001300210R 01000000000000000000000000000000000000000000000000210092018000000000000200                                                                                                                                                       
1040001300211P 0101298027300700000000000140000000000357011122035701          1009201800000000000198000000099N0509201821009201800000000000060000000000000000000000000000000000000000000000000000000035701                    3001029090000000000 
1040001300212Q 011000028187156104LUZIA CONCEICAO ALVES                   AV. PRESIDENTE VARGAS                   CENTRO         76300000CERES          GO0000000000000000                                                                       
1040001300213R 01000000000000000000000000000000000000000000000000210092018000000000000200                                                                                                                                                       
1040001300214P 0101298027300700000000000140000000000357021122035702          1009201800000000003315000000099N0509201821009201800000000000060000000000000000000000000000000000000000000000000000000035702                    3001029090000000000 
1040001300215Q 011000047403705300JAIRO ROCHA                             AV. PRESIDENTE VARGAS                   CENTRO         76300000CERES          GO0000000000000000                                                                       
1040001300216R 01000000000000000000000000000000000000000000000000210092018000000000000200                                                                                                                                                       
1040001300217P 0101298027300700000000000140000000000357031122035703          1009201800000000000099000000099N0509201821009201800000000000060000000000000000000000000000000000000000000000000000000035703                    3001029090000000000 
1040001300218Q 011000002086194102CARLOS ALBERTO ALMEIDA RODRIGUES        AV. PRESIDENTE VARGAS                   CENTRO         76300000CERES          GO0000000000000000                                                                       
1040001300219R 01000000000000000000000000000000000000000000000000210092018000000000000200                                                                                                                                                       
1040001300220P 0101298027300700000000000140000000000357041122035704          1009201800000000057565000000099N0509201821009201800000000000060000000000000000000000000000000000000000000000000000000035704                    3001029090000000000 
1040001300221Q 012015686018000166SRS TECNOLOGIA E SEGURANCA-SAMUEL       AV. PRESIDENTE VARGAS                   CENTRO         76300000CERES          GO0000000000000000                                                                       
1040001300222R 01000000000000000000000000000000000000000000000000210092018000000000000200                                                                                                                                                       
1040001300223P 0101298027300700000000000140000000000357051122035705          1009201800000000000099000000099N0509201821009201800000000000060000000000000000000000000000000000000000000000000000000035705                    3001029090000000000 
1040001300224Q 011000009613933786NILSON CARVALHO                         AV. PRESIDENTE VARGAS                   CENTRO         76300000CERES          GO0000000000000000                                                                       
1040001300225R 01000000000000000000000000000000000000000000000000210092018000000000000200                                                                                                                                                       
1040001300226P 0101298027300700000000000140000000000357061122035706          1009201800000000000693000000099N0509201821009201800000000000060000000000000000000000000000000000000000000000000000000035706                    3001029090000000000 
1040001300227Q 011000009533034700HIGO BRAGA FONSECA E SILVA              AV. PRESIDENTE VARGAS                   CENTRO         76300000CERES          GO0000000000000000                                                                       
1040001300228R 01000000000000000000000000000000000000000000000000210092018000000000000200                                                                                                                                                       
1040001300229P 0101298027300700000000000140000000000357071122035707          1009201800000000000297000000099N0509201821009201800000000000060000000000000000000000000000000000000000000000000000000035707                    3001029090000000000 
1040001300230Q 011000004200874199JEFFERSON CHAVES DA SILVA               AV. PRESIDENTE VARGAS                   CENTRO         76300000CERES          GO0000000000000000                                                                       
1040001300231R 01000000000000000000000000000000000000000000000000210092018000000000000200                                                                                                                                                       
1040001300232P 0101298027300700000000000140000000000357081122035708          1009201800000000040572000000099N0509201821009201800000000000060000000000000000000000000000000000000000000000000000000035708                    3001029090000000000 
1040001300233Q 012022790326000100ULTRA SOLUCOES EM SERVICOS DA TECNOLOGIAAV. PRESIDENTE VARGAS                   CENTRO         76300000CERES          GO0000000000000000                                                                       
1040001300234R 01000000000000000000000000000000000000000000000000210092018000000000000200                                                                                                                                                       
1040001300235P 0101298027300700000000000140000000000357091122035709          1009201800000000009684000000099N0509201821009201800000000000060000000000000000000000000000000000000000000000000000000035709                    3001029090000000000 
1040001300236Q 011000084430133972MICHELY LIMA                            AV. PRESIDENTE VARGAS                   CENTRO         76300000CERES          GO0000000000000000                                                                       
1040001300237R 01000000000000000000000000000000000000000000000000210092018000000000000200                                                                                                                                                       
1040001300238P 0101298027300700000000000140000000000357101122035710          1009201800000000001782000000099N0509201821009201800000000000060000000000000000000000000000000000000000000000000000000035710                    3001029090000000000 
1040001300239Q 011000000147721679WANDERSON ASSUNCAO DA SILVA             AV. PRESIDENTE VARGAS                   CENTRO         76300000CERES          GO0000000000000000                                                                       
1040001300240R 01000000000000000000000000000000000000000000000000210092018000000000000200                                                                                                                                                       
1040001300241P 0101298027300700000000000140000000000357111122035711          1009201800000000000198000000099N0509201821009201800000000000060000000000000000000000000000000000000000000000000000000035711                    3001029090000000000 
1040001300242Q 011000056052995300EDMAR OLIVEIRA GUEDES  JUNIOR           AV. PRESIDENTE VARGAS                   CENTRO         76300000CERES          GO0000000000000000                                                                       
1040001300243R 01000000000000000000000000000000000000000000000000210092018000000000000200                                                                                                                                                       
1040001300244P 0101298027300700000000000140000000000357121122035712          1009201800000000000099000000099N0509201821009201800000000000060000000000000000000000000000000000000000000000000000000035712                    3001029090000000000 
1040001300245Q 011000002523867362FRANCIVALDO FEITOSA                     AV. PRESIDENTE VARGAS                   CENTRO         76300000CERES          GO0000000000000000                                                                       
1040001300246R 01000000000000000000000000000000000000000000000000210092018000000000000200                                                                                                                                                       
1040001300247P 0101298027300700000000000140000000000357131122035713          1009201800000000003195400000099N0509201821009201800000000000060000000000000000000000000000000000000000000000000000000035713                    3001029090000000000 
1040001300248Q 011000026355703888ENEAS GIL MARQUES                       AV. PRESIDENTE VARGAS                   CENTRO         76300000CERES          GO0000000000000000                                                                       
1040001300249R 01000000000000000000000000000000000000000000000000210092018000000000000200                                                                                                                                                       
1040001300250P 0101298027300700000000000140000000000357141122035714          1009201800000000000594000000099N0509201821009201800000000000060000000000000000000000000000000000000000000000000000000035714                    3001029090000000000 
1040001300251Q 011000042308542004GREGORIO VILAS BOAS                     AV. PRESIDENTE VARGAS                   CENTRO         76300000CERES          GO0000000000000000                                                                       
1040001300252R 01000000000000000000000000000000000000000000000000210092018000000000000200                                                                                                                                                       
1040001300253P 0101298027300700000000000140000000000357151122035715          1009201800000000000792000000099N0509201821009201800000000000060000000000000000000000000000000000000000000000000000000035715                    3001029090000000000 
1040001300254Q 012041454554000146FRANCISCO RICARDO MONTEIRO - ME         AV. PRESIDENTE VARGAS                   CENTRO         76300000CERES          GO0000000000000000                                                                       
1040001300255R 01000000000000000000000000000000000000000000000000210092018000000000000200                                                                                                                                                       
1040001300256P 0101298027300700000000000140000000000357161122035716          1009201800000000000396000000099N0509201821009201800000000000060000000000000000000000000000000000000000000000000000000035716                    3001029090000000000 
1040001300257Q 011000079050859291RODRIGO SILVA SOUSA                     AV. PRESIDENTE VARGAS                   CENTRO         76300000CERES          GO0000000000000000                                                                       
1040001300258R 01000000000000000000000000000000000000000000000000210092018000000000000200                                                                                                                                                       
1040001300259P 0101298027300700000000000140000000000357171122035717          1009201800000000000099000000099N0509201821009201800000000000060000000000000000000000000000000000000000000000000000000035717                    3001029090000000000 
1040001300260Q 011000083833706368ALEXSANDRO JOSE FELIX NOGUEIRA          AV. PRESIDENTE VARGAS                   CENTRO         76300000CERES          GO0000000000000000                                                                       
1040001300261R 01000000000000000000000000000000000000000000000000210092018000000000000200                                                                                                                                                       
1040001300262P 0101298027300700000000000140000000000357181122035718          1009201800000000000693000000099N0509201821009201800000000000060000000000000000000000000000000000000000000000000000000035718                    3001029090000000000 
1040001300263Q 011000003551174601FERNANDO FERNANDES FERREIRA             AV. PRESIDENTE VARGAS                   CENTRO         76300000CERES          GO0000000000000000                                                                       
1040001300264R 01000000000000000000000000000000000000000000000000210092018000000000000200                                                                                                                                                       
1040001300265P 0101298027300700000000000140000000000357191122035719          1009201800000000000198000000099N0509201821009201800000000000060000000000000000000000000000000000000000000000000000000035719                    3001029090000000000 
1040001300266Q 011000037921092802MAICON DOUGLAS MARQUES DA SILVA         AV. PRESIDENTE VARGAS                   CENTRO         76300000CERES          GO0000000000000000                                                                       
1040001300267R 01000000000000000000000000000000000000000000000000210092018000000000000200                                                                                                                                                       
1040001300268P 0101298027300700000000000140000000000357201122035720          1009201800000000000099000000099N0509201821009201800000000000060000000000000000000000000000000000000000000000000000000035720                    3001029090000000000 
1040001300269Q 011000004754091329ESTENIO DA SILVA LEITE                  AV. PRESIDENTE VARGAS                   CENTRO         76300000CERES          GO0000000000000000                                                                       
1040001300270R 01000000000000000000000000000000000000000000000000210092018000000000000200                                                                                                                                                       
1040001300271P 0101298027300700000000000140000000000357211122035721          1009201800000000000585000000099N0509201821009201800000000000060000000000000000000000000000000000000000000000000000000035721                    3001029090000000000 
1040001300272Q 011000096544970263EDMIR CELSO LEDO BARBOSA FILHO          AV. PRESIDENTE VARGAS                   CENTRO         76300000CERES          GO0000000000000000                                                                       
1040001300273R 01000000000000000000000000000000000000000000000000210092018000000000000200                                                                                                                                                       
1040001300274P 0101298027300700000000000140000000000357221122035722          1009201800000000002340000000099N0509201821009201800000000000060000000000000000000000000000000000000000000000000000000035722                    3001029090000000000 
1040001300275Q 012007726179000108GUSTAVO ZACCARON MARCON ME              AV. PRESIDENTE VARGAS                   CENTRO         76300000CERES          GO0000000000000000                                                                       
1040001300276R 01000000000000000000000000000000000000000000000000210092018000000000000200                                                                                                                                                       
1040001300277P 0101298027300700000000000140000000000357231122035723          1009201800000000000099000000099N0509201821009201800000000000060000000000000000000000000000000000000000000000000000000035723                    3001029090000000000 
1040001300278Q 011000001903657733JULIO CESAR DOMINGUES PORTO             AV. PRESIDENTE VARGAS                   CENTRO         76300000CERES          GO0000000000000000                                                                       
1040001300279R 01000000000000000000000000000000000000000000000000210092018000000000000200                                                                                                                                                       
1040001300280P 0101298027300700000000000140000000000357241122035724          1009201800000000003588000000099N0509201821009201800000000000060000000000000000000000000000000000000000000000000000000035724                    3001029090000000000 
1040001300281Q 012017583701000101DIEGO RILKO COSTA 37204056809           AV. PRESIDENTE VARGAS                   CENTRO         76300000CERES          GO0000000000000000                                                                       
1040001300282R 01000000000000000000000000000000000000000000000000210092018000000000000200                                                                                                                                                       
1040001300283P 0101298027300700000000000140000000000357251122035725          1009201800000000000099000000099N0509201821009201800000000000060000000000000000000000000000000000000000000000000000000035725                    3001029090000000000 
1040001300284Q 011000039222103840ANTONIO O PURCELO JUNIOR                AV. PRESIDENTE VARGAS                   CENTRO         76300000CERES          GO0000000000000000                                                                       
1040001300285R 01000000000000000000000000000000000000000000000000210092018000000000000200                                                                                                                                                       
1040001300286P 0101298027300700000000000140000000000357261122035726          1009201800000000000990000000099N0509201821009201800000000000060000000000000000000000000000000000000000000000000000000035726                    3001029090000000000 
1040001300287Q 011000099252830197CARLOS MAGNO ALVES DE ALMEIDA           AV. PRESIDENTE VARGAS                   CENTRO         76300000CERES          GO0000000000000000                                                                       
1040001300288R 01000000000000000000000000000000000000000000000000210092018000000000000200                                                                                                                                                       
1040001300289P 0101298027300700000000000140000000000357271122035727          1009201800000000005538000000099N0509201821009201800000000000060000000000000000000000000000000000000000000000000000000035727                    3001029090000000000 
1040001300290Q 012026216149000104CAIO DOS SANTOS E SOUSA 04422993119     AV. PRESIDENTE VARGAS                   CENTRO         76300000CERES          GO0000000000000000                                                                       
1040001300291R 01000000000000000000000000000000000000000000000000210092018000000000000200                                                                                                                                                       
1040001300292P 0101298027300700000000000140000000000357281122035728          1009201800000000000099000000099N0509201821009201800000000000060000000000000000000000000000000000000000000000000000000035728                    3001029090000000000 
1040001300293Q 011000096518189304JACKSON WILLIAM CHAVES LEAO             AV. PRESIDENTE VARGAS                   CENTRO         76300000CERES          GO0000000000000000                                                                       
1040001300294R 01000000000000000000000000000000000000000000000000210092018000000000000200                                                                                                                                                       
1040001300295P 0101298027300700000000000140000000000357291122035729          1009201800000000000099000000099N0509201821009201800000000000060000000000000000000000000000000000000000000000000000000035729                    3001029090000000000 
1040001300296Q 011000006446218699FABIO LUIZ                              AV. PRESIDENTE VARGAS                   CENTRO         76300000CERES          GO0000000000000000                                                                       
1040001300297R 01000000000000000000000000000000000000000000000000210092018000000000000200                                                                                                                                                       
1040001300298P 0101298027300700000000000140000000000357301122035730          1009201800000000000198000000099N0509201821009201800000000000060000000000000000000000000000000000000000000000000000000035730                    3001029090000000000 
1040001300299Q 011000001113974486PAULO VASCONCELOS SALLES                AV. PRESIDENTE VARGAS                   CENTRO         76300000CERES          GO0000000000000000                                                                       
1040001300300R 01000000000000000000000000000000000000000000000000210092018000000000000200                                                                                                                                                       
1040001300301P 0101298027300700000000000140000000000357311122035731          1009201800000000001386000000099N0509201821009201800000000000060000000000000000000000000000000000000000000000000000000035731                    3001029090000000000 
1040001300302Q 012041595521000116C E M DISTRIBUIDORA DE CARNES LTDA      AV. PRESIDENTE VARGAS                   CENTRO         76300000CERES          GO0000000000000000                                                                       
1040001300303R 01000000000000000000000000000000000000000000000000210092018000000000000200                                                                                                                                                       
1040001300304P 0101298027300700000000000140000000000357321122035732          1009201800000000000990000000099N0509201821009201800000000000060000000000000000000000000000000000000000000000000000000035732                    3001029090000000000 
1040001300305Q 012020085595000119CTX LOCACOES DE EQUIPAMENTOS E CONTAINERAV. PRESIDENTE VARGAS                   CENTRO         76300000CERES          GO0000000000000000                                                                       
1040001300306R 01000000000000000000000000000000000000000000000000210092018000000000000200                                                                                                                                                       
1040001300307P 0101298027300700000000000140000000000357331122035733          1009201800000000000158000000099N0509201821009201800000000000060000000000000000000000000000000000000000000000000000000035733                    3001029090000000000 
1040001300308Q 011000001094527394MARCICLEIA RODRIGUES DE OLIVEIRA        AV. PRESIDENTE VARGAS                   CENTRO         76300000CERES          GO0000000000000000                                                                       
1040001300309R 01000000000000000000000000000000000000000000000000210092018000000000000200                                                                                                                                                       
1040001300310P 0101298027300700000000000140000000000357341122035734          1009201800000000003106000000099N0509201821009201800000000000060000000000000000000000000000000000000000000000000000000035734                    3001029090000000000 
1040001300311Q 012026320803000117MARCOS SOARES DOS SANTOS                AV. PRESIDENTE VARGAS                   CENTRO         76300000CERES          GO0000000000000000                                                                       
1040001300312R 01000000000000000000000000000000000000000000000000210092018000000000000200                                                                                                                                                       
1040001300313P 0101298027300700000000000140000000000357351122035735          1009201800000000003118000000099N0509201821009201800000000000060000000000000000000000000000000000000000000000000000000035735                    3001029090000000000 
1040001300314Q 012018207345000186ODAIR JOSE SAVALAIO 41084080206         AV. PRESIDENTE VARGAS                   CENTRO         76300000CERES          GO0000000000000000                                                                       
1040001300315R 01000000000000000000000000000000000000000000000000210092018000000000000200                                                                                                                                                       
1040001300316P 0101298027300700000000000140000000000357361122035736          1009201800000000000099000000099N0509201821009201800000000000060000000000000000000000000000000000000000000000000000000035736                    3001029090000000000 
1040001300317Q 011000060001832328MARIANA DE OLIVEIRA CAMPOS              AV. PRESIDENTE VARGAS                   CENTRO         76300000CERES          GO0000000000000000                                                                       
1040001300318R 01000000000000000000000000000000000000000000000000210092018000000000000200                                                                                                                                                       
1040001300319P 0101298027300700000000000140000000000357371122035737          1009201800000000025194000000099N0509201821009201800000000000060000000000000000000000000000000000000000000000000000000035737                    3001029090000000000 
1040001300320Q 012021515839000132CLUBE AUTO PRIME (AC. ANTONIO BONIN DOS AV. PRESIDENTE VARGAS                   CENTRO         76300000CERES          GO0000000000000000                                                                       
1040001300321R 01000000000000000000000000000000000000000000000000210092018000000000000200                                                                                                                                                       
1040001300322P 0101298027300700000000000140000000000357381122035738          1009201800000000024737000000099N0509201821009201800000000000060000000000000000000000000000000000000000000000000000000035738                    3001029090000000000 
1040001300323Q 011000067147909372LEANDRO ROSA DE LIMA                    AV. PRESIDENTE VARGAS                   CENTRO         76300000CERES          GO0000000000000000                                                                       
1040001300324R 01000000000000000000000000000000000000000000000000210092018000000000000200                                                                                                                                                       
1040001300325P 0101298027300700000000000140000000000357391122035739          1009201800000000000099000000099N0509201821009201800000000000060000000000000000000000000000000000000000000000000000000035739                    3001029090000000000 
1040001300326Q 011000012455010708EVERTON ANTUNES DA PAZ                  AV. PRESIDENTE VARGAS                   CENTRO         76300000CERES          GO0000000000000000                                                                       
1040001300327R 01000000000000000000000000000000000000000000000000210092018000000000000200                                                                                                                                                       
1040001300328P 0101298027300700000000000140000000000357401122035740          1009201800000000000298000000099N0509201821009201800000000000060000000000000000000000000000000000000000000000000000000035740                    3001029090000000000 
1040001300329Q 011000004897591651DANILO PEREIRA FERNANDES                AV. PRESIDENTE VARGAS                   CENTRO         76300000CERES          GO0000000000000000                                                                       
1040001300330R 01000000000000000000000000000000000000000000000000210092018000000000000200                                                                                                                                                       
1040001300331P 0101298027300700000000000140000000000357411122035741          1009201800000000001584000000099N0509201821009201800000000000060000000000000000000000000000000000000000000000000000000035741                    3001029090000000000 
1040001300332Q 011000003518664344KESLEY MENDONCA CARVALHO                AV. PRESIDENTE VARGAS                   CENTRO         76300000CERES          GO0000000000000000                                                                       
1040001300333R 01000000000000000000000000000000000000000000000000210092018000000000000200                                                                                                                                                       
1040001300334P 0101298027300700000000000140000000000357421122035742          1009201800000000005304000000099N0509201821009201800000000000060000000000000000000000000000000000000000000000000000000035742                    3001029090000000000 
1040001300335Q 012019765963000104VINICIUS CASTRO E SILVA                 AV. PRESIDENTE VARGAS                   CENTRO         76300000CERES          GO0000000000000000                                                                       
1040001300336R 01000000000000000000000000000000000000000000000000210092018000000000000200                                                                                                                                                       
1040001300337P 0101298027300700000000000140000000000357431122035743          1009201800000000000099000000099N0509201821009201800000000000060000000000000000000000000000000000000000000000000000000035743                    3001029090000000000 
1040001300338Q 011000051059282372AURICELIO HOLANDA MOURA                 AV. PRESIDENTE VARGAS                   CENTRO         76300000CERES          GO0000000000000000                                                                       
1040001300339R 01000000000000000000000000000000000000000000000000210092018000000000000200                                                                                                                                                       
1040001300340P 0101298027300700000000000140000000000357441122035744          1009201800000000002020300000099N0509201821009201800000000000060000000000000000000000000000000000000000000000000000000035744                    3001029090000000000 
1040001300341Q 012011543951000123JMS CUNHA LOCACAO DE MAQUINAS E EQUIPAMEAV. PRESIDENTE VARGAS                   CENTRO         76300000CERES          GO0000000000000000                                                                       
1040001300342R 01000000000000000000000000000000000000000000000000210092018000000000000200                                                                                                                                                       
1040001300343P 0101298027300700000000000140000000000357451122035745          1009201800000000000495000000099N0509201821009201800000000000060000000000000000000000000000000000000000000000000000000035745                    3001029090000000000 
1040001300344Q 011000016381149353IVANILDO RAMOS MACHADO                  AV. PRESIDENTE VARGAS                   CENTRO         76300000CERES          GO0000000000000000                                                                       
1040001300345R 01000000000000000000000000000000000000000000000000210092018000000000000200                                                                                                                                                       
1040001300346P 0101298027300700000000000140000000000357461122035746          1009201800000000000198000000099N0509201821009201800000000000060000000000000000000000000000000000000000000000000000000035746                    3001029090000000000 
1040001300347Q 011000048595519315ALEX BRANDAO DE PAULA                   AV. PRESIDENTE VARGAS                   CENTRO         76300000CERES          GO0000000000000000                                                                       
1040001300348R 01000000000000000000000000000000000000000000000000210092018000000000000200                                                                                                                                                       
1040001300349P 0101298027300700000000000140000000000357481122035748          1009201800000000025445000000099N0509201821009201800000000000060000000000000000000000000000000000000000000000000000000035748                    3001029090000000000 
1040001300350Q 012025344785000140JOSE MAGNO FERREIRA DA SILVA            AV. PRESIDENTE VARGAS                   CENTRO         76300000CERES          GO0000000000000000                                                                       
1040001300351R 01000000000000000000000000000000000000000000000000210092018000000000000200                                                                                                                                                       
1040001300352P 0101298027300700000000000140000000000357491122035749          1009201800000000001386000000099N0509201821009201800000000000060000000000000000000000000000000000000000000000000000000035749                    3001029090000000000 
1040001300353Q 012015589293000161FRANCA PINTO & CIA LTDA-EPP             AV. PRESIDENTE VARGAS                   CENTRO         76300000CERES          GO0000000000000000                                                                       
1040001300354R 01000000000000000000000000000000000000000000000000210092018000000000000200                                                                                                                                                       
1040001300355P 0101298027300700000000000140000000000357501122035750          1009201800000000000495000000099N0509201821009201800000000000060000000000000000000000000000000000000000000000000000000035750                    3001029090000000000 
1040001300356Q 011000095798420272JOAO VIEIRA DE MEDEIROS NETO            AV. PRESIDENTE VARGAS                   CENTRO         76300000CERES          GO0000000000000000                                                                       
1040001300357R 01000000000000000000000000000000000000000000000000210092018000000000000200                                                                                                                                                       
1040001300358P 0101298027300700000000000140000000000357511122035751          1009201800000000000099000000099N0509201821009201800000000000060000000000000000000000000000000000000000000000000000000035751                    3001029090000000000 
1040001300359Q 011000027766148889GUSTAVO OLIVEIRA LEME                   AV. PRESIDENTE VARGAS                   CENTRO         76300000CERES          GO0000000000000000                                                                       
1040001300360R 01000000000000000000000000000000000000000000000000210092018000000000000200                                                                                                                                                       
1040001300361P 0101298027300700000000000140000000000357521122035752          1009201800000000000099000000099N0509201821009201800000000000060000000000000000000000000000000000000000000000000000000035752                    3001029090000000000 
1040001300362Q 011000002357346167LELSON AMARAL MARTINS                   AV. PRESIDENTE VARGAS                   CENTRO         76300000CERES          GO0000000000000000                                                                       
1040001300363R 01000000000000000000000000000000000000000000000000210092018000000000000200                                                                                                                                                       
1040001300364P 0101298027300700000000000140000000000357531122035753          1009201800000000000099000000099N0509201821009201800000000000060000000000000000000000000000000000000000000000000000000035753                    3001029090000000000 
1040001300365Q 011000050608282049FLAVIO HENRIQUE ASCARI                  AV. PRESIDENTE VARGAS                   CENTRO         76300000CERES          GO0000000000000000                                                                       
1040001300366R 01000000000000000000000000000000000000000000000000210092018000000000000200                                                                                                                                                       
1040001300367P 0101298027300700000000000140000000000357541122035754          1009201800000000001089000000099N0509201821009201800000000000060000000000000000000000000000000000000000000000000000000035754                    3001029090000000000 
1040001300368Q 011000008423716643TATIANA GARCIA DE MORAIS                AV. PRESIDENTE VARGAS                   CENTRO         76300000CERES          GO0000000000000000                                                                       
1040001300369R 01000000000000000000000000000000000000000000000000210092018000000000000200                                                                                                                                                       
1040001300370P 0101298027300700000000000140000000000357551122035755          1009201800000000000534000000099N0509201821009201800000000000060000000000000000000000000000000000000000000000000000000035755                    3001029090000000000 
1040001300371Q 012013955553000140KLEITON MOURA DA PAIXAO                 AV. PRESIDENTE VARGAS                   CENTRO         76300000CERES          GO0000000000000000                                                                       
1040001300372R 01000000000000000000000000000000000000000000000000210092018000000000000200                                                                                                                                                       
1040001300373P 0101298027300700000000000140000000000357561122035756          1009201800000000000495000000099N0509201821009201800000000000060000000000000000000000000000000000000000000000000000000035756                    3001029090000000000 
1040001300374Q 012042793844000187LOCNORTE LOCADORA DE EQUIPAMENTOS P/ CONAV. PRESIDENTE VARGAS                   CENTRO         76300000CERES          GO0000000000000000                                                                       
1040001300375R 01000000000000000000000000000000000000000000000000210092018000000000000200                                                                                                                                                       
1040001300376P 0101298027300700000000000140000000000357571122035757          1009201800000000000198000000099N0509201821009201800000000000060000000000000000000000000000000000000000000000000000000035757                    3001029090000000000 
1040001300377Q 011000061444510304FRANCISCO OMILSON BARBOSA DA SILVA      AV. PRESIDENTE VARGAS                   CENTRO         76300000CERES          GO0000000000000000                                                                       
1040001300378R 01000000000000000000000000000000000000000000000000210092018000000000000200                                                                                                                                                       
1040001300379P 0101298027300700000000000140000000000357581122035758          1009201800000000000099000000099N0509201821009201800000000000060000000000000000000000000000000000000000000000000000000035758                    3001029090000000000 
1040001300380Q 011000054781949668NILTON LEFUNDES DA SILVA                AV. PRESIDENTE VARGAS                   CENTRO         76300000CERES          GO0000000000000000                                                                       
1040001300381R 01000000000000000000000000000000000000000000000000210092018000000000000200                                                                                                                                                       
1040001300382P 0101298027300700000000000140000000000357591122035759          1009201800000000000891000000099N0509201821009201800000000000060000000000000000000000000000000000000000000000000000000035759                    3001029090000000000 
1040001300383Q 011000003870412305DIEGO ALMEIDA DE OLIVEIRA               AV. PRESIDENTE VARGAS                   CENTRO         76300000CERES          GO0000000000000000                                                                       
1040001300384R 01000000000000000000000000000000000000000000000000210092018000000000000200                                                                                                                                                       
1040001300385P 0101298027300700000000000140000000000357601122035760          1009201800000000000099000000099N0509201821009201800000000000060000000000000000000000000000000000000000000000000000000035760                    3001029090000000000 
1040001300386Q 011000001953016332JOSE ORLANDO                            AV. PRESIDENTE VARGAS                   CENTRO         76300000CERES          GO0000000000000000                                                                       
1040001300387R 01000000000000000000000000000000000000000000000000210092018000000000000200                                                                                                                                                       
1040001300388P 0101298027300700000000000140000000000357611122035761          1009201800000000001287000000099N0509201821009201800000000000060000000000000000000000000000000000000000000000000000000035761                    3001029090000000000 
1040001300389Q 012026097788000190JESSE RODRIGUES DE SOUSA 41194341845    AV. PRESIDENTE VARGAS                   CENTRO         76300000CERES          GO0000000000000000                                                                       
1040001300390R 01000000000000000000000000000000000000000000000000210092018000000000000200                                                                                                                                                       
1040001300391P 0101298027300700000000000140000000000357621122035762          1009201800000000005304000000099N0509201821009201800000000000060000000000000000000000000000000000000000000000000000000035762                    3001029090000000000 
1040001300392Q 011000007374853963WILLIAN AMARAL DE OLIVEIRA              AV. PRESIDENTE VARGAS                   CENTRO         76300000CERES          GO0000000000000000                                                                       
1040001300393R 01000000000000000000000000000000000000000000000000210092018000000000000200                                                                                                                                                       
1040001300394P 0101298027300700000000000140000000000357631122035763          1009201800000000000099000000099N0509201821009201800000000000060000000000000000000000000000000000000000000000000000000035763                    3001029090000000000 
1040001300395Q 011000075176882353ALEXSANDRO ANDRADE SILVA                AV. PRESIDENTE VARGAS                   CENTRO         76300000CERES          GO0000000000000000                                                                       
1040001300396R 01000000000000000000000000000000000000000000000000210092018000000000000200                                                                                                                                                       
1040001300397P 0101298027300700000000000140000000000357641122035764          1009201800000000000099000000099N0509201821009201800000000000060000000000000000000000000000000000000000000000000000000035764                    3001029090000000000 
1040001300398Q 011000071339493187ANTONIO DA COSTA AMANCIO                AV. PRESIDENTE VARGAS                   CENTRO         76300000CERES          GO0000000000000000                                                                       
1040001300399R 01000000000000000000000000000000000000000000000000210092018000000000000200                                                                                                                                                       
1040001300400P 0101298027300700000000000140000000000357651122035765          1009201800000000004580000000099N0509201821009201800000000000060000000000000000000000000000000000000000000000000000000035765                    3001029090000000000 
1040001300401Q 011000076140881234JOSE NILSON SILVA DOS SANTOS            AV. PRESIDENTE VARGAS                   CENTRO         76300000CERES          GO0000000000000000                                                                       
1040001300402R 01000000000000000000000000000000000000000000000000210092018000000000000200                                                                                                                                                       
1040001300403P 0101298027300700000000000140000000000357661122035766          1009201800000000002481000000099N0509201821009201800000000000060000000000000000000000000000000000000000000000000000000035766                    3001029090000000000 
1040001300404Q 011000064507734304ELTON DE SOUSA E SILVA                  AV. PRESIDENTE VARGAS                   CENTRO         76300000CERES          GO0000000000000000                                                                       
1040001300405R 01000000000000000000000000000000000000000000000000210092018000000000000200                                                                                                                                                       
1040001300406P 0101298027300700000000000140000000000357671122035767          1009201800000000000099000000099N0509201821009201800000000000060000000000000000000000000000000000000000000000000000000035767                    3001029090000000000 
1040001300407Q 011000058892176072LEANDRO MARQUES UFLACKER                AV. PRESIDENTE VARGAS                   CENTRO         76300000CERES          GO0000000000000000                                                                       
1040001300408R 01000000000000000000000000000000000000000000000000210092018000000000000200                                                                                                                                                       
1040001300409P 0101298027300700000000000140000000000357681122035768          1009201800000000000319000000099N0509201821009201800000000000060000000000000000000000000000000000000000000000000000000035768                    3001029090000000000 
1040001300410Q 011000033739261811JEFFERSON QUINTILIANO                   AV. PRESIDENTE VARGAS                   CENTRO         76300000CERES          GO0000000000000000                                                                       
1040001300411R 01000000000000000000000000000000000000000000000000210092018000000000000200                                                                                                                                                       
1040001300412P 0101298027300700000000000140000000000357691122035769          1009201800000000000198000000099N0509201821009201800000000000060000000000000000000000000000000000000000000000000000000035769                    3001029090000000000 
