10400000         2116559540001590000000000000000000001298027300700000000FEDERAL SISTEMAS              CAIXA ECONOMICA FEDERAL                 11005201811245100009805000000                    REMESSA-PRODUCAO                                 
10400011R0100030 20116559540001592730070000000000000001298027300700000000FEDERAL SISTEMAS                                                                                              000000981005201800000000                                 
1040001300001P 0101298027300700000000000140000000000300701122030070          1305201800000000035116000000099N0805201821305201800000000000060000000000000000000000000000000000000000000000000000000030070                    3001090090000000000 
1040001300002Q 012020771562000146LOCALIZA GOIAS LTDA - ME                Q3 LT115 SALA 302                       SETOR COIMBRA  74535270GOIANIA        GO0000000000000000                                                                       
1040001300003R 01000000000000000000000000000000000000000000000000213052018000000000000200                                                                                                                                                       
1040001300004P 0101298027300700000000000140000000000300711122030071          1005201800000000003900000000099N0805201821005201800000000000060000000000000000000000000000000000000000000000000000000030071                    3001090090000000000 
1040001300005Q 012011963712000122BJ SAT TENCOLOGIA EM RESTREAMENTO       RUA DOS FRANCISCANOS N 60               BOM AVELAR     41315000ABAIRA         BA0000000000000000                                                                       
1040001300006R 01000000000000000000000000000000000000000000000000210052018000000000000200                                                                                                                                                       
1040001300007P 0101298027300700000000000140000000000300721122030072          1005201800000000017330000000099N0805201821005201800000000000060000000000000000000000000000000000000000000000000000000030072                    3001090090000000000 
1040001300008Q 012011088454000182FERDINAND BATISTA DE ARAUJO - ME        QUADRA 265 CASA 06 N06                  DIRCEU ARCO II 64078290TERESINA       PI0000000000000000                                                                       
1040001300009R 01000000000000000000000000000000000000000000000000210052018000000000000200                                                                                                                                                       
1040001300010P 0101298027300700000000000140000000000300731122030073          1005201800000000001794000000099N0805201821005201800000000000060000000000000000000000000000000000000000000000000000000030073                    3001090090000000000 
1040001300011Q 012001640145000110ONE CITY GPS EQUIP ELETRONICOS LTDA ME  RUA JAPURA NUMERO 3284                  IPIRANGA       14060620ADAMANTINA     SP0000000000000000                                                                       
1040001300012R 01000000000000000000000000000000000000000000000000210052018000000000000200                                                                                                                                                       
1040001300013P 0101298027300700000000000140000000000300741122030074          1005201800000000013022400000099N0805201821005201800000000000060000000000000000000000000000000000000000000000000000000030074                    3001090090000000000 
1040001300014Q 012004626774000183M F LIMA CARNEIRO E CIA LTDA - EPP      R COELHO DE REZENDE - ZONA NORTE        AEROPORTO      64003695TERESINA       PI0000000000000000                                                                       
1040001300015R 01000000000000000000000000000000000000000000000000210052018000000000000200                                                                                                                                                       
1040001300016P 0101298027300700000000000140000000000300751122030075          1005201800000000002290000000099N0805201821005201800000000000060000000000000000000000000000000000000000000000000000000030075                    3001090090000000000 
1040001300017Q 012010656796000199NILSON JOSE DE OLIVEIRA ME              RUA MONTEIRO DE BARROS QD 09 LT 14      CENTRO         76395000ABADIA DE GOIASGO0000000000000000                                                                       
1040001300018R 01000000000000000000000000000000000000000000000000210052018000000000000200                                                                                                                                                       
1040001300019P 0101298027300700000000000140000000000300761122030076          1005201800000000006000000000099N0805201821005201800000000000060000000000000000000000000000000000000000000000000000000030076                    3001090090000000000 
1040001300020Q 011000044705190300ROGERIO H. MAZUAD                       RUA LEMOS CUNHA                         ININGA         64049600TERESINA       PI0000000000000000                                                                       
1040001300021R 01000000000000000000000000000000000000000000000000210052018000000000000200                                                                                                                                                       
1040001300022P 0101298027300700000000000140000000000300771122030077          1005201800000000016579000000099N0805201821005201800000000000060000000000000000000000000000000000000000000000000000000030077                    3001090090000000000 
1040001300023Q 012018765152000140CAMILA REGO DA SILVA ARAGAO ME          RUA JOAO MARTINS DO REGO                SANTA ISABEL   64053120TERESINA       PI0000000000000000                                                                       
1040001300024R 01000000000000000000000000000000000000000000000000210052018000000000000200                                                                                                                                                       
1040001300025P 0101298027300700000000000140000000000300781122030078          1005201800000000004040000000099N0805201821005201800000000000060000000000000000000000000000000000000000000000000000000030078                    3001090090000000000 
1040001300026Q 011000001488919348GERSON GAMA LEAL                        RUA AFONSO PENA                         LORIVAL PARENT 64023300ACAUA          PI0000000000000000                                                                       
1040001300027R 01000000000000000000000000000000000000000000000000210052018000000000000200                                                                                                                                                       
1040001300028P 0101298027300700000000000140000000000300791122030079          1005201800000000009790000000099N0805201821005201800000000000060000000000000000000000000000000000000000000000000000000030079                    3001090090000000000 
1040001300029Q 012019677627000100ELITE SEGURANCA ELETR E MONITORAMENTO   R EMBAUBA N 40                          CHACARA DO SOL 68515000PARAUAPEBAS    PA0000000000000000                                                                       
1040001300030R 01000000000000000000000000000000000000000000000000210052018000000000000200                                                                                                                                                       
1040001300031P 0101298027300700000000000140000000000300801122030080          1005201800000000012403000000099N0805201821005201800000000000060000000000000000000000000000000000000000000000000000000030080                    3001090090000000000 
1040001300032Q 012022379734000166J DE A F DA SILVA - ME                  R COELHO DE RESENDE N 2921 ZONA NORTE   AEROPORTO      64003695ACAUA          PI0000000000000000                                                                       
1040001300033R 01000000000000000000000000000000000000000000000000210052018000000000000200                                                                                                                                                       
1040001300034P 0101298027300700000000000140000000000300821122030082          1005201800000000002418000000099N0805201821005201800000000000060000000000000000000000000000000000000000000000000000000030082                    3001090090000000000 
1040001300035Q 012017055560000146ALVES DA SILVA E GAMA LEAL LTDA - ME    RUA MACHADO DE ASSIS N 1113             LOURIVAL PARENT64022128ACAUA          PI0000000000000000                                                                       
1040001300036R 01000000000000000000000000000000000000000000000000210052018000000000000200                                                                                                                                                       
1040001300037P 0101298027300700000000000140000000000300831122030083          1005201800000000014913000000099N0805201821005201800000000000060000000000000000000000000000000000000000000000000000000030083                    3001090090000000000 
1040001300038Q 012018707079000150SYSROTA EIRELI - ME                     AVENIDA PRESIDENTE JOAO GOULART         RESIDENCIAL MAR74968890APARECIDA DE GOGO0000000000000000                                                                       
1040001300039R 01000000000000000000000000000000000000000000000000210052018000000000000200                                                                                                                                                       
1040001300040P 0101298027300700000000000140000000000300841122030084          1005201800000000000600000000099N0805201821005201800000000000060000000000000000000000000000000000000000000000000000000030084                    3001090090000000000 
1040001300041Q 011000003712586183EDUARDO SILVA FREITAS                   RUA NITEROI QD 138 LT 13                PARQUE AMAZONIA74843160GOIANIA        GO0000000000000000                                                                       
1040001300042R 01000000000000000000000000000000000000000000000000210052018000000000000200                                                                                                                                                       
1040001300043P 0101298027300700000000000140000000000300851122030085          1005201800000000002322000000099N0805201821005201800000000000060000000000000000000000000000000000000000000000000000000030085                    3001090090000000000 
1040001300044Q 012023606665000149M2 DO BRASIL MONITORAMENTO ONLINE EIRELIRUA JOSE CLEMENTE 94                    CENTRO         24020105NITEROI        RJ0000000000000000                                                                       
1040001300045R 01000000000000000000000000000000000000000000000000210052018000000000000200                                                                                                                                                       
1040001300046P 0101298027300700000000000140000000000300861122030086          1005201800000000008944000000099N0805201821005201800000000000060000000000000000000000000000000000000000000000000000000030086                    3001090090000000000 
1040001300047Q 012000097489000161LA VIDAL E CIA LTDA - EPP               AV 10 N°80 CONJUNTO MIRAGE             CONJUNTO MIRAGE75063330ANAPOLIS       GO0000000000000000                                                                       
1040001300048R 01000000000000000000000000000000000000000000000000210052018000000000000200                                                                                                                                                       
1040001300049P 0101298027300700000000000140000000000300871122030087          1005201800000000000499000000099N0805201821005201800000000000060000000000000000000000000000000000000000000000000000000030087                    3001090090000000000 
1040001300050Q 012021249516000144TRUCK SERVICE RIALMA LTDA - ME          AV. BERNARDO SAYAO                      CENTRO         76310000RIALMA         GO0000000000000000                                                                       
1040001300051R 01000000000000000000000000000000000000000000000000210052018000000000000200                                                                                                                                                       
1040001300052P 0101298027300700000000000140000000000300891122030089          1005201800000000000198000000099N0805201821005201800000000000060000000000000000000000000000000000000000000000000000000030089                    3001090090000000000 
1040001300053Q 011000031179567862FABIO FRANCO BONANATI                   RUA  MONTEIRO JUNIOR                    JARDIM JAQUEIRA11674385SAO PAULO      SP0000000000000000                                                                       
1040001300054R 01000000000000000000000000000000000000000000000000210052018000000000000200                                                                                                                                                       
1040001300055P 0101298027300700000000000140000000000300901122030090          1005201800000000002704000000099N0805201821005201800000000000060000000000000000000000000000000000000000000000000000000030090                    3001090090000000000 
1040001300056Q 011000072435968272GEORGE WILLTON SANTOS PEREIRA           RUA RIO MARAUJA, CJ JOAO BOSCO II Nº 11SAO JOSE 1     69085620MANAUS         AM0000000000000000                                                                       
1040001300057R 01000000000000000000000000000000000000000000000000210052018000000000000200                                                                                                                                                       
1040001300058P 0101298027300700000000000140000000000300911122030091          1005201800000000007899000000099N0805201821005201800000000000060000000000000000000000000000000000000000000000000000000030091                    3001090090000000000 
1040001300059Q 011000011646215729DOMINGOS RONIVALDO DA SILVA RUFINO      RUA CUBATAO N°86 CAMPOS DOS GOYATACAZES               28110000RIO DE JANEIRO RJ0000000000000000                                                                       
1040001300060R 01000000000000000000000000000000000000000000000000210052018000000000000200                                                                                                                                                       
1040001300061P 0101298027300700000000000140000000000300921122030092          1005201800000000004134000000099N0805201821005201800000000000060000000000000000000000000000000000000000000000000000000030092                    3001090090000000000 
1040001300062Q 011000050477285520ARNALDO BATISTA                         CONJUNTO CAJAZEIRAS X,SETOR 02, CAMINHO                41330000SALVADOR       BA0000000000000000                                                                       
1040001300063R 01000000000000000000000000000000000000000000000000210052018000000000000200                                                                                                                                                       
1040001300064P 0101298027300700000000000140000000000300931122030093          1005201800000000000198000000099N0805201821005201800000000000060000000000000000000000000000000000000000000000000000000030093                    3001090090000000000 
1040001300065Q 011000010936180781ANDRE LUIZ OLIVEIRA ATAIDE              RUA LEONCIO                             VILA EMIL      26551560MESQUITA       RJ0000000000000000                                                                       
1040001300066R 01000000000000000000000000000000000000000000000000210052018000000000000200                                                                                                                                                       
1040001300067P 0101298027300700000000000140000000000300941122030094          1005201800000000000517000000099N0805201821005201800000000000060000000000000000000000000000000000000000000000000000000030094                    3001090090000000000 
1040001300068Q 011000007767300960AUTOBUSKA RASTREADORES E BLOQUEADORES VERUA ILDEFONSO MUNHOZ DA ROCHA                          83206090PARANAGUA      PR0000000000000000                                                                       
1040001300069R 01000000000000000000000000000000000000000000000000210052018000000000000200                                                                                                                                                       
1040001300070P 0101298027300700000000000140000000000300951122030095          1005201800000000000297000000099N0805201821005201800000000000060000000000000000000000000000000000000000000000000000000030095                    3001090090000000000 
1040001300071Q 011000004012365525GILMAR SILVA SAMPAIO                    RUA WENCESLAU BRAZ - SN - SAO JOAO 102                 46880000ITABERABA      BA0000000000000000                                                                       
1040001300072R 01000000000000000000000000000000000000000000000000210052018000000000000200                                                                                                                                                       
1040001300073P 0101298027300700000000000140000000000300961122030096          1005201800000000000495000000099N0805201821005201800000000000060000000000000000000000000000000000000000000000000000000030096                    3001090090000000000 
1040001300074Q 011000008105070642HARLEY TEIXEIRA DE FREITAS              DOMINGOS ALCANTARA - 176                MORADA DO PARQU39401362MORADA NOVA DE MG0000000000000000                                                                       
1040001300075R 01000000000000000000000000000000000000000000000000210052018000000000000200                                                                                                                                                       
1040001300076P 0101298027300700000000000140000000000300971122030097          1005201800000000000220000000099N0805201821005201800000000000060000000000000000000000000000000000000000000000000000000030097                    3001090090000000000 
1040001300077Q 011000000342887327JULIELSON NUNES                         RUA 55 QUADRA 61                        MAIOBAO        65137000SAO LUIS       MA0000000000000000                                                                       
1040001300078R 01000000000000000000000000000000000000000000000000210052018000000000000200                                                                                                                                                       
1040001300079P 0101298027300700000000000140000000000300981122030098          1005201800000000011190000000099N0805201821005201800000000000060000000000000000000000000000000000000000000000000000000030098                    3001090090000000000 
1040001300080Q 011000007032342779MARCELO SOARES                          RUA SANTOS LIMA                         SAO CRISTOVAO  20940210RIO DE JANEIRO RJ0000000000000000                                                                       
1040001300081R 01000000000000000000000000000000000000000000000000210052018000000000000200                                                                                                                                                       
1040001300082P 0101298027300700000000000140000000000301001122030100          1005201800000000000908400000099N0805201821005201800000000000060000000000000000000000000000000000000000000000000000000030100                    3001090090000000000 
1040001300083Q 012015598500000144WR COMERCIO E SERVICOS LTDA - EPP       AV. BENJAMIM CONSTANT                   SAO VICENTE    69303467BOA VISTA      RR0000000000000000                                                                       
1040001300084R 01000000000000000000000000000000000000000000000000210052018000000000000200                                                                                                                                                       
1040001300085P 0101298027300700000000000140000000000301011122030101          1005201800000000000099000000099N0805201821005201800000000000060000000000000000000000000000000000000000000000000000000030101                    3001090090000000000 
1040001300086Q 011000029421490860TRAVEL RASTREADOR                       RUA JOSE MORENO                         CONJUNTO HABITA13067655CAMPINAS       SP0000000000000000                                                                       
1040001300087R 01000000000000000000000000000000000000000000000000210052018000000000000200                                                                                                                                                       
1040001300088P 0101298027300700000000000140000000000301021122030102          1005201800000000006448000000099N0805201821005201800000000000060000000000000000000000000000000000000000000000000000000030102                    3001090090000000000 
1040001300089Q 011000005460942608FLAVIO MUNIZ DE ALMEIDA                 RUA JOAO JORGE DE SA                                   37810000GUARANESIA     MG0000000000000000                                                                       
1040001300090R 01000000000000000000000000000000000000000000000000210052018000000000000200                                                                                                                                                       
1040001300091P 0101298027300700000000000140000000000301031122030103          1005201800000000010050000000099N0805201821005201800000000000060000000000000000000000000000000000000000000000000000000030103                    3001090090000000000 
1040001300092Q 012021233248000172GABRIEL ANDRADE BORGES                  AVENIDA PROFESSORA IOLANDA RIBEIRO NOVAIJARDIM DO EDEN 14402065FRANCA         SP0000000000000000                                                                       
1040001300093R 01000000000000000000000000000000000000000000000000210052018000000000000200                                                                                                                                                       
1040001300094P 0101298027300700000000000140000000000301041122030104          1005201800000000000792000000099N0805201821005201800000000000060000000000000000000000000000000000000000000000000000000030104                    3001090090000000000 
1040001300095Q 011000005221241781WENDEL MARMO                            RUA BARONESA DE GOITACAZES 36 DE 36 BARR               24111070NITEROI        RJ0000000000000000                                                                       
1040001300096R 01000000000000000000000000000000000000000000000000210052018000000000000200                                                                                                                                                       
1040001300097P 0101298027300700000000000140000000000301051122030105          1005201800000000001386000000099N0805201821005201800000000000060000000000000000000000000000000000000000000000000000000030105                    3001090090000000000 
1040001300098Q 012024598464000100E S NASCIMENTO SISTEMAS DE MONITORAMENTORUA GUSTAVO RATTMAN, N°741 - AP32 ANDARBACACHERI      82520630CURITIBA       PR0000000000000000                                                                       
1040001300099R 01000000000000000000000000000000000000000000000000210052018000000000000200                                                                                                                                                       
1040001300100P 0101298027300700000000000140000000000301061122030106          1005201800000000003510000000099N0805201821005201800000000000060000000000000000000000000000000000000000000000000000000030106                    3001090090000000000 
1040001300101Q 011000030931320534LUIZ ANTONIO FRANCA DE CARVALHO         RUA PEDRO LOPES                         PRAIA GRANDE   40725110SALVADOR       BA0000000000000000                                                                       
1040001300102R 01000000000000000000000000000000000000000000000000210052018000000000000200                                                                                                                                                       
1040001300103P 0101298027300700000000000140000000000301071122030107          1005201800000000001089000000099N0805201821005201800000000000060000000000000000000000000000000000000000000000000000000030107                    3001090090000000000 
1040001300104Q 011000060768932220CARLOS EDUARDO DE OLIVEIRA MIRANDA      PASSAGEM COIMBRA 22 BLOCO 4 APTO 102    COQUEIRO       67115130ANANINDEUA     PA0000000000000000                                                                       
1040001300105R 01000000000000000000000000000000000000000000000000210052018000000000000200                                                                                                                                                       
1040001300106P 0101298027300700000000000140000000000301081122030108          1005201800000000009665000000099N0805201821005201800000000000060000000000000000000000000000000000000000000000000000000030108                    3001090090000000000 
1040001300107Q 011000015348812803MARCIO ALVES DOS SANTOS / FABIANA       .                                       SAO PAULO      02430971SAO PAULO      SP0000000000000000                                                                       
1040001300108R 01000000000000000000000000000000000000000000000000210052018000000000000200                                                                                                                                                       
1040001300109P 0101298027300700000000000140000000000301091122030109          1005201800000000007183400000099N0805201821005201800000000000060000000000000000000000000000000000000000000000000000000030109                    3001090090000000000 
1040001300110Q 011000073981362268CHARLES LOPES                           ALAMEDA 34 N.31 AEROPORTO VELHO CONJ SAOAEROPORTO VELHO68010170SANTAREM       PA0000000000000000                                                                       
1040001300111R 01000000000000000000000000000000000000000000000000210052018000000000000200                                                                                                                                                       
1040001300112P 0101298027300700000000000140000000000301121122030112          1005201800000000035255000000099N0805201821005201800000000000060000000000000000000000000000000000000000000000000000000030112                    3001090090000000000 
1040001300113Q 011000065973232204CARLOS DEANE LIMA DE SOUZA              RUA DONA BEIJA                          BAIRRO DA PAZ  69048300MANAUS         AM0000000000000000                                                                       
1040001300114R 01000000000000000000000000000000000000000000000000210052018000000000000200                                                                                                                                                       
1040001300115P 0101298027300700000000000140000000000301131122030113          1005201800000000000099000000099N0805201821005201800000000000060000000000000000000000000000000000000000000000000000000030113                    3001090090000000000 
1040001300116Q 011000008577593452ANTONIO CARLOS                          SAO ROQUE                               SANTO ANDRE    09051310SAO PAULO      SP0000000000000000                                                                       
1040001300117R 01000000000000000000000000000000000000000000000000210052018000000000000200                                                                                                                                                       
1040001300118P 0101298027300700000000000140000000000301151122030115          1005201800000000000693000000099N0805201821005201800000000000060000000000000000000000000000000000000000000000000000000030115                    3001090090000000000 
1040001300119Q 011000008398525762VICTOR FERNANDES PAES                   DOUTOR LUIZ PALMIER                     BARRETO        24110310NITEROI        RJ0000000000000000                                                                       
1040001300120R 01000000000000000000000000000000000000000000000000210052018000000000000200                                                                                                                                                       
1040001300121P 0101298027300700000000000140000000000301171122030117          1005201800000000029427000000099N0805201821005201800000000000060000000000000000000000000000000000000000000000000000000030117                    3001090090000000000 
1040001300122Q 011000060005553342JOSE AIRTON DE SOUSA ALMEIDA            RUA 14A N°35 INDUSTRIAL                INDUSTRIAL     61925300MARACANAU      CE0000000000000000                                                                       
1040001300123R 01000000000000000000000000000000000000000000000000210052018000000000000200                                                                                                                                                       
1040001300124P 0101298027300700000000000140000000000301191122030119          1005201800000000001485000000099N0805201821005201800000000000060000000000000000000000000000000000000000000000000000000030119                    3001090090000000000 
1040001300125Q 011000011483301788CAIO CARDOSO                            RUA MERCURIO                            PAVUNA         21532470RIO DE JANEIRO RJ0000000000000000                                                                       
1040001300126R 01000000000000000000000000000000000000000000000000210052018000000000000200                                                                                                                                                       
1040001300127P 0101298027300700000000000140000000000301211122030121          1005201800000000000297000000099N0805201821005201800000000000060000000000000000000000000000000000000000000000000000000030121                    3001090090000000000 
1040001300128Q 011000087630451334EVERARDO GOMES DE ARAUJO                RUA AFONSO PENA                         LOURIVAL PARENT64023300TERESINA       PI0000000000000000                                                                       
1040001300129R 01000000000000000000000000000000000000000000000000210052018000000000000200                                                                                                                                                       
1040001300130P 0101298027300700000000000140000000000301221122030122          1005201800000000003510000000099N0805201821005201800000000000060000000000000000000000000000000000000000000000000000000030122                    3001090090000000000 
1040001300131Q 011000008479656786FERNANDO JOSE SIQUEIRA DE MAGALHAES BASTRUA HENRIQUE TOUQUIER                   JARDIM CATARINA24716420SAO GONCALO    RJ0000000000000000                                                                       
1040001300132R 01000000000000000000000000000000000000000000000000210052018000000000000200                                                                                                                                                       
1040001300133P 0101298027300700000000000140000000000301231122030123          1005201800000000000099000000099N0805201821005201800000000000060000000000000000000000000000000000000000000000000000000030123                    3001090090000000000 
1040001300134Q 011000004267859914DOUGLAS BORGES                          CAIXA POSTAL 86. CAIXA POSTAL 86 86                    76590000SAO MIGUEL DO AGO0000000000000000                                                                       
1040001300135R 01000000000000000000000000000000000000000000000000210052018000000000000200                                                                                                                                                       
1040001300136P 0101298027300700000000000140000000000301241122030124          1005201800000000003978000000099N0805201821005201800000000000060000000000000000000000000000000000000000000000000000000030124                    3001090090000000000 
1040001300137Q 012025167634000164RASTRO RS SERVICOS DE MONITORAMENTO EIREAV. EDGAR PIRES DE CASTRO               ABERTA DOS MORR91788130PORTO ALEGRE   RS0000000000000000                                                                       
1040001300138R 01000000000000000000000000000000000000000000000000210052018000000000000200                                                                                                                                                       
1040001300139P 0101298027300700000000000140000000000301251122030125          1005201800000000001386000000099N0805201821005201800000000000060000000000000000000000000000000000000000000000000000000030125                    3001090090000000000 
1040001300140Q 011000004601350662FRANKLIN LIMA                           RUA PARAIBA                             CENTRO         37701022POCOS DE CALDASMG0000000000000000                                                                       
1040001300141R 01000000000000000000000000000000000000000000000000210052018000000000000200                                                                                                                                                       
1040001300142P 0101298027300700000000000140000000000301261122030126          1005201800000000001950000000099N0805201821005201800000000000060000000000000000000000000000000000000000000000000000000030126                    3001090090000000000 
1040001300143Q 011000057194270072EBER BELEM                              RUA ANTONIO DOS ANJOS                   CENTRO         96020700PELOTAS        RS0000000000000000                                                                       
1040001300144R 01000000000000000000000000000000000000000000000000210052018000000000000200                                                                                                                                                       
1040001300145P 0101298027300700000000000140000000000301271122030127          1005201800000000018600000000099N0805201821005201800000000000060000000000000000000000000000000000000000000000000000000030127                    3001090090000000000 
1040001300146Q 011000003908501369PEDRO HENRIQUE BESSA GURGEL             RUA CORONEL NUNES DE MELO,              RODOLFO TEOFILO60430270FORTALEZA      CE0000000000000000                                                                       
1040001300147R 01000000000000000000000000000000000000000000000000210052018000000000000200                                                                                                                                                       
1040001300148P 0101298027300700000000000140000000000301281122030128          1005201800000000008764000000099N0805201821005201800000000000060000000000000000000000000000000000000000000000000000000030128                    3001090090000000000 
1040001300149Q 011000003434917454FABIO MENDONCA FERREIRA                 RUA SEBASTIAO INTERAMINENSE             JARDIM OCEANIA 58037770JOAO PESSOA    PB0000000000000000                                                                       
1040001300150R 01000000000000000000000000000000000000000000000000210052018000000000000200                                                                                                                                                       
1040001300151P 0101298027300700000000000140000000000301291122030129          1005201800000000002531000000099N0805201821005201800000000000060000000000000000000000000000000000000000000000000000000030129                    3001090090000000000 
1040001300152Q 011000000912863285LEONARDO ROCHA DA SILVA                 RUA SAO FRANCISCO                       PARQUE ELITE   68638000ABAETETUBA     PA0000000000000000                                                                       
1040001300153R 01000000000000000000000000000000000000000000000000210052018000000000000200                                                                                                                                                       
1040001300154P 0101298027300700000000000140000000000301301122030130          1005201800000000002340000000099N0805201821005201800000000000060000000000000000000000000000000000000000000000000000000030130                    3001090090000000000 
1040001300155Q 011000093293259715WILSON MARTINS CARREIRA                 RUA ARACATI                             RAMOS          21060140RIO DE JANEIRO RJ0000000000000000                                                                       
1040001300156R 01000000000000000000000000000000000000000000000000210052018000000000000200                                                                                                                                                       
1040001300157P 0101298027300700000000000140000000000301311122030131          1005201800000000000198000000099N0805201821005201800000000000060000000000000000000000000000000000000000000000000000000030131                    3001090090000000000 
1040001300158Q 011000003700881746LAZARO TUBARAO                          RUA RAMOS DE LIMA                       AMENDOEIRA     24730120SAO GONCALO    RJ0000000000000000                                                                       
1040001300159R 01000000000000000000000000000000000000000000000000210052018000000000000200                                                                                                                                                       
1040001300160P 0101298027300700000000000140000000000301321122030132          1005201800000000000437000000099N0805201821005201800000000000060000000000000000000000000000000000000000000000000000000030132                    3001090090000000000 
1040001300161Q 011000003765813443JOSE ADRIANO LINO DE LIMA (CASA DA CONSTRUA PIRAJU                              LAGOA AZUL     59135730NATAL          RN0000000000000000                                                                       
1040001300162R 01000000000000000000000000000000000000000000000000210052018000000000000200                                                                                                                                                       
1040001300163P 0101298027300700000000000140000000000301331122030133          1005201800000000000198000000099N0805201821005201800000000000060000000000000000000000000000000000000000000000000000000030133                    3001090090000000000 
1040001300164Q 012015290483000183ICARO SIMAS                             RUA A                                   SAPETIBA       23545003RIO DE JANEIRO RJ0000000000000000                                                                       
1040001300165R 01000000000000000000000000000000000000000000000000210052018000000000000200                                                                                                                                                       
1040001300166P 0101298027300700000000000140000000000301341122030134          1005201800000000000198000000099N0805201821005201800000000000060000000000000000000000000000000000000000000000000000000030134                    3001090090000000000 
1040001300167Q 011000028187156104LUZIA CONCEICAO ALVES                   RUA DOS TUCANOS,QD.145,LT.04 SANTA GENOVSANTA GENOVEVA 74672750GOIANIA        GO0000000000000000                                                                       
1040001300168R 01000000000000000000000000000000000000000000000000210052018000000000000200                                                                                                                                                       
1040001300169P 0101298027300700000000000140000000000301351122030135          1005201800000000001386000000099N0805201821005201800000000000060000000000000000000000000000000000000000000000000000000030135                    3001090090000000000 
1040001300170Q 011000047403705300JAIRO ROCHA                             AV.ZEQUINHA FREIRE N°302 CDM.DELTA DO PSANTA ISABEL   64053400TERESINA       PI0000000000000000                                                                       
1040001300171R 01000000000000000000000000000000000000000000000000210052018000000000000200                                                                                                                                                       
1040001300172P 0101298027300700000000000140000000000301371122030137          1005201800000000023370000000099N0805201821005201800000000000060000000000000000000000000000000000000000000000000000000030137                    3001090090000000000 
1040001300173Q 012015686018000166SRS TECNOLOGIA E SEGURANCA-SAMUEL       RUA SIMOES FILHO,BAIRRO - PRACA KENNEDY PRACA KENNEDY  48020540ALAGOINHAS     BA0000000000000000                                                                       
1040001300174R 01000000000000000000000000000000000000000000000000210052018000000000000200                                                                                                                                                       
1040001300175P 0101298027300700000000000140000000000301391122030139          1005201800000000000693000000099N0805201821005201800000000000060000000000000000000000000000000000000000000000000000000030139                    3001090090000000000 
1040001300176Q 011000009533034700HIGO BRAGA FONSECA E SILVA              RUA CLAUDINO PINHEIRO N°04             SENADOR CAMARA 21832050RIO DE JANEIRO RJ0000000000000000                                                                       
1040001300177R 01000000000000000000000000000000000000000000000000210052018000000000000200                                                                                                                                                       
1040001300178P 0101298027300700000000000140000000000301401122030140          1005201800000000000198000000099N0805201821005201800000000000060000000000000000000000000000000000000000000000000000000030140                    3001090090000000000 
1040001300179Q 011000004200874199JEFFERSON CHAVES DA SILVA               RUA AGUAPE , 205,                       JOQUEI CLUBE   60510077FORTALEZA      CE0000000000000000                                                                       
1040001300180R 01000000000000000000000000000000000000000000000000210052018000000000000200                                                                                                                                                       
1040001300181P 0101298027300700000000000140000000000301411122030141          1005201800000000028272000000099N0805201821005201800000000000060000000000000000000000000000000000000000000000000000000030141                    3001090090000000000 
1040001300182Q 012022790326000100ULTRA SOLUCOES EM SERVICOS DA TECNOLOGIAAV. TORQUATRO TAPAJOS,                  TERRA NOVA     69093415MANAUS         AM0000000000000000                                                                       
1040001300183R 01000000000000000000000000000000000000000000000000210052018000000000000200                                                                                                                                                       
1040001300184P 0101298027300700000000000140000000000301421122030142          1005201800000000007800000000099N0805201821005201800000000000060000000000000000000000000000000000000000000000000000000030142                    3001090090000000000 
1040001300185Q 011000084430133972MICHELY LIMA                            RUA LOURENCO GRABOWSKI                  THOMAZ COELHO  83707180ARAUCARIA      PR0000000000000000                                                                       
1040001300186R 01000000000000000000000000000000000000000000000000210052018000000000000200                                                                                                                                                       
1040001300187P 0101298027300700000000000140000000000301441122030144          1005201800000000000198000000099N0805201821005201800000000000060000000000000000000000000000000000000000000000000000000030144                    3001090090000000000 
1040001300188Q 011000056052995300EDMAR OLIVEIRA GUEDES  JUNIOR           RUA MARCOS MACEDO N° 1460 AP 2001 TORREALDEOTA        60150190FORTALEZA      CE0000000000000000                                                                       
1040001300189R 01000000000000000000000000000000000000000000000000210052018000000000000200                                                                                                                                                       
1040001300190P 0101298027300700000000000140000000000301451122030145          1005201800000000000099000000099N0805201821005201800000000000060000000000000000000000000000000000000000000000000000000030145                    3001090090000000000 
1040001300191Q 011000002523867362FRANCIVALDO FEITOSA                     POSTA RESTANTE N°1407,RENASCENCA       RENASCENCA     64001970TERESINA       PI0000000000000000                                                                       
1040001300192R 01000000000000000000000000000000000000000000000000210052018000000000000200                                                                                                                                                       
1040001300193P 0101298027300700000000000140000000000301461122030146          1005201800000000002866500000099N0805201821005201800000000000060000000000000000000000000000000000000000000000000000000030146                    3001090090000000000 
1040001300194Q 011000026355703888ENEAS GIL MARQUES                       AVENIDA AEROSTATO,                      AEROPORTO      14783109BARRETOS       SP0000000000000000                                                                       
1040001300195R 01000000000000000000000000000000000000000000000000210052018000000000000200                                                                                                                                                       
1040001300196P 0101298027300700000000000140000000000301471122030147          1005201800000000001287000000099N0805201821005201800000000000060000000000000000000000000000000000000000000000000000000030147                    3001090090000000000 
1040001300197Q 011000042308542004GREGORIO VILAS BOAS                     RUA DELFINO RIET N°96,SANTO ANTONIO    SANTO ANTONIO  90660120PORTO ALEGRE   RS0000000000000000                                                                       
1040001300198R 01000000000000000000000000000000000000000000000000210052018000000000000200                                                                                                                                                       
1040001300199P 0101298027300700000000000140000000000301481122030148          1005201800000000000792000000099N0805201821005201800000000000060000000000000000000000000000000000000000000000000000000030148                    3001090090000000000 
1040001300200Q 012041454554000146FRANCISCO RICARDO MONTEIRO - ME         RUA BARROS CARVALHO N°2050 SIQUEIRA    SIQUEIRA       60732350FORTALEZA      CE0000000000000000                                                                       
1040001300201R 01000000000000000000000000000000000000000000000000210052018000000000000200                                                                                                                                                       
1040001300202P 0101298027300700000000000140000000000301491122030149          1005201800000000000396000000099N0805201821005201800000000000060000000000000000000000000000000000000000000000000000000030149                    3001090090000000000 
1040001300203Q 011000079050859291RODRIGO SILVA SOUSA                     CJ EDILSON ABREU                        SAGRADA FAMILIA68790000SANTA ISABEL DOPA0000000000000000                                                                       
1040001300204R 01000000000000000000000000000000000000000000000000210052018000000000000200                                                                                                                                                       
1040001300205P 0101298027300700000000000140000000000301501122030150          1005201800000000000099000000099N0805201821005201800000000000060000000000000000000000000000000000000000000000000000000030150                    3001090090000000000 
1040001300206Q 011000083833706368ALEXSANDRO JOSE FELIX NOGUEIRA          RUA GREGORIO DE FRANCA                  CAJAZEIRAS     60864400FORTALEZA      CE0000000000000000                                                                       
1040001300207R 01000000000000000000000000000000000000000000000000210052018000000000000200                                                                                                                                                       
1040001300208P 0101298027300700000000000140000000000301511122030151          1005201800000000000670700000099N0805201821005201800000000000060000000000000000000000000000000000000000000000000000000030151                    3001090090000000000 
1040001300209Q 011000003551174601FERNANDO FERNANDES FERREIRA             RUA DO FLUMINENSE N°584 MARACANA       MARACANA       39403074MONTES CLAROS  MG0000000000000000                                                                       
1040001300210R 01000000000000000000000000000000000000000000000000210052018000000000000200                                                                                                                                                       
1040001300211P 0101298027300700000000000140000000000301531122030153          1005201800000000000099000000099N0805201821005201800000000000060000000000000000000000000000000000000000000000000000000030153                    3001090090000000000 
1040001300212Q 011000004754091329ESTENIO DA SILVA LEITE                  RUA 04                                  BARROSO        60863455FORTALEZA      CE0000000000000000                                                                       
1040001300213R 01000000000000000000000000000000000000000000000000210052018000000000000200                                                                                                                                                       
1040001300214P 0101298027300700000000000140000000000301541122030154          1005201800000000000297000000099N0805201821005201800000000000060000000000000000000000000000000000000000000000000000000030154                    3001090090000000000 
1040001300215Q 011000096544970263EDMIR CELSO LEDO BARBOSA FILHO          CONJUNTO MAGUARI ALAMEDA 11             CJ MAGUARI COQU66823073BELEM          PA0000000000000000                                                                       
1040001300216R 01000000000000000000000000000000000000000000000000210052018000000000000200                                                                                                                                                       
1040001300217P 0101298027300700000000000140000000000301561122030156          1005201800000000000099000000099N0805201821005201800000000000060000000000000000000000000000000000000000000000000000000030156                    3001090090000000000 
1040001300218Q 011000001903657733JULIO CESAR DOMINGUES PORTO             ESTRADA RAUL VEIGA                      ALCANTARA      24737570SAO GONCALO    RJ0000000000000000                                                                       
1040001300219R 01000000000000000000000000000000000000000000000000210052018000000000000200                                                                                                                                                       
1040001300220P 0101298027300700000000000140000000000301571122030157          1005201800000000003700000000099N0805201821005201800000000000060000000000000000000000000000000000000000000000000000000030157                    3001090090000000000 
1040001300221Q 012017583701000101DIEGO RILKO COSTA 37204056809           RUA GIANINO KAISER N°275 SAO FRANCISCO SAO FRANCISCO  15086300SAO JOSE DO RIOSP0000000000000000                                                                       
1040001300222R 01000000000000000000000000000000000000000000000000210052018000000000000200                                                                                                                                                       
1040001300223P 0101298027300700000000000140000000000301581122030158          1005201800000000000099000000099N0805201821005201800000000000060000000000000000000000000000000000000000000000000000000030158                    3001090090000000000 
1040001300224Q 011000039222103840ANTONIO O PURCELO JUNIOR                RUA SCHOENMACKER N°395 IMIGRANTES      IMIGRANTES     13825000HOLAMBRA       SP0000000000000000                                                                       
1040001300225R 01000000000000000000000000000000000000000000000000210052018000000000000200                                                                                                                                                       
1040001300226P 0101298027300700000000000140000000000301591122030159          1005201800000000000990000000099N0805201821005201800000000000060000000000000000000000000000000000000000000000000000000030159                    3001090090000000000 
1040001300227Q 011000099252830197CARLOS MAGNO ALVES DE ALMEIDA           RUA 07 QD 29 LT 15 CASA 2               PARQUE RIO BRAN72870090VALPARAISO DE GGO0000000000000000                                                                       
1040001300228R 01000000000000000000000000000000000000000000000000210052018000000000000200                                                                                                                                                       
1040001300229P 0101298027300700000000000140000000000301601122030160          1005201800000000005538000000099N0805201821005201800000000000060000000000000000000000000000000000000000000000000000000030160                    3001090090000000000 
1040001300230Q 012026216149000104CAIO DOS SANTOS E SOUSA 04422993119     RUA 03 QD 19 LT 28 PARQUE ESTRELA DALVA PARQUE ESTRELA 72830040LUZIANIA       GO0000000000000000                                                                       
1040001300231R 01000000000000000000000000000000000000000000000000210052018000000000000200                                                                                                                                                       
1040001300232P 0101298027300700000000000140000000000301611122030161          1005201800000000000099000000099N0805201821005201800000000000060000000000000000000000000000000000000000000000000000000030161                    3001090090000000000 
1040001300233Q 011000096518189304JACKSON WILLIAM CHAVES LEAO             RUA XXV                                                60353070FORTALEZA      CE0000000000000000                                                                       
1040001300234R 01000000000000000000000000000000000000000000000000210052018000000000000200                                                                                                                                                       
1040001300235P 0101298027300700000000000140000000000301621122030162          1005201800000000000099000000099N0805201821005201800000000000060000000000000000000000000000000000000000000000000000000030162                    3001090090000000000 
1040001300236Q 011000006446218699FABIO LUIZ                              RUA VOLTS N°117 PRIMEIRO DE MAIO       PRIMEIRO DE MAI31810000BELO HORIZONTE MG0000000000000000                                                                       
1040001300237R 01000000000000000000000000000000000000000000000000210052018000000000000200                                                                                                                                                       
1040001300238P 0101298027300700000000000140000000000301631122030163          1005201800000000000198000000099N0805201821005201800000000000060000000000000000000000000000000000000000000000000000000030163                    3001090090000000000 
1040001300239Q 011000001113974486PAULO VASCONCELOS SALLES                RUA MARIA LAMAS FARACHE N°57 CAPIM MACICAPIM MACIO    59082324NATAL          RN0000000000000000                                                                       
1040001300240R 01000000000000000000000000000000000000000000000000210052018000000000000200                                                                                                                                                       
1040001300241P 0101298027300700000000000140000000000301641122030164          1005201800000000001386000000099N0805201821005201800000000000060000000000000000000000000000000000000000000000000000000030164                    3001090090000000000 
1040001300242Q 011000030317517368CLAUDIA REGINA HERCULANO                RUA JOSE FACANHA                        BELA VISTA     60430000FORTALEZA      CE0000000000000000                                                                       
1040001300243R 01000000000000000000000000000000000000000000000000210052018000000000000200                                                                                                                                                       
1040001300244P 0101298027300700000000000140000000000301651122030165          1005201800000000000990000000099N0805201821005201800000000000060000000000000000000000000000000000000000000000000000000030165                    3001090090000000000 
1040001300245Q 012020085595000119CTX LOCACOES DE EQUIPAMENTOS E CONTAINERAV DUQUE DE CAXIAS                      JACARECANGA    60035078FORTALEZA      CE0000000000000000                                                                       
1040001300246R 01000000000000000000000000000000000000000000000000210052018000000000000200                                                                                                                                                       
1040001300247P 0101298027300700000000000140000000000301661122030166          1005201800000000002028000000099N0805201821005201800000000000060000000000000000000000000000000000000000000000000000000030166                    3001090090000000000 
1040001300248Q 011000005882561370JOYCE ELLEN SILVA BORGES                RUA MIGUEL FERREIRA                     LAGOA REDONDA  60831072FORTALEZA      CE0000000000000000                                                                       
1040001300249R 01000000000000000000000000000000000000000000000000210052018000000000000200                                                                                                                                                       
1040001300250P 0101298027300700000000000140000000000301671122030167          1005201800000000000158000000099N0805201821005201800000000000060000000000000000000000000000000000000000000000000000000030167                    3001090090000000000 
1040001300251Q 011000001094527394MARCICLEIA RODRIGUES DE OLIVEIRA        RUA PEDRO ARTHUR                        CARLITO PAMPLON60310043FORTALEZA      CE0000000000000000                                                                       
1040001300252R 01000000000000000000000000000000000000000000000000210052018000000000000200                                                                                                                                                       
1040001300253P 0101298027300700000000000140000000000301681122030168          1005201800000000002560000000099N0805201821005201800000000000060000000000000000000000000000000000000000000000000000000030168                    3001090090000000000 
1040001300254Q 012026320803000117MARCOS SOARES DOS SANTOS                RUA BARAO DO RIO BRANCO N°431 SANTO ANTSANTO ANTONIO  43825010CANDEIAS       BA0000000000000000                                                                       
1040001300255R 01000000000000000000000000000000000000000000000000210052018000000000000200                                                                                                                                                       
1040001300256P 0101298027300700000000000140000000000301691122030169          1005201800000000000099000000099N0805201821005201800000000000060000000000000000000000000000000000000000000000000000000030169                    3001090090000000000 
1040001300257Q 011000022864377349MARCIA CHAVES DA CUNHA FERREIRA         RUA PADRE VALDEVINO N°1031 ALDEOTA     ALDEOTA        60135040FORTALEZA      CE0000000000000000                                                                       
1040001300258R 01000000000000000000000000000000000000000000000000210052018000000000000200                                                                                                                                                       
1040001300259P 0101298027300700000000000140000000000301701122030170          1005201800000000002638000000099N0805201821005201800000000000060000000000000000000000000000000000000000000000000000000030170                    3001090090000000000 
1040001300260Q 012018207345000186ODAIR JOSE SAVALAIO 41084080206         Q ONZE (CJ RORAIMA-AMAPA)               MAGUARI        67146011ANANINDEUA     PA0000000000000000                                                                       
1040001300261R 01000000000000000000000000000000000000000000000000210052018000000000000200                                                                                                                                                       
1040001300262P 0101298027300700000000000140000000000301711122030171          1005201800000000000099000000099N0805201821005201800000000000060000000000000000000000000000000000000000000000000000000030171                    3001090090000000000 
1040001300263Q 011000060001832328MARIANA DE OLIVEIRA CAMPOS              RUA SANTA ANGELA 626 MESSEJANA          MESSEJANA      60871070FORTALEZA      CE0000000000000000                                                                       
1040001300264R 01000000000000000000000000000000000000000000000000210052018000000000000200                                                                                                                                                       
1040001300265P 0101298027300700000000000140000000000301721122030172          1005201800000000017695000000099N0805201821005201800000000000060000000000000000000000000000000000000000000000000000000030172                    3001090090000000000 
1040001300266Q 012021515839000132CLUBE AUTO PRIME (AC. ANTONIO BONIN DOS AVENIDA MARIO LEAL FERREIRA, EDIFICO TOPCONDOMINIO PEDR40285600SALVADOR       BA0000000000000000                                                                       
1040001300267R 01000000000000000000000000000000000000000000000000210052018000000000000200                                                                                                                                                       
1040001300268P 0101298027300700000000000140000000000301731122030173          1005201800000000025305500000099N0805201821005201800000000000060000000000000000000000000000000000000000000000000000000030173                    3001090090000000000 
1040001300269Q 011000067147909372LEANDRO ROSA DE LIMA                    RUA MARCILIO DIAS                       JACARECANGA    60310750FORTALEZA      CE0000000000000000                                                                       
1040001300270R 01000000000000000000000000000000000000000000000000210052018000000000000200                                                                                                                                                       
1040001300271P 0101298027300700000000000140000000000301741122030174          1005201800000000000199000000099N0805201821005201800000000000060000000000000000000000000000000000000000000000000000000030174                    3001090090000000000 
1040001300272Q 011000004897591651DANILO PEREIRA FERNANDES                AVENIDA DAS PEROBAS QD 56 LT 08 INDUSTRIINDUSTRIAL     76520000NOVA CRIXAS    GO0000000000000000                                                                       
1040001300273R 01000000000000000000000000000000000000000000000000210052018000000000000200                                                                                                                                                       
1040001300274P 0101298027300700000000000140000000000301751122030175          1005201800000000002028000000099N0805201821005201800000000000060000000000000000000000000000000000000000000000000000000030175                    3001090090000000000 
1040001300275Q 011000003518664344KESLEY MENDONCA CARVALHO                RUA GRACA ARANHA 150 SALA 1 POSTO IPIRANBARRA DO CEARA 60334170FORTALEZA      CE0000000000000000                                                                       
1040001300276R 01000000000000000000000000000000000000000000000000210052018000000000000200                                                                                                                                                       
1040001300277P 0101298027300700000000000140000000000301761122030176          1005201800000000005516000000099N0805201821005201800000000000060000000000000000000000000000000000000000000000000000000030176                    3001090090000000000 
1040001300278Q 012019765963000104VINICIUS CASTRO E SILVA                 RUA 25 DE DEZEMBRO N°837 CENTRO        CENTRO         35588000ARCOS          MG0000000000000000                                                                       
1040001300279R 01000000000000000000000000000000000000000000000000210052018000000000000200                                                                                                                                                       
1040001300280P 0101298027300700000000000140000000000301771122030177          1005201800000000000099000000099N0805201821005201800000000000060000000000000000000000000000000000000000000000000000000030177                    3001090090000000000 
1040001300281Q 011000051059282372AURICELIO HOLANDA MOURA                 AV. ARGENTINO PINHEIRO TORRES N°1248 BAPASSARE        60867065FORTALEZA      CE0000000000000000                                                                       
1040001300282R 01000000000000000000000000000000000000000000000000210052018000000000000200                                                                                                                                                       
1040001300283P 0101298027300700000000000140000000000301781122030178          1005201800000000000792000000099N0805201821005201800000000000060000000000000000000000000000000000000000000000000000000030178                    3001090090000000000 
1040001300284Q 012011543951000123JMS CUNHA LOCACAO DE MAQUINAS E EQUIPAMEAVENIDA GODOFREDO PIMENTEL              OLAVO OLIVEIRA 60351060FORTALEZA      CE0000000000000000                                                                       
1040001300285R 01000000000000000000000000000000000000000000000000210052018000000000000200                                                                                                                                                       
1040001300286P 0101298027300700000000000140000000000301811122030181          1005201800000000000099000000099N0805201821005201800000000000060000000000000000000000000000000000000000000000000000000030181                    3001090090000000000 
1040001300287Q 011000006625536407EDUARDO ALVES DOS SANTOS MIRANDA        RUA J. O\'CALLAGHAM N°134 APTO.5 SAO JOSAO JORGE      69033100MANAUS         AM0000000000000000                                                                       
1040001300288R 01000000000000000000000000000000000000000000000000210052018000000000000200                                                                                                                                                       
1040001300289P 0101298027300700000000000140000000000301841122030184          1005201800000000000198000000099N0805201821005201800000000000060000000000000000000000000000000000000000000000000000000030184                    3001090090000000000 
1040001300290Q 011000095798420272JOAO VIEIRA DE MEDEIROS NETO            RUA DAS OLIVEIRAS N°112 BAIRRO NOVA ISRNOVA ISRAEL    69039205MANAUS         AM0000000000000000                                                                       
1040001300291R 01000000000000000000000000000000000000000000000000210052018000000000000200                                                                                                                                                       
1040001300292P 0101298027300700000000000140000000000301851122030185          1005201800000000000099000000099N0805201821005201800000000000060000000000000000000000000000000000000000000000000000000030185                    3001090090000000000 
1040001300293Q 011000027766148889GUSTAVO OLIVEIRA LEME                   RUA CARLOS INACIO ALVES N°767 JARDIM PEJARDIM PEROLA  86038390LONDRINA       PR0000000000000000                                                                       
1040001300294R 01000000000000000000000000000000000000000000000000210052018000000000000200                                                                                                                                                       
1040001300295P 0101298027300700000000000140000000000301871122030187          1005201800000000000099000000099N0805201821005201800000000000060000000000000000000000000000000000000000000000000000000030187                    3001090090000000000 
1040001300296Q 011000050608282049FLAVIO HENRIQUE ASCARI                  RUA RIO DO SUL N°333                                  89620000CAMPOS NOVOS   SC0000000000000000                                                                       
1040001300297R 01000000000000000000000000000000000000000000000000210052018000000000000200                                                                                                                                                       
1040001300298P 0101298027300700000000000140000000000301881122030188          1005201800000000001089000000099N0805201821005201800000000000060000000000000000000000000000000000000000000000000000000030188                    3001090090000000000 
1040001300299Q 011000008423716643TATIANA GARCIA DE MORAIS                RUA MARIO RIBEIRO LIMA, N°260 BOM JESUS               37810000GUARANESIA     MG0000000000000000                                                                       
1040001300300R 01000000000000000000000000000000000000000000000000210052018000000000000200                                                                                                                                                       
1040001300301P 0101298027300700000000000140000000000301891122030189          1005201800000000000534000000099N0805201821005201800000000000060000000000000000000000000000000000000000000000000000000030189                    3001090090000000000 
1040001300302Q 012013955553000140KLEITON MOURA DA PAIXAO                 AV. FELIPE CAMARAO QD.43 LT.15 GOIA 2   GOIANEA 2      74485320GOIANIA        GO0000000000000000                                                                       
1040001300303R 01000000000000000000000000000000000000000000000000210052018000000000000200                                                                                                                                                       
1040001300304P 0101298027300700000000000140000000000301901122030190          1005201800000000000495000000099N0805201821005201800000000000060000000000000000000000000000000000000000000000000000000030190                    3001090090000000000 
1040001300305Q 012042793844000187LOCNORTE LOCADORA DE EQUIPAMENTOS P/ CONAV. DONA GREGORIA N°162 CIDADE NOVA    CIDADE NOVA    39400464MONTES CLAROS  MG0000000000000000                                                                       
1040001300306R 01000000000000000000000000000000000000000000000000210052018000000000000200                                                                                                                                                       
1040001300307P 0101298027300700000000000140000000000301911122030191          1005201800000000000198000000099N0805201821005201800000000000060000000000000000000000000000000000000000000000000000000030191                    3001090090000000000 
1040001300308Q 011000061444510304FRANCISCO OMILSON BARBOSA DA SILVA      RUA WALTER POMPEU N°400 APT. 201 BLC. 6ALVARO WEYNE,  60337120FORTALEZA      CE0000000000000000                                                                       
1040001300309R 01000000000000000000000000000000000000000000000000210052018000000000000200                                                                                                                                                       
1040001300310P 0101298027300700000000000140000000000301921122030192          1005201800000000000099000000099N0805201821005201800000000000060000000000000000000000000000000000000000000000000000000030192                    3001090090000000000 
1040001300311Q 011000054781949668NILTON LEFUNDES DA SILVA                RUA PORTO DA SAUDADE                    ITAIM PAULISTA 08132470SAO PAULO      SP0000000000000000                                                                       
1040001300312R 01000000000000000000000000000000000000000000000000210052018000000000000200                                                                                                                                                       
1040001300313P 0101298027300700000000000140000000000301931122030193          1005201800000000000891000000099N0805201821005201800000000000060000000000000000000000000000000000000000000000000000000030193                    3001090090000000000 
1040001300314Q 011000003870412305DIEGO ALMEIDA DE OLIVEIRA               RUA NOSSA SENHORA DAS GRACAS            PIRAMBU        60310770FORTALEZA      CE0000000000000000                                                                       
1040001300315R 01000000000000000000000000000000000000000000000000210052018000000000000200                                                                                                                                                       
1040001300316P 0101298027300700000000000140000000000301941122030194          1005201800000000000099000000099N0805201821005201800000000000060000000000000000000000000000000000000000000000000000000030194                    3001090090000000000 
1040001300317Q 011000001953016332JOSE ORLANDO                            RUA QUATORZE, QUADRA 25, CASA 17, BLOCO CIDADE OLIMPICA65058532SAO LUIS       MA0000000000000000                                                                       
1040001300318R 01000000000000000000000000000000000000000000000000210052018000000000000200                                                                                                                                                       
1040001300319P 0101298027300700000000000140000000000301951122030195          1005201800000000001287000000099N0805201821005201800000000000060000000000000000000000000000000000000000000000000000000030195                    3001090090000000000 
1040001300320Q 012026097788000190JESSE RODRIGUES DE SOUSA 41194341845    RUA DOUTOR RUI BARBOSA                  JD DOS SCURSONI13150000COSMOPOLIS     SP0000000000000000                                                                       
1040001300321R 01000000000000000000000000000000000000000000000000210052018000000000000200                                                                                                                                                       
1040001300322P 0101298027300700000000000140000000000301961122030196          1005201800000000005304000000099N0805201821005201800000000000060000000000000000000000000000000000000000000000000000000030196                    3001090090000000000 
1040001300323Q 011000007374853963WILLIAN AMARAL DE OLIVEIRA              RUA MARIA HELENICE TEDESCO ROSA         JD SANTA ALICE 86036694LONDRINA       PR0000000000000000                                                                       
1040001300324R 01000000000000000000000000000000000000000000000000210052018000000000000200                                                                                                                                                       
1040001300325P 0101298027300700000000000140000000000301971122030197          1005201800000000000099000000099N0805201821005201800000000000060000000000000000000000000000000000000000000000000000000030197                    3001090090000000000 
1040001300326Q 011000075176882353ALEXSANDRO ANDRADE SILVA                RUA 3, QUADRA D1, ARACAGY 6                            65110000SAO JOSE DE RIBMA0000000000000000                                                                       
1040001300327R 01000000000000000000000000000000000000000000000000210052018000000000000200                                                                                                                                                       
1040001300328P 0101298027300700000000000140000000000301981122030198          1005201800000000000099000000099N0805201821005201800000000000060000000000000000000000000000000000000000000000000000000030198                    3001090090000000000 
1040001300329Q 011000071339493187ANTONIO DA COSTA AMANCIO                AV:LAMBARI                              CENTRO         76200000IPORA          GO0000000000000000                                                                       
1040001300330R 01000000000000000000000000000000000000000000000000210052018000000000000200                                                                                                                                                       
1040001300331P 0101298027300700000000000140000000000301991122030199          1005201800000000004580000000099N0805201821005201800000000000060000000000000000000000000000000000000000000000000000000030199                    3001090090000000000 
1040001300332Q 011000076140881234JOSE NILSON SILVA DOS SANTOS            PASS. SAO RAIMUNDO                      ATALAIA        67013590ANANINDEUA     PA0000000000000000                                                                       
1040001300333R 01000000000000000000000000000000000000000000000000210052018000000000000200                                                                                                                                                       
1040001300334P 0101298027300700000000000140000000000302001122030200          1005201800000000003459000000099N0805201821005201800000000000060000000000000000000000000000000000000000000000000000000030200                    3001090090000000000 
1040001300335Q 011000064507734304ELTON DE SOUSA E SILVA                  RUA: GENERAL ARTUR CARVALHO, CHACARA BRA               65066320SAO LUIS       MA0000000000000000                                                                       
1040001300336R 01000000000000000000000000000000000000000000000000210052018000000000000200                                                                                                                                                       
1040001300337P 0101298027300700000000000140000000000302011122030201          1005201800000000000099000000099N0805201821005201800000000000060000000000000000000000000000000000000000000000000000000030201                    3001090090000000000 
1040001300338Q 011000058892176072LEANDRO MARQUES UFLACKER                RUA OCTAVIO DE SOUZA                    TERESOPOLIS    90840350PORTO ALEGRE   RS0000000000000000                                                                       
1040001300339R 01000000000000000000000000000000000000000000000000210052018000000000000200                                                                                                                                                       
1040001300340P 0101298027300700000000000140000000000302021122030202          1005201800000000000319000000099N0805201821005201800000000000060000000000000000000000000000000000000000000000000000000030202                    3001090090000000000 
1040001300341Q 011000033739261811JEFFERSON QUINTILIANO                   RUA TIRADENTES                          CENTRO         19840000MARACAI        SP0000000000000000                                                                       
1040001300342R 01000000000000000000000000000000000000000000000000210052018000000000000200                                                                                                                                                       
1040001300343P 0101298027300700000000000140000000000302031122030203          1005201800000000000198000000099N0805201821005201800000000000060000000000000000000000000000000000000000000000000000000030203                    3001090090000000000 
1040001300344Q 011000003837526127MYKE ALVES SILVA                        RUA H40, QD131 LT22 - CONJUNTO ESTRELA D               74936030APARECIDA DE GOGO0000000000000000                                                                       
1040001300345R 01000000000000000000000000000000000000000000000000210052018000000000000200                                                                                                                                                       
1040001300346P 0101298027300700000000000140000000000302041122030204          1005201800000000017220000000099N0805201821005201800000000000060000000000000000000000000000000000000000000000000000000030204                    3001090090000000000 
1040001300347Q 011000072831693268CARLOS ALBERTO SILVA DE SOUZA           CONJUNTO JARDIM EUROPA RUA ITALIA Q O5 CBAIRRO DA CABAN66650210BELEM          PA0000000000000000                                                                       
1040001300348R 01000000000000000000000000000000000000000000000000210052018000000000000200                                                                                                                                                       
1040001300349P 0101298027300700000000000140000000000302051122030205          1005201800000000001271700000099N0805201821005201800000000000060000000000000000000000000000000000000000000000000000000030205                    3001090090000000000 
1040001300350Q 011000015961130738LEANDRO SOUSA DA SILVA                  RUA DOUTOR JULIO BARCELOS,              GUAXINDIBA     28230000SAO FRANCISCO DRJ0000000000000000                                                                       
1040001300351R 01000000000000000000000000000000000000000000000000210052018000000000000200                                                                                                                                                       
1040001300352P 0101298027300700000000000140000000000302061122030206          1005201800000000001560000000099N0805201821005201800000000000060000000000000000000000000000000000000000000000000000000030206                    3001090090000000000 
1040001300353Q 012004554488000150WAGNER DE SOUZA SANTOS                  RUA GIULIANO OCCHINI                    JD IMPERIAL    12950530ATIBAIA        SP0000000000000000                                                                       
1040001300354R 01000000000000000000000000000000000000000000000000210052018000000000000200                                                                                                                                                       
1040001300355P 0101298027300700000000000140000000000302071122030207          1005201800000000000099000000099N0805201821005201800000000000060000000000000000000000000000000000000000000000000000000030207                    3001090090000000000 
1040001300356Q 011000005320225997THIAGO LUIZ LEITE                       RUA PORTO ALEGRE, SAO JOSE DOS PINHAIS                 83015040SAO JOSE DOS PIPR0000000000000000                                                                       
1040001300357R 01000000000000000000000000000000000000000000000000210052018000000000000200                                                                                                                                                       
1040001300358P 0101298027300700000000000140000000000302081122030208          1005201800000000000099000000099N0805201821005201800000000000060000000000000000000000000000000000000000000000000000000030208                    3001090090000000000 
1040001300359Q 011000007070500068LUIZ PLINIO THIESEN                     RUA GUARARAPES,                                        92020060CANOAS         RS0000000000000000                                                                       
1040001300360R 01000000000000000000000000000000000000000000000000210052018000000000000200                                                                                                                                                       
1040001300361P 0101298027300700000000000140000000000302101122030210          1005201800000000000495000000099N0805201821005201800000000000060000000000000000000000000000000000000000000000000000000030210                    3001090090000000000 
1040001300362Q 011000004294200723ANDRE VINICIUS DIAS MARTINS LIMA        RUA FERREIRA PONTES 400, CASA                          20541280RIO DE JANEIRO RJ0000000000000000                                                                       
1040001300363R 01000000000000000000000000000000000000000000000000210052018000000000000200                                                                                                                                                       
1040001300364P 0101298027300700000000000140000000000302111122030211          1005201800000000000099000000099N0805201821005201800000000000060000000000000000000000000000000000000000000000000000000030211                    3001090090000000000 
1040001300365Q 011000072807059520MARLON DA SILVA GARRIDO                 AVENIDA MIGUEL DA SILVA SOUZA 590, QUADRCOND. COUNTRY C48901765JUAZEIRO       BA0000000000000000                                                                       
1040001300366R 01000000000000000000000000000000000000000000000000210052018000000000000200                                                                                                                                                       
1040001300367P 0101298027300700000000000140000000000302121122030212          1005201800000000000099000000099N0805201821005201800000000000060000000000000000000000000000000000000000000000000000000030212                    3001090090000000000 
1040001300368Q 011000002091491160RENATO ELYONE DE ALMEIDA                RUA HENRIQUE DE BASTOS CURADO QUADRA 06 JARDIM DAS ACAC74987220APARECIDA DE GOGO0000000000000000                                                                       
1040001300369R 01000000000000000000000000000000000000000000000000210052018000000000000200                                                                                                                                                       
1040001300370P 0101298027300700000000000140000000000302131122030213          1005201800000000000099000000099N0805201821005201800000000000060000000000000000000000000000000000000000000000000000000030213                    3001090090000000000 
1040001300371Q 011000033873383845VALTERLINO NUNES PEREIRA JUNIOR         RUA JOSE ROBERTO BRESSER                JD UNIVERSO    15041591SAO JOSE DO RIOSP0000000000000000                                                                       
1040001300372R 01000000000000000000000000000000000000000000000000210052018000000000000200                                                                                                                                                       
1040001300373P 0101298027300700000000000140000000000302151122030215          1005201800000000000099000000099N0805201821005201800000000000060000000000000000000000000000000000000000000000000000000030215                    3001090090000000000 
1040001300374Q 011000071587926334WALDEMAR DE OLIVEIRA RAMOS              RUA FE EM DEUS QUADRA 113 CASA 610 - SAL               65055190SAO LUIS       MA0000000000000000                                                                       
1040001300375R 01000000000000000000000000000000000000000000000000210052018000000000000200                                                                                                                                                       
1040001300376P 0101298027300700000000000140000000000302161122030216          1005201800000000004497000000099N0805201821005201800000000000060000000000000000000000000000000000000000000000000000000030216                    3001090090000000000 
1040001300377Q 011000064824470315JEAN ALEX DA SILVA BARBOSA              RUA 448A                                CONJUNTO CEARA 60531190FORTALEZA      CE0000000000000000                                                                       
1040001300378R 01000000000000000000000000000000000000000000000000210052018000000000000200                                                                                                                                                       
1040001300379P 0101298027300700000000000140000000000302171122030217          1005201800000000000198000000099N0805201821005201800000000000060000000000000000000000000000000000000000000000000000000030217                    3001090090000000000 
1040001300380Q 011000010238304698JESSICA ALVES DE SOUZA MIRANDA          AFONSO PENA 1219 BAIRRO PARANAIBA                      38840000CARMO DO PARANAMG0000000000000000                                                                       
1040001300381R 01000000000000000000000000000000000000000000000000210052018000000000000200                                                                                                                                                       
1040001300382P 0101298027300700000000000140000000000302181122030218          1005201800000000000198000000099N0805201821005201800000000000060000000000000000000000000000000000000000000000000000000030218                    3001090090000000000 
1040001300383Q 011000053454294649ANA LUCIA MACHADO SABINO                AVENIDA ANTONIO SIMAO FIRJAN,           DISTRITO INDUST36092000JUIZ DE FORA   MG0000000000000000                                                                       
1040001300384R 01000000000000000000000000000000000000000000000000210052018000000000000200                                                                                                                                                       
1040001300385P 0101298027300700000000000140000000000302201122030220          1005201800000000000099000000099N0805201821005201800000000000060000000000000000000000000000000000000000000000000000000030220                    3001090090000000000 
1040001300386Q 011000092582532134KALITON JOSE DA SILVA CARDOSO           RUA NOVA GLORIA Q. 135 L. 24 JARDIM NOVA               74465290GOIANIA        GO0000000000000000                                                                       
1040001300387R 01000000000000000000000000000000000000000000000000210052018000000000000200                                                                                                                                                       
1040001300388P 0101298027300700000000000140000000000302211122030221          1005201800000000010166000000099N0805201821005201800000000000060000000000000000000000000000000000000000000000000000000030221                    3001090090000000000 
1040001300389Q 012019529677000140AUTO VIP - VEICULO                      AV CONTORNO                             CARRILHO       76380799GOIANESIA      GO0000000000000000                                                                       
1040001300390R 01000000000000000000000000000000000000000000000000210052018000000000000200                                                                                                                                                       
1040001300391P 0101298027300700000000000140000000000302231122030223          1005201800000000000099000000099N0805201821005201800000000000060000000000000000000000000000000000000000000000000000000030223                    3001090090000000000 
1040001300392Q 011000035254092068MOACIR BISCOLA MOREIRA                  ESTRADA CRISTIANO KRAEMER               VILA NOVA      91750060PORTO ALEGRE   RS0000000000000000                                                                       
1040001300393R 01000000000000000000000000000000000000000000000000210052018000000000000200                                                                                                                                                       
1040001300394P 0101298027300700000000000140000000000302241122030224          1005201800000000000547000000099N0805201821005201800000000000060000000000000000000000000000000000000000000000000000000030224                    3001090090000000000 
1040001300395Q 011000004417076618THIAGO REMIGGI                          RUA EZEQUIEL DIAS                       CENTRO         38900000BAMBUI         MG0000000000000000                                                                       
1040001300396R 01000000000000000000000000000000000000000000000000210052018000000000000200                                                                                                                                                       
1040001300397P 0101298027300700000000000140000000000302251122030225          1005201800000000000297000000099N0805201821005201800000000000060000000000000000000000000000000000000000000000000000000030225                    3001090090000000000 
1040001300398Q 011000007990718898GLADSTON TEIXEIRA DOS REIS              RUA RENATO N. DAHER CARNEIRO            ILHA DO BOI    29052730VITORIA        ES0000000000000000                                                                       
1040001300399R 01000000000000000000000000000000000000000000000000210052018000000000000200                                                                                                                                                       
1040001300400P 0101298027300700000000000140000000000302261122030226          1005201800000000012508500000099N0805201821005201800000000000060000000000000000000000000000000000000000000000000000000030226                    3001090090000000000 
1040001300401Q 011000080739512587LEONIDIO MANOEL DOS SANTOS NETO         RUA DAS PALMEIRAS                       SAO FRANCISCO  45816000PORTO SEGURO   BA0000000000000000                                                                       
1040001300402R 01000000000000000000000000000000000000000000000000210052018000000000000200                                                                                                                                                       
1040001300403P 0101298027300700000000000140000000000302281122030228          1005201800000000001188000000099N0805201821005201800000000000060000000000000000000000000000000000000000000000000000000030228                    3001090090000000000 
1040001300404Q 012041330481000180MASTER FUTURE CORRETORA                 RUA DOUTOR EDMILSON BARROS DE OLIVEIRA  SAO JOAO DO TAU60135520FORTALEZA      CE0000000000000000                                                                       
1040001300405R 01000000000000000000000000000000000000000000000000210052018000000000000200                                                                                                                                                       
1040001300406P 0101298027300700000000000140000000000302291122030229          1005201800000000000198000000099N0805201821005201800000000000060000000000000000000000000000000000000000000000000000000030229                    3001090090000000000 
1040001300407Q 011000002148654101WILTON PEREIRA DOS SANTOS               RUA 6, QUADRA 9, LOTE                   GEOVANE BRAGA  75126550ANAPOLIS       GO0000000000000000                                                                       
1040001300408R 01000000000000000000000000000000000000000000000000210052018000000000000200                                                                                                                                                       
1040001300409P 0101298027300700000000000140000000000302311122030231          1005201800000000000099000000099N0805201821005201800000000000060000000000000000000000000000000000000000000000000000000030231                    3001090090000000000 
1040001300410Q 011000000531476340FRANCINEIRE TIMBO PAIVA MORORO AZEVEDO  RUA EVARISTO DOS REIS                   BAIRRO SAO JOAO60130600FORTALEZA      CE0000000000000000                                                                       
1040001300411R 01000000000000000000000000000000000000000000000000210052018000000000000200                                                                                                                                                       
1040001300412P 0101298027300700000000000140000000000302321122030232          1005201800000000039238000000099N0805201821005201800000000000060000000000000000000000000000000000000000000000000000000030232                    3001090090000000000 
1040001300413Q 012027714221000188ALISON FERNADO DE MORAES                RUA NHANDEARA                           VILA CARRAO    03424040SAO PAULO      SP0000000000000000                                                                       
