10400000         2116559540001590000000000000000000001298027300700000000FEDERAL SISTEMAS              CAIXA ECONOMICA FEDERAL                 10603201815173200003505000000                    REMESSA-PRODUCAO                                 
10400011R0100030 20116559540001592730070000000000000001298027300700000000FEDERAL SISTEMAS                                                                                              000000350603201800000000                                 
1040001300001P 0101298027300700000000000140000000000266141122026614          1503201800000000038161200000099N0603201821503201800000000000000000000000000000000000000000000000000000000000000000000026614                    3001700090000000000 
1040001300002Q 012007987748000179URUACU ACUCAR E ALCOOL LTDA             ESTRADA UR - 04 KM 13                   ZONA RURAL     76400000ABADIA DE GOIáGO0000000000000000                                                                       
1040001300003R 01000000000000000000000000000000000000000000000000215032018000000000000200                                                                                                                                                       
1040001300004P 0101298027300700000000000140000000000266151122026615          1503201800000000073400000000099N0603201821503201800000000000000000000000000000000000000000000000000000000000000000000026615                    3001700090000000000 
1040001300005Q 012004094192000101AGRO-RUBI AGROPECUARIA LTDA             ROD GO 434 KM 23 5                      ZONA RURAL     76350000ABADIA DE GOIáGO0000000000000000                                                                       
1040001300006R 01000000000000000000000000000000000000000000000000215032018000000000000200                                                                                                                                                       
1040001300007P 0101298027300700000000000140000000000266161122026616          1503201800000000007516600000099N0603201821503201800000000000000000000000000000000000000000000000000000000000000000000026616                    3001700090000000000 
1040001300008Q 012003937452000192CRV INDUSTRIAL                          FAZENDA BOA VISTA KM 25                 ZONA SUBURBAN  76340000ABADIA DE GOIáGO0000000000000000                                                                       
1040001300009R 01000000000000000000000000000000000000000000000000215032018000000000000200                                                                                                                                                       
1040001300010P 0101298027300700000000000140000000000266171122026617          1203201800000000177210000000099N0603201821203201800000000000000000000000000000000000000000000000000000000000000000000026617                    3001700090000000000 
1040001300011Q 012015378957000143FERNANDO REIS DA SILVA - MEGA TURBONET  RUA MARIO ALFREDO                       CONQUISTA      45650800ILHEUS        BA0000000000000000                                                                       0
1040001300012R 01000000000000000000000000000000000000000000000000212032018000000000000200                                                                                                                                                       
1040001300013P 0101298027300700000000000140000000000266181122026618          1203201800000000010663000000099N0603201821203201800000000000000000000000000000000000000000000000000000000000000000000026618                    3001700090000000000 
1040001300014Q 012019529677000140AUTO VIP - VEICULO                      AV CONTORNO                             CARRILHO       76380799GOIANESIA     GO0000000000000000                                                                       0
1040001300015R 01000000000000000000000000000000000000000000000000212032018000000000000200                                                                                                                                                       
1040001300016P 0101298027300700000000000140000000000266191122026619          1203201800000000057676000000099N0603201821203201800000000000000000000000000000000000000000000000000000000000000000000026619                    3001700090000000000 
1040001300017Q 012019142481000106RB TECNOLOGIA DA INFORMACAO EIRELI - ME R FRANCISCO XAVIER AMBROSIO             LORENZETTI     17506460MARILIA       SP0000000000000000                                                                       0
1040001300018R 01000000000000000000000000000000000000000000000000212032018000000000000200                                                                                                                                                       
1040001300019P 0101298027300700000000000140000000000266201122026620          1203201800000000040497000000099N0603201821203201800000000000000000000000000000000000000000000000000000000000000000000026620                    3001700090000000000 
1040001300020Q 012020771562000146LOCALIZA GOIAS LTDA - ME                Q3 LT115 SALA 302                       SETOR COIMBRA  74535270GOIANIA       GO0000000000000000                                                                       0
1040001300021R 01000000000000000000000000000000000000000000000000212032018000000000000200                                                                                                                                                       
1040001300022P 0101298027300700000000000140000000000266211122026621          1203201800000000036130400000099N0603201821203201800000000000000000000000000000000000000000000000000000000000000000000026621                    3001700090000000000 
1040001300023Q 011000006751341610CRISTIANO RODRIGO DE MORAES BORGES      RUA HUMAITA                             TUBALINA       38412000UBERLANDIA    MG0000000000000000                                                                       0
1040001300024R 01000000000000000000000000000000000000000000000000212032018000000000000200                                                                                                                                                       
1040001300025P 0101298027300700000000000140000000000266221122026622          1203201800000000003900000000099N0603201821203201800000000000000000000000000000000000000000000000000000000000000000000026622                    3001700090000000000 
1040001300026Q 012011963712000122BJ SAT TENCOLOGIA EM RESTREAMENTO       RUA DOS FRANCISCANOS N 60               BOM AVELAR     41315000ABAIRA        BA0000000000000000                                                                       0
1040001300027R 01000000000000000000000000000000000000000000000000212032018000000000000200                                                                                                                                                       
1040001300028P 0101298027300700000000000140000000000266231122026623          1203201800000000016500000000099N0603201821203201800000000000000000000000000000000000000000000000000000000000000000000026623                    3001700090000000000 
1040001300029Q 012011088454000182FERDINAND BATISTA DE ARAUJO - ME        QUADRA 265 CASA 06 N06                  DIRCEU ARCO II 64078290TERESINA       PI0000000000000000                                                                       
1040001300030R 01000000000000000000000000000000000000000000000000212032018000000000000200                                                                                                                                                       
1040001300031P 0101298027300700000000000140000000000266241122026624          1203201800000000001872000000099N0603201821203201800000000000000000000000000000000000000000000000000000000000000000000026624                    3001700090000000000 
1040001300032Q 012001640145000110ONE CITY GPS EQUIP ELETRONICOS LTDA ME  RUA JAPURA NUMERO 3284                  IPIRANGA       14060620ADAMANTINA     SP0000000000000000                                                                       
1040001300033R 01000000000000000000000000000000000000000000000000212032018000000000000200                                                                                                                                                       
1040001300034P 0101298027300700000000000140000000000266251122026625          1203201800000000011716000000099N0603201821203201800000000000000000000000000000000000000000000000000000000000000000000026625                    3001700090000000000 
1040001300035Q 012004626774000183M F LIMA CARNEIRO E CIA LTDA - EPP      R COELHO DE REZENDE - ZONA NORTE        AEROPORTO      64003695TERESINA       PI0000000000000000                                                                       
1040001300036R 01000000000000000000000000000000000000000000000000212032018000000000000200                                                                                                                                                       
1040001300037P 0101298027300700000000000140000000000266261122026626          1203201800000000002290000000099N0603201821203201800000000000000000000000000000000000000000000000000000000000000000000026626                    3001700090000000000 
1040001300038Q 012010656796000199NILSON JOSE DE OLIVEIRA ME              RUA MONTEIRO DE BARROS QD 09 LT 14      CENTRO         76395000ABADIA DE GOIáGO0000000000000000                                                                       
1040001300039R 01000000000000000000000000000000000000000000000000212032018000000000000200                                                                                                                                                       
1040001300040P 0101298027300700000000000140000000000266271122026627          1202201800000000010890000000099N0603201821202201800000000000000000000000000000000000000000000000000000000000000000000026627                    3001700090000000000 
1040001300041Q 011000044705190300ROGERIO H. MAZUAD                       RUA LEMOS CUNHA                         ININGA         64049600TERESINA       PI0000000000000000                                                                       
1040001300042R 01000000000000000000000000000000000000000000000000212022018000000000000200                                                                                                                                                       
1040001300043P 0101298027300700000000000140000000000266281122026628          1203201800000000016458000000099N0603201821203201800000000000000000000000000000000000000000000000000000000000000000000026628                    3001700090000000000 
1040001300044Q 012018765152000140CAMILA REGO DA SILVA ARAGAO ME          RUA JOAO MARTINS DO REGO              SANTA ISABEL   64053120TERESINA       PI0000000000000000                                                                       00
1040001300045R 01000000000000000000000000000000000000000000000000212032018000000000000200                                                                                                                                                       
1040001300046P 0101298027300700000000000140000000000266291122026629          1203201800000000006711000000099N0603201821203201800000000000000000000000000000000000000000000000000000000000000000000026629                    3001700090000000000 
1040001300047Q 011000001488919348GERSON GAMA LEAL                        RUA AFONSO PENA                         LORIVAL PARENT 64023300ACAUA         PI0000000000000000                                                                       0
1040001300048R 01000000000000000000000000000000000000000000000000212032018000000000000200                                                                                                                                                       
1040001300049P 0101298027300700000000000140000000000266301122026630          1203201800000000009790000000099N0603201821203201800000000000000000000000000000000000000000000000000000000000000000000026630                    3001700090000000000 
1040001300050Q 012019677627000100ELITE SEGURANCA ELETR E MONITORAMENTO   R EMBAUBA N 40                          CHACARA DO SOL 68515000PARAUAPEBAS    PA0000000000000000                                                                       
1040001300051R 01000000000000000000000000000000000000000000000000212032018000000000000200                                                                                                                                                       
1040001300052P 0101298027300700000000000140000000000266311122026631          1203201800000000007748000000099N0603201821203201800000000000000000000000000000000000000000000000000000000000000000000026631                    3001700090000000000 
1040001300053Q 012022379734000166J DE A F DA SILVA - ME                  R COELHO DE RESENDE N 2921 ZONA NORTE   AEROPORTO      64003695ACAUA         PI0000000000000000                                                                       0
1040001300054R 01000000000000000000000000000000000000000000000000212032018000000000000200                                                                                                                                                       
1040001300055P 0101298027300700000000000140000000000266321122026632          1203201800000000014949600000099N0603201821203201800000000000000000000000000000000000000000000000000000000000000000000026632                    3001700090000000000 
1040001300056Q 012011655954000159FEDERAL SISTEMAS DE SEGURANCA E MONIT   AV. PRESIDENTE VARGAS                   CENTRO         76300000CERES          GO0000000000000000                                                                       
1040001300057R 01000000000000000000000000000000000000000000000000212032018000000000000200                                                                                                                                                       
1040001300058P 0101298027300700000000000140000000000266331122026633          1203201800000000002418000000099N0603201821203201800000000000000000000000000000000000000000000000000000000000000000000026633                    3001700090000000000 
1040001300059Q 012017055560000146ALVES DA SILVA E GAMA LEAL LTDA - ME    RUA MACHADO DE ASSIS N 1113             LOURIVAL PARENT64022128ACAUA         PI0000000000000000                                                                       0
1040001300060R 01000000000000000000000000000000000000000000000000212032018000000000000200                                                                                                                                                       
1040001300061P 0101298027300700000000000140000000000266341122026634          1203201800000000014287000000099N0603201821203201800000000000000000000000000000000000000000000000000000000000000000000026634                    3001700090000000000 
1040001300062Q 012018707079000150SYSROTA EIRELI - ME                     AVENIDA PRESIDENTE JOAO GOULART        RESIDENCIAL MAR74968890APARECIDA DE GOGO0000000000000000                                                                       0
1040001300063R 01000000000000000000000000000000000000000000000000212032018000000000000200                                                                                                                                                       
1040001300064P 0101298027300700000000000140000000000266351122026635          1203201800000000000600000000099N0603201821203201800000000000000000000000000000000000000000000000000000000000000000000026635                    3001700090000000000 
1040001300065Q 011000003712586183EDUARDO SILVA FREITAS                   RUA NITEROI QD 138 LT 13               PARQUE AMAZÔNI74843160GOIANIA       GO0000000000000000                                                                       00
1040001300066R 01000000000000000000000000000000000000000000000000212032018000000000000200                                                                                                                                                       
1040001300067P 0101298027300700000000000140000000000266361122026636          1203201800000000002322000000099N0603201821203201800000000000000000000000000000000000000000000000000000000000000000000026636                    3001700090000000000 
1040001300068Q 012023606665000149M2 DO BRASIL MONITORAMENTO ONLINE EIRELIRUA JOSE CLEMENTE 94                    CENTRO         24020105NITEROI       RJ0000000000000000                                                                       0
1040001300069R 01000000000000000000000000000000000000000000000000212032018000000000000200                                                                                                                                                       
1040001300070P 0101298027300700000000000140000000000266371122026637          1203201800000000009704500000099N0603201821203201800000000000000000000000000000000000000000000000000000000000000000000026637                    3001700090000000000 
1040001300071Q 012000097489000161LA VIDAL E CIA LTDA - EPP               AV 10 N°80 CONJUNTO MIRAGE             CONJUNTO MIRAGE75063330ANAPOLIS      GO0000000000000000                                                                       0
1040001300072R 01000000000000000000000000000000000000000000000000212032018000000000000200                                                                                                                                                       
1040001300073P 0101298027300700000000000140000000000266381122026638          1203201800000000000499000000099N0603201821203201800000000000000000000000000000000000000000000000000000000000000000000026638                    3001700090000000000 
1040001300074Q 012021249516000144TRUCK SERVICE RIALMA LTDA - ME          AV. BERNARDO SAYAO                     CENTRO         76310000RIALMA         GO0000000000000000                                                                       0
1040001300075R 01000000000000000000000000000000000000000000000000212032018000000000000200                                                                                                                                                       
1040001300076P 0101298027300700000000000140000000000266391122026639          1203201800000000000475200000099N0603201821203201800000000000000000000000000000000000000000000000000000000000000000000026639                    3001700090000000000 
1040001300077Q 012000000000000000FEDERAL RASTREADOR                                                                             77060110                 0000000000000000                                                                       
1040001300078R 01000000000000000000000000000000000000000000000000212032018000000000000200                                                                                                                                                       
1040001300079P 0101298027300700000000000140000000000266401122026640          1203201800000000000198000000099N0603201821203201800000000000000000000000000000000000000000000000000000000000000000000026640                    3001700090000000000 
1040001300080Q 011000031179567862FABIO FRANCO BONANATI                   RUA  MONTEIRO JUNIOR                    JARDIM JAQUEIRA11674385SAO PAULO     SP0000000000000000                                                                       0
1040001300081R 01000000000000000000000000000000000000000000000000212032018000000000000200                                                                                                                                                       
1040001300082P 0101298027300700000000000140000000000266411122026641          1203201800000000005044000000099N0603201821203201800000000000000000000000000000000000000000000000000000000000000000000026641                    3001700090000000000 
1040001300083Q 011000072435968272GEORGE WILLTON SANTOS PEREIRA           RUA RIO MARAUJÁ, CJ JOãO BOSCO II Nº SAO JOSE 1   69085620MANAUS         AM0000000000000000                                                                       00
1040001300084R 01000000000000000000000000000000000000000000000000212032018000000000000200                                                                                                                                                       
1040001300085P 0101298027300700000000000140000000000266421122026642          1203201800000000007899000000099N0603201821203201800000000000000000000000000000000000000000000000000000000000000000000026642                    3001700090000000000 
1040001300086Q 011000011646215729DOMINGOS RONIVALDO DA SILVA RUFINO      RUA CUBATAO N°86 CAMPOS DOS GOYATACAZES               28110000RIO DE JANEIRO RJ0000000000000000                                                                       
1040001300087R 01000000000000000000000000000000000000000000000000212032018000000000000200                                                                                                                                                       
1040001300088P 0101298027300700000000000140000000000266431122026643          1203201800000000004134000000099N0603201821203201800000000000000000000000000000000000000000000000000000000000000000000026643                    3001700090000000000 
1040001300089Q 011000050477285520ARNALDO BATISTA                         CONJUNTO CAJAZEIRAS X,SETOR 02, CAMINHO                41330000SALVADOR       BA0000000000000000                                                                       
1040001300090R 01000000000000000000000000000000000000000000000000212032018000000000000200                                                                                                                                                       
1040001300091P 0101298027300700000000000140000000000266441122026644          1203201800000000000198000000099N0603201821203201800000000000000000000000000000000000000000000000000000000000000000000026644                    3001700090000000000 
1040001300092Q 011000010936180781ANDRE LUIZ OLIVEIRA ATAIDE              RUA LEONCIO                            VILA EMIL      26551560MESQUITA       RJ0000000000000000                                                                       0
1040001300093R 01000000000000000000000000000000000000000000000000212032018000000000000200                                                                                                                                                       
1040001300094P 0101298027300700000000000140000000000266451122026645          1203201800000000000517000000099N0603201821203201800000000000000000000000000000000000000000000000000000000000000000000026645                    3001700090000000000 
1040001300095Q 011000007767300960AUTOBUSKA RASTREADORES E BLOQUEADORES VERUA ILDEFONSO MUNHOZ DA ROCHA                          83206090PARANAGUA     PR0000000000000000                                                                       0
1040001300096R 01000000000000000000000000000000000000000000000000212032018000000000000200                                                                                                                                                       
1040001300097P 0101298027300700000000000140000000000266461122026646          1203201800000000000297000000099N0603201821203201800000000000000000000000000000000000000000000000000000000000000000000026646                    3001700090000000000 
1040001300098Q 011000004012365525GILMAR SILVA SAMPAIO                    RUA WENCESLAU BRAZ - SN - SÃO JOÃO 102               46880000ITABERABA      BA0000000000000000                                                                       
1040001300099R 01000000000000000000000000000000000000000000000000212032018000000000000200                                                                                                                                                       
1040001300100P 0101298027300700000000000140000000000266471122026647          1203201800000000000495000000099N0603201821203201800000000000000000000000000000000000000000000000000000000000000000000026647                    3001700090000000000 
1040001300101Q 011000008105070642HARLEY TEIXEIRA DE FREITAS              DOMINGOS ALCANTARA - 176               MORADA DO PARQU39401362MORADA NOVA DE MG0000000000000000                                                                       0
1040001300102R 01000000000000000000000000000000000000000000000000212032018000000000000200                                                                                                                                                       
1040001300103P 0101298027300700000000000140000000000266481122026648          1203201800000000005758000000099N0603201821203201800000000000000000000000000000000000000000000000000000000000000000000026648                    3001700090000000000 
1040001300104Q 011000000342887327JULIELSON NUNES                         RUA 55 QUADRA 61                        MAIOBAO        65137000SAO LUIS     MA0000000000000000                                                                       00
1040001300105R 01000000000000000000000000000000000000000000000000212032018000000000000200                                                                                                                                                       
1040001300106P 0101298027300700000000000140000000000266491122026649          1203201800000000013800000000099N0603201821203201800000000000000000000000000000000000000000000000000000000000000000000026649                    3001700090000000000 
1040001300107Q 011000007032342779MARCELO SOARES                          RUA SANTOS LIMA                         SãO CRISTóVã20940210RIO DE JANEIRO RJ0000000000000000                                                                       
1040001300108R 01000000000000000000000000000000000000000000000000212032018000000000000200                                                                                                                                                       
1040001300109P 0101298027300700000000000140000000000266501122026650          1203201800000000000198000000099N0603201821203201800000000000000000000000000000000000000000000000000000000000000000000026650                    3001700090000000000 
1040001300110Q 011000007406488459FRANCINALDO MENDES VENANCIO             RUA BUTANTA, 235                       JARDIM SANTA MA05424970SAO PAULO     SP0000000000000000                                                                       00
1040001300111R 01000000000000000000000000000000000000000000000000212032018000000000000200                                                                                                                                                       
1040001300112P 0101298027300700000000000140000000000266511122026651          1203201800000000000495000000099N0603201821203201800000000000000000000000000000000000000000000000000000000000000000000026651                    3001700090000000000 
1040001300113Q 012015598500000144WR COMERCIO E SERVICOS LTDA - EPP       AV. BENJAMIM CONSTANT                   SAO VICENTE   69303467BOA VISTA      RR0000000000000000                                                                       0
1040001300114R 01000000000000000000000000000000000000000000000000212032018000000000000200                                                                                                                                                       
1040001300115P 0101298027300700000000000140000000000266521122026652          1203201800000000000099000000099N0603201821203201800000000000000000000000000000000000000000000000000000000000000000000026652                    3001700090000000000 
1040001300116Q 011000029421490860TRAVEL RASTREADOR                       RUA JOSE MORENO                        CONJUNTO HABITA13067655CAMPINAS       SP0000000000000000                                                                       0
1040001300117R 01000000000000000000000000000000000000000000000000212032018000000000000200                                                                                                                                                       
1040001300118P 0101298027300700000000000140000000000266531122026653          1203201800000000006448000000099N0603201821203201800000000000000000000000000000000000000000000000000000000000000000000026653                    3001700090000000000 
1040001300119Q 011000005460942608FLAVIO MUNIZ DE ALMEIDA                 RUA JOAO JORGE DE SA                                 37810000GUARANESIA    MG0000000000000000                                                                       000
1040001300120R 01000000000000000000000000000000000000000000000000212032018000000000000200                                                                                                                                                       
1040001300121P 0101298027300700000000000140000000000266541122026654          1203201800000000010050000000099N0603201821203201800000000000000000000000000000000000000000000000000000000000000000000026654                    3001700090000000000 
1040001300122Q 012021233248000172GABRIEL ANDRADE BORGES                  AVENIDA PROFESSORA IOLANDA RIBEIRO NOVAIJARDIM DO ÉDEN14402065FRANCA         SP0000000000000000                                                                       
1040001300123R 01000000000000000000000000000000000000000000000000212032018000000000000200                                                                                                                                                       
1040001300124P 0101298027300700000000000140000000000266551122026655          1203201800000000000792000000099N0603201821203201800000000000000000000000000000000000000000000000000000000000000000000026655                    3001700090000000000 
1040001300125Q 011000005221241781WENDEL MARMO                            RUA BARONESA DE GOITACAZES 36 DE 36 BARR               24111070NITEROI       RJ0000000000000000                                                                       0
1040001300126R 01000000000000000000000000000000000000000000000000212032018000000000000200                                                                                                                                                       
1040001300127P 0101298027300700000000000140000000000266561122026656          1203201800000000001386000000099N0603201821203201800000000000000000000000000000000000000000000000000000000000000000000026656                    3001700090000000000 
1040001300128Q 012024598464000100E S NASCIMENTO SISTEMAS DE MONITORAMENTORUA GUSTAVO RATTMAN, N°741 - AP32 ANDARBACACHERI      82520630CURITIBA       PR0000000000000000                                                                       
1040001300129R 01000000000000000000000000000000000000000000000000212032018000000000000200                                                                                                                                                       
1040001300130P 0101298027300700000000000140000000000266571122026657          1203201800000000003510000000099N0603201821203201800000000000000000000000000000000000000000000000000000000000000000000026657                    3001700090000000000 
1040001300131Q 011000030931320534LUIZ ANTONIO FRANCA DE CARVALHO         RUA PEDRO LOPES                         PRAIA GRANDE   40725110SALVADOR       BA0000000000000000                                                                       
1040001300132R 01000000000000000000000000000000000000000000000000212032018000000000000200                                                                                                                                                       
1040001300133P 0101298027300700000000000140000000000266581122026658          1203201800000000001089000000099N0603201821203201800000000000000000000000000000000000000000000000000000000000000000000026658                    3001700090000000000 
1040001300134Q 011000060768932220CARLOS EDUARDO DE OLIVEIRA MIRANDA      PASSAGEM COIMBRA 22 BLOCO 4 APTO 102    COQUEIRO       67115130ANANINDEUA     PA0000000000000000                                                                       
1040001300135R 01000000000000000000000000000000000000000000000000212032018000000000000200                                                                                                                                                       
1040001300136P 0101298027300700000000000140000000000266591122026659          1203201800000000007644000000099N0603201821203201800000000000000000000000000000000000000000000000000000000000000000000026659                    3001700090000000000 
1040001300137Q 011000015348812803MARCIO ALVES DOS SANTOS / FABIANA       .                                       SAO PAULO      02430971SAO PAULO     SP0000000000000000                                                                       0
1040001300138R 01000000000000000000000000000000000000000000000000212032018000000000000200                                                                                                                                                       
1040001300139P 0101298027300700000000000140000000000266601122026660          1203201800000000006851800000099N0603201821203201800000000000000000000000000000000000000000000000000000000000000000000026660                    3001700090000000000 
1040001300140Q 011000073981362268CHARLES LOPES                           ALAMEDA 34 N.31 AEROPORTO VELHO CONJ SAOAEROPORTO VELHO68010170SANTAREM      PA0000000000000000                                                                       0
1040001300141R 01000000000000000000000000000000000000000000000000212032018000000000000200                                                                                                                                                       
1040001300142P 0101298027300700000000000140000000000266621122026662          1203201800000000040752000000099N0603201821203201800000000000000000000000000000000000000000000000000000000000000000000026662                    3001700090000000000 
1040001300143Q 011000065973232204CARLOS DEANE LIMA DE SOUZA              RUA DONA BEIJA                          BAIRRO DA PAZ  69048300MANAUS         AM0000000000000000                                                                       
1040001300144R 01000000000000000000000000000000000000000000000000212032018000000000000200                                                                                                                                                       
1040001300145P 0101298027300700000000000140000000000266631122026663          1203201800000000000099000000099N0603201821203201800000000000000000000000000000000000000000000000000000000000000000000026663                    3001700090000000000 
1040001300146Q 011000008577593452ANTONIO CARLOS                          SAO ROQUE                               SANTO ANDRE    09051310SAO PAULO     SP0000000000000000                                                                       0
1040001300147R 01000000000000000000000000000000000000000000000000212032018000000000000200                                                                                                                                                       
1040001300148P 0101298027300700000000000140000000000266641122026664          1203201800000000000099000000099N0603201821203201800000000000000000000000000000000000000000000000000000000000000000000026664                    3001700090000000000 
1040001300149Q 011000007041857921MARCELO MARTINS VIEIRA JUNIOR           RUA IDA POSTALLI VICTORELLI             CONJUNTO CAFEZA86049060LONDRINA       PR0000000000000000                                                                       
1040001300150R 01000000000000000000000000000000000000000000000000212032018000000000000200                                                                                                                                                       
1040001300151P 0101298027300700000000000140000000000266651122026665          1203201800000000000629900000099N0603201821203201800000000000000000000000000000000000000000000000000000000000000000000026665                    3001700090000000000 
1040001300152Q 011000008398525762VICTOR FERNANDES PAES                   DOUTOR LUIZ PALMIER                     BARRETO        24110310NITEROI       RJ0000000000000000                                                                       0
1040001300153R 01000000000000000000000000000000000000000000000000212032018000000000000200                                                                                                                                                       
1040001300154P 0101298027300700000000000140000000000266661122026666          1203201800000000000616000000099N0603201821203201800000000000000000000000000000000000000000000000000000000000000000000026666                    3001700090000000000 
1040001300155Q 011000002795229323ANDREIDE JOSE SILVA                     AVENIDA QUIXADA,                        VILA FLAMENGO  65110000SãO JOSé DE RMA0000000000000000                                                                       
1040001300156R 01000000000000000000000000000000000000000000000000212032018000000000000200                                                                                                                                                       
1040001300157P 0101298027300700000000000140000000000266671122026667          1203201800000000030330000000099N0603201821203201800000000000000000000000000000000000000000000000000000000000000000000026667                    3001700090000000000 
1040001300158Q 011000060005553342JOSE AIRTON DE SOUSA ALMEIDA            RUA 14A N°35 INDUSTRIAL                INDUSTRIAL     61925300MARACANAU     CE0000000000000000                                                                       0
1040001300159R 01000000000000000000000000000000000000000000000000212032018000000000000200                                                                                                                                                       
1040001300160P 0101298027300700000000000140000000000266681122026668          1203201800000000000792000000099N0603201821203201800000000000000000000000000000000000000000000000000000000000000000000026668                    3001700090000000000 
1040001300161Q 011000007302713588ALEXSANDER BARBOSA                      AVENIDA TREZE DE JUNHO                                 49500000ITABAIANA      SE0000000000000000                                                                       
1040001300162R 01000000000000000000000000000000000000000000000000212032018000000000000200                                                                                                                                                       
1040001300163P 0101298027300700000000000140000000000266691122026669          1203201800000000001485000000099N0603201821203201800000000000000000000000000000000000000000000000000000000000000000000026669                    3001700090000000000 
1040001300164Q 011000011483301788CAIO CARDOSO                            RUA MERCURIO                           PAVUNA         21532470RIO DE JANEIRO RJ0000000000000000                                                                       0
1040001300165R 01000000000000000000000000000000000000000000000000212032018000000000000200                                                                                                                                                       
1040001300166P 0101298027300700000000000140000000000266701122026670          1203201800000000000980100000099N0603201821203201800000000000000000000000000000000000000000000000000000000000000000000026670                    3001700090000000000 
1040001300167Q 011000002701961882JOSE LUIZ ALBERTO SOBRINHO             RUA CURUZU                              CENTRO         18600060BOTUCATU       SP0000000000000000                                                                       0
1040001300168R 01000000000000000000000000000000000000000000000000212032018000000000000200                                                                                                                                                       
1040001300169P 0101298027300700000000000140000000000266711122026671          1203201800000000000297000000099N0603201821203201800000000000000000000000000000000000000000000000000000000000000000000026671                    3001700090000000000 
1040001300170Q 011000087630451334EVERARDO GOMES DE ARAUJO                RUA AFONSO PENA                         LOURIVAL PARENT64023300TERESINA       PI0000000000000000                                                                       
1040001300171R 01000000000000000000000000000000000000000000000000212032018000000000000200                                                                                                                                                       
1040001300172P 0101298027300700000000000140000000000266721122026672          1203201800000000003822000000099N0603201821203201800000000000000000000000000000000000000000000000000000000000000000000026672                    3001700090000000000 
1040001300173Q 011000008479656786FERNANDO JOSÉ SIQUEIRA DE MAGALHÃES BARUA HENRIQUE TOUQUIER                   JARDIM CATARINA24716420SAO GONCALO  RJ0000000000000000                                                                       00
1040001300174R 01000000000000000000000000000000000000000000000000212032018000000000000200                                                                                                                                                       
1040001300175P 0101298027300700000000000140000000000266731122026673          1203201800000000000099000000099N0603201821203201800000000000000000000000000000000000000000000000000000000000000000000026673                    3001700090000000000 
1040001300176Q 011000004267859914DOUGLAS BORGES                          CAIXA POSTAL 86. CAIXA POSTAL 86 86                    76590000SãO MIGUEL DO GO0000000000000000                                                                       
1040001300177R 01000000000000000000000000000000000000000000000000212032018000000000000200                                                                                                                                                       
1040001300178P 0101298027300700000000000140000000000266741122026674          1203201800000000008134000000099N0603201821203201800000000000000000000000000000000000000000000000000000000000000000000026674                    3001700090000000000 
1040001300179Q 012025167634000164RASTRO RS SERVICOS DE MONITORAMENTO EIREAV. EDGAR PIRES DE CASTRO               ABERTA DOS MORR91788130PORTO ALEGRE   RS0000000000000000                                                                       
1040001300180R 01000000000000000000000000000000000000000000000000212032018000000000000200                                                                                                                                                       
1040001300181P 0101298027300700000000000140000000000266751122026675          1203201800000000001386000000099N0603201821203201800000000000000000000000000000000000000000000000000000000000000000000026675                    3001700090000000000 
1040001300182Q 011000004601350662FRANKLIN LIMA                           RUA PARAIBA                            CENTRO         37701022POçOS DE CALDAMG0000000000000000                                                                       0
1040001300183R 01000000000000000000000000000000000000000000000000212032018000000000000200                                                                                                                                                       
1040001300184P 0101298027300700000000000140000000000266761122026676          1203201800000000001959600000099N0603201821203201800000000000000000000000000000000000000000000000000000000000000000000026676                    3001700090000000000 
1040001300185Q 011000057194270072EBER BELEM                              RUA ANTONIO DOS ANJOS                   CENTRO         96020700PELOTAS        RS0000000000000000                                                                       
1040001300186R 01000000000000000000000000000000000000000000000000212032018000000000000200                                                                                                                                                       
1040001300187P 0101298027300700000000000140000000000266771122026677          1203201800000000019734000000099N0603201821203201800000000000000000000000000000000000000000000000000000000000000000000026677                    3001700090000000000 
1040001300188Q 011000003908501369PEDRO HENRIQUE BESSA GURGEL             RUA CORONEL NUNES DE MELO,              RODOLFO TEOFILO60430270FORTALEZA      CE0000000000000000                                                                       
1040001300189R 01000000000000000000000000000000000000000000000000212032018000000000000200                                                                                                                                                       
1040001300190P 0101298027300700000000000140000000000266781122026678          1203201800000000007150000000099N0603201821203201800000000000000000000000000000000000000000000000000000000000000000000026678                    3001700090000000000 
1040001300191Q 011000003434917454FABIO MENDONCA FERREIRA                RUA SEBASTIAO INTERAMINENSE            JARDIM OCEANIA 58037770JOAO PESSOA   PB0000000000000000                                                                       000
1040001300192R 01000000000000000000000000000000000000000000000000212032018000000000000200                                                                                                                                                       
1040001300193P 0101298027300700000000000140000000000266791122026679          1203201800000000002106000000099N0603201821203201800000000000000000000000000000000000000000000000000000000000000000000026679                    3001700090000000000 
1040001300194Q 011000000912863285LEONARDO ROCHA DA SILVA                 RUA SAO FRANCISCO                      PARQUE ELITE   68638000ABAETETUBA     PA0000000000000000                                                                       0
1040001300195R 01000000000000000000000000000000000000000000000000212032018000000000000200                                                                                                                                                       
1040001300196P 0101298027300700000000000140000000000266801122026680          1203201800000000002340000000099N0603201821203201800000000000000000000000000000000000000000000000000000000000000000000026680                    3001700090000000000 
1040001300197Q 011000093293259715WILSON MARTINS CARREIRA                 RUA ARACATI                             RAMOS          21060140RIO DE JANEIRO RJ0000000000000000                                                                       
1040001300198R 01000000000000000000000000000000000000000000000000212032018000000000000200                                                                                                                                                       
1040001300199P 0101298027300700000000000140000000000266811122026681          1203201800000000000198000000099N0603201821203201800000000000000000000000000000000000000000000000000000000000000000000026681                    3001700090000000000 
1040001300200Q 011000003700881746LAZARO TUBARAO                         RUA RAMOS DE LIMA                       AMENDOEIRA     24730120SAO GONCALO  RJ0000000000000000                                                                       000
1040001300201R 01000000000000000000000000000000000000000000000000212032018000000000000200                                                                                                                                                       
1040001300202P 0101298027300700000000000140000000000266821122026682          1203201800000000000297000000099N0603201821203201800000000000000000000000000000000000000000000000000000000000000000000026682                    3001700090000000000 
1040001300203Q 011000003765813443JOSE ADRIANO LINO DE LIMA              RUA PIRAJU                             LAGOA AZUL     59135730NATAL          RN0000000000000000                                                                       00
1040001300204R 01000000000000000000000000000000000000000000000000212032018000000000000200                                                                                                                                                       
1040001300205P 0101298027300700000000000140000000000266831122026683          1203201800000000000418000000099N0603201821203201800000000000000000000000000000000000000000000000000000000000000000000026683                    3001700090000000000 
1040001300206Q 012015290483000183ICARO SIMAS                            RUA A                                   SAPETIBA       23545003RIO DE JANEIRO RJ0000000000000000                                                                       0
1040001300207R 01000000000000000000000000000000000000000000000000212032018000000000000200                                                                                                                                                       
1040001300208P 0101298027300700000000000140000000000266841122026684          1203201800000000000198000000099N0603201821203201800000000000000000000000000000000000000000000000000000000000000000000026684                    3001700090000000000 
1040001300209Q 011000028187156104LUZIA CONCEICAO ALVES                 RUA DOS TUCANOS,QD.145,LT.04 SANTA GENOVSANTA GENOVEVA 74672750GOIANIA       GO0000000000000000                                                                       000
1040001300210R 01000000000000000000000000000000000000000000000000212032018000000000000200                                                                                                                                                       
1040001300211P 0101298027300700000000000140000000000266851122026685          1203201800000000001386000000099N0603201821203201800000000000000000000000000000000000000000000000000000000000000000000026685                    3001700090000000000 
1040001300212Q 011000047403705300JAIRO ROCHA                             AV.ZEQUINHA FREIRE N°302 CDM.DELTA DO PSANTA ISABEL   64053400TERESINA       PI0000000000000000                                                                       
1040001300213R 01000000000000000000000000000000000000000000000000212032018000000000000200                                                                                                                                                       
1040001300214P 0101298027300700000000000140000000000266861122026686          1203201800000000018924000000099N0603201821203201800000000000000000000000000000000000000000000000000000000000000000000026686                    3001700090000000000 
1040001300215Q 011000063857642220RONALD EWERTON QUEIROZ                  CONJUNTO ANISIO TEIXEIRA I, BLOCO 4, APTPARQUE GUAJARá66823010BELEM         PA0000000000000000                                                                       0
1040001300216R 01000000000000000000000000000000000000000000000000212032018000000000000200                                                                                                                                                       
1040001300217P 0101298027300700000000000140000000000266881122026688          1203201800000000058478000000099N0603201821203201800000000000000000000000000000000000000000000000000000000000000000000026688                    3001700090000000000 
1040001300218Q 012015686018000166SRS TECNOLOGIA E SEGURANCA-SAMUEL      RUA SIMõES FILHO,BAIRRO - PRAçA KENNEDPRACA KENNEDY 48020540ALAGOINHAS     BA0000000000000000                                                                       00
1040001300219R 01000000000000000000000000000000000000000000000000212032018000000000000200                                                                                                                                                       
1040001300220P 0101298027300700000000000140000000000266891122026689          1203201800000000000099000000099N0603201821203201800000000000000000000000000000000000000000000000000000000000000000000026689                    3001700090000000000 
1040001300221Q 011000009613933786NILSON CARVALHO                         RUA O N°104 BAIRRO ADALBERTO SIMÃO NADADALBERTO SIMÃ29214330GUARAPARI      ES0000000000000000                                                                       
1040001300222R 01000000000000000000000000000000000000000000000000212032018000000000000200                                                                                                                                                       
1040001300223P 0101298027300700000000000140000000000266901122026690          1203201800000000000693000000099N0603201821203201800000000000000000000000000000000000000000000000000000000000000000000026690                    3001700090000000000 
1040001300224Q 011000009533034700HIGO BRAGA FONSECA E SILVA              RUA CLAUDINO PINHEIRO N°04             SENADOR CAMARÁ21832050RIO DE JANEIRO RJ0000000000000000                                                                       
1040001300225R 01000000000000000000000000000000000000000000000000212032018000000000000200                                                                                                                                                       
1040001300226P 0101298027300700000000000140000000000266911122026691          1203201800000000000198000000099N0603201821203201800000000000000000000000000000000000000000000000000000000000000000000026691                    3001700090000000000 
1040001300227Q 011000004200874199JEFFERSON CHAVES DA SILVA               RUA AGUAPE , 205,                      JOQUEI CLUBE  60510077FORTALEZA      CE0000000000000000                                                                       00
1040001300228R 01000000000000000000000000000000000000000000000000212032018000000000000200                                                                                                                                                       
1040001300229P 0101298027300700000000000140000000000266921122026692          1203201800000000028272000000099N0603201821203201800000000000000000000000000000000000000000000000000000000000000000000026692                    3001700090000000000 
1040001300230Q 012022790326000100ULTRA SOLUÇÕES EM SERVIÇOS DA TECNOLOAV. TORQUATRO TAPAJOS Nº6740 -TERRA NOVTERRA NOVA     69093415MANAUS         AM0000000000000000                                                                       
1040001300231R 01000000000000000000000000000000000000000000000000212032018000000000000200                                                                                                                                                       
1040001300232P 0101298027300700000000000140000000000266931122026693          1203201800000000007096000000099N0603201821203201800000000000000000000000000000000000000000000000000000000000000000000026693                    3001700090000000000 
1040001300233Q 011000084430133972MICHELY LIMA                            RUA LOURENCO GRABOWSKI                 THOMAZ COELHO  83707180ARAUCARIA     PR0000000000000000                                                                       00
1040001300234R 01000000000000000000000000000000000000000000000000212032018000000000000200                                                                                                                                                       
1040001300235P 0101298027300700000000000140000000000266941122026694          1203201800000000001782000000099N0603201821203201800000000000000000000000000000000000000000000000000000000000000000000026694                    3001700090000000000 
1040001300236Q 011000000147721679WANDERSON ASSUNCAO DA SILVA           RUA CRUZEIRO DO SUL N°547 BAIRRO SANTA SANTA HELENA   30642480BELO HORIZONTE MG0000000000000000                                                                       00
1040001300237R 01000000000000000000000000000000000000000000000000212032018000000000000200                                                                                                                                                       
1040001300238P 0101298027300700000000000140000000000266951122026695          1203201800000000000198000000099N0603201821203201800000000000000000000000000000000000000000000000000000000000000000000026695                    3001700090000000000 
1040001300239Q 011000056052995300EDMAR OLIVEIRA GUEDES  JUNIOR           RUA MARCOS MACEDO N° 1460 AP 2001 TORREALDEOTA        60150190FORTALEZA      CE0000000000000000                                                                       
1040001300240R 01000000000000000000000000000000000000000000000000212032018000000000000200                                                                                                                                                       
1040001300241P 0101298027300700000000000140000000000266961122026696          1203201800000000000099000000099N0603201821203201800000000000000000000000000000000000000000000000000000000000000000000026696                    3001700090000000000 
1040001300242Q 011000002523867362FRANCIVALDO FEITOSA                     POSTA RESTANTE N°1407,RENASCENCA      RENASCENCA    64001970TERESINA       PI0000000000000000                                                                       00
1040001300243R 01000000000000000000000000000000000000000000000000212032018000000000000200                                                                                                                                                       
1040001300244P 0101298027300700000000000140000000000266971122026697          1203201800000000002488600000099N0603201821203201800000000000000000000000000000000000000000000000000000000000000000000026697                    3001700090000000000 
1040001300245Q 011000026355703888ENEAS GIL MARQUES                       AVENIDA AEROSTATO,                      AEROPORTO      14783109BARRETOS       SP0000000000000000                                                                       
1040001300246R 01000000000000000000000000000000000000000000000000212032018000000000000200                                                                                                                                                       
1040001300247P 0101298027300700000000000140000000000266981122026698          1203201800000000001287000000099N0603201821203201800000000000000000000000000000000000000000000000000000000000000000000026698                    3001700090000000000 
1040001300248Q 011000042308542004GREGORIO VILAS BOAS                     RUA DELFINO RIET N°96,SANTO ANTONIO    SANTO ANTONIO  90660120PORTO ALEGRE   RS0000000000000000                                                                       
1040001300249R 01000000000000000000000000000000000000000000000000212032018000000000000200                                                                                                                                                       
1040001300250P 0101298027300700000000000140000000000266991122026699          1203201800000000000792000000099N0603201821203201800000000000000000000000000000000000000000000000000000000000000000000026699                    3001700090000000000 
1040001300251Q 012041454554000146FRANCISCO RICARDO MONTEIRO - ME         RUA BARROS CARVALHO N°2050 SIQUEIRA    SIQUEIRA       60732350FORTALEZA      CE0000000000000000                                                                       
1040001300252R 01000000000000000000000000000000000000000000000000212032018000000000000200                                                                                                                                                       
1040001300253P 0101298027300700000000000140000000000267001122026700          1203201800000000001386000000099N0603201821203201800000000000000000000000000000000000000000000000000000000000000000000026700                    3001700090000000000 
1040001300254Q 011000079050859291RODRIGO SILVA SOUSA                     CJ EDILSON ABREU                        SAGRADA FAMÍLI68790000SANTA ISABEL DOPA0000000000000000                                                                       
1040001300255R 01000000000000000000000000000000000000000000000000212032018000000000000200                                                                                                                                                       
1040001300256P 0101298027300700000000000140000000000267011122026701          1203201800000000000099000000099N0603201821203201800000000000000000000000000000000000000000000000000000000000000000000026701                    3001700090000000000 
1040001300257Q 011000083833706368ALEXSANDRO JOSE FELIX NOGUEIRA          RUA GREGORIO DE FRANCA                CAJAZEIRAS     60864400FORTALEZA      CE0000000000000000                                                                       00
1040001300258R 01000000000000000000000000000000000000000000000000212032018000000000000200                                                                                                                                                       
1040001300259P 0101298027300700000000000140000000000267021122026702          1203201800000000001188000000099N0603201821203201800000000000000000000000000000000000000000000000000000000000000000000026702                    3001700090000000000 
1040001300260Q 011000003551174601FERNANDO FERNANDES FERREIRA             RUA DO FLUMINENSE N°584 MARACANA      MARACANA      39403074MONTES CLAROS  MG0000000000000000                                                                       00
1040001300261R 01000000000000000000000000000000000000000000000000212032018000000000000200                                                                                                                                                       
1040001300262P 0101298027300700000000000140000000000267031122026703          1203201800000000000198000000099N0603201821203201800000000000000000000000000000000000000000000000000000000000000000000026703                    3001700090000000000 
1040001300263Q 011000037921092802MAICON DOUGLAS MARQUES DA SILVA         AV PEREIRA REBOUCAS N°1959 CENTRO     CENTRO         14540000IGARAPAVA      SP0000000000000000                                                                       0
1040001300264R 01000000000000000000000000000000000000000000000000212032018000000000000200                                                                                                                                                       
1040001300265P 0101298027300700000000000140000000000267041122026704          1203201800000000000099000000099N0603201821203201800000000000000000000000000000000000000000000000000000000000000000000026704                    3001700090000000000 
1040001300266Q 011000004754091329ESTENIO DA SILVA LEITE                  RUA 04                                  BARROSO        60863455FORTALEZA      CE0000000000000000                                                                       
1040001300267R 01000000000000000000000000000000000000000000000000212032018000000000000200                                                                                                                                                       
1040001300268P 0101298027300700000000000140000000000267051122026705          1203201800000000000297000000099N0603201821203201800000000000000000000000000000000000000000000000000000000000000000000026705                    3001700090000000000 
1040001300269Q 011000096544970263EDMIR CELSO LEDO BARBOSA FILHO          CONJUNTO MAGUARI ALAMEDA 11             CJ MAGUARI COQU66823073BELEM         PA0000000000000000                                                                       0
1040001300270R 01000000000000000000000000000000000000000000000000212032018000000000000200                                                                                                                                                       
1040001300271P 0101298027300700000000000140000000000267061122026706          1203201800000000002340000000099N0603201821203201800000000000000000000000000000000000000000000000000000000000000000000026706                    3001700090000000000 
1040001300272Q 012007726179000108GUSTAVO ZACCARON MARCON ME              AV MUNICIPAL N°1201 CENTRO             CENTRO         88930000TURVO          SC0000000000000000                                                                       
1040001300273R 01000000000000000000000000000000000000000000000000212032018000000000000200                                                                                                                                                       
1040001300274P 0101298027300700000000000140000000000267071122026707          1203201800000000000099000000099N0603201821203201800000000000000000000000000000000000000000000000000000000000000000000026707                    3001700090000000000 
1040001300275Q 011000001903657733JULIO CESAR DOMINGUES PORTO             ESTRADA RAUL VEIGA                      ALCANTARA      24737570SAO GONCALO  RJ0000000000000000                                                                       00
1040001300276R 01000000000000000000000000000000000000000000000000212032018000000000000200                                                                                                                                                       
1040001300277P 0101298027300700000000000140000000000267081122026708          1203201800000000003276000000099N0603201821203201800000000000000000000000000000000000000000000000000000000000000000000026708                    3001700090000000000 
1040001300278Q 012017583701000101DIEGO RILKO COSTA 37204056809           RUA GIANINO KAISER N°275 SÃO FRANCISCOSAO FRANCISCO 15086300SãO JOSé DO RSP0000000000000000                                                                       0
1040001300279R 01000000000000000000000000000000000000000000000000212032018000000000000200                                                                                                                                                       
1040001300280P 0101298027300700000000000140000000000267091122026709          1203201800000000000099000000099N0603201821203201800000000000000000000000000000000000000000000000000000000000000000000026709                    3001700090000000000 
1040001300281Q 011000039222103840ANTONIO O PURCELO JUNIOR                RUA SCHOENMACKER N°395 IMIGRANTES      IMIGRANTES     13825000HOLAMBRA       SP0000000000000000                                                                       
1040001300282R 01000000000000000000000000000000000000000000000000212032018000000000000200                                                                                                                                                       
1040001300283P 0101298027300700000000000140000000000267101122026710          1203201800000000001188000000099N0603201821203201800000000000000000000000000000000000000000000000000000000000000000000026710                    3001700090000000000 
1040001300284Q 011000099252830197CARLOS MAGNO ALVES DE ALMEIDA           RUA 07 QD 29 LT 15 CASA 2               PARQUE RIO BRAN72870090VALPARAíSO DE GO0000000000000000                                                                       
1040001300285R 01000000000000000000000000000000000000000000000000212032018000000000000200                                                                                                                                                       
1040001300286P 0101298027300700000000000140000000000267111122026711          1203201800000000005538000000099N0603201821203201800000000000000000000000000000000000000000000000000000000000000000000026711                    3001700090000000000 
1040001300287Q 012026216149000104CAIO DOS SANTOS E SOUSA 04422993119     RUA 03 QD 19 LT 28 PARQUE ESTRELA DALVA PARQUE ESTRELA 72830040LUZIANIA      GO0000000000000000                                                                       0
1040001300288R 01000000000000000000000000000000000000000000000000212032018000000000000200                                                                                                                                                       
1040001300289P 0101298027300700000000000140000000000267121122026712          1203201800000000000099000000099N0603201821203201800000000000000000000000000000000000000000000000000000000000000000000026712                    3001700090000000000 
1040001300290Q 011000096518189304JACKSON WILLIAM CHAVES LEAO            RUA XXV                                                60353070FORTALEZA      CE0000000000000000                                                                       0
1040001300291R 01000000000000000000000000000000000000000000000000212032018000000000000200                                                                                                                                                       
1040001300292P 0101298027300700000000000140000000000267131122026713          1203201800000000000099000000099N0603201821203201800000000000000000000000000000000000000000000000000000000000000000000026713                    3001700090000000000 
1040001300293Q 011000006446218699FABIO LUIZ                              RUA VOLTS N°117 PRIMEIRO DE MAIO       PRIMEIRO DE MAI31810000BELO HORIZONTE MG0000000000000000                                                                       
1040001300294R 01000000000000000000000000000000000000000000000000212032018000000000000200                                                                                                                                                       
1040001300295P 0101298027300700000000000140000000000267141122026714          1203201800000000000198000000099N0603201821203201800000000000000000000000000000000000000000000000000000000000000000000026714                    3001700090000000000 
1040001300296Q 011000001113974486PAULO VASCONCELOS SALLES                RUA MARIA LAMAS FARACHE N°57 CAPIM MACICAPIM MACIO    59082324NATAL          RN0000000000000000                                                                       
1040001300297R 01000000000000000000000000000000000000000000000000212032018000000000000200                                                                                                                                                       
1040001300298P 0101298027300700000000000140000000000267151122026715          1203201800000000001188000000099N0603201821203201800000000000000000000000000000000000000000000000000000000000000000000026715                    3001700090000000000 
1040001300299Q 011000030317517368CLAUDIA REGINA HERCULANO                RUA JOSE FACANHA                      BELA VISTA     60430000FORTALEZA      CE0000000000000000                                                                       00
1040001300300R 01000000000000000000000000000000000000000000000000212032018000000000000200                                                                                                                                                       
1040001300301P 0101298027300700000000000140000000000267161122026716          1203201800000000000990000000099N0603201821203201800000000000000000000000000000000000000000000000000000000000000000000026716                    3001700090000000000 
1040001300302Q 012020085595000119CTX LOCAÇÕES DE EQUIPAMENTOS E CONTAINAV DUQUE DE CAXIAS                      JACARECANGA    60035078FORTALEZA      CE0000000000000000                                                                       
1040001300303R 01000000000000000000000000000000000000000000000000212032018000000000000200                                                                                                                                                       
1040001300304P 0101298027300700000000000140000000000267171122026717          1203201800000000002028000000099N0603201821203201800000000000000000000000000000000000000000000000000000000000000000000026717                    3001700090000000000 
1040001300305Q 011000005882561370JOYCE ELLEN SILVA BORGES                RUA MIGUEL FERREIRA                     LAGOA REDONDA  60831072FORTALEZA      CE0000000000000000                                                                       
1040001300306R 01000000000000000000000000000000000000000000000000212032018000000000000200                                                                                                                                                       
1040001300307P 0101298027300700000000000140000000000267181122026718          1203201800000000000158000000099N0603201821203201800000000000000000000000000000000000000000000000000000000000000000000026718                    3001700090000000000 
1040001300308Q 011000001094527394MARCICLEIA RODRIGUES DE OLIVEIRA        RUA PEDRO ARTHUR                        CARLITO PAMPLON60310043FORTALEZA      CE0000000000000000                                                                       
1040001300309R 01000000000000000000000000000000000000000000000000212032018000000000000200                                                                                                                                                       
1040001300310P 0101298027300700000000000140000000000267191122026719          1203201800000000002596400000099N0603201821203201800000000000000000000000000000000000000000000000000000000000000000000026719                    3001700090000000000 
1040001300311Q 012026320803000117MARCOS SOARES DOS SANTOS                RUA BARÃO DO RIO BRANCO N°431 SANTO ANSANTO ANTONIO  43825010CANDEIAS       BA0000000000000000                                                                       
1040001300312R 01000000000000000000000000000000000000000000000000212032018000000000000200                                                                                                                                                       
1040001300313P 0101298027300700000000000140000000000267201122026720          1203201800000000000099000000099N0603201821203201800000000000000000000000000000000000000000000000000000000000000000000026720                    3001700090000000000 
1040001300314Q 011000022864377349MARCIA CHAVES DA CUNHA FERREIRA         RUA PADRE VALDEVINO N°1031 ALDEOTA     ALDEOTA        60135040FORTALEZA      CE0000000000000000                                                                       
1040001300315R 01000000000000000000000000000000000000000000000000212032018000000000000200                                                                                                                                                       
1040001300316P 0101298027300700000000000140000000000267211122026721          1203201800000000003137000000099N0603201821203201800000000000000000000000000000000000000000000000000000000000000000000026721                    3001700090000000000 
1040001300317Q 012018207345000186ODAIR JOSE SAVALAIO 41084080206         Q ONZE (CJ RORAIMA-AMAPA)               MAGUARI        67146011ANANINDEUA     PA0000000000000000                                                                       
1040001300318R 01000000000000000000000000000000000000000000000000212032018000000000000200                                                                                                                                                       
1040001300319P 0101298027300700000000000140000000000267221122026722          1203201800000000000099000000099N0603201821203201800000000000000000000000000000000000000000000000000000000000000000000026722                    3001700090000000000 
1040001300320Q 011000060001832328MARIANA DE OLIVEIRA CAMPOS              RUA SANTA ANGELA 626 MESSEJANA          MESSEJANA      60871070FORTALEZA      CE0000000000000000                                                                       
1040001300321R 01000000000000000000000000000000000000000000000000212032018000000000000200                                                                                                                                                       
1040001300322P 0101298027300700000000000140000000000267231122026723          1203201800000000017095000000099N0603201821203201800000000000000000000000000000000000000000000000000000000000000000000026723                    3001700090000000000 
1040001300323Q 012021515839000132CLUBE AUTO PRIME (AC. ANTONIO BONIN DOS AVENIDA MARIO LEAL FERREIRA, EDIFICO TOPCONDOMINIO PEDR40285600SALVADOR       BA0000000000000000                                                                       
1040001300324R 01000000000000000000000000000000000000000000000000212032018000000000000200                                                                                                                                                       
1040001300325P 0101298027300700000000000140000000000267241122026724          1203201800000000021906000000099N0603201821203201800000000000000000000000000000000000000000000000000000000000000000000026724                    3001700090000000000 
1040001300326Q 011000067147909372LEANDRO ROSA DE LIMA                    RUA MARCILIO DIAS N°419 JACARECANGA    JACARECANGA    60310750FORTALEZA      CE0000000000000000                                                                       
1040001300327R 01000000000000000000000000000000000000000000000000212032018000000000000200                                                                                                                                                       
1040001300328P 0101298027300700000000000140000000000267251122026725          1203201800000000000099000000099N0603201821203201800000000000000000000000000000000000000000000000000000000000000000000026725                    3001700090000000000 
1040001300329Q 011000012455010708EVERTON ANTUNES DA PAZ                  RUA CATANDUVAS,                         PARQUE SãO BER26165361BELFORD ROXO   RJ0000000000000000                                                                       
1040001300330R 01000000000000000000000000000000000000000000000000212032018000000000000200                                                                                                                                                       
1040001300331P 0101298027300700000000000140000000000267261122026726          1203201800000000000199000000099N0603201821203201800000000000000000000000000000000000000000000000000000000000000000000026726                    3001700090000000000 
1040001300332Q 011000004897591651DANILO PEREIRA FERNANDES                AVENIDA DAS PEROBAS QD 56 LT 08 INDUSTRIINDUSTRIAL     76520000NOVA CRIXAS   GO0000000000000000                                                                       0
1040001300333R 01000000000000000000000000000000000000000000000000212032018000000000000200                                                                                                                                                       
1040001300334P 0101298027300700000000000140000000000267271122026727          1203201800000000000198000000099N0603201821203201800000000000000000000000000000000000000000000000000000000000000000000026727                    3001700090000000000 
1040001300335Q 011000002835502440ANDRE COIMBRA DE FIGUEIREDO             RUA EVARISTO REIS                       TAUAPE         60130600FORTALEZA      CE0000000000000000                                                                       
1040001300336R 01000000000000000000000000000000000000000000000000212032018000000000000200                                                                                                                                                       
1040001300337P 0101298027300700000000000140000000000267281122026728          1203201800000000002028000000099N0603201821203201800000000000000000000000000000000000000000000000000000000000000000000026728                    3001700090000000000 
1040001300338Q 011000003518664344KESLEY MENDONCA CARVALHO               RUA GRAÇA ARANHA 150 SALA 1 POSTO IPIRABARRA DO CEARÁ60334170FORTALEZA      CE0000000000000000                                                                       0
1040001300339R 01000000000000000000000000000000000000000000000000212032018000000000000200                                                                                                                                                       
1040001300340P 0101298027300700000000000140000000000267291122026729          1203201800000000000099000000099N0603201821203201800000000000000000000000000000000000000000000000000000000000000000000026729                    3001700090000000000 
1040001300341Q 011000003624287354SERGIO SOUSA DA SILVA FILHO             RUA PADRE MORORO                        FARIAS BRITO   60015221FORTALEZA      CE0000000000000000                                                                       
1040001300342R 01000000000000000000000000000000000000000000000000212032018000000000000200                                                                                                                                                       
1040001300343P 0101298027300700000000000140000000000267301122026730          1203201800000000004524000000099N0603201821203201800000000000000000000000000000000000000000000000000000000000000000000026730                    3001700090000000000 
1040001300344Q 012019765963000104VINICIUS CASTRO E SILVA                 RUA 25 DE DEZEMBRO N°837 CENTRO        CENTRO         35588000ARCOS          MG0000000000000000                                                                       
1040001300345R 01000000000000000000000000000000000000000000000000212032018000000000000200                                                                                                                                                       
1040001300346P 0101298027300700000000000140000000000267311122026731          1203201800000000000099000000099N0603201821203201800000000000000000000000000000000000000000000000000000000000000000000026731                    3001700090000000000 
1040001300347Q 011000051059282372AURICELIO HOLANDA MOURA                 AV. ARGENTINO PINHEIRO TORRES N°1248 BAPASSARE       60867065FORTALEZA      CE0000000000000000                                                                       0
1040001300348R 01000000000000000000000000000000000000000000000000212032018000000000000200                                                                                                                                                       
1040001300349P 0101298027300700000000000140000000000267321122026732          1203201800000000000792000000099N0603201821203201800000000000000000000000000000000000000000000000000000000000000000000026732                    3001700090000000000 
1040001300350Q 012011543951000123JMS CUNHA LOCAÇÃO DE MÁQUINAS E EQUIPAVENIDA GODOFREDO PIMENTEL              OLAVO OLIVEIRA 60351060FORTALEZA      CE0000000000000000                                                                       
1040001300351R 01000000000000000000000000000000000000000000000000212032018000000000000200                                                                                                                                                       
1040001300352P 0101298027300700000000000140000000000267331122026733          1203201800000000000495000000099N0603201821203201800000000000000000000000000000000000000000000000000000000000000000000026733                    3001700090000000000 
1040001300353Q 011000016381149353IVANILDO RAMOS MACHADO                  RUA 123                                 CONJUNTO CEARÁ60530110FORTALEZA      CE0000000000000000                                                                       
1040001300354R 01000000000000000000000000000000000000000000000000212032018000000000000200                                                                                                                                                       
1040001300355P 0101298027300700000000000140000000000267341122026734          1203201800000000000198000000099N0603201821203201800000000000000000000000000000000000000000000000000000000000000000000026734                    3001700090000000000 
1040001300356Q 011000048595519315ALEX BRANDAO DE PAULA                  RUA MARCILIO DIAS                      CRISTO REDENTOR60310750FORTALEZA      CE0000000000000000                                                                       00
1040001300357R 01000000000000000000000000000000000000000000000000212032018000000000000200                                                                                                                                                       
1040001300358P 0101298027300700000000000140000000000267351122026735          1203201800000000000099000000099N0603201821203201800000000000000000000000000000000000000000000000000000000000000000000026735                    3001700090000000000 
1040001300359Q 011000006625536407EDUARDO ALVES DOS SANTOS MIRANDA        RUA J. O\'CALLAGHAM N°134 APTO.5 SÃO JSAO JORGE     69033100MANAUS         AM0000000000000000                                                                       0
1040001300360R 01000000000000000000000000000000000000000000000000212032018000000000000200                                                                                                                                                       
1040001300361P 0101298027300700000000000140000000000267361122026736          1203201800000000025280000000099N0603201821203201800000000000000000000000000000000000000000000000000000000000000000000026736                    3001700090000000000 
1040001300362Q 012025344785000140JOSE MAGNO FERREIRA DA SILVA            RUA CIDADE CONCEICAO                  BAIRRO DAS IND58083515JOAO PESSOA   PB0000000000000000                                                                       000
1040001300363R 01000000000000000000000000000000000000000000000000212032018000000000000200                                                                                                                                                       
1040001300364P 0101298027300700000000000140000000000267371122026737          1203201800000000001089000000099N0603201821203201800000000000000000000000000000000000000000000000000000000000000000000026737                    3001700090000000000 
1040001300365Q 012015589293000161FRANCA PINTO & CIA LTDA-EPP            RUA 1060                                CONJUNTO CEARÁ60533050FORTALEZA      CE0000000000000000                                                                       0
1040001300366R 01000000000000000000000000000000000000000000000000212032018000000000000200                                                                                                                                                       
1040001300367P 0101298027300700000000000140000000000267381122026738          1203201800000000000198000000099N0603201821203201800000000000000000000000000000000000000000000000000000000000000000000026738                    3001700090000000000 
1040001300368Q 011000095798420272JOAO VIEIRA DE MEDEIROS NETO            RUA DAS OLIVEIRAS N°112 BAIRRO NOVA ISRNOVA ISRAEL    69039205MANAUS         AM0000000000000000                                                                       
1040001300369R 01000000000000000000000000000000000000000000000000212032018000000000000200                                                                                                                                                       
1040001300370P 0101298027300700000000000140000000000267391122026739          1203201800000000000099000000099N0603201821203201800000000000000000000000000000000000000000000000000000000000000000000026739                    3001700090000000000 
1040001300371Q 011000027766148889GUSTAVO OLIVEIRA LEME                   RUA CARLOS INÁCIO ALVES N°767 JARDIM PJARDIM PEROLA 86038390LONDRINA       PR0000000000000000                                                                       0
1040001300372R 01000000000000000000000000000000000000000000000000212032018000000000000200                                                                                                                                                       
1040001300373P 0101298027300700000000000140000000000267401122026740          1203201800000000000099000000099N0603201821203201800000000000000000000000000000000000000000000000000000000000000000000026740                    3001700090000000000 
1040001300374Q 012000023573746167LELSON AMARAL MARTINS                   RUA 41                                  CURUMIM        76300000CERES          GO0000000000000000                                                                       
1040001300375R 01000000000000000000000000000000000000000000000000212032018000000000000200                                                                                                                                                       
1040001300376P 0101298027300700000000000140000000000267411122026741          1203201800000000000099000000099N0603201821203201800000000000000000000000000000000000000000000000000000000000000000000026741                    3001700090000000000 
1040001300377Q 011000050608282049FLAVIO HENRIQUE ASCARI                  RUA RIO DO SUL N°333                                  89620000CAMPOS NOVOS   SC0000000000000000                                                                       
1040001300378R 01000000000000000000000000000000000000000000000000212032018000000000000200                                                                                                                                                       
1040001300379P 0101298027300700000000000140000000000267421122026742          1203201800000000001089000000099N0603201821203201800000000000000000000000000000000000000000000000000000000000000000000026742                    3001700090000000000 
1040001300380Q 011000008423716643TATIANA GARCIA DE MORAIS                RUA MáRIO RIBEIRO LIMA, N°260 BOM JESU               37810000GUARANESIA    MG0000000000000000                                                                       0
1040001300381R 01000000000000000000000000000000000000000000000000212032018000000000000200                                                                                                                                                       
1040001300382P 0101298027300700000000000140000000000267431122026743          1203201800000000000534000000099N0603201821203201800000000000000000000000000000000000000000000000000000000000000000000026743                    3001700090000000000 
1040001300383Q 012013955553000140KLEITON MOURA DA PAIXAO                 AV. FELIPE CAMARAO QD.43 LT.15 GOIA 2  GOIANEA 2     74485320GOIANIA       GO0000000000000000                                                                       000
1040001300384R 01000000000000000000000000000000000000000000000000212032018000000000000200                                                                                                                                                       
1040001300385P 0101298027300700000000000140000000000267441122026744          1203201800000000000495000000099N0603201821203201800000000000000000000000000000000000000000000000000000000000000000000026744                    3001700090000000000 
1040001300386Q 012042793844000187LOCNORTE LOCADORA DE EQUIPAMENTOS P/ CONAV. DONA GREGORIA N°162 CIDADE NOVA    CIDADE NOVA    39400464MONTES CLAROS  MG0000000000000000                                                                       
1040001300387R 01000000000000000000000000000000000000000000000000212032018000000000000200                                                                                                                                                       
1040001300388P 0101298027300700000000000140000000000267451122026745          1203201800000000000198000000099N0603201821203201800000000000000000000000000000000000000000000000000000000000000000000026745                    3001700090000000000 
1040001300389Q 011000061444510304FRANCISCO OMILSON BARBOSA DA SILVA      RUA WALTER POMPEU N°400 APT. 201 BLC. 6ALVARO WEYNE,  60337120FORTALEZA      CE0000000000000000                                                                       
1040001300390R 01000000000000000000000000000000000000000000000000212032018000000000000200                                                                                                                                                       
1040001300391P 0101298027300700000000000140000000000267461122026746          1203201800000000000099000000099N0603201821203201800000000000000000000000000000000000000000000000000000000000000000000026746                    3001700090000000000 
1040001300392Q 011000054781949668NILTON LEFUNDES DA SILVA                RUA PORTO DA SAUDADE                    ITAIM PAULISTA 08132470SAO PAULO     SP0000000000000000                                                                       0
1040001300393R 01000000000000000000000000000000000000000000000000212032018000000000000200                                                                                                                                                       
1040001300394P 0101298027300700000000000140000000000267471122026747          1203201800000000000891000000099N0603201821203201800000000000000000000000000000000000000000000000000000000000000000000026747                    3001700090000000000 
1040001300395Q 011000003870412305DIEGO ALMEIDA DE OLIVEIRA               RUA NOSSA SENHORA DAS GRACAS           PIRAMBU        60310770FORTALEZA      CE0000000000000000                                                                       0
1040001300396R 01000000000000000000000000000000000000000000000000212032018000000000000200                                                                                                                                                       
1040001300397P 0101298027300700000000000140000000000267481122026748          1203201800000000000099000000099N0603201821203201800000000000000000000000000000000000000000000000000000000000000000000026748                    3001700090000000000 
1040001300398Q 011000001953016332JOSE ORLANDO                            RUA QUATORZE, QUADRA 25, CASA 17, BLOCO CIDADE OLíMPIC65058532SAO LUIS     MA0000000000000000                                                                       00
1040001300399R 01000000000000000000000000000000000000000000000000212032018000000000000200                                                                                                                                                       
1040001300400P 0101298027300700000000000140000000000267491122026749          1203201800000000001287000000099N0603201821203201800000000000000000000000000000000000000000000000000000000000000000000026749                    3001700090000000000 
1040001300401Q 012026097788000190JESSE RODRIGUES DE SOUSA 41194341845    RUA DOUTOR RUI BARBOSA                  JD DOS SCURSONI13150000COSMOPOLIS    SP0000000000000000                                                                       0
1040001300402R 01000000000000000000000000000000000000000000000000212032018000000000000200                                                                                                                                                       
1040001300403P 0101298027300700000000000140000000000267501122026750          1203201800000000005221000000099N0603201821203201800000000000000000000000000000000000000000000000000000000000000000000026750                    3001700090000000000 
1040001300404Q 011000007374853963WILLIAN AMARAL DE OLIVEIRA              RUA MARIA HELENICE TEDESCO ROSA         JD SANTA ALICE 86036694LONDRINA       PR0000000000000000                                                                       
1040001300405R 01000000000000000000000000000000000000000000000000212032018000000000000200                                                                                                                                                       
1040001300406P 0101298027300700000000000140000000000267511122026751          1203201800000000000099000000099N0603201821203201800000000000000000000000000000000000000000000000000000000000000000000026751                    3001700090000000000 
1040001300407Q 011000075176882353ALEXSANDRO ANDRADE SILVA                RUA 3, QUADRA D1, ARACAGY 6                           65110000SãO JOSé DE RMA0000000000000000                                                                       0
1040001300408R 01000000000000000000000000000000000000000000000000212032018000000000000200                                                                                                                                                       
1040001300409P 0101298027300700000000000140000000000267521122026752          1203201800000000000099000000099N0603201821203201800000000000000000000000000000000000000000000000000000000000000000000026752                    3001700090000000000 
1040001300410Q 011000071339493187ANTONIO DA COSTA AMANCIO                AV:LAMBARI                              CENTRO         76200000IPORA         GO0000000000000000                                                                       0
1040001300411R 01000000000000000000000000000000000000000000000000212032018000000000000200                                                                                                                                                       
1040001300412P 0101298027300700000000000140000000000267531122026753          1203201800000000004580000000099N0603201821203201800000000000000000000000000000000000000000000000000000000000000000000026753                    3001700090000000000 
1040001300413Q 011000076140881234JOSE NILSON SILVA DOS SANTOS            PASS. SAO RAIMUNDO                     ATALAIA        67013590ANANINDEUA     PA0000000000000000                                                                       0
