10400000         2116559540001590000000000000000000001298027300700000000FEDERAL SISTEMAS              CAIXA ECONOMICA FEDERAL                 10503201818555600003405000000                    REMESSA-PRODUCAO                                 
10400011R0100030 20116559540001592730070000000000000001298027300700000000FEDERAL SISTEMAS                                                                                              000000340503201800000000                                 
1040001300001P 0101298027300700000000000140000000000265951122026595          0603201800000000001583500000099N0503201820603201800000000000000000000000000000000000000000000000000000000000000000000026595                    3001700090000000000 
1040001300002Q 012011564055000140LOURDES FELICIANO DE DEUS               R 02                                    SETOR PLANALTO 76310000RIALMA         GO0000000000000000                                                                       
1040001300003R 01000000000000000000000000000000000000000000000000206032018000000000000200                                                                                                                                                       
1040001300004P 0101298027300700000000000140000000000265961122026596          1203201800000000002080000000099N0503201821203201800000000000000000000000000000000000000000000000000000000000000000000026596                    3001700090000000000 
1040001300005Q 012011564055000140LOURDES FELICIANO DE DEUS               R 02                                    SETOR PLANALTO 76310000RIALMA         GO0000000000000000                                                                       
1040001300006R 01000000000000000000000000000000000000000000000000212032018000000000000200                                                                                                                                                       
1040001300007P 0101298027300700000000000140000000000265971122026597          2903201800000000010920000000099N0503201822903201800000000000000000000000000000000000000000000000000000000000000000000026597                    3001700090000000000 
1040001300008Q 012011564055000140LOURDES FELICIANO DE DEUS               R 02                                    SETOR PLANALTO 76310000RIALMA         GO0000000000000000                                                                       
1040001300009R 01000000000000000000000000000000000000000000000000229032018000000000000200                                                                                                                                                       
1040001300010P 0101298027300700000000000140000000000265981122026598          1904201800000000007166600000099N0503201821904201800000000000000000000000000000000000000000000000000000000000000000000026598                    3001700090000000000 
1040001300011Q 012011564055000140LOURDES FELICIANO DE DEUS               R 02                                    SETOR PLANALTO 76310000RIALMA         GO0000000000000000                                                                       
1040001300012R 01000000000000000000000000000000000000000000000000219042018000000000000200                                                                                                                                                       
1040001300013P 0101298027300700000000000140000000000265991122026599          1905201800000000007166600000099N0503201821905201800000000000000000000000000000000000000000000000000000000000000000000026599                    3001700090000000000 
1040001300014Q 012011564055000140LOURDES FELICIANO DE DEUS               R 02                                    SETOR PLANALTO 76310000RIALMA         GO0000000000000000                                                                       
1040001300015R 01000000000000000000000000000000000000000000000000219052018000000000000200                                                                                                                                                       
1040001300016P 0101298027300700000000000140000000000266001122026600          1503201800000000019470000000099N0503201821503201800000000000000000000000000000000000000000000000000000000000000000000026600                    3001700090000000000 
1040001300017Q 012089723977008800TONIOLO BUSNELLO SA - TUNEIS TERR E PAVIRODOVIA GO 154 SEM NUMERO               ZONA RURAL     76370000ABADIA DE GOIáGO0000000000000000                                                                       
1040001300018R 01000000000000000000000000000000000000000000000000215032018000000000000200                                                                                                                                                       
1040001300019P 0101298027300700000000000140000000000266011122026601          0503201800000000000500000000099N0503201820503201800000000000000000000000000000000000000000000000000000000000000000000026601                    3001700090000000000 
1040001300020Q 011000026106856885ROBISON FRANCISCO DO NASCIMENTO         RUA GENERAL PRADO                       SANTOS DUMONT  49087245ARACAJU        SE0000000000000000                                                                       
1040001300021R 01000000000000000000000000000000000000000000000000205032018000000000000200                                                                                                                                                       
1040001300022P 0101298027300700000000000140000000000266021122026602          0504201800000000000500000000099N0503201820504201800000000000000000000000000000000000000000000000000000000000000000000026602                    3001700090000000000 
1040001300023Q 011000026106856885ROBISON FRANCISCO DO NASCIMENTO         RUA GENERAL PRADO                       SANTOS DUMONT  49087245ARACAJU        SE0000000000000000                                                                       
1040001300024R 01000000000000000000000000000000000000000000000000205042018000000000000200                                                                                                                                                       
1040001300025P 0101298027300700000000000140000000000266031122026603          0505201800000000000500000000099N0503201820505201800000000000000000000000000000000000000000000000000000000000000000000026603                    3001700090000000000 
1040001300026Q 011000026106856885ROBISON FRANCISCO DO NASCIMENTO         RUA GENERAL PRADO                       SANTOS DUMONT  49087245ARACAJU        SE0000000000000000                                                                       
1040001300027R 01000000000000000000000000000000000000000000000000205052018000000000000200                                                                                                                                                       
1040001300028P 0101298027300700000000000140000000000266041122026604          0506201800000000000500000000099N0503201820506201800000000000000000000000000000000000000000000000000000000000000000000026604                    3001700090000000000 
1040001300029Q 011000026106856885ROBISON FRANCISCO DO NASCIMENTO         RUA GENERAL PRADO                       SANTOS DUMONT  49087245ARACAJU        SE0000000000000000                                                                       
1040001300030R 01000000000000000000000000000000000000000000000000205062018000000000000200                                                                                                                                                       
1040001300031P 0101298027300700000000000140000000000266051122026605          0507201800000000000500000000099N0503201820507201800000000000000000000000000000000000000000000000000000000000000000000026605                    3001700090000000000 
1040001300032Q 011000026106856885ROBISON FRANCISCO DO NASCIMENTO         RUA GENERAL PRADO                       SANTOS DUMONT  49087245ARACAJU        SE0000000000000000                                                                       
1040001300033R 01000000000000000000000000000000000000000000000000205072018000000000000200                                                                                                                                                       
1040001300034P 0101298027300700000000000140000000000266061122026606          0508201800000000000500000000099N0503201820508201800000000000000000000000000000000000000000000000000000000000000000000026606                    3001700090000000000 
1040001300035Q 011000026106856885ROBISON FRANCISCO DO NASCIMENTO         RUA GENERAL PRADO                       SANTOS DUMONT  49087245ARACAJU        SE0000000000000000                                                                       
1040001300036R 01000000000000000000000000000000000000000000000000205082018000000000000200                                                                                                                                                       
1040001300037P 0101298027300700000000000140000000000266071122026607          0509201800000000000500000000099N0503201820509201800000000000000000000000000000000000000000000000000000000000000000000026607                    3001700090000000000 
1040001300038Q 011000026106856885ROBISON FRANCISCO DO NASCIMENTO         RUA GENERAL PRADO                       SANTOS DUMONT  49087245ARACAJU        SE0000000000000000                                                                       
1040001300039R 01000000000000000000000000000000000000000000000000205092018000000000000200                                                                                                                                                       
1040001300040P 0101298027300700000000000140000000000266081122026608          0510201800000000000500000000099N0503201820510201800000000000000000000000000000000000000000000000000000000000000000000026608                    3001700090000000000 
1040001300041Q 011000026106856885ROBISON FRANCISCO DO NASCIMENTO         RUA GENERAL PRADO                       SANTOS DUMONT  49087245ARACAJU        SE0000000000000000                                                                       
1040001300042R 01000000000000000000000000000000000000000000000000205102018000000000000200                                                                                                                                                       
1040001300043P 0101298027300700000000000140000000000266091122026609          0511201800000000000500000000099N0503201820511201800000000000000000000000000000000000000000000000000000000000000000000026609                    3001700090000000000 
1040001300044Q 011000026106856885ROBISON FRANCISCO DO NASCIMENTO         RUA GENERAL PRADO                       SANTOS DUMONT  49087245ARACAJU        SE0000000000000000                                                                       
1040001300045R 01000000000000000000000000000000000000000000000000205112018000000000000200                                                                                                                                                       
1040001300046P 0101298027300700000000000140000000000266101122026610          0512201800000000000500000000099N0503201820512201800000000000000000000000000000000000000000000000000000000000000000000026610                    3001700090000000000 
1040001300047Q 011000026106856885ROBISON FRANCISCO DO NASCIMENTO         RUA GENERAL PRADO                       SANTOS DUMONT  49087245ARACAJU        SE0000000000000000                                                                       
1040001300048R 01000000000000000000000000000000000000000000000000205122018000000000000200                                                                                                                                                       
1040001300049P 0101298027300700000000000140000000000266111122026611          0501201900000000000500000000099N0503201820501201900000000000000000000000000000000000000000000000000000000000000000000026611                    3001700090000000000 
1040001300050Q 011000026106856885ROBISON FRANCISCO DO NASCIMENTO         RUA GENERAL PRADO                       SANTOS DUMONT  49087245ARACAJU        SE0000000000000000                                                                       
1040001300051R 01000000000000000000000000000000000000000000000000205012019000000000000200                                                                                                                                                       
1040001300052P 0101298027300700000000000140000000000266121122026612          0502201900000000000500000000099N0503201820502201900000000000000000000000000000000000000000000000000000000000000000000026612                    3001700090000000000 
1040001300053Q 011000026106856885ROBISON FRANCISCO DO NASCIMENTO         RUA GENERAL PRADO                       SANTOS DUMONT  49087245ARACAJU        SE0000000000000000                                                                       
1040001300054R 01000000000000000000000000000000000000000000000000205022019000000000000200                                                                                                                                                       
1040001300055P 0101298027300700000000000140000000000266131122026613          1503201800000000075744200000099N0503201821503201800000000000000000000000000000000000000000000000000000000000000000000026613                    3001700090000000000 
1040001300056Q 011000001522833404PAULO FERNANDO CAVALCANTE DE MORAIS E OUFAZ BOA ESPERANCA KM5 QD 0 LT 0 N 05    ZONA RURAL     76343000               GO0000000000000000                                                                       
1040001300057R 01000000000000000000000000000000000000000000000000215032018000000000000200                                                                                                                                                       
10400015         000059000019000000000013013090000000000000000000000000000000000000000000000                                                                                                                                                    
10499999         000001000061                                                                                                                                                                                                                   