10400000         2116559540001590000000000000000000001298027300700000000FEDERAL SISTEMAS              CAIXA ECONOMICA FEDERAL                 10406201806324900011505000000                    REMESSA-PRODUCAO                                 
10400011R0100030 20116559540001592730070000000000000001298027300700000000FEDERAL SISTEMAS                                                                                              000001150406201800000000                                 
1040001300001P 0101298027300700000000000140000000000313301122031330          3005201800000000003560000000099N2505201823005201800000000000060000000000000000000000000000000000000000000000000000000031330                    3001029090000000000 
1040001300002Q 012010556911000153STAR SERVICOS DE CARGAS AEREAS LTDA Â­ MR 7 (CJ CAMPO DOS INGLESES)             JARDIM CEARENSE60712260FORTALEZA      CE0000000000000000                                                                       
1040001300003R 01000000000000000000000000000000000000000000000000230052018000000000000200                                                                                                                                                       
10400015         000005000001000000000000356000000000000000000000000000000000000000000000000                                                                                                                                                    
10499999         000001000007                                                                                                                                                                                                                   