10400000         2116559540001590000000000000000000001298027300700000000FEDERAL SISTEMAS              CAIXA ECONOMICA FEDERAL                 11807201810414000015205000000                    REMESSA-PRODUCAO                                 
10400011R0100030 20116559540001592730070000000000000001298027300700000000FEDERAL SISTEMAS                                                                                              000001521807201800000000                                 
1040001300001P 0101298027300700000000000140000000000340481122034048          2707201800000000097350000000099N1607201822707201800000000000060000000000000000000000000000000000000000000000000000000034048                    3001029090000000000 
1040001300002Q 012002635522000195JALLES MACHADO SA                       FAZ SAO PEDRO ROD GO 080 KM 75 1        ZONA RURAL     76380000GOIANESIA      GO0000000000000000                                                                       
1040001300003R 01000000000000000000000000000000000000000000000000227072018000000000000200                                                                                                                                                       
1040001300004P 0101298027300700000000000140000000000340501122034050          2007201800000000000590000000099N1607201822007201800000000000060000000000000000000000000000000000000000000000000000000034050                    3001029090000000000 
1040001300005Q 012022018510000129ANTONIO FERNANDO DE JESUS - ME          RUA 30 N 323                            CARRILHO       76380000GOIANESIA      GO0000000000000000                                                                       
1040001300006R 01000000000000000000000000000000000000000000000000220072018000000000000200                                                                                                                                                       
1040001300007P 0101298027300700000000000140000000000340511122034051          2008201800000000000590000000099N1607201822008201800000000000060000000000000000000000000000000000000000000000000000000034051                    3001029090000000000 
1040001300008Q 012022018510000129ANTONIO FERNANDO DE JESUS - ME          RUA 30 N 323                            CARRILHO       76380000GOIANESIA      GO0000000000000000                                                                       
1040001300009R 01000000000000000000000000000000000000000000000000220082018000000000000200                                                                                                                                                       
1040001300010P 0101298027300700000000000140000000000340521122034052          2009201800000000000590000000099N1607201822009201800000000000060000000000000000000000000000000000000000000000000000000034052                    3001029090000000000 
1040001300011Q 012022018510000129ANTONIO FERNANDO DE JESUS - ME          RUA 30 N 323                            CARRILHO       76380000GOIANESIA      GO0000000000000000                                                                       
1040001300012R 01000000000000000000000000000000000000000000000000220092018000000000000200                                                                                                                                                       
1040001300013P 0101298027300700000000000140000000000340531122034053          2010201800000000000590000000099N1607201822010201800000000000060000000000000000000000000000000000000000000000000000000034053                    3001029090000000000 
1040001300014Q 012022018510000129ANTONIO FERNANDO DE JESUS - ME          RUA 30 N 323                            CARRILHO       76380000GOIANESIA      GO0000000000000000                                                                       
1040001300015R 01000000000000000000000000000000000000000000000000220102018000000000000200                                                                                                                                                       
1040001300016P 0101298027300700000000000140000000000340541122034054          2011201800000000000590000000099N1607201822011201800000000000060000000000000000000000000000000000000000000000000000000034054                    3001029090000000000 
1040001300017Q 012022018510000129ANTONIO FERNANDO DE JESUS - ME          RUA 30 N 323                            CARRILHO       76380000GOIANESIA      GO0000000000000000                                                                       
1040001300018R 01000000000000000000000000000000000000000000000000220112018000000000000200                                                                                                                                                       
1040001300019P 0101298027300700000000000140000000000340551122034055          2012201800000000000590000000099N1607201822012201800000000000060000000000000000000000000000000000000000000000000000000034055                    3001029090000000000 
1040001300020Q 012022018510000129ANTONIO FERNANDO DE JESUS - ME          RUA 30 N 323                            CARRILHO       76380000GOIANESIA      GO0000000000000000                                                                       
1040001300021R 01000000000000000000000000000000000000000000000000220122018000000000000200                                                                                                                                                       
1040001300022P 0101298027300700000000000140000000000340561122034056          2001201900000000000590000000099N1607201822001201900000000000060000000000000000000000000000000000000000000000000000000034056                    3001029090000000000 
1040001300023Q 012022018510000129ANTONIO FERNANDO DE JESUS - ME          RUA 30 N 323                            CARRILHO       76380000GOIANESIA      GO0000000000000000                                                                       
1040001300024R 01000000000000000000000000000000000000000000000000220012019000000000000200                                                                                                                                                       
1040001300025P 0101298027300700000000000140000000000340571122034057          2002201900000000000590000000099N1607201822002201900000000000060000000000000000000000000000000000000000000000000000000034057                    3001029090000000000 
1040001300026Q 012022018510000129ANTONIO FERNANDO DE JESUS - ME          RUA 30 N 323                            CARRILHO       76380000GOIANESIA      GO0000000000000000                                                                       
1040001300027R 01000000000000000000000000000000000000000000000000220022019000000000000200                                                                                                                                                       
1040001300028P 0101298027300700000000000140000000000340581122034058          2003201900000000000590000000099N1607201822003201900000000000060000000000000000000000000000000000000000000000000000000034058                    3001029090000000000 
1040001300029Q 012022018510000129ANTONIO FERNANDO DE JESUS - ME          RUA 30 N 323                            CARRILHO       76380000GOIANESIA      GO0000000000000000                                                                       
1040001300030R 01000000000000000000000000000000000000000000000000220032019000000000000200                                                                                                                                                       
1040001300031P 0101298027300700000000000140000000000340591122034059          2004201900000000000590000000099N1607201822004201900000000000060000000000000000000000000000000000000000000000000000000034059                    3001029090000000000 
1040001300032Q 012022018510000129ANTONIO FERNANDO DE JESUS - ME          RUA 30 N 323                            CARRILHO       76380000GOIANESIA      GO0000000000000000                                                                       
1040001300033R 01000000000000000000000000000000000000000000000000220042019000000000000200                                                                                                                                                       
1040001300034P 0101298027300700000000000140000000000340601122034060          2005201900000000000590000000099N1607201822005201900000000000060000000000000000000000000000000000000000000000000000000034060                    3001029090000000000 
1040001300035Q 012022018510000129ANTONIO FERNANDO DE JESUS - ME          RUA 30 N 323                            CARRILHO       76380000GOIANESIA      GO0000000000000000                                                                       
1040001300036R 01000000000000000000000000000000000000000000000000220052019000000000000200                                                                                                                                                       
1040001300037P 0101298027300700000000000140000000000340611122034061          2006201900000000000590000000099N1607201822006201900000000000060000000000000000000000000000000000000000000000000000000034061                    3001029090000000000 
1040001300038Q 012022018510000129ANTONIO FERNANDO DE JESUS - ME          RUA 30 N 323                            CARRILHO       76380000GOIANESIA      GO0000000000000000                                                                       
1040001300039R 01000000000000000000000000000000000000000000000000220062019000000000000200                                                                                                                                                       
1040001300040P 0101298027300700000000000140000000000340621122034062          1707201800000000002000000000099N1607201821707201800000000000060000000000000000000000000000000000000000000000000000000034062                    3001029090000000000 
1040001300041Q 012011903208000137JEAN CARLOS LIMA BORGES 88333957315     R DOUTOR ATUALPA                        VILA ELLERY    60321070FORTALEZA      CE0000000000000000                                                                       
1040001300042R 01000000000000000000000000000000000000000000000000217072018000000000000200                                                                                                                                                       
1040001300043P 0101298027300700000000000140000000000340641122034064          1708201800000000004400000000099N1607201821708201800000000000060000000000000000000000000000000000000000000000000000000034064                    3001029090000000000 
1040001300044Q 012020086220000197RENATA PEREIRA MARTINS RODRIGUES - ME   RUA RIO BRANCO                          CENTRO         75960000ACREUNA        GO0000000000000000                                                                       
1040001300045R 01000000000000000000000000000000000000000000000000217082018000000000000200                                                                                                                                                       
1040001300046P 0101298027300700000000000140000000000340651122034065          1709201800000000004400000000099N1607201821709201800000000000060000000000000000000000000000000000000000000000000000000034065                    3001029090000000000 
1040001300047Q 012020086220000197RENATA PEREIRA MARTINS RODRIGUES - ME   RUA RIO BRANCO                          CENTRO         75960000ACREUNA        GO0000000000000000                                                                       
1040001300048R 01000000000000000000000000000000000000000000000000217092018000000000000200                                                                                                                                                       
1040001300049P 0101298027300700000000000140000000000340661122034066          1710201800000000004400000000099N1607201821710201800000000000060000000000000000000000000000000000000000000000000000000034066                    3001029090000000000 
1040001300050Q 012020086220000197RENATA PEREIRA MARTINS RODRIGUES - ME   RUA RIO BRANCO                          CENTRO         75960000ACREUNA        GO0000000000000000                                                                       
1040001300051R 01000000000000000000000000000000000000000000000000217102018000000000000200                                                                                                                                                       
1040001300052P 0101298027300700000000000140000000000340671122034067          1711201800000000004400000000099N1607201821711201800000000000060000000000000000000000000000000000000000000000000000000034067                    3001029090000000000 
1040001300053Q 012020086220000197RENATA PEREIRA MARTINS RODRIGUES - ME   RUA RIO BRANCO                          CENTRO         75960000ACREUNA        GO0000000000000000                                                                       
1040001300054R 01000000000000000000000000000000000000000000000000217112018000000000000200                                                                                                                                                       
1040001300055P 0101298027300700000000000140000000000340681122034068          1712201800000000004400000000099N1607201821712201800000000000060000000000000000000000000000000000000000000000000000000034068                    3001029090000000000 
1040001300056Q 012020086220000197RENATA PEREIRA MARTINS RODRIGUES - ME   RUA RIO BRANCO                          CENTRO         75960000ACREUNA        GO0000000000000000                                                                       
1040001300057R 01000000000000000000000000000000000000000000000000217122018000000000000200                                                                                                                                                       
1040001300058P 0101298027300700000000000140000000000340701122034070          1807201800000000000910000000099N1707201821807201800000000000060000000000000000000000000000000000000000000000000000000034070                    3001029090000000000 
1040001300059Q 011000080410251968JOSE CARLOS PEREIRA                     RUA DANIEL KRAUSE                       FIDELIS       89060108BLUMENAU       SC0000000000000000                                                                       0
1040001300060R 01000000000000000000000000000000000000000000000000218072018000000000000200                                                                                                                                                       
1040001300061P 0101298027300700000000000140000000000340711122034071          1807201800000000035000000000099N1707201821807201800000000000060000000000000000000000000000000000000000000000000000000034071                    3001029090000000000 
1040001300062Q 012015686018000166SRS TECNOLOGIA E SEGURANCA-SAMUEL       RUA SIMOES FILHO,BAIRRO - PRACA KENNEDY PRACA KENNEDY  48020540ALAGOINHAS     BA0000000000000000                                                                       
1040001300063R 01000000000000000000000000000000000000000000000000218072018000000000000200                                                                                                                                                       
1040001300064P 0101298027300700000000000140000000000340721122034072          1807201800000000022500000000099N1707201821807201800000000000060000000000000000000000000000000000000000000000000000000034072                    3001029090000000000 
1040001300065Q 012015686018000166SRS TECNOLOGIA E SEGURANCA-SAMUEL       RUA SIMOES FILHO,BAIRRO - PRACA KENNEDY PRACA KENNEDY  48020540ALAGOINHAS     BA0000000000000000                                                                       
1040001300066R 01000000000000000000000000000000000000000000000000218072018000000000000200                                                                                                                                                       
1040001300067P 0101298027300700000000000140000000000340731122034073          1907201800000000001060000000099N1807201821907201800000000000060000000000000000000000000000000000000000000000000000000034073                    3001029090000000000 
1040001300068Q 011000005265857818DAVID DIAS MARTINS                      TRAVESSA GUAPORE                       CERAMICA      69905050RIO BRANCO     AC0000000000000000                                                                       00
1040001300069R 01000000000000000000000000000000000000000000000000219072018000000000000200                                                                                                                                                       
1040001300070P 0101298027300700000000000140000000000340741122034074          1007201800000000008319000000099N1807201821007201800000000000060000000000000000000000000000000000000000000000000000000034074                    3001029090000000000 
1040001300071Q 011000064788865220ANA CRISTIANE DA ROCHA FUKUSHIMA        AV. DA REPUBLICA                        TRIANGULO      68790000SANTA ISABEL DOPA0000000000000000                                                                       
1040001300072R 01000000000000000000000000000000000000000000000000210072018000000000000200                                                                                                                                                       
1040001300073P 0101298027300700000000000140000000000340751122034075          1907201800000000000594000000099N1807201821907201800000000000060000000000000000000000000000000000000000000000000000000034075                    3001029090000000000 
1040001300074Q 011000000609295292MAURO CLAYTON PAIVA SOUZA               RUA IRINEU COLUCCO                      JARDIM HELENA  14094128RIBEIRãO PRETOSP0000000000000000                                                                       
1040001300075R 01000000000000000000000000000000000000000000000000219072018000000000000200                                                                                                                                                       
10400015         000077000025000000000019681300000000000000000000000000000000000000000000000                                                                                                                                                    
10499999         000001000079                                                                                                                                                                                                                   