10400000         2116559540001590000000000000000000001298027300700000000FEDERAL SISTEMAS              CAIXA ECONOMICA FEDERAL                 11409201810215200016505000000                    REMESSA-PRODUCAO                                 
10400011R0100030 20116559540001592730070000000000000001298027300700000000FEDERAL SISTEMAS                                                                                              000001651409201800000000                                 
1040001300001P 0101298027300700000000000140000000000326951122032695          2012201800000000000590000000099N2006201822012201800000000000060000000000000000000000000000000000000000000000000000000032695                    3001029090000000000 
1040001300002Q 012006122211000183VALDAIR PACHECO MORAIS - ME             AV. PRESIDENTE VARGAS                   CENTRO         76300000CERES          GO0000000000000000                                                                       
1040001300003R 01000000000000000000000000000000000000000000000000220122018000000000000200                                                                                                                                                       
1040001300004P 0101298027300700000000000140000000000326961122032696          2001201900000000000590000000099N2006201822001201900000000000060000000000000000000000000000000000000000000000000000000032696                    3001029090000000000 
1040001300005Q 012006122211000183VALDAIR PACHECO MORAIS - ME             AV. PRESIDENTE VARGAS                   CENTRO         76300000CERES          GO0000000000000000                                                                       
1040001300006R 01000000000000000000000000000000000000000000000000220012019000000000000200                                                                                                                                                       
1040001300007P 0101298027300700000000000140000000000326971122032697          2002201900000000000590000000099N2006201822002201900000000000060000000000000000000000000000000000000000000000000000000032697                    3001029090000000000 
1040001300008Q 012006122211000183VALDAIR PACHECO MORAIS - ME             AV. PRESIDENTE VARGAS                   CENTRO         76300000CERES          GO0000000000000000                                                                       
1040001300009R 01000000000000000000000000000000000000000000000000220022019000000000000200                                                                                                                                                       
1040001300010P 0101298027300700000000000140000000000326981122032698          2003201900000000000590000000099N2006201822003201900000000000060000000000000000000000000000000000000000000000000000000032698                    3001029090000000000 
1040001300011Q 012006122211000183VALDAIR PACHECO MORAIS - ME             AV. PRESIDENTE VARGAS                   CENTRO         76300000CERES          GO0000000000000000                                                                       
1040001300012R 01000000000000000000000000000000000000000000000000220032019000000000000200                                                                                                                                                       
1040001300013P 0101298027300700000000000140000000000326991122032699          2004201900000000000590000000099N2006201822004201900000000000060000000000000000000000000000000000000000000000000000000032699                    3001029090000000000 
1040001300014Q 012006122211000183VALDAIR PACHECO MORAIS - ME             AV. PRESIDENTE VARGAS                   CENTRO         76300000CERES          GO0000000000000000                                                                       
1040001300015R 01000000000000000000000000000000000000000000000000220042019000000000000200                                                                                                                                                       
1040001300016P 0101298027300700000000000140000000000327001122032700          2005201900000000000590000000099N2006201822005201900000000000060000000000000000000000000000000000000000000000000000000032700                    3001029090000000000 
1040001300017Q 012006122211000183VALDAIR PACHECO MORAIS - ME             AV. PRESIDENTE VARGAS                   CENTRO         76300000CERES          GO0000000000000000                                                                       
1040001300018R 01000000000000000000000000000000000000000000000000220052019000000000000200                                                                                                                                                       
1040001300019P 0101298027300700000000000140000000000327011122032701          1006201900000000000590000000099N2006201821006201900000000000060000000000000000000000000000000000000000000000000000000032701                    3001029090000000000 
1040001300020Q 012006122211000183VALDAIR PACHECO MORAIS - ME             AV. PRESIDENTE VARGAS                   CENTRO         76300000CERES          GO0000000000000000                                                                       
1040001300021R 01000000000000000000000000000000000000000000000000210062019000000000000200                                                                                                                                                       
1040001300022P 0101298027300700000000000140000000000327021122032702          2007201900000000000590000000099N2006201822007201900000000000060000000000000000000000000000000000000000000000000000000032702                    3001029090000000000 
1040001300023Q 012006122211000183VALDAIR PACHECO MORAIS - ME             AV. PRESIDENTE VARGAS                   CENTRO         76300000CERES          GO0000000000000000                                                                       
1040001300024R 01000000000000000000000000000000000000000000000000220072019000000000000200                                                                                                                                                       
1040001300025P 0101298027300700000000000140000000000327031122032703          2008201900000000000590000000099N2006201822008201900000000000060000000000000000000000000000000000000000000000000000000032703                    3001029090000000000 
1040001300026Q 012006122211000183VALDAIR PACHECO MORAIS - ME             AV. PRESIDENTE VARGAS                   CENTRO         76300000CERES          GO0000000000000000                                                                       
1040001300027R 01000000000000000000000000000000000000000000000000220082019000000000000200                                                                                                                                                       
1040001300028P 0101298027300700000000000140000000000327041122032704          2004201900000000000590000000099N2006201822004201900000000000060000000000000000000000000000000000000000000000000000000032704                    3001029090000000000 
1040001300029Q 012006122211000183VALDAIR PACHECO MORAIS - ME             AV. PRESIDENTE VARGAS                   CENTRO         76300000CERES          GO0000000000000000                                                                       
1040001300030R 01000000000000000000000000000000000000000000000000220042019000000000000200                                                                                                                                                       
1040001300031P 0101298027300700000000000140000000000327101122032710          2806201800000000002500000000099N2206201822806201800000000000060000000000000000000000000000000000000000000000000000000032710                    3001029090000000000 
1040001300032Q 012009509410000137W J LIMA LTDE ME                        AV. PRESIDENTE VARGAS                   CENTRO         76300000CERES          GO0000000000000000                                                                       
1040001300033R 01000000000000000000000000000000000000000000000000228062018000000000000200                                                                                                                                                       
1040001300034P 0101298027300700000000000140000000000327111122032711          2007201800000000000590000000099N2206201822007201800000000000060000000000000000000000000000000000000000000000000000000032711                    3001029090000000000 
1040001300035Q 012009509410000137W J LIMA LTDE ME                        AV. PRESIDENTE VARGAS                   CENTRO         76300000CERES          GO0000000000000000                                                                       
1040001300036R 01000000000000000000000000000000000000000000000000220072018000000000000200                                                                                                                                                       
1040001300037P 0101298027300700000000000140000000000327121122032712          2008201800000000000590000000099N2206201822008201800000000000060000000000000000000000000000000000000000000000000000000032712                    3001029090000000000 
1040001300038Q 012009509410000137W J LIMA LTDE ME                        AV. PRESIDENTE VARGAS                   CENTRO         76300000CERES          GO0000000000000000                                                                       
1040001300039R 01000000000000000000000000000000000000000000000000220082018000000000000200                                                                                                                                                       
1040001300040P 0101298027300700000000000140000000000327131122032713          2009201800000000000590000000099N2206201822009201800000000000060000000000000000000000000000000000000000000000000000000032713                    3001029090000000000 
1040001300041Q 012009509410000137W J LIMA LTDE ME                        AV. PRESIDENTE VARGAS                   CENTRO         76300000CERES          GO0000000000000000                                                                       
1040001300042R 01000000000000000000000000000000000000000000000000220092018000000000000200                                                                                                                                                       
1040001300043P 0101298027300700000000000140000000000327141122032714          2010201800000000000590000000099N2206201822010201800000000000060000000000000000000000000000000000000000000000000000000032714                    3001029090000000000 
1040001300044Q 012009509410000137W J LIMA LTDE ME                        AV. PRESIDENTE VARGAS                   CENTRO         76300000CERES          GO0000000000000000                                                                       
1040001300045R 01000000000000000000000000000000000000000000000000220102018000000000000200                                                                                                                                                       
1040001300046P 0101298027300700000000000140000000000327151122032715          2011201800000000000590000000099N2206201822011201800000000000060000000000000000000000000000000000000000000000000000000032715                    3001029090000000000 
1040001300047Q 012009509410000137W J LIMA LTDE ME                        AV. PRESIDENTE VARGAS                   CENTRO         76300000CERES          GO0000000000000000                                                                       
1040001300048R 01000000000000000000000000000000000000000000000000220112018000000000000200                                                                                                                                                       
1040001300049P 0101298027300700000000000140000000000327161122032716          2012201800000000000590000000099N2206201822012201800000000000060000000000000000000000000000000000000000000000000000000032716                    3001029090000000000 
1040001300050Q 012009509410000137W J LIMA LTDE ME                        AV. PRESIDENTE VARGAS                   CENTRO         76300000CERES          GO0000000000000000                                                                       
1040001300051R 01000000000000000000000000000000000000000000000000220122018000000000000200                                                                                                                                                       
1040001300052P 0101298027300700000000000140000000000327171122032717          2001201900000000000590000000099N2206201822001201900000000000060000000000000000000000000000000000000000000000000000000032717                    3001029090000000000 
1040001300053Q 012009509410000137W J LIMA LTDE ME                        AV. PRESIDENTE VARGAS                   CENTRO         76300000CERES          GO0000000000000000                                                                       
1040001300054R 01000000000000000000000000000000000000000000000000220012019000000000000200                                                                                                                                                       
1040001300055P 0101298027300700000000000140000000000327181122032718          2002201900000000000590000000099N2206201822002201900000000000060000000000000000000000000000000000000000000000000000000032718                    3001029090000000000 
1040001300056Q 012009509410000137W J LIMA LTDE ME                        AV. PRESIDENTE VARGAS                   CENTRO         76300000CERES          GO0000000000000000                                                                       
1040001300057R 01000000000000000000000000000000000000000000000000220022019000000000000200                                                                                                                                                       
1040001300058P 0101298027300700000000000140000000000327191122032719          2003201900000000000590000000099N2206201822003201900000000000060000000000000000000000000000000000000000000000000000000032719                    3001029090000000000 
1040001300059Q 012009509410000137W J LIMA LTDE ME                        AV. PRESIDENTE VARGAS                   CENTRO         76300000CERES          GO0000000000000000                                                                       
1040001300060R 01000000000000000000000000000000000000000000000000220032019000000000000200                                                                                                                                                       
1040001300061P 0101298027300700000000000140000000000327201122032720          2004201900000000000590000000099N2206201822004201900000000000060000000000000000000000000000000000000000000000000000000032720                    3001029090000000000 
1040001300062Q 012009509410000137W J LIMA LTDE ME                        AV. PRESIDENTE VARGAS                   CENTRO         76300000CERES          GO0000000000000000                                                                       
1040001300063R 01000000000000000000000000000000000000000000000000220042019000000000000200                                                                                                                                                       
1040001300064P 0101298027300700000000000140000000000327211122032721          2005201900000000000590000000099N2206201822005201900000000000060000000000000000000000000000000000000000000000000000000032721                    3001029090000000000 
1040001300065Q 012009509410000137W J LIMA LTDE ME                        AV. PRESIDENTE VARGAS                   CENTRO         76300000CERES          GO0000000000000000                                                                       
1040001300066R 01000000000000000000000000000000000000000000000000220052019000000000000200                                                                                                                                                       
1040001300067P 0101298027300700000000000140000000000327221122032722          2006201900000000000590000000099N2206201822006201900000000000060000000000000000000000000000000000000000000000000000000032722                    3001029090000000000 
1040001300068Q 012009509410000137W J LIMA LTDE ME                        AV. PRESIDENTE VARGAS                   CENTRO         76300000CERES          GO0000000000000000                                                                       
1040001300069R 01000000000000000000000000000000000000000000000000220062019000000000000200                                                                                                                                                       
1040001300070P 0101298027300700000000000140000000000327251122032725          2003201800000000004500000000099N2306201822003201800000000000060000000000000000000000000000000000000000000000000000000032725                    3001029090000000000 
1040001300071Q 011000000271890150ELIZANGELA MARIA ALVES OLIVEIRA         AV. PRESIDENTE VARGAS                   CENTRO         76300000CERES          GO0000000000000000                                                                       
1040001300072R 01000000000000000000000000000000000000000000000000220032018000000000000200                                                                                                                                                       
1040001300073P 0101298027300700000000000140000000000327261122032726          1511201800000000005000000000099N2406201821511201800000000000060000000000000000000000000000000000000000000000000000000032726                    3001029090000000000 
1040001300074Q 011000030731038134JOSE LUIZ LAGARES                       AV. PRESIDENTE VARGAS                   CENTRO         76300000CERES          GO0000000000000000                                                                       
1040001300075R 01000000000000000000000000000000000000000000000000215112018000000000000200                                                                                                                                                       
1040001300076P 0101298027300700000000000140000000000327271122032727          2507201800000000000597000000099N2506201822507201800000000000060000000000000000000000000000000000000000000000000000000032727                    3001029090000000000 
1040001300077Q 011000000036551139JACKSON MANOEL DA COSTA                 AV. PRESIDENTE VARGAS                   CENTRO         76300000CERES          GO0000000000000000                                                                       
1040001300078R 01000000000000000000000000000000000000000000000000225072018000000000000200                                                                                                                                                       
1040001300079P 0101298027300700000000000140000000000327281122032728          2508201800000000000597000000099N2506201822508201800000000000060000000000000000000000000000000000000000000000000000000032728                    3001029090000000000 
1040001300080Q 011000000036551139JACKSON MANOEL DA COSTA                 AV. PRESIDENTE VARGAS                   CENTRO         76300000CERES          GO0000000000000000                                                                       
1040001300081R 01000000000000000000000000000000000000000000000000225082018000000000000200                                                                                                                                                       
1040001300082P 0101298027300700000000000140000000000327291122032729          2509201800000000000597000000099N2506201822509201800000000000060000000000000000000000000000000000000000000000000000000032729                    3001029090000000000 
1040001300083Q 011000000036551139JACKSON MANOEL DA COSTA                 AV. PRESIDENTE VARGAS                   CENTRO         76300000CERES          GO0000000000000000                                                                       
1040001300084R 01000000000000000000000000000000000000000000000000225092018000000000000200                                                                                                                                                       
1040001300085P 0101298027300700000000000140000000000327301122032730          2510201800000000000597000000099N2506201822510201800000000000060000000000000000000000000000000000000000000000000000000032730                    3001029090000000000 
1040001300086Q 011000000036551139JACKSON MANOEL DA COSTA                 AV. PRESIDENTE VARGAS                   CENTRO         76300000CERES          GO0000000000000000                                                                       
1040001300087R 01000000000000000000000000000000000000000000000000225102018000000000000200                                                                                                                                                       
1040001300088P 0101298027300700000000000140000000000327311122032731          2511201800000000000597000000099N2506201822511201800000000000060000000000000000000000000000000000000000000000000000000032731                    3001029090000000000 
1040001300089Q 011000000036551139JACKSON MANOEL DA COSTA                 AV. PRESIDENTE VARGAS                   CENTRO         76300000CERES          GO0000000000000000                                                                       
1040001300090R 01000000000000000000000000000000000000000000000000225112018000000000000200                                                                                                                                                       
1040001300091P 0101298027300700000000000140000000000327321122032732          2512201800000000000597000000099N2506201822512201800000000000060000000000000000000000000000000000000000000000000000000032732                    3001029090000000000 
1040001300092Q 011000000036551139JACKSON MANOEL DA COSTA                 AV. PRESIDENTE VARGAS                   CENTRO         76300000CERES          GO0000000000000000                                                                       
1040001300093R 01000000000000000000000000000000000000000000000000225122018000000000000200                                                                                                                                                       
1040001300094P 0101298027300700000000000140000000000327331122032733          2501201900000000000597000000099N2506201822501201900000000000060000000000000000000000000000000000000000000000000000000032733                    3001029090000000000 
1040001300095Q 011000000036551139JACKSON MANOEL DA COSTA                 AV. PRESIDENTE VARGAS                   CENTRO         76300000CERES          GO0000000000000000                                                                       
1040001300096R 01000000000000000000000000000000000000000000000000225012019000000000000200                                                                                                                                                       
1040001300097P 0101298027300700000000000140000000000327341122032734          2502201900000000000597000000099N2506201822502201900000000000060000000000000000000000000000000000000000000000000000000032734                    3001029090000000000 
1040001300098Q 011000000036551139JACKSON MANOEL DA COSTA                 AV. PRESIDENTE VARGAS                   CENTRO         76300000CERES          GO0000000000000000                                                                       
1040001300099R 01000000000000000000000000000000000000000000000000225022019000000000000200                                                                                                                                                       
1040001300100P 0101298027300700000000000140000000000327351122032735          2503201900000000000597000000099N2506201822503201900000000000060000000000000000000000000000000000000000000000000000000032735                    3001029090000000000 
1040001300101Q 011000000036551139JACKSON MANOEL DA COSTA                 AV. PRESIDENTE VARGAS                   CENTRO         76300000CERES          GO0000000000000000                                                                       
1040001300102R 01000000000000000000000000000000000000000000000000225032019000000000000200                                                                                                                                                       
1040001300103P 0101298027300700000000000140000000000327361122032736          2504201900000000000597000000099N2506201822504201900000000000060000000000000000000000000000000000000000000000000000000032736                    3001029090000000000 
1040001300104Q 011000000036551139JACKSON MANOEL DA COSTA                 AV. PRESIDENTE VARGAS                   CENTRO         76300000CERES          GO0000000000000000                                                                       
1040001300105R 01000000000000000000000000000000000000000000000000225042019000000000000200                                                                                                                                                       
1040001300106P 0101298027300700000000000140000000000327371122032737          2505201900000000000597000000099N2506201822505201900000000000060000000000000000000000000000000000000000000000000000000032737                    3001029090000000000 
1040001300107Q 011000000036551139JACKSON MANOEL DA COSTA                 AV. PRESIDENTE VARGAS                   CENTRO         76300000CERES          GO0000000000000000                                                                       
1040001300108R 01000000000000000000000000000000000000000000000000225052019000000000000200                                                                                                                                                       
1040001300109P 0101298027300700000000000140000000000327381122032738          2506201900000000000597000000099N2506201822506201900000000000060000000000000000000000000000000000000000000000000000000032738                    3001029090000000000 
1040001300110Q 011000000036551139JACKSON MANOEL DA COSTA                 AV. PRESIDENTE VARGAS                   CENTRO         76300000CERES          GO0000000000000000                                                                       
1040001300111R 01000000000000000000000000000000000000000000000000225062019000000000000200                                                                                                                                                       
1040001300112P 0101298027300700000000000140000000000327411122032741          1007201800000000003000000000099N2606201821007201800000000000060000000000000000000000000000000000000000000000000000000032741                    3001029090000000000 
1040001300113Q 012002439316000100SUPERMERCADO COMPERFRUTAS LTDA ME       AV. PRESIDENTE VARGAS                   CENTRO         76300000CERES          GO0000000000000000                                                                       
1040001300114R 01000000000000000000000000000000000000000000000000210072018000000000000200                                                                                                                                                       
1040001300115P 0101298027300700000000000140000000000327421122032742          1008201800000000003000000000099N2606201821008201800000000000060000000000000000000000000000000000000000000000000000000032742                    3001029090000000000 
1040001300116Q 012002439316000100SUPERMERCADO COMPERFRUTAS LTDA ME       AV. PRESIDENTE VARGAS                   CENTRO         76300000CERES          GO0000000000000000                                                                       
1040001300117R 01000000000000000000000000000000000000000000000000210082018000000000000200                                                                                                                                                       
1040001300118P 0101298027300700000000000140000000000327431122032743          1009201800000000003000000000099N2606201821009201800000000000060000000000000000000000000000000000000000000000000000000032743                    3001029090000000000 
1040001300119Q 012002439316000100SUPERMERCADO COMPERFRUTAS LTDA ME       AV. PRESIDENTE VARGAS                   CENTRO         76300000CERES          GO0000000000000000                                                                       
1040001300120R 01000000000000000000000000000000000000000000000000210092018000000000000200                                                                                                                                                       
1040001300121P 0101298027300700000000000140000000000327441122032744          1010201800000000003000000000099N2606201821010201800000000000060000000000000000000000000000000000000000000000000000000032744                    3001029090000000000 
1040001300122Q 012002439316000100SUPERMERCADO COMPERFRUTAS LTDA ME       AV. PRESIDENTE VARGAS                   CENTRO         76300000CERES          GO0000000000000000                                                                       
1040001300123R 01000000000000000000000000000000000000000000000000210102018000000000000200                                                                                                                                                       
1040001300124P 0101298027300700000000000140000000000327451122032745          1011201800000000003000000000099N2606201821011201800000000000060000000000000000000000000000000000000000000000000000000032745                    3001029090000000000 
1040001300125Q 012002439316000100SUPERMERCADO COMPERFRUTAS LTDA ME       AV. PRESIDENTE VARGAS                   CENTRO         76300000CERES          GO0000000000000000                                                                       
1040001300126R 01000000000000000000000000000000000000000000000000210112018000000000000200                                                                                                                                                       
1040001300127P 0101298027300700000000000140000000000327461122032746          1012201800000000003000000000099N2606201821012201800000000000060000000000000000000000000000000000000000000000000000000032746                    3001029090000000000 
1040001300128Q 012002439316000100SUPERMERCADO COMPERFRUTAS LTDA ME       AV. PRESIDENTE VARGAS                   CENTRO         76300000CERES          GO0000000000000000                                                                       
1040001300129R 01000000000000000000000000000000000000000000000000210122018000000000000200                                                                                                                                                       
1040001300130P 0101298027300700000000000140000000000327471122032747          1001201900000000003000000000099N2606201821001201900000000000060000000000000000000000000000000000000000000000000000000032747                    3001029090000000000 
1040001300131Q 012002439316000100SUPERMERCADO COMPERFRUTAS LTDA ME       AV. PRESIDENTE VARGAS                   CENTRO         76300000CERES          GO0000000000000000                                                                       
1040001300132R 01000000000000000000000000000000000000000000000000210012019000000000000200                                                                                                                                                       
1040001300133P 0101298027300700000000000140000000000327481122032748          1002201900000000003000000000099N2606201821002201900000000000060000000000000000000000000000000000000000000000000000000032748                    3001029090000000000 
1040001300134Q 012002439316000100SUPERMERCADO COMPERFRUTAS LTDA ME       AV. PRESIDENTE VARGAS                   CENTRO         76300000CERES          GO0000000000000000                                                                       
1040001300135R 01000000000000000000000000000000000000000000000000210022019000000000000200                                                                                                                                                       
1040001300136P 0101298027300700000000000140000000000327491122032749          1003201900000000003000000000099N2606201821003201900000000000060000000000000000000000000000000000000000000000000000000032749                    3001029090000000000 
1040001300137Q 012002439316000100SUPERMERCADO COMPERFRUTAS LTDA ME       AV. PRESIDENTE VARGAS                   CENTRO         76300000CERES          GO0000000000000000                                                                       
1040001300138R 01000000000000000000000000000000000000000000000000210032019000000000000200                                                                                                                                                       
1040001300139P 0101298027300700000000000140000000000327501122032750          1004201900000000003000000000099N2606201821004201900000000000060000000000000000000000000000000000000000000000000000000032750                    3001029090000000000 
1040001300140Q 012002439316000100SUPERMERCADO COMPERFRUTAS LTDA ME       AV. PRESIDENTE VARGAS                   CENTRO         76300000CERES          GO0000000000000000                                                                       
1040001300141R 01000000000000000000000000000000000000000000000000210042019000000000000200                                                                                                                                                       
1040001300142P 0101298027300700000000000140000000000327511122032751          1005201900000000003000000000099N2606201821005201900000000000060000000000000000000000000000000000000000000000000000000032751                    3001029090000000000 
1040001300143Q 012002439316000100SUPERMERCADO COMPERFRUTAS LTDA ME       AV. PRESIDENTE VARGAS                   CENTRO         76300000CERES          GO0000000000000000                                                                       
1040001300144R 01000000000000000000000000000000000000000000000000210052019000000000000200                                                                                                                                                       
1040001300145P 0101298027300700000000000140000000000327561122032756          1007201800000000004000000000099N2706201821007201800000000000060000000000000000000000000000000000000000000000000000000032756                    3001029090000000000 
1040001300146Q 012005151767000135MAGRIL MOTOCICLETAS LTDA                AV. PRESIDENTE VARGAS                   CENTRO         76300000CERES          GO0000000000000000                                                                       
1040001300147R 01000000000000000000000000000000000000000000000000210072018000000000000200                                                                                                                                                       
1040001300148P 0101298027300700000000000140000000000327601122032760          2007201900000000000590000000099N2806201822007201900000000000060000000000000000000000000000000000000000000000000000000032760                    3001029090000000000 
1040001300149Q 012004388296000110GERALDO GOMES E PACHECO LTDA ME         AV. PRESIDENTE VARGAS                   CENTRO         76300000CERES          GO0000000000000000                                                                       
1040001300150R 01000000000000000000000000000000000000000000000000220072019000000000000200                                                                                                                                                       
1040001300151P 0101298027300700000000000140000000000327611122032761          2008201900000000000590000000099N2806201822008201900000000000060000000000000000000000000000000000000000000000000000000032761                    3001029090000000000 
1040001300152Q 012004388296000110GERALDO GOMES E PACHECO LTDA ME         AV. PRESIDENTE VARGAS                   CENTRO         76300000CERES          GO0000000000000000                                                                       
1040001300153R 01000000000000000000000000000000000000000000000000220082019000000000000200                                                                                                                                                       
1040001300154P 0101298027300700000000000140000000000327621122032762          2009201900000000000590000000099N2806201822009201900000000000060000000000000000000000000000000000000000000000000000000032762                    3001029090000000000 
1040001300155Q 012004388296000110GERALDO GOMES E PACHECO LTDA ME         AV. PRESIDENTE VARGAS                   CENTRO         76300000CERES          GO0000000000000000                                                                       
1040001300156R 01000000000000000000000000000000000000000000000000220092019000000000000200                                                                                                                                                       
1040001300157P 0101298027300700000000000140000000000327631122032763          2010201900000000000590000000099N2806201822010201900000000000060000000000000000000000000000000000000000000000000000000032763                    3001029090000000000 
1040001300158Q 012004388296000110GERALDO GOMES E PACHECO LTDA ME         AV. PRESIDENTE VARGAS                   CENTRO         76300000CERES          GO0000000000000000                                                                       
1040001300159R 01000000000000000000000000000000000000000000000000220102019000000000000200                                                                                                                                                       
1040001300160P 0101298027300700000000000140000000000327641122032764          2011201900000000000590000000099N2806201822011201900000000000060000000000000000000000000000000000000000000000000000000032764                    3001029090000000000 
1040001300161Q 012004388296000110GERALDO GOMES E PACHECO LTDA ME         AV. PRESIDENTE VARGAS                   CENTRO         76300000CERES          GO0000000000000000                                                                       
1040001300162R 01000000000000000000000000000000000000000000000000220112019000000000000200                                                                                                                                                       
1040001300163P 0101298027300700000000000140000000000327651122032765          2012201900000000000590000000099N2806201822012201900000000000060000000000000000000000000000000000000000000000000000000032765                    3001029090000000000 
1040001300164Q 012004388296000110GERALDO GOMES E PACHECO LTDA ME         AV. PRESIDENTE VARGAS                   CENTRO         76300000CERES          GO0000000000000000                                                                       
1040001300165R 01000000000000000000000000000000000000000000000000220122019000000000000200                                                                                                                                                       
1040001300166P 0101298027300700000000000140000000000327661122032766          2001202000000000000590000000099N2806201822001202000000000000060000000000000000000000000000000000000000000000000000000032766                    3001029090000000000 
1040001300167Q 012004388296000110GERALDO GOMES E PACHECO LTDA ME         AV. PRESIDENTE VARGAS                   CENTRO         76300000CERES          GO0000000000000000                                                                       
1040001300168R 01000000000000000000000000000000000000000000000000220012020000000000000200                                                                                                                                                       
1040001300169P 0101298027300700000000000140000000000327671122032767          2002202000000000000590000000099N2806201822002202000000000000060000000000000000000000000000000000000000000000000000000032767                    3001029090000000000 
1040001300170Q 012004388296000110GERALDO GOMES E PACHECO LTDA ME         AV. PRESIDENTE VARGAS                   CENTRO         76300000CERES          GO0000000000000000                                                                       
1040001300171R 01000000000000000000000000000000000000000000000000220022020000000000000200                                                                                                                                                       
1040001300172P 0101298027300700000000000140000000000327681122032768          2003202000000000000590000000099N2806201822003202000000000000060000000000000000000000000000000000000000000000000000000032768                    3001029090000000000 
1040001300173Q 012004388296000110GERALDO GOMES E PACHECO LTDA ME         AV. PRESIDENTE VARGAS                   CENTRO         76300000CERES          GO0000000000000000                                                                       
1040001300174R 01000000000000000000000000000000000000000000000000220032020000000000000200                                                                                                                                                       
1040001300175P 0101298027300700000000000140000000000327691122032769          2004202000000000000590000000099N2806201822004202000000000000060000000000000000000000000000000000000000000000000000000032769                    3001029090000000000 
1040001300176Q 012004388296000110GERALDO GOMES E PACHECO LTDA ME         AV. PRESIDENTE VARGAS                   CENTRO         76300000CERES          GO0000000000000000                                                                       
1040001300177R 01000000000000000000000000000000000000000000000000220042020000000000000200                                                                                                                                                       
1040001300178P 0101298027300700000000000140000000000327701122032770          2005202000000000000590000000099N2806201822005202000000000000060000000000000000000000000000000000000000000000000000000032770                    3001029090000000000 
1040001300179Q 012004388296000110GERALDO GOMES E PACHECO LTDA ME         AV. PRESIDENTE VARGAS                   CENTRO         76300000CERES          GO0000000000000000                                                                       
1040001300180R 01000000000000000000000000000000000000000000000000220052020000000000000200                                                                                                                                                       
1040001300181P 0101298027300700000000000140000000000327711122032771          2006202000000000000590000000099N2806201822006202000000000000060000000000000000000000000000000000000000000000000000000032771                    3001029090000000000 
1040001300182Q 012004388296000110GERALDO GOMES E PACHECO LTDA ME         AV. PRESIDENTE VARGAS                   CENTRO         76300000CERES          GO0000000000000000                                                                       
1040001300183R 01000000000000000000000000000000000000000000000000220062020000000000000200                                                                                                                                                       
1040001300184P 0101298027300700000000000140000000000328841122032884          2507201800000000010000000000099N0707201822507201800000000000060000000000000000000000000000000000000000000000000000000032884                    3001029090000000000 
1040001300185Q 012030693033000125EL SHADAI PRODUTOS PARA FESTA EIRELI    AV. PRESIDENTE VARGAS                   CENTRO         76300000CERES          GO0000000000000000                                                                       
1040001300186R 01000000000000000000000000000000000000000000000000225072018000000000000200                                                                                                                                                       
1040001300187P 0101298027300700000000000140000000000328851122032885          2008201800000000003300000000099N0707201822008201800000000000060000000000000000000000000000000000000000000000000000000032885                    3001029090000000000 
1040001300188Q 012030693033000125EL SHADAI PRODUTOS PARA FESTA EIRELI    AV. PRESIDENTE VARGAS                   CENTRO         76300000CERES          GO0000000000000000                                                                       
1040001300189R 01000000000000000000000000000000000000000000000000220082018000000000000200                                                                                                                                                       
1040001300190P 0101298027300700000000000140000000000328861122032886          2009201800000000003300000000099N0707201822009201800000000000060000000000000000000000000000000000000000000000000000000032886                    3001029090000000000 
1040001300191Q 012030693033000125EL SHADAI PRODUTOS PARA FESTA EIRELI    AV. PRESIDENTE VARGAS                   CENTRO         76300000CERES          GO0000000000000000                                                                       
1040001300192R 01000000000000000000000000000000000000000000000000220092018000000000000200                                                                                                                                                       
1040001300193P 0101298027300700000000000140000000000328871122032887          2010201800000000003300000000099N0707201822010201800000000000060000000000000000000000000000000000000000000000000000000032887                    3001029090000000000 
1040001300194Q 012030693033000125EL SHADAI PRODUTOS PARA FESTA EIRELI    AV. PRESIDENTE VARGAS                   CENTRO         76300000CERES          GO0000000000000000                                                                       
1040001300195R 01000000000000000000000000000000000000000000000000220102018000000000000200                                                                                                                                                       
1040001300196P 0101298027300700000000000140000000000328881122032888          2011201800000000003300000000099N0707201822011201800000000000060000000000000000000000000000000000000000000000000000000032888                    3001029090000000000 
1040001300197Q 012030693033000125EL SHADAI PRODUTOS PARA FESTA EIRELI    AV. PRESIDENTE VARGAS                   CENTRO         76300000CERES          GO0000000000000000                                                                       
1040001300198R 01000000000000000000000000000000000000000000000000220112018000000000000200                                                                                                                                                       
1040001300199P 0101298027300700000000000140000000000328891122032889          2012201800000000003300000000099N0707201822012201800000000000060000000000000000000000000000000000000000000000000000000032889                    3001029090000000000 
1040001300200Q 012030693033000125EL SHADAI PRODUTOS PARA FESTA EIRELI    AV. PRESIDENTE VARGAS                   CENTRO         76300000CERES          GO0000000000000000                                                                       
1040001300201R 01000000000000000000000000000000000000000000000000220122018000000000000200                                                                                                                                                       
1040001300202P 0101298027300700000000000140000000000328901122032890          2001201900000000003300000000099N0707201822001201900000000000060000000000000000000000000000000000000000000000000000000032890                    3001029090000000000 
1040001300203Q 012030693033000125EL SHADAI PRODUTOS PARA FESTA EIRELI    AV. PRESIDENTE VARGAS                   CENTRO         76300000CERES          GO0000000000000000                                                                       
1040001300204R 01000000000000000000000000000000000000000000000000220012019000000000000200                                                                                                                                                       
1040001300205P 0101298027300700000000000140000000000328911122032891          2002201900000000003300000000099N0707201822002201900000000000060000000000000000000000000000000000000000000000000000000032891                    3001029090000000000 
1040001300206Q 012030693033000125EL SHADAI PRODUTOS PARA FESTA EIRELI    AV. PRESIDENTE VARGAS                   CENTRO         76300000CERES          GO0000000000000000                                                                       
1040001300207R 01000000000000000000000000000000000000000000000000220022019000000000000200                                                                                                                                                       
1040001300208P 0101298027300700000000000140000000000328921122032892          2003201900000000003300000000099N0707201822003201900000000000060000000000000000000000000000000000000000000000000000000032892                    3001029090000000000 
1040001300209Q 012030693033000125EL SHADAI PRODUTOS PARA FESTA EIRELI    AV. PRESIDENTE VARGAS                   CENTRO         76300000CERES          GO0000000000000000                                                                       
1040001300210R 01000000000000000000000000000000000000000000000000220032019000000000000200                                                                                                                                                       
1040001300211P 0101298027300700000000000140000000000328931122032893          2004201900000000003300000000099N0707201822004201900000000000060000000000000000000000000000000000000000000000000000000032893                    3001029090000000000 
1040001300212Q 012030693033000125EL SHADAI PRODUTOS PARA FESTA EIRELI    AV. PRESIDENTE VARGAS                   CENTRO         76300000CERES          GO0000000000000000                                                                       
1040001300213R 01000000000000000000000000000000000000000000000000220042019000000000000200                                                                                                                                                       
1040001300214P 0101298027300700000000000140000000000328941122032894          2005201900000000003300000000099N0707201822005201900000000000060000000000000000000000000000000000000000000000000000000032894                    3001029090000000000 
1040001300215Q 012030693033000125EL SHADAI PRODUTOS PARA FESTA EIRELI    AV. PRESIDENTE VARGAS                   CENTRO         76300000CERES          GO0000000000000000                                                                       
1040001300216R 01000000000000000000000000000000000000000000000000220052019000000000000200                                                                                                                                                       
1040001300217P 0101298027300700000000000140000000000328951122032895          2006201900000000003300000000099N0707201822006201900000000000060000000000000000000000000000000000000000000000000000000032895                    3001029090000000000 
1040001300218Q 012030693033000125EL SHADAI PRODUTOS PARA FESTA EIRELI    AV. PRESIDENTE VARGAS                   CENTRO         76300000CERES          GO0000000000000000                                                                       
1040001300219R 01000000000000000000000000000000000000000000000000220062019000000000000200                                                                                                                                                       
1040001300220P 0101298027300700000000000140000000000328961122032896          2007201900000000003300000000099N0707201822007201900000000000060000000000000000000000000000000000000000000000000000000032896                    3001029090000000000 
1040001300221Q 012030693033000125EL SHADAI PRODUTOS PARA FESTA EIRELI    AV. PRESIDENTE VARGAS                   CENTRO         76300000CERES          GO0000000000000000                                                                       
1040001300222R 01000000000000000000000000000000000000000000000000220072019000000000000200                                                                                                                                                       
1040001300223P 0101298027300700000000000140000000000338671122033867          1010201800000000001500000000099N0907201821010201800000000000060000000000000000000000000000000000000000000000000000000033867                    3001029090000000000 
1040001300224Q 011000024771163120SEBASTIAO PEREIRA SANTANA               AV. PRESIDENTE VARGAS                   CENTRO         76300000CERES          GO0000000000000000                                                                       
1040001300225R 01000000000000000000000000000000000000000000000000210102018000000000000200                                                                                                                                                       
1040001300226P 0101298027300700000000000140000000000338681122033868          1011201800000000001500000000099N0907201821011201800000000000060000000000000000000000000000000000000000000000000000000033868                    3001029090000000000 
1040001300227Q 011000024771163120SEBASTIAO PEREIRA SANTANA               AV. PRESIDENTE VARGAS                   CENTRO         76300000CERES          GO0000000000000000                                                                       
1040001300228R 01000000000000000000000000000000000000000000000000210112018000000000000200                                                                                                                                                       
1040001300229P 0101298027300700000000000140000000000338691122033869          1012201800000000001500000000099N0907201821012201800000000000060000000000000000000000000000000000000000000000000000000033869                    3001029090000000000 
1040001300230Q 011000024771163120SEBASTIAO PEREIRA SANTANA               AV. PRESIDENTE VARGAS                   CENTRO         76300000CERES          GO0000000000000000                                                                       
1040001300231R 01000000000000000000000000000000000000000000000000210122018000000000000200                                                                                                                                                       
1040001300232P 0101298027300700000000000140000000000338701122033870          1001201900000000001500000000099N0907201821001201900000000000060000000000000000000000000000000000000000000000000000000033870                    3001029090000000000 
1040001300233Q 011000024771163120SEBASTIAO PEREIRA SANTANA               AV. PRESIDENTE VARGAS                   CENTRO         76300000CERES          GO0000000000000000                                                                       
1040001300234R 01000000000000000000000000000000000000000000000000210012019000000000000200                                                                                                                                                       
1040001300235P 0101298027300700000000000140000000000338711122033871          1002201900000000001500000000099N0907201821002201900000000000060000000000000000000000000000000000000000000000000000000033871                    3001029090000000000 
1040001300236Q 011000024771163120SEBASTIAO PEREIRA SANTANA               AV. PRESIDENTE VARGAS                   CENTRO         76300000CERES          GO0000000000000000                                                                       
1040001300237R 01000000000000000000000000000000000000000000000000210022019000000000000200                                                                                                                                                       
1040001300238P 0101298027300700000000000140000000000338721122033872          1003201900000000001500000000099N0907201821003201900000000000060000000000000000000000000000000000000000000000000000000033872                    3001029090000000000 
1040001300239Q 011000024771163120SEBASTIAO PEREIRA SANTANA               AV. PRESIDENTE VARGAS                   CENTRO         76300000CERES          GO0000000000000000                                                                       
1040001300240R 01000000000000000000000000000000000000000000000000210032019000000000000200                                                                                                                                                       
1040001300241P 0101298027300700000000000140000000000338731122033873          1004201900000000001500000000099N0907201821004201900000000000060000000000000000000000000000000000000000000000000000000033873                    3001029090000000000 
1040001300242Q 011000024771163120SEBASTIAO PEREIRA SANTANA               AV. PRESIDENTE VARGAS                   CENTRO         76300000CERES          GO0000000000000000                                                                       
1040001300243R 01000000000000000000000000000000000000000000000000210042019000000000000200                                                                                                                                                       
1040001300244P 0101298027300700000000000140000000000338741122033874          1005201900000000001500000000099N0907201821005201900000000000060000000000000000000000000000000000000000000000000000000033874                    3001029090000000000 
1040001300245Q 011000024771163120SEBASTIAO PEREIRA SANTANA               AV. PRESIDENTE VARGAS                   CENTRO         76300000CERES          GO0000000000000000                                                                       
1040001300246R 01000000000000000000000000000000000000000000000000210052019000000000000200                                                                                                                                                       
1040001300247P 0101298027300700000000000140000000000338751122033875          1006201900000000001500000000099N0907201821006201900000000000060000000000000000000000000000000000000000000000000000000033875                    3001029090000000000 
1040001300248Q 011000024771163120SEBASTIAO PEREIRA SANTANA               AV. PRESIDENTE VARGAS                   CENTRO         76300000CERES          GO0000000000000000                                                                       
1040001300249R 01000000000000000000000000000000000000000000000000210062019000000000000200                                                                                                                                                       
1040001300250P 0101298027300700000000000140000000000338761122033876          1007201900000000001500000000099N0907201821007201900000000000060000000000000000000000000000000000000000000000000000000033876                    3001029090000000000 
1040001300251Q 011000024771163120SEBASTIAO PEREIRA SANTANA               AV. PRESIDENTE VARGAS                   CENTRO         76300000CERES          GO0000000000000000                                                                       
1040001300252R 01000000000000000000000000000000000000000000000000210072019000000000000200                                                                                                                                                       
1040001300253P 0101298027300700000000000140000000000338771122033877          1008201900000000001500000000099N0907201821008201900000000000060000000000000000000000000000000000000000000000000000000033877                    3001029090000000000 
1040001300254Q 011000024771163120SEBASTIAO PEREIRA SANTANA               AV. PRESIDENTE VARGAS                   CENTRO         76300000CERES          GO0000000000000000                                                                       
1040001300255R 01000000000000000000000000000000000000000000000000210082019000000000000200                                                                                                                                                       
1040001300256P 0101298027300700000000000140000000000338841122033884          2007201800000000002000000000099N1007201822007201800000000000060000000000000000000000000000000000000000000000000000000033884                    3001029090000000000 
1040001300257Q 011000040249891115FRANCISCO ASSIS JUNQUEIRA               AV. PRESIDENTE VARGAS                   CENTRO         76300000CERES          GO0000000000000000                                                                       
1040001300258R 01000000000000000000000000000000000000000000000000220072018000000000000200                                                                                                                                                       
1040001300259P 0101298027300700000000000140000000000338851122033885          1508201800000000000590000000099N1007201821508201800000000000060000000000000000000000000000000000000000000000000000000033885                    3001029090000000000 
1040001300260Q 011000040249891115FRANCISCO ASSIS JUNQUEIRA               AV. PRESIDENTE VARGAS                   CENTRO         76300000CERES          GO0000000000000000                                                                       
1040001300261R 01000000000000000000000000000000000000000000000000215082018000000000000200                                                                                                                                                       
1040001300262P 0101298027300700000000000140000000000338861122033886          1509201800000000000590000000099N1007201821509201800000000000060000000000000000000000000000000000000000000000000000000033886                    3001029090000000000 
1040001300263Q 011000040249891115FRANCISCO ASSIS JUNQUEIRA               AV. PRESIDENTE VARGAS                   CENTRO         76300000CERES          GO0000000000000000                                                                       
1040001300264R 01000000000000000000000000000000000000000000000000215092018000000000000200                                                                                                                                                       
1040001300265P 0101298027300700000000000140000000000338871122033887          1510201800000000000590000000099N1007201821510201800000000000060000000000000000000000000000000000000000000000000000000033887                    3001029090000000000 
1040001300266Q 011000040249891115FRANCISCO ASSIS JUNQUEIRA               AV. PRESIDENTE VARGAS                   CENTRO         76300000CERES          GO0000000000000000                                                                       
1040001300267R 01000000000000000000000000000000000000000000000000215102018000000000000200                                                                                                                                                       
1040001300268P 0101298027300700000000000140000000000338881122033888          1511201800000000000590000000099N1007201821511201800000000000060000000000000000000000000000000000000000000000000000000033888                    3001029090000000000 
1040001300269Q 011000040249891115FRANCISCO ASSIS JUNQUEIRA               AV. PRESIDENTE VARGAS                   CENTRO         76300000CERES          GO0000000000000000                                                                       
1040001300270R 01000000000000000000000000000000000000000000000000215112018000000000000200                                                                                                                                                       
1040001300271P 0101298027300700000000000140000000000338891122033889          1512201800000000000590000000099N1007201821512201800000000000060000000000000000000000000000000000000000000000000000000033889                    3001029090000000000 
1040001300272Q 011000040249891115FRANCISCO ASSIS JUNQUEIRA               AV. PRESIDENTE VARGAS                   CENTRO         76300000CERES          GO0000000000000000                                                                       
1040001300273R 01000000000000000000000000000000000000000000000000215122018000000000000200                                                                                                                                                       
1040001300274P 0101298027300700000000000140000000000338901122033890          1501201900000000000590000000099N1007201821501201900000000000060000000000000000000000000000000000000000000000000000000033890                    3001029090000000000 
1040001300275Q 011000040249891115FRANCISCO ASSIS JUNQUEIRA               AV. PRESIDENTE VARGAS                   CENTRO         76300000CERES          GO0000000000000000                                                                       
1040001300276R 01000000000000000000000000000000000000000000000000215012019000000000000200                                                                                                                                                       
1040001300277P 0101298027300700000000000140000000000338911122033891          1502201900000000000590000000099N1007201821502201900000000000060000000000000000000000000000000000000000000000000000000033891                    3001029090000000000 
1040001300278Q 011000040249891115FRANCISCO ASSIS JUNQUEIRA               AV. PRESIDENTE VARGAS                   CENTRO         76300000CERES          GO0000000000000000                                                                       
1040001300279R 01000000000000000000000000000000000000000000000000215022019000000000000200                                                                                                                                                       
1040001300280P 0101298027300700000000000140000000000338921122033892          1503201900000000000590000000099N1007201821503201900000000000060000000000000000000000000000000000000000000000000000000033892                    3001029090000000000 
1040001300281Q 011000040249891115FRANCISCO ASSIS JUNQUEIRA               AV. PRESIDENTE VARGAS                   CENTRO         76300000CERES          GO0000000000000000                                                                       
1040001300282R 01000000000000000000000000000000000000000000000000215032019000000000000200                                                                                                                                                       
1040001300283P 0101298027300700000000000140000000000338931122033893          1504201900000000000590000000099N1007201821504201900000000000060000000000000000000000000000000000000000000000000000000033893                    3001029090000000000 
1040001300284Q 011000040249891115FRANCISCO ASSIS JUNQUEIRA               AV. PRESIDENTE VARGAS                   CENTRO         76300000CERES          GO0000000000000000                                                                       
1040001300285R 01000000000000000000000000000000000000000000000000215042019000000000000200                                                                                                                                                       
1040001300286P 0101298027300700000000000140000000000338941122033894          1505201900000000000590000000099N1007201821505201900000000000060000000000000000000000000000000000000000000000000000000033894                    3001029090000000000 
1040001300287Q 011000040249891115FRANCISCO ASSIS JUNQUEIRA               AV. PRESIDENTE VARGAS                   CENTRO         76300000CERES          GO0000000000000000                                                                       
1040001300288R 01000000000000000000000000000000000000000000000000215052019000000000000200                                                                                                                                                       
1040001300289P 0101298027300700000000000140000000000338951122033895          1506201900000000000590000000099N1007201821506201900000000000060000000000000000000000000000000000000000000000000000000033895                    3001029090000000000 
1040001300290Q 011000040249891115FRANCISCO ASSIS JUNQUEIRA               AV. PRESIDENTE VARGAS                   CENTRO         76300000CERES          GO0000000000000000                                                                       
1040001300291R 01000000000000000000000000000000000000000000000000215062019000000000000200                                                                                                                                                       
1040001300292P 0101298027300700000000000140000000000338961122033896          1507201900000000000590000000099N1007201821507201900000000000060000000000000000000000000000000000000000000000000000000033896                    3001029090000000000 
1040001300293Q 011000040249891115FRANCISCO ASSIS JUNQUEIRA               AV. PRESIDENTE VARGAS                   CENTRO         76300000CERES          GO0000000000000000                                                                       
1040001300294R 01000000000000000000000000000000000000000000000000215072019000000000000200                                                                                                                                                       
1040001300295P 0101298027300700000000000140000000000338971122033897          2007201800000000000590000000099N1007201822007201800000000000060000000000000000000000000000000000000000000000000000000033897                    3001029090000000000 
1040001300296Q 012024350887000106AJ DA SILVA - SERVICOS - ME             AV. PRESIDENTE VARGAS                   CENTRO         76300000CERES          GO0000000000000000                                                                       
1040001300297R 01000000000000000000000000000000000000000000000000220072018000000000000200                                                                                                                                                       
1040001300298P 0101298027300700000000000140000000000338981122033898          2008201800000000000590000000099N1007201822008201800000000000060000000000000000000000000000000000000000000000000000000033898                    3001029090000000000 
1040001300299Q 012024350887000106AJ DA SILVA - SERVICOS - ME             AV. PRESIDENTE VARGAS                   CENTRO         76300000CERES          GO0000000000000000                                                                       
1040001300300R 01000000000000000000000000000000000000000000000000220082018000000000000200                                                                                                                                                       
1040001300301P 0101298027300700000000000140000000000338991122033899          2009201800000000000590000000099N1007201822009201800000000000060000000000000000000000000000000000000000000000000000000033899                    3001029090000000000 
1040001300302Q 012024350887000106AJ DA SILVA - SERVICOS - ME             AV. PRESIDENTE VARGAS                   CENTRO         76300000CERES          GO0000000000000000                                                                       
1040001300303R 01000000000000000000000000000000000000000000000000220092018000000000000200                                                                                                                                                       
1040001300304P 0101298027300700000000000140000000000339001122033900          2010201800000000000590000000099N1007201822010201800000000000060000000000000000000000000000000000000000000000000000000033900                    3001029090000000000 
1040001300305Q 012024350887000106AJ DA SILVA - SERVICOS - ME             AV. PRESIDENTE VARGAS                   CENTRO         76300000CERES          GO0000000000000000                                                                       
1040001300306R 01000000000000000000000000000000000000000000000000220102018000000000000200                                                                                                                                                       
1040001300307P 0101298027300700000000000140000000000339011122033901          2011201800000000000590000000099N1007201822011201800000000000060000000000000000000000000000000000000000000000000000000033901                    3001029090000000000 
1040001300308Q 012024350887000106AJ DA SILVA - SERVICOS - ME             AV. PRESIDENTE VARGAS                   CENTRO         76300000CERES          GO0000000000000000                                                                       
1040001300309R 01000000000000000000000000000000000000000000000000220112018000000000000200                                                                                                                                                       
1040001300310P 0101298027300700000000000140000000000339021122033902          2012201800000000000590000000099N1007201822012201800000000000060000000000000000000000000000000000000000000000000000000033902                    3001029090000000000 
1040001300311Q 012024350887000106AJ DA SILVA - SERVICOS - ME             AV. PRESIDENTE VARGAS                   CENTRO         76300000CERES          GO0000000000000000                                                                       
1040001300312R 01000000000000000000000000000000000000000000000000220122018000000000000200                                                                                                                                                       
1040001300313P 0101298027300700000000000140000000000339061122033906          2008201800000000000590000000099N1107201822008201800000000000060000000000000000000000000000000000000000000000000000000033906                    3001029090000000000 
1040001300314Q 012008985936000120RODRIGO DE OLIVEIRA SOUZA               AV. PRESIDENTE VARGAS                   CENTRO         76300000CERES          GO0000000000000000                                                                       
1040001300315R 01000000000000000000000000000000000000000000000000220082018000000000000200                                                                                                                                                       
1040001300316P 0101298027300700000000000140000000000339071122033907          2009201800000000000590000000099N1107201822009201800000000000060000000000000000000000000000000000000000000000000000000033907                    3001029090000000000 
1040001300317Q 012008985936000120RODRIGO DE OLIVEIRA SOUZA               AV. PRESIDENTE VARGAS                   CENTRO         76300000CERES          GO0000000000000000                                                                       
1040001300318R 01000000000000000000000000000000000000000000000000220092018000000000000200                                                                                                                                                       
1040001300319P 0101298027300700000000000140000000000339081122033908          2010201800000000000590000000099N1107201822010201800000000000060000000000000000000000000000000000000000000000000000000033908                    3001029090000000000 
1040001300320Q 012008985936000120RODRIGO DE OLIVEIRA SOUZA               AV. PRESIDENTE VARGAS                   CENTRO         76300000CERES          GO0000000000000000                                                                       
1040001300321R 01000000000000000000000000000000000000000000000000220102018000000000000200                                                                                                                                                       
1040001300322P 0101298027300700000000000140000000000339091122033909          2011201800000000000590000000099N1107201822011201800000000000060000000000000000000000000000000000000000000000000000000033909                    3001029090000000000 
1040001300323Q 012008985936000120RODRIGO DE OLIVEIRA SOUZA               AV. PRESIDENTE VARGAS                   CENTRO         76300000CERES          GO0000000000000000                                                                       
1040001300324R 01000000000000000000000000000000000000000000000000220112018000000000000200                                                                                                                                                       
1040001300325P 0101298027300700000000000140000000000339101122033910          2012201800000000000590000000099N1107201822012201800000000000060000000000000000000000000000000000000000000000000000000033910                    3001029090000000000 
1040001300326Q 012008985936000120RODRIGO DE OLIVEIRA SOUZA               AV. PRESIDENTE VARGAS                   CENTRO         76300000CERES          GO0000000000000000                                                                       
1040001300327R 01000000000000000000000000000000000000000000000000220122018000000000000200                                                                                                                                                       
1040001300328P 0101298027300700000000000140000000000339111122033911          2001201900000000000590000000099N1107201822001201900000000000060000000000000000000000000000000000000000000000000000000033911                    3001029090000000000 
1040001300329Q 012008985936000120RODRIGO DE OLIVEIRA SOUZA               AV. PRESIDENTE VARGAS                   CENTRO         76300000CERES          GO0000000000000000                                                                       
1040001300330R 01000000000000000000000000000000000000000000000000220012019000000000000200                                                                                                                                                       
1040001300331P 0101298027300700000000000140000000000339121122033912          2002201900000000000590000000099N1107201822002201900000000000060000000000000000000000000000000000000000000000000000000033912                    3001029090000000000 
1040001300332Q 012008985936000120RODRIGO DE OLIVEIRA SOUZA               AV. PRESIDENTE VARGAS                   CENTRO         76300000CERES          GO0000000000000000                                                                       
1040001300333R 01000000000000000000000000000000000000000000000000220022019000000000000200                                                                                                                                                       
1040001300334P 0101298027300700000000000140000000000339131122033913          2003201900000000000590000000099N1107201822003201900000000000060000000000000000000000000000000000000000000000000000000033913                    3001029090000000000 
1040001300335Q 012008985936000120RODRIGO DE OLIVEIRA SOUZA               AV. PRESIDENTE VARGAS                   CENTRO         76300000CERES          GO0000000000000000                                                                       
1040001300336R 01000000000000000000000000000000000000000000000000220032019000000000000200                                                                                                                                                       
1040001300337P 0101298027300700000000000140000000000339141122033914          2004201900000000000590000000099N1107201822004201900000000000060000000000000000000000000000000000000000000000000000000033914                    3001029090000000000 
1040001300338Q 012008985936000120RODRIGO DE OLIVEIRA SOUZA               AV. PRESIDENTE VARGAS                   CENTRO         76300000CERES          GO0000000000000000                                                                       
1040001300339R 01000000000000000000000000000000000000000000000000220042019000000000000200                                                                                                                                                       
1040001300340P 0101298027300700000000000140000000000339151122033915          2005201900000000000590000000099N1107201822005201900000000000060000000000000000000000000000000000000000000000000000000033915                    3001029090000000000 
1040001300341Q 012008985936000120RODRIGO DE OLIVEIRA SOUZA               AV. PRESIDENTE VARGAS                   CENTRO         76300000CERES          GO0000000000000000                                                                       
1040001300342R 01000000000000000000000000000000000000000000000000220052019000000000000200                                                                                                                                                       
1040001300343P 0101298027300700000000000140000000000339161122033916          2006201900000000000590000000099N1107201822006201900000000000060000000000000000000000000000000000000000000000000000000033916                    3001029090000000000 
1040001300344Q 012008985936000120RODRIGO DE OLIVEIRA SOUZA               AV. PRESIDENTE VARGAS                   CENTRO         76300000CERES          GO0000000000000000                                                                       
1040001300345R 01000000000000000000000000000000000000000000000000220062019000000000000200                                                                                                                                                       
1040001300346P 0101298027300700000000000140000000000339171122033917          2007201900000000000590000000099N1107201822007201900000000000060000000000000000000000000000000000000000000000000000000033917                    3001029090000000000 
1040001300347Q 012008985936000120RODRIGO DE OLIVEIRA SOUZA               AV. PRESIDENTE VARGAS                   CENTRO         76300000CERES          GO0000000000000000                                                                       
1040001300348R 01000000000000000000000000000000000000000000000000220072019000000000000200                                                                                                                                                       
1040001300349P 0101298027300700000000000140000000000339221122033922          1509201800000000003300000000099N1107201821509201800000000000060000000000000000000000000000000000000000000000000000000033922                    3001029090000000000 
1040001300350Q 012021681767000365JUDA PRODUTOS PARA FESTAS LTDA          AV. PRESIDENTE VARGAS                   CENTRO         76300000CERES          GO0000000000000000                                                                       
1040001300351R 01000000000000000000000000000000000000000000000000215092018000000000000200                                                                                                                                                       
1040001300352P 0101298027300700000000000140000000000339231122033923          1510201800000000003300000000099N1107201821510201800000000000060000000000000000000000000000000000000000000000000000000033923                    3001029090000000000 
1040001300353Q 012021681767000365JUDA PRODUTOS PARA FESTAS LTDA          AV. PRESIDENTE VARGAS                   CENTRO         76300000CERES          GO0000000000000000                                                                       
1040001300354R 01000000000000000000000000000000000000000000000000215102018000000000000200                                                                                                                                                       
1040001300355P 0101298027300700000000000140000000000339241122033924          1511201800000000003300000000099N1107201821511201800000000000060000000000000000000000000000000000000000000000000000000033924                    3001029090000000000 
1040001300356Q 012021681767000365JUDA PRODUTOS PARA FESTAS LTDA          AV. PRESIDENTE VARGAS                   CENTRO         76300000CERES          GO0000000000000000                                                                       
1040001300357R 01000000000000000000000000000000000000000000000000215112018000000000000200                                                                                                                                                       
1040001300358P 0101298027300700000000000140000000000339251122033925          1512201800000000003300000000099N1107201821512201800000000000060000000000000000000000000000000000000000000000000000000033925                    3001029090000000000 
1040001300359Q 012021681767000365JUDA PRODUTOS PARA FESTAS LTDA          AV. PRESIDENTE VARGAS                   CENTRO         76300000CERES          GO0000000000000000                                                                       
1040001300360R 01000000000000000000000000000000000000000000000000215122018000000000000200                                                                                                                                                       
1040001300361P 0101298027300700000000000140000000000339261122033926          1501201900000000003300000000099N1107201821501201900000000000060000000000000000000000000000000000000000000000000000000033926                    3001029090000000000 
1040001300362Q 012021681767000365JUDA PRODUTOS PARA FESTAS LTDA          AV. PRESIDENTE VARGAS                   CENTRO         76300000CERES          GO0000000000000000                                                                       
1040001300363R 01000000000000000000000000000000000000000000000000215012019000000000000200                                                                                                                                                       
1040001300364P 0101298027300700000000000140000000000339271122033927          1502201900000000003300000000099N1107201821502201900000000000060000000000000000000000000000000000000000000000000000000033927                    3001029090000000000 
1040001300365Q 012021681767000365JUDA PRODUTOS PARA FESTAS LTDA          AV. PRESIDENTE VARGAS                   CENTRO         76300000CERES          GO0000000000000000                                                                       
1040001300366R 01000000000000000000000000000000000000000000000000215022019000000000000200                                                                                                                                                       
1040001300367P 0101298027300700000000000140000000000339281122033928          1503201900000000003300000000099N1107201821503201900000000000060000000000000000000000000000000000000000000000000000000033928                    3001029090000000000 
1040001300368Q 012021681767000365JUDA PRODUTOS PARA FESTAS LTDA          AV. PRESIDENTE VARGAS                   CENTRO         76300000CERES          GO0000000000000000                                                                       
1040001300369R 01000000000000000000000000000000000000000000000000215032019000000000000200                                                                                                                                                       
1040001300370P 0101298027300700000000000140000000000339291122033929          1504201900000000003300000000099N1107201821504201900000000000060000000000000000000000000000000000000000000000000000000033929                    3001029090000000000 
1040001300371Q 012021681767000365JUDA PRODUTOS PARA FESTAS LTDA          AV. PRESIDENTE VARGAS                   CENTRO         76300000CERES          GO0000000000000000                                                                       
1040001300372R 01000000000000000000000000000000000000000000000000215042019000000000000200                                                                                                                                                       
1040001300373P 0101298027300700000000000140000000000339301122033930          1505201900000000003300000000099N1107201821505201900000000000060000000000000000000000000000000000000000000000000000000033930                    3001029090000000000 
1040001300374Q 012021681767000365JUDA PRODUTOS PARA FESTAS LTDA          AV. PRESIDENTE VARGAS                   CENTRO         76300000CERES          GO0000000000000000                                                                       
1040001300375R 01000000000000000000000000000000000000000000000000215052019000000000000200                                                                                                                                                       
1040001300376P 0101298027300700000000000140000000000339311122033931          1506201900000000003300000000099N1107201821506201900000000000060000000000000000000000000000000000000000000000000000000033931                    3001029090000000000 
1040001300377Q 012021681767000365JUDA PRODUTOS PARA FESTAS LTDA          AV. PRESIDENTE VARGAS                   CENTRO         76300000CERES          GO0000000000000000                                                                       
1040001300378R 01000000000000000000000000000000000000000000000000215062019000000000000200                                                                                                                                                       
1040001300379P 0101298027300700000000000140000000000339321122033932          1507201900000000003300000000099N1107201821507201900000000000060000000000000000000000000000000000000000000000000000000033932                    3001029090000000000 
1040001300380Q 012021681767000365JUDA PRODUTOS PARA FESTAS LTDA          AV. PRESIDENTE VARGAS                   CENTRO         76300000CERES          GO0000000000000000                                                                       
1040001300381R 01000000000000000000000000000000000000000000000000215072019000000000000200                                                                                                                                                       
1040001300382P 0101298027300700000000000140000000000339351122033935          2003201900000000001770000000099N1207201822003201900000000000060000000000000000000000000000000000000000000000000000000033935                    3001029090000000000 
1040001300383Q 011000033393389149JANDUHY DINIZ VIEIRA FILHO              AV. PRESIDENTE VARGAS                   CENTRO         76300000CERES          GO0000000000000000                                                                       
1040001300384R 01000000000000000000000000000000000000000000000000220032019000000000000200                                                                                                                                                       
1040001300385P 0101298027300700000000000140000000000339361122033936          2004201900000000001770000000099N1207201822004201900000000000060000000000000000000000000000000000000000000000000000000033936                    3001029090000000000 
1040001300386Q 011000033393389149JANDUHY DINIZ VIEIRA FILHO              AV. PRESIDENTE VARGAS                   CENTRO         76300000CERES          GO0000000000000000                                                                       
1040001300387R 01000000000000000000000000000000000000000000000000220042019000000000000200                                                                                                                                                       
1040001300388P 0101298027300700000000000140000000000339371122033937          2005201900000000001770000000099N1207201822005201900000000000060000000000000000000000000000000000000000000000000000000033937                    3001029090000000000 
1040001300389Q 011000033393389149JANDUHY DINIZ VIEIRA FILHO              AV. PRESIDENTE VARGAS                   CENTRO         76300000CERES          GO0000000000000000                                                                       
1040001300390R 01000000000000000000000000000000000000000000000000220052019000000000000200                                                                                                                                                       
1040001300391P 0101298027300700000000000140000000000339381122033938          2006201900000000001770000000099N1207201822006201900000000000060000000000000000000000000000000000000000000000000000000033938                    3001029090000000000 
1040001300392Q 011000033393389149JANDUHY DINIZ VIEIRA FILHO              AV. PRESIDENTE VARGAS                   CENTRO         76300000CERES          GO0000000000000000                                                                       
1040001300393R 01000000000000000000000000000000000000000000000000220062019000000000000200                                                                                                                                                       
1040001300394P 0101298027300700000000000140000000000339391122033939          2007201900000000001770000000099N1207201822007201900000000000060000000000000000000000000000000000000000000000000000000033939                    3001029090000000000 
1040001300395Q 011000033393389149JANDUHY DINIZ VIEIRA FILHO              AV. PRESIDENTE VARGAS                   CENTRO         76300000CERES          GO0000000000000000                                                                       
1040001300396R 01000000000000000000000000000000000000000000000000220072019000000000000200                                                                                                                                                       
1040001300397P 0101298027300700000000000140000000000339401122033940          2008201900000000001770000000099N1207201822008201900000000000060000000000000000000000000000000000000000000000000000000033940                    3001029090000000000 
1040001300398Q 011000033393389149JANDUHY DINIZ VIEIRA FILHO              AV. PRESIDENTE VARGAS                   CENTRO         76300000CERES          GO0000000000000000                                                                       
1040001300399R 01000000000000000000000000000000000000000000000000220082019000000000000200                                                                                                                                                       
1040001300400P 0101298027300700000000000140000000000339411122033941          2009201900000000001770000000099N1207201822009201900000000000060000000000000000000000000000000000000000000000000000000033941                    3001029090000000000 
1040001300401Q 011000033393389149JANDUHY DINIZ VIEIRA FILHO              AV. PRESIDENTE VARGAS                   CENTRO         76300000CERES          GO0000000000000000                                                                       
1040001300402R 01000000000000000000000000000000000000000000000000220092019000000000000200                                                                                                                                                       
1040001300403P 0101298027300700000000000140000000000339421122033942          2010201900000000001770000000099N1207201822010201900000000000060000000000000000000000000000000000000000000000000000000033942                    3001029090000000000 
1040001300404Q 011000033393389149JANDUHY DINIZ VIEIRA FILHO              AV. PRESIDENTE VARGAS                   CENTRO         76300000CERES          GO0000000000000000                                                                       
1040001300405R 01000000000000000000000000000000000000000000000000220102019000000000000200                                                                                                                                                       
1040001300406P 0101298027300700000000000140000000000339431122033943          2011201900000000001770000000099N1207201822011201900000000000060000000000000000000000000000000000000000000000000000000033943                    3001029090000000000 
1040001300407Q 011000033393389149JANDUHY DINIZ VIEIRA FILHO              AV. PRESIDENTE VARGAS                   CENTRO         76300000CERES          GO0000000000000000                                                                       
1040001300408R 01000000000000000000000000000000000000000000000000220112019000000000000200                                                                                                                                                       
1040001300409P 0101298027300700000000000140000000000339441122033944          2012201900000000001770000000099N1207201822012201900000000000060000000000000000000000000000000000000000000000000000000033944                    3001029090000000000 
1040001300410Q 011000033393389149JANDUHY DINIZ VIEIRA FILHO              AV. PRESIDENTE VARGAS                   CENTRO         76300000CERES          GO0000000000000000                                                                       
1040001300411R 01000000000000000000000000000000000000000000000000220122019000000000000200                                                                                                                                                       
1040001300412P 0101298027300700000000000140000000000339451122033945          2002201800000000001930000000099N1207201822002201800000000000060000000000000000000000000000000000000000000000000000000033945                    3001029090000000000 
