10400000         2116559540001590000000000000000000001298027300700000000FEDERAL SISTEMAS              CAIXA ECONOMICA FEDERAL                 10803201819325300003705000000                    REMESSA-PRODUCAO                                 
10400011R0100030 20116559540001592730070000000000000001298027300700000000FEDERAL SISTEMAS                                                                                              000000370803201800000000                                 
1040001300001P 0101298027300700000000000140000000000274311122027431          1503201800000000048300000000099N0803201821503201800000000000000000000000000000000000000000000000000000000000000000000027431                    3001700090000000000 
1040001300002Q 012002635522000195JALLES MACHADO SA                       FAZ SAO PEDRO ROD GO 080 KM 75 1        ZONA RURAL     76380000GOIANESIA     GO0000000000000000                                                                       0
1040001300003R 01000000000000000000000000000000000000000000000000215032018000000000000200                                                                                                                                                       
1040001300004P 0101298027300700000000000140000000000274321122027432          1004201800000000000399000000099N0803201821004201800000000000000000000000000000000000000000000000000000000000000000000027432                    3001700090000000000 
1040001300005Q 011000091105714187OLIVEIRA VIEIRA DA COSTA NETO           AVENIDA PRESIDENTE VARGAS               CENTRO         76300000CERES          GO0000000000000000                                                                       
1040001300006R 01000000000000000000000000000000000000000000000000210042018000000000000200                                                                                                                                                       
1040001300007P 0101298027300700000000000140000000000274331122027433          1005201800000000000399000000099N0803201821005201800000000000000000000000000000000000000000000000000000000000000000000027433                    3001700090000000000 
1040001300008Q 011000091105714187OLIVEIRA VIEIRA DA COSTA NETO           AVENIDA PRESIDENTE VARGAS               CENTRO         76300000CERES          GO0000000000000000                                                                       
1040001300009R 01000000000000000000000000000000000000000000000000210052018000000000000200                                                                                                                                                       
1040001300010P 0101298027300700000000000140000000000274341122027434          1006201800000000000399000000099N0803201821006201800000000000000000000000000000000000000000000000000000000000000000000027434                    3001700090000000000 
1040001300011Q 011000091105714187OLIVEIRA VIEIRA DA COSTA NETO           AVENIDA PRESIDENTE VARGAS               CENTRO         76300000CERES          GO0000000000000000                                                                       
1040001300012R 01000000000000000000000000000000000000000000000000210062018000000000000200                                                                                                                                                       
1040001300013P 0101298027300700000000000140000000000274351122027435          1007201800000000000399000000099N0803201821007201800000000000000000000000000000000000000000000000000000000000000000000027435                    3001700090000000000 
1040001300014Q 011000091105714187OLIVEIRA VIEIRA DA COSTA NETO           AVENIDA PRESIDENTE VARGAS               CENTRO         76300000CERES          GO0000000000000000                                                                       
1040001300015R 01000000000000000000000000000000000000000000000000210072018000000000000200                                                                                                                                                       
1040001300016P 0101298027300700000000000140000000000274361122027436          1008201800000000000399000000099N0803201821008201800000000000000000000000000000000000000000000000000000000000000000000027436                    3001700090000000000 
1040001300017Q 011000091105714187OLIVEIRA VIEIRA DA COSTA NETO           AVENIDA PRESIDENTE VARGAS               CENTRO         76300000CERES          GO0000000000000000                                                                       
1040001300018R 01000000000000000000000000000000000000000000000000210082018000000000000200                                                                                                                                                       
1040001300019P 0101298027300700000000000140000000000274371122027437          1009201800000000000399000000099N0803201821009201800000000000000000000000000000000000000000000000000000000000000000000027437                    3001700090000000000 
1040001300020Q 011000091105714187OLIVEIRA VIEIRA DA COSTA NETO           AVENIDA PRESIDENTE VARGAS               CENTRO         76300000CERES          GO0000000000000000                                                                       
1040001300021R 01000000000000000000000000000000000000000000000000210092018000000000000200                                                                                                                                                       
1040001300022P 0101298027300700000000000140000000000274381122027438          1010201800000000000399000000099N0803201821010201800000000000000000000000000000000000000000000000000000000000000000000027438                    3001700090000000000 
1040001300023Q 011000091105714187OLIVEIRA VIEIRA DA COSTA NETO           AVENIDA PRESIDENTE VARGAS               CENTRO         76300000CERES          GO0000000000000000                                                                       
1040001300024R 01000000000000000000000000000000000000000000000000210102018000000000000200                                                                                                                                                       
1040001300025P 0101298027300700000000000140000000000274391122027439          1011201800000000000399000000099N0803201821011201800000000000000000000000000000000000000000000000000000000000000000000027439                    3001700090000000000 
1040001300026Q 011000091105714187OLIVEIRA VIEIRA DA COSTA NETO           AVENIDA PRESIDENTE VARGAS               CENTRO         76300000CERES          GO0000000000000000                                                                       
1040001300027R 01000000000000000000000000000000000000000000000000210112018000000000000200                                                                                                                                                       
1040001300028P 0101298027300700000000000140000000000274401122027440          1012201800000000000399000000099N0803201821012201800000000000000000000000000000000000000000000000000000000000000000000027440                    3001700090000000000 
1040001300029Q 011000091105714187OLIVEIRA VIEIRA DA COSTA NETO           AVENIDA PRESIDENTE VARGAS               CENTRO         76300000CERES          GO0000000000000000                                                                       
1040001300030R 01000000000000000000000000000000000000000000000000210122018000000000000200                                                                                                                                                       
1040001300031P 0101298027300700000000000140000000000274411122027441          1001201900000000000399000000099N0803201821001201900000000000000000000000000000000000000000000000000000000000000000000027441                    3001700090000000000 
1040001300032Q 011000091105714187OLIVEIRA VIEIRA DA COSTA NETO           AVENIDA PRESIDENTE VARGAS               CENTRO         76300000CERES          GO0000000000000000                                                                       
1040001300033R 01000000000000000000000000000000000000000000000000210012019000000000000200                                                                                                                                                       
1040001300034P 0101298027300700000000000140000000000274421122027442          1002201900000000000399000000099N0803201821002201900000000000000000000000000000000000000000000000000000000000000000000027442                    3001700090000000000 
1040001300035Q 011000091105714187OLIVEIRA VIEIRA DA COSTA NETO           AVENIDA PRESIDENTE VARGAS               CENTRO         76300000CERES          GO0000000000000000                                                                       
1040001300036R 01000000000000000000000000000000000000000000000000210022019000000000000200                                                                                                                                                       
1040001300037P 0101298027300700000000000140000000000274431122027443          1003201900000000000399000000099N0803201821003201900000000000000000000000000000000000000000000000000000000000000000000027443                    3001700090000000000 
1040001300038Q 011000091105714187OLIVEIRA VIEIRA DA COSTA NETO           AVENIDA PRESIDENTE VARGAS               CENTRO         76300000CERES          GO0000000000000000                                                                       
1040001300039R 01000000000000000000000000000000000000000000000000210032019000000000000200                                                                                                                                                       
1040001300040P 0101298027300700000000000140000000000274441122027444          0505201800000000002000000000099N0803201820505201800000000000000000000000000000000000000000000000000000000000000000000027444                    3001700090000000000 
1040001300041Q 011000083685154168SERGIO MARCOS CORDEIRO                  RUA 2 N91                               SETOR PLANALTO 76310000RIALMA         GO0000000000000000                                                                       
1040001300042R 01000000000000000000000000000000000000000000000000205052018000000000000200                                                                                                                                                       
1040001300043P 0101298027300700000000000140000000000274451122027445          0506201800000000002000000000099N0803201820506201800000000000000000000000000000000000000000000000000000000000000000000027445                    3001700090000000000 
1040001300044Q 011000083685154168SERGIO MARCOS CORDEIRO                  RUA 2 N91                               SETOR PLANALTO 76310000RIALMA         GO0000000000000000                                                                       
1040001300045R 01000000000000000000000000000000000000000000000000205062018000000000000200                                                                                                                                                       
1040001300046P 0101298027300700000000000140000000000274461122027446          0507201800000000002000000000099N0803201820507201800000000000000000000000000000000000000000000000000000000000000000000027446                    3001700090000000000 
1040001300047Q 011000083685154168SERGIO MARCOS CORDEIRO                  RUA 2 N91                               SETOR PLANALTO 76310000RIALMA         GO0000000000000000                                                                       
1040001300048R 01000000000000000000000000000000000000000000000000205072018000000000000200                                                                                                                                                       
1040001300049P 0101298027300700000000000140000000000274471122027447          0508201800000000002000000000099N0803201820508201800000000000000000000000000000000000000000000000000000000000000000000027447                    3001700090000000000 
1040001300050Q 011000083685154168SERGIO MARCOS CORDEIRO                  RUA 2 N91                               SETOR PLANALTO 76310000RIALMA         GO0000000000000000                                                                       
1040001300051R 01000000000000000000000000000000000000000000000000205082018000000000000200                                                                                                                                                       
1040001300052P 0101298027300700000000000140000000000274481122027448          0509201800000000002000000000099N0803201820509201800000000000000000000000000000000000000000000000000000000000000000000027448                    3001700090000000000 
1040001300053Q 011000083685154168SERGIO MARCOS CORDEIRO                  RUA 2 N91                               SETOR PLANALTO 76310000RIALMA         GO0000000000000000                                                                       
1040001300054R 01000000000000000000000000000000000000000000000000205092018000000000000200                                                                                                                                                       
1040001300055P 0101298027300700000000000140000000000274491122027449          0510201800000000002000000000099N0803201820510201800000000000000000000000000000000000000000000000000000000000000000000027449                    3001700090000000000 
1040001300056Q 011000083685154168SERGIO MARCOS CORDEIRO                  RUA 2 N91                               SETOR PLANALTO 76310000RIALMA         GO0000000000000000                                                                       
1040001300057R 01000000000000000000000000000000000000000000000000205102018000000000000200                                                                                                                                                       
1040001300058P 0101298027300700000000000140000000000274501122027450          0511201800000000002000000000099N0803201820511201800000000000000000000000000000000000000000000000000000000000000000000027450                    3001700090000000000 
1040001300059Q 011000083685154168SERGIO MARCOS CORDEIRO                  RUA 2 N91                               SETOR PLANALTO 76310000RIALMA         GO0000000000000000                                                                       
1040001300060R 01000000000000000000000000000000000000000000000000205112018000000000000200                                                                                                                                                       
1040001300061P 0101298027300700000000000140000000000274511122027451          0512201800000000002000000000099N0803201820512201800000000000000000000000000000000000000000000000000000000000000000000027451                    3001700090000000000 
1040001300062Q 011000083685154168SERGIO MARCOS CORDEIRO                  RUA 2 N91                               SETOR PLANALTO 76310000RIALMA         GO0000000000000000                                                                       
1040001300063R 01000000000000000000000000000000000000000000000000205122018000000000000200                                                                                                                                                       
1040001300064P 0101298027300700000000000140000000000274521122027452          0501201900000000002000000000099N0803201820501201900000000000000000000000000000000000000000000000000000000000000000000027452                    3001700090000000000 
1040001300065Q 011000083685154168SERGIO MARCOS CORDEIRO                  RUA 2 N91                               SETOR PLANALTO 76310000RIALMA         GO0000000000000000                                                                       
1040001300066R 01000000000000000000000000000000000000000000000000205012019000000000000200                                                                                                                                                       
1040001300067P 0101298027300700000000000140000000000274531122027453          0502201900000000002000000000099N0803201820502201900000000000000000000000000000000000000000000000000000000000000000000027453                    3001700090000000000 
1040001300068Q 011000083685154168SERGIO MARCOS CORDEIRO                  RUA 2 N91                               SETOR PLANALTO 76310000RIALMA         GO0000000000000000                                                                       
1040001300069R 01000000000000000000000000000000000000000000000000205022019000000000000200                                                                                                                                                       
1040001300070P 0101298027300700000000000140000000000274541122027454          0503201900000000002000000000099N0803201820503201900000000000000000000000000000000000000000000000000000000000000000000027454                    3001700090000000000 
1040001300071Q 011000083685154168SERGIO MARCOS CORDEIRO                  RUA 2 N91                               SETOR PLANALTO 76310000RIALMA         GO0000000000000000                                                                       
1040001300072R 01000000000000000000000000000000000000000000000000205032019000000000000200                                                                                                                                                       
1040001300073P 0101298027300700000000000140000000000274551122027455          0504201900000000002000000000099N0803201820504201900000000000000000000000000000000000000000000000000000000000000000000027455                    3001700090000000000 
1040001300074Q 011000083685154168SERGIO MARCOS CORDEIRO                  RUA 2 N91                               SETOR PLANALTO 76310000RIALMA         GO0000000000000000                                                                       
1040001300075R 01000000000000000000000000000000000000000000000000205042019000000000000200                                                                                                                                                       
1040001300076P 0101298027300700000000000140000000000274561122027456          0903201800000000000913000000099N0803201820903201800000000000000000000000000000000000000000000000000000000000000000000027456                    3001700090000000000 
1040001300077Q 012023519626000104DANIEL GOMES DE MELO ME                 RUA DOM CLIMERIO DE ANDRADE            RECREIO        45020390VITóRIA DA CONBA0000000000000000                                                                       0
1040001300078R 01000000000000000000000000000000000000000000000000209032018000000000000200                                                                                                                                                       
10400015         000080000026000000000007800100000000000000000000000000000000000000000000000                                                                                                                                                    
10499999         000001000082                                                                                                                                                                                                                   