10400000         2116559540001590000000000000000000001298027300700000000FEDERAL SISTEMAS              CAIXA ECONOMICA FEDERAL                 11806201812430100013205000000                    REMESSA-PRODUCAO                                 
10400011R0100030 20116559540001592730070000000000000001298027300700000000FEDERAL SISTEMAS                                                                                              000001321806201800000000                                 
1040001300001P 0101298027300700000000000140000000000315391122031539          1506201800000000002530000000099N0406201821506201800000000000060000000000000000000000000000000000000000000000000000000031539                    3001029090000000000 
1040001300002Q 011000000036551139JACKSON MANOEL DA COSTA                 AVENIDA MILAOAVENIDA MILAO QD CP 17   LOTEAMENTO CELI74373270GOIANIA       GO0000000000000000                                                                       000
1040001300003R 01000000000000000000000000000000000000000000000000215062018000000000000200                                                                                                                                                       
1040001300004P 0101298027300700000000000140000000000324741122032474          1506201800000000018630000000099N0706201821506201800000000000060000000000000000000000000000000000000000000000000000000032474                    3001029090000000000 
1040001300005Q 012001378322000131LACEL LATICINIO CERES LTDA              AV BRASILIA  N 1502                     CENTRO         76315000ABADIA DE GOIASGO0000000000000000                                                                       
1040001300006R 01000000000000000000000000000000000000000000000000215062018000000000000200                                                                                                                                                       
1040001300007P 0101298027300700000000000140000000000324751122032475          1506201800000000014490000000099N0706201821506201800000000000060000000000000000000000000000000000000000000000000000000032475                    3001029090000000000 
1040001300008Q 012005886386000102LANNO INDUSTRIA E COM DE LATICINIOS LTDAAV JOAO LEITE QD 1 LT 18                SANTA GENOVEVA 74672020GOIANIA        GO0000000000000000                                                                       
1040001300009R 01000000000000000000000000000000000000000000000000215062018000000000000200                                                                                                                                                       
1040001300010P 0101298027300700000000000140000000000324781122032478          1006201800000000003570000000099N0806201821006201800000000000060000000000000000000000000000000000000000000000000000000032478                    3001029090000000000 
1040001300011Q 011000039211428149ITIENES PEREIRA DE SA                   RUA 06E QUADRA 07 LOTE 15               GARAVELO RESIDE00000000RIALMA         GO0000000000000000                                                                       
1040001300012R 01000000000000000000000000000000000000000000000000210062018000000000000200                                                                                                                                                       
1040001300013P 0101298027300700000000000140000000000324791122032479          1007201800000000003570000000099N0806201821007201800000000000060000000000000000000000000000000000000000000000000000000032479                    3001029090000000000 
1040001300014Q 011000039211428149ITIENES PEREIRA DE SA                   RUA 06E QUADRA 07 LOTE 15               GARAVELO RESIDE00000000RIALMA         GO0000000000000000                                                                       
1040001300015R 01000000000000000000000000000000000000000000000000210072018000000000000200                                                                                                                                                       
1040001300016P 0101298027300700000000000140000000000324811122032481          2007201800000000000599000000099N0806201822007201800000000000060000000000000000000000000000000000000000000000000000000032481                    3001029090000000000 
1040001300017Q 012030570227000133DUDA TRANSPORTADORA EIRELI              R 20 LESTE                              CENTRO         76380118GOIANESIA     GO0000000000000000                                                                       0
1040001300018R 01000000000000000000000000000000000000000000000000220072018000000000000200                                                                                                                                                       
1040001300019P 0101298027300700000000000140000000000324821122032482          2008201800000000000599000000099N0806201822008201800000000000060000000000000000000000000000000000000000000000000000000032482                    3001029090000000000 
1040001300020Q 012030570227000133DUDA TRANSPORTADORA EIRELI              R 20 LESTE                              CENTRO         76380118GOIANESIA     GO0000000000000000                                                                       0
1040001300021R 01000000000000000000000000000000000000000000000000220082018000000000000200                                                                                                                                                       
1040001300022P 0101298027300700000000000140000000000324831122032483          2009201800000000000599000000099N0806201822009201800000000000060000000000000000000000000000000000000000000000000000000032483                    3001029090000000000 
1040001300023Q 012030570227000133DUDA TRANSPORTADORA EIRELI              R 20 LESTE                              CENTRO         76380118GOIANESIA     GO0000000000000000                                                                       0
1040001300024R 01000000000000000000000000000000000000000000000000220092018000000000000200                                                                                                                                                       
1040001300025P 0101298027300700000000000140000000000324841122032484          2010201800000000000599000000099N0806201822010201800000000000060000000000000000000000000000000000000000000000000000000032484                    3001029090000000000 
1040001300026Q 012030570227000133DUDA TRANSPORTADORA EIRELI              R 20 LESTE                              CENTRO         76380118GOIANESIA     GO0000000000000000                                                                       0
1040001300027R 01000000000000000000000000000000000000000000000000220102018000000000000200                                                                                                                                                       
1040001300028P 0101298027300700000000000140000000000324851122032485          2011201800000000000599000000099N0806201822011201800000000000060000000000000000000000000000000000000000000000000000000032485                    3001029090000000000 
1040001300029Q 012030570227000133DUDA TRANSPORTADORA EIRELI              R 20 LESTE                              CENTRO         76380118GOIANESIA     GO0000000000000000                                                                       0
1040001300030R 01000000000000000000000000000000000000000000000000220112018000000000000200                                                                                                                                                       
1040001300031P 0101298027300700000000000140000000000324861122032486          2012201800000000000599000000099N0806201822012201800000000000060000000000000000000000000000000000000000000000000000000032486                    3001029090000000000 
1040001300032Q 012030570227000133DUDA TRANSPORTADORA EIRELI              R 20 LESTE                              CENTRO         76380118GOIANESIA     GO0000000000000000                                                                       0
1040001300033R 01000000000000000000000000000000000000000000000000220122018000000000000200                                                                                                                                                       
1040001300034P 0101298027300700000000000140000000000324871122032487          2001201900000000000599000000099N0806201822001201900000000000060000000000000000000000000000000000000000000000000000000032487                    3001029090000000000 
1040001300035Q 012030570227000133DUDA TRANSPORTADORA EIRELI              R 20 LESTE                              CENTRO         76380118GOIANESIA     GO0000000000000000                                                                       0
1040001300036R 01000000000000000000000000000000000000000000000000220012019000000000000200                                                                                                                                                       
1040001300037P 0101298027300700000000000140000000000324881122032488          2002201900000000000599000000099N0806201822002201900000000000060000000000000000000000000000000000000000000000000000000032488                    3001029090000000000 
1040001300038Q 012030570227000133DUDA TRANSPORTADORA EIRELI              R 20 LESTE                              CENTRO         76380118GOIANESIA     GO0000000000000000                                                                       0
1040001300039R 01000000000000000000000000000000000000000000000000220022019000000000000200                                                                                                                                                       
1040001300040P 0101298027300700000000000140000000000324891122032489          2003201900000000000599000000099N0806201822003201900000000000060000000000000000000000000000000000000000000000000000000032489                    3001029090000000000 
1040001300041Q 012030570227000133DUDA TRANSPORTADORA EIRELI              R 20 LESTE                              CENTRO         76380118GOIANESIA     GO0000000000000000                                                                       0
1040001300042R 01000000000000000000000000000000000000000000000000220032019000000000000200                                                                                                                                                       
1040001300043P 0101298027300700000000000140000000000324901122032490          2004201900000000000599000000099N0806201822004201900000000000060000000000000000000000000000000000000000000000000000000032490                    3001029090000000000 
1040001300044Q 012030570227000133DUDA TRANSPORTADORA EIRELI              R 20 LESTE                              CENTRO         76380118GOIANESIA     GO0000000000000000                                                                       0
1040001300045R 01000000000000000000000000000000000000000000000000220042019000000000000200                                                                                                                                                       
1040001300046P 0101298027300700000000000140000000000324911122032491          2005201900000000000599000000099N0806201822005201900000000000060000000000000000000000000000000000000000000000000000000032491                    3001029090000000000 
1040001300047Q 012030570227000133DUDA TRANSPORTADORA EIRELI              R 20 LESTE                              CENTRO         76380118GOIANESIA     GO0000000000000000                                                                       0
1040001300048R 01000000000000000000000000000000000000000000000000220052019000000000000200                                                                                                                                                       
1040001300049P 0101298027300700000000000140000000000324921122032492          2007201800000000000590000000099N0806201822007201800000000000060000000000000000000000000000000000000000000000000000000032492                    3001029090000000000 
1040001300050Q 012017407111000110LOCMARQUES-TRANSPORTE E LOCACAO LTDA ME RUA 11                                  UNIVERSITARIO  76380000GOIANESIA      GO0000000000000000                                                                       
1040001300051R 01000000000000000000000000000000000000000000000000220072018000000000000200                                                                                                                                                       
1040001300052P 0101298027300700000000000140000000000324931122032493          2008201800000000000590000000099N0806201822008201800000000000060000000000000000000000000000000000000000000000000000000032493                    3001029090000000000 
1040001300053Q 012017407111000110LOCMARQUES-TRANSPORTE E LOCACAO LTDA ME RUA 11                                  UNIVERSITARIO  76380000GOIANESIA      GO0000000000000000                                                                       
1040001300054R 01000000000000000000000000000000000000000000000000220082018000000000000200                                                                                                                                                       
1040001300055P 0101298027300700000000000140000000000324941122032494          2009201800000000000590000000099N0806201822009201800000000000060000000000000000000000000000000000000000000000000000000032494                    3001029090000000000 
1040001300056Q 012017407111000110LOCMARQUES-TRANSPORTE E LOCACAO LTDA ME RUA 11                                  UNIVERSITARIO  76380000GOIANESIA      GO0000000000000000                                                                       
1040001300057R 01000000000000000000000000000000000000000000000000220092018000000000000200                                                                                                                                                       
1040001300058P 0101298027300700000000000140000000000324951122032495          2010201800000000000590000000099N0806201822010201800000000000060000000000000000000000000000000000000000000000000000000032495                    3001029090000000000 
1040001300059Q 012017407111000110LOCMARQUES-TRANSPORTE E LOCACAO LTDA ME RUA 11                                  UNIVERSITARIO  76380000GOIANESIA      GO0000000000000000                                                                       
1040001300060R 01000000000000000000000000000000000000000000000000220102018000000000000200                                                                                                                                                       
1040001300061P 0101298027300700000000000140000000000324961122032496          2011201800000000000590000000099N0806201822011201800000000000060000000000000000000000000000000000000000000000000000000032496                    3001029090000000000 
1040001300062Q 012017407111000110LOCMARQUES-TRANSPORTE E LOCACAO LTDA ME RUA 11                                  UNIVERSITARIO  76380000GOIANESIA      GO0000000000000000                                                                       
1040001300063R 01000000000000000000000000000000000000000000000000220112018000000000000200                                                                                                                                                       
1040001300064P 0101298027300700000000000140000000000324971122032497          2012201800000000000590000000099N0806201822012201800000000000060000000000000000000000000000000000000000000000000000000032497                    3001029090000000000 
1040001300065Q 012017407111000110LOCMARQUES-TRANSPORTE E LOCACAO LTDA ME RUA 11                                  UNIVERSITARIO  76380000GOIANESIA      GO0000000000000000                                                                       
1040001300066R 01000000000000000000000000000000000000000000000000220122018000000000000200                                                                                                                                                       
1040001300067P 0101298027300700000000000140000000000324981122032498          2001201900000000000590000000099N0806201822001201900000000000060000000000000000000000000000000000000000000000000000000032498                    3001029090000000000 
1040001300068Q 012017407111000110LOCMARQUES-TRANSPORTE E LOCACAO LTDA ME RUA 11                                  UNIVERSITARIO  76380000GOIANESIA      GO0000000000000000                                                                       
1040001300069R 01000000000000000000000000000000000000000000000000220012019000000000000200                                                                                                                                                       
1040001300070P 0101298027300700000000000140000000000324991122032499          2002201900000000000590000000099N0806201822002201900000000000060000000000000000000000000000000000000000000000000000000032499                    3001029090000000000 
1040001300071Q 012017407111000110LOCMARQUES-TRANSPORTE E LOCACAO LTDA ME RUA 11                                  UNIVERSITARIO  76380000GOIANESIA      GO0000000000000000                                                                       
1040001300072R 01000000000000000000000000000000000000000000000000220022019000000000000200                                                                                                                                                       
1040001300073P 0101298027300700000000000140000000000325001122032500          2003201900000000000590000000099N0806201822003201900000000000060000000000000000000000000000000000000000000000000000000032500                    3001029090000000000 
1040001300074Q 012017407111000110LOCMARQUES-TRANSPORTE E LOCACAO LTDA ME RUA 11                                  UNIVERSITARIO  76380000GOIANESIA      GO0000000000000000                                                                       
1040001300075R 01000000000000000000000000000000000000000000000000220032019000000000000200                                                                                                                                                       
1040001300076P 0101298027300700000000000140000000000325011122032501          2004201900000000000590000000099N0806201822004201900000000000060000000000000000000000000000000000000000000000000000000032501                    3001029090000000000 
1040001300077Q 012017407111000110LOCMARQUES-TRANSPORTE E LOCACAO LTDA ME RUA 11                                  UNIVERSITARIO  76380000GOIANESIA      GO0000000000000000                                                                       
1040001300078R 01000000000000000000000000000000000000000000000000220042019000000000000200                                                                                                                                                       
1040001300079P 0101298027300700000000000140000000000325021122032502          2005201900000000000590000000099N0806201822005201900000000000060000000000000000000000000000000000000000000000000000000032502                    3001029090000000000 
1040001300080Q 012017407111000110LOCMARQUES-TRANSPORTE E LOCACAO LTDA ME RUA 11                                  UNIVERSITARIO  76380000GOIANESIA      GO0000000000000000                                                                       
1040001300081R 01000000000000000000000000000000000000000000000000220052019000000000000200                                                                                                                                                       
1040001300082P 0101298027300700000000000140000000000325031122032503          2006201900000000000590000000099N0806201822006201900000000000060000000000000000000000000000000000000000000000000000000032503                    3001029090000000000 
1040001300083Q 012017407111000110LOCMARQUES-TRANSPORTE E LOCACAO LTDA ME RUA 11                                  UNIVERSITARIO  76380000GOIANESIA      GO0000000000000000                                                                       
1040001300084R 01000000000000000000000000000000000000000000000000220062019000000000000200                                                                                                                                                       
1040001300085P 0101298027300700000000000140000000000325061122032506          1107201800000000010530000000099N0806201821107201800000000000060000000000000000000000000000000000000000000000000000000032506                    3001029090000000000 
1040001300086Q 011000002685175172JOAO GONCALVES VILELA                   R 31                                    SETOR SUL      76380000GOIANESIA      GO0000000000000000                                                                       
1040001300087R 01000000000000000000000000000000000000000000000000211072018000000000000200                                                                                                                                                       
1040001300088P 0101298027300700000000000140000000000325081122032508          2906201800000000077880000000099N1106201822906201800000000000060000000000000000000000000000000000000000000000000000000032508                    3001029090000000000 
1040001300089Q 012002635522004930JALLES MACHADO S/A UNIDADE OTAVIO LAGE  RODOVIA GO 338                          ZONA RURAL     76380000GOIANESIA      GO0000000000000000                                                                       
1040001300090R 01000000000000000000000000000000000000000000000000229062018000000000000200                                                                                                                                                       
1040001300091P 0101298027300700000000000140000000000325091122032509          0807201800000000001500000000099N1106201820807201800000000000060000000000000000000000000000000000000000000000000000000032509                    3001029090000000000 
1040001300092Q 011000087562685134ARLETE DIAS LEITE                       AV L3 QD 04 LT 10                       LAGO AZUL 2    75370000ABADIA DE GOIASGO0000000000000000                                                                       
1040001300093R 01000000000000000000000000000000000000000000000000208072018000000000000200                                                                                                                                                       
1040001300094P 0101298027300700000000000140000000000325101122032510          0808201800000000001500000000099N1106201820808201800000000000060000000000000000000000000000000000000000000000000000000032510                    3001029090000000000 
1040001300095Q 011000087562685134ARLETE DIAS LEITE                       AV L3 QD 04 LT 10                       LAGO AZUL 2    75370000ABADIA DE GOIASGO0000000000000000                                                                       
1040001300096R 01000000000000000000000000000000000000000000000000208082018000000000000200                                                                                                                                                       
1040001300097P 0101298027300700000000000140000000000325111122032511          0809201800000000001500000000099N1106201820809201800000000000060000000000000000000000000000000000000000000000000000000032511                    3001029090000000000 
1040001300098Q 011000087562685134ARLETE DIAS LEITE                       AV L3 QD 04 LT 10                       LAGO AZUL 2    75370000ABADIA DE GOIASGO0000000000000000                                                                       
1040001300099R 01000000000000000000000000000000000000000000000000208092018000000000000200                                                                                                                                                       
1040001300100P 0101298027300700000000000140000000000325121122032512          0810201800000000001500000000099N1106201820810201800000000000060000000000000000000000000000000000000000000000000000000032512                    3001029090000000000 
1040001300101Q 011000087562685134ARLETE DIAS LEITE                       AV L3 QD 04 LT 10                       LAGO AZUL 2    75370000ABADIA DE GOIASGO0000000000000000                                                                       
1040001300102R 01000000000000000000000000000000000000000000000000208102018000000000000200                                                                                                                                                       
1040001300103P 0101298027300700000000000140000000000325131122032513          0811201800000000001500000000099N1106201820811201800000000000060000000000000000000000000000000000000000000000000000000032513                    3001029090000000000 
1040001300104Q 011000087562685134ARLETE DIAS LEITE                       AV L3 QD 04 LT 10                       LAGO AZUL 2    75370000ABADIA DE GOIASGO0000000000000000                                                                       
1040001300105R 01000000000000000000000000000000000000000000000000208112018000000000000200                                                                                                                                                       
1040001300106P 0101298027300700000000000140000000000325141122032514          0812201800000000001500000000099N1106201820812201800000000000060000000000000000000000000000000000000000000000000000000032514                    3001029090000000000 
1040001300107Q 011000087562685134ARLETE DIAS LEITE                       AV L3 QD 04 LT 10                       LAGO AZUL 2    75370000ABADIA DE GOIASGO0000000000000000                                                                       
1040001300108R 01000000000000000000000000000000000000000000000000208122018000000000000200                                                                                                                                                       
1040001300109P 0101298027300700000000000140000000000325151122032515          1306201800000000000465300000099N1206201821306201800000000000060000000000000000000000000000000000000000000000000000000032515                    3001029090000000000 
1040001300110Q 011000000678042179RUBEN RICARDO DE ANDRADE PASSOS         RUA DAMIAO PEIXOTO                      JUNDIAI        75110210ANAPOLIS       GO0000000000000000                                                                       
1040001300111R 01000000000000000000000000000000000000000000000000213062018000000000000200                                                                                                                                                       
1040001300112P 0101298027300700000000000140000000000325161122032516          1306201800000000000198000000099N1206201821306201800000000000060000000000000000000000000000000000000000000000000000000032516                    3001029090000000000 
1040001300113Q 011000060430367384EDUARDO RODRIGUES DOS SANTOS            RUA ANTONIO DOMINGO DOS SANTOS N°337                  63022270JUAZEIRO DO NORCE0000000000000000                                                                       
1040001300114R 01000000000000000000000000000000000000000000000000213062018000000000000200                                                                                                                                                       
1040001300115P 0101298027300700000000000140000000000325171122032517          2006201800000000023445000000099N1206201822006201800000000000060000000000000000000000000000000000000000000000000000000032517                    3001029090000000000 
1040001300116Q 012015686018000166SRS TECNOLOGIA E SEGURANCA-SAMUEL       RUA SIMOES FILHO,BAIRRO - PRACA KENNEDY PRACA KENNEDY  48020540ALAGOINHAS     BA0000000000000000                                                                       
1040001300117R 01000000000000000000000000000000000000000000000000220062018000000000000200                                                                                                                                                       
1040001300118P 0101298027300700000000000140000000000325181122032518          1306201800000000010000000000099N1206201821306201800000000000060000000000000000000000000000000000000000000000000000000032518                    3001029090000000000 
1040001300119Q 012001098583000106CONSELHO PARTICULAR PAPA PAULO VI - SSVPR 12                                    CENTRO         76310000RIALMA         GO0000000000000000                                                                       
1040001300120R 01000000000000000000000000000000000000000000000000213062018000000000000200                                                                                                                                                       
1040001300121P 0101298027300700000000000140000000000325191122032519          2506201800000000008500000000099N1306201822506201800000000000060000000000000000000000000000000000000000000000000000000032519                    3001029090000000000 
1040001300122Q 011000001522833404PAULO FERNANDO CAVALCANTE DE MORAIS E OUFAZ BOA ESPERANCA KM5 QD 0 LT 0 N 05    ZONA RURAL     76343000               GO0000000000000000                                                                       
1040001300123R 01000000000000000000000000000000000000000000000000225062018000000000000200                                                                                                                                                       
1040001300124P 0101298027300700000000000140000000000325201122032520          1806201800000000002000000000099N1306201821806201800000000000060000000000000000000000000000000000000000000000000000000032520                    3001029090000000000 
1040001300125Q 012017407111000110LOCMARQUES-TRANSPORTE E LOCACAO LTDA ME RUA 11                                  UNIVERSITARIO  76380000GOIANESIA      GO0000000000000000                                                                       
1040001300126R 01000000000000000000000000000000000000000000000000218062018000000000000200                                                                                                                                                       
1040001300127P 0101298027300700000000000140000000000325221122032522          2506201800000000007500000000099N1306201822506201800000000000060000000000000000000000000000000000000000000000000000000032522                    3001029090000000000 
1040001300128Q 012024689421000130SAMARA MARIA DA SILVA - ME              R 5 NORTE                               SETOR OESTE    76385286GOIANESIA      GO0000000000000000                                                                       
1040001300129R 01000000000000000000000000000000000000000000000000225062018000000000000200                                                                                                                                                       
1040001300130P 0101298027300700000000000140000000000325231122032523          2007201800000000001770000000099N1306201822007201800000000000060000000000000000000000000000000000000000000000000000000032523                    3001029090000000000 
1040001300131Q 012024689421000130SAMARA MARIA DA SILVA - ME              R 5 NORTE                               SETOR OESTE    76385286GOIANESIA      GO0000000000000000                                                                       
1040001300132R 01000000000000000000000000000000000000000000000000220072018000000000000200                                                                                                                                                       
1040001300133P 0101298027300700000000000140000000000325241122032524          2008201800000000001770000000099N1306201822008201800000000000060000000000000000000000000000000000000000000000000000000032524                    3001029090000000000 
1040001300134Q 012024689421000130SAMARA MARIA DA SILVA - ME              R 5 NORTE                               SETOR OESTE    76385286GOIANESIA      GO0000000000000000                                                                       
1040001300135R 01000000000000000000000000000000000000000000000000220082018000000000000200                                                                                                                                                       
1040001300136P 0101298027300700000000000140000000000325251122032525          2009201800000000001770000000099N1306201822009201800000000000060000000000000000000000000000000000000000000000000000000032525                    3001029090000000000 
1040001300137Q 012024689421000130SAMARA MARIA DA SILVA - ME              R 5 NORTE                               SETOR OESTE    76385286GOIANESIA      GO0000000000000000                                                                       
1040001300138R 01000000000000000000000000000000000000000000000000220092018000000000000200                                                                                                                                                       
1040001300139P 0101298027300700000000000140000000000325261122032526          2010201800000000001770000000099N1306201822010201800000000000060000000000000000000000000000000000000000000000000000000032526                    3001029090000000000 
1040001300140Q 012024689421000130SAMARA MARIA DA SILVA - ME              R 5 NORTE                               SETOR OESTE    76385286GOIANESIA      GO0000000000000000                                                                       
1040001300141R 01000000000000000000000000000000000000000000000000220102018000000000000200                                                                                                                                                       
1040001300142P 0101298027300700000000000140000000000325271122032527          2011201800000000001770000000099N1306201822011201800000000000060000000000000000000000000000000000000000000000000000000032527                    3001029090000000000 
1040001300143Q 012024689421000130SAMARA MARIA DA SILVA - ME              R 5 NORTE                               SETOR OESTE    76385286GOIANESIA      GO0000000000000000                                                                       
1040001300144R 01000000000000000000000000000000000000000000000000220112018000000000000200                                                                                                                                                       
1040001300145P 0101298027300700000000000140000000000325281122032528          2012201800000000001770000000099N1306201822012201800000000000060000000000000000000000000000000000000000000000000000000032528                    3001029090000000000 
1040001300146Q 012024689421000130SAMARA MARIA DA SILVA - ME              R 5 NORTE                               SETOR OESTE    76385286GOIANESIA      GO0000000000000000                                                                       
1040001300147R 01000000000000000000000000000000000000000000000000220122018000000000000200                                                                                                                                                       
1040001300148P 0101298027300700000000000140000000000325291122032529          2001201900000000001770000000099N1306201822001201900000000000060000000000000000000000000000000000000000000000000000000032529                    3001029090000000000 
1040001300149Q 012024689421000130SAMARA MARIA DA SILVA - ME              R 5 NORTE                               SETOR OESTE    76385286GOIANESIA      GO0000000000000000                                                                       
1040001300150R 01000000000000000000000000000000000000000000000000220012019000000000000200                                                                                                                                                       
1040001300151P 0101298027300700000000000140000000000325301122032530          2002201900000000001770000000099N1306201822002201900000000000060000000000000000000000000000000000000000000000000000000032530                    3001029090000000000 
1040001300152Q 012024689421000130SAMARA MARIA DA SILVA - ME              R 5 NORTE                               SETOR OESTE    76385286GOIANESIA      GO0000000000000000                                                                       
1040001300153R 01000000000000000000000000000000000000000000000000220022019000000000000200                                                                                                                                                       
1040001300154P 0101298027300700000000000140000000000325311122032531          2003201900000000001770000000099N1306201822003201900000000000060000000000000000000000000000000000000000000000000000000032531                    3001029090000000000 
1040001300155Q 012024689421000130SAMARA MARIA DA SILVA - ME              R 5 NORTE                               SETOR OESTE    76385286GOIANESIA      GO0000000000000000                                                                       
1040001300156R 01000000000000000000000000000000000000000000000000220032019000000000000200                                                                                                                                                       
1040001300157P 0101298027300700000000000140000000000325321122032532          2004201900000000001770000000099N1306201822004201900000000000060000000000000000000000000000000000000000000000000000000032532                    3001029090000000000 
1040001300158Q 012024689421000130SAMARA MARIA DA SILVA - ME              R 5 NORTE                               SETOR OESTE    76385286GOIANESIA      GO0000000000000000                                                                       
1040001300159R 01000000000000000000000000000000000000000000000000220042019000000000000200                                                                                                                                                       
1040001300160P 0101298027300700000000000140000000000325331122032533          2005201900000000001770000000099N1306201822005201900000000000060000000000000000000000000000000000000000000000000000000032533                    3001029090000000000 
1040001300161Q 012024689421000130SAMARA MARIA DA SILVA - ME              R 5 NORTE                               SETOR OESTE    76385286GOIANESIA      GO0000000000000000                                                                       
1040001300162R 01000000000000000000000000000000000000000000000000220052019000000000000200                                                                                                                                                       
1040001300163P 0101298027300700000000000140000000000325341122032534          2006201900000000001770000000099N1306201822006201900000000000060000000000000000000000000000000000000000000000000000000032534                    3001029090000000000 
1040001300164Q 012024689421000130SAMARA MARIA DA SILVA - ME              R 5 NORTE                               SETOR OESTE    76385286GOIANESIA      GO0000000000000000                                                                       
1040001300165R 01000000000000000000000000000000000000000000000000220062019000000000000200                                                                                                                                                       
1040001300166P 0101298027300700000000000140000000000325361122032536          2506201800000000096667200000099N1306201822506201800000000000060000000000000000000000000000000000000000000000000000000032536                    3001029090000000000 
1040001300167Q 011000001522833404PAULO FERNANDO CAVALCANTE DE MORAIS E OUFAZ BOA ESPERANCA KM5 QD 0 LT 0 N 05    ZONA RURAL     76343000               GO0000000000000000                                                                       
1040001300168R 01000000000000000000000000000000000000000000000000225062018000000000000200                                                                                                                                                       
1040001300169P 0101298027300700000000000140000000000325371122032537          1002201800000000000750000000099N1306201821002201800000000000060000000000000000000000000000000000000000000000000000000032537                    3001029090000000000 
1040001300170Q 011000085025585104MARCELO DOS SANTOS DIAS MACHADO         RUA 21 QA L23                           JARDIM SORRISO 76300000CERES          GO0000000000000000                                                                       
1040001300171R 01000000000000000000000000000000000000000000000000210022018000000000000200                                                                                                                                                       
1040001300172P 0101298027300700000000000140000000000325381122032538          1003201800000000000750000000099N1306201821003201800000000000060000000000000000000000000000000000000000000000000000000032538                    3001029090000000000 
1040001300173Q 011000085025585104MARCELO DOS SANTOS DIAS MACHADO         RUA 21 QA L23                           JARDIM SORRISO 76300000CERES          GO0000000000000000                                                                       
1040001300174R 01000000000000000000000000000000000000000000000000210032018000000000000200                                                                                                                                                       
1040001300175P 0101298027300700000000000140000000000325391122032539          1004201800000000000750000000099N1306201821004201800000000000060000000000000000000000000000000000000000000000000000000032539                    3001029090000000000 
1040001300176Q 011000085025585104MARCELO DOS SANTOS DIAS MACHADO         RUA 21 QA L23                           JARDIM SORRISO 76300000CERES          GO0000000000000000                                                                       
1040001300177R 01000000000000000000000000000000000000000000000000210042018000000000000200                                                                                                                                                       
1040001300178P 0101298027300700000000000140000000000325401122032540          1005201800000000000750000000099N1306201821005201800000000000060000000000000000000000000000000000000000000000000000000032540                    3001029090000000000 
1040001300179Q 011000085025585104MARCELO DOS SANTOS DIAS MACHADO         RUA 21 QA L23                           JARDIM SORRISO 76300000CERES          GO0000000000000000                                                                       
1040001300180R 01000000000000000000000000000000000000000000000000210052018000000000000200                                                                                                                                                       
1040001300181P 0101298027300700000000000140000000000325411122032541          1006201800000000000750000000099N1306201821006201800000000000060000000000000000000000000000000000000000000000000000000032541                    3001029090000000000 
1040001300182Q 011000085025585104MARCELO DOS SANTOS DIAS MACHADO         RUA 21 QA L23                           JARDIM SORRISO 76300000CERES          GO0000000000000000                                                                       
1040001300183R 01000000000000000000000000000000000000000000000000210062018000000000000200                                                                                                                                                       
1040001300184P 0101298027300700000000000140000000000325421122032542          1007201800000000000750000000099N1306201821007201800000000000060000000000000000000000000000000000000000000000000000000032542                    3001029090000000000 
1040001300185Q 011000085025585104MARCELO DOS SANTOS DIAS MACHADO         RUA 21 QA L23                           JARDIM SORRISO 76300000CERES          GO0000000000000000                                                                       
1040001300186R 01000000000000000000000000000000000000000000000000210072018000000000000200                                                                                                                                                       
1040001300187P 0101298027300700000000000140000000000325431122032543          1008201800000000000750000000099N1306201821008201800000000000060000000000000000000000000000000000000000000000000000000032543                    3001029090000000000 
1040001300188Q 011000085025585104MARCELO DOS SANTOS DIAS MACHADO         RUA 21 QA L23                           JARDIM SORRISO 76300000CERES          GO0000000000000000                                                                       
1040001300189R 01000000000000000000000000000000000000000000000000210082018000000000000200                                                                                                                                                       
1040001300190P 0101298027300700000000000140000000000325441122032544          1009201800000000000750000000099N1306201821009201800000000000060000000000000000000000000000000000000000000000000000000032544                    3001029090000000000 
1040001300191Q 011000085025585104MARCELO DOS SANTOS DIAS MACHADO         RUA 21 QA L23                           JARDIM SORRISO 76300000CERES          GO0000000000000000                                                                       
1040001300192R 01000000000000000000000000000000000000000000000000210092018000000000000200                                                                                                                                                       
1040001300193P 0101298027300700000000000140000000000325451122032545          1010201800000000000750000000099N1306201821010201800000000000060000000000000000000000000000000000000000000000000000000032545                    3001029090000000000 
1040001300194Q 011000085025585104MARCELO DOS SANTOS DIAS MACHADO         RUA 21 QA L23                           JARDIM SORRISO 76300000CERES          GO0000000000000000                                                                       
1040001300195R 01000000000000000000000000000000000000000000000000210102018000000000000200                                                                                                                                                       
1040001300196P 0101298027300700000000000140000000000325461122032546          1011201800000000000750000000099N1306201821011201800000000000060000000000000000000000000000000000000000000000000000000032546                    3001029090000000000 
1040001300197Q 011000085025585104MARCELO DOS SANTOS DIAS MACHADO         RUA 21 QA L23                           JARDIM SORRISO 76300000CERES          GO0000000000000000                                                                       
1040001300198R 01000000000000000000000000000000000000000000000000210112018000000000000200                                                                                                                                                       
1040001300199P 0101298027300700000000000140000000000325471122032547          1012201800000000000750000000099N1306201821012201800000000000060000000000000000000000000000000000000000000000000000000032547                    3001029090000000000 
1040001300200Q 011000085025585104MARCELO DOS SANTOS DIAS MACHADO         RUA 21 QA L23                           JARDIM SORRISO 76300000CERES          GO0000000000000000                                                                       
1040001300201R 01000000000000000000000000000000000000000000000000210122018000000000000200                                                                                                                                                       
1040001300202P 0101298027300700000000000140000000000325481122032548          1001201900000000000750000000099N1306201821001201900000000000060000000000000000000000000000000000000000000000000000000032548                    3001029090000000000 
1040001300203Q 011000085025585104MARCELO DOS SANTOS DIAS MACHADO         RUA 21 QA L23                           JARDIM SORRISO 76300000CERES          GO0000000000000000                                                                       
1040001300204R 01000000000000000000000000000000000000000000000000210012019000000000000200                                                                                                                                                       
1040001300205P 0101298027300700000000000140000000000325491122032549          2008201800000000000399000000099N1306201822008201800000000000060000000000000000000000000000000000000000000000000000000032549                    3001029090000000000 
1040001300206Q 011000003265621170MARCEL DIAS DA SILVA                    RUA CISNES QD 5 LT 11                   JARDIM DO LAGO 76340000CARMO DO RIO VEGO0000000000000000                                                                       
1040001300207R 01000000000000000000000000000000000000000000000000220082018000000000000200                                                                                                                                                       
1040001300208P 0101298027300700000000000140000000000325501122032550          2009201800000000000399000000099N1306201822009201800000000000060000000000000000000000000000000000000000000000000000000032550                    3001029090000000000 
1040001300209Q 011000003265621170MARCEL DIAS DA SILVA                    RUA CISNES QD 5 LT 11                   JARDIM DO LAGO 76340000CARMO DO RIO VEGO0000000000000000                                                                       
1040001300210R 01000000000000000000000000000000000000000000000000220092018000000000000200                                                                                                                                                       
1040001300211P 0101298027300700000000000140000000000325511122032551          2010201800000000000399000000099N1306201822010201800000000000060000000000000000000000000000000000000000000000000000000032551                    3001029090000000000 
1040001300212Q 011000003265621170MARCEL DIAS DA SILVA                    RUA CISNES QD 5 LT 11                   JARDIM DO LAGO 76340000CARMO DO RIO VEGO0000000000000000                                                                       
1040001300213R 01000000000000000000000000000000000000000000000000220102018000000000000200                                                                                                                                                       
1040001300214P 0101298027300700000000000140000000000325521122032552          2011201800000000000399000000099N1306201822011201800000000000060000000000000000000000000000000000000000000000000000000032552                    3001029090000000000 
1040001300215Q 011000003265621170MARCEL DIAS DA SILVA                    RUA CISNES QD 5 LT 11                   JARDIM DO LAGO 76340000CARMO DO RIO VEGO0000000000000000                                                                       
1040001300216R 01000000000000000000000000000000000000000000000000220112018000000000000200                                                                                                                                                       
1040001300217P 0101298027300700000000000140000000000325531122032553          2012201800000000000399000000099N1306201822012201800000000000060000000000000000000000000000000000000000000000000000000032553                    3001029090000000000 
1040001300218Q 011000003265621170MARCEL DIAS DA SILVA                    RUA CISNES QD 5 LT 11                   JARDIM DO LAGO 76340000CARMO DO RIO VEGO0000000000000000                                                                       
1040001300219R 01000000000000000000000000000000000000000000000000220122018000000000000200                                                                                                                                                       
1040001300220P 0101298027300700000000000140000000000325541122032554          2001201900000000000399000000099N1306201822001201900000000000060000000000000000000000000000000000000000000000000000000032554                    3001029090000000000 
1040001300221Q 011000003265621170MARCEL DIAS DA SILVA                    RUA CISNES QD 5 LT 11                   JARDIM DO LAGO 76340000CARMO DO RIO VEGO0000000000000000                                                                       
1040001300222R 01000000000000000000000000000000000000000000000000220012019000000000000200                                                                                                                                                       
1040001300223P 0101298027300700000000000140000000000325551122032555          2002201900000000000399000000099N1306201822002201900000000000060000000000000000000000000000000000000000000000000000000032555                    3001029090000000000 
1040001300224Q 011000003265621170MARCEL DIAS DA SILVA                    RUA CISNES QD 5 LT 11                   JARDIM DO LAGO 76340000CARMO DO RIO VEGO0000000000000000                                                                       
1040001300225R 01000000000000000000000000000000000000000000000000220022019000000000000200                                                                                                                                                       
1040001300226P 0101298027300700000000000140000000000325561122032556          2003201900000000000399000000099N1306201822003201900000000000060000000000000000000000000000000000000000000000000000000032556                    3001029090000000000 
1040001300227Q 011000003265621170MARCEL DIAS DA SILVA                    RUA CISNES QD 5 LT 11                   JARDIM DO LAGO 76340000CARMO DO RIO VEGO0000000000000000                                                                       
1040001300228R 01000000000000000000000000000000000000000000000000220032019000000000000200                                                                                                                                                       
1040001300229P 0101298027300700000000000140000000000325571122032557          2004201900000000000399000000099N1306201822004201900000000000060000000000000000000000000000000000000000000000000000000032557                    3001029090000000000 
1040001300230Q 011000003265621170MARCEL DIAS DA SILVA                    RUA CISNES QD 5 LT 11                   JARDIM DO LAGO 76340000CARMO DO RIO VEGO0000000000000000                                                                       
1040001300231R 01000000000000000000000000000000000000000000000000220042019000000000000200                                                                                                                                                       
1040001300232P 0101298027300700000000000140000000000325581122032558          2005201900000000000399000000099N1306201822005201900000000000060000000000000000000000000000000000000000000000000000000032558                    3001029090000000000 
1040001300233Q 011000003265621170MARCEL DIAS DA SILVA                    RUA CISNES QD 5 LT 11                   JARDIM DO LAGO 76340000CARMO DO RIO VEGO0000000000000000                                                                       
1040001300234R 01000000000000000000000000000000000000000000000000220052019000000000000200                                                                                                                                                       
1040001300235P 0101298027300700000000000140000000000325591122032559          2006201900000000000399000000099N1306201822006201900000000000060000000000000000000000000000000000000000000000000000000032559                    3001029090000000000 
1040001300236Q 011000003265621170MARCEL DIAS DA SILVA                    RUA CISNES QD 5 LT 11                   JARDIM DO LAGO 76340000CARMO DO RIO VEGO0000000000000000                                                                       
1040001300237R 01000000000000000000000000000000000000000000000000220062019000000000000200                                                                                                                                                       
1040001300238P 0101298027300700000000000140000000000325601122032560          2007201900000000000399000000099N1306201822007201900000000000060000000000000000000000000000000000000000000000000000000032560                    3001029090000000000 
1040001300239Q 011000003265621170MARCEL DIAS DA SILVA                    RUA CISNES QD 5 LT 11                   JARDIM DO LAGO 76340000CARMO DO RIO VEGO0000000000000000                                                                       
1040001300240R 01000000000000000000000000000000000000000000000000220072019000000000000200                                                                                                                                                       
1040001300241P 0101298027300700000000000140000000000325611122032561          2011201700000000003300000000099N1306201822011201700000000000060000000000000000000000000000000000000000000000000000000032561                    3001029090000000000 
1040001300242Q 012020086220000197RENATA PEREIRA MARTINS RODRIGUES - ME   RUA RIO BRANCO                          CENTRO         75960000ACREUNA        GO0000000000000000                                                                       
1040001300243R 01000000000000000000000000000000000000000000000000220112017000000000000200                                                                                                                                                       
1040001300244P 0101298027300700000000000140000000000325621122032562          2012201700000000003300000000099N1306201822012201700000000000060000000000000000000000000000000000000000000000000000000032562                    3001029090000000000 
1040001300245Q 012020086220000197RENATA PEREIRA MARTINS RODRIGUES - ME   RUA RIO BRANCO                          CENTRO         75960000ACREUNA        GO0000000000000000                                                                       
1040001300246R 01000000000000000000000000000000000000000000000000220122017000000000000200                                                                                                                                                       
1040001300247P 0101298027300700000000000140000000000325631122032563          2001201800000000003300000000099N1306201822001201800000000000060000000000000000000000000000000000000000000000000000000032563                    3001029090000000000 
1040001300248Q 012020086220000197RENATA PEREIRA MARTINS RODRIGUES - ME   RUA RIO BRANCO                          CENTRO         75960000ACREUNA        GO0000000000000000                                                                       
1040001300249R 01000000000000000000000000000000000000000000000000220012018000000000000200                                                                                                                                                       
1040001300250P 0101298027300700000000000140000000000325641122032564          2002201800000000003300000000099N1306201822002201800000000000060000000000000000000000000000000000000000000000000000000032564                    3001029090000000000 
1040001300251Q 012020086220000197RENATA PEREIRA MARTINS RODRIGUES - ME   RUA RIO BRANCO                          CENTRO         75960000ACREUNA        GO0000000000000000                                                                       
1040001300252R 01000000000000000000000000000000000000000000000000220022018000000000000200                                                                                                                                                       
1040001300253P 0101298027300700000000000140000000000325651122032565          2003201800000000003300000000099N1306201822003201800000000000060000000000000000000000000000000000000000000000000000000032565                    3001029090000000000 
1040001300254Q 012020086220000197RENATA PEREIRA MARTINS RODRIGUES - ME   RUA RIO BRANCO                          CENTRO         75960000ACREUNA        GO0000000000000000                                                                       
1040001300255R 01000000000000000000000000000000000000000000000000220032018000000000000200                                                                                                                                                       
1040001300256P 0101298027300700000000000140000000000325661122032566          2004201800000000003300000000099N1306201822004201800000000000060000000000000000000000000000000000000000000000000000000032566                    3001029090000000000 
1040001300257Q 012020086220000197RENATA PEREIRA MARTINS RODRIGUES - ME   RUA RIO BRANCO                          CENTRO         75960000ACREUNA        GO0000000000000000                                                                       
1040001300258R 01000000000000000000000000000000000000000000000000220042018000000000000200                                                                                                                                                       
1040001300259P 0101298027300700000000000140000000000325671122032567          2005201800000000003300000000099N1306201822005201800000000000060000000000000000000000000000000000000000000000000000000032567                    3001029090000000000 
1040001300260Q 012020086220000197RENATA PEREIRA MARTINS RODRIGUES - ME   RUA RIO BRANCO                          CENTRO         75960000ACREUNA        GO0000000000000000                                                                       
1040001300261R 01000000000000000000000000000000000000000000000000220052018000000000000200                                                                                                                                                       
1040001300262P 0101298027300700000000000140000000000325681122032568          2006201800000000003300000000099N1306201822006201800000000000060000000000000000000000000000000000000000000000000000000032568                    3001029090000000000 
1040001300263Q 012020086220000197RENATA PEREIRA MARTINS RODRIGUES - ME   RUA RIO BRANCO                          CENTRO         75960000ACREUNA        GO0000000000000000                                                                       
1040001300264R 01000000000000000000000000000000000000000000000000220062018000000000000200                                                                                                                                                       
1040001300265P 0101298027300700000000000140000000000325691122032569          2007201800000000003300000000099N1306201822007201800000000000060000000000000000000000000000000000000000000000000000000032569                    3001029090000000000 
1040001300266Q 012020086220000197RENATA PEREIRA MARTINS RODRIGUES - ME   RUA RIO BRANCO                          CENTRO         75960000ACREUNA        GO0000000000000000                                                                       
1040001300267R 01000000000000000000000000000000000000000000000000220072018000000000000200                                                                                                                                                       
1040001300268P 0101298027300700000000000140000000000325701122032570          2008201800000000003300000000099N1306201822008201800000000000060000000000000000000000000000000000000000000000000000000032570                    3001029090000000000 
1040001300269Q 012020086220000197RENATA PEREIRA MARTINS RODRIGUES - ME   RUA RIO BRANCO                          CENTRO         75960000ACREUNA        GO0000000000000000                                                                       
1040001300270R 01000000000000000000000000000000000000000000000000220082018000000000000200                                                                                                                                                       
1040001300271P 0101298027300700000000000140000000000325711122032571          2009201800000000003300000000099N1306201822009201800000000000060000000000000000000000000000000000000000000000000000000032571                    3001029090000000000 
1040001300272Q 012020086220000197RENATA PEREIRA MARTINS RODRIGUES - ME   RUA RIO BRANCO                          CENTRO         75960000ACREUNA        GO0000000000000000                                                                       
1040001300273R 01000000000000000000000000000000000000000000000000220092018000000000000200                                                                                                                                                       
1040001300274P 0101298027300700000000000140000000000325721122032572          2010201800000000003300000000099N1306201822010201800000000000060000000000000000000000000000000000000000000000000000000032572                    3001029090000000000 
1040001300275Q 012020086220000197RENATA PEREIRA MARTINS RODRIGUES - ME   RUA RIO BRANCO                          CENTRO         75960000ACREUNA        GO0000000000000000                                                                       
1040001300276R 01000000000000000000000000000000000000000000000000220102018000000000000200                                                                                                                                                       
1040001300277P 0101298027300700000000000140000000000325731122032573          2011201800000000003300000000099N1306201822011201800000000000060000000000000000000000000000000000000000000000000000000032573                    3001029090000000000 
1040001300278Q 012020086220000197RENATA PEREIRA MARTINS RODRIGUES - ME   RUA RIO BRANCO                          CENTRO         75960000ACREUNA        GO0000000000000000                                                                       
1040001300279R 01000000000000000000000000000000000000000000000000220112018000000000000200                                                                                                                                                       
1040001300280P 0101298027300700000000000140000000000325741122032574          2012201800000000003300000000099N1306201822012201800000000000060000000000000000000000000000000000000000000000000000000032574                    3001029090000000000 
1040001300281Q 012020086220000197RENATA PEREIRA MARTINS RODRIGUES - ME   RUA RIO BRANCO                          CENTRO         75960000ACREUNA        GO0000000000000000                                                                       
1040001300282R 01000000000000000000000000000000000000000000000000220122018000000000000200                                                                                                                                                       
1040001300283P 0101298027300700000000000140000000000325751122032575          2001201900000000003300000000099N1306201822001201900000000000060000000000000000000000000000000000000000000000000000000032575                    3001029090000000000 
1040001300284Q 012020086220000197RENATA PEREIRA MARTINS RODRIGUES - ME   RUA RIO BRANCO                          CENTRO         75960000ACREUNA        GO0000000000000000                                                                       
1040001300285R 01000000000000000000000000000000000000000000000000220012019000000000000200                                                                                                                                                       
1040001300286P 0101298027300700000000000140000000000325761122032576          2002201900000000003300000000099N1306201822002201900000000000060000000000000000000000000000000000000000000000000000000032576                    3001029090000000000 
1040001300287Q 012020086220000197RENATA PEREIRA MARTINS RODRIGUES - ME   RUA RIO BRANCO                          CENTRO         75960000ACREUNA        GO0000000000000000                                                                       
1040001300288R 01000000000000000000000000000000000000000000000000220022019000000000000200                                                                                                                                                       
1040001300289P 0101298027300700000000000140000000000325771122032577          2003201900000000003300000000099N1306201822003201900000000000060000000000000000000000000000000000000000000000000000000032577                    3001029090000000000 
1040001300290Q 012020086220000197RENATA PEREIRA MARTINS RODRIGUES - ME   RUA RIO BRANCO                          CENTRO         75960000ACREUNA        GO0000000000000000                                                                       
1040001300291R 01000000000000000000000000000000000000000000000000220032019000000000000200                                                                                                                                                       
1040001300292P 0101298027300700000000000140000000000325801122032580          1806201800000000012140000000099N1406201821806201800000000000060000000000000000000000000000000000000000000000000000000032580                    3001029090000000000 
1040001300293Q 012024680018000140CONDOMINIO RESIDENCIAL VILA BELLA       RUA BURITI                              PARQUE DAS PALM76386613GOIANESIA      GO0000000000000000                                                                       
1040001300294R 01000000000000000000000000000000000000000000000000218062018000000000000200                                                                                                                                                       
1040001300295P 0101298027300700000000000140000000000325811122032581          1807201800000000002500000000099N1406201821807201800000000000060000000000000000000000000000000000000000000000000000000032581                    3001029090000000000 
1040001300296Q 012024680018000140CONDOMINIO RESIDENCIAL VILA BELLA       RUA BURITI                              PARQUE DAS PALM76386613GOIANESIA      GO0000000000000000                                                                       
1040001300297R 01000000000000000000000000000000000000000000000000218072018000000000000200                                                                                                                                                       
1040001300298P 0101298027300700000000000140000000000325821122032582          1808201800000000002500000000099N1406201821808201800000000000060000000000000000000000000000000000000000000000000000000032582                    3001029090000000000 
1040001300299Q 012024680018000140CONDOMINIO RESIDENCIAL VILA BELLA       RUA BURITI                              PARQUE DAS PALM76386613GOIANESIA      GO0000000000000000                                                                       
1040001300300R 01000000000000000000000000000000000000000000000000218082018000000000000200                                                                                                                                                       
1040001300301P 0101298027300700000000000140000000000325831122032583          1809201800000000002500000000099N1406201821809201800000000000060000000000000000000000000000000000000000000000000000000032583                    3001029090000000000 
1040001300302Q 012024680018000140CONDOMINIO RESIDENCIAL VILA BELLA       RUA BURITI                              PARQUE DAS PALM76386613GOIANESIA      GO0000000000000000                                                                       
1040001300303R 01000000000000000000000000000000000000000000000000218092018000000000000200                                                                                                                                                       
1040001300304P 0101298027300700000000000140000000000325841122032584          1810201800000000002500000000099N1406201821810201800000000000060000000000000000000000000000000000000000000000000000000032584                    3001029090000000000 
1040001300305Q 012024680018000140CONDOMINIO RESIDENCIAL VILA BELLA       RUA BURITI                              PARQUE DAS PALM76386613GOIANESIA      GO0000000000000000                                                                       
1040001300306R 01000000000000000000000000000000000000000000000000218102018000000000000200                                                                                                                                                       
1040001300307P 0101298027300700000000000140000000000325851122032585          1806201800000000004000000000099N1506201821806201800000000000060000000000000000000000000000000000000000000000000000000032585                    3001029090000000000 
1040001300308Q 012027323413000163AURELIANO LIMA E ANDRADE TRANSPORTES LTDRUA 29                                  SETOR SUL      76382181GOIANESIA      GO0000000000000000                                                                       
1040001300309R 01000000000000000000000000000000000000000000000000218062018000000000000200                                                                                                                                                       
1040001300310P 0101298027300700000000000140000000000325861122032586          2008201800000000001180000000099N1506201822008201800000000000060000000000000000000000000000000000000000000000000000000032586                    3001029090000000000 
1040001300311Q 012027323413000163AURELIANO LIMA E ANDRADE TRANSPORTES LTDRUA 29                                  SETOR SUL      76382181GOIANESIA      GO0000000000000000                                                                       
1040001300312R 01000000000000000000000000000000000000000000000000220082018000000000000200                                                                                                                                                       
1040001300313P 0101298027300700000000000140000000000325871122032587          2009201800000000001180000000099N1506201822009201800000000000060000000000000000000000000000000000000000000000000000000032587                    3001029090000000000 
1040001300314Q 012027323413000163AURELIANO LIMA E ANDRADE TRANSPORTES LTDRUA 29                                  SETOR SUL      76382181GOIANESIA      GO0000000000000000                                                                       
1040001300315R 01000000000000000000000000000000000000000000000000220092018000000000000200                                                                                                                                                       
1040001300316P 0101298027300700000000000140000000000325881122032588          2010201800000000001180000000099N1506201822010201800000000000060000000000000000000000000000000000000000000000000000000032588                    3001029090000000000 
1040001300317Q 012027323413000163AURELIANO LIMA E ANDRADE TRANSPORTES LTDRUA 29                                  SETOR SUL      76382181GOIANESIA      GO0000000000000000                                                                       
1040001300318R 01000000000000000000000000000000000000000000000000220102018000000000000200                                                                                                                                                       
1040001300319P 0101298027300700000000000140000000000325891122032589          2011201800000000001180000000099N1506201822011201800000000000060000000000000000000000000000000000000000000000000000000032589                    3001029090000000000 
1040001300320Q 012027323413000163AURELIANO LIMA E ANDRADE TRANSPORTES LTDRUA 29                                  SETOR SUL      76382181GOIANESIA      GO0000000000000000                                                                       
1040001300321R 01000000000000000000000000000000000000000000000000220112018000000000000200                                                                                                                                                       
1040001300322P 0101298027300700000000000140000000000325901122032590          2012201800000000001180000000099N1506201822012201800000000000060000000000000000000000000000000000000000000000000000000032590                    3001029090000000000 
1040001300323Q 012027323413000163AURELIANO LIMA E ANDRADE TRANSPORTES LTDRUA 29                                  SETOR SUL      76382181GOIANESIA      GO0000000000000000                                                                       
1040001300324R 01000000000000000000000000000000000000000000000000220122018000000000000200                                                                                                                                                       
1040001300325P 0101298027300700000000000140000000000325911122032591          2001201900000000001180000000099N1506201822001201900000000000060000000000000000000000000000000000000000000000000000000032591                    3001029090000000000 
1040001300326Q 012027323413000163AURELIANO LIMA E ANDRADE TRANSPORTES LTDRUA 29                                  SETOR SUL      76382181GOIANESIA      GO0000000000000000                                                                       
1040001300327R 01000000000000000000000000000000000000000000000000220012019000000000000200                                                                                                                                                       
1040001300328P 0101298027300700000000000140000000000325921122032592          2002201900000000001180000000099N1506201822002201900000000000060000000000000000000000000000000000000000000000000000000032592                    3001029090000000000 
1040001300329Q 012027323413000163AURELIANO LIMA E ANDRADE TRANSPORTES LTDRUA 29                                  SETOR SUL      76382181GOIANESIA      GO0000000000000000                                                                       
1040001300330R 01000000000000000000000000000000000000000000000000220022019000000000000200                                                                                                                                                       
1040001300331P 0101298027300700000000000140000000000325931122032593          2003201900000000001180000000099N1506201822003201900000000000060000000000000000000000000000000000000000000000000000000032593                    3001029090000000000 
1040001300332Q 012027323413000163AURELIANO LIMA E ANDRADE TRANSPORTES LTDRUA 29                                  SETOR SUL      76382181GOIANESIA      GO0000000000000000                                                                       
1040001300333R 01000000000000000000000000000000000000000000000000220032019000000000000200                                                                                                                                                       
1040001300334P 0101298027300700000000000140000000000325941122032594          2004201900000000001180000000099N1506201822004201900000000000060000000000000000000000000000000000000000000000000000000032594                    3001029090000000000 
1040001300335Q 012027323413000163AURELIANO LIMA E ANDRADE TRANSPORTES LTDRUA 29                                  SETOR SUL      76382181GOIANESIA      GO0000000000000000                                                                       
1040001300336R 01000000000000000000000000000000000000000000000000220042019000000000000200                                                                                                                                                       
1040001300337P 0101298027300700000000000140000000000325951122032595          2005201900000000001180000000099N1506201822005201900000000000060000000000000000000000000000000000000000000000000000000032595                    3001029090000000000 
1040001300338Q 012027323413000163AURELIANO LIMA E ANDRADE TRANSPORTES LTDRUA 29                                  SETOR SUL      76382181GOIANESIA      GO0000000000000000                                                                       
1040001300339R 01000000000000000000000000000000000000000000000000220052019000000000000200                                                                                                                                                       
1040001300340P 0101298027300700000000000140000000000325961122032596          2006201900000000001180000000099N1506201822006201900000000000060000000000000000000000000000000000000000000000000000000032596                    3001029090000000000 
1040001300341Q 012027323413000163AURELIANO LIMA E ANDRADE TRANSPORTES LTDRUA 29                                  SETOR SUL      76382181GOIANESIA      GO0000000000000000                                                                       
1040001300342R 01000000000000000000000000000000000000000000000000220062019000000000000200                                                                                                                                                       
1040001300343P 0101298027300700000000000140000000000325971122032597          2007201900000000001180000000099N1506201822007201900000000000060000000000000000000000000000000000000000000000000000000032597                    3001029090000000000 
1040001300344Q 012027323413000163AURELIANO LIMA E ANDRADE TRANSPORTES LTDRUA 29                                  SETOR SUL      76382181GOIANESIA      GO0000000000000000                                                                       
1040001300345R 01000000000000000000000000000000000000000000000000220072019000000000000200                                                                                                                                                       
1040001300346P 0101298027300700000000000140000000000326021122032602          1507201800000000003137300000099N1506201821507201800000000000060000000000000000000000000000000000000000000000000000000032602                    3001029090000000000 
1040001300347Q 011000005271613739CARLA VALDILENE DE LIMA SANTOS MENDES   RUA COBE                                BANGU          21820200RIO DE JANEIRO RJ0000000000000000                                                                       
1040001300348R 01000000000000000000000000000000000000000000000000215072018000000000000200                                                                                                                                                       
1040001300349P 0101298027300700000000000140000000000326031122032603          1508201800000000003137300000099N1506201821508201800000000000060000000000000000000000000000000000000000000000000000000032603                    3001029090000000000 
1040001300350Q 011000005271613739CARLA VALDILENE DE LIMA SANTOS MENDES   RUA COBE                                BANGU          21820200RIO DE JANEIRO RJ0000000000000000                                                                       
1040001300351R 01000000000000000000000000000000000000000000000000215082018000000000000200                                                                                                                                                       
1040001300352P 0101298027300700000000000140000000000326041122032604          1010201800000000000690000000099N1606201821010201800000000000060000000000000000000000000000000000000000000000000000000032604                    3001029090000000000 
1040001300353Q 011000000754745147JOSE CARLOS DE SOUSA                    RUA MARIA SABINA                        JARDIM PRIMAVER76340000CARMO DO RIO VEGO0000000000000000                                                                       
1040001300354R 01000000000000000000000000000000000000000000000000210102018000000000000200                                                                                                                                                       
1040001300355P 0101298027300700000000000140000000000326051122032605          1011201800000000000690000000099N1606201821011201800000000000060000000000000000000000000000000000000000000000000000000032605                    3001029090000000000 
1040001300356Q 011000000754745147JOSE CARLOS DE SOUSA                    RUA MARIA SABINA                        JARDIM PRIMAVER76340000CARMO DO RIO VEGO0000000000000000                                                                       
1040001300357R 01000000000000000000000000000000000000000000000000210112018000000000000200                                                                                                                                                       
1040001300358P 0101298027300700000000000140000000000326061122032606          1012201800000000000690000000099N1606201821012201800000000000060000000000000000000000000000000000000000000000000000000032606                    3001029090000000000 
1040001300359Q 011000000754745147JOSE CARLOS DE SOUSA                    RUA MARIA SABINA                        JARDIM PRIMAVER76340000CARMO DO RIO VEGO0000000000000000                                                                       
1040001300360R 01000000000000000000000000000000000000000000000000210122018000000000000200                                                                                                                                                       
1040001300361P 0101298027300700000000000140000000000326071122032607          1001201900000000000690000000099N1606201821001201900000000000060000000000000000000000000000000000000000000000000000000032607                    3001029090000000000 
1040001300362Q 011000000754745147JOSE CARLOS DE SOUSA                    RUA MARIA SABINA                        JARDIM PRIMAVER76340000CARMO DO RIO VEGO0000000000000000                                                                       
1040001300363R 01000000000000000000000000000000000000000000000000210012019000000000000200                                                                                                                                                       
1040001300364P 0101298027300700000000000140000000000326081122032608          1002201900000000000690000000099N1606201821002201900000000000060000000000000000000000000000000000000000000000000000000032608                    3001029090000000000 
1040001300365Q 011000000754745147JOSE CARLOS DE SOUSA                    RUA MARIA SABINA                        JARDIM PRIMAVER76340000CARMO DO RIO VEGO0000000000000000                                                                       
1040001300366R 01000000000000000000000000000000000000000000000000210022019000000000000200                                                                                                                                                       
1040001300367P 0101298027300700000000000140000000000326091122032609          1003201900000000000690000000099N1606201821003201900000000000060000000000000000000000000000000000000000000000000000000032609                    3001029090000000000 
1040001300368Q 011000000754745147JOSE CARLOS DE SOUSA                    RUA MARIA SABINA                        JARDIM PRIMAVER76340000CARMO DO RIO VEGO0000000000000000                                                                       
1040001300369R 01000000000000000000000000000000000000000000000000210032019000000000000200                                                                                                                                                       
1040001300370P 0101298027300700000000000140000000000326101122032610          1004201900000000000690000000099N1606201821004201900000000000060000000000000000000000000000000000000000000000000000000032610                    3001029090000000000 
1040001300371Q 011000000754745147JOSE CARLOS DE SOUSA                    RUA MARIA SABINA                        JARDIM PRIMAVER76340000CARMO DO RIO VEGO0000000000000000                                                                       
1040001300372R 01000000000000000000000000000000000000000000000000210042019000000000000200                                                                                                                                                       
1040001300373P 0101298027300700000000000140000000000326111122032611          1005201900000000000690000000099N1606201821005201900000000000060000000000000000000000000000000000000000000000000000000032611                    3001029090000000000 
1040001300374Q 011000000754745147JOSE CARLOS DE SOUSA                    RUA MARIA SABINA                        JARDIM PRIMAVER76340000CARMO DO RIO VEGO0000000000000000                                                                       
1040001300375R 01000000000000000000000000000000000000000000000000210052019000000000000200                                                                                                                                                       
1040001300376P 0101298027300700000000000140000000000326121122032612          1006201900000000000690000000099N1606201821006201900000000000060000000000000000000000000000000000000000000000000000000032612                    3001029090000000000 
1040001300377Q 011000000754745147JOSE CARLOS DE SOUSA                    RUA MARIA SABINA                        JARDIM PRIMAVER76340000CARMO DO RIO VEGO0000000000000000                                                                       
1040001300378R 01000000000000000000000000000000000000000000000000210062019000000000000200                                                                                                                                                       
1040001300379P 0101298027300700000000000140000000000326131122032613          1007201900000000000690000000099N1606201821007201900000000000060000000000000000000000000000000000000000000000000000000032613                    3001029090000000000 
1040001300380Q 011000000754745147JOSE CARLOS DE SOUSA                    RUA MARIA SABINA                        JARDIM PRIMAVER76340000CARMO DO RIO VEGO0000000000000000                                                                       
1040001300381R 01000000000000000000000000000000000000000000000000210072019000000000000200                                                                                                                                                       
1040001300382P 0101298027300700000000000140000000000326141122032614          1008201900000000000690000000099N1606201821008201900000000000060000000000000000000000000000000000000000000000000000000032614                    3001029090000000000 
1040001300383Q 011000000754745147JOSE CARLOS DE SOUSA                    RUA MARIA SABINA                        JARDIM PRIMAVER76340000CARMO DO RIO VEGO0000000000000000                                                                       
1040001300384R 01000000000000000000000000000000000000000000000000210082019000000000000200                                                                                                                                                       
1040001300385P 0101298027300700000000000140000000000326151122032615          1009201900000000000690000000099N1606201821009201900000000000060000000000000000000000000000000000000000000000000000000032615                    3001029090000000000 
1040001300386Q 011000000754745147JOSE CARLOS DE SOUSA                    RUA MARIA SABINA                        JARDIM PRIMAVER76340000CARMO DO RIO VEGO0000000000000000                                                                       
1040001300387R 01000000000000000000000000000000000000000000000000210092019000000000000200                                                                                                                                                       
1040001300388P 0101298027300700000000000140000000000326161122032616          1010201800000000000499000000099N1606201821010201800000000000060000000000000000000000000000000000000000000000000000000032616                    3001029090000000000 
1040001300389Q 011000036642183886GUSTAVO HENRIQUE ACEDO                  RUA 1                                   ALEXANDRE PINTO76340000CARMO DO RIO VEGO0000000000000000                                                                       
1040001300390R 01000000000000000000000000000000000000000000000000210102018000000000000200                                                                                                                                                       
1040001300391P 0101298027300700000000000140000000000326171122032617          1011201800000000000499000000099N1606201821011201800000000000060000000000000000000000000000000000000000000000000000000032617                    3001029090000000000 
1040001300392Q 011000036642183886GUSTAVO HENRIQUE ACEDO                  RUA 1                                   ALEXANDRE PINTO76340000CARMO DO RIO VEGO0000000000000000                                                                       
1040001300393R 01000000000000000000000000000000000000000000000000210112018000000000000200                                                                                                                                                       
1040001300394P 0101298027300700000000000140000000000326181122032618          1012201800000000000499000000099N1606201821012201800000000000060000000000000000000000000000000000000000000000000000000032618                    3001029090000000000 
1040001300395Q 011000036642183886GUSTAVO HENRIQUE ACEDO                  RUA 1                                   ALEXANDRE PINTO76340000CARMO DO RIO VEGO0000000000000000                                                                       
1040001300396R 01000000000000000000000000000000000000000000000000210122018000000000000200                                                                                                                                                       
1040001300397P 0101298027300700000000000140000000000326191122032619          1001201900000000000499000000099N1606201821001201900000000000060000000000000000000000000000000000000000000000000000000032619                    3001029090000000000 
1040001300398Q 011000036642183886GUSTAVO HENRIQUE ACEDO                  RUA 1                                   ALEXANDRE PINTO76340000CARMO DO RIO VEGO0000000000000000                                                                       
1040001300399R 01000000000000000000000000000000000000000000000000210012019000000000000200                                                                                                                                                       
1040001300400P 0101298027300700000000000140000000000326201122032620          1002201900000000000499000000099N1606201821002201900000000000060000000000000000000000000000000000000000000000000000000032620                    3001029090000000000 
1040001300401Q 011000036642183886GUSTAVO HENRIQUE ACEDO                  RUA 1                                   ALEXANDRE PINTO76340000CARMO DO RIO VEGO0000000000000000                                                                       
1040001300402R 01000000000000000000000000000000000000000000000000210022019000000000000200                                                                                                                                                       
1040001300403P 0101298027300700000000000140000000000326211122032621          1003201900000000000499000000099N1606201821003201900000000000060000000000000000000000000000000000000000000000000000000032621                    3001029090000000000 
1040001300404Q 011000036642183886GUSTAVO HENRIQUE ACEDO                  RUA 1                                   ALEXANDRE PINTO76340000CARMO DO RIO VEGO0000000000000000                                                                       
1040001300405R 01000000000000000000000000000000000000000000000000210032019000000000000200                                                                                                                                                       
1040001300406P 0101298027300700000000000140000000000326221122032622          1004201900000000000499000000099N1606201821004201900000000000060000000000000000000000000000000000000000000000000000000032622                    3001029090000000000 
1040001300407Q 011000036642183886GUSTAVO HENRIQUE ACEDO                  RUA 1                                   ALEXANDRE PINTO76340000CARMO DO RIO VEGO0000000000000000                                                                       
1040001300408R 01000000000000000000000000000000000000000000000000210042019000000000000200                                                                                                                                                       
1040001300409P 0101298027300700000000000140000000000326231122032623          1005201900000000000499000000099N1606201821005201900000000000060000000000000000000000000000000000000000000000000000000032623                    3001029090000000000 
1040001300410Q 011000036642183886GUSTAVO HENRIQUE ACEDO                  RUA 1                                   ALEXANDRE PINTO76340000CARMO DO RIO VEGO0000000000000000                                                                       
1040001300411R 01000000000000000000000000000000000000000000000000210052019000000000000200                                                                                                                                                       
1040001300412P 0101298027300700000000000140000000000326241122032624          1006201900000000000499000000099N1606201821006201900000000000060000000000000000000000000000000000000000000000000000000032624                    3001029090000000000 
