10400000         2116559540001590000000000000000000001298027300700000000FEDERAL SISTEMAS              CAIXA ECONOMICA FEDERAL                 10506201817113600012505000000                    REMESSA-PRODUCAO                                 
10400011R0100030 20116559540001592730070000000000000001298027300700000000FEDERAL SISTEMAS                                                                                              000001250506201800000000                                 
1040001300001P 0101298027300700000000000140000000000315451122031545          1106201800000000039411000000099N0506201821106201800000000000060000000000000000000000000000000000000000000000000000000031545                    3001029090000000000 
1040001300002Q 012020771562000146LOCALIZA GOIAS LTDA - ME                Q3 LT115 SALA 302                       SETOR COIMBRA  74535270GOIANIA        GO0000000000000000                                                                       
1040001300003R 01000000000000000000000000000000000000000000000000211062018000000000000200                                                                                                                                                       
1040001300004P 0101298027300700000000000140000000000315461122031546          1106201800000000003900000000099N0506201821106201800000000000060000000000000000000000000000000000000000000000000000000031546                    3001029090000000000 
1040001300005Q 012011963712000122BJ SAT TENCOLOGIA EM RESTREAMENTO       RUA DOS FRANCISCANOS N 60               BOM AVELAR     41315000ABAIRA         BA0000000000000000                                                                       
1040001300006R 01000000000000000000000000000000000000000000000000211062018000000000000200                                                                                                                                                       
1040001300007P 0101298027300700000000000140000000000315471122031547          1106201800000000017100000000099N0506201821106201800000000000060000000000000000000000000000000000000000000000000000000031547                    3001029090000000000 
1040001300008Q 012011088454000182FERDINAND BATISTA DE ARAUJO - ME        QUADRA 265 CASA 06 N06                  DIRCEU ARCO II 64078290TERESINA       PI0000000000000000                                                                       
1040001300009R 01000000000000000000000000000000000000000000000000211062018000000000000200                                                                                                                                                       
1040001300010P 0101298027300700000000000140000000000315481122031548          1106201800000000001794000000099N0506201821106201800000000000060000000000000000000000000000000000000000000000000000000031548                    3001029090000000000 
1040001300011Q 012001640145000110ONE CITY GPS EQUIP ELETRONICOS LTDA ME  RUA JAPURA NUMERO 3284                  IPIRANGA       14060620ADAMANTINA     SP0000000000000000                                                                       
1040001300012R 01000000000000000000000000000000000000000000000000211062018000000000000200                                                                                                                                                       
1040001300013P 0101298027300700000000000140000000000315491122031549          1106201800000000015869700000099N0506201821106201800000000000060000000000000000000000000000000000000000000000000000000031549                    3001029090000000000 
1040001300014Q 012004626774000183M F LIMA CARNEIRO E CIA LTDA - EPP      R COELHO DE REZENDE - ZONA NORTE        AEROPORTO      64003695TERESINA       PI0000000000000000                                                                       
1040001300015R 01000000000000000000000000000000000000000000000000211062018000000000000200                                                                                                                                                       
1040001300016P 0101298027300700000000000140000000000315501122031550          1106201800000000002290000000099N0506201821106201800000000000060000000000000000000000000000000000000000000000000000000031550                    3001029090000000000 
1040001300017Q 012010656796000199NILSON JOSE DE OLIVEIRA ME              RUA MONTEIRO DE BARROS QD 09 LT 14      CENTRO         76395000               GO0000000000000000                                                                       
1040001300018R 01000000000000000000000000000000000000000000000000211062018000000000000200                                                                                                                                                       
1040001300019P 0101298027300700000000000140000000000315511122031551          1106201800000000006162000000099N0506201821106201800000000000060000000000000000000000000000000000000000000000000000000031551                    3001029090000000000 
1040001300020Q 011000044705190300ROGERIO H. MAZUAD                       RUA LEMOS CUNHA                         ININGA         64049600TERESINA       PI0000000000000000                                                                       
1040001300021R 01000000000000000000000000000000000000000000000000211062018000000000000200                                                                                                                                                       
1040001300022P 0101298027300700000000000140000000000315521122031552          1106201800000000014310000000099N0506201821106201800000000000060000000000000000000000000000000000000000000000000000000031552                    3001029090000000000 
1040001300023Q 012018765152000140CAMILA REGO DA SILVA ARAGAO ME          RUA JOAO MARTINS DO REGO                SANTA ISABEL   64053120TERESINA       PI0000000000000000                                                                       
1040001300024R 01000000000000000000000000000000000000000000000000211062018000000000000200                                                                                                                                                       
1040001300025P 0101298027300700000000000140000000000315541122031554          1106201800000000009790000000099N0506201821106201800000000000060000000000000000000000000000000000000000000000000000000031554                    3001029090000000000 
1040001300026Q 012019677627000100ELITE SEGURANCA ELETR E MONITORAMENTO   R EMBAUBA N 40                          CHACARA DO SOL 68515000PARAUAPEBAS    PA0000000000000000                                                                       
1040001300027R 01000000000000000000000000000000000000000000000000211062018000000000000200                                                                                                                                                       
1040001300028P 0101298027300700000000000140000000000315551122031555          1106201800000000012403000000099N0506201821106201800000000000060000000000000000000000000000000000000000000000000000000031555                    3001029090000000000 
1040001300029Q 012022379734000166J DE A F DA SILVA - ME                  R COELHO DE RESENDE N 2921 ZONA NORTE   AEROPORTO      64003695ACAUA          PI0000000000000000                                                                       
1040001300030R 01000000000000000000000000000000000000000000000000211062018000000000000200                                                                                                                                                       
1040001300031P 0101298027300700000000000140000000000315571122031557          1106201800000000002418000000099N0506201821106201800000000000060000000000000000000000000000000000000000000000000000000031557                    3001029090000000000 
1040001300032Q 012017055560000146ALVES DA SILVA E GAMA LEAL LTDA - ME    RUA MACHADO DE ASSIS N 1113             LOURIVAL PARENT64022128ACAUA          PI0000000000000000                                                                       
1040001300033R 01000000000000000000000000000000000000000000000000211062018000000000000200                                                                                                                                                       
1040001300034P 0101298027300700000000000140000000000315581122031558          1106201800000000015070500000099N0506201821106201800000000000060000000000000000000000000000000000000000000000000000000031558                    3001029090000000000 
1040001300035Q 012018707079000150SYSROTA EIRELI - ME                     AVENIDA PRESIDENTE JOAO GOULART         RESIDENCIAL MAR74968890APARECIDA DE GOGO0000000000000000                                                                       
1040001300036R 01000000000000000000000000000000000000000000000000211062018000000000000200                                                                                                                                                       
1040001300037P 0101298027300700000000000140000000000315591122031559          1106201800000000000600000000099N0506201821106201800000000000060000000000000000000000000000000000000000000000000000000031559                    3001029090000000000 
1040001300038Q 011000003712586183EDUARDO SILVA FREITAS                   RUA NITEROI QD 138 LT 13                PARQUE AMAZONIA74843160GOIANIA        GO0000000000000000                                                                       
1040001300039R 01000000000000000000000000000000000000000000000000211062018000000000000200                                                                                                                                                       
1040001300040P 0101298027300700000000000140000000000315601122031560          1106201800000000002322000000099N0506201821106201800000000000060000000000000000000000000000000000000000000000000000000031560                    3001029090000000000 
1040001300041Q 012023606665000149M2 DO BRASIL MONITORAMENTO ONLINE EIRELIRUA JOSE CLEMENTE 94                    CENTRO         24020105NITEROI        RJ0000000000000000                                                                       
1040001300042R 01000000000000000000000000000000000000000000000000211062018000000000000200                                                                                                                                                       
1040001300043P 0101298027300700000000000140000000000315611122031561          1106201800000000008944000000099N0506201821106201800000000000060000000000000000000000000000000000000000000000000000000031561                    3001029090000000000 
1040001300044Q 012000097489000161LA VIDAL E CIA LTDA - EPP               AV 10 N°80 CONJUNTO MIRAGE             CONJUNTO MIRAGE75063330ANAPOLIS       GO0000000000000000                                                                       
1040001300045R 01000000000000000000000000000000000000000000000000211062018000000000000200                                                                                                                                                       
1040001300046P 0101298027300700000000000140000000000315631122031563          1106201800000000000198000000099N0506201821106201800000000000060000000000000000000000000000000000000000000000000000000031563                    3001029090000000000 
1040001300047Q 011000031179567862FABIO FRANCO BONANATI                   RUA  MONTEIRO JUNIOR                    JARDIM JAQUEIRA11674385SAO PAULO      SP0000000000000000                                                                       
1040001300048R 01000000000000000000000000000000000000000000000000211062018000000000000200                                                                                                                                                       
1040001300049P 0101298027300700000000000140000000000315641122031564          1106201800000000004966000000099N0506201821106201800000000000060000000000000000000000000000000000000000000000000000000031564                    3001029090000000000 
1040001300050Q 011000072435968272GEORGE WILLTON SANTOS PEREIRA           RUA RIO MARAUJA, CJ JOAO BOSCO II Nº 11SAO JOSE 1     69085620MANAUS         AM0000000000000000                                                                       
1040001300051R 01000000000000000000000000000000000000000000000000211062018000000000000200                                                                                                                                                       
1040001300052P 0101298027300700000000000140000000000315651122031565          1106201800000000007899000000099N0506201821106201800000000000060000000000000000000000000000000000000000000000000000000031565                    3001029090000000000 
1040001300053Q 011000011646215729DOMINGOS RONIVALDO DA SILVA RUFINO      RUA CUBATAO N°86 CAMPOS DOS GOYATACAZES               28110000RIO DE JANEIRO RJ0000000000000000                                                                       
1040001300054R 01000000000000000000000000000000000000000000000000211062018000000000000200                                                                                                                                                       
1040001300055P 0101298027300700000000000140000000000315661122031566          1106201800000000004134000000099N0506201821106201800000000000060000000000000000000000000000000000000000000000000000000031566                    3001029090000000000 
1040001300056Q 011000050477285520ARNALDO BATISTA                         CONJUNTO CAJAZEIRAS X,SETOR 02, CAMINHO                41330000SALVADOR       BA0000000000000000                                                                       
1040001300057R 01000000000000000000000000000000000000000000000000211062018000000000000200                                                                                                                                                       
1040001300058P 0101298027300700000000000140000000000315671122031567          1106201800000000000198000000099N0506201821106201800000000000060000000000000000000000000000000000000000000000000000000031567                    3001029090000000000 
1040001300059Q 011000010936180781ANDRE LUIZ OLIVEIRA ATAIDE              RUA LEONCIO                             VILA EMIL      26551560MESQUITA       RJ0000000000000000                                                                       
1040001300060R 01000000000000000000000000000000000000000000000000211062018000000000000200                                                                                                                                                       
1040001300061P 0101298027300700000000000140000000000315681122031568          1106201800000000000517000000099N0506201821106201800000000000060000000000000000000000000000000000000000000000000000000031568                    3001029090000000000 
1040001300062Q 011000007767300960AUTOBUSKA RASTREADORES E BLOQUEADORES VERUA ILDEFONSO MUNHOZ DA ROCHA                          83206090PARANAGUA      PR0000000000000000                                                                       
1040001300063R 01000000000000000000000000000000000000000000000000211062018000000000000200                                                                                                                                                       
1040001300064P 0101298027300700000000000140000000000315691122031569          1106201800000000000297000000099N0506201821106201800000000000060000000000000000000000000000000000000000000000000000000031569                    3001029090000000000 
1040001300065Q 011000004012365525GILMAR SILVA SAMPAIO                    RUA WENCESLAU BRAZ - SN - SAO JOAO 102                 46880000ITABERABA      BA0000000000000000                                                                       
1040001300066R 01000000000000000000000000000000000000000000000000211062018000000000000200                                                                                                                                                       
1040001300067P 0101298027300700000000000140000000000315701122031570          1106201800000000000495000000099N0506201821106201800000000000060000000000000000000000000000000000000000000000000000000031570                    3001029090000000000 
1040001300068Q 011000008105070642HARLEY TEIXEIRA DE FREITAS              DOMINGOS ALCANTARA - 176                MORADA DO PARQU39401362MORADA NOVA DE MG0000000000000000                                                                       
1040001300069R 01000000000000000000000000000000000000000000000000211062018000000000000200                                                                                                                                                       
1040001300070P 0101298027300700000000000140000000000315711122031571          1106201800000000000220000000099N0506201821106201800000000000060000000000000000000000000000000000000000000000000000000031571                    3001029090000000000 
1040001300071Q 011000000342887327JULIELSON NUNES                         RUA 55 QUADRA 61                        MAIOBAO        65137000SAO LUIS       MA0000000000000000                                                                       
1040001300072R 01000000000000000000000000000000000000000000000000211062018000000000000200                                                                                                                                                       
1040001300073P 0101298027300700000000000140000000000315721122031572          1106201800000000012840000000099N0506201821106201800000000000060000000000000000000000000000000000000000000000000000000031572                    3001029090000000000 
1040001300074Q 011000007032342779MARCELO SOARES                          RUA SANTOS LIMA                         SAO CRISTOVAO  20940210RIO DE JANEIRO RJ0000000000000000                                                                       
1040001300075R 01000000000000000000000000000000000000000000000000211062018000000000000200                                                                                                                                                       
1040001300076P 0101298027300700000000000140000000000315731122031573          1106201800000000000198000000099N0506201821106201800000000000060000000000000000000000000000000000000000000000000000000031573                    3001029090000000000 
1040001300077Q 011000007406488459FRANCINALDO MENDES VENANCIO             RUA BUTANTA, 235                        JARDIM SANTA MA05424970SAO PAULO      SP0000000000000000                                                                       
1040001300078R 01000000000000000000000000000000000000000000000000211062018000000000000200                                                                                                                                                       
1040001300079P 0101298027300700000000000140000000000315741122031574          1106201800000000001022400000099N0506201821106201800000000000060000000000000000000000000000000000000000000000000000000031574                    3001029090000000000 
1040001300080Q 012015598500000144WR COMERCIO E SERVICOS LTDA - EPP       AV. BENJAMIM CONSTANT                   SAO VICENTE    69303467BOA VISTA      RR0000000000000000                                                                       
1040001300081R 01000000000000000000000000000000000000000000000000211062018000000000000200                                                                                                                                                       
1040001300082P 0101298027300700000000000140000000000315751122031575          1106201800000000000099000000099N0506201821106201800000000000060000000000000000000000000000000000000000000000000000000031575                    3001029090000000000 
1040001300083Q 011000029421490860TRAVEL RASTREADOR                       RUA JOSE MORENO                         CONJUNTO HABITA13067655CAMPINAS       SP0000000000000000                                                                       
1040001300084R 01000000000000000000000000000000000000000000000000211062018000000000000200                                                                                                                                                       
1040001300085P 0101298027300700000000000140000000000315761122031576          1106201800000000006448000000099N0506201821106201800000000000060000000000000000000000000000000000000000000000000000000031576                    3001029090000000000 
1040001300086Q 011000005460942608FLAVIO MUNIZ DE ALMEIDA                 RUA JOAO JORGE DE SA                                   37810000GUARANESIA     MG0000000000000000                                                                       
1040001300087R 01000000000000000000000000000000000000000000000000211062018000000000000200                                                                                                                                                       
1040001300088P 0101298027300700000000000140000000000315771122031577          1106201800000000010050000000099N0506201821106201800000000000060000000000000000000000000000000000000000000000000000000031577                    3001029090000000000 
1040001300089Q 012021233248000172GABRIEL ANDRADE BORGES                  AVENIDA PROFESSORA IOLANDA RIBEIRO NOVAIJARDIM DO EDEN 14402065FRANCA         SP0000000000000000                                                                       
1040001300090R 01000000000000000000000000000000000000000000000000211062018000000000000200                                                                                                                                                       
1040001300091P 0101298027300700000000000140000000000315781122031578          1106201800000000000792000000099N0506201821106201800000000000060000000000000000000000000000000000000000000000000000000031578                    3001029090000000000 
1040001300092Q 011000005221241781WENDEL MARMO                            RUA BARONESA DE GOITACAZES 36 DE 36 BARR               24111070NITEROI        RJ0000000000000000                                                                       
1040001300093R 01000000000000000000000000000000000000000000000000211062018000000000000200                                                                                                                                                       
1040001300094P 0101298027300700000000000140000000000315791122031579          1106201800000000001386000000099N0506201821106201800000000000060000000000000000000000000000000000000000000000000000000031579                    3001029090000000000 
1040001300095Q 012024598464000100E S NASCIMENTO SISTEMAS DE MONITORAMENTORUA GUSTAVO RATTMAN, N°741 - AP32 ANDARBACACHERI      82520630CURITIBA       PR0000000000000000                                                                       
1040001300096R 01000000000000000000000000000000000000000000000000211062018000000000000200                                                                                                                                                       
1040001300097P 0101298027300700000000000140000000000315801122031580          1106201800000000003510000000099N0506201821106201800000000000060000000000000000000000000000000000000000000000000000000031580                    3001029090000000000 
1040001300098Q 011000030931320534LUIZ ANTONIO FRANCA DE CARVALHO         RUA PEDRO LOPES                         PRAIA GRANDE   40725110SALVADOR       BA0000000000000000                                                                       
1040001300099R 01000000000000000000000000000000000000000000000000211062018000000000000200                                                                                                                                                       
1040001300100P 0101298027300700000000000140000000000315811122031581          1106201800000000001089000000099N0506201821106201800000000000060000000000000000000000000000000000000000000000000000000031581                    3001029090000000000 
1040001300101Q 011000060768932220CARLOS EDUARDO DE OLIVEIRA MIRANDA      PASSAGEM COIMBRA 22 BLOCO 4 APTO 102    COQUEIRO       67115130ANANINDEUA     PA0000000000000000                                                                       
1040001300102R 01000000000000000000000000000000000000000000000000211062018000000000000200                                                                                                                                                       
1040001300103P 0101298027300700000000000140000000000315821122031582          1106201800000000010423000000099N0506201821106201800000000000060000000000000000000000000000000000000000000000000000000031582                    3001029090000000000 
1040001300104Q 011000015348812803MARCIO ALVES DOS SANTOS / FABIANA       .                                       SAO PAULO      02430971SAO PAULO      SP0000000000000000                                                                       
1040001300105R 01000000000000000000000000000000000000000000000000211062018000000000000200                                                                                                                                                       
1040001300106P 0101298027300700000000000140000000000315831122031583          1106201800000000007714200000099N0506201821106201800000000000060000000000000000000000000000000000000000000000000000000031583                    3001029090000000000 
1040001300107Q 011000073981362268CHARLES LOPES                           ALAMEDA 34 N.31 AEROPORTO VELHO CONJ SAOAEROPORTO VELHO68010170SANTAREM       PA0000000000000000                                                                       
1040001300108R 01000000000000000000000000000000000000000000000000211062018000000000000200                                                                                                                                                       
1040001300109P 0101298027300700000000000140000000000315841122031584          1106201800000000000396000000099N0506201821106201800000000000060000000000000000000000000000000000000000000000000000000031584                    3001029090000000000 
1040001300110Q 011000063619164649SERGIO GOLGHER                          RUA FRANCISCO JUGLAIR 410 AP 902        MOSSUNGUE      81200230CURITIBA       PR0000000000000000                                                                       
1040001300111R 01000000000000000000000000000000000000000000000000211062018000000000000200                                                                                                                                                       
1040001300112P 0101298027300700000000000140000000000315851122031585          1106201800000000045721000000099N0506201821106201800000000000060000000000000000000000000000000000000000000000000000000031585                    3001029090000000000 
1040001300113Q 011000006751341610CRISTIANO RODRIGO DE MORAES BORGES      RUA HUMAITA                             TUBALINA       38412000UBERLANDIA     MG0000000000000000                                                                       
1040001300114R 01000000000000000000000000000000000000000000000000211062018000000000000200                                                                                                                                                       
1040001300115P 0101298027300700000000000140000000000315861122031586          1106201800000000046593000000099N0506201821106201800000000000060000000000000000000000000000000000000000000000000000000031586                    3001029090000000000 
1040001300116Q 011000065973232204CARLOS DEANE LIMA DE SOUZA              RUA DONA BEIJA                          BAIRRO DA PAZ  69048300MANAUS         AM0000000000000000                                                                       
1040001300117R 01000000000000000000000000000000000000000000000000211062018000000000000200                                                                                                                                                       
1040001300118P 0101298027300700000000000140000000000315871122031587          1106201800000000000099000000099N0506201821106201800000000000060000000000000000000000000000000000000000000000000000000031587                    3001029090000000000 
1040001300119Q 011000008577593452ANTONIO CARLOS                          SAO ROQUE                               SANTO ANDRE    09051310SAO PAULO      SP0000000000000000                                                                       
1040001300120R 01000000000000000000000000000000000000000000000000211062018000000000000200                                                                                                                                                       
1040001300121P 0101298027300700000000000140000000000315881122031588          1106201800000000000099000000099N0506201821106201800000000000060000000000000000000000000000000000000000000000000000000031588                    3001029090000000000 
1040001300122Q 011000007041857921MARCELO MARTINS VIEIRA JUNIOR           RUA IDA POSTALLI VICTORELLI             CONJUNTO CAFEZA86049060LONDRINA       PR0000000000000000                                                                       
1040001300123R 01000000000000000000000000000000000000000000000000211062018000000000000200                                                                                                                                                       
1040001300124P 0101298027300700000000000140000000000315891122031589          1106201800000000000693000000099N0506201821106201800000000000060000000000000000000000000000000000000000000000000000000031589                    3001029090000000000 
1040001300125Q 011000008398525762VICTOR FERNANDES PAES                   DOUTOR LUIZ PALMIER                     BARRETO        24110310NITEROI        RJ0000000000000000                                                                       
1040001300126R 01000000000000000000000000000000000000000000000000211062018000000000000200                                                                                                                                                       
1040001300127P 0101298027300700000000000140000000000315901122031590          1106201800000000000616000000099N0506201821106201800000000000060000000000000000000000000000000000000000000000000000000031590                    3001029090000000000 
1040001300128Q 011000002795229323ANDREIDE JOSE SILVA                     AVENIDA QUIXADA,                        VILA FLAMENGO  65110000SAO JOSE DE RIBMA0000000000000000                                                                       
1040001300129R 01000000000000000000000000000000000000000000000000211062018000000000000200                                                                                                                                                       
1040001300130P 0101298027300700000000000140000000000315911122031591          1106201800000000034315000000099N0506201821106201800000000000060000000000000000000000000000000000000000000000000000000031591                    3001029090000000000 
1040001300131Q 011000060005553342JOSE AIRTON DE SOUSA ALMEIDA            RUA 14A N°35 INDUSTRIAL                INDUSTRIAL     61925300MARACANAU      CE0000000000000000                                                                       
1040001300132R 01000000000000000000000000000000000000000000000000211062018000000000000200                                                                                                                                                       
1040001300133P 0101298027300700000000000140000000000315921122031592          1106201800000000000792000000099N0506201821106201800000000000060000000000000000000000000000000000000000000000000000000031592                    3001029090000000000 
1040001300134Q 011000007302713588ALEXSANDER BARBOSA                      AVENIDA TREZE DE JUNHO                                 49500000ITABAIANA      SE0000000000000000                                                                       
1040001300135R 01000000000000000000000000000000000000000000000000211062018000000000000200                                                                                                                                                       
1040001300136P 0101298027300700000000000140000000000315931122031593          1106201800000000001485000000099N0506201821106201800000000000060000000000000000000000000000000000000000000000000000000031593                    3001029090000000000 
1040001300137Q 011000011483301788CAIO CARDOSO                            RUA MERCURIO                            PAVUNA         21532470RIO DE JANEIRO RJ0000000000000000                                                                       
1040001300138R 01000000000000000000000000000000000000000000000000211062018000000000000200                                                                                                                                                       
1040001300139P 0101298027300700000000000140000000000315941122031594          1106201800000000000990000000099N0506201821106201800000000000060000000000000000000000000000000000000000000000000000000031594                    3001029090000000000 
1040001300140Q 011000002701961882JOSE LUIZ ALBERTO SOBRINHO              RUA CURUZU                              CENTRO         18600060BOTUCATU       SP0000000000000000                                                                       
1040001300141R 01000000000000000000000000000000000000000000000000211062018000000000000200                                                                                                                                                       
1040001300142P 0101298027300700000000000140000000000315951122031595          1106201800000000000297000000099N0506201821106201800000000000060000000000000000000000000000000000000000000000000000000031595                    3001029090000000000 
1040001300143Q 011000087630451334EVERARDO GOMES DE ARAUJO                RUA AFONSO PENA                         LOURIVAL PARENT64023300TERESINA       PI0000000000000000                                                                       
1040001300144R 01000000000000000000000000000000000000000000000000211062018000000000000200                                                                                                                                                       
1040001300145P 0101298027300700000000000140000000000315961122031596          1106201800000000003510000000099N0506201821106201800000000000060000000000000000000000000000000000000000000000000000000031596                    3001029090000000000 
1040001300146Q 011000008479656786FERNANDO JOSE SIQUEIRA DE MAGALHAES BASTRUA HENRIQUE TOUQUIER                   JARDIM CATARINA24716420SAO GONCALO    RJ0000000000000000                                                                       
1040001300147R 01000000000000000000000000000000000000000000000000211062018000000000000200                                                                                                                                                       
1040001300148P 0101298027300700000000000140000000000315971122031597          1106201800000000000099000000099N0506201821106201800000000000060000000000000000000000000000000000000000000000000000000031597                    3001029090000000000 
1040001300149Q 011000004267859914DOUGLAS BORGES                          CAIXA POSTAL 86. CAIXA POSTAL 86 86                    76590000SAO MIGUEL DO AGO0000000000000000                                                                       
1040001300150R 01000000000000000000000000000000000000000000000000211062018000000000000200                                                                                                                                                       
1040001300151P 0101298027300700000000000140000000000315981122031598          1106201800000000003978000000099N0506201821106201800000000000060000000000000000000000000000000000000000000000000000000031598                    3001029090000000000 
1040001300152Q 012025167634000164RASTRO RS SERVICOS DE MONITORAMENTO EIREAV. EDGAR PIRES DE CASTRO               ABERTA DOS MORR91788130PORTO ALEGRE   RS0000000000000000                                                                       
1040001300153R 01000000000000000000000000000000000000000000000000211062018000000000000200                                                                                                                                                       
1040001300154P 0101298027300700000000000140000000000315991122031599          1106201800000000001386000000099N0506201821106201800000000000060000000000000000000000000000000000000000000000000000000031599                    3001029090000000000 
1040001300155Q 011000004601350662FRANKLIN LIMA                           RUA PARAIBA                             CENTRO         37701022POCOS DE CALDASMG0000000000000000                                                                       
1040001300156R 01000000000000000000000000000000000000000000000000211062018000000000000200                                                                                                                                                       
1040001300157P 0101298027300700000000000140000000000316001122031600          1106201800000000001950000000099N0506201821106201800000000000060000000000000000000000000000000000000000000000000000000031600                    3001029090000000000 
1040001300158Q 011000057194270072EBER BELEM                              RUA ANTONIO DOS ANJOS                   CENTRO         96020700PELOTAS        RS0000000000000000                                                                       
1040001300159R 01000000000000000000000000000000000000000000000000211062018000000000000200                                                                                                                                                       
1040001300160P 0101298027300700000000000140000000000316011122031601          1106201800000000019164000000099N0506201821106201800000000000060000000000000000000000000000000000000000000000000000000031601                    3001029090000000000 
1040001300161Q 011000003908501369PEDRO HENRIQUE BESSA GURGEL             RUA CORONEL NUNES DE MELO,              RODOLFO TEOFILO60430270FORTALEZA      CE0000000000000000                                                                       
1040001300162R 01000000000000000000000000000000000000000000000000211062018000000000000200                                                                                                                                                       
1040001300163P 0101298027300700000000000140000000000316021122031602          1106201800000000008764000000099N0506201821106201800000000000060000000000000000000000000000000000000000000000000000000031602                    3001029090000000000 
1040001300164Q 011000003434917454FABIO MENDONCA FERREIRA                 RUA SEBASTIAO INTERAMINENSE             JARDIM OCEANIA 58037770JOAO PESSOA    PB0000000000000000                                                                       
1040001300165R 01000000000000000000000000000000000000000000000000211062018000000000000200                                                                                                                                                       
1040001300166P 0101298027300700000000000140000000000316031122031603          1106201800000000002496000000099N0506201821106201800000000000060000000000000000000000000000000000000000000000000000000031603                    3001029090000000000 
1040001300167Q 011000000912863285LEONARDO ROCHA DA SILVA                 RUA SAO FRANCISCO                       PARQUE ELITE   68638000ABAETETUBA     PA0000000000000000                                                                       
1040001300168R 01000000000000000000000000000000000000000000000000211062018000000000000200                                                                                                                                                       
1040001300169P 0101298027300700000000000140000000000316041122031604          1106201800000000003522300000099N0506201821106201800000000000060000000000000000000000000000000000000000000000000000000031604                    3001029090000000000 
1040001300170Q 011000093293259715WILSON MARTINS CARREIRA                 RUA ARACATI                             RAMOS          21060140RIO DE JANEIRO RJ0000000000000000                                                                       
1040001300171R 01000000000000000000000000000000000000000000000000211062018000000000000200                                                                                                                                                       
1040001300172P 0101298027300700000000000140000000000316051122031605          1106201800000000000198000000099N0506201821106201800000000000060000000000000000000000000000000000000000000000000000000031605                    3001029090000000000 
1040001300173Q 011000003700881746LAZARO TUBARAO                          RUA RAMOS DE LIMA                       AMENDOEIRA     24730120SAO GONCALO    RJ0000000000000000                                                                       
1040001300174R 01000000000000000000000000000000000000000000000000211062018000000000000200                                                                                                                                                       
1040001300175P 0101298027300700000000000140000000000316061122031606          1106201800000000000437000000099N0506201821106201800000000000060000000000000000000000000000000000000000000000000000000031606                    3001029090000000000 
1040001300176Q 011000003765813443JOSE ADRIANO LINO DE LIMA (CASA DA CONSTRUA PIRAJU                              LAGOA AZUL     59135730NATAL          RN0000000000000000                                                                       
1040001300177R 01000000000000000000000000000000000000000000000000211062018000000000000200                                                                                                                                                       
1040001300178P 0101298027300700000000000140000000000316071122031607          1106201800000000000198000000099N0506201821106201800000000000060000000000000000000000000000000000000000000000000000000031607                    3001029090000000000 
1040001300179Q 012015290483000183ICARO SIMAS                             RUA A                                   SAPETIBA       23545003RIO DE JANEIRO RJ0000000000000000                                                                       
1040001300180R 01000000000000000000000000000000000000000000000000211062018000000000000200                                                                                                                                                       
1040001300181P 0101298027300700000000000140000000000316081122031608          1106201800000000000198000000099N0506201821106201800000000000060000000000000000000000000000000000000000000000000000000031608                    3001029090000000000 
1040001300182Q 011000028187156104LUZIA CONCEICAO ALVES                   RUA DOS TUCANOS,QD.145,LT.04 SANTA GENOVSANTA GENOVEVA 74672750GOIANIA        GO0000000000000000                                                                       
1040001300183R 01000000000000000000000000000000000000000000000000211062018000000000000200                                                                                                                                                       
1040001300184P 0101298027300700000000000140000000000316091122031609          1106201800000000001386000000099N0506201821106201800000000000060000000000000000000000000000000000000000000000000000000031609                    3001029090000000000 
1040001300185Q 011000047403705300JAIRO ROCHA                             AV.ZEQUINHA FREIRE N°302 CDM.DELTA DO PSANTA ISABEL   64053400TERESINA       PI0000000000000000                                                                       
1040001300186R 01000000000000000000000000000000000000000000000000211062018000000000000200                                                                                                                                                       
1040001300187P 0101298027300700000000000140000000000316101122031610          1106201800000000000099000000099N0506201821106201800000000000060000000000000000000000000000000000000000000000000000000031610                    3001029090000000000 
1040001300188Q 011000002086194102CARLOS ALBERTO ALMEIDA RODRIGUES        RUA HENO JACOME PERILLO, VILA MARIA  CONVILA MARIA     74919409APARECIDA DE GOGO0000000000000000                                                                       
1040001300189R 01000000000000000000000000000000000000000000000000211062018000000000000200                                                                                                                                                       
1040001300190P 0101298027300700000000000140000000000316111122031611          1106201800000000054058000000099N0506201821106201800000000000060000000000000000000000000000000000000000000000000000000031611                    3001029090000000000 
1040001300191Q 012015686018000166SRS TECNOLOGIA E SEGURANCA-SAMUEL       RUA SIMOES FILHO,BAIRRO - PRACA KENNEDY PRACA KENNEDY  48020540ALAGOINHAS     BA0000000000000000                                                                       
1040001300192R 01000000000000000000000000000000000000000000000000211062018000000000000200                                                                                                                                                       
1040001300193P 0101298027300700000000000140000000000316121122031612          1106201800000000000099000000099N0506201821106201800000000000060000000000000000000000000000000000000000000000000000000031612                    3001029090000000000 
1040001300194Q 011000009613933786NILSON CARVALHO                         RUA O N°104 BAIRRO ADALBERTO SIMAO NADEADALBERTO SIMAO29214330GUARAPARI      ES0000000000000000                                                                       
1040001300195R 01000000000000000000000000000000000000000000000000211062018000000000000200                                                                                                                                                       
1040001300196P 0101298027300700000000000140000000000316131122031613          1106201800000000000693000000099N0506201821106201800000000000060000000000000000000000000000000000000000000000000000000031613                    3001029090000000000 
1040001300197Q 011000009533034700HIGO BRAGA FONSECA E SILVA              RUA CLAUDINO PINHEIRO N°04             SENADOR CAMARA 21832050RIO DE JANEIRO RJ0000000000000000                                                                       
1040001300198R 01000000000000000000000000000000000000000000000000211062018000000000000200                                                                                                                                                       
1040001300199P 0101298027300700000000000140000000000316141122031614          1106201800000000000198000000099N0506201821106201800000000000060000000000000000000000000000000000000000000000000000000031614                    3001029090000000000 
1040001300200Q 011000004200874199JEFFERSON CHAVES DA SILVA               RUA AGUAPE , 205,                       JOQUEI CLUBE   60510077FORTALEZA      CE0000000000000000                                                                       
1040001300201R 01000000000000000000000000000000000000000000000000211062018000000000000200                                                                                                                                                       
1040001300202P 0101298027300700000000000140000000000316151122031615          1106201800000000041477000000099N0506201821106201800000000000060000000000000000000000000000000000000000000000000000000031615                    3001029090000000000 
1040001300203Q 012022790326000100ULTRA SOLUCOES EM SERVICOS DA TECNOLOGIAAV. TORQUATRO TAPAJOS,                  TERRA NOVA     69093415MANAUS         AM0000000000000000                                                                       
1040001300204R 01000000000000000000000000000000000000000000000000211062018000000000000200                                                                                                                                                       
1040001300205P 0101298027300700000000000140000000000316161122031616          1106201800000000008290000000099N0506201821106201800000000000060000000000000000000000000000000000000000000000000000000031616                    3001029090000000000 
1040001300206Q 011000084430133972MICHELY LIMA                            RUA LOURENCO GRABOWSKI                  THOMAZ COELHO  83707180ARAUCARIA      PR0000000000000000                                                                       
1040001300207R 01000000000000000000000000000000000000000000000000211062018000000000000200                                                                                                                                                       
1040001300208P 0101298027300700000000000140000000000316171122031617          1106201800000000001782000000099N0506201821106201800000000000060000000000000000000000000000000000000000000000000000000031617                    3001029090000000000 
1040001300209Q 011000000147721679WANDERSON ASSUNCAO DA SILVA             RUA CRUZEIRO DO SUL N°547 BAIRRO SANTA SANTA HELENA   30642480BELO HORIZONTE MG0000000000000000                                                                       
1040001300210R 01000000000000000000000000000000000000000000000000211062018000000000000200                                                                                                                                                       
1040001300211P 0101298027300700000000000140000000000316181122031618          1106201800000000000198000000099N0506201821106201800000000000060000000000000000000000000000000000000000000000000000000031618                    3001029090000000000 
1040001300212Q 011000056052995300EDMAR OLIVEIRA GUEDES  JUNIOR           RUA MARCOS MACEDO N° 1460 AP 2001 TORREALDEOTA        60150190FORTALEZA      CE0000000000000000                                                                       
1040001300213R 01000000000000000000000000000000000000000000000000211062018000000000000200                                                                                                                                                       
1040001300214P 0101298027300700000000000140000000000316191122031619          1106201800000000000099000000099N0506201821106201800000000000060000000000000000000000000000000000000000000000000000000031619                    3001029090000000000 
1040001300215Q 011000002523867362FRANCIVALDO FEITOSA                     POSTA RESTANTE N°1407,RENASCENCA       RENASCENCA     64001970TERESINA       PI0000000000000000                                                                       
1040001300216R 01000000000000000000000000000000000000000000000000211062018000000000000200                                                                                                                                                       
1040001300217P 0101298027300700000000000140000000000316201122031620          1106201800000000002728400000099N0506201821106201800000000000060000000000000000000000000000000000000000000000000000000031620                    3001029090000000000 
1040001300218Q 011000026355703888ENEAS GIL MARQUES                       AVENIDA AEROSTATO,                      AEROPORTO      14783109BARRETOS       SP0000000000000000                                                                       
1040001300219R 01000000000000000000000000000000000000000000000000211062018000000000000200                                                                                                                                                       
1040001300220P 0101298027300700000000000140000000000316211122031621          1106201800000000002190000000099N0506201821106201800000000000060000000000000000000000000000000000000000000000000000000031621                    3001029090000000000 
1040001300221Q 011000042308542004GREGORIO VILAS BOAS                     RUA DELFINO RIET N°96,SANTO ANTONIO    SANTO ANTONIO  90660120PORTO ALEGRE   RS0000000000000000                                                                       
1040001300222R 01000000000000000000000000000000000000000000000000211062018000000000000200                                                                                                                                                       
1040001300223P 0101298027300700000000000140000000000316221122031622          1106201800000000000792000000099N0506201821106201800000000000060000000000000000000000000000000000000000000000000000000031622                    3001029090000000000 
1040001300224Q 012041454554000146FRANCISCO RICARDO MONTEIRO - ME         RUA BARROS CARVALHO N°2050 SIQUEIRA    SIQUEIRA       60732350FORTALEZA      CE0000000000000000                                                                       
1040001300225R 01000000000000000000000000000000000000000000000000211062018000000000000200                                                                                                                                                       
1040001300226P 0101298027300700000000000140000000000316231122031623          1106201800000000000396000000099N0506201821106201800000000000060000000000000000000000000000000000000000000000000000000031623                    3001029090000000000 
1040001300227Q 011000079050859291RODRIGO SILVA SOUSA                     CJ EDILSON ABREU                        SAGRADA FAMILIA68790000SANTA ISABEL DOPA0000000000000000                                                                       
1040001300228R 01000000000000000000000000000000000000000000000000211062018000000000000200                                                                                                                                                       
1040001300229P 0101298027300700000000000140000000000316241122031624          1106201800000000000099000000099N0506201821106201800000000000060000000000000000000000000000000000000000000000000000000031624                    3001029090000000000 
1040001300230Q 011000083833706368ALEXSANDRO JOSE FELIX NOGUEIRA          RUA GREGORIO DE FRANCA                  CAJAZEIRAS     60864400FORTALEZA      CE0000000000000000                                                                       
1040001300231R 01000000000000000000000000000000000000000000000000211062018000000000000200                                                                                                                                                       
1040001300232P 0101298027300700000000000140000000000316251122031625          1106201800000000000693000000099N0506201821106201800000000000060000000000000000000000000000000000000000000000000000000031625                    3001029090000000000 
1040001300233Q 011000003551174601FERNANDO FERNANDES FERREIRA             RUA DO FLUMINENSE N°584 MARACANA       MARACANA       39403074MONTES CLAROS  MG0000000000000000                                                                       
1040001300234R 01000000000000000000000000000000000000000000000000211062018000000000000200                                                                                                                                                       
1040001300235P 0101298027300700000000000140000000000316261122031626          1106201800000000000198000000099N0506201821106201800000000000060000000000000000000000000000000000000000000000000000000031626                    3001029090000000000 
1040001300236Q 011000037921092802MAICON DOUGLAS MARQUES DA SILVA         AV PEREIRA REBOUCAS N°1959 CENTRO      CENTRO         14540000IGARAPAVA      SP0000000000000000                                                                       
1040001300237R 01000000000000000000000000000000000000000000000000211062018000000000000200                                                                                                                                                       
1040001300238P 0101298027300700000000000140000000000316271122031627          1106201800000000000099000000099N0506201821106201800000000000060000000000000000000000000000000000000000000000000000000031627                    3001029090000000000 
1040001300239Q 011000004754091329ESTENIO DA SILVA LEITE                  RUA 04                                  BARROSO        60863455FORTALEZA      CE0000000000000000                                                                       
1040001300240R 01000000000000000000000000000000000000000000000000211062018000000000000200                                                                                                                                                       
1040001300241P 0101298027300700000000000140000000000316281122031628          1106201800000000000297000000099N0506201821106201800000000000060000000000000000000000000000000000000000000000000000000031628                    3001029090000000000 
1040001300242Q 011000096544970263EDMIR CELSO LEDO BARBOSA FILHO          CONJUNTO MAGUARI ALAMEDA 11             CJ MAGUARI COQU66823073BELEM          PA0000000000000000                                                                       
1040001300243R 01000000000000000000000000000000000000000000000000211062018000000000000200                                                                                                                                                       
1040001300244P 0101298027300700000000000140000000000316291122031629          1106201800000000002340000000099N0506201821106201800000000000060000000000000000000000000000000000000000000000000000000031629                    3001029090000000000 
1040001300245Q 012007726179000108GUSTAVO ZACCARON MARCON ME              AV MUNICIPAL N°1201 CENTRO             CENTRO         88930000TURVO          SC0000000000000000                                                                       
1040001300246R 01000000000000000000000000000000000000000000000000211062018000000000000200                                                                                                                                                       
1040001300247P 0101298027300700000000000140000000000316301122031630          1106201800000000000099000000099N0506201821106201800000000000060000000000000000000000000000000000000000000000000000000031630                    3001029090000000000 
1040001300248Q 011000001903657733JULIO CESAR DOMINGUES PORTO             ESTRADA RAUL VEIGA                      ALCANTARA      24737570SAO GONCALO    RJ0000000000000000                                                                       
1040001300249R 01000000000000000000000000000000000000000000000000211062018000000000000200                                                                                                                                                       
1040001300250P 0101298027300700000000000140000000000316311122031631          1106201800000000003666000000099N0506201821106201800000000000060000000000000000000000000000000000000000000000000000000031631                    3001029090000000000 
1040001300251Q 012017583701000101DIEGO RILKO COSTA 37204056809           RUA GIANINO KAISER N°275 SAO FRANCISCO SAO FRANCISCO  15086300SAO JOSE DO RIOSP0000000000000000                                                                       
1040001300252R 01000000000000000000000000000000000000000000000000211062018000000000000200                                                                                                                                                       
1040001300253P 0101298027300700000000000140000000000316321122031632          1106201800000000000099000000099N0506201821106201800000000000060000000000000000000000000000000000000000000000000000000031632                    3001029090000000000 
1040001300254Q 011000039222103840ANTONIO O PURCELO JUNIOR                RUA SCHOENMACKER N°395 IMIGRANTES      IMIGRANTES     13825000HOLAMBRA       SP0000000000000000                                                                       
1040001300255R 01000000000000000000000000000000000000000000000000211062018000000000000200                                                                                                                                                       
1040001300256P 0101298027300700000000000140000000000316331122031633          1106201800000000000990000000099N0506201821106201800000000000060000000000000000000000000000000000000000000000000000000031633                    3001029090000000000 
1040001300257Q 011000099252830197CARLOS MAGNO ALVES DE ALMEIDA           RUA 07 QD 29 LT 15 CASA 2               PARQUE RIO BRAN72870090VALPARAISO DE GGO0000000000000000                                                                       
1040001300258R 01000000000000000000000000000000000000000000000000211062018000000000000200                                                                                                                                                       
1040001300259P 0101298027300700000000000140000000000316341122031634          1106201800000000005538000000099N0506201821106201800000000000060000000000000000000000000000000000000000000000000000000031634                    3001029090000000000 
1040001300260Q 012026216149000104CAIO DOS SANTOS E SOUSA 04422993119     RUA 03 QD 19 LT 28 PARQUE ESTRELA DALVA PARQUE ESTRELA 72830040LUZIANIA       GO0000000000000000                                                                       
1040001300261R 01000000000000000000000000000000000000000000000000211062018000000000000200                                                                                                                                                       
1040001300262P 0101298027300700000000000140000000000316351122031635          1106201800000000000099000000099N0506201821106201800000000000060000000000000000000000000000000000000000000000000000000031635                    3001029090000000000 
1040001300263Q 011000096518189304JACKSON WILLIAM CHAVES LEAO             RUA XXV                                                60353070FORTALEZA      CE0000000000000000                                                                       
1040001300264R 01000000000000000000000000000000000000000000000000211062018000000000000200                                                                                                                                                       
1040001300265P 0101298027300700000000000140000000000316361122031636          1106201800000000000099000000099N0506201821106201800000000000060000000000000000000000000000000000000000000000000000000031636                    3001029090000000000 
1040001300266Q 011000006446218699FABIO LUIZ                              RUA VOLTS N°117 PRIMEIRO DE MAIO       PRIMEIRO DE MAI31810000BELO HORIZONTE MG0000000000000000                                                                       
1040001300267R 01000000000000000000000000000000000000000000000000211062018000000000000200                                                                                                                                                       
1040001300268P 0101298027300700000000000140000000000316371122031637          1106201800000000000198000000099N0506201821106201800000000000060000000000000000000000000000000000000000000000000000000031637                    3001029090000000000 
1040001300269Q 011000001113974486PAULO VASCONCELOS SALLES                RUA MARIA LAMAS FARACHE N°57 CAPIM MACICAPIM MACIO    59082324NATAL          RN0000000000000000                                                                       
1040001300270R 01000000000000000000000000000000000000000000000000211062018000000000000200                                                                                                                                                       
1040001300271P 0101298027300700000000000140000000000316381122031638          1106201800000000001386000000099N0506201821106201800000000000060000000000000000000000000000000000000000000000000000000031638                    3001029090000000000 
1040001300272Q 012041595521000116C E M DISTRIBUIDORA DE CARNES LTDA      RUA JOSE FACANHA                        BELA VISTA     60430000FORTALEZA      CE0000000000000000                                                                       
1040001300273R 01000000000000000000000000000000000000000000000000211062018000000000000200                                                                                                                                                       
1040001300274P 0101298027300700000000000140000000000316391122031639          1106201800000000000990000000099N0506201821106201800000000000060000000000000000000000000000000000000000000000000000000031639                    3001029090000000000 
1040001300275Q 012020085595000119CTX LOCACOES DE EQUIPAMENTOS E CONTAINERAV DUQUE DE CAXIAS                      JACARECANGA    60035078FORTALEZA      CE0000000000000000                                                                       
1040001300276R 01000000000000000000000000000000000000000000000000211062018000000000000200                                                                                                                                                       
1040001300277P 0101298027300700000000000140000000000316401122031640          1106201800000000002028000000099N0506201821106201800000000000060000000000000000000000000000000000000000000000000000000031640                    3001029090000000000 
1040001300278Q 011000005882561370JOYCE ELLEN SILVA BORGES                RUA MIGUEL FERREIRA                     LAGOA REDONDA  60831072FORTALEZA      CE0000000000000000                                                                       
1040001300279R 01000000000000000000000000000000000000000000000000211062018000000000000200                                                                                                                                                       
1040001300280P 0101298027300700000000000140000000000316411122031641          1106201800000000000158000000099N0506201821106201800000000000060000000000000000000000000000000000000000000000000000000031641                    3001029090000000000 
1040001300281Q 011000001094527394MARCICLEIA RODRIGUES DE OLIVEIRA        RUA PEDRO ARTHUR                        CARLITO PAMPLON60310043FORTALEZA      CE0000000000000000                                                                       
1040001300282R 01000000000000000000000000000000000000000000000000211062018000000000000200                                                                                                                                                       
1040001300283P 0101298027300700000000000140000000000316421122031642          1106201800000000003760000000099N0506201821106201800000000000060000000000000000000000000000000000000000000000000000000031642                    3001029090000000000 
1040001300284Q 012026320803000117MARCOS SOARES DOS SANTOS                RUA BARAO DO RIO BRANCO N°431 SANTO ANTSANTO ANTONIO  43825010CANDEIAS       BA0000000000000000                                                                       
1040001300285R 01000000000000000000000000000000000000000000000000211062018000000000000200                                                                                                                                                       
1040001300286P 0101298027300700000000000140000000000316431122031643          1106201800000000000099000000099N0506201821106201800000000000060000000000000000000000000000000000000000000000000000000031643                    3001029090000000000 
1040001300287Q 011000022864377349MARCIA CHAVES DA CUNHA FERREIRA         RUA PADRE VALDEVINO N°1031 ALDEOTA     ALDEOTA        60135040FORTALEZA      CE0000000000000000                                                                       
1040001300288R 01000000000000000000000000000000000000000000000000211062018000000000000200                                                                                                                                                       
1040001300289P 0101298027300700000000000140000000000316441122031644          1106201800000000002638000000099N0506201821106201800000000000060000000000000000000000000000000000000000000000000000000031644                    3001029090000000000 
1040001300290Q 012018207345000186ODAIR JOSE SAVALAIO 41084080206         Q ONZE (CJ RORAIMA-AMAPA)               MAGUARI        67146011ANANINDEUA     PA0000000000000000                                                                       
1040001300291R 01000000000000000000000000000000000000000000000000211062018000000000000200                                                                                                                                                       
1040001300292P 0101298027300700000000000140000000000316451122031645          1106201800000000000099000000099N0506201821106201800000000000060000000000000000000000000000000000000000000000000000000031645                    3001029090000000000 
1040001300293Q 011000060001832328MARIANA DE OLIVEIRA CAMPOS              RUA SANTA ANGELA 626 MESSEJANA          MESSEJANA      60871070FORTALEZA      CE0000000000000000                                                                       
1040001300294R 01000000000000000000000000000000000000000000000000211062018000000000000200                                                                                                                                                       
1040001300295P 0101298027300700000000000140000000000316461122031646          1106201800000000017146000000099N0506201821106201800000000000060000000000000000000000000000000000000000000000000000000031646                    3001029090000000000 
1040001300296Q 012021515839000132CLUBE AUTO PRIME (AC. ANTONIO BONIN DOS AVENIDA MARIO LEAL FERREIRA, EDIFICO TOPCONDOMINIO PEDR40285600SALVADOR       BA0000000000000000                                                                       
1040001300297R 01000000000000000000000000000000000000000000000000211062018000000000000200                                                                                                                                                       
1040001300298P 0101298027300700000000000140000000000316471122031647          1106201800000000027621000000099N0506201821106201800000000000060000000000000000000000000000000000000000000000000000000031647                    3001029090000000000 
1040001300299Q 011000067147909372LEANDRO ROSA DE LIMA                    RUA MARCILIO DIAS                       JACARECANGA    60310750FORTALEZA      CE0000000000000000                                                                       
1040001300300R 01000000000000000000000000000000000000000000000000211062018000000000000200                                                                                                                                                       
1040001300301P 0101298027300700000000000140000000000316481122031648          1106201800000000000199000000099N0506201821106201800000000000060000000000000000000000000000000000000000000000000000000031648                    3001029090000000000 
1040001300302Q 011000004897591651DANILO PEREIRA FERNANDES                AVENIDA DAS PEROBAS QD 56 LT 08 INDUSTRIINDUSTRIAL     76520000NOVA CRIXAS    GO0000000000000000                                                                       
1040001300303R 01000000000000000000000000000000000000000000000000211062018000000000000200                                                                                                                                                       
1040001300304P 0101298027300700000000000140000000000316491122031649          1106201800000000002028000000099N0506201821106201800000000000060000000000000000000000000000000000000000000000000000000031649                    3001029090000000000 
1040001300305Q 011000003518664344KESLEY MENDONCA CARVALHO                RUA GRACA ARANHA 150 SALA 1 POSTO IPIRANBARRA DO CEARA 60334170FORTALEZA      CE0000000000000000                                                                       
1040001300306R 01000000000000000000000000000000000000000000000000211062018000000000000200                                                                                                                                                       
1040001300307P 0101298027300700000000000140000000000316501122031650          1106201800000000005304000000099N0506201821106201800000000000060000000000000000000000000000000000000000000000000000000031650                    3001029090000000000 
1040001300308Q 012019765963000104VINICIUS CASTRO E SILVA                 RUA 25 DE DEZEMBRO N°837 CENTRO        CENTRO         35588000ARCOS          MG0000000000000000                                                                       
1040001300309R 01000000000000000000000000000000000000000000000000211062018000000000000200                                                                                                                                                       
1040001300310P 0101298027300700000000000140000000000316511122031651          1106201800000000000099000000099N0506201821106201800000000000060000000000000000000000000000000000000000000000000000000031651                    3001029090000000000 
1040001300311Q 011000051059282372AURICELIO HOLANDA MOURA                 AV. ARGENTINO PINHEIRO TORRES N°1248 BAPASSARE        60867065FORTALEZA      CE0000000000000000                                                                       
1040001300312R 01000000000000000000000000000000000000000000000000211062018000000000000200                                                                                                                                                       
1040001300313P 0101298027300700000000000140000000000316521122031652          1106201800000000000792000000099N0506201821106201800000000000060000000000000000000000000000000000000000000000000000000031652                    3001029090000000000 
1040001300314Q 012011543951000123JMS CUNHA LOCACAO DE MAQUINAS E EQUIPAMEAVENIDA GODOFREDO PIMENTEL              OLAVO OLIVEIRA 60351060FORTALEZA      CE0000000000000000                                                                       
1040001300315R 01000000000000000000000000000000000000000000000000211062018000000000000200                                                                                                                                                       
1040001300316P 0101298027300700000000000140000000000316531122031653          1106201800000000000495000000099N0506201821106201800000000000060000000000000000000000000000000000000000000000000000000031653                    3001029090000000000 
1040001300317Q 011000016381149353IVANILDO RAMOS MACHADO                  RUA 123                                 CONJUNTO CEARA 60530110FORTALEZA      CE0000000000000000                                                                       
1040001300318R 01000000000000000000000000000000000000000000000000211062018000000000000200                                                                                                                                                       
1040001300319P 0101298027300700000000000140000000000316541122031654          1106201800000000000198000000099N0506201821106201800000000000060000000000000000000000000000000000000000000000000000000031654                    3001029090000000000 
1040001300320Q 011000048595519315ALEX BRANDAO DE PAULA                   RUA MARCILIO DIAS                       CRISTO REDENTOR60310750FORTALEZA      CE0000000000000000                                                                       
1040001300321R 01000000000000000000000000000000000000000000000000211062018000000000000200                                                                                                                                                       
1040001300322P 0101298027300700000000000140000000000316551122031655          1106201800000000000099000000099N0506201821106201800000000000060000000000000000000000000000000000000000000000000000000031655                    3001029090000000000 
1040001300323Q 011000006625536407EDUARDO ALVES DOS SANTOS MIRANDA        RUA J. O\'CALLAGHAM N°134 APTO.5 SAO JOSAO JORGE      69033100MANAUS         AM0000000000000000                                                                       
1040001300324R 01000000000000000000000000000000000000000000000000211062018000000000000200                                                                                                                                                       
1040001300325P 0101298027300700000000000140000000000316561122031656          1106201800000000028885000000099N0506201821106201800000000000060000000000000000000000000000000000000000000000000000000031656                    3001029090000000000 
1040001300326Q 012025344785000140JOSE MAGNO FERREIRA DA SILVA            RUA CIDADE CONCEICAO                    BAIRRO DAS INDU58083515JOAO PESSOA    PB0000000000000000                                                                       
1040001300327R 01000000000000000000000000000000000000000000000000211062018000000000000200                                                                                                                                                       
1040001300328P 0101298027300700000000000140000000000316571122031657          1106201800000000001794000000099N0506201821106201800000000000060000000000000000000000000000000000000000000000000000000031657                    3001029090000000000 
1040001300329Q 012015589293000161FRANCA PINTO & CIA LTDA-EPP             RUA 1060                                CONJUNTO CEARA 60533050FORTALEZA      CE0000000000000000                                                                       
1040001300330R 01000000000000000000000000000000000000000000000000211062018000000000000200                                                                                                                                                       
1040001300331P 0101298027300700000000000140000000000316581122031658          1106201800000000000198000000099N0506201821106201800000000000060000000000000000000000000000000000000000000000000000000031658                    3001029090000000000 
1040001300332Q 011000095798420272JOAO VIEIRA DE MEDEIROS NETO            RUA DAS OLIVEIRAS N°112 BAIRRO NOVA ISRNOVA ISRAEL    69039205MANAUS         AM0000000000000000                                                                       
1040001300333R 01000000000000000000000000000000000000000000000000211062018000000000000200                                                                                                                                                       
1040001300334P 0101298027300700000000000140000000000316591122031659          1106201800000000000099000000099N0506201821106201800000000000060000000000000000000000000000000000000000000000000000000031659                    3001029090000000000 
1040001300335Q 011000027766148889GUSTAVO OLIVEIRA LEME                   RUA CARLOS INACIO ALVES N°767 JARDIM PEJARDIM PEROLA  86038390LONDRINA       PR0000000000000000                                                                       
1040001300336R 01000000000000000000000000000000000000000000000000211062018000000000000200                                                                                                                                                       
1040001300337P 0101298027300700000000000140000000000316601122031660          1106201800000000000099000000099N0506201821106201800000000000060000000000000000000000000000000000000000000000000000000031660                    3001029090000000000 
1040001300338Q 011000002357346167LELSON AMARAL MARTINS                   RUA 41                                  CURUMIM        76300000CERES          GO0000000000000000                                                                       
1040001300339R 01000000000000000000000000000000000000000000000000211062018000000000000200                                                                                                                                                       
1040001300340P 0101298027300700000000000140000000000316611122031661          1106201800000000000099000000099N0506201821106201800000000000060000000000000000000000000000000000000000000000000000000031661                    3001029090000000000 
1040001300341Q 011000050608282049FLAVIO HENRIQUE ASCARI                  RUA RIO DO SUL N°333                                  89620000CAMPOS NOVOS   SC0000000000000000                                                                       
1040001300342R 01000000000000000000000000000000000000000000000000211062018000000000000200                                                                                                                                                       
1040001300343P 0101298027300700000000000140000000000316621122031662          1106201800000000001089000000099N0506201821106201800000000000060000000000000000000000000000000000000000000000000000000031662                    3001029090000000000 
1040001300344Q 011000008423716643TATIANA GARCIA DE MORAIS                RUA MARIO RIBEIRO LIMA, N°260 BOM JESUS               37810000GUARANESIA     MG0000000000000000                                                                       
1040001300345R 01000000000000000000000000000000000000000000000000211062018000000000000200                                                                                                                                                       
1040001300346P 0101298027300700000000000140000000000316631122031663          1106201800000000000534000000099N0506201821106201800000000000060000000000000000000000000000000000000000000000000000000031663                    3001029090000000000 
1040001300347Q 012013955553000140KLEITON MOURA DA PAIXAO                 AV. FELIPE CAMARAO QD.43 LT.15 GOIA 2   GOIANEA 2      74485320GOIANIA        GO0000000000000000                                                                       
1040001300348R 01000000000000000000000000000000000000000000000000211062018000000000000200                                                                                                                                                       
1040001300349P 0101298027300700000000000140000000000316641122031664          1106201800000000000495000000099N0506201821106201800000000000060000000000000000000000000000000000000000000000000000000031664                    3001029090000000000 
1040001300350Q 012042793844000187LOCNORTE LOCADORA DE EQUIPAMENTOS P/ CONAV. DONA GREGORIA N°162 CIDADE NOVA    CIDADE NOVA    39400464MONTES CLAROS  MG0000000000000000                                                                       
1040001300351R 01000000000000000000000000000000000000000000000000211062018000000000000200                                                                                                                                                       
1040001300352P 0101298027300700000000000140000000000316651122031665          1106201800000000000198000000099N0506201821106201800000000000060000000000000000000000000000000000000000000000000000000031665                    3001029090000000000 
1040001300353Q 011000061444510304FRANCISCO OMILSON BARBOSA DA SILVA      RUA WALTER POMPEU N°400 APT. 201 BLC. 6ALVARO WEYNE,  60337120FORTALEZA      CE0000000000000000                                                                       
1040001300354R 01000000000000000000000000000000000000000000000000211062018000000000000200                                                                                                                                                       
1040001300355P 0101298027300700000000000140000000000316661122031666          1106201800000000000099000000099N0506201821106201800000000000060000000000000000000000000000000000000000000000000000000031666                    3001029090000000000 
1040001300356Q 011000054781949668NILTON LEFUNDES DA SILVA                RUA PORTO DA SAUDADE                    ITAIM PAULISTA 08132470SAO PAULO      SP0000000000000000                                                                       
1040001300357R 01000000000000000000000000000000000000000000000000211062018000000000000200                                                                                                                                                       
1040001300358P 0101298027300700000000000140000000000316671122031667          1106201800000000000891000000099N0506201821106201800000000000060000000000000000000000000000000000000000000000000000000031667                    3001029090000000000 
1040001300359Q 011000003870412305DIEGO ALMEIDA DE OLIVEIRA               RUA NOSSA SENHORA DAS GRACAS            PIRAMBU        60310770FORTALEZA      CE0000000000000000                                                                       
1040001300360R 01000000000000000000000000000000000000000000000000211062018000000000000200                                                                                                                                                       
1040001300361P 0101298027300700000000000140000000000316681122031668          1106201800000000000099000000099N0506201821106201800000000000060000000000000000000000000000000000000000000000000000000031668                    3001029090000000000 
1040001300362Q 011000001953016332JOSE ORLANDO                            RUA QUATORZE, QUADRA 25, CASA 17, BLOCO CIDADE OLIMPICA65058532SAO LUIS       MA0000000000000000                                                                       
1040001300363R 01000000000000000000000000000000000000000000000000211062018000000000000200                                                                                                                                                       
1040001300364P 0101298027300700000000000140000000000316691122031669          1106201800000000001287000000099N0506201821106201800000000000060000000000000000000000000000000000000000000000000000000031669                    3001029090000000000 
1040001300365Q 012026097788000190JESSE RODRIGUES DE SOUSA 41194341845    RUA DOUTOR RUI BARBOSA                  JD DOS SCURSONI13150000COSMOPOLIS     SP0000000000000000                                                                       
1040001300366R 01000000000000000000000000000000000000000000000000211062018000000000000200                                                                                                                                                       
1040001300367P 0101298027300700000000000140000000000316701122031670          1106201800000000005304000000099N0506201821106201800000000000060000000000000000000000000000000000000000000000000000000031670                    3001029090000000000 
1040001300368Q 011000007374853963WILLIAN AMARAL DE OLIVEIRA              RUA MARIA HELENICE TEDESCO ROSA         JD SANTA ALICE 86036694LONDRINA       PR0000000000000000                                                                       
1040001300369R 01000000000000000000000000000000000000000000000000211062018000000000000200                                                                                                                                                       
1040001300370P 0101298027300700000000000140000000000316711122031671          1106201800000000000099000000099N0506201821106201800000000000060000000000000000000000000000000000000000000000000000000031671                    3001029090000000000 
1040001300371Q 011000075176882353ALEXSANDRO ANDRADE SILVA                RUA 3, QUADRA D1, ARACAGY 6                            65110000SAO JOSE DE RIBMA0000000000000000                                                                       
1040001300372R 01000000000000000000000000000000000000000000000000211062018000000000000200                                                                                                                                                       
1040001300373P 0101298027300700000000000140000000000316721122031672          1106201800000000000099000000099N0506201821106201800000000000060000000000000000000000000000000000000000000000000000000031672                    3001029090000000000 
1040001300374Q 011000071339493187ANTONIO DA COSTA AMANCIO                AV:LAMBARI                              CENTRO         76200000IPORA          GO0000000000000000                                                                       
1040001300375R 01000000000000000000000000000000000000000000000000211062018000000000000200                                                                                                                                                       
1040001300376P 0101298027300700000000000140000000000316731122031673          1106201800000000004580000000099N0506201821106201800000000000060000000000000000000000000000000000000000000000000000000031673                    3001029090000000000 
1040001300377Q 011000076140881234JOSE NILSON SILVA DOS SANTOS            PASS. SAO RAIMUNDO                      ATALAIA        67013590ANANINDEUA     PA0000000000000000                                                                       
1040001300378R 01000000000000000000000000000000000000000000000000211062018000000000000200                                                                                                                                                       
1040001300379P 0101298027300700000000000140000000000316741122031674          1106201800000000003679000000099N0506201821106201800000000000060000000000000000000000000000000000000000000000000000000031674                    3001029090000000000 
1040001300380Q 011000064507734304ELTON DE SOUSA E SILVA                  RUA: GENERAL ARTUR CARVALHO, CHACARA BRA               65066320SAO LUIS       MA0000000000000000                                                                       
1040001300381R 01000000000000000000000000000000000000000000000000211062018000000000000200                                                                                                                                                       
1040001300382P 0101298027300700000000000140000000000316751122031675          1106201800000000000099000000099N0506201821106201800000000000060000000000000000000000000000000000000000000000000000000031675                    3001029090000000000 
1040001300383Q 011000058892176072LEANDRO MARQUES UFLACKER                RUA OCTAVIO DE SOUZA                    TERESOPOLIS    90840350PORTO ALEGRE   RS0000000000000000                                                                       
1040001300384R 01000000000000000000000000000000000000000000000000211062018000000000000200                                                                                                                                                       
1040001300385P 0101298027300700000000000140000000000316761122031676          1106201800000000000319000000099N0506201821106201800000000000060000000000000000000000000000000000000000000000000000000031676                    3001029090000000000 
1040001300386Q 011000033739261811JEFFERSON QUINTILIANO                   RUA TIRADENTES                          CENTRO         19840000MARACAI        SP0000000000000000                                                                       
1040001300387R 01000000000000000000000000000000000000000000000000211062018000000000000200                                                                                                                                                       
1040001300388P 0101298027300700000000000140000000000316771122031677          1106201800000000000198000000099N0506201821106201800000000000060000000000000000000000000000000000000000000000000000000031677                    3001029090000000000 
1040001300389Q 011000003837526127MYKE ALVES SILVA                        RUA H40, QD131 LT22 - CONJUNTO ESTRELA D               74936030APARECIDA DE GOGO0000000000000000                                                                       
1040001300390R 01000000000000000000000000000000000000000000000000211062018000000000000200                                                                                                                                                       
1040001300391P 0101298027300700000000000140000000000316781122031678          1106201800000000017226000000099N0506201821106201800000000000060000000000000000000000000000000000000000000000000000000031678                    3001029090000000000 
1040001300392Q 011000072831693268CARLOS ALBERTO SILVA DE SOUZA           CONJUNTO JARDIM EUROPA RUA ITALIA Q O5 CBAIRRO DA CABAN66650210BELEM          PA0000000000000000                                                                       
1040001300393R 01000000000000000000000000000000000000000000000000211062018000000000000200                                                                                                                                                       
1040001300394P 0101298027300700000000000140000000000316791122031679          1106201800000000001159000000099N0506201821106201800000000000060000000000000000000000000000000000000000000000000000000031679                    3001029090000000000 
1040001300395Q 011000015961130738LEANDRO SOUSA DA SILVA                  RUA DOUTOR JULIO BARCELOS,              GUAXINDIBA     28230000SAO FRANCISCO DRJ0000000000000000                                                                       
1040001300396R 01000000000000000000000000000000000000000000000000211062018000000000000200                                                                                                                                                       
1040001300397P 0101298027300700000000000140000000000316801122031680          1106201800000000001560000000099N0506201821106201800000000000060000000000000000000000000000000000000000000000000000000031680                    3001029090000000000 
1040001300398Q 012004554488000150WAGNER DE SOUZA SANTOS                  RUA GIULIANO OCCHINI                    JD IMPERIAL    12950530ATIBAIA        SP0000000000000000                                                                       
1040001300399R 01000000000000000000000000000000000000000000000000211062018000000000000200                                                                                                                                                       
1040001300400P 0101298027300700000000000140000000000316811122031681          1106201800000000000099000000099N0506201821106201800000000000060000000000000000000000000000000000000000000000000000000031681                    3001029090000000000 
1040001300401Q 011000005320225997THIAGO LUIZ LEITE                       RUA PORTO ALEGRE, SAO JOSE DOS PINHAIS                 83015040SAO JOSE DOS PIPR0000000000000000                                                                       
1040001300402R 01000000000000000000000000000000000000000000000000211062018000000000000200                                                                                                                                                       
1040001300403P 0101298027300700000000000140000000000316821122031682          1106201800000000000198000000099N0506201821106201800000000000060000000000000000000000000000000000000000000000000000000031682                    3001029090000000000 
1040001300404Q 011000006772209605MARCOS VINICIUS SILVEIRA DOS SANTOS     RUA CIDADE DO SOL                       CIDADE DO SOL  36085450JUIZ DE FORA   MG0000000000000000                                                                       
1040001300405R 01000000000000000000000000000000000000000000000000211062018000000000000200                                                                                                                                                       
1040001300406P 0101298027300700000000000140000000000316831122031683          1106201800000000000495000000099N0506201821106201800000000000060000000000000000000000000000000000000000000000000000000031683                    3001029090000000000 
1040001300407Q 011000004294200723ANDRE VINICIUS DIAS MARTINS LIMA        RUA FERREIRA PONTES 400, CASA                          20541280RIO DE JANEIRO RJ0000000000000000                                                                       
1040001300408R 01000000000000000000000000000000000000000000000000211062018000000000000200                                                                                                                                                       
1040001300409P 0101298027300700000000000140000000000316851122031685          1106201800000000000099000000099N0506201821106201800000000000060000000000000000000000000000000000000000000000000000000031685                    3001029090000000000 
1040001300410Q 011000002091491160RENATO ELYONE DE ALMEIDA                RUA HENRIQUE DE BASTOS CURADO QUADRA 06 JARDIM DAS ACAC74987220APARECIDA DE GOGO0000000000000000                                                                       
1040001300411R 01000000000000000000000000000000000000000000000000211062018000000000000200                                                                                                                                                       
1040001300412P 0101298027300700000000000140000000000316861122031686          1106201800000000000099000000099N0506201821106201800000000000060000000000000000000000000000000000000000000000000000000031686                    3001029090000000000 
1040001300413Q 011000033873383845VALTERLINO NUNES PEREIRA JUNIOR         RUA JOSE ROBERTO BRESSER                JD UNIVERSO    15041591SAO JOSE DO RIOSP0000000000000000                                                                       
