10400000         2116559540001590000000000000000000001298027300700000000FEDERAL SISTEMAS              CAIXA ECONOMICA FEDERAL                 11412201816430300016605000000                    REMESSA-PRODUCAO                                 
10400011R0100030 20116559540001592730070000000000000001298027300700000000FEDERAL SISTEMAS                                                                                              000001661412201800000000                                 
1040001300001P 0101298027300700000000000140000000000392941122039294          2512201800000000003400000000099N0111201822512201800000000000060000000000000000000000000000000000000000000000000000000039294                    3001029090000000000 
1040001300002Q 012019330616000310CTH CONSTRUTORA EIRELI - ME             AV. PRESIDENTE VARGAS                   CENTRO         76300000CERES          GO0000000000000000                                                                       
1040001300003R 01000000000000000000000000000000000000000000000000225122018000000000000200                                                                                                                                                       
1040001300004P 0101298027300700000000000140000000000392951122039295          2501201900000000003400000000099N0111201822501201900000000000060000000000000000000000000000000000000000000000000000000039295                    3001029090000000000 
1040001300005Q 012019330616000310CTH CONSTRUTORA EIRELI - ME             AV. PRESIDENTE VARGAS                   CENTRO         76300000CERES          GO0000000000000000                                                                       
1040001300006R 01000000000000000000000000000000000000000000000000225012019000000000000200                                                                                                                                                       
1040001300007P 0101298027300700000000000140000000000392961122039296          2502201900000000003400000000099N0111201822502201900000000000060000000000000000000000000000000000000000000000000000000039296                    3001029090000000000 
1040001300008Q 012019330616000310CTH CONSTRUTORA EIRELI - ME             AV. PRESIDENTE VARGAS                   CENTRO         76300000CERES          GO0000000000000000                                                                       
1040001300009R 01000000000000000000000000000000000000000000000000225022019000000000000200                                                                                                                                                       
1040001300010P 0101298027300700000000000140000000000392971122039297          2503201900000000003400000000099N0111201822503201900000000000060000000000000000000000000000000000000000000000000000000039297                    3001029090000000000 
1040001300011Q 012019330616000310CTH CONSTRUTORA EIRELI - ME             AV. PRESIDENTE VARGAS                   CENTRO         76300000CERES          GO0000000000000000                                                                       
1040001300012R 01000000000000000000000000000000000000000000000000225032019000000000000200                                                                                                                                                       
1040001300013P 0101298027300700000000000140000000000392981122039298          2504201900000000003400000000099N0111201822504201900000000000060000000000000000000000000000000000000000000000000000000039298                    3001029090000000000 
1040001300014Q 012019330616000310CTH CONSTRUTORA EIRELI - ME             AV. PRESIDENTE VARGAS                   CENTRO         76300000CERES          GO0000000000000000                                                                       
1040001300015R 01000000000000000000000000000000000000000000000000225042019000000000000200                                                                                                                                                       
1040001300016P 0101298027300700000000000140000000000392991122039299          2505201900000000003400000000099N0111201822505201900000000000060000000000000000000000000000000000000000000000000000000039299                    3001029090000000000 
1040001300017Q 012019330616000310CTH CONSTRUTORA EIRELI - ME             AV. PRESIDENTE VARGAS                   CENTRO         76300000CERES          GO0000000000000000                                                                       
1040001300018R 01000000000000000000000000000000000000000000000000225052019000000000000200                                                                                                                                                       
1040001300019P 0101298027300700000000000140000000000393001122039300          2506201900000000003400000000099N0111201822506201900000000000060000000000000000000000000000000000000000000000000000000039300                    3001029090000000000 
1040001300020Q 012019330616000310CTH CONSTRUTORA EIRELI - ME             AV. PRESIDENTE VARGAS                   CENTRO         76300000CERES          GO0000000000000000                                                                       
1040001300021R 01000000000000000000000000000000000000000000000000225062019000000000000200                                                                                                                                                       
1040001300022P 0101298027300700000000000140000000000393011122039301          2507201900000000003400000000099N0111201822507201900000000000060000000000000000000000000000000000000000000000000000000039301                    3001029090000000000 
1040001300023Q 012019330616000310CTH CONSTRUTORA EIRELI - ME             AV. PRESIDENTE VARGAS                   CENTRO         76300000CERES          GO0000000000000000                                                                       
1040001300024R 01000000000000000000000000000000000000000000000000225072019000000000000200                                                                                                                                                       
1040001300025P 0101298027300700000000000140000000000393021122039302          2508201900000000003400000000099N0111201822508201900000000000060000000000000000000000000000000000000000000000000000000039302                    3001029090000000000 
1040001300026Q 012019330616000310CTH CONSTRUTORA EIRELI - ME             AV. PRESIDENTE VARGAS                   CENTRO         76300000CERES          GO0000000000000000                                                                       
1040001300027R 01000000000000000000000000000000000000000000000000225082019000000000000200                                                                                                                                                       
1040001300028P 0101298027300700000000000140000000000393031122039303          2509201900000000003400000000099N0111201822509201900000000000060000000000000000000000000000000000000000000000000000000039303                    3001029090000000000 
1040001300029Q 012019330616000310CTH CONSTRUTORA EIRELI - ME             AV. PRESIDENTE VARGAS                   CENTRO         76300000CERES          GO0000000000000000                                                                       
1040001300030R 01000000000000000000000000000000000000000000000000225092019000000000000200                                                                                                                                                       
1040001300031P 0101298027300700000000000140000000000393041122039304          2510201900000000003400000000099N0111201822510201900000000000060000000000000000000000000000000000000000000000000000000039304                    3001029090000000000 
1040001300032Q 012019330616000310CTH CONSTRUTORA EIRELI - ME             AV. PRESIDENTE VARGAS                   CENTRO         76300000CERES          GO0000000000000000                                                                       
1040001300033R 01000000000000000000000000000000000000000000000000225102019000000000000200                                                                                                                                                       
1040001300034P 0101298027300700000000000140000000000393051122039305          0111201800000000002000000000099N0111201820111201800000000000060000000000000000000000000000000000000000000000000000000039305                    3001029090000000000 
1040001300035Q 012011903208000137JEAN CARLOS LIMA BORGES 88333957315     AV. PRESIDENTE VARGAS                   CENTRO         76300000CERES          GO0000000000000000                                                                       
1040001300036R 01000000000000000000000000000000000000000000000000201112018000000000000200                                                                                                                                                       
1040001300037P 0101298027300700000000000140000000000393101122039310          2001201900000000000780000000099N0511201822001201900000000000060000000000000000000000000000000000000000000000000000000039310                    3001029090000000000 
1040001300038Q 012009401057000177VP TRANSPORTES DE CARGAS LTDA EPP       AV. PRESIDENTE VARGAS                   CENTRO         76300000CERES          GO0000000000000000                                                                       
1040001300039R 01000000000000000000000000000000000000000000000000220012019000000000000200                                                                                                                                                       
1040001300040P 0101298027300700000000000140000000000393111122039311          2002201900000000000780000000099N0511201822002201900000000000060000000000000000000000000000000000000000000000000000000039311                    3001029090000000000 
1040001300041Q 012009401057000177VP TRANSPORTES DE CARGAS LTDA EPP       AV. PRESIDENTE VARGAS                   CENTRO         76300000CERES          GO0000000000000000                                                                       
1040001300042R 01000000000000000000000000000000000000000000000000220022019000000000000200                                                                                                                                                       
1040001300043P 0101298027300700000000000140000000000393121122039312          2003201900000000000780000000099N0511201822003201900000000000060000000000000000000000000000000000000000000000000000000039312                    3001029090000000000 
1040001300044Q 012009401057000177VP TRANSPORTES DE CARGAS LTDA EPP       AV. PRESIDENTE VARGAS                   CENTRO         76300000CERES          GO0000000000000000                                                                       
1040001300045R 01000000000000000000000000000000000000000000000000220032019000000000000200                                                                                                                                                       
1040001300046P 0101298027300700000000000140000000000393131122039313          2004201900000000001180000000099N0511201822004201900000000000060000000000000000000000000000000000000000000000000000000039313                    3001029090000000000 
1040001300047Q 012009401057000177VP TRANSPORTES DE CARGAS LTDA EPP       AV. PRESIDENTE VARGAS                   CENTRO         76300000CERES          GO0000000000000000                                                                       
1040001300048R 01000000000000000000000000000000000000000000000000220042019000000000000200                                                                                                                                                       
1040001300049P 0101298027300700000000000140000000000393141122039314          2005201900000000001180000000099N0511201822005201900000000000060000000000000000000000000000000000000000000000000000000039314                    3001029090000000000 
1040001300050Q 012009401057000177VP TRANSPORTES DE CARGAS LTDA EPP       AV. PRESIDENTE VARGAS                   CENTRO         76300000CERES          GO0000000000000000                                                                       
1040001300051R 01000000000000000000000000000000000000000000000000220052019000000000000200                                                                                                                                                       
1040001300052P 0101298027300700000000000140000000000393151122039315          2006201900000000001180000000099N0511201822006201900000000000060000000000000000000000000000000000000000000000000000000039315                    3001029090000000000 
1040001300053Q 012009401057000177VP TRANSPORTES DE CARGAS LTDA EPP       AV. PRESIDENTE VARGAS                   CENTRO         76300000CERES          GO0000000000000000                                                                       
1040001300054R 01000000000000000000000000000000000000000000000000220062019000000000000200                                                                                                                                                       
1040001300055P 0101298027300700000000000140000000000393161122039316          2007201900000000001180000000099N0511201822007201900000000000060000000000000000000000000000000000000000000000000000000039316                    3001029090000000000 
1040001300056Q 012009401057000177VP TRANSPORTES DE CARGAS LTDA EPP       AV. PRESIDENTE VARGAS                   CENTRO         76300000CERES          GO0000000000000000                                                                       
1040001300057R 01000000000000000000000000000000000000000000000000220072019000000000000200                                                                                                                                                       
1040001300058P 0101298027300700000000000140000000000393171122039317          2008201900000000001180000000099N0511201822008201900000000000060000000000000000000000000000000000000000000000000000000039317                    3001029090000000000 
1040001300059Q 012009401057000177VP TRANSPORTES DE CARGAS LTDA EPP       AV. PRESIDENTE VARGAS                   CENTRO         76300000CERES          GO0000000000000000                                                                       
1040001300060R 01000000000000000000000000000000000000000000000000220082019000000000000200                                                                                                                                                       
1040001300061P 0101298027300700000000000140000000000393181122039318          2009201900000000001180000000099N0511201822009201900000000000060000000000000000000000000000000000000000000000000000000039318                    3001029090000000000 
1040001300062Q 012009401057000177VP TRANSPORTES DE CARGAS LTDA EPP       AV. PRESIDENTE VARGAS                   CENTRO         76300000CERES          GO0000000000000000                                                                       
1040001300063R 01000000000000000000000000000000000000000000000000220092019000000000000200                                                                                                                                                       
1040001300064P 0101298027300700000000000140000000000393191122039319          2010201900000000001180000000099N0511201822010201900000000000060000000000000000000000000000000000000000000000000000000039319                    3001029090000000000 
1040001300065Q 012009401057000177VP TRANSPORTES DE CARGAS LTDA EPP       AV. PRESIDENTE VARGAS                   CENTRO         76300000CERES          GO0000000000000000                                                                       
1040001300066R 01000000000000000000000000000000000000000000000000220102019000000000000200                                                                                                                                                       
1040001300067P 0101298027300700000000000140000000000393201122039320          2011201900000000001180000000099N0511201822011201900000000000060000000000000000000000000000000000000000000000000000000039320                    3001029090000000000 
1040001300068Q 012009401057000177VP TRANSPORTES DE CARGAS LTDA EPP       AV. PRESIDENTE VARGAS                   CENTRO         76300000CERES          GO0000000000000000                                                                       
1040001300069R 01000000000000000000000000000000000000000000000000220112019000000000000200                                                                                                                                                       
1040001300070P 0101298027300700000000000140000000000393211122039321          2012201900000000001180000000099N0511201822012201900000000000060000000000000000000000000000000000000000000000000000000039321                    3001029090000000000 
1040001300071Q 012009401057000177VP TRANSPORTES DE CARGAS LTDA EPP       AV. PRESIDENTE VARGAS                   CENTRO         76300000CERES          GO0000000000000000                                                                       
1040001300072R 01000000000000000000000000000000000000000000000000220122019000000000000200                                                                                                                                                       
1040001300073P 0101298027300700000000000140000000000393241122039324          1501201900000000001500000000099N0511201821501201900000000000060000000000000000000000000000000000000000000000000000000039324                    3001029090000000000 
1040001300074Q 011000001586377124TARCISIO LUIZ LAGARES                   AV. PRESIDENTE VARGAS                   CENTRO         76300000CERES          GO0000000000000000                                                                       
1040001300075R 01000000000000000000000000000000000000000000000000215012019000000000000200                                                                                                                                                       
1040001300076P 0101298027300700000000000140000000000393271122039327          2001201900000000000390000000099N0511201822001201900000000000060000000000000000000000000000000000000000000000000000000039327                    3001029090000000000 
1040001300077Q 012011619425000108ADILSON REIS SANTOS                     AV. PRESIDENTE VARGAS                   CENTRO         76300000CERES          GO0000000000000000                                                                       
1040001300078R 01000000000000000000000000000000000000000000000000220012019000000000000200                                                                                                                                                       
1040001300079P 0101298027300700000000000140000000000393281122039328          2002201900000000000390000000099N0511201822002201900000000000060000000000000000000000000000000000000000000000000000000039328                    3001029090000000000 
1040001300080Q 012011619425000108ADILSON REIS SANTOS                     AV. PRESIDENTE VARGAS                   CENTRO         76300000CERES          GO0000000000000000                                                                       
1040001300081R 01000000000000000000000000000000000000000000000000220022019000000000000200                                                                                                                                                       
1040001300082P 0101298027300700000000000140000000000393291122039329          2003201900000000000390000000099N0511201822003201900000000000060000000000000000000000000000000000000000000000000000000039329                    3001029090000000000 
1040001300083Q 012011619425000108ADILSON REIS SANTOS                     AV. PRESIDENTE VARGAS                   CENTRO         76300000CERES          GO0000000000000000                                                                       
1040001300084R 01000000000000000000000000000000000000000000000000220032019000000000000200                                                                                                                                                       
1040001300085P 0101298027300700000000000140000000000393301122039330          2004201900000000000590000000099N0511201822004201900000000000060000000000000000000000000000000000000000000000000000000039330                    3001029090000000000 
1040001300086Q 012011619425000108ADILSON REIS SANTOS                     AV. PRESIDENTE VARGAS                   CENTRO         76300000CERES          GO0000000000000000                                                                       
1040001300087R 01000000000000000000000000000000000000000000000000220042019000000000000200                                                                                                                                                       
1040001300088P 0101298027300700000000000140000000000393311122039331          2005201900000000000590000000099N0511201822005201900000000000060000000000000000000000000000000000000000000000000000000039331                    3001029090000000000 
1040001300089Q 012011619425000108ADILSON REIS SANTOS                     AV. PRESIDENTE VARGAS                   CENTRO         76300000CERES          GO0000000000000000                                                                       
1040001300090R 01000000000000000000000000000000000000000000000000220052019000000000000200                                                                                                                                                       
1040001300091P 0101298027300700000000000140000000000393321122039332          2006201900000000000590000000099N0511201822006201900000000000060000000000000000000000000000000000000000000000000000000039332                    3001029090000000000 
1040001300092Q 012011619425000108ADILSON REIS SANTOS                     AV. PRESIDENTE VARGAS                   CENTRO         76300000CERES          GO0000000000000000                                                                       
1040001300093R 01000000000000000000000000000000000000000000000000220062019000000000000200                                                                                                                                                       
1040001300094P 0101298027300700000000000140000000000393331122039333          2007201900000000000590000000099N0511201822007201900000000000060000000000000000000000000000000000000000000000000000000039333                    3001029090000000000 
1040001300095Q 012011619425000108ADILSON REIS SANTOS                     AV. PRESIDENTE VARGAS                   CENTRO         76300000CERES          GO0000000000000000                                                                       
1040001300096R 01000000000000000000000000000000000000000000000000220072019000000000000200                                                                                                                                                       
1040001300097P 0101298027300700000000000140000000000393341122039334          2008201900000000000590000000099N0511201822008201900000000000060000000000000000000000000000000000000000000000000000000039334                    3001029090000000000 
1040001300098Q 012011619425000108ADILSON REIS SANTOS                     AV. PRESIDENTE VARGAS                   CENTRO         76300000CERES          GO0000000000000000                                                                       
1040001300099R 01000000000000000000000000000000000000000000000000220082019000000000000200                                                                                                                                                       
1040001300100P 0101298027300700000000000140000000000393351122039335          2009201900000000000590000000099N0511201822009201900000000000060000000000000000000000000000000000000000000000000000000039335                    3001029090000000000 
1040001300101Q 012011619425000108ADILSON REIS SANTOS                     AV. PRESIDENTE VARGAS                   CENTRO         76300000CERES          GO0000000000000000                                                                       
1040001300102R 01000000000000000000000000000000000000000000000000220092019000000000000200                                                                                                                                                       
1040001300103P 0101298027300700000000000140000000000393361122039336          2010201900000000000590000000099N0511201822010201900000000000060000000000000000000000000000000000000000000000000000000039336                    3001029090000000000 
1040001300104Q 012011619425000108ADILSON REIS SANTOS                     AV. PRESIDENTE VARGAS                   CENTRO         76300000CERES          GO0000000000000000                                                                       
1040001300105R 01000000000000000000000000000000000000000000000000220102019000000000000200                                                                                                                                                       
1040001300106P 0101298027300700000000000140000000000393371122039337          2011201900000000000590000000099N0511201822011201900000000000060000000000000000000000000000000000000000000000000000000039337                    3001029090000000000 
1040001300107Q 012011619425000108ADILSON REIS SANTOS                     AV. PRESIDENTE VARGAS                   CENTRO         76300000CERES          GO0000000000000000                                                                       
1040001300108R 01000000000000000000000000000000000000000000000000220112019000000000000200                                                                                                                                                       
1040001300109P 0101298027300700000000000140000000000393381122039338          2012201900000000000590000000099N0511201822012201900000000000060000000000000000000000000000000000000000000000000000000039338                    3001029090000000000 
1040001300110Q 012011619425000108ADILSON REIS SANTOS                     AV. PRESIDENTE VARGAS                   CENTRO         76300000CERES          GO0000000000000000                                                                       
1040001300111R 01000000000000000000000000000000000000000000000000220122019000000000000200                                                                                                                                                       
1040001300112P 0101298027300700000000000140000000000393391122039339          2002201900000000004720000000099N0511201822002201900000000000060000000000000000000000000000000000000000000000000000000039339                    3001029090000000000 
1040001300113Q 012024689421000130SAMARA MARIA DA SILVA - ME              AV. PRESIDENTE VARGAS                   CENTRO         76300000CERES          GO0000000000000000                                                                       
1040001300114R 01000000000000000000000000000000000000000000000000220022019000000000000200                                                                                                                                                       
1040001300115P 0101298027300700000000000140000000000393401122039340          2003201900000000004720000000099N0511201822003201900000000000060000000000000000000000000000000000000000000000000000000039340                    3001029090000000000 
1040001300116Q 012024689421000130SAMARA MARIA DA SILVA - ME              AV. PRESIDENTE VARGAS                   CENTRO         76300000CERES          GO0000000000000000                                                                       
1040001300117R 01000000000000000000000000000000000000000000000000220032019000000000000200                                                                                                                                                       
1040001300118P 0101298027300700000000000140000000000393411122039341          2004201900000000004720000000099N0511201822004201900000000000060000000000000000000000000000000000000000000000000000000039341                    3001029090000000000 
1040001300119Q 012024689421000130SAMARA MARIA DA SILVA - ME              AV. PRESIDENTE VARGAS                   CENTRO         76300000CERES          GO0000000000000000                                                                       
1040001300120R 01000000000000000000000000000000000000000000000000220042019000000000000200                                                                                                                                                       
1040001300121P 0101298027300700000000000140000000000393421122039342          2005201900000000004720000000099N0511201822005201900000000000060000000000000000000000000000000000000000000000000000000039342                    3001029090000000000 
1040001300122Q 012024689421000130SAMARA MARIA DA SILVA - ME              AV. PRESIDENTE VARGAS                   CENTRO         76300000CERES          GO0000000000000000                                                                       
1040001300123R 01000000000000000000000000000000000000000000000000220052019000000000000200                                                                                                                                                       
1040001300124P 0101298027300700000000000140000000000393431122039343          2006201900000000004720000000099N0511201822006201900000000000060000000000000000000000000000000000000000000000000000000039343                    3001029090000000000 
1040001300125Q 012024689421000130SAMARA MARIA DA SILVA - ME              AV. PRESIDENTE VARGAS                   CENTRO         76300000CERES          GO0000000000000000                                                                       
1040001300126R 01000000000000000000000000000000000000000000000000220062019000000000000200                                                                                                                                                       
1040001300127P 0101298027300700000000000140000000000393441122039344          2007201900000000004720000000099N0511201822007201900000000000060000000000000000000000000000000000000000000000000000000039344                    3001029090000000000 
1040001300128Q 012024689421000130SAMARA MARIA DA SILVA - ME              AV. PRESIDENTE VARGAS                   CENTRO         76300000CERES          GO0000000000000000                                                                       
1040001300129R 01000000000000000000000000000000000000000000000000220072019000000000000200                                                                                                                                                       
1040001300130P 0101298027300700000000000140000000000393451122039345          2008201900000000004720000000099N0511201822008201900000000000060000000000000000000000000000000000000000000000000000000039345                    3001029090000000000 
1040001300131Q 012024689421000130SAMARA MARIA DA SILVA - ME              AV. PRESIDENTE VARGAS                   CENTRO         76300000CERES          GO0000000000000000                                                                       
1040001300132R 01000000000000000000000000000000000000000000000000220082019000000000000200                                                                                                                                                       
1040001300133P 0101298027300700000000000140000000000393461122039346          2009201900000000004720000000099N0511201822009201900000000000060000000000000000000000000000000000000000000000000000000039346                    3001029090000000000 
1040001300134Q 012024689421000130SAMARA MARIA DA SILVA - ME              AV. PRESIDENTE VARGAS                   CENTRO         76300000CERES          GO0000000000000000                                                                       
1040001300135R 01000000000000000000000000000000000000000000000000220092019000000000000200                                                                                                                                                       
1040001300136P 0101298027300700000000000140000000000393471122039347          2010201900000000004720000000099N0511201822010201900000000000060000000000000000000000000000000000000000000000000000000039347                    3001029090000000000 
1040001300137Q 012024689421000130SAMARA MARIA DA SILVA - ME              AV. PRESIDENTE VARGAS                   CENTRO         76300000CERES          GO0000000000000000                                                                       
1040001300138R 01000000000000000000000000000000000000000000000000220102019000000000000200                                                                                                                                                       
1040001300139P 0101298027300700000000000140000000000393481122039348          2011201900000000004720000000099N0511201822011201900000000000060000000000000000000000000000000000000000000000000000000039348                    3001029090000000000 
1040001300140Q 012024689421000130SAMARA MARIA DA SILVA - ME              AV. PRESIDENTE VARGAS                   CENTRO         76300000CERES          GO0000000000000000                                                                       
1040001300141R 01000000000000000000000000000000000000000000000000220112019000000000000200                                                                                                                                                       
1040001300142P 0101298027300700000000000140000000000393491122039349          2012201900000000004720000000099N0511201822012201900000000000060000000000000000000000000000000000000000000000000000000039349                    3001029090000000000 
1040001300143Q 012024689421000130SAMARA MARIA DA SILVA - ME              AV. PRESIDENTE VARGAS                   CENTRO         76300000CERES          GO0000000000000000                                                                       
1040001300144R 01000000000000000000000000000000000000000000000000220122019000000000000200                                                                                                                                                       
1040001300145P 0101298027300700000000000140000000000393501122039350          2001202000000000004720000000099N0511201822001202000000000000060000000000000000000000000000000000000000000000000000000039350                    3001029090000000000 
1040001300146Q 012024689421000130SAMARA MARIA DA SILVA - ME              AV. PRESIDENTE VARGAS                   CENTRO         76300000CERES          GO0000000000000000                                                                       
1040001300147R 01000000000000000000000000000000000000000000000000220012020000000000000200                                                                                                                                                       
1040001300148P 0101298027300700000000000140000000000393511122039351          2001201900000000001180000000099N0511201822001201900000000000060000000000000000000000000000000000000000000000000000000039351                    3001029090000000000 
1040001300149Q 012014867189000129ALCI ANTONIO FERREIRA TRANSPORTES ME    AV. PRESIDENTE VARGAS                   CENTRO         76300000CERES          GO0000000000000000                                                                       
1040001300150R 01000000000000000000000000000000000000000000000000220012019000000000000200                                                                                                                                                       
1040001300151P 0101298027300700000000000140000000000393521122039352          2002201900000000001180000000099N0511201822002201900000000000060000000000000000000000000000000000000000000000000000000039352                    3001029090000000000 
1040001300152Q 012014867189000129ALCI ANTONIO FERREIRA TRANSPORTES ME    AV. PRESIDENTE VARGAS                   CENTRO         76300000CERES          GO0000000000000000                                                                       
1040001300153R 01000000000000000000000000000000000000000000000000220022019000000000000200                                                                                                                                                       
1040001300154P 0101298027300700000000000140000000000393531122039353          2003201900000000001180000000099N0511201822003201900000000000060000000000000000000000000000000000000000000000000000000039353                    3001029090000000000 
1040001300155Q 012014867189000129ALCI ANTONIO FERREIRA TRANSPORTES ME    AV. PRESIDENTE VARGAS                   CENTRO         76300000CERES          GO0000000000000000                                                                       
1040001300156R 01000000000000000000000000000000000000000000000000220032019000000000000200                                                                                                                                                       
1040001300157P 0101298027300700000000000140000000000393541122039354          2004201900000000001180000000099N0511201822004201900000000000060000000000000000000000000000000000000000000000000000000039354                    3001029090000000000 
1040001300158Q 012014867189000129ALCI ANTONIO FERREIRA TRANSPORTES ME    AV. PRESIDENTE VARGAS                   CENTRO         76300000CERES          GO0000000000000000                                                                       
1040001300159R 01000000000000000000000000000000000000000000000000220042019000000000000200                                                                                                                                                       
1040001300160P 0101298027300700000000000140000000000393551122039355          2005201900000000001180000000099N0511201822005201900000000000060000000000000000000000000000000000000000000000000000000039355                    3001029090000000000 
1040001300161Q 012014867189000129ALCI ANTONIO FERREIRA TRANSPORTES ME    AV. PRESIDENTE VARGAS                   CENTRO         76300000CERES          GO0000000000000000                                                                       
1040001300162R 01000000000000000000000000000000000000000000000000220052019000000000000200                                                                                                                                                       
1040001300163P 0101298027300700000000000140000000000393561122039356          2006201900000000001180000000099N0511201822006201900000000000060000000000000000000000000000000000000000000000000000000039356                    3001029090000000000 
1040001300164Q 012014867189000129ALCI ANTONIO FERREIRA TRANSPORTES ME    AV. PRESIDENTE VARGAS                   CENTRO         76300000CERES          GO0000000000000000                                                                       
1040001300165R 01000000000000000000000000000000000000000000000000220062019000000000000200                                                                                                                                                       
1040001300166P 0101298027300700000000000140000000000393571122039357          2007201900000000001180000000099N0511201822007201900000000000060000000000000000000000000000000000000000000000000000000039357                    3001029090000000000 
1040001300167Q 012014867189000129ALCI ANTONIO FERREIRA TRANSPORTES ME    AV. PRESIDENTE VARGAS                   CENTRO         76300000CERES          GO0000000000000000                                                                       
1040001300168R 01000000000000000000000000000000000000000000000000220072019000000000000200                                                                                                                                                       
1040001300169P 0101298027300700000000000140000000000393581122039358          2008201900000000001180000000099N0511201822008201900000000000060000000000000000000000000000000000000000000000000000000039358                    3001029090000000000 
1040001300170Q 012014867189000129ALCI ANTONIO FERREIRA TRANSPORTES ME    AV. PRESIDENTE VARGAS                   CENTRO         76300000CERES          GO0000000000000000                                                                       
1040001300171R 01000000000000000000000000000000000000000000000000220082019000000000000200                                                                                                                                                       
1040001300172P 0101298027300700000000000140000000000393591122039359          2009201900000000001180000000099N0511201822009201900000000000060000000000000000000000000000000000000000000000000000000039359                    3001029090000000000 
1040001300173Q 012014867189000129ALCI ANTONIO FERREIRA TRANSPORTES ME    AV. PRESIDENTE VARGAS                   CENTRO         76300000CERES          GO0000000000000000                                                                       
1040001300174R 01000000000000000000000000000000000000000000000000220092019000000000000200                                                                                                                                                       
1040001300175P 0101298027300700000000000140000000000393601122039360          2010201900000000001180000000099N0511201822010201900000000000060000000000000000000000000000000000000000000000000000000039360                    3001029090000000000 
1040001300176Q 012014867189000129ALCI ANTONIO FERREIRA TRANSPORTES ME    AV. PRESIDENTE VARGAS                   CENTRO         76300000CERES          GO0000000000000000                                                                       
1040001300177R 01000000000000000000000000000000000000000000000000220102019000000000000200                                                                                                                                                       
1040001300178P 0101298027300700000000000140000000000393611122039361          2011201900000000001180000000099N0511201822011201900000000000060000000000000000000000000000000000000000000000000000000039361                    3001029090000000000 
1040001300179Q 012014867189000129ALCI ANTONIO FERREIRA TRANSPORTES ME    AV. PRESIDENTE VARGAS                   CENTRO         76300000CERES          GO0000000000000000                                                                       
1040001300180R 01000000000000000000000000000000000000000000000000220112019000000000000200                                                                                                                                                       
1040001300181P 0101298027300700000000000140000000000393621122039362          2012201900000000001180000000099N0511201822012201900000000000060000000000000000000000000000000000000000000000000000000039362                    3001029090000000000 
1040001300182Q 012014867189000129ALCI ANTONIO FERREIRA TRANSPORTES ME    AV. PRESIDENTE VARGAS                   CENTRO         76300000CERES          GO0000000000000000                                                                       
1040001300183R 01000000000000000000000000000000000000000000000000220122019000000000000200                                                                                                                                                       
1040001300184P 0101298027300700000000000140000000000393631122039363          2002201900000000000590000000099N0511201822002201900000000000060000000000000000000000000000000000000000000000000000000039363                    3001029090000000000 
1040001300185Q 012011942324000165AMIRTON MENDES DE OLIVEIRA ME           AV. PRESIDENTE VARGAS                   CENTRO         76300000CERES          GO0000000000000000                                                                       
1040001300186R 01000000000000000000000000000000000000000000000000220022019000000000000200                                                                                                                                                       
1040001300187P 0101298027300700000000000140000000000393641122039364          2003201900000000000590000000099N0511201822003201900000000000060000000000000000000000000000000000000000000000000000000039364                    3001029090000000000 
1040001300188Q 012011942324000165AMIRTON MENDES DE OLIVEIRA ME           AV. PRESIDENTE VARGAS                   CENTRO         76300000CERES          GO0000000000000000                                                                       
1040001300189R 01000000000000000000000000000000000000000000000000220032019000000000000200                                                                                                                                                       
1040001300190P 0101298027300700000000000140000000000393651122039365          2004201900000000000590000000099N0511201822004201900000000000060000000000000000000000000000000000000000000000000000000039365                    3001029090000000000 
1040001300191Q 012011942324000165AMIRTON MENDES DE OLIVEIRA ME           AV. PRESIDENTE VARGAS                   CENTRO         76300000CERES          GO0000000000000000                                                                       
1040001300192R 01000000000000000000000000000000000000000000000000220042019000000000000200                                                                                                                                                       
1040001300193P 0101298027300700000000000140000000000393661122039366          2005201900000000000590000000099N0511201822005201900000000000060000000000000000000000000000000000000000000000000000000039366                    3001029090000000000 
1040001300194Q 012011942324000165AMIRTON MENDES DE OLIVEIRA ME           AV. PRESIDENTE VARGAS                   CENTRO         76300000CERES          GO0000000000000000                                                                       
1040001300195R 01000000000000000000000000000000000000000000000000220052019000000000000200                                                                                                                                                       
1040001300196P 0101298027300700000000000140000000000393671122039367          2006201900000000000590000000099N0511201822006201900000000000060000000000000000000000000000000000000000000000000000000039367                    3001029090000000000 
1040001300197Q 012011942324000165AMIRTON MENDES DE OLIVEIRA ME           AV. PRESIDENTE VARGAS                   CENTRO         76300000CERES          GO0000000000000000                                                                       
1040001300198R 01000000000000000000000000000000000000000000000000220062019000000000000200                                                                                                                                                       
1040001300199P 0101298027300700000000000140000000000393681122039368          2007201900000000000590000000099N0511201822007201900000000000060000000000000000000000000000000000000000000000000000000039368                    3001029090000000000 
1040001300200Q 012011942324000165AMIRTON MENDES DE OLIVEIRA ME           AV. PRESIDENTE VARGAS                   CENTRO         76300000CERES          GO0000000000000000                                                                       
1040001300201R 01000000000000000000000000000000000000000000000000220072019000000000000200                                                                                                                                                       
1040001300202P 0101298027300700000000000140000000000393691122039369          2008201900000000000590000000099N0511201822008201900000000000060000000000000000000000000000000000000000000000000000000039369                    3001029090000000000 
1040001300203Q 012011942324000165AMIRTON MENDES DE OLIVEIRA ME           AV. PRESIDENTE VARGAS                   CENTRO         76300000CERES          GO0000000000000000                                                                       
1040001300204R 01000000000000000000000000000000000000000000000000220082019000000000000200                                                                                                                                                       
1040001300205P 0101298027300700000000000140000000000393701122039370          2009201900000000000590000000099N0511201822009201900000000000060000000000000000000000000000000000000000000000000000000039370                    3001029090000000000 
1040001300206Q 012011942324000165AMIRTON MENDES DE OLIVEIRA ME           AV. PRESIDENTE VARGAS                   CENTRO         76300000CERES          GO0000000000000000                                                                       
1040001300207R 01000000000000000000000000000000000000000000000000220092019000000000000200                                                                                                                                                       
1040001300208P 0101298027300700000000000140000000000393711122039371          2010201900000000000590000000099N0511201822010201900000000000060000000000000000000000000000000000000000000000000000000039371                    3001029090000000000 
1040001300209Q 012011942324000165AMIRTON MENDES DE OLIVEIRA ME           AV. PRESIDENTE VARGAS                   CENTRO         76300000CERES          GO0000000000000000                                                                       
1040001300210R 01000000000000000000000000000000000000000000000000220102019000000000000200                                                                                                                                                       
1040001300211P 0101298027300700000000000140000000000393721122039372          2011201900000000000590000000099N0511201822011201900000000000060000000000000000000000000000000000000000000000000000000039372                    3001029090000000000 
1040001300212Q 012011942324000165AMIRTON MENDES DE OLIVEIRA ME           AV. PRESIDENTE VARGAS                   CENTRO         76300000CERES          GO0000000000000000                                                                       
1040001300213R 01000000000000000000000000000000000000000000000000220112019000000000000200                                                                                                                                                       
1040001300214P 0101298027300700000000000140000000000393731122039373          2012201900000000000590000000099N0511201822012201900000000000060000000000000000000000000000000000000000000000000000000039373                    3001029090000000000 
1040001300215Q 012011942324000165AMIRTON MENDES DE OLIVEIRA ME           AV. PRESIDENTE VARGAS                   CENTRO         76300000CERES          GO0000000000000000                                                                       
1040001300216R 01000000000000000000000000000000000000000000000000220122019000000000000200                                                                                                                                                       
1040001300217P 0101298027300700000000000140000000000393741122039374          2001202000000000000590000000099N0511201822001202000000000000060000000000000000000000000000000000000000000000000000000039374                    3001029090000000000 
1040001300218Q 012011942324000165AMIRTON MENDES DE OLIVEIRA ME           AV. PRESIDENTE VARGAS                   CENTRO         76300000CERES          GO0000000000000000                                                                       
1040001300219R 01000000000000000000000000000000000000000000000000220012020000000000000200                                                                                                                                                       
1040001300220P 0101298027300700000000000140000000000393751122039375          2001201900000000000390000000099N0511201822001201900000000000060000000000000000000000000000000000000000000000000000000039375                    3001029090000000000 
1040001300221Q 012017667918000191ANTONIO FERNANDES DA SILVA ME           AV. PRESIDENTE VARGAS                   CENTRO         76300000CERES          GO0000000000000000                                                                       
1040001300222R 01000000000000000000000000000000000000000000000000220012019000000000000200                                                                                                                                                       
1040001300223P 0101298027300700000000000140000000000393761122039376          2002201900000000000390000000099N0511201822002201900000000000060000000000000000000000000000000000000000000000000000000039376                    3001029090000000000 
1040001300224Q 012017667918000191ANTONIO FERNANDES DA SILVA ME           AV. PRESIDENTE VARGAS                   CENTRO         76300000CERES          GO0000000000000000                                                                       
1040001300225R 01000000000000000000000000000000000000000000000000220022019000000000000200                                                                                                                                                       
1040001300226P 0101298027300700000000000140000000000393771122039377          2003201900000000000390000000099N0511201822003201900000000000060000000000000000000000000000000000000000000000000000000039377                    3001029090000000000 
1040001300227Q 012017667918000191ANTONIO FERNANDES DA SILVA ME           AV. PRESIDENTE VARGAS                   CENTRO         76300000CERES          GO0000000000000000                                                                       
1040001300228R 01000000000000000000000000000000000000000000000000220032019000000000000200                                                                                                                                                       
1040001300229P 0101298027300700000000000140000000000393781122039378          2004201900000000000590000000099N0511201822004201900000000000060000000000000000000000000000000000000000000000000000000039378                    3001029090000000000 
1040001300230Q 012017667918000191ANTONIO FERNANDES DA SILVA ME           AV. PRESIDENTE VARGAS                   CENTRO         76300000CERES          GO0000000000000000                                                                       
1040001300231R 01000000000000000000000000000000000000000000000000220042019000000000000200                                                                                                                                                       
1040001300232P 0101298027300700000000000140000000000393791122039379          2005201900000000000590000000099N0511201822005201900000000000060000000000000000000000000000000000000000000000000000000039379                    3001029090000000000 
1040001300233Q 012017667918000191ANTONIO FERNANDES DA SILVA ME           AV. PRESIDENTE VARGAS                   CENTRO         76300000CERES          GO0000000000000000                                                                       
1040001300234R 01000000000000000000000000000000000000000000000000220052019000000000000200                                                                                                                                                       
1040001300235P 0101298027300700000000000140000000000393801122039380          2006201900000000000590000000099N0511201822006201900000000000060000000000000000000000000000000000000000000000000000000039380                    3001029090000000000 
1040001300236Q 012017667918000191ANTONIO FERNANDES DA SILVA ME           AV. PRESIDENTE VARGAS                   CENTRO         76300000CERES          GO0000000000000000                                                                       
1040001300237R 01000000000000000000000000000000000000000000000000220062019000000000000200                                                                                                                                                       
1040001300238P 0101298027300700000000000140000000000393811122039381          2007201900000000000590000000099N0511201822007201900000000000060000000000000000000000000000000000000000000000000000000039381                    3001029090000000000 
1040001300239Q 012017667918000191ANTONIO FERNANDES DA SILVA ME           AV. PRESIDENTE VARGAS                   CENTRO         76300000CERES          GO0000000000000000                                                                       
1040001300240R 01000000000000000000000000000000000000000000000000220072019000000000000200                                                                                                                                                       
1040001300241P 0101298027300700000000000140000000000393821122039382          2008201900000000000590000000099N0511201822008201900000000000060000000000000000000000000000000000000000000000000000000039382                    3001029090000000000 
1040001300242Q 012017667918000191ANTONIO FERNANDES DA SILVA ME           AV. PRESIDENTE VARGAS                   CENTRO         76300000CERES          GO0000000000000000                                                                       
1040001300243R 01000000000000000000000000000000000000000000000000220082019000000000000200                                                                                                                                                       
1040001300244P 0101298027300700000000000140000000000393831122039383          2009201900000000000590000000099N0511201822009201900000000000060000000000000000000000000000000000000000000000000000000039383                    3001029090000000000 
1040001300245Q 012017667918000191ANTONIO FERNANDES DA SILVA ME           AV. PRESIDENTE VARGAS                   CENTRO         76300000CERES          GO0000000000000000                                                                       
1040001300246R 01000000000000000000000000000000000000000000000000220092019000000000000200                                                                                                                                                       
1040001300247P 0101298027300700000000000140000000000393841122039384          2010201900000000000590000000099N0511201822010201900000000000060000000000000000000000000000000000000000000000000000000039384                    3001029090000000000 
1040001300248Q 012017667918000191ANTONIO FERNANDES DA SILVA ME           AV. PRESIDENTE VARGAS                   CENTRO         76300000CERES          GO0000000000000000                                                                       
1040001300249R 01000000000000000000000000000000000000000000000000220102019000000000000200                                                                                                                                                       
1040001300250P 0101298027300700000000000140000000000393851122039385          2011201900000000000590000000099N0511201822011201900000000000060000000000000000000000000000000000000000000000000000000039385                    3001029090000000000 
1040001300251Q 012017667918000191ANTONIO FERNANDES DA SILVA ME           AV. PRESIDENTE VARGAS                   CENTRO         76300000CERES          GO0000000000000000                                                                       
1040001300252R 01000000000000000000000000000000000000000000000000220112019000000000000200                                                                                                                                                       
1040001300253P 0101298027300700000000000140000000000393861122039386          2012201800000000000590000000099N0511201822012201800000000000060000000000000000000000000000000000000000000000000000000039386                    3001029090000000000 
1040001300254Q 012017667918000191ANTONIO FERNANDES DA SILVA ME           AV. PRESIDENTE VARGAS                   CENTRO         76300000CERES          GO0000000000000000                                                                       
1040001300255R 01000000000000000000000000000000000000000000000000220122018000000000000200                                                                                                                                                       
1040001300256P 0101298027300700000000000140000000000393871122039387          2001201900000000000590000000099N0511201822001201900000000000060000000000000000000000000000000000000000000000000000000039387                    3001029090000000000 
1040001300257Q 012010678772000130CAMARAO TRANPORTES LTDA-ME              AV. PRESIDENTE VARGAS                   CENTRO         76300000CERES          GO0000000000000000                                                                       
1040001300258R 01000000000000000000000000000000000000000000000000220012019000000000000200                                                                                                                                                       
1040001300259P 0101298027300700000000000140000000000393881122039388          2002201900000000000590000000099N0511201822002201900000000000060000000000000000000000000000000000000000000000000000000039388                    3001029090000000000 
1040001300260Q 012010678772000130CAMARAO TRANPORTES LTDA-ME              AV. PRESIDENTE VARGAS                   CENTRO         76300000CERES          GO0000000000000000                                                                       
1040001300261R 01000000000000000000000000000000000000000000000000220022019000000000000200                                                                                                                                                       
1040001300262P 0101298027300700000000000140000000000393891122039389          2003201900000000000590000000099N0511201822003201900000000000060000000000000000000000000000000000000000000000000000000039389                    3001029090000000000 
1040001300263Q 012010678772000130CAMARAO TRANPORTES LTDA-ME              AV. PRESIDENTE VARGAS                   CENTRO         76300000CERES          GO0000000000000000                                                                       
1040001300264R 01000000000000000000000000000000000000000000000000220032019000000000000200                                                                                                                                                       
1040001300265P 0101298027300700000000000140000000000393901122039390          2004201900000000000590000000099N0511201822004201900000000000060000000000000000000000000000000000000000000000000000000039390                    3001029090000000000 
1040001300266Q 012010678772000130CAMARAO TRANPORTES LTDA-ME              AV. PRESIDENTE VARGAS                   CENTRO         76300000CERES          GO0000000000000000                                                                       
1040001300267R 01000000000000000000000000000000000000000000000000220042019000000000000200                                                                                                                                                       
1040001300268P 0101298027300700000000000140000000000393911122039391          2005201900000000000590000000099N0511201822005201900000000000060000000000000000000000000000000000000000000000000000000039391                    3001029090000000000 
1040001300269Q 012010678772000130CAMARAO TRANPORTES LTDA-ME              AV. PRESIDENTE VARGAS                   CENTRO         76300000CERES          GO0000000000000000                                                                       
1040001300270R 01000000000000000000000000000000000000000000000000220052019000000000000200                                                                                                                                                       
1040001300271P 0101298027300700000000000140000000000393921122039392          2006201900000000000590000000099N0511201822006201900000000000060000000000000000000000000000000000000000000000000000000039392                    3001029090000000000 
1040001300272Q 012010678772000130CAMARAO TRANPORTES LTDA-ME              AV. PRESIDENTE VARGAS                   CENTRO         76300000CERES          GO0000000000000000                                                                       
1040001300273R 01000000000000000000000000000000000000000000000000220062019000000000000200                                                                                                                                                       
1040001300274P 0101298027300700000000000140000000000393931122039393          2007201900000000000590000000099N0511201822007201900000000000060000000000000000000000000000000000000000000000000000000039393                    3001029090000000000 
1040001300275Q 012010678772000130CAMARAO TRANPORTES LTDA-ME              AV. PRESIDENTE VARGAS                   CENTRO         76300000CERES          GO0000000000000000                                                                       
1040001300276R 01000000000000000000000000000000000000000000000000220072019000000000000200                                                                                                                                                       
1040001300277P 0101298027300700000000000140000000000393941122039394          2008201900000000000590000000099N0511201822008201900000000000060000000000000000000000000000000000000000000000000000000039394                    3001029090000000000 
1040001300278Q 012010678772000130CAMARAO TRANPORTES LTDA-ME              AV. PRESIDENTE VARGAS                   CENTRO         76300000CERES          GO0000000000000000                                                                       
1040001300279R 01000000000000000000000000000000000000000000000000220082019000000000000200                                                                                                                                                       
1040001300280P 0101298027300700000000000140000000000393951122039395          2009201900000000000590000000099N0511201822009201900000000000060000000000000000000000000000000000000000000000000000000039395                    3001029090000000000 
1040001300281Q 012010678772000130CAMARAO TRANPORTES LTDA-ME              AV. PRESIDENTE VARGAS                   CENTRO         76300000CERES          GO0000000000000000                                                                       
1040001300282R 01000000000000000000000000000000000000000000000000220092019000000000000200                                                                                                                                                       
1040001300283P 0101298027300700000000000140000000000393961122039396          2010201900000000000590000000099N0511201822010201900000000000060000000000000000000000000000000000000000000000000000000039396                    3001029090000000000 
1040001300284Q 012010678772000130CAMARAO TRANPORTES LTDA-ME              AV. PRESIDENTE VARGAS                   CENTRO         76300000CERES          GO0000000000000000                                                                       
1040001300285R 01000000000000000000000000000000000000000000000000220102019000000000000200                                                                                                                                                       
1040001300286P 0101298027300700000000000140000000000393971122039397          2011201900000000000590000000099N0511201822011201900000000000060000000000000000000000000000000000000000000000000000000039397                    3001029090000000000 
1040001300287Q 012010678772000130CAMARAO TRANPORTES LTDA-ME              AV. PRESIDENTE VARGAS                   CENTRO         76300000CERES          GO0000000000000000                                                                       
1040001300288R 01000000000000000000000000000000000000000000000000220112019000000000000200                                                                                                                                                       
1040001300289P 0101298027300700000000000140000000000393981122039398          2012201900000000000590000000099N0511201822012201900000000000060000000000000000000000000000000000000000000000000000000039398                    3001029090000000000 
1040001300290Q 012010678772000130CAMARAO TRANPORTES LTDA-ME              AV. PRESIDENTE VARGAS                   CENTRO         76300000CERES          GO0000000000000000                                                                       
1040001300291R 01000000000000000000000000000000000000000000000000220122019000000000000200                                                                                                                                                       
1040001300292P 0101298027300700000000000140000000000393991122039399          2001201900000000000590000000099N0511201822001201900000000000060000000000000000000000000000000000000000000000000000000039399                    3001029090000000000 
1040001300293Q 012008889532000133CARLOS ANTONIO GOMES TRANSPORTES ME     AV. PRESIDENTE VARGAS                   CENTRO         76300000CERES          GO0000000000000000                                                                       
1040001300294R 01000000000000000000000000000000000000000000000000220012019000000000000200                                                                                                                                                       
1040001300295P 0101298027300700000000000140000000000394001122039400          2002201900000000000590000000099N0511201822002201900000000000060000000000000000000000000000000000000000000000000000000039400                    3001029090000000000 
1040001300296Q 012008889532000133CARLOS ANTONIO GOMES TRANSPORTES ME     AV. PRESIDENTE VARGAS                   CENTRO         76300000CERES          GO0000000000000000                                                                       
1040001300297R 01000000000000000000000000000000000000000000000000220022019000000000000200                                                                                                                                                       
1040001300298P 0101298027300700000000000140000000000394011122039401          2003201900000000000590000000099N0511201822003201900000000000060000000000000000000000000000000000000000000000000000000039401                    3001029090000000000 
1040001300299Q 012008889532000133CARLOS ANTONIO GOMES TRANSPORTES ME     AV. PRESIDENTE VARGAS                   CENTRO         76300000CERES          GO0000000000000000                                                                       
1040001300300R 01000000000000000000000000000000000000000000000000220032019000000000000200                                                                                                                                                       
1040001300301P 0101298027300700000000000140000000000394021122039402          2004201900000000000590000000099N0511201822004201900000000000060000000000000000000000000000000000000000000000000000000039402                    3001029090000000000 
1040001300302Q 012008889532000133CARLOS ANTONIO GOMES TRANSPORTES ME     AV. PRESIDENTE VARGAS                   CENTRO         76300000CERES          GO0000000000000000                                                                       
1040001300303R 01000000000000000000000000000000000000000000000000220042019000000000000200                                                                                                                                                       
1040001300304P 0101298027300700000000000140000000000394031122039403          2005201900000000000590000000099N0511201822005201900000000000060000000000000000000000000000000000000000000000000000000039403                    3001029090000000000 
1040001300305Q 012008889532000133CARLOS ANTONIO GOMES TRANSPORTES ME     AV. PRESIDENTE VARGAS                   CENTRO         76300000CERES          GO0000000000000000                                                                       
1040001300306R 01000000000000000000000000000000000000000000000000220052019000000000000200                                                                                                                                                       
1040001300307P 0101298027300700000000000140000000000394041122039404          2006201900000000000590000000099N0511201822006201900000000000060000000000000000000000000000000000000000000000000000000039404                    3001029090000000000 
1040001300308Q 012008889532000133CARLOS ANTONIO GOMES TRANSPORTES ME     AV. PRESIDENTE VARGAS                   CENTRO         76300000CERES          GO0000000000000000                                                                       
1040001300309R 01000000000000000000000000000000000000000000000000220062019000000000000200                                                                                                                                                       
1040001300310P 0101298027300700000000000140000000000394051122039405          2007201900000000000590000000099N0511201822007201900000000000060000000000000000000000000000000000000000000000000000000039405                    3001029090000000000 
1040001300311Q 012008889532000133CARLOS ANTONIO GOMES TRANSPORTES ME     AV. PRESIDENTE VARGAS                   CENTRO         76300000CERES          GO0000000000000000                                                                       
1040001300312R 01000000000000000000000000000000000000000000000000220072019000000000000200                                                                                                                                                       
1040001300313P 0101298027300700000000000140000000000394061122039406          2008201900000000000590000000099N0511201822008201900000000000060000000000000000000000000000000000000000000000000000000039406                    3001029090000000000 
1040001300314Q 012008889532000133CARLOS ANTONIO GOMES TRANSPORTES ME     AV. PRESIDENTE VARGAS                   CENTRO         76300000CERES          GO0000000000000000                                                                       
1040001300315R 01000000000000000000000000000000000000000000000000220082019000000000000200                                                                                                                                                       
1040001300316P 0101298027300700000000000140000000000394071122039407          2009201900000000000590000000099N0511201822009201900000000000060000000000000000000000000000000000000000000000000000000039407                    3001029090000000000 
1040001300317Q 012008889532000133CARLOS ANTONIO GOMES TRANSPORTES ME     AV. PRESIDENTE VARGAS                   CENTRO         76300000CERES          GO0000000000000000                                                                       
1040001300318R 01000000000000000000000000000000000000000000000000220092019000000000000200                                                                                                                                                       
1040001300319P 0101298027300700000000000140000000000394081122039408          2010201900000000000590000000099N0511201822010201900000000000060000000000000000000000000000000000000000000000000000000039408                    3001029090000000000 
1040001300320Q 012008889532000133CARLOS ANTONIO GOMES TRANSPORTES ME     AV. PRESIDENTE VARGAS                   CENTRO         76300000CERES          GO0000000000000000                                                                       
1040001300321R 01000000000000000000000000000000000000000000000000220102019000000000000200                                                                                                                                                       
1040001300322P 0101298027300700000000000140000000000394091122039409          2011201900000000000590000000099N0511201822011201900000000000060000000000000000000000000000000000000000000000000000000039409                    3001029090000000000 
1040001300323Q 012008889532000133CARLOS ANTONIO GOMES TRANSPORTES ME     AV. PRESIDENTE VARGAS                   CENTRO         76300000CERES          GO0000000000000000                                                                       
1040001300324R 01000000000000000000000000000000000000000000000000220112019000000000000200                                                                                                                                                       
1040001300325P 0101298027300700000000000140000000000394101122039410          2012201900000000000590000000099N0511201822012201900000000000060000000000000000000000000000000000000000000000000000000039410                    3001029090000000000 
1040001300326Q 012008889532000133CARLOS ANTONIO GOMES TRANSPORTES ME     AV. PRESIDENTE VARGAS                   CENTRO         76300000CERES          GO0000000000000000                                                                       
1040001300327R 01000000000000000000000000000000000000000000000000220122019000000000000200                                                                                                                                                       
1040001300328P 0101298027300700000000000140000000000394111122039411          2001201900000000000390000000099N0511201822001201900000000000060000000000000000000000000000000000000000000000000000000039411                    3001029090000000000 
1040001300329Q 012010877423000148DIONILTON NUNES DA SILVA ME             AV. PRESIDENTE VARGAS                   CENTRO         76300000CERES          GO0000000000000000                                                                       
1040001300330R 01000000000000000000000000000000000000000000000000220012019000000000000200                                                                                                                                                       
1040001300331P 0101298027300700000000000140000000000394121122039412          2002201900000000000390000000099N0511201822002201900000000000060000000000000000000000000000000000000000000000000000000039412                    3001029090000000000 
1040001300332Q 012010877423000148DIONILTON NUNES DA SILVA ME             AV. PRESIDENTE VARGAS                   CENTRO         76300000CERES          GO0000000000000000                                                                       
1040001300333R 01000000000000000000000000000000000000000000000000220022019000000000000200                                                                                                                                                       
1040001300334P 0101298027300700000000000140000000000394131122039413          2003201900000000000390000000099N0511201822003201900000000000060000000000000000000000000000000000000000000000000000000039413                    3001029090000000000 
1040001300335Q 012010877423000148DIONILTON NUNES DA SILVA ME             AV. PRESIDENTE VARGAS                   CENTRO         76300000CERES          GO0000000000000000                                                                       
1040001300336R 01000000000000000000000000000000000000000000000000220032019000000000000200                                                                                                                                                       
1040001300337P 0101298027300700000000000140000000000394141122039414          2004201900000000000590000000099N0511201822004201900000000000060000000000000000000000000000000000000000000000000000000039414                    3001029090000000000 
1040001300338Q 012010877423000148DIONILTON NUNES DA SILVA ME             AV. PRESIDENTE VARGAS                   CENTRO         76300000CERES          GO0000000000000000                                                                       
1040001300339R 01000000000000000000000000000000000000000000000000220042019000000000000200                                                                                                                                                       
1040001300340P 0101298027300700000000000140000000000394151122039415          2005201900000000000590000000099N0511201822005201900000000000060000000000000000000000000000000000000000000000000000000039415                    3001029090000000000 
1040001300341Q 012010877423000148DIONILTON NUNES DA SILVA ME             AV. PRESIDENTE VARGAS                   CENTRO         76300000CERES          GO0000000000000000                                                                       
1040001300342R 01000000000000000000000000000000000000000000000000220052019000000000000200                                                                                                                                                       
1040001300343P 0101298027300700000000000140000000000394161122039416          2006201900000000000590000000099N0511201822006201900000000000060000000000000000000000000000000000000000000000000000000039416                    3001029090000000000 
1040001300344Q 012010877423000148DIONILTON NUNES DA SILVA ME             AV. PRESIDENTE VARGAS                   CENTRO         76300000CERES          GO0000000000000000                                                                       
1040001300345R 01000000000000000000000000000000000000000000000000220062019000000000000200                                                                                                                                                       
1040001300346P 0101298027300700000000000140000000000394171122039417          2007201900000000000590000000099N0511201822007201900000000000060000000000000000000000000000000000000000000000000000000039417                    3001029090000000000 
1040001300347Q 012010877423000148DIONILTON NUNES DA SILVA ME             AV. PRESIDENTE VARGAS                   CENTRO         76300000CERES          GO0000000000000000                                                                       
1040001300348R 01000000000000000000000000000000000000000000000000220072019000000000000200                                                                                                                                                       
1040001300349P 0101298027300700000000000140000000000394181122039418          2008201900000000000590000000099N0511201822008201900000000000060000000000000000000000000000000000000000000000000000000039418                    3001029090000000000 
1040001300350Q 012010877423000148DIONILTON NUNES DA SILVA ME             AV. PRESIDENTE VARGAS                   CENTRO         76300000CERES          GO0000000000000000                                                                       
1040001300351R 01000000000000000000000000000000000000000000000000220082019000000000000200                                                                                                                                                       
1040001300352P 0101298027300700000000000140000000000394191122039419          2009201900000000000590000000099N0511201822009201900000000000060000000000000000000000000000000000000000000000000000000039419                    3001029090000000000 
1040001300353Q 012010877423000148DIONILTON NUNES DA SILVA ME             AV. PRESIDENTE VARGAS                   CENTRO         76300000CERES          GO0000000000000000                                                                       
1040001300354R 01000000000000000000000000000000000000000000000000220092019000000000000200                                                                                                                                                       
1040001300355P 0101298027300700000000000140000000000394201122039420          2010201900000000000590000000099N0511201822010201900000000000060000000000000000000000000000000000000000000000000000000039420                    3001029090000000000 
1040001300356Q 012010877423000148DIONILTON NUNES DA SILVA ME             AV. PRESIDENTE VARGAS                   CENTRO         76300000CERES          GO0000000000000000                                                                       
1040001300357R 01000000000000000000000000000000000000000000000000220102019000000000000200                                                                                                                                                       
1040001300358P 0101298027300700000000000140000000000394221122039422          0501201900000000001500000000099N0511201820501201900000000000060000000000000000000000000000000000000000000000000000000039422                    3001029090000000000 
1040001300359Q 012026911818000150JOSE LEOTERIO MENDES (EDIFICIO SAO JOSE)AV. PRESIDENTE VARGAS                   CENTRO         76300000CERES          GO0000000000000000                                                                       
1040001300360R 01000000000000000000000000000000000000000000000000205012019000000000000200                                                                                                                                                       
1040001300361P 0101298027300700000000000140000000000394231122039423          0502201900000000001500000000099N0511201820502201900000000000060000000000000000000000000000000000000000000000000000000039423                    3001029090000000000 
1040001300362Q 012026911818000150JOSE LEOTERIO MENDES (EDIFICIO SAO JOSE)AV. PRESIDENTE VARGAS                   CENTRO         76300000CERES          GO0000000000000000                                                                       
1040001300363R 01000000000000000000000000000000000000000000000000205022019000000000000200                                                                                                                                                       
1040001300364P 0101298027300700000000000140000000000394241122039424          0503201900000000001500000000099N0511201820503201900000000000060000000000000000000000000000000000000000000000000000000039424                    3001029090000000000 
1040001300365Q 012026911818000150JOSE LEOTERIO MENDES (EDIFICIO SAO JOSE)AV. PRESIDENTE VARGAS                   CENTRO         76300000CERES          GO0000000000000000                                                                       
1040001300366R 01000000000000000000000000000000000000000000000000205032019000000000000200                                                                                                                                                       
1040001300367P 0101298027300700000000000140000000000394251122039425          0504201900000000001500000000099N0511201820504201900000000000060000000000000000000000000000000000000000000000000000000039425                    3001029090000000000 
1040001300368Q 012026911818000150JOSE LEOTERIO MENDES (EDIFICIO SAO JOSE)AV. PRESIDENTE VARGAS                   CENTRO         76300000CERES          GO0000000000000000                                                                       
1040001300369R 01000000000000000000000000000000000000000000000000205042019000000000000200                                                                                                                                                       
1040001300370P 0101298027300700000000000140000000000394261122039426          0505201900000000001500000000099N0511201820505201900000000000060000000000000000000000000000000000000000000000000000000039426                    3001029090000000000 
1040001300371Q 012026911818000150JOSE LEOTERIO MENDES (EDIFICIO SAO JOSE)AV. PRESIDENTE VARGAS                   CENTRO         76300000CERES          GO0000000000000000                                                                       
1040001300372R 01000000000000000000000000000000000000000000000000205052019000000000000200                                                                                                                                                       
1040001300373P 0101298027300700000000000140000000000394271122039427          0506201900000000001500000000099N0511201820506201900000000000060000000000000000000000000000000000000000000000000000000039427                    3001029090000000000 
1040001300374Q 012026911818000150JOSE LEOTERIO MENDES (EDIFICIO SAO JOSE)AV. PRESIDENTE VARGAS                   CENTRO         76300000CERES          GO0000000000000000                                                                       
1040001300375R 01000000000000000000000000000000000000000000000000205062019000000000000200                                                                                                                                                       
1040001300376P 0101298027300700000000000140000000000394281122039428          0507201900000000001500000000099N0511201820507201900000000000060000000000000000000000000000000000000000000000000000000039428                    3001029090000000000 
1040001300377Q 012026911818000150JOSE LEOTERIO MENDES (EDIFICIO SAO JOSE)AV. PRESIDENTE VARGAS                   CENTRO         76300000CERES          GO0000000000000000                                                                       
1040001300378R 01000000000000000000000000000000000000000000000000205072019000000000000200                                                                                                                                                       
1040001300379P 0101298027300700000000000140000000000394291122039429          0508201900000000001500000000099N0511201820508201900000000000060000000000000000000000000000000000000000000000000000000039429                    3001029090000000000 
1040001300380Q 012026911818000150JOSE LEOTERIO MENDES (EDIFICIO SAO JOSE)AV. PRESIDENTE VARGAS                   CENTRO         76300000CERES          GO0000000000000000                                                                       
1040001300381R 01000000000000000000000000000000000000000000000000205082019000000000000200                                                                                                                                                       
1040001300382P 0101298027300700000000000140000000000394301122039430          0509201900000000001500000000099N0511201820509201900000000000060000000000000000000000000000000000000000000000000000000039430                    3001029090000000000 
1040001300383Q 012026911818000150JOSE LEOTERIO MENDES (EDIFICIO SAO JOSE)AV. PRESIDENTE VARGAS                   CENTRO         76300000CERES          GO0000000000000000                                                                       
1040001300384R 01000000000000000000000000000000000000000000000000205092019000000000000200                                                                                                                                                       
1040001300385P 0101298027300700000000000140000000000394311122039431          0510201900000000001500000000099N0511201820510201900000000000060000000000000000000000000000000000000000000000000000000039431                    3001029090000000000 
1040001300386Q 012026911818000150JOSE LEOTERIO MENDES (EDIFICIO SAO JOSE)AV. PRESIDENTE VARGAS                   CENTRO         76300000CERES          GO0000000000000000                                                                       
1040001300387R 01000000000000000000000000000000000000000000000000205102019000000000000200                                                                                                                                                       
1040001300388P 0101298027300700000000000140000000000394321122039432          0511201900000000001500000000099N0511201820511201900000000000060000000000000000000000000000000000000000000000000000000039432                    3001029090000000000 
1040001300389Q 012026911818000150JOSE LEOTERIO MENDES (EDIFICIO SAO JOSE)AV. PRESIDENTE VARGAS                   CENTRO         76300000CERES          GO0000000000000000                                                                       
1040001300390R 01000000000000000000000000000000000000000000000000205112019000000000000200                                                                                                                                                       
1040001300391P 0101298027300700000000000140000000000394331122039433          2001201900000000001180000000099N0511201822001201900000000000060000000000000000000000000000000000000000000000000000000039433                    3001029090000000000 
1040001300392Q 012010579918000190DIVINO VALTERLI PACHECO ME              AV. PRESIDENTE VARGAS                   CENTRO         76300000CERES          GO0000000000000000                                                                       
1040001300393R 01000000000000000000000000000000000000000000000000220012019000000000000200                                                                                                                                                       
1040001300394P 0101298027300700000000000140000000000394341122039434          2002201900000000001180000000099N0511201822002201900000000000060000000000000000000000000000000000000000000000000000000039434                    3001029090000000000 
1040001300395Q 012010579918000190DIVINO VALTERLI PACHECO ME              AV. PRESIDENTE VARGAS                   CENTRO         76300000CERES          GO0000000000000000                                                                       
1040001300396R 01000000000000000000000000000000000000000000000000220022019000000000000200                                                                                                                                                       
1040001300397P 0101298027300700000000000140000000000394351122039435          2003201900000000001180000000099N0511201822003201900000000000060000000000000000000000000000000000000000000000000000000039435                    3001029090000000000 
1040001300398Q 012010579918000190DIVINO VALTERLI PACHECO ME              AV. PRESIDENTE VARGAS                   CENTRO         76300000CERES          GO0000000000000000                                                                       
1040001300399R 01000000000000000000000000000000000000000000000000220032019000000000000200                                                                                                                                                       
1040001300400P 0101298027300700000000000140000000000394361122039436          2004201900000000001180000000099N0511201822004201900000000000060000000000000000000000000000000000000000000000000000000039436                    3001029090000000000 
1040001300401Q 012010579918000190DIVINO VALTERLI PACHECO ME              AV. PRESIDENTE VARGAS                   CENTRO         76300000CERES          GO0000000000000000                                                                       
1040001300402R 01000000000000000000000000000000000000000000000000220042019000000000000200                                                                                                                                                       
1040001300403P 0101298027300700000000000140000000000394371122039437          2005201900000000001180000000099N0511201822005201900000000000060000000000000000000000000000000000000000000000000000000039437                    3001029090000000000 
1040001300404Q 012010579918000190DIVINO VALTERLI PACHECO ME              AV. PRESIDENTE VARGAS                   CENTRO         76300000CERES          GO0000000000000000                                                                       
1040001300405R 01000000000000000000000000000000000000000000000000220052019000000000000200                                                                                                                                                       
1040001300406P 0101298027300700000000000140000000000394381122039438          2006201900000000001180000000099N0511201822006201900000000000060000000000000000000000000000000000000000000000000000000039438                    3001029090000000000 
1040001300407Q 012010579918000190DIVINO VALTERLI PACHECO ME              AV. PRESIDENTE VARGAS                   CENTRO         76300000CERES          GO0000000000000000                                                                       
1040001300408R 01000000000000000000000000000000000000000000000000220062019000000000000200                                                                                                                                                       
1040001300409P 0101298027300700000000000140000000000394391122039439          2007201900000000001180000000099N0511201822007201900000000000060000000000000000000000000000000000000000000000000000000039439                    3001029090000000000 
1040001300410Q 012010579918000190DIVINO VALTERLI PACHECO ME              AV. PRESIDENTE VARGAS                   CENTRO         76300000CERES          GO0000000000000000                                                                       
1040001300411R 01000000000000000000000000000000000000000000000000220072019000000000000200                                                                                                                                                       
1040001300412P 0101298027300700000000000140000000000394401122039440          2008201900000000001180000000099N0511201822008201900000000000060000000000000000000000000000000000000000000000000000000039440                    3001029090000000000 
