10400000         2116559540001590000000000000000000001298027300700000000FEDERAL SISTEMAS              CAIXA ECONOMICA FEDERAL                 11302201910103700016705000000                    REMESSA-PRODUCAO                                 
10400011R0100030 20116559540001592730070000000000000001298027300700000000FEDERAL SISTEMAS                                                                                              000001671302201900000000                                 
1040001300001P 0101298027300700000000000140000000000445281122044528          2001201900000000001500000000099N0201201922001201900000000000060000000000000000000000000000000000000000000000000000000044528                    3001029090000000000 
1040001300002Q 011000005575325407CARLOS ODILON DE MACENA JORDAO          AV. PRESIDENTE VARGAS                   CENTRO         76300000CERES          GO0000000000000000                                                                       
1040001300003R 01000000000000000000000000000000000000000000000000220012019000000000000200                                                                                                                                                       
1040001300004P 0101298027300700000000000140000000000445291122044529          2001201900000000000390000000099N0201201922001201900000000000060000000000000000000000000000000000000000000000000000000044529                    3001029090000000000 
1040001300005Q 012009575550000103CARRILHO E FERREIRA TRANSPORTE LTDA     AV. PRESIDENTE VARGAS                   CENTRO         76300000CERES          GO0000000000000000                                                                       
1040001300006R 01000000000000000000000000000000000000000000000000220012019000000000000200                                                                                                                                                       
1040001300007P 0101298027300700000000000140000000000445301122044530          2002201900000000000390000000099N0201201922002201900000000000060000000000000000000000000000000000000000000000000000000044530                    3001029090000000000 
1040001300008Q 012009575550000103CARRILHO E FERREIRA TRANSPORTE LTDA     AV. PRESIDENTE VARGAS                   CENTRO         76300000CERES          GO0000000000000000                                                                       
1040001300009R 01000000000000000000000000000000000000000000000000220022019000000000000200                                                                                                                                                       
1040001300010P 0101298027300700000000000140000000000445311122044531          2003201900000000000390000000099N0201201922003201900000000000060000000000000000000000000000000000000000000000000000000044531                    3001029090000000000 
1040001300011Q 012009575550000103CARRILHO E FERREIRA TRANSPORTE LTDA     AV. PRESIDENTE VARGAS                   CENTRO         76300000CERES          GO0000000000000000                                                                       
1040001300012R 01000000000000000000000000000000000000000000000000220032019000000000000200                                                                                                                                                       
1040001300013P 0101298027300700000000000140000000000445321122044532          2004201900000000000590000000099N0201201922004201900000000000060000000000000000000000000000000000000000000000000000000044532                    3001029090000000000 
1040001300014Q 012009575550000103CARRILHO E FERREIRA TRANSPORTE LTDA     AV. PRESIDENTE VARGAS                   CENTRO         76300000CERES          GO0000000000000000                                                                       
1040001300015R 01000000000000000000000000000000000000000000000000220042019000000000000200                                                                                                                                                       
1040001300016P 0101298027300700000000000140000000000445331122044533          2005201900000000000590000000099N0201201922005201900000000000060000000000000000000000000000000000000000000000000000000044533                    3001029090000000000 
1040001300017Q 012009575550000103CARRILHO E FERREIRA TRANSPORTE LTDA     AV. PRESIDENTE VARGAS                   CENTRO         76300000CERES          GO0000000000000000                                                                       
1040001300018R 01000000000000000000000000000000000000000000000000220052019000000000000200                                                                                                                                                       
1040001300019P 0101298027300700000000000140000000000445341122044534          2006201900000000000590000000099N0201201922006201900000000000060000000000000000000000000000000000000000000000000000000044534                    3001029090000000000 
1040001300020Q 012009575550000103CARRILHO E FERREIRA TRANSPORTE LTDA     AV. PRESIDENTE VARGAS                   CENTRO         76300000CERES          GO0000000000000000                                                                       
1040001300021R 01000000000000000000000000000000000000000000000000220062019000000000000200                                                                                                                                                       
1040001300022P 0101298027300700000000000140000000000445351122044535          2007201900000000000590000000099N0201201922007201900000000000060000000000000000000000000000000000000000000000000000000044535                    3001029090000000000 
1040001300023Q 012009575550000103CARRILHO E FERREIRA TRANSPORTE LTDA     AV. PRESIDENTE VARGAS                   CENTRO         76300000CERES          GO0000000000000000                                                                       
1040001300024R 01000000000000000000000000000000000000000000000000220072019000000000000200                                                                                                                                                       
1040001300025P 0101298027300700000000000140000000000445361122044536          2008201900000000000590000000099N0201201922008201900000000000060000000000000000000000000000000000000000000000000000000044536                    3001029090000000000 
1040001300026Q 012009575550000103CARRILHO E FERREIRA TRANSPORTE LTDA     AV. PRESIDENTE VARGAS                   CENTRO         76300000CERES          GO0000000000000000                                                                       
1040001300027R 01000000000000000000000000000000000000000000000000220082019000000000000200                                                                                                                                                       
1040001300028P 0101298027300700000000000140000000000445371122044537          2009201900000000000590000000099N0201201922009201900000000000060000000000000000000000000000000000000000000000000000000044537                    3001029090000000000 
1040001300029Q 012009575550000103CARRILHO E FERREIRA TRANSPORTE LTDA     AV. PRESIDENTE VARGAS                   CENTRO         76300000CERES          GO0000000000000000                                                                       
1040001300030R 01000000000000000000000000000000000000000000000000220092019000000000000200                                                                                                                                                       
1040001300031P 0101298027300700000000000140000000000445381122044538          2010201900000000000590000000099N0201201922010201900000000000060000000000000000000000000000000000000000000000000000000044538                    3001029090000000000 
1040001300032Q 012009575550000103CARRILHO E FERREIRA TRANSPORTE LTDA     AV. PRESIDENTE VARGAS                   CENTRO         76300000CERES          GO0000000000000000                                                                       
1040001300033R 01000000000000000000000000000000000000000000000000220102019000000000000200                                                                                                                                                       
1040001300034P 0101298027300700000000000140000000000445391122044539          2011201900000000000590000000099N0201201922011201900000000000060000000000000000000000000000000000000000000000000000000044539                    3001029090000000000 
1040001300035Q 012009575550000103CARRILHO E FERREIRA TRANSPORTE LTDA     AV. PRESIDENTE VARGAS                   CENTRO         76300000CERES          GO0000000000000000                                                                       
1040001300036R 01000000000000000000000000000000000000000000000000220112019000000000000200                                                                                                                                                       
1040001300037P 0101298027300700000000000140000000000445401122044540          2012201900000000000590000000099N0201201922012201900000000000060000000000000000000000000000000000000000000000000000000044540                    3001029090000000000 
1040001300038Q 012009575550000103CARRILHO E FERREIRA TRANSPORTE LTDA     AV. PRESIDENTE VARGAS                   CENTRO         76300000CERES          GO0000000000000000                                                                       
1040001300039R 01000000000000000000000000000000000000000000000000220122019000000000000200                                                                                                                                                       
1040001300040P 0101298027300700000000000140000000000445411122044541          0501201900000000001180000000099N0201201920501201900000000000060000000000000000000000000000000000000000000000000000000044541                    3001029090000000000 
1040001300041Q 012003354596000116CENTROOESTE CONST E TRANS EIRELI - ME   AV. PRESIDENTE VARGAS                   CENTRO         76300000CERES          GO0000000000000000                                                                       
1040001300042R 01000000000000000000000000000000000000000000000000205012019000000000000200                                                                                                                                                       
1040001300043P 0101298027300700000000000140000000000445421122044542          0502201900000000001180000000099N0201201920502201900000000000060000000000000000000000000000000000000000000000000000000044542                    3001029090000000000 
1040001300044Q 012003354596000116CENTROOESTE CONST E TRANS EIRELI - ME   AV. PRESIDENTE VARGAS                   CENTRO         76300000CERES          GO0000000000000000                                                                       
1040001300045R 01000000000000000000000000000000000000000000000000205022019000000000000200                                                                                                                                                       
1040001300046P 0101298027300700000000000140000000000445431122044543          0503201900000000001180000000099N0201201920503201900000000000060000000000000000000000000000000000000000000000000000000044543                    3001029090000000000 
1040001300047Q 012003354596000116CENTROOESTE CONST E TRANS EIRELI - ME   AV. PRESIDENTE VARGAS                   CENTRO         76300000CERES          GO0000000000000000                                                                       
1040001300048R 01000000000000000000000000000000000000000000000000205032019000000000000200                                                                                                                                                       
1040001300049P 0101298027300700000000000140000000000445441122044544          0504201900000000001180000000099N0201201920504201900000000000060000000000000000000000000000000000000000000000000000000044544                    3001029090000000000 
1040001300050Q 012003354596000116CENTROOESTE CONST E TRANS EIRELI - ME   AV. PRESIDENTE VARGAS                   CENTRO         76300000CERES          GO0000000000000000                                                                       
1040001300051R 01000000000000000000000000000000000000000000000000205042019000000000000200                                                                                                                                                       
1040001300052P 0101298027300700000000000140000000000445451122044545          0505201900000000001180000000099N0201201920505201900000000000060000000000000000000000000000000000000000000000000000000044545                    3001029090000000000 
1040001300053Q 012003354596000116CENTROOESTE CONST E TRANS EIRELI - ME   AV. PRESIDENTE VARGAS                   CENTRO         76300000CERES          GO0000000000000000                                                                       
1040001300054R 01000000000000000000000000000000000000000000000000205052019000000000000200                                                                                                                                                       
1040001300055P 0101298027300700000000000140000000000445461122044546          0506201900000000001180000000099N0201201920506201900000000000060000000000000000000000000000000000000000000000000000000044546                    3001029090000000000 
1040001300056Q 012003354596000116CENTROOESTE CONST E TRANS EIRELI - ME   AV. PRESIDENTE VARGAS                   CENTRO         76300000CERES          GO0000000000000000                                                                       
1040001300057R 01000000000000000000000000000000000000000000000000205062019000000000000200                                                                                                                                                       
1040001300058P 0101298027300700000000000140000000000445471122044547          0507201900000000001180000000099N0201201920507201900000000000060000000000000000000000000000000000000000000000000000000044547                    3001029090000000000 
1040001300059Q 012003354596000116CENTROOESTE CONST E TRANS EIRELI - ME   AV. PRESIDENTE VARGAS                   CENTRO         76300000CERES          GO0000000000000000                                                                       
1040001300060R 01000000000000000000000000000000000000000000000000205072019000000000000200                                                                                                                                                       
1040001300061P 0101298027300700000000000140000000000445481122044548          0508201900000000001180000000099N0201201920508201900000000000060000000000000000000000000000000000000000000000000000000044548                    3001029090000000000 
1040001300062Q 012003354596000116CENTROOESTE CONST E TRANS EIRELI - ME   AV. PRESIDENTE VARGAS                   CENTRO         76300000CERES          GO0000000000000000                                                                       
1040001300063R 01000000000000000000000000000000000000000000000000205082019000000000000200                                                                                                                                                       
1040001300064P 0101298027300700000000000140000000000445491122044549          0509201900000000001180000000099N0201201920509201900000000000060000000000000000000000000000000000000000000000000000000044549                    3001029090000000000 
1040001300065Q 012003354596000116CENTROOESTE CONST E TRANS EIRELI - ME   AV. PRESIDENTE VARGAS                   CENTRO         76300000CERES          GO0000000000000000                                                                       
1040001300066R 01000000000000000000000000000000000000000000000000205092019000000000000200                                                                                                                                                       
1040001300067P 0101298027300700000000000140000000000445501122044550          0510201900000000001180000000099N0201201920510201900000000000060000000000000000000000000000000000000000000000000000000044550                    3001029090000000000 
1040001300068Q 012003354596000116CENTROOESTE CONST E TRANS EIRELI - ME   AV. PRESIDENTE VARGAS                   CENTRO         76300000CERES          GO0000000000000000                                                                       
1040001300069R 01000000000000000000000000000000000000000000000000205102019000000000000200                                                                                                                                                       
1040001300070P 0101298027300700000000000140000000000445511122044551          0511201900000000001180000000099N0201201920511201900000000000060000000000000000000000000000000000000000000000000000000044551                    3001029090000000000 
1040001300071Q 012003354596000116CENTROOESTE CONST E TRANS EIRELI - ME   AV. PRESIDENTE VARGAS                   CENTRO         76300000CERES          GO0000000000000000                                                                       
1040001300072R 01000000000000000000000000000000000000000000000000205112019000000000000200                                                                                                                                                       
1040001300073P 0101298027300700000000000140000000000445521122044552          0512201900000000001180000000099N0201201920512201900000000000060000000000000000000000000000000000000000000000000000000044552                    3001029090000000000 
1040001300074Q 012003354596000116CENTROOESTE CONST E TRANS EIRELI - ME   AV. PRESIDENTE VARGAS                   CENTRO         76300000CERES          GO0000000000000000                                                                       
1040001300075R 01000000000000000000000000000000000000000000000000205122019000000000000200                                                                                                                                                       
1040001300076P 0101298027300700000000000140000000000445541122044554          1002201900000000000590000000099N0201201921002201900000000000060000000000000000000000000000000000000000000000000000000044554                    3001029090000000000 
1040001300077Q 011000099523795104CESAR ALVES BRANQUINHO                  AV. PRESIDENTE VARGAS                   CENTRO         76300000CERES          GO0000000000000000                                                                       
1040001300078R 01000000000000000000000000000000000000000000000000210022019000000000000200                                                                                                                                                       
1040001300079P 0101298027300700000000000140000000000445551122044555          1003201900000000000590000000099N0201201921003201900000000000060000000000000000000000000000000000000000000000000000000044555                    3001029090000000000 
1040001300080Q 011000099523795104CESAR ALVES BRANQUINHO                  AV. PRESIDENTE VARGAS                   CENTRO         76300000CERES          GO0000000000000000                                                                       
1040001300081R 01000000000000000000000000000000000000000000000000210032019000000000000200                                                                                                                                                       
1040001300082P 0101298027300700000000000140000000000445561122044556          1004201900000000000590000000099N0201201921004201900000000000060000000000000000000000000000000000000000000000000000000044556                    3001029090000000000 
1040001300083Q 011000099523795104CESAR ALVES BRANQUINHO                  AV. PRESIDENTE VARGAS                   CENTRO         76300000CERES          GO0000000000000000                                                                       
1040001300084R 01000000000000000000000000000000000000000000000000210042019000000000000200                                                                                                                                                       
1040001300085P 0101298027300700000000000140000000000445571122044557          1005201900000000000590000000099N0201201921005201900000000000060000000000000000000000000000000000000000000000000000000044557                    3001029090000000000 
1040001300086Q 011000099523795104CESAR ALVES BRANQUINHO                  AV. PRESIDENTE VARGAS                   CENTRO         76300000CERES          GO0000000000000000                                                                       
1040001300087R 01000000000000000000000000000000000000000000000000210052019000000000000200                                                                                                                                                       
1040001300088P 0101298027300700000000000140000000000445581122044558          1006201900000000000590000000099N0201201921006201900000000000060000000000000000000000000000000000000000000000000000000044558                    3001029090000000000 
1040001300089Q 011000099523795104CESAR ALVES BRANQUINHO                  AV. PRESIDENTE VARGAS                   CENTRO         76300000CERES          GO0000000000000000                                                                       
1040001300090R 01000000000000000000000000000000000000000000000000210062019000000000000200                                                                                                                                                       
1040001300091P 0101298027300700000000000140000000000445591122044559          1007201900000000000590000000099N0201201921007201900000000000060000000000000000000000000000000000000000000000000000000044559                    3001029090000000000 
1040001300092Q 011000099523795104CESAR ALVES BRANQUINHO                  AV. PRESIDENTE VARGAS                   CENTRO         76300000CERES          GO0000000000000000                                                                       
1040001300093R 01000000000000000000000000000000000000000000000000210072019000000000000200                                                                                                                                                       
1040001300094P 0101298027300700000000000140000000000445601122044560          1008201900000000000590000000099N0201201921008201900000000000060000000000000000000000000000000000000000000000000000000044560                    3001029090000000000 
1040001300095Q 011000099523795104CESAR ALVES BRANQUINHO                  AV. PRESIDENTE VARGAS                   CENTRO         76300000CERES          GO0000000000000000                                                                       
1040001300096R 01000000000000000000000000000000000000000000000000210082019000000000000200                                                                                                                                                       
1040001300097P 0101298027300700000000000140000000000445611122044561          1009201900000000000590000000099N0201201921009201900000000000060000000000000000000000000000000000000000000000000000000044561                    3001029090000000000 
1040001300098Q 011000099523795104CESAR ALVES BRANQUINHO                  AV. PRESIDENTE VARGAS                   CENTRO         76300000CERES          GO0000000000000000                                                                       
1040001300099R 01000000000000000000000000000000000000000000000000210092019000000000000200                                                                                                                                                       
1040001300100P 0101298027300700000000000140000000000445621122044562          1010201900000000000590000000099N0201201921010201900000000000060000000000000000000000000000000000000000000000000000000044562                    3001029090000000000 
1040001300101Q 011000099523795104CESAR ALVES BRANQUINHO                  AV. PRESIDENTE VARGAS                   CENTRO         76300000CERES          GO0000000000000000                                                                       
1040001300102R 01000000000000000000000000000000000000000000000000210102019000000000000200                                                                                                                                                       
1040001300103P 0101298027300700000000000140000000000445631122044563          1011201900000000000590000000099N0201201921011201900000000000060000000000000000000000000000000000000000000000000000000044563                    3001029090000000000 
1040001300104Q 011000099523795104CESAR ALVES BRANQUINHO                  AV. PRESIDENTE VARGAS                   CENTRO         76300000CERES          GO0000000000000000                                                                       
1040001300105R 01000000000000000000000000000000000000000000000000210112019000000000000200                                                                                                                                                       
1040001300106P 0101298027300700000000000140000000000445641122044564          1012201900000000000590000000099N0201201921012201900000000000060000000000000000000000000000000000000000000000000000000044564                    3001029090000000000 
1040001300107Q 011000099523795104CESAR ALVES BRANQUINHO                  AV. PRESIDENTE VARGAS                   CENTRO         76300000CERES          GO0000000000000000                                                                       
1040001300108R 01000000000000000000000000000000000000000000000000210122019000000000000200                                                                                                                                                       
1040001300109P 0101298027300700000000000140000000000445661122044566          2002201900000000002730000000099N0201201922002201900000000000060000000000000000000000000000000000000000000000000000000044566                    3001029090000000000 
1040001300110Q 012009528577000145J A TRANSPORTE NETO E SOUZA LTDA ME     AV. PRESIDENTE VARGAS                   CENTRO         76300000CERES          GO0000000000000000                                                                       
1040001300111R 01000000000000000000000000000000000000000000000000220022019000000000000200                                                                                                                                                       
1040001300112P 0101298027300700000000000140000000000445671122044567          2003201900000000002730000000099N0201201922003201900000000000060000000000000000000000000000000000000000000000000000000044567                    3001029090000000000 
1040001300113Q 012009528577000145J A TRANSPORTE NETO E SOUZA LTDA ME     AV. PRESIDENTE VARGAS                   CENTRO         76300000CERES          GO0000000000000000                                                                       
1040001300114R 01000000000000000000000000000000000000000000000000220032019000000000000200                                                                                                                                                       
1040001300115P 0101298027300700000000000140000000000445681122044568          2004201900000000004130000000099N0201201922004201900000000000060000000000000000000000000000000000000000000000000000000044568                    3001029090000000000 
1040001300116Q 012009528577000145J A TRANSPORTE NETO E SOUZA LTDA ME     AV. PRESIDENTE VARGAS                   CENTRO         76300000CERES          GO0000000000000000                                                                       
1040001300117R 01000000000000000000000000000000000000000000000000220042019000000000000200                                                                                                                                                       
1040001300118P 0101298027300700000000000140000000000445691122044569          2005201900000000004130000000099N0201201922005201900000000000060000000000000000000000000000000000000000000000000000000044569                    3001029090000000000 
1040001300119Q 012009528577000145J A TRANSPORTE NETO E SOUZA LTDA ME     AV. PRESIDENTE VARGAS                   CENTRO         76300000CERES          GO0000000000000000                                                                       
1040001300120R 01000000000000000000000000000000000000000000000000220052019000000000000200                                                                                                                                                       
1040001300121P 0101298027300700000000000140000000000445701122044570          2006201900000000004130000000099N0201201922006201900000000000060000000000000000000000000000000000000000000000000000000044570                    3001029090000000000 
1040001300122Q 012009528577000145J A TRANSPORTE NETO E SOUZA LTDA ME     AV. PRESIDENTE VARGAS                   CENTRO         76300000CERES          GO0000000000000000                                                                       
1040001300123R 01000000000000000000000000000000000000000000000000220062019000000000000200                                                                                                                                                       
1040001300124P 0101298027300700000000000140000000000445711122044571          2007201900000000004130000000099N0201201922007201900000000000060000000000000000000000000000000000000000000000000000000044571                    3001029090000000000 
1040001300125Q 012009528577000145J A TRANSPORTE NETO E SOUZA LTDA ME     AV. PRESIDENTE VARGAS                   CENTRO         76300000CERES          GO0000000000000000                                                                       
1040001300126R 01000000000000000000000000000000000000000000000000220072019000000000000200                                                                                                                                                       
1040001300127P 0101298027300700000000000140000000000445721122044572          2008201900000000004130000000099N0201201922008201900000000000060000000000000000000000000000000000000000000000000000000044572                    3001029090000000000 
1040001300128Q 012009528577000145J A TRANSPORTE NETO E SOUZA LTDA ME     AV. PRESIDENTE VARGAS                   CENTRO         76300000CERES          GO0000000000000000                                                                       
1040001300129R 01000000000000000000000000000000000000000000000000220082019000000000000200                                                                                                                                                       
1040001300130P 0101298027300700000000000140000000000445731122044573          2009201900000000004130000000099N0201201922009201900000000000060000000000000000000000000000000000000000000000000000000044573                    3001029090000000000 
1040001300131Q 012009528577000145J A TRANSPORTE NETO E SOUZA LTDA ME     AV. PRESIDENTE VARGAS                   CENTRO         76300000CERES          GO0000000000000000                                                                       
1040001300132R 01000000000000000000000000000000000000000000000000220092019000000000000200                                                                                                                                                       
1040001300133P 0101298027300700000000000140000000000445741122044574          2010201900000000004130000000099N0201201922010201900000000000060000000000000000000000000000000000000000000000000000000044574                    3001029090000000000 
1040001300134Q 012009528577000145J A TRANSPORTE NETO E SOUZA LTDA ME     AV. PRESIDENTE VARGAS                   CENTRO         76300000CERES          GO0000000000000000                                                                       
1040001300135R 01000000000000000000000000000000000000000000000000220102019000000000000200                                                                                                                                                       
1040001300136P 0101298027300700000000000140000000000445751122044575          2011201900000000004130000000099N0201201922011201900000000000060000000000000000000000000000000000000000000000000000000044575                    3001029090000000000 
1040001300137Q 012009528577000145J A TRANSPORTE NETO E SOUZA LTDA ME     AV. PRESIDENTE VARGAS                   CENTRO         76300000CERES          GO0000000000000000                                                                       
1040001300138R 01000000000000000000000000000000000000000000000000220112019000000000000200                                                                                                                                                       
1040001300139P 0101298027300700000000000140000000000445761122044576          2012201900000000004130000000099N0201201922012201900000000000060000000000000000000000000000000000000000000000000000000044576                    3001029090000000000 
1040001300140Q 012009528577000145J A TRANSPORTE NETO E SOUZA LTDA ME     AV. PRESIDENTE VARGAS                   CENTRO         76300000CERES          GO0000000000000000                                                                       
1040001300141R 01000000000000000000000000000000000000000000000000220122019000000000000200                                                                                                                                                       
1040001300142P 0101298027300700000000000140000000000445861122044586          2002201900000000000590000000099N0301201922002201900000000000060000000000000000000000000000000000000000000000000000000044586                    3001029090000000000 
1040001300143Q 012028890123000164GARIBALDI MARTINS VIEIRA                AV. PRESIDENTE VARGAS                   CENTRO         76300000CERES          GO0000000000000000                                                                       
1040001300144R 01000000000000000000000000000000000000000000000000220022019000000000000200                                                                                                                                                       
1040001300145P 0101298027300700000000000140000000000445871122044587          2003201900000000000590000000099N0301201922003201900000000000060000000000000000000000000000000000000000000000000000000044587                    3001029090000000000 
1040001300146Q 012028890123000164GARIBALDI MARTINS VIEIRA                AV. PRESIDENTE VARGAS                   CENTRO         76300000CERES          GO0000000000000000                                                                       
1040001300147R 01000000000000000000000000000000000000000000000000220032019000000000000200                                                                                                                                                       
1040001300148P 0101298027300700000000000140000000000445881122044588          2004201900000000000590000000099N0301201922004201900000000000060000000000000000000000000000000000000000000000000000000044588                    3001029090000000000 
1040001300149Q 012028890123000164GARIBALDI MARTINS VIEIRA                AV. PRESIDENTE VARGAS                   CENTRO         76300000CERES          GO0000000000000000                                                                       
1040001300150R 01000000000000000000000000000000000000000000000000220042019000000000000200                                                                                                                                                       
1040001300151P 0101298027300700000000000140000000000445891122044589          2005201900000000000590000000099N0301201922005201900000000000060000000000000000000000000000000000000000000000000000000044589                    3001029090000000000 
1040001300152Q 012028890123000164GARIBALDI MARTINS VIEIRA                AV. PRESIDENTE VARGAS                   CENTRO         76300000CERES          GO0000000000000000                                                                       
1040001300153R 01000000000000000000000000000000000000000000000000220052019000000000000200                                                                                                                                                       
1040001300154P 0101298027300700000000000140000000000445901122044590          2006201900000000000590000000099N0301201922006201900000000000060000000000000000000000000000000000000000000000000000000044590                    3001029090000000000 
1040001300155Q 012028890123000164GARIBALDI MARTINS VIEIRA                AV. PRESIDENTE VARGAS                   CENTRO         76300000CERES          GO0000000000000000                                                                       
1040001300156R 01000000000000000000000000000000000000000000000000220062019000000000000200                                                                                                                                                       
1040001300157P 0101298027300700000000000140000000000445911122044591          2007201900000000000590000000099N0301201922007201900000000000060000000000000000000000000000000000000000000000000000000044591                    3001029090000000000 
1040001300158Q 012028890123000164GARIBALDI MARTINS VIEIRA                AV. PRESIDENTE VARGAS                   CENTRO         76300000CERES          GO0000000000000000                                                                       
1040001300159R 01000000000000000000000000000000000000000000000000220072019000000000000200                                                                                                                                                       
1040001300160P 0101298027300700000000000140000000000445921122044592          2008201900000000000590000000099N0301201922008201900000000000060000000000000000000000000000000000000000000000000000000044592                    3001029090000000000 
1040001300161Q 012028890123000164GARIBALDI MARTINS VIEIRA                AV. PRESIDENTE VARGAS                   CENTRO         76300000CERES          GO0000000000000000                                                                       
1040001300162R 01000000000000000000000000000000000000000000000000220082019000000000000200                                                                                                                                                       
1040001300163P 0101298027300700000000000140000000000445931122044593          2009201900000000000590000000099N0301201922009201900000000000060000000000000000000000000000000000000000000000000000000044593                    3001029090000000000 
1040001300164Q 012028890123000164GARIBALDI MARTINS VIEIRA                AV. PRESIDENTE VARGAS                   CENTRO         76300000CERES          GO0000000000000000                                                                       
1040001300165R 01000000000000000000000000000000000000000000000000220092019000000000000200                                                                                                                                                       
1040001300166P 0101298027300700000000000140000000000445941122044594          2010201900000000000590000000099N0301201922010201900000000000060000000000000000000000000000000000000000000000000000000044594                    3001029090000000000 
1040001300167Q 012028890123000164GARIBALDI MARTINS VIEIRA                AV. PRESIDENTE VARGAS                   CENTRO         76300000CERES          GO0000000000000000                                                                       
1040001300168R 01000000000000000000000000000000000000000000000000220102019000000000000200                                                                                                                                                       
1040001300169P 0101298027300700000000000140000000000445951122044595          2011201900000000000590000000099N0301201922011201900000000000060000000000000000000000000000000000000000000000000000000044595                    3001029090000000000 
1040001300170Q 012028890123000164GARIBALDI MARTINS VIEIRA                AV. PRESIDENTE VARGAS                   CENTRO         76300000CERES          GO0000000000000000                                                                       
1040001300171R 01000000000000000000000000000000000000000000000000220112019000000000000200                                                                                                                                                       
1040001300172P 0101298027300700000000000140000000000445961122044596          2012201900000000000590000000099N0301201922012201900000000000060000000000000000000000000000000000000000000000000000000044596                    3001029090000000000 
1040001300173Q 012028890123000164GARIBALDI MARTINS VIEIRA                AV. PRESIDENTE VARGAS                   CENTRO         76300000CERES          GO0000000000000000                                                                       
1040001300174R 01000000000000000000000000000000000000000000000000220122019000000000000200                                                                                                                                                       
1040001300175P 0101298027300700000000000140000000000445971122044597          2502201900000000006000000000099N0301201922502201900000000000060000000000000000000000000000000000000000000000000000000044597                    3001029090000000000 
1040001300176Q 012028890123000164GARIBALDI MARTINS VIEIRA                AV. PRESIDENTE VARGAS                   CENTRO         76300000CERES          GO0000000000000000                                                                       
1040001300177R 01000000000000000000000000000000000000000000000000225022019000000000000200                                                                                                                                                       
1040001300178P 0101298027300700000000000140000000000445991122044599          0601201900000000000099000000099N0301201920601201900000000000060000000000000000000000000000000000000000000000000000000044599                    3001029090000000000 
1040001300179Q 011000095046666200IRANILDO RODRIGUES DA CONCEICAO         AV. PRESIDENTE VARGAS                   CENTRO         76300000CERES          GO0000000000000000                                                                       
1040001300180R 01000000000000000000000000000000000000000000000000206012019000000000000200                                                                                                                                                       
1040001300181P 0101298027300700000000000140000000000446011122044601          2002201900000000000590000000099N0301201922002201900000000000060000000000000000000000000000000000000000000000000000000044601                    3001029090000000000 
1040001300182Q 012009469807000142R L TRANSPORTE DE CARGAS LTDA           AV. PRESIDENTE VARGAS                   CENTRO         76300000CERES          GO0000000000000000                                                                       
1040001300183R 01000000000000000000000000000000000000000000000000220022019000000000000200                                                                                                                                                       
1040001300184P 0101298027300700000000000140000000000446021122044602          2003201900000000000590000000099N0301201922003201900000000000060000000000000000000000000000000000000000000000000000000044602                    3001029090000000000 
1040001300185Q 012009469807000142R L TRANSPORTE DE CARGAS LTDA           AV. PRESIDENTE VARGAS                   CENTRO         76300000CERES          GO0000000000000000                                                                       
1040001300186R 01000000000000000000000000000000000000000000000000220032019000000000000200                                                                                                                                                       
1040001300187P 0101298027300700000000000140000000000446031122044603          2004201900000000000590000000099N0301201922004201900000000000060000000000000000000000000000000000000000000000000000000044603                    3001029090000000000 
1040001300188Q 012009469807000142R L TRANSPORTE DE CARGAS LTDA           AV. PRESIDENTE VARGAS                   CENTRO         76300000CERES          GO0000000000000000                                                                       
1040001300189R 01000000000000000000000000000000000000000000000000220042019000000000000200                                                                                                                                                       
1040001300190P 0101298027300700000000000140000000000446041122044604          2005201900000000000590000000099N0301201922005201900000000000060000000000000000000000000000000000000000000000000000000044604                    3001029090000000000 
1040001300191Q 012009469807000142R L TRANSPORTE DE CARGAS LTDA           AV. PRESIDENTE VARGAS                   CENTRO         76300000CERES          GO0000000000000000                                                                       
1040001300192R 01000000000000000000000000000000000000000000000000220052019000000000000200                                                                                                                                                       
1040001300193P 0101298027300700000000000140000000000446051122044605          2006201900000000000590000000099N0301201922006201900000000000060000000000000000000000000000000000000000000000000000000044605                    3001029090000000000 
1040001300194Q 012009469807000142R L TRANSPORTE DE CARGAS LTDA           AV. PRESIDENTE VARGAS                   CENTRO         76300000CERES          GO0000000000000000                                                                       
1040001300195R 01000000000000000000000000000000000000000000000000220062019000000000000200                                                                                                                                                       
1040001300196P 0101298027300700000000000140000000000446061122044606          2007201900000000000590000000099N0301201922007201900000000000060000000000000000000000000000000000000000000000000000000044606                    3001029090000000000 
1040001300197Q 012009469807000142R L TRANSPORTE DE CARGAS LTDA           AV. PRESIDENTE VARGAS                   CENTRO         76300000CERES          GO0000000000000000                                                                       
1040001300198R 01000000000000000000000000000000000000000000000000220072019000000000000200                                                                                                                                                       
1040001300199P 0101298027300700000000000140000000000446071122044607          1501201900000000020700000000099N0301201921501201900000000000060000000000000000000000000000000000000000000000000000000044607                    3001029090000000000 
1040001300200Q 012005886386000102LANNO INDUSTRIA E COM DE LATICINIOS LTDAAV. PRESIDENTE VARGAS                   CENTRO         76300000CERES          GO0000000000000000                                                                       
1040001300201R 01000000000000000000000000000000000000000000000000215012019000000000000200                                                                                                                                                       
1040001300202P 0101298027300700000000000140000000000446081122044608          1001201900000000002000000000099N0301201921001201900000000000060000000000000000000000000000000000000000000000000000000044608                    3001029090000000000 
1040001300203Q 012032323775000194RESTAURANTE CANTINA CAIPIRA LTDA        AV. PRESIDENTE VARGAS                   CENTRO         76300000CERES          GO0000000000000000                                                                       
1040001300204R 01000000000000000000000000000000000000000000000000210012019000000000000200                                                                                                                                                       
1040001300205P 0101298027300700000000000140000000000446091122044609          1002201900000000002000000000099N0301201921002201900000000000060000000000000000000000000000000000000000000000000000000044609                    3001029090000000000 
1040001300206Q 012032323775000194RESTAURANTE CANTINA CAIPIRA LTDA        AV. PRESIDENTE VARGAS                   CENTRO         76300000CERES          GO0000000000000000                                                                       
1040001300207R 01000000000000000000000000000000000000000000000000210022019000000000000200                                                                                                                                                       
1040001300208P 0101298027300700000000000140000000000446101122044610          1003201900000000002000000000099N0301201921003201900000000000060000000000000000000000000000000000000000000000000000000044610                    3001029090000000000 
1040001300209Q 012032323775000194RESTAURANTE CANTINA CAIPIRA LTDA        AV. PRESIDENTE VARGAS                   CENTRO         76300000CERES          GO0000000000000000                                                                       
1040001300210R 01000000000000000000000000000000000000000000000000210032019000000000000200                                                                                                                                                       
1040001300211P 0101298027300700000000000140000000000446111122044611          1004201900000000002000000000099N0301201921004201900000000000060000000000000000000000000000000000000000000000000000000044611                    3001029090000000000 
1040001300212Q 012032323775000194RESTAURANTE CANTINA CAIPIRA LTDA        AV. PRESIDENTE VARGAS                   CENTRO         76300000CERES          GO0000000000000000                                                                       
1040001300213R 01000000000000000000000000000000000000000000000000210042019000000000000200                                                                                                                                                       
1040001300214P 0101298027300700000000000140000000000446121122044612          1005201900000000002000000000099N0301201921005201900000000000060000000000000000000000000000000000000000000000000000000044612                    3001029090000000000 
1040001300215Q 012032323775000194RESTAURANTE CANTINA CAIPIRA LTDA        AV. PRESIDENTE VARGAS                   CENTRO         76300000CERES          GO0000000000000000                                                                       
1040001300216R 01000000000000000000000000000000000000000000000000210052019000000000000200                                                                                                                                                       
1040001300217P 0101298027300700000000000140000000000446131122044613          1006201900000000002000000000099N0301201921006201900000000000060000000000000000000000000000000000000000000000000000000044613                    3001029090000000000 
1040001300218Q 012032323775000194RESTAURANTE CANTINA CAIPIRA LTDA        AV. PRESIDENTE VARGAS                   CENTRO         76300000CERES          GO0000000000000000                                                                       
1040001300219R 01000000000000000000000000000000000000000000000000210062019000000000000200                                                                                                                                                       
1040001300220P 0101298027300700000000000140000000000446141122044614          1007201900000000002000000000099N0301201921007201900000000000060000000000000000000000000000000000000000000000000000000044614                    3001029090000000000 
1040001300221Q 012032323775000194RESTAURANTE CANTINA CAIPIRA LTDA        AV. PRESIDENTE VARGAS                   CENTRO         76300000CERES          GO0000000000000000                                                                       
1040001300222R 01000000000000000000000000000000000000000000000000210072019000000000000200                                                                                                                                                       
1040001300223P 0101298027300700000000000140000000000446151122044615          1008201900000000002000000000099N0301201921008201900000000000060000000000000000000000000000000000000000000000000000000044615                    3001029090000000000 
1040001300224Q 012032323775000194RESTAURANTE CANTINA CAIPIRA LTDA        AV. PRESIDENTE VARGAS                   CENTRO         76300000CERES          GO0000000000000000                                                                       
1040001300225R 01000000000000000000000000000000000000000000000000210082019000000000000200                                                                                                                                                       
1040001300226P 0101298027300700000000000140000000000446161122044616          1009201900000000002000000000099N0301201921009201900000000000060000000000000000000000000000000000000000000000000000000044616                    3001029090000000000 
1040001300227Q 012032323775000194RESTAURANTE CANTINA CAIPIRA LTDA        AV. PRESIDENTE VARGAS                   CENTRO         76300000CERES          GO0000000000000000                                                                       
1040001300228R 01000000000000000000000000000000000000000000000000210092019000000000000200                                                                                                                                                       
1040001300229P 0101298027300700000000000140000000000446171122044617          1010201900000000002000000000099N0301201921010201900000000000060000000000000000000000000000000000000000000000000000000044617                    3001029090000000000 
1040001300230Q 012032323775000194RESTAURANTE CANTINA CAIPIRA LTDA        AV. PRESIDENTE VARGAS                   CENTRO         76300000CERES          GO0000000000000000                                                                       
1040001300231R 01000000000000000000000000000000000000000000000000210102019000000000000200                                                                                                                                                       
1040001300232P 0101298027300700000000000140000000000446181122044618          1011201900000000002000000000099N0301201921011201900000000000060000000000000000000000000000000000000000000000000000000044618                    3001029090000000000 
1040001300233Q 012032323775000194RESTAURANTE CANTINA CAIPIRA LTDA        AV. PRESIDENTE VARGAS                   CENTRO         76300000CERES          GO0000000000000000                                                                       
1040001300234R 01000000000000000000000000000000000000000000000000210112019000000000000200                                                                                                                                                       
1040001300235P 0101298027300700000000000140000000000446191122044619          1012201900000000002000000000099N0301201921012201900000000000060000000000000000000000000000000000000000000000000000000044619                    3001029090000000000 
1040001300236Q 012032323775000194RESTAURANTE CANTINA CAIPIRA LTDA        AV. PRESIDENTE VARGAS                   CENTRO         76300000CERES          GO0000000000000000                                                                       
1040001300237R 01000000000000000000000000000000000000000000000000210122019000000000000200                                                                                                                                                       
1040001300238P 0101298027300700000000000140000000000446241122044624          2002201900000000000590000000099N0301201922002201900000000000060000000000000000000000000000000000000000000000000000000044624                    3001029090000000000 
1040001300239Q 011000001901912108MARCELO ANTONIO PEREIRA                 AV. PRESIDENTE VARGAS                   CENTRO         76300000CERES          GO0000000000000000                                                                       
1040001300240R 01000000000000000000000000000000000000000000000000220022019000000000000200                                                                                                                                                       
1040001300241P 0101298027300700000000000140000000000446251122044625          2003201900000000000590000000099N0301201922003201900000000000060000000000000000000000000000000000000000000000000000000044625                    3001029090000000000 
1040001300242Q 011000001901912108MARCELO ANTONIO PEREIRA                 AV. PRESIDENTE VARGAS                   CENTRO         76300000CERES          GO0000000000000000                                                                       
1040001300243R 01000000000000000000000000000000000000000000000000220032019000000000000200                                                                                                                                                       
1040001300244P 0101298027300700000000000140000000000446261122044626          2004201900000000000590000000099N0301201922004201900000000000060000000000000000000000000000000000000000000000000000000044626                    3001029090000000000 
1040001300245Q 011000001901912108MARCELO ANTONIO PEREIRA                 AV. PRESIDENTE VARGAS                   CENTRO         76300000CERES          GO0000000000000000                                                                       
1040001300246R 01000000000000000000000000000000000000000000000000220042019000000000000200                                                                                                                                                       
1040001300247P 0101298027300700000000000140000000000446271122044627          2005201900000000000590000000099N0301201922005201900000000000060000000000000000000000000000000000000000000000000000000044627                    3001029090000000000 
1040001300248Q 011000001901912108MARCELO ANTONIO PEREIRA                 AV. PRESIDENTE VARGAS                   CENTRO         76300000CERES          GO0000000000000000                                                                       
1040001300249R 01000000000000000000000000000000000000000000000000220052019000000000000200                                                                                                                                                       
1040001300250P 0101298027300700000000000140000000000446281122044628          2006201900000000000590000000099N0301201922006201900000000000060000000000000000000000000000000000000000000000000000000044628                    3001029090000000000 
1040001300251Q 011000001901912108MARCELO ANTONIO PEREIRA                 AV. PRESIDENTE VARGAS                   CENTRO         76300000CERES          GO0000000000000000                                                                       
1040001300252R 01000000000000000000000000000000000000000000000000220062019000000000000200                                                                                                                                                       
1040001300253P 0101298027300700000000000140000000000446291122044629          2007201900000000000590000000099N0301201922007201900000000000060000000000000000000000000000000000000000000000000000000044629                    3001029090000000000 
1040001300254Q 011000001901912108MARCELO ANTONIO PEREIRA                 AV. PRESIDENTE VARGAS                   CENTRO         76300000CERES          GO0000000000000000                                                                       
1040001300255R 01000000000000000000000000000000000000000000000000220072019000000000000200                                                                                                                                                       
1040001300256P 0101298027300700000000000140000000000446301122044630          2008201900000000000590000000099N0301201922008201900000000000060000000000000000000000000000000000000000000000000000000044630                    3001029090000000000 
1040001300257Q 011000001901912108MARCELO ANTONIO PEREIRA                 AV. PRESIDENTE VARGAS                   CENTRO         76300000CERES          GO0000000000000000                                                                       
1040001300258R 01000000000000000000000000000000000000000000000000220082019000000000000200                                                                                                                                                       
1040001300259P 0101298027300700000000000140000000000446311122044631          2009201900000000000590000000099N0301201922009201900000000000060000000000000000000000000000000000000000000000000000000044631                    3001029090000000000 
1040001300260Q 011000001901912108MARCELO ANTONIO PEREIRA                 AV. PRESIDENTE VARGAS                   CENTRO         76300000CERES          GO0000000000000000                                                                       
1040001300261R 01000000000000000000000000000000000000000000000000220092019000000000000200                                                                                                                                                       
1040001300262P 0101298027300700000000000140000000000446321122044632          2010201900000000000590000000099N0301201922010201900000000000060000000000000000000000000000000000000000000000000000000044632                    3001029090000000000 
1040001300263Q 011000001901912108MARCELO ANTONIO PEREIRA                 AV. PRESIDENTE VARGAS                   CENTRO         76300000CERES          GO0000000000000000                                                                       
1040001300264R 01000000000000000000000000000000000000000000000000220102019000000000000200                                                                                                                                                       
1040001300265P 0101298027300700000000000140000000000446331122044633          2011201900000000000590000000099N0301201922011201900000000000060000000000000000000000000000000000000000000000000000000044633                    3001029090000000000 
1040001300266Q 011000001901912108MARCELO ANTONIO PEREIRA                 AV. PRESIDENTE VARGAS                   CENTRO         76300000CERES          GO0000000000000000                                                                       
1040001300267R 01000000000000000000000000000000000000000000000000220112019000000000000200                                                                                                                                                       
1040001300268P 0101298027300700000000000140000000000446341122044634          2012201900000000000590000000099N0301201922012201900000000000060000000000000000000000000000000000000000000000000000000044634                    3001029090000000000 
1040001300269Q 011000001901912108MARCELO ANTONIO PEREIRA                 AV. PRESIDENTE VARGAS                   CENTRO         76300000CERES          GO0000000000000000                                                                       
1040001300270R 01000000000000000000000000000000000000000000000000220122019000000000000200                                                                                                                                                       
1040001300271P 0101298027300700000000000140000000000446351122044635          0502201900000000002290000000099N0301201920502201900000000000060000000000000000000000000000000000000000000000000000000044635                    3001029090000000000 
1040001300272Q 011000017809193791LOURIVAL JOSE MARTINS LIMA              AV. PRESIDENTE VARGAS                   CENTRO         76300000CERES          GO0000000000000000                                                                       
1040001300273R 01000000000000000000000000000000000000000000000000205022019000000000000200                                                                                                                                                       
1040001300274P 0101298027300700000000000140000000000446371122044637          2401201900000000004942000000099N0301201922401201900000000000060000000000000000000000000000000000000000000000000000000044637                    3001029090000000000 
1040001300275Q 011000002545494038MAICON WILLIAM SANTALUCIA               AV. PRESIDENTE VARGAS                   CENTRO         76300000CERES          GO0000000000000000                                                                       
1040001300276R 01000000000000000000000000000000000000000000000000224012019000000000000200                                                                                                                                                       
1040001300277P 0101298027300700000000000140000000000446381122044638          1302201900000000004942000000099N0301201921302201900000000000060000000000000000000000000000000000000000000000000000000044638                    3001029090000000000 
1040001300278Q 011000002545494038MAICON WILLIAM SANTALUCIA               AV. PRESIDENTE VARGAS                   CENTRO         76300000CERES          GO0000000000000000                                                                       
1040001300279R 01000000000000000000000000000000000000000000000000213022019000000000000200                                                                                                                                                       
1040001300280P 0101298027300700000000000140000000000446421122044642          0501201900000000006000000000099N0401201920501201900000000000060000000000000000000000000000000000000000000000000000000044642                    3001029090000000000 
1040001300281Q 012023002726000169WINE PRODUTOS PARA FESTAS EIRELI - ME   AV. PRESIDENTE VARGAS                   CENTRO         76300000CERES          GO0000000000000000                                                                       
1040001300282R 01000000000000000000000000000000000000000000000000205012019000000000000200                                                                                                                                                       
1040001300283P 0101298027300700000000000140000000000446451122044645          0503201900000000004500000000099N0401201920503201900000000000060000000000000000000000000000000000000000000000000000000044645                    3001029090000000000 
1040001300284Q 012010810580000136VALLE COMERCIO E DISTRIBUICAO           AV. PRESIDENTE VARGAS                   CENTRO         76300000CERES          GO0000000000000000                                                                       
1040001300285R 01000000000000000000000000000000000000000000000000205032019000000000000200                                                                                                                                                       
1040001300286P 0101298027300700000000000140000000000446461122044646          0504201900000000004500000000099N0401201920504201900000000000060000000000000000000000000000000000000000000000000000000044646                    3001029090000000000 
1040001300287Q 012010810580000136VALLE COMERCIO E DISTRIBUICAO           AV. PRESIDENTE VARGAS                   CENTRO         76300000CERES          GO0000000000000000                                                                       
1040001300288R 01000000000000000000000000000000000000000000000000205042019000000000000200                                                                                                                                                       
1040001300289P 0101298027300700000000000140000000000446471122044647          0505201900000000004500000000099N0401201920505201900000000000060000000000000000000000000000000000000000000000000000000044647                    3001029090000000000 
1040001300290Q 012010810580000136VALLE COMERCIO E DISTRIBUICAO           AV. PRESIDENTE VARGAS                   CENTRO         76300000CERES          GO0000000000000000                                                                       
1040001300291R 01000000000000000000000000000000000000000000000000205052019000000000000200                                                                                                                                                       
1040001300292P 0101298027300700000000000140000000000446481122044648          0506201900000000004500000000099N0401201920506201900000000000060000000000000000000000000000000000000000000000000000000044648                    3001029090000000000 
1040001300293Q 012010810580000136VALLE COMERCIO E DISTRIBUICAO           AV. PRESIDENTE VARGAS                   CENTRO         76300000CERES          GO0000000000000000                                                                       
1040001300294R 01000000000000000000000000000000000000000000000000205062019000000000000200                                                                                                                                                       
1040001300295P 0101298027300700000000000140000000000446491122044649          0507201900000000004500000000099N0401201920507201900000000000060000000000000000000000000000000000000000000000000000000044649                    3001029090000000000 
1040001300296Q 012010810580000136VALLE COMERCIO E DISTRIBUICAO           AV. PRESIDENTE VARGAS                   CENTRO         76300000CERES          GO0000000000000000                                                                       
1040001300297R 01000000000000000000000000000000000000000000000000205072019000000000000200                                                                                                                                                       
1040001300298P 0101298027300700000000000140000000000446501122044650          0508201900000000004500000000099N0401201920508201900000000000060000000000000000000000000000000000000000000000000000000044650                    3001029090000000000 
1040001300299Q 012010810580000136VALLE COMERCIO E DISTRIBUICAO           AV. PRESIDENTE VARGAS                   CENTRO         76300000CERES          GO0000000000000000                                                                       
1040001300300R 01000000000000000000000000000000000000000000000000205082019000000000000200                                                                                                                                                       
1040001300301P 0101298027300700000000000140000000000446511122044651          0509201900000000004500000000099N0401201920509201900000000000060000000000000000000000000000000000000000000000000000000044651                    3001029090000000000 
1040001300302Q 012010810580000136VALLE COMERCIO E DISTRIBUICAO           AV. PRESIDENTE VARGAS                   CENTRO         76300000CERES          GO0000000000000000                                                                       
1040001300303R 01000000000000000000000000000000000000000000000000205092019000000000000200                                                                                                                                                       
1040001300304P 0101298027300700000000000140000000000446521122044652          0510201900000000004500000000099N0401201920510201900000000000060000000000000000000000000000000000000000000000000000000044652                    3001029090000000000 
1040001300305Q 012010810580000136VALLE COMERCIO E DISTRIBUICAO           AV. PRESIDENTE VARGAS                   CENTRO         76300000CERES          GO0000000000000000                                                                       
1040001300306R 01000000000000000000000000000000000000000000000000205102019000000000000200                                                                                                                                                       
1040001300307P 0101298027300700000000000140000000000446531122044653          0511201900000000004500000000099N0401201920511201900000000000060000000000000000000000000000000000000000000000000000000044653                    3001029090000000000 
1040001300308Q 012010810580000136VALLE COMERCIO E DISTRIBUICAO           AV. PRESIDENTE VARGAS                   CENTRO         76300000CERES          GO0000000000000000                                                                       
1040001300309R 01000000000000000000000000000000000000000000000000205112019000000000000200                                                                                                                                                       
1040001300310P 0101298027300700000000000140000000000446541122044654          0512201900000000004500000000099N0401201920512201900000000000060000000000000000000000000000000000000000000000000000000044654                    3001029090000000000 
1040001300311Q 012010810580000136VALLE COMERCIO E DISTRIBUICAO           AV. PRESIDENTE VARGAS                   CENTRO         76300000CERES          GO0000000000000000                                                                       
1040001300312R 01000000000000000000000000000000000000000000000000205122019000000000000200                                                                                                                                                       
1040001300313P 0101298027300700000000000140000000000446611122044661          1001201900000000001794000000099N0601201921001201900000000000060000000000000000000000000000000000000000000000000000000044661                    3001029090000000000 
1040001300314Q 012001640145000110ONE CITY GPS EQUIP ELETRONICOS LTDA ME  AV. PRESIDENTE VARGAS                   CENTRO         76300000CERES          GO0000000000000000                                                                       
1040001300315R 01000000000000000000000000000000000000000000000000210012019000000000000200                                                                                                                                                       
1040001300316P 0101298027300700000000000140000000000446651122044665          1001201900000000003926000000099N0601201921001201900000000000060000000000000000000000000000000000000000000000000000000044665                    3001029090000000000 
1040001300317Q 011000001488919348GERSON GAMA LEAL                        AV. PRESIDENTE VARGAS                   CENTRO         76300000CERES          GO0000000000000000                                                                       
1040001300318R 01000000000000000000000000000000000000000000000000210012019000000000000200                                                                                                                                                       
1040001300319P 0101298027300700000000000140000000000446691122044669          1001201900000000002418000000099N0601201921001201900000000000060000000000000000000000000000000000000000000000000000000044669                    3001029090000000000 
1040001300320Q 012017055560000146ALVES DA SILVA E GAMA LEAL LTDA - ME    AV. PRESIDENTE VARGAS                   CENTRO         76300000CERES          GO0000000000000000                                                                       
1040001300321R 01000000000000000000000000000000000000000000000000210012019000000000000200                                                                                                                                                       
1040001300322P 0101298027300700000000000140000000000446791122044679          1001201900000000000418000000099N0601201921001201900000000000060000000000000000000000000000000000000000000000000000000044679                    3001029090000000000 
1040001300323Q 011000007767300960BRUNO DA SILVA NASCIMENTO               AV. PRESIDENTE VARGAS                   CENTRO         76300000CERES          GO0000000000000000                                                                       
1040001300324R 01000000000000000000000000000000000000000000000000210012019000000000000200                                                                                                                                                       
1040001300325P 0101298027300700000000000140000000000446801122044680          1001201900000000000367000000099N0601201921001201900000000000060000000000000000000000000000000000000000000000000000000044680                    3001029090000000000 
1040001300326Q 011000004012365525GILMAR SILVA SAMPAIO                    AV. PRESIDENTE VARGAS                   CENTRO         76300000CERES          GO0000000000000000                                                                       
1040001300327R 01000000000000000000000000000000000000000000000000210012019000000000000200                                                                                                                                                       
1040001300328P 0101298027300700000000000140000000000447021122044702          1001201900000000001170000000099N0601201921001201900000000000060000000000000000000000000000000000000000000000000000000044702                    3001029090000000000 
1040001300329Q 011000011483301788CAIO CARDOSO                            AV. PRESIDENTE VARGAS                   CENTRO         76300000CERES          GO0000000000000000                                                                       
1040001300330R 01000000000000000000000000000000000000000000000000210012019000000000000200                                                                                                                                                       
1040001300331P 0101298027300700000000000140000000000447041122044704          1001201900000000000297000000099N0601201921001201900000000000060000000000000000000000000000000000000000000000000000000044704                    3001029090000000000 
1040001300332Q 011000087630451334EVERARDO GOMES DE ARAUJO                AV. PRESIDENTE VARGAS                   CENTRO         76300000CERES          GO0000000000000000                                                                       
1040001300333R 01000000000000000000000000000000000000000000000000210012019000000000000200                                                                                                                                                       
1040001300334P 0101298027300700000000000140000000000447061122044706          1001201900000000000099000000099N0601201921001201900000000000060000000000000000000000000000000000000000000000000000000044706                    3001029090000000000 
1040001300335Q 011000004267859914DOUGLAS BORGES                          AV. PRESIDENTE VARGAS                   CENTRO         76300000CERES          GO0000000000000000                                                                       
1040001300336R 01000000000000000000000000000000000000000000000000210012019000000000000200                                                                                                                                                       
1040001300337P 0101298027300700000000000140000000000447081122044708          1001201900000000001092000000099N0601201921001201900000000000060000000000000000000000000000000000000000000000000000000044708                    3001029090000000000 
1040001300338Q 011000004601350662FRANKLIN LIMA                           AV. PRESIDENTE VARGAS                   CENTRO         76300000CERES          GO0000000000000000                                                                       
1040001300339R 01000000000000000000000000000000000000000000000000210012019000000000000200                                                                                                                                                       
1040001300340P 0101298027300700000000000140000000000447121122044712          1001201900000000007446000000099N0601201921001201900000000000060000000000000000000000000000000000000000000000000000000044712                    3001029090000000000 
1040001300341Q 011000000912863285LEONARDO ROCHA DA SILVA                 AV. PRESIDENTE VARGAS                   CENTRO         76300000CERES          GO0000000000000000                                                                       
1040001300342R 01000000000000000000000000000000000000000000000000210012019000000000000200                                                                                                                                                       
1040001300343P 0101298027300700000000000140000000000447141122044714          1001201900000000000198000000099N0601201921001201900000000000060000000000000000000000000000000000000000000000000000000044714                    3001029090000000000 
1040001300344Q 011000003700881746LAZARO TUBARAO                          AV. PRESIDENTE VARGAS                   CENTRO         76300000CERES          GO0000000000000000                                                                       
1040001300345R 01000000000000000000000000000000000000000000000000210012019000000000000200                                                                                                                                                       
1040001300346P 0101298027300700000000000140000000000447171122044717          1001201900000000000198000000099N0601201921001201900000000000060000000000000000000000000000000000000000000000000000000044717                    3001029090000000000 
1040001300347Q 011000028187156104LUZIA CONCEICAO ALVES                   AV. PRESIDENTE VARGAS                   CENTRO         76300000CERES          GO0000000000000000                                                                       
1040001300348R 01000000000000000000000000000000000000000000000000210012019000000000000200                                                                                                                                                       
1040001300349P 0101298027300700000000000140000000000447181122044718          1001201900000000001820000000099N0601201921001201900000000000060000000000000000000000000000000000000000000000000000000044718                    3001029090000000000 
1040001300350Q 011000047403705300JAIRO ROCHA                             AV. PRESIDENTE VARGAS                   CENTRO         76300000CERES          GO0000000000000000                                                                       
1040001300351R 01000000000000000000000000000000000000000000000000210012019000000000000200                                                                                                                                                       
1040001300352P 0101298027300700000000000140000000000447291122044729          1001201900000000000099000000099N0601201921001201900000000000060000000000000000000000000000000000000000000000000000000044729                    3001029090000000000 
1040001300353Q 011000002523867362FRANCIVALDO FEITOSA                     AV. PRESIDENTE VARGAS                   CENTRO         76300000CERES          GO0000000000000000                                                                       
1040001300354R 01000000000000000000000000000000000000000000000000210012019000000000000200                                                                                                                                                       
1040001300355P 0101298027300700000000000140000000000447301122044730          1001201900000000001560000000099N0601201921001201900000000000060000000000000000000000000000000000000000000000000000000044730                    3001029090000000000 
1040001300356Q 011000060623144549DOMICIANO CERQUEIRA                     AV. PRESIDENTE VARGAS                   CENTRO         76300000CERES          GO0000000000000000                                                                       
1040001300357R 01000000000000000000000000000000000000000000000000210012019000000000000200                                                                                                                                                       
1040001300358P 0101298027300700000000000140000000000447321122044732          1001201900000000000468000000099N0601201921001201900000000000060000000000000000000000000000000000000000000000000000000044732                    3001029090000000000 
1040001300359Q 011000042308542004GREGORIO VILAS BOAS                     AV. PRESIDENTE VARGAS                   CENTRO         76300000CERES          GO0000000000000000                                                                       
1040001300360R 01000000000000000000000000000000000000000000000000210012019000000000000200                                                                                                                                                       
1040001300361P 0101298027300700000000000140000000000447361122044736          1001201900000000000099000000099N0601201921001201900000000000060000000000000000000000000000000000000000000000000000000044736                    3001029090000000000 
1040001300362Q 011000083833706368ALEXSANDRO JOSE FELIX NOGUEIRA          AV. PRESIDENTE VARGAS                   CENTRO         76300000CERES          GO0000000000000000                                                                       
1040001300363R 01000000000000000000000000000000000000000000000000210012019000000000000200                                                                                                                                                       
1040001300364P 0101298027300700000000000140000000000447461122044746          1001201900000000005538000000099N0601201921001201900000000000060000000000000000000000000000000000000000000000000000000044746                    3001029090000000000 
1040001300365Q 012026216149000104CAIO DOS SANTOS E SOUSA 04422993119     AV. PRESIDENTE VARGAS                   CENTRO         76300000CERES          GO0000000000000000                                                                       
1040001300366R 01000000000000000000000000000000000000000000000000210012019000000000000200                                                                                                                                                       
1040001300367P 0101298027300700000000000140000000000447511122044751          1001201900000000000780000000099N0601201921001201900000000000060000000000000000000000000000000000000000000000000000000044751                    3001029090000000000 
1040001300368Q 012020085595000119CTX LOCACOES DE EQUIPAMENTOS E CONTAINERAV. PRESIDENTE VARGAS                   CENTRO         76300000CERES          GO0000000000000000                                                                       
1040001300369R 01000000000000000000000000000000000000000000000000210012019000000000000200                                                                                                                                                       
1040001300370P 0101298027300700000000000140000000000447591122044759          1001201900000000000298000000099N0601201921001201900000000000060000000000000000000000000000000000000000000000000000000044759                    3001029090000000000 
1040001300371Q 011000004897591651DANILO PEREIRA FERNANDES                AV. PRESIDENTE VARGAS                   CENTRO         76300000CERES          GO0000000000000000                                                                       
1040001300372R 01000000000000000000000000000000000000000000000000210012019000000000000200                                                                                                                                                       
1040001300373P 0101298027300700000000000140000000000447741122044774          1001201900000000000099000000099N0601201921001201900000000000060000000000000000000000000000000000000000000000000000000044774                    3001029090000000000 
1040001300374Q 011000050608282049FLAVIO HENRIQUE ASCARI                  AV. PRESIDENTE VARGAS                   CENTRO         76300000CERES          GO0000000000000000                                                                       
1040001300375R 01000000000000000000000000000000000000000000000000210012019000000000000200                                                                                                                                                       
1040001300376P 0101298027300700000000000140000000000447781122044778          1001201900000000000198000000099N0601201921001201900000000000060000000000000000000000000000000000000000000000000000000044778                    3001029090000000000 
1040001300377Q 011000061444510304FRANCISCO OMILSON BARBOSA DA SILVA      AV. PRESIDENTE VARGAS                   CENTRO         76300000CERES          GO0000000000000000                                                                       
1040001300378R 01000000000000000000000000000000000000000000000000210012019000000000000200                                                                                                                                                       
1040001300379P 0101298027300700000000000140000000000447791122044779          1001201900000000000099000000099N0601201921001201900000000000060000000000000000000000000000000000000000000000000000000044779                    3001029090000000000 
1040001300380Q 011000054781949668NILTON LEFUNDES DA SILVA                AV. PRESIDENTE VARGAS                   CENTRO         76300000CERES          GO0000000000000000                                                                       
1040001300381R 01000000000000000000000000000000000000000000000000210012019000000000000200                                                                                                                                                       
1040001300382P 0101298027300700000000000140000000000447821122044782          1001201900000000001014000000099N0601201921001201900000000000060000000000000000000000000000000000000000000000000000000044782                    3001029090000000000 
1040001300383Q 012026097788000190JESSE RODRIGUES DE SOUSA 41194341845    AV. PRESIDENTE VARGAS                   CENTRO         76300000CERES          GO0000000000000000                                                                       
1040001300384R 01000000000000000000000000000000000000000000000000210012019000000000000200                                                                                                                                                       
1040001300385P 0101298027300700000000000140000000000447831122044783          1001201900000000003120000000099N0601201921001201900000000000060000000000000000000000000000000000000000000000000000000044783                    3001029090000000000 
1040001300386Q 011000007374853963WILLIAN AMARAL DE OLIVEIRA              AV. PRESIDENTE VARGAS                   CENTRO         76300000CERES          GO0000000000000000                                                                       
1040001300387R 01000000000000000000000000000000000000000000000000210012019000000000000200                                                                                                                                                       
1040001300388P 0101298027300700000000000140000000000447841122044784          1001201900000000000099000000099N0601201921001201900000000000060000000000000000000000000000000000000000000000000000000044784                    3001029090000000000 
1040001300389Q 011000075176882353ALEXSANDRO ANDRADE SILVA                AV. PRESIDENTE VARGAS                   CENTRO         76300000CERES          GO0000000000000000                                                                       
1040001300390R 01000000000000000000000000000000000000000000000000210012019000000000000200                                                                                                                                                       
1040001300391P 0101298027300700000000000140000000000447851122044785          1001201900000000000099000000099N0601201921001201900000000000060000000000000000000000000000000000000000000000000000000044785                    3001029090000000000 
1040001300392Q 011000071339493187ANTONIO DA COSTA AMANCIO                AV. PRESIDENTE VARGAS                   CENTRO         76300000CERES          GO0000000000000000                                                                       
1040001300393R 01000000000000000000000000000000000000000000000000210012019000000000000200                                                                                                                                                       
1040001300394P 0101298027300700000000000140000000000447861122044786          1001201900000000004560000000099N0601201921001201900000000000060000000000000000000000000000000000000000000000000000000044786                    3001029090000000000 
1040001300395Q 011000076140881234JOSE NILSON SILVA DOS SANTOS            AV. PRESIDENTE VARGAS                   CENTRO         76300000CERES          GO0000000000000000                                                                       
1040001300396R 01000000000000000000000000000000000000000000000000210012019000000000000200                                                                                                                                                       
1040001300397P 0101298027300700000000000140000000000447881122044788          1001201900000000000099000000099N0601201921001201900000000000060000000000000000000000000000000000000000000000000000000044788                    3001029090000000000 
1040001300398Q 011000058892176072LEANDRO MARQUES UFLACKER                AV. PRESIDENTE VARGAS                   CENTRO         76300000CERES          GO0000000000000000                                                                       
1040001300399R 01000000000000000000000000000000000000000000000000210012019000000000000200                                                                                                                                                       
1040001300400P 0101298027300700000000000140000000000447891122044789          1001201900000000000319000000099N0601201921001201900000000000060000000000000000000000000000000000000000000000000000000044789                    3001029090000000000 
1040001300401Q 011000033739261811JEFFERSON QUINTILIANO                   AV. PRESIDENTE VARGAS                   CENTRO         76300000CERES          GO0000000000000000                                                                       
1040001300402R 01000000000000000000000000000000000000000000000000210012019000000000000200                                                                                                                                                       
1040001300403P 0101298027300700000000000140000000000447961122044796          1001201900000000000099000000099N0601201921001201900000000000060000000000000000000000000000000000000000000000000000000044796                    3001029090000000000 
1040001300404Q 011000007022953961CARLOS HENRIQUE RODRIGUES DA SILVA CAMPAAV. PRESIDENTE VARGAS                   CENTRO         76300000CERES          GO0000000000000000                                                                       
1040001300405R 01000000000000000000000000000000000000000000000000210012019000000000000200                                                                                                                                                       
1040001300406P 0101298027300700000000000140000000000447971122044797          1001201900000000000396000000099N0601201921001201900000000000060000000000000000000000000000000000000000000000000000000044797                    3001029090000000000 
1040001300407Q 011000004294200723ANDRE VINICIUS DIAS MARTINS LIMA        AV. PRESIDENTE VARGAS                   CENTRO         76300000CERES          GO0000000000000000                                                                       
1040001300408R 01000000000000000000000000000000000000000000000000210012019000000000000200                                                                                                                                                       
1040001300409P 0101298027300700000000000140000000000448001122044800          1001201900000000000099000000099N0601201921001201900000000000060000000000000000000000000000000000000000000000000000000044800                    3001029090000000000 
1040001300410Q 011000033873383845VALTERLINO NUNES PEREIRA JUNIOR         AV. PRESIDENTE VARGAS                   CENTRO         76300000CERES          GO0000000000000000                                                                       
1040001300411R 01000000000000000000000000000000000000000000000000210012019000000000000200                                                                                                                                                       
1040001300412P 0101298027300700000000000140000000000448021122044802          1001201900000000004537000000099N0601201921001201900000000000060000000000000000000000000000000000000000000000000000000044802                    3001029090000000000 
