10400000         2116559540001590000000000000000000001298027300700000000FEDERAL SISTEMAS              CAIXA ECONOMICA FEDERAL                 12103201814475100004405000000                    REMESSA-PRODUCAO                                 
10400011R0100030 20116559540001592730070000000000000001298027300700000000FEDERAL SISTEMAS                                                                                              000000442103201800000000                                 
1040001300001P 0101298027300700000000000140000000000277991122027799          2004201800000000000590000000099N1903201822004201800000000000060000000000000000000000000000000000000000000000000000000027799                    3001090090000000000 
1040001300002Q 012023386047000130ITELVANA RAMOS DE OLIVEIRA SANTOS - TRANRUA 18                                  CENTRO         76380000GOIANESIA      GO0000000000000000                                                                       
1040001300003R 01000000000000000000000000000000000000000000000000220042018000000000000200                                                                                                                                                       
1040001300004P 0101298027300700000000000140000000000278001122027800          2005201800000000000590000000099N1903201822005201800000000000060000000000000000000000000000000000000000000000000000000027800                    3001090090000000000 
1040001300005Q 012023386047000130ITELVANA RAMOS DE OLIVEIRA SANTOS - TRANRUA 18                                  CENTRO         76380000GOIANESIA      GO0000000000000000                                                                       
1040001300006R 01000000000000000000000000000000000000000000000000220052018000000000000200                                                                                                                                                       
1040001300007P 0101298027300700000000000140000000000278011122027801          2006201800000000000590000000099N1903201822006201800000000000060000000000000000000000000000000000000000000000000000000027801                    3001090090000000000 
1040001300008Q 012023386047000130ITELVANA RAMOS DE OLIVEIRA SANTOS - TRANRUA 18                                  CENTRO         76380000GOIANESIA      GO0000000000000000                                                                       
1040001300009R 01000000000000000000000000000000000000000000000000220062018000000000000200                                                                                                                                                       
1040001300010P 0101298027300700000000000140000000000278021122027802          2007201800000000000590000000099N1903201822007201800000000000060000000000000000000000000000000000000000000000000000000027802                    3001090090000000000 
1040001300011Q 012023386047000130ITELVANA RAMOS DE OLIVEIRA SANTOS - TRANRUA 18                                  CENTRO         76380000GOIANESIA      GO0000000000000000                                                                       
1040001300012R 01000000000000000000000000000000000000000000000000220072018000000000000200                                                                                                                                                       
1040001300013P 0101298027300700000000000140000000000278031122027803          2008201800000000000590000000099N1903201822008201800000000000060000000000000000000000000000000000000000000000000000000027803                    3001090090000000000 
1040001300014Q 012023386047000130ITELVANA RAMOS DE OLIVEIRA SANTOS - TRANRUA 18                                  CENTRO         76380000GOIANESIA      GO0000000000000000                                                                       
1040001300015R 01000000000000000000000000000000000000000000000000220082018000000000000200                                                                                                                                                       
1040001300016P 0101298027300700000000000140000000000278041122027804          2009201800000000000590000000099N1903201822009201800000000000060000000000000000000000000000000000000000000000000000000027804                    3001090090000000000 
1040001300017Q 012023386047000130ITELVANA RAMOS DE OLIVEIRA SANTOS - TRANRUA 18                                  CENTRO         76380000GOIANESIA      GO0000000000000000                                                                       
1040001300018R 01000000000000000000000000000000000000000000000000220092018000000000000200                                                                                                                                                       
1040001300019P 0101298027300700000000000140000000000278051122027805          2010201800000000000590000000099N1903201822010201800000000000060000000000000000000000000000000000000000000000000000000027805                    3001090090000000000 
1040001300020Q 012023386047000130ITELVANA RAMOS DE OLIVEIRA SANTOS - TRANRUA 18                                  CENTRO         76380000GOIANESIA      GO0000000000000000                                                                       
1040001300021R 01000000000000000000000000000000000000000000000000220102018000000000000200                                                                                                                                                       
1040001300022P 0101298027300700000000000140000000000278061122027806          2011201800000000000590000000099N1903201822011201800000000000060000000000000000000000000000000000000000000000000000000027806                    3001090090000000000 
1040001300023Q 012023386047000130ITELVANA RAMOS DE OLIVEIRA SANTOS - TRANRUA 18                                  CENTRO         76380000GOIANESIA      GO0000000000000000                                                                       
1040001300024R 01000000000000000000000000000000000000000000000000220112018000000000000200                                                                                                                                                       
1040001300025P 0101298027300700000000000140000000000278071122027807          2012201800000000000590000000099N1903201822012201800000000000060000000000000000000000000000000000000000000000000000000027807                    3001090090000000000 
1040001300026Q 012023386047000130ITELVANA RAMOS DE OLIVEIRA SANTOS - TRANRUA 18                                  CENTRO         76380000GOIANESIA      GO0000000000000000                                                                       
1040001300027R 01000000000000000000000000000000000000000000000000220122018000000000000200                                                                                                                                                       
1040001300028P 0101298027300700000000000140000000000278081122027808          2001201900000000000590000000099N1903201822001201900000000000060000000000000000000000000000000000000000000000000000000027808                    3001090090000000000 
1040001300029Q 012023386047000130ITELVANA RAMOS DE OLIVEIRA SANTOS - TRANRUA 18                                  CENTRO         76380000GOIANESIA      GO0000000000000000                                                                       
1040001300030R 01000000000000000000000000000000000000000000000000220012019000000000000200                                                                                                                                                       
1040001300031P 0101298027300700000000000140000000000278091122027809          2002201900000000000590000000099N1903201822002201900000000000060000000000000000000000000000000000000000000000000000000027809                    3001090090000000000 
1040001300032Q 012023386047000130ITELVANA RAMOS DE OLIVEIRA SANTOS - TRANRUA 18                                  CENTRO         76380000GOIANESIA      GO0000000000000000                                                                       
1040001300033R 01000000000000000000000000000000000000000000000000220022019000000000000200                                                                                                                                                       
1040001300034P 0101298027300700000000000140000000000278101122027810          2003201900000000000590000000099N1903201822003201900000000000060000000000000000000000000000000000000000000000000000000027810                    3001090090000000000 
1040001300035Q 012023386047000130ITELVANA RAMOS DE OLIVEIRA SANTOS - TRANRUA 18                                  CENTRO         76380000GOIANESIA      GO0000000000000000                                                                       
1040001300036R 01000000000000000000000000000000000000000000000000220032019000000000000200                                                                                                                                                       
1040001300037P 0101298027300700000000000140000000000278111122027811          2006201800000000000590000000099N1903201822006201800000000000060000000000000000000000000000000000000000000000000000000027811                    3001090090000000000 
1040001300038Q 012010483826000102CAMARGO SIQUEIRA E SIQUEIRA LTDA - ME   AVENIDA MINAS GERAIS                    CENTRO         76380002GOIANESIA      GO0000000000000000                                                                       
1040001300039R 01000000000000000000000000000000000000000000000000220062018000000000000200                                                                                                                                                       
1040001300040P 0101298027300700000000000140000000000278121122027812          2007201800000000000590000000099N1903201822007201800000000000060000000000000000000000000000000000000000000000000000000027812                    3001090090000000000 
1040001300041Q 012010483826000102CAMARGO SIQUEIRA E SIQUEIRA LTDA - ME   AVENIDA MINAS GERAIS                    CENTRO         76380002GOIANESIA      GO0000000000000000                                                                       
1040001300042R 01000000000000000000000000000000000000000000000000220072018000000000000200                                                                                                                                                       
1040001300043P 0101298027300700000000000140000000000278131122027813          2008201800000000000590000000099N1903201822008201800000000000060000000000000000000000000000000000000000000000000000000027813                    3001090090000000000 
1040001300044Q 012010483826000102CAMARGO SIQUEIRA E SIQUEIRA LTDA - ME   AVENIDA MINAS GERAIS                    CENTRO         76380002GOIANESIA      GO0000000000000000                                                                       
1040001300045R 01000000000000000000000000000000000000000000000000220082018000000000000200                                                                                                                                                       
1040001300046P 0101298027300700000000000140000000000278141122027814          2009201800000000000590000000099N1903201822009201800000000000060000000000000000000000000000000000000000000000000000000027814                    3001090090000000000 
1040001300047Q 012010483826000102CAMARGO SIQUEIRA E SIQUEIRA LTDA - ME   AVENIDA MINAS GERAIS                    CENTRO         76380002GOIANESIA      GO0000000000000000                                                                       
1040001300048R 01000000000000000000000000000000000000000000000000220092018000000000000200                                                                                                                                                       
1040001300049P 0101298027300700000000000140000000000278151122027815          2010201800000000000590000000099N1903201822010201800000000000060000000000000000000000000000000000000000000000000000000027815                    3001090090000000000 
1040001300050Q 012010483826000102CAMARGO SIQUEIRA E SIQUEIRA LTDA - ME   AVENIDA MINAS GERAIS                    CENTRO         76380002GOIANESIA      GO0000000000000000                                                                       
1040001300051R 01000000000000000000000000000000000000000000000000220102018000000000000200                                                                                                                                                       
1040001300052P 0101298027300700000000000140000000000278161122027816          2011201800000000000590000000099N1903201822011201800000000000060000000000000000000000000000000000000000000000000000000027816                    3001090090000000000 
1040001300053Q 012010483826000102CAMARGO SIQUEIRA E SIQUEIRA LTDA - ME   AVENIDA MINAS GERAIS                    CENTRO         76380002GOIANESIA      GO0000000000000000                                                                       
1040001300054R 01000000000000000000000000000000000000000000000000220112018000000000000200                                                                                                                                                       
1040001300055P 0101298027300700000000000140000000000278171122027817          2012201800000000000590000000099N1903201822012201800000000000060000000000000000000000000000000000000000000000000000000027817                    3001090090000000000 
1040001300056Q 012010483826000102CAMARGO SIQUEIRA E SIQUEIRA LTDA - ME   AVENIDA MINAS GERAIS                    CENTRO         76380002GOIANESIA      GO0000000000000000                                                                       
1040001300057R 01000000000000000000000000000000000000000000000000220122018000000000000200                                                                                                                                                       
1040001300058P 0101298027300700000000000140000000000278181122027818          2001201900000000000590000000099N1903201822001201900000000000060000000000000000000000000000000000000000000000000000000027818                    3001090090000000000 
1040001300059Q 012010483826000102CAMARGO SIQUEIRA E SIQUEIRA LTDA - ME   AVENIDA MINAS GERAIS                    CENTRO         76380002GOIANESIA      GO0000000000000000                                                                       
1040001300060R 01000000000000000000000000000000000000000000000000220012019000000000000200                                                                                                                                                       
1040001300061P 0101298027300700000000000140000000000278191122027819          2002201900000000000590000000099N1903201822002201900000000000060000000000000000000000000000000000000000000000000000000027819                    3001090090000000000 
1040001300062Q 012010483826000102CAMARGO SIQUEIRA E SIQUEIRA LTDA - ME   AVENIDA MINAS GERAIS                    CENTRO         76380002GOIANESIA      GO0000000000000000                                                                       
1040001300063R 01000000000000000000000000000000000000000000000000220022019000000000000200                                                                                                                                                       
1040001300064P 0101298027300700000000000140000000000278201122027820          2003201900000000000590000000099N1903201822003201900000000000060000000000000000000000000000000000000000000000000000000027820                    3001090090000000000 
1040001300065Q 012010483826000102CAMARGO SIQUEIRA E SIQUEIRA LTDA - ME   AVENIDA MINAS GERAIS                    CENTRO         76380002GOIANESIA      GO0000000000000000                                                                       
1040001300066R 01000000000000000000000000000000000000000000000000220032019000000000000200                                                                                                                                                       
1040001300067P 0101298027300700000000000140000000000278211122027821          2004201900000000000590000000099N1903201822004201900000000000060000000000000000000000000000000000000000000000000000000027821                    3001090090000000000 
1040001300068Q 012010483826000102CAMARGO SIQUEIRA E SIQUEIRA LTDA - ME   AVENIDA MINAS GERAIS                    CENTRO         76380002GOIANESIA      GO0000000000000000                                                                       
1040001300069R 01000000000000000000000000000000000000000000000000220042019000000000000200                                                                                                                                                       
1040001300070P 0101298027300700000000000140000000000278221122027822          2005201900000000000590000000099N1903201822005201900000000000060000000000000000000000000000000000000000000000000000000027822                    3001090090000000000 
1040001300071Q 012010483826000102CAMARGO SIQUEIRA E SIQUEIRA LTDA - ME   AVENIDA MINAS GERAIS                    CENTRO         76380002GOIANESIA      GO0000000000000000                                                                       
1040001300072R 01000000000000000000000000000000000000000000000000220052019000000000000200                                                                                                                                                       
1040001300073P 0101298027300700000000000140000000000278231122027823          2001201800000000000590000000099N1903201822001201800000000000060000000000000000000000000000000000000000000000000000000027823                    3001090090000000000 
1040001300074Q 012024351838000198CARBONARO E MORAIS TRANSPORTES LTDA - MERUA 13                                  NOSSA SENHORA D76380000GOIANESIA      GO0000000000000000                                                                       
1040001300075R 01000000000000000000000000000000000000000000000000220012018000000000000200                                                                                                                                                       
1040001300076P 0101298027300700000000000140000000000278241122027824          2002201800000000000590000000099N1903201822002201800000000000060000000000000000000000000000000000000000000000000000000027824                    3001090090000000000 
1040001300077Q 012024351838000198CARBONARO E MORAIS TRANSPORTES LTDA - MERUA 13                                  NOSSA SENHORA D76380000GOIANESIA      GO0000000000000000                                                                       
1040001300078R 01000000000000000000000000000000000000000000000000220022018000000000000200                                                                                                                                                       
1040001300079P 0101298027300700000000000140000000000278251122027825          2003201800000000000590000000099N1903201822003201800000000000060000000000000000000000000000000000000000000000000000000027825                    3001090090000000000 
1040001300080Q 012024351838000198CARBONARO E MORAIS TRANSPORTES LTDA - MERUA 13                                  NOSSA SENHORA D76380000GOIANESIA      GO0000000000000000                                                                       
1040001300081R 01000000000000000000000000000000000000000000000000220032018000000000000200                                                                                                                                                       
1040001300082P 0101298027300700000000000140000000000278261122027826          2004201800000000000590000000099N1903201822004201800000000000060000000000000000000000000000000000000000000000000000000027826                    3001090090000000000 
1040001300083Q 012024351838000198CARBONARO E MORAIS TRANSPORTES LTDA - MERUA 13                                  NOSSA SENHORA D76380000GOIANESIA      GO0000000000000000                                                                       
1040001300084R 01000000000000000000000000000000000000000000000000220042018000000000000200                                                                                                                                                       
1040001300085P 0101298027300700000000000140000000000278271122027827          2005201800000000000590000000099N1903201822005201800000000000060000000000000000000000000000000000000000000000000000000027827                    3001090090000000000 
1040001300086Q 012024351838000198CARBONARO E MORAIS TRANSPORTES LTDA - MERUA 13                                  NOSSA SENHORA D76380000GOIANESIA      GO0000000000000000                                                                       
1040001300087R 01000000000000000000000000000000000000000000000000220052018000000000000200                                                                                                                                                       
1040001300088P 0101298027300700000000000140000000000278281122027828          2006201800000000000590000000099N1903201822006201800000000000060000000000000000000000000000000000000000000000000000000027828                    3001090090000000000 
1040001300089Q 012024351838000198CARBONARO E MORAIS TRANSPORTES LTDA - MERUA 13                                  NOSSA SENHORA D76380000GOIANESIA      GO0000000000000000                                                                       
1040001300090R 01000000000000000000000000000000000000000000000000220062018000000000000200                                                                                                                                                       
1040001300091P 0101298027300700000000000140000000000278291122027829          2007201800000000000590000000099N1903201822007201800000000000060000000000000000000000000000000000000000000000000000000027829                    3001090090000000000 
1040001300092Q 012024351838000198CARBONARO E MORAIS TRANSPORTES LTDA - MERUA 13                                  NOSSA SENHORA D76380000GOIANESIA      GO0000000000000000                                                                       
1040001300093R 01000000000000000000000000000000000000000000000000220072018000000000000200                                                                                                                                                       
1040001300094P 0101298027300700000000000140000000000278301122027830          2008201800000000000590000000099N1903201822008201800000000000060000000000000000000000000000000000000000000000000000000027830                    3001090090000000000 
1040001300095Q 012024351838000198CARBONARO E MORAIS TRANSPORTES LTDA - MERUA 13                                  NOSSA SENHORA D76380000GOIANESIA      GO0000000000000000                                                                       
1040001300096R 01000000000000000000000000000000000000000000000000220082018000000000000200                                                                                                                                                       
1040001300097P 0101298027300700000000000140000000000278311122027831          2009201800000000000590000000099N1903201822009201800000000000060000000000000000000000000000000000000000000000000000000027831                    3001090090000000000 
1040001300098Q 012024351838000198CARBONARO E MORAIS TRANSPORTES LTDA - MERUA 13                                  NOSSA SENHORA D76380000GOIANESIA      GO0000000000000000                                                                       
1040001300099R 01000000000000000000000000000000000000000000000000220092018000000000000200                                                                                                                                                       
1040001300100P 0101298027300700000000000140000000000278321122027832          2010201800000000000590000000099N1903201822010201800000000000060000000000000000000000000000000000000000000000000000000027832                    3001090090000000000 
1040001300101Q 012024351838000198CARBONARO E MORAIS TRANSPORTES LTDA - MERUA 13                                  NOSSA SENHORA D76380000GOIANESIA      GO0000000000000000                                                                       
1040001300102R 01000000000000000000000000000000000000000000000000220102018000000000000200                                                                                                                                                       
1040001300103P 0101298027300700000000000140000000000278331122027833          2011201800000000000590000000099N1903201822011201800000000000060000000000000000000000000000000000000000000000000000000027833                    3001090090000000000 
1040001300104Q 012024351838000198CARBONARO E MORAIS TRANSPORTES LTDA - MERUA 13                                  NOSSA SENHORA D76380000GOIANESIA      GO0000000000000000                                                                       
1040001300105R 01000000000000000000000000000000000000000000000000220112018000000000000200                                                                                                                                                       
1040001300106P 0101298027300700000000000140000000000278341122027834          2012201800000000000590000000099N1903201822012201800000000000060000000000000000000000000000000000000000000000000000000027834                    3001090090000000000 
1040001300107Q 012024351838000198CARBONARO E MORAIS TRANSPORTES LTDA - MERUA 13                                  NOSSA SENHORA D76380000GOIANESIA      GO0000000000000000                                                                       
1040001300108R 01000000000000000000000000000000000000000000000000220122018000000000000200                                                                                                                                                       
1040001300109P 0101298027300700000000000140000000000278351122027835          2001201800000000000590000000099N1903201822001201800000000000060000000000000000000000000000000000000000000000000000000027835                    3001090090000000000 
1040001300110Q 012009575550000103CARRILHO E FERREIRA TRANSPORTE LTDA     RUA 18 N 67                             CENTRO         76380000GOIANESIA      GO0000000000000000                                                                       
1040001300111R 01000000000000000000000000000000000000000000000000220012018000000000000200                                                                                                                                                       
1040001300112P 0101298027300700000000000140000000000278361122027836          2002201800000000000590000000099N1903201822002201800000000000060000000000000000000000000000000000000000000000000000000027836                    3001090090000000000 
1040001300113Q 012009575550000103CARRILHO E FERREIRA TRANSPORTE LTDA     RUA 18 N 67                             CENTRO         76380000GOIANESIA      GO0000000000000000                                                                       
1040001300114R 01000000000000000000000000000000000000000000000000220022018000000000000200                                                                                                                                                       
1040001300115P 0101298027300700000000000140000000000278381122027838          2004201800000000000590000000099N1903201822004201800000000000060000000000000000000000000000000000000000000000000000000027838                    3001090090000000000 
1040001300116Q 012009575550000103CARRILHO E FERREIRA TRANSPORTE LTDA     RUA 18 N 67                             CENTRO         76380000GOIANESIA      GO0000000000000000                                                                       
1040001300117R 01000000000000000000000000000000000000000000000000220042018000000000000200                                                                                                                                                       
1040001300118P 0101298027300700000000000140000000000278391122027839          2005201800000000000590000000099N1903201822005201800000000000060000000000000000000000000000000000000000000000000000000027839                    3001090090000000000 
1040001300119Q 012009575550000103CARRILHO E FERREIRA TRANSPORTE LTDA     RUA 18 N 67                             CENTRO         76380000GOIANESIA      GO0000000000000000                                                                       
1040001300120R 01000000000000000000000000000000000000000000000000220052018000000000000200                                                                                                                                                       
1040001300121P 0101298027300700000000000140000000000278401122027840          2006201800000000000590000000099N1903201822006201800000000000060000000000000000000000000000000000000000000000000000000027840                    3001090090000000000 
1040001300122Q 012009575550000103CARRILHO E FERREIRA TRANSPORTE LTDA     RUA 18 N 67                             CENTRO         76380000GOIANESIA      GO0000000000000000                                                                       
1040001300123R 01000000000000000000000000000000000000000000000000220062018000000000000200                                                                                                                                                       
1040001300124P 0101298027300700000000000140000000000278411122027841          2007201800000000000590000000099N1903201822007201800000000000060000000000000000000000000000000000000000000000000000000027841                    3001090090000000000 
1040001300125Q 012009575550000103CARRILHO E FERREIRA TRANSPORTE LTDA     RUA 18 N 67                             CENTRO         76380000GOIANESIA      GO0000000000000000                                                                       
1040001300126R 01000000000000000000000000000000000000000000000000220072018000000000000200                                                                                                                                                       
1040001300127P 0101298027300700000000000140000000000278421122027842          2008201800000000000590000000099N1903201822008201800000000000060000000000000000000000000000000000000000000000000000000027842                    3001090090000000000 
1040001300128Q 012009575550000103CARRILHO E FERREIRA TRANSPORTE LTDA     RUA 18 N 67                             CENTRO         76380000GOIANESIA      GO0000000000000000                                                                       
1040001300129R 01000000000000000000000000000000000000000000000000220082018000000000000200                                                                                                                                                       
1040001300130P 0101298027300700000000000140000000000278431122027843          2009201800000000000590000000099N1903201822009201800000000000060000000000000000000000000000000000000000000000000000000027843                    3001090090000000000 
1040001300131Q 012009575550000103CARRILHO E FERREIRA TRANSPORTE LTDA     RUA 18 N 67                             CENTRO         76380000GOIANESIA      GO0000000000000000                                                                       
1040001300132R 01000000000000000000000000000000000000000000000000220092018000000000000200                                                                                                                                                       
1040001300133P 0101298027300700000000000140000000000278441122027844          2010201800000000000590000000099N1903201822010201800000000000060000000000000000000000000000000000000000000000000000000027844                    3001090090000000000 
1040001300134Q 012009575550000103CARRILHO E FERREIRA TRANSPORTE LTDA     RUA 18 N 67                             CENTRO         76380000GOIANESIA      GO0000000000000000                                                                       
1040001300135R 01000000000000000000000000000000000000000000000000220102018000000000000200                                                                                                                                                       
1040001300136P 0101298027300700000000000140000000000278451122027845          2011201800000000000590000000099N1903201822011201800000000000060000000000000000000000000000000000000000000000000000000027845                    3001090090000000000 
1040001300137Q 012009575550000103CARRILHO E FERREIRA TRANSPORTE LTDA     RUA 18 N 67                             CENTRO         76380000GOIANESIA      GO0000000000000000                                                                       
1040001300138R 01000000000000000000000000000000000000000000000000220112018000000000000200                                                                                                                                                       
1040001300139P 0101298027300700000000000140000000000278461122027846          2012201800000000000590000000099N1903201822012201800000000000060000000000000000000000000000000000000000000000000000000027846                    3001090090000000000 
1040001300140Q 012009575550000103CARRILHO E FERREIRA TRANSPORTE LTDA     RUA 18 N 67                             CENTRO         76380000GOIANESIA      GO0000000000000000                                                                       
1040001300141R 01000000000000000000000000000000000000000000000000220122018000000000000200                                                                                                                                                       
1040001300142P 0101298027300700000000000140000000000278471122027847          2003201900000000000100000000099N1903201822003201900000000000060000000000000000000000000000000000000000000000000000000027847                    3001090090000000000 
1040001300143Q 011000031983466140CLESIO CANDIDO FERREIRA                 AVENIDA CAFE                                           76350000RUBIATABA      GO0000000000000000                                                                       
1040001300144R 01000000000000000000000000000000000000000000000000220032019000000000000200                                                                                                                                                       
1040001300145P 0101298027300700000000000140000000000278481122027848          1506201800000000000295000000099N1903201821506201800000000000060000000000000000000000000000000000000000000000000000000027848                    3001090090000000000 
1040001300146Q 011000083563415153CRISTIANO SANTOS FILHO                  AVENIDA JK                              JARDIM PETROPOL76300000CERES          GO0000000000000000                                                                       
1040001300147R 01000000000000000000000000000000000000000000000000215062018000000000000200                                                                                                                                                       
1040001300148P 0101298027300700000000000140000000000278491122027849          1507201800000000000295000000099N1903201821507201800000000000060000000000000000000000000000000000000000000000000000000027849                    3001090090000000000 
1040001300149Q 011000083563415153CRISTIANO SANTOS FILHO                  AVENIDA JK                              JARDIM PETROPOL76300000CERES          GO0000000000000000                                                                       
1040001300150R 01000000000000000000000000000000000000000000000000215072018000000000000200                                                                                                                                                       
1040001300151P 0101298027300700000000000140000000000278501122027850          1508201800000000000295000000099N1903201821508201800000000000060000000000000000000000000000000000000000000000000000000027850                    3001090090000000000 
1040001300152Q 011000083563415153CRISTIANO SANTOS FILHO                  AVENIDA JK                              JARDIM PETROPOL76300000CERES          GO0000000000000000                                                                       
1040001300153R 01000000000000000000000000000000000000000000000000215082018000000000000200                                                                                                                                                       
1040001300154P 0101298027300700000000000140000000000278511122027851          1509201800000000000295000000099N1903201821509201800000000000060000000000000000000000000000000000000000000000000000000027851                    3001090090000000000 
1040001300155Q 011000083563415153CRISTIANO SANTOS FILHO                  AVENIDA JK                              JARDIM PETROPOL76300000CERES          GO0000000000000000                                                                       
1040001300156R 01000000000000000000000000000000000000000000000000215092018000000000000200                                                                                                                                                       
1040001300157P 0101298027300700000000000140000000000278521122027852          1510201800000000000295000000099N1903201821510201800000000000060000000000000000000000000000000000000000000000000000000027852                    3001090090000000000 
1040001300158Q 011000083563415153CRISTIANO SANTOS FILHO                  AVENIDA JK                              JARDIM PETROPOL76300000CERES          GO0000000000000000                                                                       
1040001300159R 01000000000000000000000000000000000000000000000000215102018000000000000200                                                                                                                                                       
1040001300160P 0101298027300700000000000140000000000278531122027853          1511201800000000000295000000099N1903201821511201800000000000060000000000000000000000000000000000000000000000000000000027853                    3001090090000000000 
1040001300161Q 011000083563415153CRISTIANO SANTOS FILHO                  AVENIDA JK                              JARDIM PETROPOL76300000CERES          GO0000000000000000                                                                       
1040001300162R 01000000000000000000000000000000000000000000000000215112018000000000000200                                                                                                                                                       
1040001300163P 0101298027300700000000000140000000000278541122027854          1512201800000000000295000000099N1903201821512201800000000000060000000000000000000000000000000000000000000000000000000027854                    3001090090000000000 
1040001300164Q 011000083563415153CRISTIANO SANTOS FILHO                  AVENIDA JK                              JARDIM PETROPOL76300000CERES          GO0000000000000000                                                                       
1040001300165R 01000000000000000000000000000000000000000000000000215122018000000000000200                                                                                                                                                       
1040001300166P 0101298027300700000000000140000000000278551122027855          1501201900000000000295000000099N1903201821501201900000000000060000000000000000000000000000000000000000000000000000000027855                    3001090090000000000 
1040001300167Q 011000083563415153CRISTIANO SANTOS FILHO                  AVENIDA JK                              JARDIM PETROPOL76300000CERES          GO0000000000000000                                                                       
1040001300168R 01000000000000000000000000000000000000000000000000215012019000000000000200                                                                                                                                                       
1040001300169P 0101298027300700000000000140000000000278561122027856          1502201900000000000295000000099N1903201821502201900000000000060000000000000000000000000000000000000000000000000000000027856                    3001090090000000000 
1040001300170Q 011000083563415153CRISTIANO SANTOS FILHO                  AVENIDA JK                              JARDIM PETROPOL76300000CERES          GO0000000000000000                                                                       
1040001300171R 01000000000000000000000000000000000000000000000000215022019000000000000200                                                                                                                                                       
1040001300172P 0101298027300700000000000140000000000278571122027857          1503201900000000000295000000099N1903201821503201900000000000060000000000000000000000000000000000000000000000000000000027857                    3001090090000000000 
1040001300173Q 011000083563415153CRISTIANO SANTOS FILHO                  AVENIDA JK                              JARDIM PETROPOL76300000CERES          GO0000000000000000                                                                       
1040001300174R 01000000000000000000000000000000000000000000000000215032019000000000000200                                                                                                                                                       
1040001300175P 0101298027300700000000000140000000000278581122027858          1504201900000000000295000000099N1903201821504201900000000000060000000000000000000000000000000000000000000000000000000027858                    3001090090000000000 
1040001300176Q 011000083563415153CRISTIANO SANTOS FILHO                  AVENIDA JK                              JARDIM PETROPOL76300000CERES          GO0000000000000000                                                                       
1040001300177R 01000000000000000000000000000000000000000000000000215042019000000000000200                                                                                                                                                       
1040001300178P 0101298027300700000000000140000000000278591122027859          1505201900000000000295000000099N1903201821505201900000000000060000000000000000000000000000000000000000000000000000000027859                    3001090090000000000 
1040001300179Q 011000083563415153CRISTIANO SANTOS FILHO                  AVENIDA JK                              JARDIM PETROPOL76300000CERES          GO0000000000000000                                                                       
1040001300180R 01000000000000000000000000000000000000000000000000215052019000000000000200                                                                                                                                                       
1040001300181P 0101298027300700000000000140000000000278601122027860          1505201800000000000295000000099N1903201821505201800000000000060000000000000000000000000000000000000000000000000000000027860                    3001090090000000000 
1040001300182Q 011000083563415153CRISTIANO SANTOS FILHO                  AVENIDA JK                              JARDIM PETROPOL76300000CERES          GO0000000000000000                                                                       
1040001300183R 01000000000000000000000000000000000000000000000000215052018000000000000200                                                                                                                                                       
1040001300184P 0101298027300700000000000140000000000278611122027861          0108201800000000000700000000099N1903201820108201800000000000060000000000000000000000000000000000000000000000000000000027861                    3001090090000000000 
1040001300185Q 011000047005556100DIVINA ALVES CORDEIRO                   RUA  02 N 91                            CENTRO         76310000RIALMA         GO0000000000000000                                                                       
1040001300186R 01000000000000000000000000000000000000000000000000201082018000000000000200                                                                                                                                                       
1040001300187P 0101298027300700000000000140000000000278621122027862          0109201800000000000700000000099N1903201820109201800000000000060000000000000000000000000000000000000000000000000000000027862                    3001090090000000000 
1040001300188Q 011000047005556100DIVINA ALVES CORDEIRO                   RUA  02 N 91                            CENTRO         76310000RIALMA         GO0000000000000000                                                                       
1040001300189R 01000000000000000000000000000000000000000000000000201092018000000000000200                                                                                                                                                       
1040001300190P 0101298027300700000000000140000000000278631122027863          0110201800000000000700000000099N1903201820110201800000000000060000000000000000000000000000000000000000000000000000000027863                    3001090090000000000 
1040001300191Q 011000047005556100DIVINA ALVES CORDEIRO                   RUA  02 N 91                            CENTRO         76310000RIALMA         GO0000000000000000                                                                       
1040001300192R 01000000000000000000000000000000000000000000000000201102018000000000000200                                                                                                                                                       
1040001300193P 0101298027300700000000000140000000000278641122027864          0111201800000000000700000000099N1903201820111201800000000000060000000000000000000000000000000000000000000000000000000027864                    3001090090000000000 
1040001300194Q 011000047005556100DIVINA ALVES CORDEIRO                   RUA  02 N 91                            CENTRO         76310000RIALMA         GO0000000000000000                                                                       
1040001300195R 01000000000000000000000000000000000000000000000000201112018000000000000200                                                                                                                                                       
1040001300196P 0101298027300700000000000140000000000278651122027865          0112201800000000000700000000099N1903201820112201800000000000060000000000000000000000000000000000000000000000000000000027865                    3001090090000000000 
1040001300197Q 011000047005556100DIVINA ALVES CORDEIRO                   RUA  02 N 91                            CENTRO         76310000RIALMA         GO0000000000000000                                                                       
1040001300198R 01000000000000000000000000000000000000000000000000201122018000000000000200                                                                                                                                                       
1040001300199P 0101298027300700000000000140000000000278661122027866          0101201900000000000700000000099N1903201820101201900000000000060000000000000000000000000000000000000000000000000000000027866                    3001090090000000000 
1040001300200Q 011000047005556100DIVINA ALVES CORDEIRO                   RUA  02 N 91                            CENTRO         76310000RIALMA         GO0000000000000000                                                                       
1040001300201R 01000000000000000000000000000000000000000000000000201012019000000000000200                                                                                                                                                       
1040001300202P 0101298027300700000000000140000000000278671122027867          0102201900000000000700000000099N1903201820102201900000000000060000000000000000000000000000000000000000000000000000000027867                    3001090090000000000 
1040001300203Q 011000047005556100DIVINA ALVES CORDEIRO                   RUA  02 N 91                            CENTRO         76310000RIALMA         GO0000000000000000                                                                       
1040001300204R 01000000000000000000000000000000000000000000000000201022019000000000000200                                                                                                                                                       
1040001300205P 0101298027300700000000000140000000000278681122027868          0103201900000000000700000000099N1903201820103201900000000000060000000000000000000000000000000000000000000000000000000027868                    3001090090000000000 
1040001300206Q 011000047005556100DIVINA ALVES CORDEIRO                   RUA  02 N 91                            CENTRO         76310000RIALMA         GO0000000000000000                                                                       
1040001300207R 01000000000000000000000000000000000000000000000000201032019000000000000200                                                                                                                                                       
1040001300208P 0101298027300700000000000140000000000278691122027869          0104201900000000000700000000099N1903201820104201900000000000060000000000000000000000000000000000000000000000000000000027869                    3001090090000000000 
1040001300209Q 011000047005556100DIVINA ALVES CORDEIRO                   RUA  02 N 91                            CENTRO         76310000RIALMA         GO0000000000000000                                                                       
1040001300210R 01000000000000000000000000000000000000000000000000201042019000000000000200                                                                                                                                                       
1040001300211P 0101298027300700000000000140000000000278701122027870          0105201900000000000700000000099N1903201820105201900000000000060000000000000000000000000000000000000000000000000000000027870                    3001090090000000000 
1040001300212Q 011000047005556100DIVINA ALVES CORDEIRO                   RUA  02 N 91                            CENTRO         76310000RIALMA         GO0000000000000000                                                                       
1040001300213R 01000000000000000000000000000000000000000000000000201052019000000000000200                                                                                                                                                       
1040001300214P 0101298027300700000000000140000000000278711122027871          0106201900000000000700000000099N1903201820106201900000000000060000000000000000000000000000000000000000000000000000000027871                    3001090090000000000 
1040001300215Q 011000047005556100DIVINA ALVES CORDEIRO                   RUA  02 N 91                            CENTRO         76310000RIALMA         GO0000000000000000                                                                       
1040001300216R 01000000000000000000000000000000000000000000000000201062019000000000000200                                                                                                                                                       
1040001300217P 0101298027300700000000000140000000000278721122027872          0107201900000000000700000000099N1903201820107201900000000000060000000000000000000000000000000000000000000000000000000027872                    3001090090000000000 
1040001300218Q 011000047005556100DIVINA ALVES CORDEIRO                   RUA  02 N 91                            CENTRO         76310000RIALMA         GO0000000000000000                                                                       
1040001300219R 01000000000000000000000000000000000000000000000000201072019000000000000200                                                                                                                                                       
1040001300220P 0101298027300700000000000140000000000278731122027873          0502201800000000002950000000099N1903201820502201800000000000060000000000000000000000000000000000000000000000000000000027873                    3001090090000000000 
1040001300221Q 012011215135000190ENGERMANOS ENGENHARIA LTDA              AV SAO LUIZ                                            74371440GOIANIA        GO0000000000000000                                                                       
1040001300222R 01000000000000000000000000000000000000000000000000205022018000000000000200                                                                                                                                                       
1040001300223P 0101298027300700000000000140000000000278741122027874          0503201800000000002950000000099N1903201820503201800000000000060000000000000000000000000000000000000000000000000000000027874                    3001090090000000000 
1040001300224Q 012011215135000190ENGERMANOS ENGENHARIA LTDA              AV SAO LUIZ                                            74371440GOIANIA        GO0000000000000000                                                                       
1040001300225R 01000000000000000000000000000000000000000000000000205032018000000000000200                                                                                                                                                       
1040001300226P 0101298027300700000000000140000000000278751122027875          0504201800000000002950000000099N1903201820504201800000000000060000000000000000000000000000000000000000000000000000000027875                    3001090090000000000 
1040001300227Q 012011215135000190ENGERMANOS ENGENHARIA LTDA              AV SAO LUIZ                                            74371440GOIANIA        GO0000000000000000                                                                       
1040001300228R 01000000000000000000000000000000000000000000000000205042018000000000000200                                                                                                                                                       
1040001300229P 0101298027300700000000000140000000000278761122027876          0505201800000000002950000000099N1903201820505201800000000000060000000000000000000000000000000000000000000000000000000027876                    3001090090000000000 
1040001300230Q 012011215135000190ENGERMANOS ENGENHARIA LTDA              AV SAO LUIZ                                            74371440GOIANIA        GO0000000000000000                                                                       
1040001300231R 01000000000000000000000000000000000000000000000000205052018000000000000200                                                                                                                                                       
1040001300232P 0101298027300700000000000140000000000278771122027877          0506201800000000002950000000099N1903201820506201800000000000060000000000000000000000000000000000000000000000000000000027877                    3001090090000000000 
1040001300233Q 012011215135000190ENGERMANOS ENGENHARIA LTDA              AV SAO LUIZ                                            74371440GOIANIA        GO0000000000000000                                                                       
1040001300234R 01000000000000000000000000000000000000000000000000205062018000000000000200                                                                                                                                                       
1040001300235P 0101298027300700000000000140000000000278781122027878          0507201800000000002950000000099N1903201820507201800000000000060000000000000000000000000000000000000000000000000000000027878                    3001090090000000000 
1040001300236Q 012011215135000190ENGERMANOS ENGENHARIA LTDA              AV SAO LUIZ                                            74371440GOIANIA        GO0000000000000000                                                                       
1040001300237R 01000000000000000000000000000000000000000000000000205072018000000000000200                                                                                                                                                       
1040001300238P 0101298027300700000000000140000000000278791122027879          0508201800000000002950000000099N1903201820508201800000000000060000000000000000000000000000000000000000000000000000000027879                    3001090090000000000 
1040001300239Q 012011215135000190ENGERMANOS ENGENHARIA LTDA              AV SAO LUIZ                                            74371440GOIANIA        GO0000000000000000                                                                       
1040001300240R 01000000000000000000000000000000000000000000000000205082018000000000000200                                                                                                                                                       
1040001300241P 0101298027300700000000000140000000000278801122027880          0509201800000000002950000000099N1903201820509201800000000000060000000000000000000000000000000000000000000000000000000027880                    3001090090000000000 
1040001300242Q 012011215135000190ENGERMANOS ENGENHARIA LTDA              AV SAO LUIZ                                            74371440GOIANIA        GO0000000000000000                                                                       
1040001300243R 01000000000000000000000000000000000000000000000000205092018000000000000200                                                                                                                                                       
1040001300244P 0101298027300700000000000140000000000278811122027881          0510201800000000002950000000099N1903201820510201800000000000060000000000000000000000000000000000000000000000000000000027881                    3001090090000000000 
1040001300245Q 012011215135000190ENGERMANOS ENGENHARIA LTDA              AV SAO LUIZ                                            74371440GOIANIA        GO0000000000000000                                                                       
1040001300246R 01000000000000000000000000000000000000000000000000205102018000000000000200                                                                                                                                                       
1040001300247P 0101298027300700000000000140000000000278821122027882          0511201800000000002950000000099N1903201820511201800000000000060000000000000000000000000000000000000000000000000000000027882                    3001090090000000000 
1040001300248Q 012011215135000190ENGERMANOS ENGENHARIA LTDA              AV SAO LUIZ                                            74371440GOIANIA        GO0000000000000000                                                                       
1040001300249R 01000000000000000000000000000000000000000000000000205112018000000000000200                                                                                                                                                       
1040001300250P 0101298027300700000000000140000000000278831122027883          0512201800000000002950000000099N1903201820512201800000000000060000000000000000000000000000000000000000000000000000000027883                    3001090090000000000 
1040001300251Q 012011215135000190ENGERMANOS ENGENHARIA LTDA              AV SAO LUIZ                                            74371440GOIANIA        GO0000000000000000                                                                       
1040001300252R 01000000000000000000000000000000000000000000000000205122018000000000000200                                                                                                                                                       
1040001300253P 0101298027300700000000000140000000000278841122027884          0501201900000000002950000000099N1903201820501201900000000000060000000000000000000000000000000000000000000000000000000027884                    3001090090000000000 
1040001300254Q 012011215135000190ENGERMANOS ENGENHARIA LTDA              AV SAO LUIZ                                            74371440GOIANIA        GO0000000000000000                                                                       
1040001300255R 01000000000000000000000000000000000000000000000000205012019000000000000200                                                                                                                                                       
1040001300256P 0101298027300700000000000140000000000278851122027885          1007201800000000000499000000099N1903201821007201800000000000060000000000000000000000000000000000000000000000000000000027885                    3001090090000000000 
1040001300257Q 011000000824426142BRUNO CARNEIRO FERREIRA                 AVENIDA BERNADO SAYAO                   CENTRO         76300000CERES          GO0000000000000000                                                                       
1040001300258R 01000000000000000000000000000000000000000000000000210072018000000000000200                                                                                                                                                       
1040001300259P 0101298027300700000000000140000000000278861122027886          1008201800000000000499000000099N1903201821008201800000000000060000000000000000000000000000000000000000000000000000000027886                    3001090090000000000 
1040001300260Q 011000000824426142BRUNO CARNEIRO FERREIRA                 AVENIDA BERNADO SAYAO                   CENTRO         76300000CERES          GO0000000000000000                                                                       
1040001300261R 01000000000000000000000000000000000000000000000000210082018000000000000200                                                                                                                                                       
1040001300262P 0101298027300700000000000140000000000278871122027887          1009201800000000000499000000099N1903201821009201800000000000060000000000000000000000000000000000000000000000000000000027887                    3001090090000000000 
1040001300263Q 011000000824426142BRUNO CARNEIRO FERREIRA                 AVENIDA BERNADO SAYAO                   CENTRO         76300000CERES          GO0000000000000000                                                                       
1040001300264R 01000000000000000000000000000000000000000000000000210092018000000000000200                                                                                                                                                       
1040001300265P 0101298027300700000000000140000000000278881122027888          1010201800000000000499000000099N1903201821010201800000000000060000000000000000000000000000000000000000000000000000000027888                    3001090090000000000 
1040001300266Q 011000000824426142BRUNO CARNEIRO FERREIRA                 AVENIDA BERNADO SAYAO                   CENTRO         76300000CERES          GO0000000000000000                                                                       
1040001300267R 01000000000000000000000000000000000000000000000000210102018000000000000200                                                                                                                                                       
1040001300268P 0101298027300700000000000140000000000278891122027889          1011201800000000000499000000099N1903201821011201800000000000060000000000000000000000000000000000000000000000000000000027889                    3001090090000000000 
1040001300269Q 011000000824426142BRUNO CARNEIRO FERREIRA                 AVENIDA BERNADO SAYAO                   CENTRO         76300000CERES          GO0000000000000000                                                                       
1040001300270R 01000000000000000000000000000000000000000000000000210112018000000000000200                                                                                                                                                       
1040001300271P 0101298027300700000000000140000000000278901122027890          1012201800000000000499000000099N1903201821012201800000000000060000000000000000000000000000000000000000000000000000000027890                    3001090090000000000 
1040001300272Q 011000000824426142BRUNO CARNEIRO FERREIRA                 AVENIDA BERNADO SAYAO                   CENTRO         76300000CERES          GO0000000000000000                                                                       
1040001300273R 01000000000000000000000000000000000000000000000000210122018000000000000200                                                                                                                                                       
1040001300274P 0101298027300700000000000140000000000278911122027891          1001201900000000000499000000099N1903201821001201900000000000060000000000000000000000000000000000000000000000000000000027891                    3001090090000000000 
1040001300275Q 011000000824426142BRUNO CARNEIRO FERREIRA                 AVENIDA BERNADO SAYAO                   CENTRO         76300000CERES          GO0000000000000000                                                                       
1040001300276R 01000000000000000000000000000000000000000000000000210012019000000000000200                                                                                                                                                       
1040001300277P 0101298027300700000000000140000000000278921122027892          1002201900000000000499000000099N1903201821002201900000000000060000000000000000000000000000000000000000000000000000000027892                    3001090090000000000 
1040001300278Q 011000000824426142BRUNO CARNEIRO FERREIRA                 AVENIDA BERNADO SAYAO                   CENTRO         76300000CERES          GO0000000000000000                                                                       
1040001300279R 01000000000000000000000000000000000000000000000000210022019000000000000200                                                                                                                                                       
1040001300280P 0101298027300700000000000140000000000278931122027893          1003201900000000000499000000099N1903201821003201900000000000060000000000000000000000000000000000000000000000000000000027893                    3001090090000000000 
1040001300281Q 011000000824426142BRUNO CARNEIRO FERREIRA                 AVENIDA BERNADO SAYAO                   CENTRO         76300000CERES          GO0000000000000000                                                                       
1040001300282R 01000000000000000000000000000000000000000000000000210032019000000000000200                                                                                                                                                       
1040001300283P 0101298027300700000000000140000000000278941122027894          1004201900000000000499000000099N1903201821004201900000000000060000000000000000000000000000000000000000000000000000000027894                    3001090090000000000 
1040001300284Q 011000000824426142BRUNO CARNEIRO FERREIRA                 AVENIDA BERNADO SAYAO                   CENTRO         76300000CERES          GO0000000000000000                                                                       
1040001300285R 01000000000000000000000000000000000000000000000000210042019000000000000200                                                                                                                                                       
1040001300286P 0101298027300700000000000140000000000278951122027895          1005201900000000000499000000099N1903201821005201900000000000060000000000000000000000000000000000000000000000000000000027895                    3001090090000000000 
1040001300287Q 011000000824426142BRUNO CARNEIRO FERREIRA                 AVENIDA BERNADO SAYAO                   CENTRO         76300000CERES          GO0000000000000000                                                                       
1040001300288R 01000000000000000000000000000000000000000000000000210052019000000000000200                                                                                                                                                       
1040001300289P 0101298027300700000000000140000000000278961122027896          1006201900000000000499000000099N1903201821006201900000000000060000000000000000000000000000000000000000000000000000000027896                    3001090090000000000 
1040001300290Q 011000000824426142BRUNO CARNEIRO FERREIRA                 AVENIDA BERNADO SAYAO                   CENTRO         76300000CERES          GO0000000000000000                                                                       
1040001300291R 01000000000000000000000000000000000000000000000000210062019000000000000200                                                                                                                                                       
1040001300292P 0101298027300700000000000140000000000278971122027897          1008201800000000000499000000099N1903201821008201800000000000060000000000000000000000000000000000000000000000000000000027897                    3001090090000000000 
1040001300293Q 011000001839696184EDILEI JOSE PEREIRA                     RUA BOTAFOGO QD 3 LT 8                  COLINA PARK    76386500GOIANESIA      GO0000000000000000                                                                       
1040001300294R 01000000000000000000000000000000000000000000000000210082018000000000000200                                                                                                                                                       
1040001300295P 0101298027300700000000000140000000000278981122027898          1009201800000000000499000000099N1903201821009201800000000000060000000000000000000000000000000000000000000000000000000027898                    3001090090000000000 
1040001300296Q 011000001839696184EDILEI JOSE PEREIRA                     RUA BOTAFOGO QD 3 LT 8                  COLINA PARK    76386500GOIANESIA      GO0000000000000000                                                                       
1040001300297R 01000000000000000000000000000000000000000000000000210092018000000000000200                                                                                                                                                       
1040001300298P 0101298027300700000000000140000000000278991122027899          1010201800000000000499000000099N1903201821010201800000000000060000000000000000000000000000000000000000000000000000000027899                    3001090090000000000 
1040001300299Q 011000001839696184EDILEI JOSE PEREIRA                     RUA BOTAFOGO QD 3 LT 8                  COLINA PARK    76386500GOIANESIA      GO0000000000000000                                                                       
1040001300300R 01000000000000000000000000000000000000000000000000210102018000000000000200                                                                                                                                                       
1040001300301P 0101298027300700000000000140000000000279001122027900          1011201800000000000499000000099N1903201821011201800000000000060000000000000000000000000000000000000000000000000000000027900                    3001090090000000000 
1040001300302Q 011000001839696184EDILEI JOSE PEREIRA                     RUA BOTAFOGO QD 3 LT 8                  COLINA PARK    76386500GOIANESIA      GO0000000000000000                                                                       
1040001300303R 01000000000000000000000000000000000000000000000000210112018000000000000200                                                                                                                                                       
1040001300304P 0101298027300700000000000140000000000279011122027901          1012201800000000000499000000099N1903201821012201800000000000060000000000000000000000000000000000000000000000000000000027901                    3001090090000000000 
1040001300305Q 011000001839696184EDILEI JOSE PEREIRA                     RUA BOTAFOGO QD 3 LT 8                  COLINA PARK    76386500GOIANESIA      GO0000000000000000                                                                       
1040001300306R 01000000000000000000000000000000000000000000000000210122018000000000000200                                                                                                                                                       
1040001300307P 0101298027300700000000000140000000000279021122027902          1001201900000000000499000000099N1903201821001201900000000000060000000000000000000000000000000000000000000000000000000027902                    3001090090000000000 
1040001300308Q 011000001839696184EDILEI JOSE PEREIRA                     RUA BOTAFOGO QD 3 LT 8                  COLINA PARK    76386500GOIANESIA      GO0000000000000000                                                                       
1040001300309R 01000000000000000000000000000000000000000000000000210012019000000000000200                                                                                                                                                       
1040001300310P 0101298027300700000000000140000000000279031122027903          1002201900000000000499000000099N1903201821002201900000000000060000000000000000000000000000000000000000000000000000000027903                    3001090090000000000 
1040001300311Q 011000001839696184EDILEI JOSE PEREIRA                     RUA BOTAFOGO QD 3 LT 8                  COLINA PARK    76386500GOIANESIA      GO0000000000000000                                                                       
1040001300312R 01000000000000000000000000000000000000000000000000210022019000000000000200                                                                                                                                                       
1040001300313P 0101298027300700000000000140000000000279041122027904          1003201900000000000499000000099N1903201821003201900000000000060000000000000000000000000000000000000000000000000000000027904                    3001090090000000000 
1040001300314Q 011000001839696184EDILEI JOSE PEREIRA                     RUA BOTAFOGO QD 3 LT 8                  COLINA PARK    76386500GOIANESIA      GO0000000000000000                                                                       
1040001300315R 01000000000000000000000000000000000000000000000000210032019000000000000200                                                                                                                                                       
1040001300316P 0101298027300700000000000140000000000279051122027905          1004201900000000000499000000099N1903201821004201900000000000060000000000000000000000000000000000000000000000000000000027905                    3001090090000000000 
1040001300317Q 011000001839696184EDILEI JOSE PEREIRA                     RUA BOTAFOGO QD 3 LT 8                  COLINA PARK    76386500GOIANESIA      GO0000000000000000                                                                       
1040001300318R 01000000000000000000000000000000000000000000000000210042019000000000000200                                                                                                                                                       
1040001300319P 0101298027300700000000000140000000000279061122027906          1005201900000000000499000000099N1903201821005201900000000000060000000000000000000000000000000000000000000000000000000027906                    3001090090000000000 
1040001300320Q 011000001839696184EDILEI JOSE PEREIRA                     RUA BOTAFOGO QD 3 LT 8                  COLINA PARK    76386500GOIANESIA      GO0000000000000000                                                                       
1040001300321R 01000000000000000000000000000000000000000000000000210052019000000000000200                                                                                                                                                       
1040001300322P 0101298027300700000000000140000000000279071122027907          1006201900000000000499000000099N1903201821006201900000000000060000000000000000000000000000000000000000000000000000000027907                    3001090090000000000 
1040001300323Q 011000001839696184EDILEI JOSE PEREIRA                     RUA BOTAFOGO QD 3 LT 8                  COLINA PARK    76386500GOIANESIA      GO0000000000000000                                                                       
1040001300324R 01000000000000000000000000000000000000000000000000210062019000000000000200                                                                                                                                                       
1040001300325P 0101298027300700000000000140000000000279081122027908          1007201900000000000499000000099N1903201821007201900000000000060000000000000000000000000000000000000000000000000000000027908                    3001090090000000000 
1040001300326Q 011000001839696184EDILEI JOSE PEREIRA                     RUA BOTAFOGO QD 3 LT 8                  COLINA PARK    76386500GOIANESIA      GO0000000000000000                                                                       
1040001300327R 01000000000000000000000000000000000000000000000000210072019000000000000200                                                                                                                                                       
1040001300328P 0101298027300700000000000140000000000279101122027910          2007201800000000000590000000099N1903201822007201800000000000060000000000000000000000000000000000000000000000000000000027910                    3001090090000000000 
1040001300329Q 011000040121356191ELISIO CHAGAS DE CARVALHO               RUA 23 N 261                            ST OESTE       76380000GOIANESIA      GO0000000000000000                                                                       
1040001300330R 01000000000000000000000000000000000000000000000000220072018000000000000200                                                                                                                                                       
1040001300331P 0101298027300700000000000140000000000279111122027911          2008201800000000000590000000099N1903201822008201800000000000060000000000000000000000000000000000000000000000000000000027911                    3001090090000000000 
1040001300332Q 011000040121356191ELISIO CHAGAS DE CARVALHO               RUA 23 N 261                            ST OESTE       76380000GOIANESIA      GO0000000000000000                                                                       
1040001300333R 01000000000000000000000000000000000000000000000000220082018000000000000200                                                                                                                                                       
1040001300334P 0101298027300700000000000140000000000279121122027912          2009201800000000000590000000099N1903201822009201800000000000060000000000000000000000000000000000000000000000000000000027912                    3001090090000000000 
1040001300335Q 011000040121356191ELISIO CHAGAS DE CARVALHO               RUA 23 N 261                            ST OESTE       76380000GOIANESIA      GO0000000000000000                                                                       
1040001300336R 01000000000000000000000000000000000000000000000000220092018000000000000200                                                                                                                                                       
1040001300337P 0101298027300700000000000140000000000279131122027913          2010201800000000000590000000099N1903201822010201800000000000060000000000000000000000000000000000000000000000000000000027913                    3001090090000000000 
1040001300338Q 011000040121356191ELISIO CHAGAS DE CARVALHO               RUA 23 N 261                            ST OESTE       76380000GOIANESIA      GO0000000000000000                                                                       
1040001300339R 01000000000000000000000000000000000000000000000000220102018000000000000200                                                                                                                                                       
1040001300340P 0101298027300700000000000140000000000279141122027914          2011201800000000000590000000099N1903201822011201800000000000060000000000000000000000000000000000000000000000000000000027914                    3001090090000000000 
1040001300341Q 011000040121356191ELISIO CHAGAS DE CARVALHO               RUA 23 N 261                            ST OESTE       76380000GOIANESIA      GO0000000000000000                                                                       
1040001300342R 01000000000000000000000000000000000000000000000000220112018000000000000200                                                                                                                                                       
1040001300343P 0101298027300700000000000140000000000279151122027915          2012201800000000000590000000099N1903201822012201800000000000060000000000000000000000000000000000000000000000000000000027915                    3001090090000000000 
1040001300344Q 011000040121356191ELISIO CHAGAS DE CARVALHO               RUA 23 N 261                            ST OESTE       76380000GOIANESIA      GO0000000000000000                                                                       
1040001300345R 01000000000000000000000000000000000000000000000000220122018000000000000200                                                                                                                                                       
1040001300346P 0101298027300700000000000140000000000279161122027916          2001201900000000000590000000099N1903201822001201900000000000060000000000000000000000000000000000000000000000000000000027916                    3001090090000000000 
1040001300347Q 011000040121356191ELISIO CHAGAS DE CARVALHO               RUA 23 N 261                            ST OESTE       76380000GOIANESIA      GO0000000000000000                                                                       
1040001300348R 01000000000000000000000000000000000000000000000000220012019000000000000200                                                                                                                                                       
1040001300349P 0101298027300700000000000140000000000279171122027917          2002201900000000000590000000099N1903201822002201900000000000060000000000000000000000000000000000000000000000000000000027917                    3001090090000000000 
1040001300350Q 011000040121356191ELISIO CHAGAS DE CARVALHO               RUA 23 N 261                            ST OESTE       76380000GOIANESIA      GO0000000000000000                                                                       
1040001300351R 01000000000000000000000000000000000000000000000000220022019000000000000200                                                                                                                                                       
1040001300352P 0101298027300700000000000140000000000279181122027918          2003201900000000000590000000099N1903201822003201900000000000060000000000000000000000000000000000000000000000000000000027918                    3001090090000000000 
1040001300353Q 011000040121356191ELISIO CHAGAS DE CARVALHO               RUA 23 N 261                            ST OESTE       76380000GOIANESIA      GO0000000000000000                                                                       
1040001300354R 01000000000000000000000000000000000000000000000000220032019000000000000200                                                                                                                                                       
1040001300355P 0101298027300700000000000140000000000279191122027919          2004201900000000000590000000099N1903201822004201900000000000060000000000000000000000000000000000000000000000000000000027919                    3001090090000000000 
1040001300356Q 011000040121356191ELISIO CHAGAS DE CARVALHO               RUA 23 N 261                            ST OESTE       76380000GOIANESIA      GO0000000000000000                                                                       
1040001300357R 01000000000000000000000000000000000000000000000000220042019000000000000200                                                                                                                                                       
1040001300358P 0101298027300700000000000140000000000279201122027920          2005201900000000000590000000099N1903201822005201900000000000060000000000000000000000000000000000000000000000000000000027920                    3001090090000000000 
1040001300359Q 011000040121356191ELISIO CHAGAS DE CARVALHO               RUA 23 N 261                            ST OESTE       76380000GOIANESIA      GO0000000000000000                                                                       
1040001300360R 01000000000000000000000000000000000000000000000000220052019000000000000200                                                                                                                                                       
1040001300361P 0101298027300700000000000140000000000279211122027921          1007201800000000000399000000099N1903201821007201800000000000060000000000000000000000000000000000000000000000000000000027921                    3001090090000000000 
1040001300362Q 011000001801577102FABRICIO LAURIO NUNES                   RUA 6                                   SAO FRANCISCO  76300000CERES          GO0000000000000000                                                                       
1040001300363R 01000000000000000000000000000000000000000000000000210072018000000000000200                                                                                                                                                       
1040001300364P 0101298027300700000000000140000000000279221122027922          1008201800000000000399000000099N1903201821008201800000000000060000000000000000000000000000000000000000000000000000000027922                    3001090090000000000 
1040001300365Q 011000001801577102FABRICIO LAURIO NUNES                   RUA 6                                   SAO FRANCISCO  76300000CERES          GO0000000000000000                                                                       
1040001300366R 01000000000000000000000000000000000000000000000000210082018000000000000200                                                                                                                                                       
1040001300367P 0101298027300700000000000140000000000279231122027923          1009201800000000000399000000099N1903201821009201800000000000060000000000000000000000000000000000000000000000000000000027923                    3001090090000000000 
1040001300368Q 011000001801577102FABRICIO LAURIO NUNES                   RUA 6                                   SAO FRANCISCO  76300000CERES          GO0000000000000000                                                                       
1040001300369R 01000000000000000000000000000000000000000000000000210092018000000000000200                                                                                                                                                       
1040001300370P 0101298027300700000000000140000000000279241122027924          1010201800000000000399000000099N1903201821010201800000000000060000000000000000000000000000000000000000000000000000000027924                    3001090090000000000 
1040001300371Q 011000001801577102FABRICIO LAURIO NUNES                   RUA 6                                   SAO FRANCISCO  76300000CERES          GO0000000000000000                                                                       
1040001300372R 01000000000000000000000000000000000000000000000000210102018000000000000200                                                                                                                                                       
1040001300373P 0101298027300700000000000140000000000279251122027925          1011201800000000000399000000099N1903201821011201800000000000060000000000000000000000000000000000000000000000000000000027925                    3001090090000000000 
1040001300374Q 011000001801577102FABRICIO LAURIO NUNES                   RUA 6                                   SAO FRANCISCO  76300000CERES          GO0000000000000000                                                                       
1040001300375R 01000000000000000000000000000000000000000000000000210112018000000000000200                                                                                                                                                       
1040001300376P 0101298027300700000000000140000000000279261122027926          1012201800000000000399000000099N1903201821012201800000000000060000000000000000000000000000000000000000000000000000000027926                    3001090090000000000 
1040001300377Q 011000001801577102FABRICIO LAURIO NUNES                   RUA 6                                   SAO FRANCISCO  76300000CERES          GO0000000000000000                                                                       
1040001300378R 01000000000000000000000000000000000000000000000000210122018000000000000200                                                                                                                                                       
1040001300379P 0101298027300700000000000140000000000279271122027927          1001201900000000000399000000099N1903201821001201900000000000060000000000000000000000000000000000000000000000000000000027927                    3001090090000000000 
1040001300380Q 011000001801577102FABRICIO LAURIO NUNES                   RUA 6                                   SAO FRANCISCO  76300000CERES          GO0000000000000000                                                                       
1040001300381R 01000000000000000000000000000000000000000000000000210012019000000000000200                                                                                                                                                       
1040001300382P 0101298027300700000000000140000000000279281122027928          1002201900000000000399000000099N1903201821002201900000000000060000000000000000000000000000000000000000000000000000000027928                    3001090090000000000 
1040001300383Q 011000001801577102FABRICIO LAURIO NUNES                   RUA 6                                   SAO FRANCISCO  76300000CERES          GO0000000000000000                                                                       
1040001300384R 01000000000000000000000000000000000000000000000000210022019000000000000200                                                                                                                                                       
1040001300385P 0101298027300700000000000140000000000279291122027929          1003201900000000000399000000099N1903201821003201900000000000060000000000000000000000000000000000000000000000000000000027929                    3001090090000000000 
1040001300386Q 011000001801577102FABRICIO LAURIO NUNES                   RUA 6                                   SAO FRANCISCO  76300000CERES          GO0000000000000000                                                                       
1040001300387R 01000000000000000000000000000000000000000000000000210032019000000000000200                                                                                                                                                       
1040001300388P 0101298027300700000000000140000000000279301122027930          1004201900000000000399000000099N1903201821004201900000000000060000000000000000000000000000000000000000000000000000000027930                    3001090090000000000 
1040001300389Q 011000001801577102FABRICIO LAURIO NUNES                   RUA 6                                   SAO FRANCISCO  76300000CERES          GO0000000000000000                                                                       
1040001300390R 01000000000000000000000000000000000000000000000000210042019000000000000200                                                                                                                                                       
1040001300391P 0101298027300700000000000140000000000279311122027931          1005201900000000000399000000099N1903201821005201900000000000060000000000000000000000000000000000000000000000000000000027931                    3001090090000000000 
1040001300392Q 011000001801577102FABRICIO LAURIO NUNES                   RUA 6                                   SAO FRANCISCO  76300000CERES          GO0000000000000000                                                                       
1040001300393R 01000000000000000000000000000000000000000000000000210052019000000000000200                                                                                                                                                       
1040001300394P 0101298027300700000000000140000000000279321122027932          1006201900000000000399000000099N1903201821006201900000000000060000000000000000000000000000000000000000000000000000000027932                    3001090090000000000 
1040001300395Q 011000001801577102FABRICIO LAURIO NUNES                   RUA 6                                   SAO FRANCISCO  76300000CERES          GO0000000000000000                                                                       
1040001300396R 01000000000000000000000000000000000000000000000000210062019000000000000200                                                                                                                                                       
1040001300397P 0101298027300700000000000140000000000279331122027933          2001201800000000000399000000099N1903201822001201800000000000060000000000000000000000000000000000000000000000000000000027933                    3001090090000000000 
1040001300398Q 012022485154000153FRANK NEIFFE FERREIRA CECILIO - ME      RUA DA AMORA N 43 QD21                  NOVA FIICA     76380000GOIANESIA      GO0000000000000000                                                                       
1040001300399R 01000000000000000000000000000000000000000000000000220012018000000000000200                                                                                                                                                       
1040001300400P 0101298027300700000000000140000000000279341122027934          2002201800000000000399000000099N1903201822002201800000000000060000000000000000000000000000000000000000000000000000000027934                    3001090090000000000 
1040001300401Q 012022485154000153FRANK NEIFFE FERREIRA CECILIO - ME      RUA DA AMORA N 43 QD21                  NOVA FIICA     76380000GOIANESIA      GO0000000000000000                                                                       
1040001300402R 01000000000000000000000000000000000000000000000000220022018000000000000200                                                                                                                                                       
1040001300403P 0101298027300700000000000140000000000279351122027935          2003201800000000000399000000099N1903201822003201800000000000060000000000000000000000000000000000000000000000000000000027935                    3001090090000000000 
1040001300404Q 012022485154000153FRANK NEIFFE FERREIRA CECILIO - ME      RUA DA AMORA N 43 QD21                  NOVA FIICA     76380000GOIANESIA      GO0000000000000000                                                                       
1040001300405R 01000000000000000000000000000000000000000000000000220032018000000000000200                                                                                                                                                       
1040001300406P 0101298027300700000000000140000000000279361122027936          2004201800000000000590000000099N1903201822004201800000000000060000000000000000000000000000000000000000000000000000000027936                    3001090090000000000 
1040001300407Q 012022485154000153FRANK NEIFFE FERREIRA CECILIO - ME      RUA DA AMORA N 43 QD21                  NOVA FIICA     76380000GOIANESIA      GO0000000000000000                                                                       
1040001300408R 01000000000000000000000000000000000000000000000000220042018000000000000200                                                                                                                                                       
1040001300409P 0101298027300700000000000140000000000279371122027937          2005201800000000000590000000099N1903201822005201800000000000060000000000000000000000000000000000000000000000000000000027937                    3001090090000000000 
1040001300410Q 012022485154000153FRANK NEIFFE FERREIRA CECILIO - ME      RUA DA AMORA N 43 QD21                  NOVA FIICA     76380000GOIANESIA      GO0000000000000000                                                                       
1040001300411R 01000000000000000000000000000000000000000000000000220052018000000000000200                                                                                                                                                       
1040001300412P 0101298027300700000000000140000000000279381122027938          2006201800000000000590000000099N1903201822006201800000000000060000000000000000000000000000000000000000000000000000000027938                    3001090090000000000 
