10400000         2116559540001590000000000000000000001298027300700000000FEDERAL SISTEMAS              CAIXA ECONOMICA FEDERAL                 11010201806490400020005000000                    REMESSA-PRODUCAO                                 
10400011R0100030 20116559540001592730070000000000000001298027300700000000FEDERAL SISTEMAS                                                                                              000002001010201800000000                                 
1040001300001P 0101298027300700000000000140000000000374301122037430          1510201800000000024264000000099N1010201821510201800000000000060000000000000000000000000000000000000000000000000000000037430                    3001029090000000000 
1040001300002Q 012020771562000146LOCALIZA GOIAS LTDA - ME                AV. PRESIDENTE VARGAS                   CENTRO         76300000CERES          GO0000000000000000                                                                       
1040001300003R 01000000000000000000000000000000000000000000000000215102018000000000000200                                                                                                                                                       
1040001300004P 0101298027300700000000000140000000000374311122037431          1510201800000000004650000000099N1010201821510201800000000000060000000000000000000000000000000000000000000000000000000037431                    3001029090000000000 
1040001300005Q 012011963712000122BJ SAT TENCOLOGIA EM RESTREAMENTO       AV. PRESIDENTE VARGAS                   CENTRO         76300000CERES          GO0000000000000000                                                                       
1040001300006R 01000000000000000000000000000000000000000000000000215102018000000000000200                                                                                                                                                       
1040001300007P 0101298027300700000000000140000000000374321122037432          1510201800000000018603000000099N1010201821510201800000000000060000000000000000000000000000000000000000000000000000000037432                    3001029090000000000 
1040001300008Q 012011088454000182FERDINAND BATISTA DE ARAUJO - ME        AV. PRESIDENTE VARGAS                   CENTRO         76300000CERES          GO0000000000000000                                                                       
1040001300009R 01000000000000000000000000000000000000000000000000215102018000000000000200                                                                                                                                                       
1040001300010P 0101298027300700000000000140000000000374331122037433          1510201800000000001794000000099N1010201821510201800000000000060000000000000000000000000000000000000000000000000000000037433                    3001029090000000000 
1040001300011Q 012001640145000110ONE CITY GPS EQUIP ELETRONICOS LTDA ME  AV. PRESIDENTE VARGAS                   CENTRO         76300000CERES          GO0000000000000000                                                                       
1040001300012R 01000000000000000000000000000000000000000000000000215102018000000000000200                                                                                                                                                       
1040001300013P 0101298027300700000000000140000000000374341122037434          1510201800000000010647000000099N1010201821510201800000000000060000000000000000000000000000000000000000000000000000000037434                    3001029090000000000 
1040001300014Q 012004626774000183M F LIMA CARNEIRO E CIA LTDA - EPP      AV. PRESIDENTE VARGAS                   CENTRO         76300000CERES          GO0000000000000000                                                                       
1040001300015R 01000000000000000000000000000000000000000000000000215102018000000000000200                                                                                                                                                       
1040001300016P 0101298027300700000000000140000000000374351122037435          1510201800000000005928000000099N1010201821510201800000000000060000000000000000000000000000000000000000000000000000000037435                    3001029090000000000 
1040001300017Q 011000044705190300ROGERIO H. MAZUAD                       AV. PRESIDENTE VARGAS                   CENTRO         76300000CERES          GO0000000000000000                                                                       
1040001300018R 01000000000000000000000000000000000000000000000000215102018000000000000200                                                                                                                                                       
1040001300019P 0101298027300700000000000140000000000374361122037436          1510201800000000014495500000099N1010201821510201800000000000060000000000000000000000000000000000000000000000000000000037436                    3001029090000000000 
1040001300020Q 012018765152000140CAMILA REGO DA SILVA ARAGAO ME          AV. PRESIDENTE VARGAS                   CENTRO         76300000CERES          GO0000000000000000                                                                       
1040001300021R 01000000000000000000000000000000000000000000000000215102018000000000000200                                                                                                                                                       
1040001300022P 0101298027300700000000000140000000000374371122037437          1510201800000000003926000000099N1010201821510201800000000000060000000000000000000000000000000000000000000000000000000037437                    3001029090000000000 
1040001300023Q 011000001488919348GERSON GAMA LEAL                        AV. PRESIDENTE VARGAS                   CENTRO         76300000CERES          GO0000000000000000                                                                       
1040001300024R 01000000000000000000000000000000000000000000000000215102018000000000000200                                                                                                                                                       
1040001300025P 0101298027300700000000000140000000000374381122037438          1510201800000000007800000000099N1010201821510201800000000000060000000000000000000000000000000000000000000000000000000037438                    3001029090000000000 
1040001300026Q 012019677627000100ELITE SEGURANCA ELETR E MONITORAMENTO   AV. PRESIDENTE VARGAS                   CENTRO         76300000CERES          GO0000000000000000                                                                       
1040001300027R 01000000000000000000000000000000000000000000000000215102018000000000000200                                                                                                                                                       
1040001300028P 0101298027300700000000000140000000000374391122037439          1510201800000000003042000000099N1010201821510201800000000000060000000000000000000000000000000000000000000000000000000037439                    3001029090000000000 
1040001300029Q 012022379734000166J DE A F DA SILVA - ME                  AV. PRESIDENTE VARGAS                   CENTRO         76300000CERES          GO0000000000000000                                                                       
1040001300030R 01000000000000000000000000000000000000000000000000215102018000000000000200                                                                                                                                                       
1040001300031P 0101298027300700000000000140000000000374411122037441          1510201800000000002418000000099N1010201821510201800000000000060000000000000000000000000000000000000000000000000000000037441                    3001029090000000000 
1040001300032Q 012017055560000146ALVES DA SILVA E GAMA LEAL LTDA - ME    AV. PRESIDENTE VARGAS                   CENTRO         76300000CERES          GO0000000000000000                                                                       
1040001300033R 01000000000000000000000000000000000000000000000000215102018000000000000200                                                                                                                                                       
1040001300034P 0101298027300700000000000140000000000374421122037442          1510201800000000014835000000099N1010201821510201800000000000060000000000000000000000000000000000000000000000000000000037442                    3001029090000000000 
1040001300035Q 012018707079000150SYSROTA EIRELI - ME                     AV. PRESIDENTE VARGAS                   CENTRO         76300000CERES          GO0000000000000000                                                                       
1040001300036R 01000000000000000000000000000000000000000000000000215102018000000000000200                                                                                                                                                       
1040001300037P 0101298027300700000000000140000000000374431122037443          1510201800000000001926000000099N1010201821510201800000000000060000000000000000000000000000000000000000000000000000000037443                    3001029090000000000 
1040001300038Q 012023606665000149M2 DO BRASIL MONITORAMENTO ONLINE EIRELIAV. PRESIDENTE VARGAS                   CENTRO         76300000CERES          GO0000000000000000                                                                       
1040001300039R 01000000000000000000000000000000000000000000000000215102018000000000000200                                                                                                                                                       
1040001300040P 0101298027300700000000000140000000000374441122037444          1510201800000000007046000000099N1010201821510201800000000000060000000000000000000000000000000000000000000000000000000037444                    3001029090000000000 
1040001300041Q 012000097489000161LA VIDAL E CIA LTDA - EPP               AV. PRESIDENTE VARGAS                   CENTRO         76300000CERES          GO0000000000000000                                                                       
1040001300042R 01000000000000000000000000000000000000000000000000215102018000000000000200                                                                                                                                                       
1040001300043P 0101298027300700000000000140000000000374451122037445          1510201800000000015300000000099N1010201821510201800000000000060000000000000000000000000000000000000000000000000000000037445                    3001029090000000000 
1040001300044Q 012018072993000172LEAL COMERCIO VAREJISTA EIRELI ME       AV. PRESIDENTE VARGAS                   CENTRO         76300000CERES          GO0000000000000000                                                                       
1040001300045R 01000000000000000000000000000000000000000000000000215102018000000000000200                                                                                                                                                       
1040001300046P 0101298027300700000000000140000000000374471122037447          1510201800000000000198000000099N1010201821510201800000000000060000000000000000000000000000000000000000000000000000000037447                    3001029090000000000 
1040001300047Q 011000031179567862FABIO FRANCO BONANATI                   AV. PRESIDENTE VARGAS                   CENTRO         76300000CERES          GO0000000000000000                                                                       
1040001300048R 01000000000000000000000000000000000000000000000000215102018000000000000200                                                                                                                                                       
1040001300049P 0101298027300700000000000140000000000374481122037448          1510201800000000005044000000099N1010201821510201800000000000060000000000000000000000000000000000000000000000000000000037448                    3001029090000000000 
1040001300050Q 011000072435968272GEORGE WILLTON SANTOS PEREIRA           AV. PRESIDENTE VARGAS                   CENTRO         76300000CERES          GO0000000000000000                                                                       
1040001300051R 01000000000000000000000000000000000000000000000000215102018000000000000200                                                                                                                                                       
1040001300052P 0101298027300700000000000140000000000374491122037449          1510201800000000009300000000099N1010201821510201800000000000060000000000000000000000000000000000000000000000000000000037449                    3001029090000000000 
1040001300053Q 011000011646215729DOMINGOS RONIVALDO DA SILVA RUFINO      AV. PRESIDENTE VARGAS                   CENTRO         76300000CERES          GO0000000000000000                                                                       
1040001300054R 01000000000000000000000000000000000000000000000000215102018000000000000200                                                                                                                                                       
1040001300055P 0101298027300700000000000140000000000374501122037450          1510201800000000003354000000099N1010201821510201800000000000060000000000000000000000000000000000000000000000000000000037450                    3001029090000000000 
1040001300056Q 011000050477285520ARNALDO BATISTA                         AV. PRESIDENTE VARGAS                   CENTRO         76300000CERES          GO0000000000000000                                                                       
1040001300057R 01000000000000000000000000000000000000000000000000215102018000000000000200                                                                                                                                                       
1040001300058P 0101298027300700000000000140000000000374511122037451          1510201800000000000396000000099N1010201821510201800000000000060000000000000000000000000000000000000000000000000000000037451                    3001029090000000000 
1040001300059Q 011000010936180781ANDRE LUIZ OLIVEIRA ATAIDE              AV. PRESIDENTE VARGAS                   CENTRO         76300000CERES          GO0000000000000000                                                                       
1040001300060R 01000000000000000000000000000000000000000000000000215102018000000000000200                                                                                                                                                       
1040001300061P 0101298027300700000000000140000000000374521122037452          1510201800000000000418000000099N1010201821510201800000000000060000000000000000000000000000000000000000000000000000000037452                    3001029090000000000 
1040001300062Q 011000007767300960BRUNO DA SILVA NASCIMENTO               AV. PRESIDENTE VARGAS                   CENTRO         76300000CERES          GO0000000000000000                                                                       
1040001300063R 01000000000000000000000000000000000000000000000000215102018000000000000200                                                                                                                                                       
1040001300064P 0101298027300700000000000140000000000374531122037453          1510201800000000000367000000099N1010201821510201800000000000060000000000000000000000000000000000000000000000000000000037453                    3001029090000000000 
1040001300065Q 011000004012365525GILMAR SILVA SAMPAIO                    AV. PRESIDENTE VARGAS                   CENTRO         76300000CERES          GO0000000000000000                                                                       
1040001300066R 01000000000000000000000000000000000000000000000000215102018000000000000200                                                                                                                                                       
1040001300067P 0101298027300700000000000140000000000374541122037454          1510201800000000000495000000099N1010201821510201800000000000060000000000000000000000000000000000000000000000000000000037454                    3001029090000000000 
1040001300068Q 011000008105070642HARLEY TEIXEIRA DE FREITAS              AV. PRESIDENTE VARGAS                   CENTRO         76300000CERES          GO0000000000000000                                                                       
1040001300069R 01000000000000000000000000000000000000000000000000215102018000000000000200                                                                                                                                                       
1040001300070P 0101298027300700000000000140000000000374551122037455          1510201800000000011175000000099N1010201821510201800000000000060000000000000000000000000000000000000000000000000000000037455                    3001029090000000000 
1040001300071Q 011000007032342779MARCELO SOARES                          AV. PRESIDENTE VARGAS                   CENTRO         76300000CERES          GO0000000000000000                                                                       
1040001300072R 01000000000000000000000000000000000000000000000000215102018000000000000200                                                                                                                                                       
1040001300073P 0101298027300700000000000140000000000374561122037456          1510201800000000000198000000099N1010201821510201800000000000060000000000000000000000000000000000000000000000000000000037456                    3001029090000000000 
1040001300074Q 011000007406488459FRANCINALDO MENDES VENANCIO             AV. PRESIDENTE VARGAS                   CENTRO         76300000CERES          GO0000000000000000                                                                       
1040001300075R 01000000000000000000000000000000000000000000000000215102018000000000000200                                                                                                                                                       
1040001300076P 0101298027300700000000000140000000000374571122037457          1510201800000000000702000000099N1010201821510201800000000000060000000000000000000000000000000000000000000000000000000037457                    3001029090000000000 
1040001300077Q 012015598500000144WR COMERCIO E SERVICOS LTDA - EPP       AV. PRESIDENTE VARGAS                   CENTRO         76300000CERES          GO0000000000000000                                                                       
1040001300078R 01000000000000000000000000000000000000000000000000215102018000000000000200                                                                                                                                                       
1040001300079P 0101298027300700000000000140000000000374581122037458          1510201800000000006448000000099N1010201821510201800000000000060000000000000000000000000000000000000000000000000000000037458                    3001029090000000000 
1040001300080Q 011000005460942608FLAVIO MUNIZ DE ALMEIDA                 AV. PRESIDENTE VARGAS                   CENTRO         76300000CERES          GO0000000000000000                                                                       
1040001300081R 01000000000000000000000000000000000000000000000000215102018000000000000200                                                                                                                                                       
1040001300082P 0101298027300700000000000140000000000374591122037459          1510201800000000000624000000099N1010201821510201800000000000060000000000000000000000000000000000000000000000000000000037459                    3001029090000000000 
1040001300083Q 011000005221241781WENDEL MARMO                            AV. PRESIDENTE VARGAS                   CENTRO         76300000CERES          GO0000000000000000                                                                       
1040001300084R 01000000000000000000000000000000000000000000000000215102018000000000000200                                                                                                                                                       
1040001300085P 0101298027300700000000000140000000000374601122037460          1510201800000000001092000000099N1010201821510201800000000000060000000000000000000000000000000000000000000000000000000037460                    3001029090000000000 
1040001300086Q 012024598464000100E S NASCIMENTO SISTEMAS DE MONITORAMENTOAV. PRESIDENTE VARGAS                   CENTRO         76300000CERES          GO0000000000000000                                                                       
1040001300087R 01000000000000000000000000000000000000000000000000215102018000000000000200                                                                                                                                                       
1040001300088P 0101298027300700000000000140000000000374611122037461          1510201800000000004380000000099N1010201821510201800000000000060000000000000000000000000000000000000000000000000000000037461                    3001029090000000000 
1040001300089Q 011000030931320534LUIZ ANTONIO FRANCA DE CARVALHO         AV. PRESIDENTE VARGAS                   CENTRO         76300000CERES          GO0000000000000000                                                                       
1040001300090R 01000000000000000000000000000000000000000000000000215102018000000000000200                                                                                                                                                       
1040001300091P 0101298027300700000000000140000000000374621122037462          1510201800000000000858000000099N1010201821510201800000000000060000000000000000000000000000000000000000000000000000000037462                    3001029090000000000 
1040001300092Q 011000060768932220CARLOS EDUARDO DE OLIVEIRA MIRANDA      AV. PRESIDENTE VARGAS                   CENTRO         76300000CERES          GO0000000000000000                                                                       
1040001300093R 01000000000000000000000000000000000000000000000000215102018000000000000200                                                                                                                                                       
1040001300094P 0101298027300700000000000140000000000374631122037463          1510201800000000009675000000099N1010201821510201800000000000060000000000000000000000000000000000000000000000000000000037463                    3001029090000000000 
1040001300095Q 011000015348812803MARCIO ALVES DOS SANTOS / FABIANA       AV. PRESIDENTE VARGAS                   CENTRO         76300000CERES          GO0000000000000000                                                                       
1040001300096R 01000000000000000000000000000000000000000000000000215102018000000000000200                                                                                                                                                       
1040001300097P 0101298027300700000000000140000000000374641122037464          1510201800000000009514000000099N1010201821510201800000000000060000000000000000000000000000000000000000000000000000000037464                    3001029090000000000 
1040001300098Q 011000073981362268CHARLES LOPES                           AV. PRESIDENTE VARGAS                   CENTRO         76300000CERES          GO0000000000000000                                                                       
1040001300099R 01000000000000000000000000000000000000000000000000215102018000000000000200                                                                                                                                                       
1040001300100P 0101298027300700000000000140000000000374651122037465          1510201800000000000396000000099N1010201821510201800000000000060000000000000000000000000000000000000000000000000000000037465                    3001029090000000000 
1040001300101Q 011000063619164649SERGIO GOLGHER                          AV. PRESIDENTE VARGAS                   CENTRO         76300000CERES          GO0000000000000000                                                                       
1040001300102R 01000000000000000000000000000000000000000000000000215102018000000000000200                                                                                                                                                       
1040001300103P 0101298027300700000000000140000000000374661122037466          1510201800000000024769100000099N1010201821510201800000000000060000000000000000000000000000000000000000000000000000000037466                    3001029090000000000 
1040001300104Q 011000006751341610CRISTIANO RODRIGO DE MORAES BORGES      AV. PRESIDENTE VARGAS                   CENTRO         76300000CERES          GO0000000000000000                                                                       
1040001300105R 01000000000000000000000000000000000000000000000000215102018000000000000200                                                                                                                                                       
1040001300106P 0101298027300700000000000140000000000374671122037467          1510201800000000035840000000099N1010201821510201800000000000060000000000000000000000000000000000000000000000000000000037467                    3001029090000000000 
1040001300107Q 011000065973232204CARLOS DEANE LIMA DE SOUZA              AV. PRESIDENTE VARGAS                   CENTRO         76300000CERES          GO0000000000000000                                                                       
1040001300108R 01000000000000000000000000000000000000000000000000215102018000000000000200                                                                                                                                                       
1040001300109P 0101298027300700000000000140000000000374681122037468          1510201800000000000078000000099N1010201821510201800000000000060000000000000000000000000000000000000000000000000000000037468                    3001029090000000000 
1040001300110Q 011000008577593452ANTONIO CARLOS                          AV. PRESIDENTE VARGAS                   CENTRO         76300000CERES          GO0000000000000000                                                                       
1040001300111R 01000000000000000000000000000000000000000000000000215102018000000000000200                                                                                                                                                       
1040001300112P 0101298027300700000000000140000000000374691122037469          1510201800000000000078000000099N1010201821510201800000000000060000000000000000000000000000000000000000000000000000000037469                    3001029090000000000 
1040001300113Q 011000007041857921MARCELO MARTINS VIEIRA JUNIOR           AV. PRESIDENTE VARGAS                   CENTRO         76300000CERES          GO0000000000000000                                                                       
1040001300114R 01000000000000000000000000000000000000000000000000215102018000000000000200                                                                                                                                                       
1040001300115P 0101298027300700000000000140000000000374701122037470          1510201800000000000546000000099N1010201821510201800000000000060000000000000000000000000000000000000000000000000000000037470                    3001029090000000000 
1040001300116Q 011000008398525762VICTOR FERNANDES PAES                   AV. PRESIDENTE VARGAS                   CENTRO         76300000CERES          GO0000000000000000                                                                       
1040001300117R 01000000000000000000000000000000000000000000000000215102018000000000000200                                                                                                                                                       
1040001300118P 0101298027300700000000000140000000000374711122037471          1510201800000000000616000000099N1010201821510201800000000000060000000000000000000000000000000000000000000000000000000037471                    3001029090000000000 
1040001300119Q 011000002795229323ANDREIDE JOSE SILVA                     AV. PRESIDENTE VARGAS                   CENTRO         76300000CERES          GO0000000000000000                                                                       
1040001300120R 01000000000000000000000000000000000000000000000000215102018000000000000200                                                                                                                                                       
1040001300121P 0101298027300700000000000140000000000374721122037472          1510201800000000040248000000099N1010201821510201800000000000060000000000000000000000000000000000000000000000000000000037472                    3001029090000000000 
1040001300122Q 011000060005553342JOSE AIRTON DE SOUSA ALMEIDA            AV. PRESIDENTE VARGAS                   CENTRO         76300000CERES          GO0000000000000000                                                                       
1040001300123R 01000000000000000000000000000000000000000000000000215102018000000000000200                                                                                                                                                       
1040001300124P 0101298027300700000000000140000000000374731122037473          1510201800000000000624000000099N1010201821510201800000000000060000000000000000000000000000000000000000000000000000000037473                    3001029090000000000 
1040001300125Q 011000007302713588ALEXSANDER BARBOSA                      AV. PRESIDENTE VARGAS                   CENTRO         76300000CERES          GO0000000000000000                                                                       
1040001300126R 01000000000000000000000000000000000000000000000000215102018000000000000200                                                                                                                                                       
1040001300127P 0101298027300700000000000140000000000374741122037474          1510201800000000001170000000099N1010201821510201800000000000060000000000000000000000000000000000000000000000000000000037474                    3001029090000000000 
1040001300128Q 011000011483301788CAIO CARDOSO                            AV. PRESIDENTE VARGAS                   CENTRO         76300000CERES          GO0000000000000000                                                                       
1040001300129R 01000000000000000000000000000000000000000000000000215102018000000000000200                                                                                                                                                       
1040001300130P 0101298027300700000000000140000000000374751122037475          1510201800000000000936000000099N1010201821510201800000000000060000000000000000000000000000000000000000000000000000000037475                    3001029090000000000 
1040001300131Q 011000002701961882JOSE LUIZ ALBERTO SOBRINHO              AV. PRESIDENTE VARGAS                   CENTRO         76300000CERES          GO0000000000000000                                                                       
1040001300132R 01000000000000000000000000000000000000000000000000215102018000000000000200                                                                                                                                                       
1040001300133P 0101298027300700000000000140000000000374761122037476          1510201800000000000297000000099N1010201821510201800000000000060000000000000000000000000000000000000000000000000000000037476                    3001029090000000000 
1040001300134Q 011000087630451334EVERARDO GOMES DE ARAUJO                AV. PRESIDENTE VARGAS                   CENTRO         76300000CERES          GO0000000000000000                                                                       
1040001300135R 01000000000000000000000000000000000000000000000000215102018000000000000200                                                                                                                                                       
1040001300136P 0101298027300700000000000140000000000374771122037477          1510201800000000003510000000099N1010201821510201800000000000060000000000000000000000000000000000000000000000000000000037477                    3001029090000000000 
1040001300137Q 011000008479656786FERNANDO JOSE SIQUEIRA DE MAGALHAES BASTAV. PRESIDENTE VARGAS                   CENTRO         76300000CERES          GO0000000000000000                                                                       
1040001300138R 01000000000000000000000000000000000000000000000000215102018000000000000200                                                                                                                                                       
1040001300139P 0101298027300700000000000140000000000374781122037478          1510201800000000000078000000099N1010201821510201800000000000060000000000000000000000000000000000000000000000000000000037478                    3001029090000000000 
1040001300140Q 011000004267859914DOUGLAS BORGES                          AV. PRESIDENTE VARGAS                   CENTRO         76300000CERES          GO0000000000000000                                                                       
1040001300141R 01000000000000000000000000000000000000000000000000215102018000000000000200                                                                                                                                                       
1040001300142P 0101298027300700000000000140000000000374791122037479          1510201800000000010530000000099N1010201821510201800000000000060000000000000000000000000000000000000000000000000000000037479                    3001029090000000000 
1040001300143Q 012031074419000111RASTRO RS SERVICOS DE MONITORAMENTO EIREAV. PRESIDENTE VARGAS                   CENTRO         76300000CERES          GO0000000000000000                                                                       
1040001300144R 01000000000000000000000000000000000000000000000000215102018000000000000200                                                                                                                                                       
1040001300145P 0101298027300700000000000140000000000374801122037480          1510201800000000001092000000099N1010201821510201800000000000060000000000000000000000000000000000000000000000000000000037480                    3001029090000000000 
1040001300146Q 011000004601350662FRANKLIN LIMA                           AV. PRESIDENTE VARGAS                   CENTRO         76300000CERES          GO0000000000000000                                                                       
1040001300147R 01000000000000000000000000000000000000000000000000215102018000000000000200                                                                                                                                                       
1040001300148P 0101298027300700000000000140000000000374811122037481          1510201800000000001950000000099N1010201821510201800000000000060000000000000000000000000000000000000000000000000000000037481                    3001029090000000000 
1040001300149Q 011000057194270072EBER BELEM                              AV. PRESIDENTE VARGAS                   CENTRO         76300000CERES          GO0000000000000000                                                                       
1040001300150R 01000000000000000000000000000000000000000000000000215102018000000000000200                                                                                                                                                       
1040001300151P 0101298027300700000000000140000000000374821122037482          1510201800000000017175000000099N1010201821510201800000000000060000000000000000000000000000000000000000000000000000000037482                    3001029090000000000 
1040001300152Q 011000003908501369PEDRO HENRIQUE BESSA GURGEL             AV. PRESIDENTE VARGAS                   CENTRO         76300000CERES          GO0000000000000000                                                                       
1040001300153R 01000000000000000000000000000000000000000000000000215102018000000000000200                                                                                                                                                       
1040001300154P 0101298027300700000000000140000000000374831122037483          1510201800000000008764000000099N1010201821510201800000000000060000000000000000000000000000000000000000000000000000000037483                    3001029090000000000 
1040001300155Q 011000003434917454FABIO MENDONCA FERREIRA                 AV. PRESIDENTE VARGAS                   CENTRO         76300000CERES          GO0000000000000000                                                                       
1040001300156R 01000000000000000000000000000000000000000000000000215102018000000000000200                                                                                                                                                       
1040001300157P 0101298027300700000000000140000000000374841122037484          1510201800000000004446000000099N1010201821510201800000000000060000000000000000000000000000000000000000000000000000000037484                    3001029090000000000 
1040001300158Q 011000000912863285LEONARDO ROCHA DA SILVA                 AV. PRESIDENTE VARGAS                   CENTRO         76300000CERES          GO0000000000000000                                                                       
1040001300159R 01000000000000000000000000000000000000000000000000215102018000000000000200                                                                                                                                                       
1040001300160P 0101298027300700000000000140000000000374851122037485          1510201800000000003354000000099N1010201821510201800000000000060000000000000000000000000000000000000000000000000000000037485                    3001029090000000000 
1040001300161Q 011000093293259715WILSON MARTINS CARREIRA                 AV. PRESIDENTE VARGAS                   CENTRO         76300000CERES          GO0000000000000000                                                                       
1040001300162R 01000000000000000000000000000000000000000000000000215102018000000000000200                                                                                                                                                       
1040001300163P 0101298027300700000000000140000000000374861122037486          1510201800000000000198000000099N1010201821510201800000000000060000000000000000000000000000000000000000000000000000000037486                    3001029090000000000 
1040001300164Q 011000003700881746LAZARO TUBARAO                          AV. PRESIDENTE VARGAS                   CENTRO         76300000CERES          GO0000000000000000                                                                       
1040001300165R 01000000000000000000000000000000000000000000000000215102018000000000000200                                                                                                                                                       
1040001300166P 0101298027300700000000000140000000000374871122037487          1510201800000000000338000000099N1010201821510201800000000000060000000000000000000000000000000000000000000000000000000037487                    3001029090000000000 
1040001300167Q 011000003765813443JOSE ADRIANO LINO DE LIMA (CASA DA CONSTAV. PRESIDENTE VARGAS                   CENTRO         76300000CERES          GO0000000000000000                                                                       
1040001300168R 01000000000000000000000000000000000000000000000000215102018000000000000200                                                                                                                                                       
1040001300169P 0101298027300700000000000140000000000374881122037488          1510201800000000000198000000099N1010201821510201800000000000060000000000000000000000000000000000000000000000000000000037488                    3001029090000000000 
1040001300170Q 012015290483000183ICARO SIMAS                             AV. PRESIDENTE VARGAS                   CENTRO         76300000CERES          GO0000000000000000                                                                       
1040001300171R 01000000000000000000000000000000000000000000000000215102018000000000000200                                                                                                                                                       
1040001300172P 0101298027300700000000000140000000000374891122037489          1510201800000000000198000000099N1010201821510201800000000000060000000000000000000000000000000000000000000000000000000037489                    3001029090000000000 
1040001300173Q 011000028187156104LUZIA CONCEICAO ALVES                   AV. PRESIDENTE VARGAS                   CENTRO         76300000CERES          GO0000000000000000                                                                       
1040001300174R 01000000000000000000000000000000000000000000000000215102018000000000000200                                                                                                                                                       
1040001300175P 0101298027300700000000000140000000000374901122037490          1510201800000000001820000000099N1010201821510201800000000000060000000000000000000000000000000000000000000000000000000037490                    3001029090000000000 
1040001300176Q 011000047403705300JAIRO ROCHA                             AV. PRESIDENTE VARGAS                   CENTRO         76300000CERES          GO0000000000000000                                                                       
1040001300177R 01000000000000000000000000000000000000000000000000215102018000000000000200                                                                                                                                                       
1040001300178P 0101298027300700000000000140000000000374911122037491          1510201800000000000078000000099N1010201821510201800000000000060000000000000000000000000000000000000000000000000000000037491                    3001029090000000000 
1040001300179Q 011000002086194102CARLOS ALBERTO ALMEIDA RODRIGUES        AV. PRESIDENTE VARGAS                   CENTRO         76300000CERES          GO0000000000000000                                                                       
1040001300180R 01000000000000000000000000000000000000000000000000215102018000000000000200                                                                                                                                                       
1040001300181P 0101298027300700000000000140000000000374921122037492          1510201800000000059460000000099N1010201821510201800000000000060000000000000000000000000000000000000000000000000000000037492                    3001029090000000000 
1040001300182Q 012015686018000166SRS TECNOLOGIA E SEGURANCA-SAMUEL       AV. PRESIDENTE VARGAS                   CENTRO         76300000CERES          GO0000000000000000                                                                       
1040001300183R 01000000000000000000000000000000000000000000000000215102018000000000000200                                                                                                                                                       
1040001300184P 0101298027300700000000000140000000000374931122037493          1510201800000000000078000000099N1010201821510201800000000000060000000000000000000000000000000000000000000000000000000037493                    3001029090000000000 
1040001300185Q 011000009613933786NILSON CARVALHO                         AV. PRESIDENTE VARGAS                   CENTRO         76300000CERES          GO0000000000000000                                                                       
1040001300186R 01000000000000000000000000000000000000000000000000215102018000000000000200                                                                                                                                                       
1040001300187P 0101298027300700000000000140000000000374941122037494          1510201800000000000546000000099N1010201821510201800000000000060000000000000000000000000000000000000000000000000000000037494                    3001029090000000000 
1040001300188Q 011000009533034700HIGO BRAGA FONSECA E SILVA              AV. PRESIDENTE VARGAS                   CENTRO         76300000CERES          GO0000000000000000                                                                       
1040001300189R 01000000000000000000000000000000000000000000000000215102018000000000000200                                                                                                                                                       
1040001300190P 0101298027300700000000000140000000000374951122037495          1510201800000000000297000000099N1010201821510201800000000000060000000000000000000000000000000000000000000000000000000037495                    3001029090000000000 
1040001300191Q 011000004200874199JEFFERSON CHAVES DA SILVA               AV. PRESIDENTE VARGAS                   CENTRO         76300000CERES          GO0000000000000000                                                                       
1040001300192R 01000000000000000000000000000000000000000000000000215102018000000000000200                                                                                                                                                       
1040001300193P 0101298027300700000000000140000000000374961122037496          1510201800000000040636100000099N1010201821510201800000000000060000000000000000000000000000000000000000000000000000000037496                    3001029090000000000 
1040001300194Q 012022790326000100ULTRA SOLUCOES EM SERVICOS DA TECNOLOGIAAV. PRESIDENTE VARGAS                   CENTRO         76300000CERES          GO0000000000000000                                                                       
1040001300195R 01000000000000000000000000000000000000000000000000215102018000000000000200                                                                                                                                                       
1040001300196P 0101298027300700000000000140000000000374971122037497          1510201800000000012385600000099N1010201821510201800000000000060000000000000000000000000000000000000000000000000000000037497                    3001029090000000000 
1040001300197Q 011000084430133972MICHELY LIMA                            AV. PRESIDENTE VARGAS                   CENTRO         76300000CERES          GO0000000000000000                                                                       
1040001300198R 01000000000000000000000000000000000000000000000000215102018000000000000200                                                                                                                                                       
1040001300199P 0101298027300700000000000140000000000374981122037498          1510201800000000001248000000099N1010201821510201800000000000060000000000000000000000000000000000000000000000000000000037498                    3001029090000000000 
1040001300200Q 011000000147721679WANDERSON ASSUNCAO DA SILVA             AV. PRESIDENTE VARGAS                   CENTRO         76300000CERES          GO0000000000000000                                                                       
1040001300201R 01000000000000000000000000000000000000000000000000215102018000000000000200                                                                                                                                                       
1040001300202P 0101298027300700000000000140000000000374991122037499          1510201800000000000198000000099N1010201821510201800000000000060000000000000000000000000000000000000000000000000000000037499                    3001029090000000000 
1040001300203Q 011000056052995300EDMAR OLIVEIRA GUEDES  JUNIOR           AV. PRESIDENTE VARGAS                   CENTRO         76300000CERES          GO0000000000000000                                                                       
1040001300204R 01000000000000000000000000000000000000000000000000215102018000000000000200                                                                                                                                                       
1040001300205P 0101298027300700000000000140000000000375001122037500          1510201800000000000198000000099N1010201821510201800000000000060000000000000000000000000000000000000000000000000000000037500                    3001029090000000000 
1040001300206Q 0120315 289 960 20CARLOS ROBERTO GARCIA                   AV. PRESIDENTE VARGAS                   CENTRO         76300000CERES          GO0000000000000000                                                                       
1040001300207R 01000000000000000000000000000000000000000000000000215102018000000000000200                                                                                                                                                       
1040001300208P 0101298027300700000000000140000000000375011122037501          1510201800000000000078000000099N1010201821510201800000000000060000000000000000000000000000000000000000000000000000000037501                    3001029090000000000 
1040001300209Q 011000002523867362FRANCIVALDO FEITOSA                     AV. PRESIDENTE VARGAS                   CENTRO         76300000CERES          GO0000000000000000                                                                       
1040001300210R 01000000000000000000000000000000000000000000000000215102018000000000000200                                                                                                                                                       
1040001300211P 0101298027300700000000000140000000000375021122037502          1510201800000000001560000000099N1010201821510201800000000000060000000000000000000000000000000000000000000000000000000037502                    3001029090000000000 
1040001300212Q 011000060623144549DOMICIANO CERQUEIRA                     AV. PRESIDENTE VARGAS                   CENTRO         76300000CERES          GO0000000000000000                                                                       
1040001300213R 01000000000000000000000000000000000000000000000000215102018000000000000200                                                                                                                                                       
1040001300214P 0101298027300700000000000140000000000375031122037503          1510201800000000003731000000099N1010201821510201800000000000060000000000000000000000000000000000000000000000000000000037503                    3001029090000000000 
1040001300215Q 011000026355703888ENEAS GIL MARQUES                       AV. PRESIDENTE VARGAS                   CENTRO         76300000CERES          GO0000000000000000                                                                       
1040001300216R 01000000000000000000000000000000000000000000000000215102018000000000000200                                                                                                                                                       
1040001300217P 0101298027300700000000000140000000000375041122037504          1510201800000000000468000000099N1010201821510201800000000000060000000000000000000000000000000000000000000000000000000037504                    3001029090000000000 
1040001300218Q 011000042308542004GREGORIO VILAS BOAS                     AV. PRESIDENTE VARGAS                   CENTRO         76300000CERES          GO0000000000000000                                                                       
1040001300219R 01000000000000000000000000000000000000000000000000215102018000000000000200                                                                                                                                                       
1040001300220P 0101298027300700000000000140000000000375051122037505          1510201800000000000624000000099N1010201821510201800000000000060000000000000000000000000000000000000000000000000000000037505                    3001029090000000000 
1040001300221Q 012041454554000146FRANCISCO RICARDO MONTEIRO - ME         AV. PRESIDENTE VARGAS                   CENTRO         76300000CERES          GO0000000000000000                                                                       
1040001300222R 01000000000000000000000000000000000000000000000000215102018000000000000200                                                                                                                                                       
1040001300223P 0101298027300700000000000140000000000375061122037506          1510201800000000000396000000099N1010201821510201800000000000060000000000000000000000000000000000000000000000000000000037506                    3001029090000000000 
1040001300224Q 011000079050859291RODRIGO SILVA SOUSA                     AV. PRESIDENTE VARGAS                   CENTRO         76300000CERES          GO0000000000000000                                                                       
1040001300225R 01000000000000000000000000000000000000000000000000215102018000000000000200                                                                                                                                                       
1040001300226P 0101298027300700000000000140000000000375071122037507          1510201800000000000078000000099N1010201821510201800000000000060000000000000000000000000000000000000000000000000000000037507                    3001029090000000000 
1040001300227Q 011000071328335453JOAO ILDOMAR DA COSTA                   AV. PRESIDENTE VARGAS                   CENTRO         76300000CERES          GO0000000000000000                                                                       
1040001300228R 01000000000000000000000000000000000000000000000000215102018000000000000200                                                                                                                                                       
1040001300229P 0101298027300700000000000140000000000375081122037508          1510201800000000000078000000099N1010201821510201800000000000060000000000000000000000000000000000000000000000000000000037508                    3001029090000000000 
1040001300230Q 011000083833706368ALEXSANDRO JOSE FELIX NOGUEIRA          AV. PRESIDENTE VARGAS                   CENTRO         76300000CERES          GO0000000000000000                                                                       
1040001300231R 01000000000000000000000000000000000000000000000000215102018000000000000200                                                                                                                                                       
1040001300232P 0101298027300700000000000140000000000375091122037509          1510201800000000000546000000099N1010201821510201800000000000060000000000000000000000000000000000000000000000000000000037509                    3001029090000000000 
1040001300233Q 011000003551174601FERNANDO FERNANDES FERREIRA             AV. PRESIDENTE VARGAS                   CENTRO         76300000CERES          GO0000000000000000                                                                       
1040001300234R 01000000000000000000000000000000000000000000000000215102018000000000000200                                                                                                                                                       
1040001300235P 0101298027300700000000000140000000000375101122037510          1510201800000000000198000000099N1010201821510201800000000000060000000000000000000000000000000000000000000000000000000037510                    3001029090000000000 
1040001300236Q 011000037921092802MAICON DOUGLAS MARQUES DA SILVA         AV. PRESIDENTE VARGAS                   CENTRO         76300000CERES          GO0000000000000000                                                                       
1040001300237R 01000000000000000000000000000000000000000000000000215102018000000000000200                                                                                                                                                       
1040001300238P 0101298027300700000000000140000000000375111122037511          1510201800000000000078000000099N1010201821510201800000000000060000000000000000000000000000000000000000000000000000000037511                    3001029090000000000 
1040001300239Q 011000004754091329ESTENIO DA SILVA LEITE                  AV. PRESIDENTE VARGAS                   CENTRO         76300000CERES          GO0000000000000000                                                                       
1040001300240R 01000000000000000000000000000000000000000000000000215102018000000000000200                                                                                                                                                       
1040001300241P 0101298027300700000000000140000000000375121122037512          1510201800000000000396000000099N1010201821510201800000000000060000000000000000000000000000000000000000000000000000000037512                    3001029090000000000 
1040001300242Q 011000096544970263EDMIR CELSO LEDO BARBOSA FILHO          AV. PRESIDENTE VARGAS                   CENTRO         76300000CERES          GO0000000000000000                                                                       
1040001300243R 01000000000000000000000000000000000000000000000000215102018000000000000200                                                                                                                                                       
1040001300244P 0101298027300700000000000140000000000375131122037513          1510201800000000002340000000099N1010201821510201800000000000060000000000000000000000000000000000000000000000000000000037513                    3001029090000000000 
1040001300245Q 012007726179000108GUSTAVO ZACCARON MARCON ME              AV. PRESIDENTE VARGAS                   CENTRO         76300000CERES          GO0000000000000000                                                                       
1040001300246R 01000000000000000000000000000000000000000000000000215102018000000000000200                                                                                                                                                       
1040001300247P 0101298027300700000000000140000000000375141122037514          1510201800000000000078000000099N1010201821510201800000000000060000000000000000000000000000000000000000000000000000000037514                    3001029090000000000 
1040001300248Q 011000001903657733JULIO CESAR DOMINGUES PORTO             AV. PRESIDENTE VARGAS                   CENTRO         76300000CERES          GO0000000000000000                                                                       
1040001300249R 01000000000000000000000000000000000000000000000000215102018000000000000200                                                                                                                                                       
1040001300250P 0101298027300700000000000140000000000375151122037515          1510201800000000003588000000099N1010201821510201800000000000060000000000000000000000000000000000000000000000000000000037515                    3001029090000000000 
1040001300251Q 012017583701000101DIEGO RILKO COSTA 37204056809           AV. PRESIDENTE VARGAS                   CENTRO         76300000CERES          GO0000000000000000                                                                       
1040001300252R 01000000000000000000000000000000000000000000000000215102018000000000000200                                                                                                                                                       
1040001300253P 0101298027300700000000000140000000000375161122037516          1510201800000000000078000000099N1010201821510201800000000000060000000000000000000000000000000000000000000000000000000037516                    3001029090000000000 
1040001300254Q 011000039222103840ANTONIO O PURCELO JUNIOR                AV. PRESIDENTE VARGAS                   CENTRO         76300000CERES          GO0000000000000000                                                                       
1040001300255R 01000000000000000000000000000000000000000000000000215102018000000000000200                                                                                                                                                       
1040001300256P 0101298027300700000000000140000000000375171122037517          1510201800000000000780000000099N1010201821510201800000000000060000000000000000000000000000000000000000000000000000000037517                    3001029090000000000 
1040001300257Q 011000099252830197CARLOS MAGNO ALVES DE ALMEIDA           AV. PRESIDENTE VARGAS                   CENTRO         76300000CERES          GO0000000000000000                                                                       
1040001300258R 01000000000000000000000000000000000000000000000000215102018000000000000200                                                                                                                                                       
1040001300259P 0101298027300700000000000140000000000375181122037518          1510201800000000005538000000099N1010201821510201800000000000060000000000000000000000000000000000000000000000000000000037518                    3001029090000000000 
1040001300260Q 012026216149000104CAIO DOS SANTOS E SOUSA 04422993119     AV. PRESIDENTE VARGAS                   CENTRO         76300000CERES          GO0000000000000000                                                                       
1040001300261R 01000000000000000000000000000000000000000000000000215102018000000000000200                                                                                                                                                       
1040001300262P 0101298027300700000000000140000000000375191122037519          1510201800000000000078000000099N1010201821510201800000000000060000000000000000000000000000000000000000000000000000000037519                    3001029090000000000 
1040001300263Q 011000096518189304JACKSON WILLIAM CHAVES LEAO             AV. PRESIDENTE VARGAS                   CENTRO         76300000CERES          GO0000000000000000                                                                       
1040001300264R 01000000000000000000000000000000000000000000000000215102018000000000000200                                                                                                                                                       
1040001300265P 0101298027300700000000000140000000000375201122037520          1510201800000000000078000000099N1010201821510201800000000000060000000000000000000000000000000000000000000000000000000037520                    3001029090000000000 
1040001300266Q 011000006446218699FABIO LUIZ                              AV. PRESIDENTE VARGAS                   CENTRO         76300000CERES          GO0000000000000000                                                                       
1040001300267R 01000000000000000000000000000000000000000000000000215102018000000000000200                                                                                                                                                       
1040001300268P 0101298027300700000000000140000000000375211122037521          1510201800000000000198000000099N1010201821510201800000000000060000000000000000000000000000000000000000000000000000000037521                    3001029090000000000 
1040001300269Q 011000001113974486PAULO VASCONCELOS SALLES                AV. PRESIDENTE VARGAS                   CENTRO         76300000CERES          GO0000000000000000                                                                       
1040001300270R 01000000000000000000000000000000000000000000000000215102018000000000000200                                                                                                                                                       
1040001300271P 0101298027300700000000000140000000000375221122037522          1510201800000000001014000000099N1010201821510201800000000000060000000000000000000000000000000000000000000000000000000037522                    3001029090000000000 
1040001300272Q 012041595521000116C E M DISTRIBUIDORA DE CARNES LTDA      AV. PRESIDENTE VARGAS                   CENTRO         76300000CERES          GO0000000000000000                                                                       
1040001300273R 01000000000000000000000000000000000000000000000000215102018000000000000200                                                                                                                                                       
1040001300274P 0101298027300700000000000140000000000375231122037523          1510201800000000000780000000099N1010201821510201800000000000060000000000000000000000000000000000000000000000000000000037523                    3001029090000000000 
1040001300275Q 012020085595000119CTX LOCACOES DE EQUIPAMENTOS E CONTAINERAV. PRESIDENTE VARGAS                   CENTRO         76300000CERES          GO0000000000000000                                                                       
1040001300276R 01000000000000000000000000000000000000000000000000215102018000000000000200                                                                                                                                                       
1040001300277P 0101298027300700000000000140000000000375241122037524          1510201800000000000137000000099N1010201821510201800000000000060000000000000000000000000000000000000000000000000000000037524                    3001029090000000000 
1040001300278Q 011000001094527394MARCICLEIA RODRIGUES DE OLIVEIRA        AV. PRESIDENTE VARGAS                   CENTRO         76300000CERES          GO0000000000000000                                                                       
1040001300279R 01000000000000000000000000000000000000000000000000215102018000000000000200                                                                                                                                                       
1040001300280P 0101298027300700000000000140000000000375251122037525          1510201800000000003106000000099N1010201821510201800000000000060000000000000000000000000000000000000000000000000000000037525                    3001029090000000000 
1040001300281Q 012026320803000117MARCOS SOARES DOS SANTOS                AV. PRESIDENTE VARGAS                   CENTRO         76300000CERES          GO0000000000000000                                                                       
1040001300282R 01000000000000000000000000000000000000000000000000215102018000000000000200                                                                                                                                                       
1040001300283P 0101298027300700000000000140000000000375261122037526          1510201800000000002638000000099N1010201821510201800000000000060000000000000000000000000000000000000000000000000000000037526                    3001029090000000000 
1040001300284Q 012018207345000186ODAIR JOSE SAVALAIO 41084080206         AV. PRESIDENTE VARGAS                   CENTRO         76300000CERES          GO0000000000000000                                                                       
1040001300285R 01000000000000000000000000000000000000000000000000215102018000000000000200                                                                                                                                                       
1040001300286P 0101298027300700000000000140000000000375271122037527          1510201800000000000078000000099N1010201821510201800000000000060000000000000000000000000000000000000000000000000000000037527                    3001029090000000000 
1040001300287Q 011000060001832328MARIANA DE OLIVEIRA CAMPOS              AV. PRESIDENTE VARGAS                   CENTRO         76300000CERES          GO0000000000000000                                                                       
1040001300288R 01000000000000000000000000000000000000000000000000215102018000000000000200                                                                                                                                                       
1040001300289P 0101298027300700000000000140000000000375281122037528          1510201800000000025194000000099N1010201821510201800000000000060000000000000000000000000000000000000000000000000000000037528                    3001029090000000000 
1040001300290Q 012021515839000132CLUBE AUTO PRIME (AC. ANTONIO BONIN DOS AV. PRESIDENTE VARGAS                   CENTRO         76300000CERES          GO0000000000000000                                                                       
1040001300291R 01000000000000000000000000000000000000000000000000215102018000000000000200                                                                                                                                                       
1040001300292P 0101298027300700000000000140000000000375291122037529          1510201800000000026815100000099N1010201821510201800000000000060000000000000000000000000000000000000000000000000000000037529                    3001029090000000000 
1040001300293Q 011000067147909372LEANDRO ROSA DE LIMA                    AV. PRESIDENTE VARGAS                   CENTRO         76300000CERES          GO0000000000000000                                                                       
1040001300294R 01000000000000000000000000000000000000000000000000215102018000000000000200                                                                                                                                                       
1040001300295P 0101298027300700000000000140000000000375301122037530          1510201800000000000078000000099N1010201821510201800000000000060000000000000000000000000000000000000000000000000000000037530                    3001029090000000000 
1040001300296Q 011000012455010708EVERTON ANTUNES DA PAZ                  AV. PRESIDENTE VARGAS                   CENTRO         76300000CERES          GO0000000000000000                                                                       
1040001300297R 01000000000000000000000000000000000000000000000000215102018000000000000200                                                                                                                                                       
1040001300298P 0101298027300700000000000140000000000375311122037531          1510201800000000000198000000099N1010201821510201800000000000060000000000000000000000000000000000000000000000000000000037531                    3001029090000000000 
1040001300299Q 011000004897591651DANILO PEREIRA FERNANDES                AV. PRESIDENTE VARGAS                   CENTRO         76300000CERES          GO0000000000000000                                                                       
1040001300300R 01000000000000000000000000000000000000000000000000215102018000000000000200                                                                                                                                                       
1040001300301P 0101298027300700000000000140000000000375321122037532          1510201800000000000198000000099N1010201821510201800000000000060000000000000000000000000000000000000000000000000000000037532                    3001029090000000000 
1040001300302Q 011000002835502440ANDRE COIMBRA DE FIGUEIREDO             AV. PRESIDENTE VARGAS                   CENTRO         76300000CERES          GO0000000000000000                                                                       
1040001300303R 01000000000000000000000000000000000000000000000000215102018000000000000200                                                                                                                                                       
1040001300304P 0101298027300700000000000140000000000375331122037533          1510201800000000001248000000099N1010201821510201800000000000060000000000000000000000000000000000000000000000000000000037533                    3001029090000000000 
1040001300305Q 011000003518664344KESLEY MENDONCA CARVALHO                AV. PRESIDENTE VARGAS                   CENTRO         76300000CERES          GO0000000000000000                                                                       
1040001300306R 01000000000000000000000000000000000000000000000000215102018000000000000200                                                                                                                                                       
1040001300307P 0101298027300700000000000140000000000375341122037534          1510201800000000000078000000099N1010201821510201800000000000060000000000000000000000000000000000000000000000000000000037534                    3001029090000000000 
1040001300308Q 011000003624287354SERGIO SOUSA DA SILVA FILHO             AV. PRESIDENTE VARGAS                   CENTRO         76300000CERES          GO0000000000000000                                                                       
1040001300309R 01000000000000000000000000000000000000000000000000215102018000000000000200                                                                                                                                                       
1040001300310P 0101298027300700000000000140000000000375351122037535          1510201800000000005304000000099N1010201821510201800000000000060000000000000000000000000000000000000000000000000000000037535                    3001029090000000000 
1040001300311Q 012019765963000104VINICIUS CASTRO E SILVA                 AV. PRESIDENTE VARGAS                   CENTRO         76300000CERES          GO0000000000000000                                                                       
1040001300312R 01000000000000000000000000000000000000000000000000215102018000000000000200                                                                                                                                                       
1040001300313P 0101298027300700000000000140000000000375361122037536          1510201800000000000078000000099N1010201821510201800000000000060000000000000000000000000000000000000000000000000000000037536                    3001029090000000000 
1040001300314Q 011000051059282372AURICELIO HOLANDA MOURA                 AV. PRESIDENTE VARGAS                   CENTRO         76300000CERES          GO0000000000000000                                                                       
1040001300315R 01000000000000000000000000000000000000000000000000215102018000000000000200                                                                                                                                                       
1040001300316P 0101298027300700000000000140000000000375371122037537          1510201800000000000936000000099N1010201821510201800000000000060000000000000000000000000000000000000000000000000000000037537                    3001029090000000000 
1040001300317Q 012011543951000123JMS CUNHA LOCACAO DE MAQUINAS E EQUIPAMEAV. PRESIDENTE VARGAS                   CENTRO         76300000CERES          GO0000000000000000                                                                       
1040001300318R 01000000000000000000000000000000000000000000000000215102018000000000000200                                                                                                                                                       
1040001300319P 0101298027300700000000000140000000000375381122037538          1510201800000000000495000000099N1010201821510201800000000000060000000000000000000000000000000000000000000000000000000037538                    3001029090000000000 
1040001300320Q 011000016381149353IVANILDO RAMOS MACHADO                  AV. PRESIDENTE VARGAS                   CENTRO         76300000CERES          GO0000000000000000                                                                       
1040001300321R 01000000000000000000000000000000000000000000000000215102018000000000000200                                                                                                                                                       
1040001300322P 0101298027300700000000000140000000000375391122037539          1510201800000000000198000000099N1010201821510201800000000000060000000000000000000000000000000000000000000000000000000037539                    3001029090000000000 
1040001300323Q 011000048595519315ALEX BRANDAO DE PAULA                   AV. PRESIDENTE VARGAS                   CENTRO         76300000CERES          GO0000000000000000                                                                       
1040001300324R 01000000000000000000000000000000000000000000000000215102018000000000000200                                                                                                                                                       
1040001300325P 0101298027300700000000000140000000000375401122037540          1510201800000000000078000000099N1010201821510201800000000000060000000000000000000000000000000000000000000000000000000037540                    3001029090000000000 
1040001300326Q 011000006625536407EDUARDO ALVES DOS SANTOS MIRANDA        AV. PRESIDENTE VARGAS                   CENTRO         76300000CERES          GO0000000000000000                                                                       
1040001300327R 01000000000000000000000000000000000000000000000000215102018000000000000200                                                                                                                                                       
1040001300328P 0101298027300700000000000140000000000375411122037541          1510201800000000027973000000099N1010201821510201800000000000060000000000000000000000000000000000000000000000000000000037541                    3001029090000000000 
1040001300329Q 012025344785000140JOSE MAGNO FERREIRA DA SILVA            AV. PRESIDENTE VARGAS                   CENTRO         76300000CERES          GO0000000000000000                                                                       
1040001300330R 01000000000000000000000000000000000000000000000000215102018000000000000200                                                                                                                                                       
1040001300331P 0101298027300700000000000140000000000375421122037542          1510201800000000001014000000099N1010201821510201800000000000060000000000000000000000000000000000000000000000000000000037542                    3001029090000000000 
1040001300332Q 012015589293000161FRANCA PINTO & CIA LTDA-EPP             AV. PRESIDENTE VARGAS                   CENTRO         76300000CERES          GO0000000000000000                                                                       
1040001300333R 01000000000000000000000000000000000000000000000000215102018000000000000200                                                                                                                                                       
1040001300334P 0101298027300700000000000140000000000375431122037543          1510201800000000000396000000099N1010201821510201800000000000060000000000000000000000000000000000000000000000000000000037543                    3001029090000000000 
1040001300335Q 011000095798420272JOAO VIEIRA DE MEDEIROS NETO            AV. PRESIDENTE VARGAS                   CENTRO         76300000CERES          GO0000000000000000                                                                       
1040001300336R 01000000000000000000000000000000000000000000000000215102018000000000000200                                                                                                                                                       
1040001300337P 0101298027300700000000000140000000000375441122037544          1510201800000000000078000000099N1010201821510201800000000000060000000000000000000000000000000000000000000000000000000037544                    3001029090000000000 
1040001300338Q 011000027766148889GUSTAVO OLIVEIRA LEME                   AV. PRESIDENTE VARGAS                   CENTRO         76300000CERES          GO0000000000000000                                                                       
1040001300339R 01000000000000000000000000000000000000000000000000215102018000000000000200                                                                                                                                                       
1040001300340P 0101298027300700000000000140000000000375451122037545          1510201800000000000078000000099N1010201821510201800000000000060000000000000000000000000000000000000000000000000000000037545                    3001029090000000000 
1040001300341Q 011000002357346167LELSON AMARAL MARTINS                   AV. PRESIDENTE VARGAS                   CENTRO         76300000CERES          GO0000000000000000                                                                       
1040001300342R 01000000000000000000000000000000000000000000000000215102018000000000000200                                                                                                                                                       
1040001300343P 0101298027300700000000000140000000000375461122037546          1510201800000000000078000000099N1010201821510201800000000000060000000000000000000000000000000000000000000000000000000037546                    3001029090000000000 
1040001300344Q 011000050608282049FLAVIO HENRIQUE ASCARI                  AV. PRESIDENTE VARGAS                   CENTRO         76300000CERES          GO0000000000000000                                                                       
1040001300345R 01000000000000000000000000000000000000000000000000215102018000000000000200                                                                                                                                                       
1040001300346P 0101298027300700000000000140000000000375471122037547          1510201800000000000858000000099N1010201821510201800000000000060000000000000000000000000000000000000000000000000000000037547                    3001029090000000000 
1040001300347Q 011000008423716643TATIANA GARCIA DE MORAIS                AV. PRESIDENTE VARGAS                   CENTRO         76300000CERES          GO0000000000000000                                                                       
1040001300348R 01000000000000000000000000000000000000000000000000215102018000000000000200                                                                                                                                                       
1040001300349P 0101298027300700000000000140000000000375481122037548          1510201800000000000468000000099N1010201821510201800000000000060000000000000000000000000000000000000000000000000000000037548                    3001029090000000000 
1040001300350Q 012013955553000140KLEITON MOURA DA PAIXAO                 AV. PRESIDENTE VARGAS                   CENTRO         76300000CERES          GO0000000000000000                                                                       
1040001300351R 01000000000000000000000000000000000000000000000000215102018000000000000200                                                                                                                                                       
1040001300352P 0101298027300700000000000140000000000375491122037549          1510201800000000000495000000099N1010201821510201800000000000060000000000000000000000000000000000000000000000000000000037549                    3001029090000000000 
1040001300353Q 012042793844000187LOCNORTE LOCADORA DE EQUIPAMENTOS P/ CONAV. PRESIDENTE VARGAS                   CENTRO         76300000CERES          GO0000000000000000                                                                       
1040001300354R 01000000000000000000000000000000000000000000000000215102018000000000000200                                                                                                                                                       
1040001300355P 0101298027300700000000000140000000000375501122037550          1510201800000000000198000000099N1010201821510201800000000000060000000000000000000000000000000000000000000000000000000037550                    3001029090000000000 
1040001300356Q 011000061444510304FRANCISCO OMILSON BARBOSA DA SILVA      AV. PRESIDENTE VARGAS                   CENTRO         76300000CERES          GO0000000000000000                                                                       
1040001300357R 01000000000000000000000000000000000000000000000000215102018000000000000200                                                                                                                                                       
1040001300358P 0101298027300700000000000140000000000375511122037551          1510201800000000000078000000099N1010201821510201800000000000060000000000000000000000000000000000000000000000000000000037551                    3001029090000000000 
1040001300359Q 011000054781949668NILTON LEFUNDES DA SILVA                AV. PRESIDENTE VARGAS                   CENTRO         76300000CERES          GO0000000000000000                                                                       
1040001300360R 01000000000000000000000000000000000000000000000000215102018000000000000200                                                                                                                                                       
1040001300361P 0101298027300700000000000140000000000375521122037552          1510201800000000000702000000099N1010201821510201800000000000060000000000000000000000000000000000000000000000000000000037552                    3001029090000000000 
1040001300362Q 011000003870412305DIEGO ALMEIDA DE OLIVEIRA               AV. PRESIDENTE VARGAS                   CENTRO         76300000CERES          GO0000000000000000                                                                       
1040001300363R 01000000000000000000000000000000000000000000000000215102018000000000000200                                                                                                                                                       
1040001300364P 0101298027300700000000000140000000000375531122037553          1510201800000000000078000000099N1010201821510201800000000000060000000000000000000000000000000000000000000000000000000037553                    3001029090000000000 
1040001300365Q 011000001953016332JOSE ORLANDO                            AV. PRESIDENTE VARGAS                   CENTRO         76300000CERES          GO0000000000000000                                                                       
1040001300366R 01000000000000000000000000000000000000000000000000215102018000000000000200                                                                                                                                                       
1040001300367P 0101298027300700000000000140000000000375541122037554          1510201800000000001014000000099N1010201821510201800000000000060000000000000000000000000000000000000000000000000000000037554                    3001029090000000000 
1040001300368Q 012026097788000190JESSE RODRIGUES DE SOUSA 41194341845    AV. PRESIDENTE VARGAS                   CENTRO         76300000CERES          GO0000000000000000                                                                       
1040001300369R 01000000000000000000000000000000000000000000000000215102018000000000000200                                                                                                                                                       
1040001300370P 0101298027300700000000000140000000000375551122037555          1510201800000000004368000000099N1010201821510201800000000000060000000000000000000000000000000000000000000000000000000037555                    3001029090000000000 
1040001300371Q 011000007374853963WILLIAN AMARAL DE OLIVEIRA              AV. PRESIDENTE VARGAS                   CENTRO         76300000CERES          GO0000000000000000                                                                       
1040001300372R 01000000000000000000000000000000000000000000000000215102018000000000000200                                                                                                                                                       
1040001300373P 0101298027300700000000000140000000000375561122037556          1510201800000000000078000000099N1010201821510201800000000000060000000000000000000000000000000000000000000000000000000037556                    3001029090000000000 
1040001300374Q 011000075176882353ALEXSANDRO ANDRADE SILVA                AV. PRESIDENTE VARGAS                   CENTRO         76300000CERES          GO0000000000000000                                                                       
1040001300375R 01000000000000000000000000000000000000000000000000215102018000000000000200                                                                                                                                                       
1040001300376P 0101298027300700000000000140000000000375571122037557          1510201800000000000078000000099N1010201821510201800000000000060000000000000000000000000000000000000000000000000000000037557                    3001029090000000000 
1040001300377Q 011000071339493187ANTONIO DA COSTA AMANCIO                AV. PRESIDENTE VARGAS                   CENTRO         76300000CERES          GO0000000000000000                                                                       
1040001300378R 01000000000000000000000000000000000000000000000000215102018000000000000200                                                                                                                                                       
1040001300379P 0101298027300700000000000140000000000375581122037558          1510201800000000001560000000099N1010201821510201800000000000060000000000000000000000000000000000000000000000000000000037558                    3001029090000000000 
1040001300380Q 011000076140881234JOSE NILSON SILVA DOS SANTOS            AV. PRESIDENTE VARGAS                   CENTRO         76300000CERES          GO0000000000000000                                                                       
1040001300381R 01000000000000000000000000000000000000000000000000215102018000000000000200                                                                                                                                                       
1040001300382P 0101298027300700000000000140000000000375591122037559          1510201800000000003723000000099N1010201821510201800000000000060000000000000000000000000000000000000000000000000000000037559                    3001029090000000000 
1040001300383Q 011000064507734304ELTON DE SOUSA E SILVA                  AV. PRESIDENTE VARGAS                   CENTRO         76300000CERES          GO0000000000000000                                                                       
1040001300384R 01000000000000000000000000000000000000000000000000215102018000000000000200                                                                                                                                                       
1040001300385P 0101298027300700000000000140000000000375601122037560          1510201800000000000078000000099N1010201821510201800000000000060000000000000000000000000000000000000000000000000000000037560                    3001029090000000000 
1040001300386Q 011000039783928015PAULO ROBERTO DALLA ROSA                AV. PRESIDENTE VARGAS                   CENTRO         76300000CERES          GO0000000000000000                                                                       
1040001300387R 01000000000000000000000000000000000000000000000000215102018000000000000200                                                                                                                                                       
1040001300388P 0101298027300700000000000140000000000375611122037561          1510201800000000000078000000099N1010201821510201800000000000060000000000000000000000000000000000000000000000000000000037561                    3001029090000000000 
1040001300389Q 011000058892176072LEANDRO MARQUES UFLACKER                AV. PRESIDENTE VARGAS                   CENTRO         76300000CERES          GO0000000000000000                                                                       
1040001300390R 01000000000000000000000000000000000000000000000000215102018000000000000200                                                                                                                                                       
1040001300391P 0101298027300700000000000140000000000375621122037562          1510201800000000000298000000099N1010201821510201800000000000060000000000000000000000000000000000000000000000000000000037562                    3001029090000000000 
1040001300392Q 011000033739261811JEFFERSON QUINTILIANO                   AV. PRESIDENTE VARGAS                   CENTRO         76300000CERES          GO0000000000000000                                                                       
1040001300393R 01000000000000000000000000000000000000000000000000215102018000000000000200                                                                                                                                                       
1040001300394P 0101298027300700000000000140000000000375631122037563          1510201800000000000396000000099N1010201821510201800000000000060000000000000000000000000000000000000000000000000000000037563                    3001029090000000000 
1040001300395Q 011000003837526127MYKE ALVES SILVA                        AV. PRESIDENTE VARGAS                   CENTRO         76300000CERES          GO0000000000000000                                                                       
1040001300396R 01000000000000000000000000000000000000000000000000215102018000000000000200                                                                                                                                                       
1040001300397P 0101298027300700000000000140000000000375641122037564          1510201800000000020700000000099N1010201821510201800000000000060000000000000000000000000000000000000000000000000000000037564                    3001029090000000000 
1040001300398Q 011000072831693268CARLOS ALBERTO SILVA DE SOUZA           AV. PRESIDENTE VARGAS                   CENTRO         76300000CERES          GO0000000000000000                                                                       
1040001300399R 01000000000000000000000000000000000000000000000000215102018000000000000200                                                                                                                                                       
1040001300400P 0101298027300700000000000140000000000375651122037565          1510201800000000000949000000099N1010201821510201800000000000060000000000000000000000000000000000000000000000000000000037565                    3001029090000000000 
1040001300401Q 011000015961130738LEANDRO SOUSA DA SILVA                  AV. PRESIDENTE VARGAS                   CENTRO         76300000CERES          GO0000000000000000                                                                       
1040001300402R 01000000000000000000000000000000000000000000000000215102018000000000000200                                                                                                                                                       
1040001300403P 0101298027300700000000000140000000000375661122037566          1510201800000000001560000000099N1010201821510201800000000000060000000000000000000000000000000000000000000000000000000037566                    3001029090000000000 
1040001300404Q 012004554488000150WAGNER DE SOUZA SANTOS                  AV. PRESIDENTE VARGAS                   CENTRO         76300000CERES          GO0000000000000000                                                                       
1040001300405R 01000000000000000000000000000000000000000000000000215102018000000000000200                                                                                                                                                       
1040001300406P 0101298027300700000000000140000000000375671122037567          1510201800000000000078000000099N1010201821510201800000000000060000000000000000000000000000000000000000000000000000000037567                    3001029090000000000 
1040001300407Q 011000005320225997THIAGO LUIZ LEITE                       AV. PRESIDENTE VARGAS                   CENTRO         76300000CERES          GO0000000000000000                                                                       
1040001300408R 01000000000000000000000000000000000000000000000000215102018000000000000200                                                                                                                                                       
1040001300409P 0101298027300700000000000140000000000375681122037568          1510201800000000000198000000099N1010201821510201800000000000060000000000000000000000000000000000000000000000000000000037568                    3001029090000000000 
1040001300410Q 011000006772209605MARCOS VINICIUS SILVEIRA DOS SANTOS     AV. PRESIDENTE VARGAS                   CENTRO         76300000CERES          GO0000000000000000                                                                       
1040001300411R 01000000000000000000000000000000000000000000000000215102018000000000000200                                                                                                                                                       
1040001300412P 0101298027300700000000000140000000000375691122037569          1510201800000000000078000000099N1010201821510201800000000000060000000000000000000000000000000000000000000000000000000037569                    3001029090000000000 
