10400000         2116559540001590000000000000000000001298027300700000000FEDERAL SISTEMAS              CAIXA ECONOMICA FEDERAL                 10406201806582100012405000000                    REMESSA-PRODUCAO                                 
10400011R0100030 20116559540001592730070000000000000001298027300700000000FEDERAL SISTEMAS                                                                                              000001240406201800000000                                 
1040001300001P 0101298027300700000000000140000000000315201122031520          2007201800000000001180000000099N0206201822007201800000000000060000000000000000000000000000000000000000000000000000000031520                    3001029090000000000 
1040001300002Q 012009450780000146MEL MECANICA E LOCACAO DE MAQ LTDA ME   RUA 36 N 382                            SAO CRISTOVAO  76380000GOIANESIA      GO0000000000000000                                                                       
1040001300003R 01000000000000000000000000000000000000000000000000220072018000000000000200                                                                                                                                                       
1040001300004P 0101298027300700000000000140000000000315211122031521          2008201800000000001180000000099N0206201822008201800000000000060000000000000000000000000000000000000000000000000000000031521                    3001029090000000000 
1040001300005Q 012009450780000146MEL MECANICA E LOCACAO DE MAQ LTDA ME   RUA 36 N 382                            SAO CRISTOVAO  76380000GOIANESIA      GO0000000000000000                                                                       
1040001300006R 01000000000000000000000000000000000000000000000000220082018000000000000200                                                                                                                                                       
1040001300007P 0101298027300700000000000140000000000315221122031522          2009201800000000001180000000099N0206201822009201800000000000060000000000000000000000000000000000000000000000000000000031522                    3001029090000000000 
1040001300008Q 012009450780000146MEL MECANICA E LOCACAO DE MAQ LTDA ME   RUA 36 N 382                            SAO CRISTOVAO  76380000GOIANESIA      GO0000000000000000                                                                       
1040001300009R 01000000000000000000000000000000000000000000000000220092018000000000000200                                                                                                                                                       
1040001300010P 0101298027300700000000000140000000000315231122031523          2010201800000000001180000000099N0206201822010201800000000000060000000000000000000000000000000000000000000000000000000031523                    3001029090000000000 
1040001300011Q 012009450780000146MEL MECANICA E LOCACAO DE MAQ LTDA ME   RUA 36 N 382                            SAO CRISTOVAO  76380000GOIANESIA      GO0000000000000000                                                                       
1040001300012R 01000000000000000000000000000000000000000000000000220102018000000000000200                                                                                                                                                       
1040001300013P 0101298027300700000000000140000000000315241122031524          2011201800000000001180000000099N0206201822011201800000000000060000000000000000000000000000000000000000000000000000000031524                    3001029090000000000 
1040001300014Q 012009450780000146MEL MECANICA E LOCACAO DE MAQ LTDA ME   RUA 36 N 382                            SAO CRISTOVAO  76380000GOIANESIA      GO0000000000000000                                                                       
1040001300015R 01000000000000000000000000000000000000000000000000220112018000000000000200                                                                                                                                                       
1040001300016P 0101298027300700000000000140000000000315251122031525          2012201800000000001180000000099N0206201822012201800000000000060000000000000000000000000000000000000000000000000000000031525                    3001029090000000000 
1040001300017Q 012009450780000146MEL MECANICA E LOCACAO DE MAQ LTDA ME   RUA 36 N 382                            SAO CRISTOVAO  76380000GOIANESIA      GO0000000000000000                                                                       
1040001300018R 01000000000000000000000000000000000000000000000000220122018000000000000200                                                                                                                                                       
1040001300019P 0101298027300700000000000140000000000315261122031526          2001201900000000001180000000099N0206201822001201900000000000060000000000000000000000000000000000000000000000000000000031526                    3001029090000000000 
1040001300020Q 012009450780000146MEL MECANICA E LOCACAO DE MAQ LTDA ME   RUA 36 N 382                            SAO CRISTOVAO  76380000GOIANESIA      GO0000000000000000                                                                       
1040001300021R 01000000000000000000000000000000000000000000000000220012019000000000000200                                                                                                                                                       
1040001300022P 0101298027300700000000000140000000000315271122031527          2002201900000000001180000000099N0206201822002201900000000000060000000000000000000000000000000000000000000000000000000031527                    3001029090000000000 
1040001300023Q 012009450780000146MEL MECANICA E LOCACAO DE MAQ LTDA ME   RUA 36 N 382                            SAO CRISTOVAO  76380000GOIANESIA      GO0000000000000000                                                                       
1040001300024R 01000000000000000000000000000000000000000000000000220022019000000000000200                                                                                                                                                       
1040001300025P 0101298027300700000000000140000000000315281122031528          2003201900000000001180000000099N0206201822003201900000000000060000000000000000000000000000000000000000000000000000000031528                    3001029090000000000 
1040001300026Q 012009450780000146MEL MECANICA E LOCACAO DE MAQ LTDA ME   RUA 36 N 382                            SAO CRISTOVAO  76380000GOIANESIA      GO0000000000000000                                                                       
1040001300027R 01000000000000000000000000000000000000000000000000220032019000000000000200                                                                                                                                                       
1040001300028P 0101298027300700000000000140000000000315291122031529          2004201900000000001180000000099N0206201822004201900000000000060000000000000000000000000000000000000000000000000000000031529                    3001029090000000000 
1040001300029Q 012009450780000146MEL MECANICA E LOCACAO DE MAQ LTDA ME   RUA 36 N 382                            SAO CRISTOVAO  76380000GOIANESIA      GO0000000000000000                                                                       
1040001300030R 01000000000000000000000000000000000000000000000000220042019000000000000200                                                                                                                                                       
1040001300031P 0101298027300700000000000140000000000315301122031530          2005201900000000001180000000099N0206201822005201900000000000060000000000000000000000000000000000000000000000000000000031530                    3001029090000000000 
1040001300032Q 012009450780000146MEL MECANICA E LOCACAO DE MAQ LTDA ME   RUA 36 N 382                            SAO CRISTOVAO  76380000GOIANESIA      GO0000000000000000                                                                       
1040001300033R 01000000000000000000000000000000000000000000000000220052019000000000000200                                                                                                                                                       
1040001300034P 0101298027300700000000000140000000000315311122031531          2006201900000000001180000000099N0206201822006201900000000000060000000000000000000000000000000000000000000000000000000031531                    3001029090000000000 
1040001300035Q 012009450780000146MEL MECANICA E LOCACAO DE MAQ LTDA ME   RUA 36 N 382                            SAO CRISTOVAO  76380000GOIANESIA      GO0000000000000000                                                                       
1040001300036R 01000000000000000000000000000000000000000000000000220062019000000000000200                                                                                                                                                       
1040001300037P 0101298027300700000000000140000000000315321122031532          1006201800000000012270000000099N0206201821006201800000000000060000000000000000000000000000000000000000000000000000000031532                    3001029090000000000 
1040001300038Q 011000099254549568CLEDSON BARRETO ARAUJO                  RUA ANACLETO DE SOUSA                   FUNCIONáRIOS 458079510JOAO PESSOA   PB0000000000000000                                                                       0
1040001300039R 01000000000000000000000000000000000000000000000000210062018000000000000200                                                                                                                                                       
10400015         000041000013000000000002643000000000000000000000000000000000000000000000000                                                                                                                                                    
10499999         000001000043                                                                                                                                                                                                                   