10400000         2116559540001590000000000000000000001298027300700000000FEDERAL SISTEMAS              CAIXA ECONOMICA FEDERAL                 10204201818000400005705000000                    REMESSA-PRODUCAO                                 
10400011R0100030 20116559540001592730070000000000000001298027300700000000FEDERAL SISTEMAS                                                                                              000000570204201800000000                                 
1040001300001P 0101298027300700000000000140000000000248271122024827          2201201800000000000652000000099N2201201822201201800000000000060000000000000000000000000000000000000000000000000000000024827                    3001090090000000000 
1040001300002Q 012011655954000159FEDERAL SISTEMAS DE SEGURANCA E MONIT   AV. PRESIDENTE VARGAS                   CENTRO         76300000CERES          GO0000000000000000                                                                       
1040001300003R 01000000000000000000000000000000000000000000000000222012018000000000000200                                                                                                                                                       
1040001300004P 0101298027300700000000000140000000000249221122024922          2005201800000000002100000000099N2401201822005201800000000000060000000000000000000000000000000000000000000000000000000024922                    3001090090000000000 
1040001300005Q 012005525783000221KAISIS CALCADOS E ESPORTE               AVENIDA GOIAS                           CENTRO         76380000GOIANESIA      GO0000000000000000                                                                       
1040001300006R 01000000000000000000000000000000000000000000000000220052018000000000000200                                                                                                                                                       
1040001300007P 0101298027300700000000000140000000000249231122024923          2006201800000000002100000000099N2401201822006201800000000000060000000000000000000000000000000000000000000000000000000024923                    3001090090000000000 
1040001300008Q 012005525783000221KAISIS CALCADOS E ESPORTE               AVENIDA GOIAS                           CENTRO         76380000GOIANESIA      GO0000000000000000                                                                       
1040001300009R 01000000000000000000000000000000000000000000000000220062018000000000000200                                                                                                                                                       
1040001300010P 0101298027300700000000000140000000000249241122024924          2007201800000000002100000000099N2401201822007201800000000000060000000000000000000000000000000000000000000000000000000024924                    3001090090000000000 
1040001300011Q 012005525783000221KAISIS CALCADOS E ESPORTE               AVENIDA GOIAS                           CENTRO         76380000GOIANESIA      GO0000000000000000                                                                       
1040001300012R 01000000000000000000000000000000000000000000000000220072018000000000000200                                                                                                                                                       
1040001300013P 0101298027300700000000000140000000000249251122024925          2008201800000000002100000000099N2401201822008201800000000000060000000000000000000000000000000000000000000000000000000024925                    3001090090000000000 
1040001300014Q 012005525783000221KAISIS CALCADOS E ESPORTE               AVENIDA GOIAS                           CENTRO         76380000GOIANESIA      GO0000000000000000                                                                       
1040001300015R 01000000000000000000000000000000000000000000000000220082018000000000000200                                                                                                                                                       
1040001300016P 0101298027300700000000000140000000000249261122024926          2009201800000000002100000000099N2401201822009201800000000000060000000000000000000000000000000000000000000000000000000024926                    3001090090000000000 
1040001300017Q 012005525783000221KAISIS CALCADOS E ESPORTE               AVENIDA GOIAS                           CENTRO         76380000GOIANESIA      GO0000000000000000                                                                       
1040001300018R 01000000000000000000000000000000000000000000000000220092018000000000000200                                                                                                                                                       
1040001300019P 0101298027300700000000000140000000000249271122024927          2010201800000000002100000000099N2401201822010201800000000000060000000000000000000000000000000000000000000000000000000024927                    3001090090000000000 
1040001300020Q 012005525783000221KAISIS CALCADOS E ESPORTE               AVENIDA GOIAS                           CENTRO         76380000GOIANESIA      GO0000000000000000                                                                       
1040001300021R 01000000000000000000000000000000000000000000000000220102018000000000000200                                                                                                                                                       
1040001300022P 0101298027300700000000000140000000000249281122024928          2011201800000000002100000000099N2401201822011201800000000000060000000000000000000000000000000000000000000000000000000024928                    3001090090000000000 
1040001300023Q 012005525783000221KAISIS CALCADOS E ESPORTE               AVENIDA GOIAS                           CENTRO         76380000GOIANESIA      GO0000000000000000                                                                       
1040001300024R 01000000000000000000000000000000000000000000000000220112018000000000000200                                                                                                                                                       
1040001300025P 0101298027300700000000000140000000000249291122024929          2012201800000000002100000000099N2401201822012201800000000000060000000000000000000000000000000000000000000000000000000024929                    3001090090000000000 
1040001300026Q 012005525783000221KAISIS CALCADOS E ESPORTE               AVENIDA GOIAS                           CENTRO         76380000GOIANESIA      GO0000000000000000                                                                       
1040001300027R 01000000000000000000000000000000000000000000000000220122018000000000000200                                                                                                                                                       
1040001300028P 0101298027300700000000000140000000000249301122024930          2001201900000000002100000000099N2401201822001201900000000000060000000000000000000000000000000000000000000000000000000024930                    3001090090000000000 
1040001300029Q 012005525783000221KAISIS CALCADOS E ESPORTE               AVENIDA GOIAS                           CENTRO         76380000GOIANESIA      GO0000000000000000                                                                       
1040001300030R 01000000000000000000000000000000000000000000000000220012019000000000000200                                                                                                                                                       
1040001300031P 0101298027300700000000000140000000000249311122024931          2002201900000000002100000000099N2401201822002201900000000000060000000000000000000000000000000000000000000000000000000024931                    3001090090000000000 
1040001300032Q 012005525783000221KAISIS CALCADOS E ESPORTE               AVENIDA GOIAS                           CENTRO         76380000GOIANESIA      GO0000000000000000                                                                       
1040001300033R 01000000000000000000000000000000000000000000000000220022019000000000000200                                                                                                                                                       
1040001300034P 0101298027300700000000000140000000000249321122024932          2003201900000000002100000000099N2401201822003201900000000000060000000000000000000000000000000000000000000000000000000024932                    3001090090000000000 
1040001300035Q 012005525783000221KAISIS CALCADOS E ESPORTE               AVENIDA GOIAS                           CENTRO         76380000GOIANESIA      GO0000000000000000                                                                       
1040001300036R 01000000000000000000000000000000000000000000000000220032019000000000000200                                                                                                                                                       
1040001300037P 0101298027300700000000000140000000000249331122024933          2004201900000000002100000000099N2401201822004201900000000000060000000000000000000000000000000000000000000000000000000024933                    3001090090000000000 
1040001300038Q 012005525783000221KAISIS CALCADOS E ESPORTE               AVENIDA GOIAS                           CENTRO         76380000GOIANESIA      GO0000000000000000                                                                       
1040001300039R 01000000000000000000000000000000000000000000000000220042019000000000000200                                                                                                                                                       
1040001300040P 0101298027300700000000000140000000000249341122024934          0505201800000000002200000000099N2401201820505201800000000000060000000000000000000000000000000000000000000000000000000024934                    3001090090000000000 
1040001300041Q 011000089744284153GUSTAVO FELIPE FERNANDES MACIEL         RUA 36 N155                             RIALMA II      76310000RIALMA         GO0000000000000000                                                                       
1040001300042R 01000000000000000000000000000000000000000000000000205052018000000000000200                                                                                                                                                       
1040001300043P 0101298027300700000000000140000000000249351122024935          0506201800000000002200000000099N2401201820506201800000000000060000000000000000000000000000000000000000000000000000000024935                    3001090090000000000 
1040001300044Q 011000089744284153GUSTAVO FELIPE FERNANDES MACIEL         RUA 36 N155                             RIALMA II      76310000RIALMA         GO0000000000000000                                                                       
1040001300045R 01000000000000000000000000000000000000000000000000205062018000000000000200                                                                                                                                                       
1040001300046P 0101298027300700000000000140000000000249361122024936          0507201800000000002200000000099N2401201820507201800000000000060000000000000000000000000000000000000000000000000000000024936                    3001090090000000000 
1040001300047Q 011000089744284153GUSTAVO FELIPE FERNANDES MACIEL         RUA 36 N155                             RIALMA II      76310000RIALMA         GO0000000000000000                                                                       
1040001300048R 01000000000000000000000000000000000000000000000000205072018000000000000200                                                                                                                                                       
1040001300049P 0101298027300700000000000140000000000249371122024937          0508201800000000002200000000099N2401201820508201800000000000060000000000000000000000000000000000000000000000000000000024937                    3001090090000000000 
1040001300050Q 011000089744284153GUSTAVO FELIPE FERNANDES MACIEL         RUA 36 N155                             RIALMA II      76310000RIALMA         GO0000000000000000                                                                       
1040001300051R 01000000000000000000000000000000000000000000000000205082018000000000000200                                                                                                                                                       
1040001300052P 0101298027300700000000000140000000000249381122024938          0509201800000000002200000000099N2401201820509201800000000000060000000000000000000000000000000000000000000000000000000024938                    3001090090000000000 
1040001300053Q 011000089744284153GUSTAVO FELIPE FERNANDES MACIEL         RUA 36 N155                             RIALMA II      76310000RIALMA         GO0000000000000000                                                                       
1040001300054R 01000000000000000000000000000000000000000000000000205092018000000000000200                                                                                                                                                       
1040001300055P 0101298027300700000000000140000000000249391122024939          0510201800000000002200000000099N2401201820510201800000000000060000000000000000000000000000000000000000000000000000000024939                    3001090090000000000 
1040001300056Q 011000089744284153GUSTAVO FELIPE FERNANDES MACIEL         RUA 36 N155                             RIALMA II      76310000RIALMA         GO0000000000000000                                                                       
1040001300057R 01000000000000000000000000000000000000000000000000205102018000000000000200                                                                                                                                                       
1040001300058P 0101298027300700000000000140000000000249401122024940          0511201800000000002200000000099N2401201820511201800000000000060000000000000000000000000000000000000000000000000000000024940                    3001090090000000000 
1040001300059Q 011000089744284153GUSTAVO FELIPE FERNANDES MACIEL         RUA 36 N155                             RIALMA II      76310000RIALMA         GO0000000000000000                                                                       
1040001300060R 01000000000000000000000000000000000000000000000000205112018000000000000200                                                                                                                                                       
1040001300061P 0101298027300700000000000140000000000249411122024941          0512201800000000002200000000099N2401201820512201800000000000060000000000000000000000000000000000000000000000000000000024941                    3001090090000000000 
1040001300062Q 011000089744284153GUSTAVO FELIPE FERNANDES MACIEL         RUA 36 N155                             RIALMA II      76310000RIALMA         GO0000000000000000                                                                       
1040001300063R 01000000000000000000000000000000000000000000000000205122018000000000000200                                                                                                                                                       
1040001300064P 0101298027300700000000000140000000000249421122024942          0501201900000000002200000000099N2401201820501201900000000000060000000000000000000000000000000000000000000000000000000024942                    3001090090000000000 
1040001300065Q 011000089744284153GUSTAVO FELIPE FERNANDES MACIEL         RUA 36 N155                             RIALMA II      76310000RIALMA         GO0000000000000000                                                                       
1040001300066R 01000000000000000000000000000000000000000000000000205012019000000000000200                                                                                                                                                       
1040001300067P 0101298027300700000000000140000000000249431122024943          0502201900000000002200000000099N2401201820502201900000000000060000000000000000000000000000000000000000000000000000000024943                    3001090090000000000 
1040001300068Q 011000089744284153GUSTAVO FELIPE FERNANDES MACIEL         RUA 36 N155                             RIALMA II      76310000RIALMA         GO0000000000000000                                                                       
1040001300069R 01000000000000000000000000000000000000000000000000205022019000000000000200                                                                                                                                                       
1040001300070P 0101298027300700000000000140000000000249441122024944          0503201900000000002200000000099N2401201820503201900000000000060000000000000000000000000000000000000000000000000000000024944                    3001090090000000000 
1040001300071Q 011000089744284153GUSTAVO FELIPE FERNANDES MACIEL         RUA 36 N155                             RIALMA II      76310000RIALMA         GO0000000000000000                                                                       
1040001300072R 01000000000000000000000000000000000000000000000000205032019000000000000200                                                                                                                                                       
1040001300073P 0101298027300700000000000140000000000249451122024945          0504201900000000002200000000099N2401201820504201900000000000060000000000000000000000000000000000000000000000000000000024945                    3001090090000000000 
1040001300074Q 011000089744284153GUSTAVO FELIPE FERNANDES MACIEL         RUA 36 N155                             RIALMA II      76310000RIALMA         GO0000000000000000                                                                       
1040001300075R 01000000000000000000000000000000000000000000000000205042019000000000000200                                                                                                                                                       
1040001300076P 0101298027300700000000000140000000000249581122024958          2007201800000000001600000000099N2401201822007201800000000000060000000000000000000000000000000000000000000000000000000024958                    3001090090000000000 
1040001300077Q 012022164990014005ELETROSON SA                            AV BERNARDO SAYAO N196                  CENTRO         76300000CERES          GO0000000000000000                                                                       
1040001300078R 01000000000000000000000000000000000000000000000000220072018000000000000200                                                                                                                                                       
1040001300079P 0101298027300700000000000140000000000249591122024959          2008201800000000001600000000099N2401201822008201800000000000060000000000000000000000000000000000000000000000000000000024959                    3001090090000000000 
1040001300080Q 012022164990014005ELETROSON SA                            AV BERNARDO SAYAO N196                  CENTRO         76300000CERES          GO0000000000000000                                                                       
1040001300081R 01000000000000000000000000000000000000000000000000220082018000000000000200                                                                                                                                                       
1040001300082P 0101298027300700000000000140000000000249601122024960          2009201800000000001600000000099N2401201822009201800000000000060000000000000000000000000000000000000000000000000000000024960                    3001090090000000000 
1040001300083Q 012022164990014005ELETROSON SA                            AV BERNARDO SAYAO N196                  CENTRO         76300000CERES          GO0000000000000000                                                                       
1040001300084R 01000000000000000000000000000000000000000000000000220092018000000000000200                                                                                                                                                       
1040001300085P 0101298027300700000000000140000000000249611122024961          2010201800000000001600000000099N2401201822010201800000000000060000000000000000000000000000000000000000000000000000000024961                    3001090090000000000 
1040001300086Q 012022164990014005ELETROSON SA                            AV BERNARDO SAYAO N196                  CENTRO         76300000CERES          GO0000000000000000                                                                       
1040001300087R 01000000000000000000000000000000000000000000000000220102018000000000000200                                                                                                                                                       
1040001300088P 0101298027300700000000000140000000000249621122024962          2011201800000000001600000000099N2401201822011201800000000000060000000000000000000000000000000000000000000000000000000024962                    3001090090000000000 
1040001300089Q 012022164990014005ELETROSON SA                            AV BERNARDO SAYAO N196                  CENTRO         76300000CERES          GO0000000000000000                                                                       
1040001300090R 01000000000000000000000000000000000000000000000000220112018000000000000200                                                                                                                                                       
1040001300091P 0101298027300700000000000140000000000249631122024963          2012201800000000001600000000099N2401201822012201800000000000060000000000000000000000000000000000000000000000000000000024963                    3001090090000000000 
1040001300092Q 012022164990014005ELETROSON SA                            AV BERNARDO SAYAO N196                  CENTRO         76300000CERES          GO0000000000000000                                                                       
1040001300093R 01000000000000000000000000000000000000000000000000220122018000000000000200                                                                                                                                                       
1040001300094P 0101298027300700000000000140000000000249641122024964          2001201900000000001600000000099N2401201822001201900000000000060000000000000000000000000000000000000000000000000000000024964                    3001090090000000000 
1040001300095Q 012022164990014005ELETROSON SA                            AV BERNARDO SAYAO N196                  CENTRO         76300000CERES          GO0000000000000000                                                                       
1040001300096R 01000000000000000000000000000000000000000000000000220012019000000000000200                                                                                                                                                       
1040001300097P 0101298027300700000000000140000000000249651122024965          2002201900000000001600000000099N2401201822002201900000000000060000000000000000000000000000000000000000000000000000000024965                    3001090090000000000 
1040001300098Q 012022164990014005ELETROSON SA                            AV BERNARDO SAYAO N196                  CENTRO         76300000CERES          GO0000000000000000                                                                       
1040001300099R 01000000000000000000000000000000000000000000000000220022019000000000000200                                                                                                                                                       
1040001300100P 0101298027300700000000000140000000000249661122024966          2003201900000000001600000000099N2401201822003201900000000000060000000000000000000000000000000000000000000000000000000024966                    3001090090000000000 
1040001300101Q 012022164990014005ELETROSON SA                            AV BERNARDO SAYAO N196                  CENTRO         76300000CERES          GO0000000000000000                                                                       
1040001300102R 01000000000000000000000000000000000000000000000000220032019000000000000200                                                                                                                                                       
1040001300103P 0101298027300700000000000140000000000249671122024967          2004201900000000001600000000099N2401201822004201900000000000060000000000000000000000000000000000000000000000000000000024967                    3001090090000000000 
1040001300104Q 012022164990014005ELETROSON SA                            AV BERNARDO SAYAO N196                  CENTRO         76300000CERES          GO0000000000000000                                                                       
1040001300105R 01000000000000000000000000000000000000000000000000220042019000000000000200                                                                                                                                                       
1040001300106P 0101298027300700000000000140000000000249681122024968          2005201900000000001600000000099N2401201822005201900000000000060000000000000000000000000000000000000000000000000000000024968                    3001090090000000000 
1040001300107Q 012022164990014005ELETROSON SA                            AV BERNARDO SAYAO N196                  CENTRO         76300000CERES          GO0000000000000000                                                                       
1040001300108R 01000000000000000000000000000000000000000000000000220052019000000000000200                                                                                                                                                       
1040001300109P 0101298027300700000000000140000000000249691122024969          2006201900000000001600000000099N2401201822006201900000000000060000000000000000000000000000000000000000000000000000000024969                    3001090090000000000 
1040001300110Q 012022164990014005ELETROSON SA                            AV BERNARDO SAYAO N196                  CENTRO         76300000CERES          GO0000000000000000                                                                       
1040001300111R 01000000000000000000000000000000000000000000000000220062019000000000000200                                                                                                                                                       
1040001300112P 0101298027300700000000000140000000000249821122024982          2401201800000000000720000000099N2401201822401201800000000000060000000000000000000000000000000000000000000000000000000024982                    3001090090000000000 
1040001300113Q 011000039298983816CRISTIAN DE CARVALHO                    RUA ALVORADA                            JARDIM LUCIANA 08575700ITAQUAQUECETUBASP0000000000000000                                                                       
1040001300114R 01000000000000000000000000000000000000000000000000224012018000000000000200                                                                                                                                                       
1040001300115P 0101298027300700000000000140000000000249841122024984          0506201800000000000800000000099N2401201820506201800000000000060000000000000000000000000000000000000000000000000000000024984                    3001090090000000000 
1040001300116Q 012008210732000118RIP LIP CONFECCAO MARCOS A B C DE R LTDARUA 2                                   SETOR PLANALTO 76310000RIALMA         GO0000000000000000                                                                       
1040001300117R 01000000000000000000000000000000000000000000000000205062018000000000000200                                                                                                                                                       
1040001300118P 0101298027300700000000000140000000000249851122024985          0507201800000000000800000000099N2401201820507201800000000000060000000000000000000000000000000000000000000000000000000024985                    3001090090000000000 
1040001300119Q 012008210732000118RIP LIP CONFECCAO MARCOS A B C DE R LTDARUA 2                                   SETOR PLANALTO 76310000RIALMA         GO0000000000000000                                                                       
1040001300120R 01000000000000000000000000000000000000000000000000205072018000000000000200                                                                                                                                                       
1040001300121P 0101298027300700000000000140000000000249861122024986          0508201800000000000800000000099N2401201820508201800000000000060000000000000000000000000000000000000000000000000000000024986                    3001090090000000000 
1040001300122Q 012008210732000118RIP LIP CONFECCAO MARCOS A B C DE R LTDARUA 2                                   SETOR PLANALTO 76310000RIALMA         GO0000000000000000                                                                       
1040001300123R 01000000000000000000000000000000000000000000000000205082018000000000000200                                                                                                                                                       
1040001300124P 0101298027300700000000000140000000000249871122024987          0509201800000000000800000000099N2401201820509201800000000000060000000000000000000000000000000000000000000000000000000024987                    3001090090000000000 
1040001300125Q 012008210732000118RIP LIP CONFECCAO MARCOS A B C DE R LTDARUA 2                                   SETOR PLANALTO 76310000RIALMA         GO0000000000000000                                                                       
1040001300126R 01000000000000000000000000000000000000000000000000205092018000000000000200                                                                                                                                                       
1040001300127P 0101298027300700000000000140000000000249881122024988          0510201800000000000800000000099N2401201820510201800000000000060000000000000000000000000000000000000000000000000000000024988                    3001090090000000000 
1040001300128Q 012008210732000118RIP LIP CONFECCAO MARCOS A B C DE R LTDARUA 2                                   SETOR PLANALTO 76310000RIALMA         GO0000000000000000                                                                       
1040001300129R 01000000000000000000000000000000000000000000000000205102018000000000000200                                                                                                                                                       
1040001300130P 0101298027300700000000000140000000000249891122024989          0511201800000000000800000000099N2401201820511201800000000000060000000000000000000000000000000000000000000000000000000024989                    3001090090000000000 
1040001300131Q 012008210732000118RIP LIP CONFECCAO MARCOS A B C DE R LTDARUA 2                                   SETOR PLANALTO 76310000RIALMA         GO0000000000000000                                                                       
1040001300132R 01000000000000000000000000000000000000000000000000205112018000000000000200                                                                                                                                                       
1040001300133P 0101298027300700000000000140000000000249901122024990          0512201800000000000800000000099N2401201820512201800000000000060000000000000000000000000000000000000000000000000000000024990                    3001090090000000000 
1040001300134Q 012008210732000118RIP LIP CONFECCAO MARCOS A B C DE R LTDARUA 2                                   SETOR PLANALTO 76310000RIALMA         GO0000000000000000                                                                       
1040001300135R 01000000000000000000000000000000000000000000000000205122018000000000000200                                                                                                                                                       
1040001300136P 0101298027300700000000000140000000000249911122024991          0501201900000000000800000000099N2401201820501201900000000000060000000000000000000000000000000000000000000000000000000024991                    3001090090000000000 
1040001300137Q 012008210732000118RIP LIP CONFECCAO MARCOS A B C DE R LTDARUA 2                                   SETOR PLANALTO 76310000RIALMA         GO0000000000000000                                                                       
1040001300138R 01000000000000000000000000000000000000000000000000205012019000000000000200                                                                                                                                                       
1040001300139P 0101298027300700000000000140000000000249921122024992          0502201900000000000800000000099N2401201820502201900000000000060000000000000000000000000000000000000000000000000000000024992                    3001090090000000000 
1040001300140Q 012008210732000118RIP LIP CONFECCAO MARCOS A B C DE R LTDARUA 2                                   SETOR PLANALTO 76310000RIALMA         GO0000000000000000                                                                       
1040001300141R 01000000000000000000000000000000000000000000000000205022019000000000000200                                                                                                                                                       
1040001300142P 0101298027300700000000000140000000000249931122024993          0503201900000000000800000000099N2401201820503201900000000000060000000000000000000000000000000000000000000000000000000024993                    3001090090000000000 
1040001300143Q 012008210732000118RIP LIP CONFECCAO MARCOS A B C DE R LTDARUA 2                                   SETOR PLANALTO 76310000RIALMA         GO0000000000000000                                                                       
1040001300144R 01000000000000000000000000000000000000000000000000205032019000000000000200                                                                                                                                                       
1040001300145P 0101298027300700000000000140000000000249941122024994          0504201900000000000800000000099N2401201820504201900000000000060000000000000000000000000000000000000000000000000000000024994                    3001090090000000000 
1040001300146Q 012008210732000118RIP LIP CONFECCAO MARCOS A B C DE R LTDARUA 2                                   SETOR PLANALTO 76310000RIALMA         GO0000000000000000                                                                       
1040001300147R 01000000000000000000000000000000000000000000000000205042019000000000000200                                                                                                                                                       
1040001300148P 0101298027300700000000000140000000000249951122024995          0505201900000000000800000000099N2401201820505201900000000000060000000000000000000000000000000000000000000000000000000024995                    3001090090000000000 
1040001300149Q 012008210732000118RIP LIP CONFECCAO MARCOS A B C DE R LTDARUA 2                                   SETOR PLANALTO 76310000RIALMA         GO0000000000000000                                                                       
1040001300150R 01000000000000000000000000000000000000000000000000205052019000000000000200                                                                                                                                                       
1040001300151P 0101298027300700000000000140000000000249961122024996          0105201800000000003000000000099N2401201820105201800000000000060000000000000000000000000000000000000000000000000000000024996                    3001090090000000000 
1040001300152Q 012019455232000162ALFA PRODUTOS PARA FESTA EIRELI - M     RUA JARAGUA                             SETOR CAMPINAS 74515040GOIANIA        GO0000000000000000                                                                       
1040001300153R 01000000000000000000000000000000000000000000000000201052018000000000000200                                                                                                                                                       
1040001300154P 0101298027300700000000000140000000000249971122024997          0106201800000000003000000000099N2401201820106201800000000000060000000000000000000000000000000000000000000000000000000024997                    3001090090000000000 
1040001300155Q 012019455232000162ALFA PRODUTOS PARA FESTA EIRELI - M     RUA JARAGUA                             SETOR CAMPINAS 74515040GOIANIA        GO0000000000000000                                                                       
1040001300156R 01000000000000000000000000000000000000000000000000201062018000000000000200                                                                                                                                                       
1040001300157P 0101298027300700000000000140000000000249981122024998          0107201800000000003000000000099N2401201820107201800000000000060000000000000000000000000000000000000000000000000000000024998                    3001090090000000000 
1040001300158Q 012019455232000162ALFA PRODUTOS PARA FESTA EIRELI - M     RUA JARAGUA                             SETOR CAMPINAS 74515040GOIANIA        GO0000000000000000                                                                       
1040001300159R 01000000000000000000000000000000000000000000000000201072018000000000000200                                                                                                                                                       
1040001300160P 0101298027300700000000000140000000000249991122024999          0108201800000000003000000000099N2401201820108201800000000000060000000000000000000000000000000000000000000000000000000024999                    3001090090000000000 
1040001300161Q 012019455232000162ALFA PRODUTOS PARA FESTA EIRELI - M     RUA JARAGUA                             SETOR CAMPINAS 74515040GOIANIA        GO0000000000000000                                                                       
1040001300162R 01000000000000000000000000000000000000000000000000201082018000000000000200                                                                                                                                                       
1040001300163P 0101298027300700000000000140000000000250001122025000          0109201800000000003000000000099N2401201820109201800000000000060000000000000000000000000000000000000000000000000000000025000                    3001090090000000000 
1040001300164Q 012019455232000162ALFA PRODUTOS PARA FESTA EIRELI - M     RUA JARAGUA                             SETOR CAMPINAS 74515040GOIANIA        GO0000000000000000                                                                       
1040001300165R 01000000000000000000000000000000000000000000000000201092018000000000000200                                                                                                                                                       
1040001300166P 0101298027300700000000000140000000000250011122025001          0110201800000000003000000000099N2401201820110201800000000000060000000000000000000000000000000000000000000000000000000025001                    3001090090000000000 
1040001300167Q 012019455232000162ALFA PRODUTOS PARA FESTA EIRELI - M     RUA JARAGUA                             SETOR CAMPINAS 74515040GOIANIA        GO0000000000000000                                                                       
1040001300168R 01000000000000000000000000000000000000000000000000201102018000000000000200                                                                                                                                                       
1040001300169P 0101298027300700000000000140000000000250021122025002          0111201800000000003000000000099N2401201820111201800000000000060000000000000000000000000000000000000000000000000000000025002                    3001090090000000000 
1040001300170Q 012019455232000162ALFA PRODUTOS PARA FESTA EIRELI - M     RUA JARAGUA                             SETOR CAMPINAS 74515040GOIANIA        GO0000000000000000                                                                       
1040001300171R 01000000000000000000000000000000000000000000000000201112018000000000000200                                                                                                                                                       
1040001300172P 0101298027300700000000000140000000000250031122025003          0112201800000000003000000000099N2401201820112201800000000000060000000000000000000000000000000000000000000000000000000025003                    3001090090000000000 
1040001300173Q 012019455232000162ALFA PRODUTOS PARA FESTA EIRELI - M     RUA JARAGUA                             SETOR CAMPINAS 74515040GOIANIA        GO0000000000000000                                                                       
1040001300174R 01000000000000000000000000000000000000000000000000201122018000000000000200                                                                                                                                                       
1040001300175P 0101298027300700000000000140000000000250041122025004          0101201900000000003000000000099N2401201820101201900000000000060000000000000000000000000000000000000000000000000000000025004                    3001090090000000000 
1040001300176Q 012019455232000162ALFA PRODUTOS PARA FESTA EIRELI - M     RUA JARAGUA                             SETOR CAMPINAS 74515040GOIANIA        GO0000000000000000                                                                       
1040001300177R 01000000000000000000000000000000000000000000000000201012019000000000000200                                                                                                                                                       
1040001300178P 0101298027300700000000000140000000000250051122025005          0102201900000000003000000000099N2401201820102201900000000000060000000000000000000000000000000000000000000000000000000025005                    3001090090000000000 
1040001300179Q 012019455232000162ALFA PRODUTOS PARA FESTA EIRELI - M     RUA JARAGUA                             SETOR CAMPINAS 74515040GOIANIA        GO0000000000000000                                                                       
1040001300180R 01000000000000000000000000000000000000000000000000201022019000000000000200                                                                                                                                                       
1040001300181P 0101298027300700000000000140000000000250061122025006          0103201900000000003000000000099N2401201820103201900000000000060000000000000000000000000000000000000000000000000000000025006                    3001090090000000000 
1040001300182Q 012019455232000162ALFA PRODUTOS PARA FESTA EIRELI - M     RUA JARAGUA                             SETOR CAMPINAS 74515040GOIANIA        GO0000000000000000                                                                       
1040001300183R 01000000000000000000000000000000000000000000000000201032019000000000000200                                                                                                                                                       
1040001300184P 0101298027300700000000000140000000000250071122025007          0104201900000000003000000000099N2401201820104201900000000000060000000000000000000000000000000000000000000000000000000025007                    3001090090000000000 
1040001300185Q 012019455232000162ALFA PRODUTOS PARA FESTA EIRELI - M     RUA JARAGUA                             SETOR CAMPINAS 74515040GOIANIA        GO0000000000000000                                                                       
1040001300186R 01000000000000000000000000000000000000000000000000201042019000000000000200                                                                                                                                                       
1040001300187P 0101298027300700000000000140000000000250081122025008          0104201800000000003000000000099N2401201820104201800000000000060000000000000000000000000000000000000000000000000000000025008                    3001090090000000000 
1040001300188Q 012005941045000184DI FESTA PRODUTOS PARA FESTAS EIRELLI - AV C233 Q558 LT13                       JARDIM AMERICA 74290040GOIANIA        GO0000000000000000                                                                       
1040001300189R 01000000000000000000000000000000000000000000000000201042018000000000000200                                                                                                                                                       
1040001300190P 0101298027300700000000000140000000000250091122025009          0105201800000000003000000000099N2401201820105201800000000000060000000000000000000000000000000000000000000000000000000025009                    3001090090000000000 
1040001300191Q 012005941045000184DI FESTA PRODUTOS PARA FESTAS EIRELLI - AV C233 Q558 LT13                       JARDIM AMERICA 74290040GOIANIA        GO0000000000000000                                                                       
1040001300192R 01000000000000000000000000000000000000000000000000201052018000000000000200                                                                                                                                                       
1040001300193P 0101298027300700000000000140000000000250101122025010          0106201800000000003000000000099N2401201820106201800000000000060000000000000000000000000000000000000000000000000000000025010                    3001090090000000000 
1040001300194Q 012005941045000184DI FESTA PRODUTOS PARA FESTAS EIRELLI - AV C233 Q558 LT13                       JARDIM AMERICA 74290040GOIANIA        GO0000000000000000                                                                       
1040001300195R 01000000000000000000000000000000000000000000000000201062018000000000000200                                                                                                                                                       
1040001300196P 0101298027300700000000000140000000000250111122025011          0107201800000000003000000000099N2401201820107201800000000000060000000000000000000000000000000000000000000000000000000025011                    3001090090000000000 
1040001300197Q 012005941045000184DI FESTA PRODUTOS PARA FESTAS EIRELLI - AV C233 Q558 LT13                       JARDIM AMERICA 74290040GOIANIA        GO0000000000000000                                                                       
1040001300198R 01000000000000000000000000000000000000000000000000201072018000000000000200                                                                                                                                                       
1040001300199P 0101298027300700000000000140000000000250121122025012          0108201800000000003000000000099N2401201820108201800000000000060000000000000000000000000000000000000000000000000000000025012                    3001090090000000000 
1040001300200Q 012005941045000184DI FESTA PRODUTOS PARA FESTAS EIRELLI - AV C233 Q558 LT13                       JARDIM AMERICA 74290040GOIANIA        GO0000000000000000                                                                       
1040001300201R 01000000000000000000000000000000000000000000000000201082018000000000000200                                                                                                                                                       
1040001300202P 0101298027300700000000000140000000000250131122025013          0109201800000000003000000000099N2401201820109201800000000000060000000000000000000000000000000000000000000000000000000025013                    3001090090000000000 
1040001300203Q 012005941045000184DI FESTA PRODUTOS PARA FESTAS EIRELLI - AV C233 Q558 LT13                       JARDIM AMERICA 74290040GOIANIA        GO0000000000000000                                                                       
1040001300204R 01000000000000000000000000000000000000000000000000201092018000000000000200                                                                                                                                                       
1040001300205P 0101298027300700000000000140000000000250141122025014          0110201800000000003000000000099N2401201820110201800000000000060000000000000000000000000000000000000000000000000000000025014                    3001090090000000000 
1040001300206Q 012005941045000184DI FESTA PRODUTOS PARA FESTAS EIRELLI - AV C233 Q558 LT13                       JARDIM AMERICA 74290040GOIANIA        GO0000000000000000                                                                       
1040001300207R 01000000000000000000000000000000000000000000000000201102018000000000000200                                                                                                                                                       
1040001300208P 0101298027300700000000000140000000000250151122025015          0111201800000000003000000000099N2401201820111201800000000000060000000000000000000000000000000000000000000000000000000025015                    3001090090000000000 
1040001300209Q 012005941045000184DI FESTA PRODUTOS PARA FESTAS EIRELLI - AV C233 Q558 LT13                       JARDIM AMERICA 74290040GOIANIA        GO0000000000000000                                                                       
1040001300210R 01000000000000000000000000000000000000000000000000201112018000000000000200                                                                                                                                                       
1040001300211P 0101298027300700000000000140000000000250161122025016          0112201800000000003000000000099N2401201820112201800000000000060000000000000000000000000000000000000000000000000000000025016                    3001090090000000000 
1040001300212Q 012005941045000184DI FESTA PRODUTOS PARA FESTAS EIRELLI - AV C233 Q558 LT13                       JARDIM AMERICA 74290040GOIANIA        GO0000000000000000                                                                       
1040001300213R 01000000000000000000000000000000000000000000000000201122018000000000000200                                                                                                                                                       
1040001300214P 0101298027300700000000000140000000000250171122025017          0101201900000000003000000000099N2401201820101201900000000000060000000000000000000000000000000000000000000000000000000025017                    3001090090000000000 
1040001300215Q 012005941045000184DI FESTA PRODUTOS PARA FESTAS EIRELLI - AV C233 Q558 LT13                       JARDIM AMERICA 74290040GOIANIA        GO0000000000000000                                                                       
1040001300216R 01000000000000000000000000000000000000000000000000201012019000000000000200                                                                                                                                                       
1040001300217P 0101298027300700000000000140000000000250181122025018          0102201900000000003000000000099N2401201820102201900000000000060000000000000000000000000000000000000000000000000000000025018                    3001090090000000000 
1040001300218Q 012005941045000184DI FESTA PRODUTOS PARA FESTAS EIRELLI - AV C233 Q558 LT13                       JARDIM AMERICA 74290040GOIANIA        GO0000000000000000                                                                       
1040001300219R 01000000000000000000000000000000000000000000000000201022019000000000000200                                                                                                                                                       
1040001300220P 0101298027300700000000000140000000000250191122025019          0103201900000000003000000000099N2401201820103201900000000000060000000000000000000000000000000000000000000000000000000025019                    3001090090000000000 
1040001300221Q 012005941045000184DI FESTA PRODUTOS PARA FESTAS EIRELLI - AV C233 Q558 LT13                       JARDIM AMERICA 74290040GOIANIA        GO0000000000000000                                                                       
1040001300222R 01000000000000000000000000000000000000000000000000201032019000000000000200                                                                                                                                                       
1040001300223P 0101298027300700000000000140000000000250201122025020          0506201800000000003000000000099N2401201820506201800000000000060000000000000000000000000000000000000000000000000000000025020                    3001090090000000000 
1040001300224Q 012021681767000101JUDA PRODUTOS PARA FESTAS EIRELI - ME   RUA JOSE ARMANDO EM FRENTE AO RIO VERMELCAMPINAS       74515503GOIANIA        GO0000000000000000                                                                       
1040001300225R 01000000000000000000000000000000000000000000000000205062018000000000000200                                                                                                                                                       
1040001300226P 0101298027300700000000000140000000000250211122025021          0507201800000000003000000000099N2401201820507201800000000000060000000000000000000000000000000000000000000000000000000025021                    3001090090000000000 
1040001300227Q 012021681767000101JUDA PRODUTOS PARA FESTAS EIRELI - ME   RUA JOSE ARMANDO EM FRENTE AO RIO VERMELCAMPINAS       74515503GOIANIA        GO0000000000000000                                                                       
1040001300228R 01000000000000000000000000000000000000000000000000205072018000000000000200                                                                                                                                                       
1040001300229P 0101298027300700000000000140000000000250221122025022          0508201800000000003000000000099N2401201820508201800000000000060000000000000000000000000000000000000000000000000000000025022                    3001090090000000000 
1040001300230Q 012021681767000101JUDA PRODUTOS PARA FESTAS EIRELI - ME   RUA JOSE ARMANDO EM FRENTE AO RIO VERMELCAMPINAS       74515503GOIANIA        GO0000000000000000                                                                       
1040001300231R 01000000000000000000000000000000000000000000000000205082018000000000000200                                                                                                                                                       
1040001300232P 0101298027300700000000000140000000000250231122025023          0509201800000000003000000000099N2401201820509201800000000000060000000000000000000000000000000000000000000000000000000025023                    3001090090000000000 
1040001300233Q 012021681767000101JUDA PRODUTOS PARA FESTAS EIRELI - ME   RUA JOSE ARMANDO EM FRENTE AO RIO VERMELCAMPINAS       74515503GOIANIA        GO0000000000000000                                                                       
1040001300234R 01000000000000000000000000000000000000000000000000205092018000000000000200                                                                                                                                                       
1040001300235P 0101298027300700000000000140000000000250241122025024          0510201800000000003000000000099N2401201820510201800000000000060000000000000000000000000000000000000000000000000000000025024                    3001090090000000000 
1040001300236Q 012021681767000101JUDA PRODUTOS PARA FESTAS EIRELI - ME   RUA JOSE ARMANDO EM FRENTE AO RIO VERMELCAMPINAS       74515503GOIANIA        GO0000000000000000                                                                       
1040001300237R 01000000000000000000000000000000000000000000000000205102018000000000000200                                                                                                                                                       
1040001300238P 0101298027300700000000000140000000000250251122025025          0511201800000000003000000000099N2401201820511201800000000000060000000000000000000000000000000000000000000000000000000025025                    3001090090000000000 
1040001300239Q 012021681767000101JUDA PRODUTOS PARA FESTAS EIRELI - ME   RUA JOSE ARMANDO EM FRENTE AO RIO VERMELCAMPINAS       74515503GOIANIA        GO0000000000000000                                                                       
1040001300240R 01000000000000000000000000000000000000000000000000205112018000000000000200                                                                                                                                                       
1040001300241P 0101298027300700000000000140000000000250261122025026          0512201800000000003000000000099N2401201820512201800000000000060000000000000000000000000000000000000000000000000000000025026                    3001090090000000000 
1040001300242Q 012021681767000101JUDA PRODUTOS PARA FESTAS EIRELI - ME   RUA JOSE ARMANDO EM FRENTE AO RIO VERMELCAMPINAS       74515503GOIANIA        GO0000000000000000                                                                       
1040001300243R 01000000000000000000000000000000000000000000000000205122018000000000000200                                                                                                                                                       
1040001300244P 0101298027300700000000000140000000000250271122025027          0501201900000000003000000000099N2401201820501201900000000000060000000000000000000000000000000000000000000000000000000025027                    3001090090000000000 
1040001300245Q 012021681767000101JUDA PRODUTOS PARA FESTAS EIRELI - ME   RUA JOSE ARMANDO EM FRENTE AO RIO VERMELCAMPINAS       74515503GOIANIA        GO0000000000000000                                                                       
1040001300246R 01000000000000000000000000000000000000000000000000205012019000000000000200                                                                                                                                                       
1040001300247P 0101298027300700000000000140000000000250281122025028          0502201900000000003000000000099N2401201820502201900000000000060000000000000000000000000000000000000000000000000000000025028                    3001090090000000000 
1040001300248Q 012021681767000101JUDA PRODUTOS PARA FESTAS EIRELI - ME   RUA JOSE ARMANDO EM FRENTE AO RIO VERMELCAMPINAS       74515503GOIANIA        GO0000000000000000                                                                       
1040001300249R 01000000000000000000000000000000000000000000000000205022019000000000000200                                                                                                                                                       
1040001300250P 0101298027300700000000000140000000000250291122025029          0503201900000000003000000000099N2401201820503201900000000000060000000000000000000000000000000000000000000000000000000025029                    3001090090000000000 
1040001300251Q 012021681767000101JUDA PRODUTOS PARA FESTAS EIRELI - ME   RUA JOSE ARMANDO EM FRENTE AO RIO VERMELCAMPINAS       74515503GOIANIA        GO0000000000000000                                                                       
1040001300252R 01000000000000000000000000000000000000000000000000205032019000000000000200                                                                                                                                                       
1040001300253P 0101298027300700000000000140000000000250301122025030          0504201900000000003000000000099N2401201820504201900000000000060000000000000000000000000000000000000000000000000000000025030                    3001090090000000000 
1040001300254Q 012021681767000101JUDA PRODUTOS PARA FESTAS EIRELI - ME   RUA JOSE ARMANDO EM FRENTE AO RIO VERMELCAMPINAS       74515503GOIANIA        GO0000000000000000                                                                       
1040001300255R 01000000000000000000000000000000000000000000000000205042019000000000000200                                                                                                                                                       
1040001300256P 0101298027300700000000000140000000000250311122025031          0505201900000000003000000000099N2401201820505201900000000000060000000000000000000000000000000000000000000000000000000025031                    3001090090000000000 
1040001300257Q 012021681767000101JUDA PRODUTOS PARA FESTAS EIRELI - ME   RUA JOSE ARMANDO EM FRENTE AO RIO VERMELCAMPINAS       74515503GOIANIA        GO0000000000000000                                                                       
1040001300258R 01000000000000000000000000000000000000000000000000205052019000000000000200                                                                                                                                                       
1040001300259P 0101298027300700000000000140000000000250441122025044          1505201800000000003000000000099N2401201821505201800000000000060000000000000000000000000000000000000000000000000000000025044                    3001090090000000000 
1040001300260Q 012024263163000125LORD PRODUTOS PARA FESTA EIRELI-ME      AV ALFREDO NASSER  Q 16 L 06            MANDU 2        72814510LUZIANIA       GO0000000000000000                                                                       
1040001300261R 01000000000000000000000000000000000000000000000000215052018000000000000200                                                                                                                                                       
1040001300262P 0101298027300700000000000140000000000250451122025045          1506201800000000003000000000099N2401201821506201800000000000060000000000000000000000000000000000000000000000000000000025045                    3001090090000000000 
1040001300263Q 012024263163000125LORD PRODUTOS PARA FESTA EIRELI-ME      AV ALFREDO NASSER  Q 16 L 06            MANDU 2        72814510LUZIANIA       GO0000000000000000                                                                       
1040001300264R 01000000000000000000000000000000000000000000000000215062018000000000000200                                                                                                                                                       
1040001300265P 0101298027300700000000000140000000000250461122025046          1507201800000000003000000000099N2401201821507201800000000000060000000000000000000000000000000000000000000000000000000025046                    3001090090000000000 
1040001300266Q 012024263163000125LORD PRODUTOS PARA FESTA EIRELI-ME      AV ALFREDO NASSER  Q 16 L 06            MANDU 2        72814510LUZIANIA       GO0000000000000000                                                                       
1040001300267R 01000000000000000000000000000000000000000000000000215072018000000000000200                                                                                                                                                       
1040001300268P 0101298027300700000000000140000000000250471122025047          1508201800000000003000000000099N2401201821508201800000000000060000000000000000000000000000000000000000000000000000000025047                    3001090090000000000 
1040001300269Q 012024263163000125LORD PRODUTOS PARA FESTA EIRELI-ME      AV ALFREDO NASSER  Q 16 L 06            MANDU 2        72814510LUZIANIA       GO0000000000000000                                                                       
1040001300270R 01000000000000000000000000000000000000000000000000215082018000000000000200                                                                                                                                                       
1040001300271P 0101298027300700000000000140000000000250481122025048          1509201800000000003000000000099N2401201821509201800000000000060000000000000000000000000000000000000000000000000000000025048                    3001090090000000000 
1040001300272Q 012024263163000125LORD PRODUTOS PARA FESTA EIRELI-ME      AV ALFREDO NASSER  Q 16 L 06            MANDU 2        72814510LUZIANIA       GO0000000000000000                                                                       
1040001300273R 01000000000000000000000000000000000000000000000000215092018000000000000200                                                                                                                                                       
1040001300274P 0101298027300700000000000140000000000250491122025049          1510201800000000003000000000099N2401201821510201800000000000060000000000000000000000000000000000000000000000000000000025049                    3001090090000000000 
1040001300275Q 012024263163000125LORD PRODUTOS PARA FESTA EIRELI-ME      AV ALFREDO NASSER  Q 16 L 06            MANDU 2        72814510LUZIANIA       GO0000000000000000                                                                       
1040001300276R 01000000000000000000000000000000000000000000000000215102018000000000000200                                                                                                                                                       
1040001300277P 0101298027300700000000000140000000000250501122025050          1511201800000000003000000000099N2401201821511201800000000000060000000000000000000000000000000000000000000000000000000025050                    3001090090000000000 
1040001300278Q 012024263163000125LORD PRODUTOS PARA FESTA EIRELI-ME      AV ALFREDO NASSER  Q 16 L 06            MANDU 2        72814510LUZIANIA       GO0000000000000000                                                                       
1040001300279R 01000000000000000000000000000000000000000000000000215112018000000000000200                                                                                                                                                       
1040001300280P 0101298027300700000000000140000000000250511122025051          1512201800000000003000000000099N2401201821512201800000000000060000000000000000000000000000000000000000000000000000000025051                    3001090090000000000 
1040001300281Q 012024263163000125LORD PRODUTOS PARA FESTA EIRELI-ME      AV ALFREDO NASSER  Q 16 L 06            MANDU 2        72814510LUZIANIA       GO0000000000000000                                                                       
1040001300282R 01000000000000000000000000000000000000000000000000215122018000000000000200                                                                                                                                                       
1040001300283P 0101298027300700000000000140000000000250521122025052          1501201900000000003000000000099N2401201821501201900000000000060000000000000000000000000000000000000000000000000000000025052                    3001090090000000000 
1040001300284Q 012024263163000125LORD PRODUTOS PARA FESTA EIRELI-ME      AV ALFREDO NASSER  Q 16 L 06            MANDU 2        72814510LUZIANIA       GO0000000000000000                                                                       
1040001300285R 01000000000000000000000000000000000000000000000000215012019000000000000200                                                                                                                                                       
1040001300286P 0101298027300700000000000140000000000250531122025053          1502201900000000003000000000099N2401201821502201900000000000060000000000000000000000000000000000000000000000000000000025053                    3001090090000000000 
1040001300287Q 012024263163000125LORD PRODUTOS PARA FESTA EIRELI-ME      AV ALFREDO NASSER  Q 16 L 06            MANDU 2        72814510LUZIANIA       GO0000000000000000                                                                       
1040001300288R 01000000000000000000000000000000000000000000000000215022019000000000000200                                                                                                                                                       
1040001300289P 0101298027300700000000000140000000000250541122025054          1503201900000000003000000000099N2401201821503201900000000000060000000000000000000000000000000000000000000000000000000025054                    3001090090000000000 
1040001300290Q 012024263163000125LORD PRODUTOS PARA FESTA EIRELI-ME      AV ALFREDO NASSER  Q 16 L 06            MANDU 2        72814510LUZIANIA       GO0000000000000000                                                                       
1040001300291R 01000000000000000000000000000000000000000000000000215032019000000000000200                                                                                                                                                       
1040001300292P 0101298027300700000000000140000000000250551122025055          1504201900000000003000000000099N2401201821504201900000000000060000000000000000000000000000000000000000000000000000000025055                    3001090090000000000 
1040001300293Q 012024263163000125LORD PRODUTOS PARA FESTA EIRELI-ME      AV ALFREDO NASSER  Q 16 L 06            MANDU 2        72814510LUZIANIA       GO0000000000000000                                                                       
1040001300294R 01000000000000000000000000000000000000000000000000215042019000000000000200                                                                                                                                                       
1040001300295P 0101298027300700000000000140000000000250561122025056          1004201800000000001300000000099N2401201821004201800000000000060000000000000000000000000000000000000000000000000000000025056                    3001090090000000000 
1040001300296Q 011000072801794104DR RAIMUNDO SOUZA BORGES JUNIOR         AV BERNARDO SAYAO N 347                 CENTRO         76310000RIALMA         GO0000000000000000                                                                       
1040001300297R 01000000000000000000000000000000000000000000000000210042018000000000000200                                                                                                                                                       
1040001300298P 0101298027300700000000000140000000000250571122025057          1005201800000000001300000000099N2401201821005201800000000000060000000000000000000000000000000000000000000000000000000025057                    3001090090000000000 
1040001300299Q 011000072801794104DR RAIMUNDO SOUZA BORGES JUNIOR         AV BERNARDO SAYAO N 347                 CENTRO         76310000RIALMA         GO0000000000000000                                                                       
1040001300300R 01000000000000000000000000000000000000000000000000210052018000000000000200                                                                                                                                                       
1040001300301P 0101298027300700000000000140000000000250581122025058          1006201800000000001300000000099N2401201821006201800000000000060000000000000000000000000000000000000000000000000000000025058                    3001090090000000000 
1040001300302Q 011000072801794104DR RAIMUNDO SOUZA BORGES JUNIOR         AV BERNARDO SAYAO N 347                 CENTRO         76310000RIALMA         GO0000000000000000                                                                       
1040001300303R 01000000000000000000000000000000000000000000000000210062018000000000000200                                                                                                                                                       
1040001300304P 0101298027300700000000000140000000000250591122025059          1007201800000000001300000000099N2401201821007201800000000000060000000000000000000000000000000000000000000000000000000025059                    3001090090000000000 
1040001300305Q 011000072801794104DR RAIMUNDO SOUZA BORGES JUNIOR         AV BERNARDO SAYAO N 347                 CENTRO         76310000RIALMA         GO0000000000000000                                                                       
1040001300306R 01000000000000000000000000000000000000000000000000210072018000000000000200                                                                                                                                                       
1040001300307P 0101298027300700000000000140000000000250601122025060          1008201800000000001300000000099N2401201821008201800000000000060000000000000000000000000000000000000000000000000000000025060                    3001090090000000000 
1040001300308Q 011000072801794104DR RAIMUNDO SOUZA BORGES JUNIOR         AV BERNARDO SAYAO N 347                 CENTRO         76310000RIALMA         GO0000000000000000                                                                       
1040001300309R 01000000000000000000000000000000000000000000000000210082018000000000000200                                                                                                                                                       
1040001300310P 0101298027300700000000000140000000000250611122025061          1009201800000000001300000000099N2401201821009201800000000000060000000000000000000000000000000000000000000000000000000025061                    3001090090000000000 
1040001300311Q 011000072801794104DR RAIMUNDO SOUZA BORGES JUNIOR         AV BERNARDO SAYAO N 347                 CENTRO         76310000RIALMA         GO0000000000000000                                                                       
1040001300312R 01000000000000000000000000000000000000000000000000210092018000000000000200                                                                                                                                                       
1040001300313P 0101298027300700000000000140000000000250621122025062          1010201800000000001300000000099N2401201821010201800000000000060000000000000000000000000000000000000000000000000000000025062                    3001090090000000000 
1040001300314Q 011000072801794104DR RAIMUNDO SOUZA BORGES JUNIOR         AV BERNARDO SAYAO N 347                 CENTRO         76310000RIALMA         GO0000000000000000                                                                       
1040001300315R 01000000000000000000000000000000000000000000000000210102018000000000000200                                                                                                                                                       
1040001300316P 0101298027300700000000000140000000000250631122025063          1011201800000000001300000000099N2401201821011201800000000000060000000000000000000000000000000000000000000000000000000025063                    3001090090000000000 
1040001300317Q 011000072801794104DR RAIMUNDO SOUZA BORGES JUNIOR         AV BERNARDO SAYAO N 347                 CENTRO         76310000RIALMA         GO0000000000000000                                                                       
1040001300318R 01000000000000000000000000000000000000000000000000210112018000000000000200                                                                                                                                                       
1040001300319P 0101298027300700000000000140000000000250641122025064          1012201800000000001300000000099N2401201821012201800000000000060000000000000000000000000000000000000000000000000000000025064                    3001090090000000000 
1040001300320Q 011000072801794104DR RAIMUNDO SOUZA BORGES JUNIOR         AV BERNARDO SAYAO N 347                 CENTRO         76310000RIALMA         GO0000000000000000                                                                       
1040001300321R 01000000000000000000000000000000000000000000000000210122018000000000000200                                                                                                                                                       
1040001300322P 0101298027300700000000000140000000000250651122025065          1001201900000000001300000000099N2401201821001201900000000000060000000000000000000000000000000000000000000000000000000025065                    3001090090000000000 
1040001300323Q 011000072801794104DR RAIMUNDO SOUZA BORGES JUNIOR         AV BERNARDO SAYAO N 347                 CENTRO         76310000RIALMA         GO0000000000000000                                                                       
1040001300324R 01000000000000000000000000000000000000000000000000210012019000000000000200                                                                                                                                                       
1040001300325P 0101298027300700000000000140000000000250661122025066          1002201900000000001300000000099N2401201821002201900000000000060000000000000000000000000000000000000000000000000000000025066                    3001090090000000000 
1040001300326Q 011000072801794104DR RAIMUNDO SOUZA BORGES JUNIOR         AV BERNARDO SAYAO N 347                 CENTRO         76310000RIALMA         GO0000000000000000                                                                       
1040001300327R 01000000000000000000000000000000000000000000000000210022019000000000000200                                                                                                                                                       
1040001300328P 0101298027300700000000000140000000000250671122025067          1003201900000000001300000000099N2401201821003201900000000000060000000000000000000000000000000000000000000000000000000025067                    3001090090000000000 
1040001300329Q 011000072801794104DR RAIMUNDO SOUZA BORGES JUNIOR         AV BERNARDO SAYAO N 347                 CENTRO         76310000RIALMA         GO0000000000000000                                                                       
1040001300330R 01000000000000000000000000000000000000000000000000210032019000000000000200                                                                                                                                                       
1040001300331P 0101298027300700000000000140000000000250681122025068          1004201800000000001000000000099N2401201821004201800000000000060000000000000000000000000000000000000000000000000000000025068                    3001090090000000000 
1040001300332Q 011000062892258120PAULINELLY CARNEIRO RESIDENCIA          RUA 42 QD 16 LT 29                      CENTRO         76310000RIALMA         GO0000000000000000                                                                       
1040001300333R 01000000000000000000000000000000000000000000000000210042018000000000000200                                                                                                                                                       
1040001300334P 0101298027300700000000000140000000000250691122025069          1005201800000000001000000000099N2401201821005201800000000000060000000000000000000000000000000000000000000000000000000025069                    3001090090000000000 
1040001300335Q 011000062892258120PAULINELLY CARNEIRO RESIDENCIA          RUA 42 QD 16 LT 29                      CENTRO         76310000RIALMA         GO0000000000000000                                                                       
1040001300336R 01000000000000000000000000000000000000000000000000210052018000000000000200                                                                                                                                                       
1040001300337P 0101298027300700000000000140000000000250701122025070          1006201800000000001000000000099N2401201821006201800000000000060000000000000000000000000000000000000000000000000000000025070                    3001090090000000000 
1040001300338Q 011000062892258120PAULINELLY CARNEIRO RESIDENCIA          RUA 42 QD 16 LT 29                      CENTRO         76310000RIALMA         GO0000000000000000                                                                       
1040001300339R 01000000000000000000000000000000000000000000000000210062018000000000000200                                                                                                                                                       
1040001300340P 0101298027300700000000000140000000000250711122025071          1007201800000000001000000000099N2401201821007201800000000000060000000000000000000000000000000000000000000000000000000025071                    3001090090000000000 
1040001300341Q 011000062892258120PAULINELLY CARNEIRO RESIDENCIA          RUA 42 QD 16 LT 29                      CENTRO         76310000RIALMA         GO0000000000000000                                                                       
1040001300342R 01000000000000000000000000000000000000000000000000210072018000000000000200                                                                                                                                                       
1040001300343P 0101298027300700000000000140000000000250721122025072          1008201800000000001000000000099N2401201821008201800000000000060000000000000000000000000000000000000000000000000000000025072                    3001090090000000000 
1040001300344Q 011000062892258120PAULINELLY CARNEIRO RESIDENCIA          RUA 42 QD 16 LT 29                      CENTRO         76310000RIALMA         GO0000000000000000                                                                       
1040001300345R 01000000000000000000000000000000000000000000000000210082018000000000000200                                                                                                                                                       
1040001300346P 0101298027300700000000000140000000000250731122025073          1009201800000000001000000000099N2401201821009201800000000000060000000000000000000000000000000000000000000000000000000025073                    3001090090000000000 
1040001300347Q 011000062892258120PAULINELLY CARNEIRO RESIDENCIA          RUA 42 QD 16 LT 29                      CENTRO         76310000RIALMA         GO0000000000000000                                                                       
1040001300348R 01000000000000000000000000000000000000000000000000210092018000000000000200                                                                                                                                                       
1040001300349P 0101298027300700000000000140000000000250741122025074          1010201800000000001000000000099N2401201821010201800000000000060000000000000000000000000000000000000000000000000000000025074                    3001090090000000000 
1040001300350Q 011000062892258120PAULINELLY CARNEIRO RESIDENCIA          RUA 42 QD 16 LT 29                      CENTRO         76310000RIALMA         GO0000000000000000                                                                       
1040001300351R 01000000000000000000000000000000000000000000000000210102018000000000000200                                                                                                                                                       
1040001300352P 0101298027300700000000000140000000000250751122025075          1011201800000000001000000000099N2401201821011201800000000000060000000000000000000000000000000000000000000000000000000025075                    3001090090000000000 
1040001300353Q 011000062892258120PAULINELLY CARNEIRO RESIDENCIA          RUA 42 QD 16 LT 29                      CENTRO         76310000RIALMA         GO0000000000000000                                                                       
1040001300354R 01000000000000000000000000000000000000000000000000210112018000000000000200                                                                                                                                                       
1040001300355P 0101298027300700000000000140000000000250761122025076          1012201800000000001000000000099N2401201821012201800000000000060000000000000000000000000000000000000000000000000000000025076                    3001090090000000000 
1040001300356Q 011000062892258120PAULINELLY CARNEIRO RESIDENCIA          RUA 42 QD 16 LT 29                      CENTRO         76310000RIALMA         GO0000000000000000                                                                       
1040001300357R 01000000000000000000000000000000000000000000000000210122018000000000000200                                                                                                                                                       
1040001300358P 0101298027300700000000000140000000000250771122025077          1001201900000000001000000000099N2401201821001201900000000000060000000000000000000000000000000000000000000000000000000025077                    3001090090000000000 
1040001300359Q 011000062892258120PAULINELLY CARNEIRO RESIDENCIA          RUA 42 QD 16 LT 29                      CENTRO         76310000RIALMA         GO0000000000000000                                                                       
1040001300360R 01000000000000000000000000000000000000000000000000210012019000000000000200                                                                                                                                                       
1040001300361P 0101298027300700000000000140000000000250781122025078          1002201900000000001000000000099N2401201821002201900000000000060000000000000000000000000000000000000000000000000000000025078                    3001090090000000000 
1040001300362Q 011000062892258120PAULINELLY CARNEIRO RESIDENCIA          RUA 42 QD 16 LT 29                      CENTRO         76310000RIALMA         GO0000000000000000                                                                       
1040001300363R 01000000000000000000000000000000000000000000000000210022019000000000000200                                                                                                                                                       
1040001300364P 0101298027300700000000000140000000000250791122025079          1003201900000000001000000000099N2401201821003201900000000000060000000000000000000000000000000000000000000000000000000025079                    3001090090000000000 
1040001300365Q 011000062892258120PAULINELLY CARNEIRO RESIDENCIA          RUA 42 QD 16 LT 29                      CENTRO         76310000RIALMA         GO0000000000000000                                                                       
1040001300366R 01000000000000000000000000000000000000000000000000210032019000000000000200                                                                                                                                                       
1040001300367P 0101298027300700000000000140000000000250921122025092          2004201800000000001500000000099N2401201822004201800000000000060000000000000000000000000000000000000000000000000000000025092                    3001090090000000000 
1040001300368Q 012004051106000175ELIAS DOS REIS FRANCA E CIA LTDA - ME   ARGEMIRO NEPOMUCENO DE SOUZA  N 1007    VILA PLANALTO  76310000RIALMA         GO0000000000000000                                                                       
1040001300369R 01000000000000000000000000000000000000000000000000220042018000000000000200                                                                                                                                                       
1040001300370P 0101298027300700000000000140000000000250931122025093          2005201800000000001500000000099N2401201822005201800000000000060000000000000000000000000000000000000000000000000000000025093                    3001090090000000000 
1040001300371Q 012004051106000175ELIAS DOS REIS FRANCA E CIA LTDA - ME   ARGEMIRO NEPOMUCENO DE SOUZA  N 1007    VILA PLANALTO  76310000RIALMA         GO0000000000000000                                                                       
1040001300372R 01000000000000000000000000000000000000000000000000220052018000000000000200                                                                                                                                                       
1040001300373P 0101298027300700000000000140000000000250941122025094          2006201800000000001500000000099N2401201822006201800000000000060000000000000000000000000000000000000000000000000000000025094                    3001090090000000000 
1040001300374Q 012004051106000175ELIAS DOS REIS FRANCA E CIA LTDA - ME   ARGEMIRO NEPOMUCENO DE SOUZA  N 1007    VILA PLANALTO  76310000RIALMA         GO0000000000000000                                                                       
1040001300375R 01000000000000000000000000000000000000000000000000220062018000000000000200                                                                                                                                                       
1040001300376P 0101298027300700000000000140000000000250951122025095          2007201800000000001500000000099N2401201822007201800000000000060000000000000000000000000000000000000000000000000000000025095                    3001090090000000000 
1040001300377Q 012004051106000175ELIAS DOS REIS FRANCA E CIA LTDA - ME   ARGEMIRO NEPOMUCENO DE SOUZA  N 1007    VILA PLANALTO  76310000RIALMA         GO0000000000000000                                                                       
1040001300378R 01000000000000000000000000000000000000000000000000220072018000000000000200                                                                                                                                                       
1040001300379P 0101298027300700000000000140000000000250961122025096          2008201800000000001500000000099N2401201822008201800000000000060000000000000000000000000000000000000000000000000000000025096                    3001090090000000000 
1040001300380Q 012004051106000175ELIAS DOS REIS FRANCA E CIA LTDA - ME   ARGEMIRO NEPOMUCENO DE SOUZA  N 1007    VILA PLANALTO  76310000RIALMA         GO0000000000000000                                                                       
1040001300381R 01000000000000000000000000000000000000000000000000220082018000000000000200                                                                                                                                                       
1040001300382P 0101298027300700000000000140000000000250971122025097          2009201800000000001500000000099N2401201822009201800000000000060000000000000000000000000000000000000000000000000000000025097                    3001090090000000000 
1040001300383Q 012004051106000175ELIAS DOS REIS FRANCA E CIA LTDA - ME   ARGEMIRO NEPOMUCENO DE SOUZA  N 1007    VILA PLANALTO  76310000RIALMA         GO0000000000000000                                                                       
1040001300384R 01000000000000000000000000000000000000000000000000220092018000000000000200                                                                                                                                                       
1040001300385P 0101298027300700000000000140000000000250981122025098          2010201800000000001500000000099N2401201822010201800000000000060000000000000000000000000000000000000000000000000000000025098                    3001090090000000000 
1040001300386Q 012004051106000175ELIAS DOS REIS FRANCA E CIA LTDA - ME   ARGEMIRO NEPOMUCENO DE SOUZA  N 1007    VILA PLANALTO  76310000RIALMA         GO0000000000000000                                                                       
1040001300387R 01000000000000000000000000000000000000000000000000220102018000000000000200                                                                                                                                                       
1040001300388P 0101298027300700000000000140000000000250991122025099          2011201800000000001500000000099N2401201822011201800000000000060000000000000000000000000000000000000000000000000000000025099                    3001090090000000000 
1040001300389Q 012004051106000175ELIAS DOS REIS FRANCA E CIA LTDA - ME   ARGEMIRO NEPOMUCENO DE SOUZA  N 1007    VILA PLANALTO  76310000RIALMA         GO0000000000000000                                                                       
1040001300390R 01000000000000000000000000000000000000000000000000220112018000000000000200                                                                                                                                                       
1040001300391P 0101298027300700000000000140000000000251001122025100          2012201800000000001500000000099N2401201822012201800000000000060000000000000000000000000000000000000000000000000000000025100                    3001090090000000000 
1040001300392Q 012004051106000175ELIAS DOS REIS FRANCA E CIA LTDA - ME   ARGEMIRO NEPOMUCENO DE SOUZA  N 1007    VILA PLANALTO  76310000RIALMA         GO0000000000000000                                                                       
1040001300393R 01000000000000000000000000000000000000000000000000220122018000000000000200                                                                                                                                                       
1040001300394P 0101298027300700000000000140000000000251011122025101          2001201900000000001500000000099N2401201822001201900000000000060000000000000000000000000000000000000000000000000000000025101                    3001090090000000000 
1040001300395Q 012004051106000175ELIAS DOS REIS FRANCA E CIA LTDA - ME   ARGEMIRO NEPOMUCENO DE SOUZA  N 1007    VILA PLANALTO  76310000RIALMA         GO0000000000000000                                                                       
1040001300396R 01000000000000000000000000000000000000000000000000220012019000000000000200                                                                                                                                                       
1040001300397P 0101298027300700000000000140000000000251021122025102          2002201900000000001500000000099N2401201822002201900000000000060000000000000000000000000000000000000000000000000000000025102                    3001090090000000000 
1040001300398Q 012004051106000175ELIAS DOS REIS FRANCA E CIA LTDA - ME   ARGEMIRO NEPOMUCENO DE SOUZA  N 1007    VILA PLANALTO  76310000RIALMA         GO0000000000000000                                                                       
1040001300399R 01000000000000000000000000000000000000000000000000220022019000000000000200                                                                                                                                                       
1040001300400P 0101298027300700000000000140000000000251031122025103          2003201900000000001500000000099N2401201822003201900000000000060000000000000000000000000000000000000000000000000000000025103                    3001090090000000000 
1040001300401Q 012004051106000175ELIAS DOS REIS FRANCA E CIA LTDA - ME   ARGEMIRO NEPOMUCENO DE SOUZA  N 1007    VILA PLANALTO  76310000RIALMA         GO0000000000000000                                                                       
1040001300402R 01000000000000000000000000000000000000000000000000220032019000000000000200                                                                                                                                                       
1040001300403P 0101298027300700000000000140000000000251041122025104          2504201800000000001000000000099N2401201822504201800000000000060000000000000000000000000000000000000000000000000000000025104                    3001090090000000000 
1040001300404Q 012015692153000114DARKSON DE FREITAS                      AV BERNARDO SAYAO N6334 QD B LT 59      CENTRO         76300000CERES          GO0000000000000000                                                                       
1040001300405R 01000000000000000000000000000000000000000000000000225042018000000000000200                                                                                                                                                       
1040001300406P 0101298027300700000000000140000000000251051122025105          2505201800000000001000000000099N2401201822505201800000000000060000000000000000000000000000000000000000000000000000000025105                    3001090090000000000 
1040001300407Q 012015692153000114DARKSON DE FREITAS                      AV BERNARDO SAYAO N6334 QD B LT 59      CENTRO         76300000CERES          GO0000000000000000                                                                       
1040001300408R 01000000000000000000000000000000000000000000000000225052018000000000000200                                                                                                                                                       
1040001300409P 0101298027300700000000000140000000000251061122025106          2506201800000000001000000000099N2401201822506201800000000000060000000000000000000000000000000000000000000000000000000025106                    3001090090000000000 
1040001300410Q 012015692153000114DARKSON DE FREITAS                      AV BERNARDO SAYAO N6334 QD B LT 59      CENTRO         76300000CERES          GO0000000000000000                                                                       
1040001300411R 01000000000000000000000000000000000000000000000000225062018000000000000200                                                                                                                                                       
1040001300412P 0101298027300700000000000140000000000251071122025107          2507201800000000001000000000099N2401201822507201800000000000060000000000000000000000000000000000000000000000000000000025107                    3001090090000000000 
