10400000         2116559540001590000000000000000000001298027300700000000FEDERAL SISTEMAS              CAIXA ECONOMICA FEDERAL                 11410201915161300016905000000                    REMESSA-PRODUCAO                                 
10400011R0100030 20116559540001592730070000000000000001298027300700000000FEDERAL SISTEMAS                                                                                              000001691410201900000000                                 
1040001300001P 0101298027300700000000000140000000000577981122057798          1506201900000000002500000000099N2805201921506201900000000000060000000000000000000000000000000000000000000000000000000057798                    3001029090000000000 
1040001300002Q 011000096556722120MARCOS PIRES DE OLIVEIRA                AV. PRESIDENTE VARGAS                   CENTRO         76300000CERES          GO0000000000000000                                                                       
1040001300003R 01000000000000000000000000000000000000000000000000215062019000000000000200                                                                                                                                                       
1040001300004P 0101298027300700000000000140000000000577991122057799          0107201900000000002000000000099N2805201920107201900000000000060000000000000000000000000000000000000000000000000000000057799                    3001029090000000000 
1040001300005Q 011000096556722120MARCOS PIRES DE OLIVEIRA                AV. PRESIDENTE VARGAS                   CENTRO         76300000CERES          GO0000000000000000                                                                       
1040001300006R 01000000000000000000000000000000000000000000000000201072019000000000000200                                                                                                                                                       
1040001300007P 0101298027300700000000000140000000000578001122057800          0108201900000000002000000000099N2805201920108201900000000000060000000000000000000000000000000000000000000000000000000057800                    3001029090000000000 
1040001300008Q 011000096556722120MARCOS PIRES DE OLIVEIRA                AV. PRESIDENTE VARGAS                   CENTRO         76300000CERES          GO0000000000000000                                                                       
1040001300009R 01000000000000000000000000000000000000000000000000201082019000000000000200                                                                                                                                                       
1040001300010P 0101298027300700000000000140000000000578011122057801          0109201900000000002000000000099N2805201920109201900000000000060000000000000000000000000000000000000000000000000000000057801                    3001029090000000000 
1040001300011Q 011000096556722120MARCOS PIRES DE OLIVEIRA                AV. PRESIDENTE VARGAS                   CENTRO         76300000CERES          GO0000000000000000                                                                       
1040001300012R 01000000000000000000000000000000000000000000000000201092019000000000000200                                                                                                                                                       
1040001300013P 0101298027300700000000000140000000000578181122057818          3010201900000000000299000000099N2805201923010201900000000000060000000000000000000000000000000000000000000000000000000057818                    3001029090000000000 
1040001300014Q 011000002699740160NAIARA GUIMARAES DE OLIVEIRA MEDEIROS   AV. PRESIDENTE VARGAS                   CENTRO         76300000CERES          GO0000000000000000                                                                       
1040001300015R 01000000000000000000000000000000000000000000000000230102019000000000000200                                                                                                                                                       
1040001300016P 0101298027300700000000000140000000000578191122057819          3011201900000000000299000000099N2805201923011201900000000000060000000000000000000000000000000000000000000000000000000057819                    3001029090000000000 
1040001300017Q 011000002699740160NAIARA GUIMARAES DE OLIVEIRA MEDEIROS   AV. PRESIDENTE VARGAS                   CENTRO         76300000CERES          GO0000000000000000                                                                       
1040001300018R 01000000000000000000000000000000000000000000000000230112019000000000000200                                                                                                                                                       
1040001300019P 0101298027300700000000000140000000000578201122057820          3012201900000000000299000000099N2805201923012201900000000000060000000000000000000000000000000000000000000000000000000057820                    3001029090000000000 
1040001300020Q 011000002699740160NAIARA GUIMARAES DE OLIVEIRA MEDEIROS   AV. PRESIDENTE VARGAS                   CENTRO         76300000CERES          GO0000000000000000                                                                       
1040001300021R 01000000000000000000000000000000000000000000000000230122019000000000000200                                                                                                                                                       
1040001300022P 0101298027300700000000000140000000000578211122057821          3001202000000000000299000000099N2805201923001202000000000000060000000000000000000000000000000000000000000000000000000057821                    3001029090000000000 
1040001300023Q 011000002699740160NAIARA GUIMARAES DE OLIVEIRA MEDEIROS   AV. PRESIDENTE VARGAS                   CENTRO         76300000CERES          GO0000000000000000                                                                       
1040001300024R 01000000000000000000000000000000000000000000000000230012020000000000000200                                                                                                                                                       
1040001300025P 0101298027300700000000000140000000000578221122057822          0103202000000000000299000000099N2805201920103202000000000000060000000000000000000000000000000000000000000000000000000057822                    3001029090000000000 
1040001300026Q 011000002699740160NAIARA GUIMARAES DE OLIVEIRA MEDEIROS   AV. PRESIDENTE VARGAS                   CENTRO         76300000CERES          GO0000000000000000                                                                       
1040001300027R 01000000000000000000000000000000000000000000000000201032020000000000000200                                                                                                                                                       
1040001300028P 0101298027300700000000000140000000000578231122057823          3003202000000000000299000000099N2805201923003202000000000000060000000000000000000000000000000000000000000000000000000057823                    3001029090000000000 
1040001300029Q 011000002699740160NAIARA GUIMARAES DE OLIVEIRA MEDEIROS   AV. PRESIDENTE VARGAS                   CENTRO         76300000CERES          GO0000000000000000                                                                       
1040001300030R 01000000000000000000000000000000000000000000000000230032020000000000000200                                                                                                                                                       
1040001300031P 0101298027300700000000000140000000000578241122057824          3004202000000000000299000000099N2805201923004202000000000000060000000000000000000000000000000000000000000000000000000057824                    3001029090000000000 
1040001300032Q 011000002699740160NAIARA GUIMARAES DE OLIVEIRA MEDEIROS   AV. PRESIDENTE VARGAS                   CENTRO         76300000CERES          GO0000000000000000                                                                       
1040001300033R 01000000000000000000000000000000000000000000000000230042020000000000000200                                                                                                                                                       
1040001300034P 0101298027300700000000000140000000000578251122057825          3005202000000000000299000000099N2805201923005202000000000000060000000000000000000000000000000000000000000000000000000057825                    3001029090000000000 
1040001300035Q 011000002699740160NAIARA GUIMARAES DE OLIVEIRA MEDEIROS   AV. PRESIDENTE VARGAS                   CENTRO         76300000CERES          GO0000000000000000                                                                       
1040001300036R 01000000000000000000000000000000000000000000000000230052020000000000000200                                                                                                                                                       
1040001300037P 0101298027300700000000000140000000000578261122057826          0506201900000000000375000000099N2805201920506201900000000000060000000000000000000000000000000000000000000000000000000057826                    3001029090000000000 
1040001300038Q 011000004051326110ADILSON MACHADO ROCHA FILHO             AV. PRESIDENTE VARGAS                   CENTRO         76300000CERES          GO0000000000000000                                                                       
1040001300039R 01000000000000000000000000000000000000000000000000205062019000000000000200                                                                                                                                                       
1040001300040P 0101298027300700000000000140000000000578271122057827          0507201900000000000375000000099N2805201920507201900000000000060000000000000000000000000000000000000000000000000000000057827                    3001029090000000000 
1040001300041Q 011000004051326110ADILSON MACHADO ROCHA FILHO             AV. PRESIDENTE VARGAS                   CENTRO         76300000CERES          GO0000000000000000                                                                       
1040001300042R 01000000000000000000000000000000000000000000000000205072019000000000000200                                                                                                                                                       
1040001300043P 0101298027300700000000000140000000000578281122057828          0508201900000000000375000000099N2805201920508201900000000000060000000000000000000000000000000000000000000000000000000057828                    3001029090000000000 
1040001300044Q 011000004051326110ADILSON MACHADO ROCHA FILHO             AV. PRESIDENTE VARGAS                   CENTRO         76300000CERES          GO0000000000000000                                                                       
1040001300045R 01000000000000000000000000000000000000000000000000205082019000000000000200                                                                                                                                                       
1040001300046P 0101298027300700000000000140000000000578291122057829          0509201900000000000375000000099N2805201920509201900000000000060000000000000000000000000000000000000000000000000000000057829                    3001029090000000000 
1040001300047Q 011000004051326110ADILSON MACHADO ROCHA FILHO             AV. PRESIDENTE VARGAS                   CENTRO         76300000CERES          GO0000000000000000                                                                       
1040001300048R 01000000000000000000000000000000000000000000000000205092019000000000000200                                                                                                                                                       
1040001300049P 0101298027300700000000000140000000000578301122057830          0510201900000000000375000000099N2805201920510201900000000000060000000000000000000000000000000000000000000000000000000057830                    3001029090000000000 
1040001300050Q 011000004051326110ADILSON MACHADO ROCHA FILHO             AV. PRESIDENTE VARGAS                   CENTRO         76300000CERES          GO0000000000000000                                                                       
1040001300051R 01000000000000000000000000000000000000000000000000205102019000000000000200                                                                                                                                                       
1040001300052P 0101298027300700000000000140000000000578311122057831          0511201900000000000375000000099N2805201920511201900000000000060000000000000000000000000000000000000000000000000000000057831                    3001029090000000000 
1040001300053Q 011000004051326110ADILSON MACHADO ROCHA FILHO             AV. PRESIDENTE VARGAS                   CENTRO         76300000CERES          GO0000000000000000                                                                       
1040001300054R 01000000000000000000000000000000000000000000000000205112019000000000000200                                                                                                                                                       
1040001300055P 0101298027300700000000000140000000000578331122057833          0506201900000000002500000000099N2905201920506201900000000000060000000000000000000000000000000000000000000000000000000057833                    3001029090000000000 
1040001300056Q 012032545723000162RAIANE BATISTA LUIZ TRANSPORTES         AV. PRESIDENTE VARGAS                   CENTRO         76300000CERES          GO0000000000000000                                                                       
1040001300057R 01000000000000000000000000000000000000000000000000205062019000000000000200                                                                                                                                                       
1040001300058P 0101298027300700000000000140000000000578341122057834          2906201900000000000590000000099N2905201922906201900000000000060000000000000000000000000000000000000000000000000000000057834                    3001029090000000000 
1040001300059Q 012032545723000162RAIANE BATISTA LUIZ TRANSPORTES         AV. PRESIDENTE VARGAS                   CENTRO         76300000CERES          GO0000000000000000                                                                       
1040001300060R 01000000000000000000000000000000000000000000000000229062019000000000000200                                                                                                                                                       
1040001300061P 0101298027300700000000000140000000000578351122057835          2907201900000000000590000000099N2905201922907201900000000000060000000000000000000000000000000000000000000000000000000057835                    3001029090000000000 
1040001300062Q 012032545723000162RAIANE BATISTA LUIZ TRANSPORTES         AV. PRESIDENTE VARGAS                   CENTRO         76300000CERES          GO0000000000000000                                                                       
1040001300063R 01000000000000000000000000000000000000000000000000229072019000000000000200                                                                                                                                                       
1040001300064P 0101298027300700000000000140000000000578361122057836          2908201900000000000590000000099N2905201922908201900000000000060000000000000000000000000000000000000000000000000000000057836                    3001029090000000000 
1040001300065Q 012032545723000162RAIANE BATISTA LUIZ TRANSPORTES         AV. PRESIDENTE VARGAS                   CENTRO         76300000CERES          GO0000000000000000                                                                       
1040001300066R 01000000000000000000000000000000000000000000000000229082019000000000000200                                                                                                                                                       
1040001300067P 0101298027300700000000000140000000000578371122057837          2909201900000000000590000000099N2905201922909201900000000000060000000000000000000000000000000000000000000000000000000057837                    3001029090000000000 
1040001300068Q 012032545723000162RAIANE BATISTA LUIZ TRANSPORTES         AV. PRESIDENTE VARGAS                   CENTRO         76300000CERES          GO0000000000000000                                                                       
1040001300069R 01000000000000000000000000000000000000000000000000229092019000000000000200                                                                                                                                                       
1040001300070P 0101298027300700000000000140000000000578381122057838          2910201900000000000590000000099N2905201922910201900000000000060000000000000000000000000000000000000000000000000000000057838                    3001029090000000000 
1040001300071Q 012032545723000162RAIANE BATISTA LUIZ TRANSPORTES         AV. PRESIDENTE VARGAS                   CENTRO         76300000CERES          GO0000000000000000                                                                       
1040001300072R 01000000000000000000000000000000000000000000000000229102019000000000000200                                                                                                                                                       
1040001300073P 0101298027300700000000000140000000000578391122057839          2911201900000000000590000000099N2905201922911201900000000000060000000000000000000000000000000000000000000000000000000057839                    3001029090000000000 
1040001300074Q 012032545723000162RAIANE BATISTA LUIZ TRANSPORTES         AV. PRESIDENTE VARGAS                   CENTRO         76300000CERES          GO0000000000000000                                                                       
1040001300075R 01000000000000000000000000000000000000000000000000229112019000000000000200                                                                                                                                                       
1040001300076P 0101298027300700000000000140000000000578401122057840          2912201900000000000590000000099N2905201922912201900000000000060000000000000000000000000000000000000000000000000000000057840                    3001029090000000000 
1040001300077Q 012032545723000162RAIANE BATISTA LUIZ TRANSPORTES         AV. PRESIDENTE VARGAS                   CENTRO         76300000CERES          GO0000000000000000                                                                       
1040001300078R 01000000000000000000000000000000000000000000000000229122019000000000000200                                                                                                                                                       
1040001300079P 0101298027300700000000000140000000000578411122057841          2901202000000000000590000000099N2905201922901202000000000000060000000000000000000000000000000000000000000000000000000057841                    3001029090000000000 
1040001300080Q 012032545723000162RAIANE BATISTA LUIZ TRANSPORTES         AV. PRESIDENTE VARGAS                   CENTRO         76300000CERES          GO0000000000000000                                                                       
1040001300081R 01000000000000000000000000000000000000000000000000229012020000000000000200                                                                                                                                                       
1040001300082P 0101298027300700000000000140000000000578421122057842          2902202000000000000590000000099N2905201922902202000000000000060000000000000000000000000000000000000000000000000000000057842                    3001029090000000000 
1040001300083Q 012032545723000162RAIANE BATISTA LUIZ TRANSPORTES         AV. PRESIDENTE VARGAS                   CENTRO         76300000CERES          GO0000000000000000                                                                       
1040001300084R 01000000000000000000000000000000000000000000000000229022020000000000000200                                                                                                                                                       
1040001300085P 0101298027300700000000000140000000000578431122057843          2903202000000000000590000000099N2905201922903202000000000000060000000000000000000000000000000000000000000000000000000057843                    3001029090000000000 
1040001300086Q 012032545723000162RAIANE BATISTA LUIZ TRANSPORTES         AV. PRESIDENTE VARGAS                   CENTRO         76300000CERES          GO0000000000000000                                                                       
1040001300087R 01000000000000000000000000000000000000000000000000229032020000000000000200                                                                                                                                                       
1040001300088P 0101298027300700000000000140000000000578441122057844          2904202000000000000590000000099N2905201922904202000000000000060000000000000000000000000000000000000000000000000000000057844                    3001029090000000000 
1040001300089Q 012032545723000162RAIANE BATISTA LUIZ TRANSPORTES         AV. PRESIDENTE VARGAS                   CENTRO         76300000CERES          GO0000000000000000                                                                       
1040001300090R 01000000000000000000000000000000000000000000000000229042020000000000000200                                                                                                                                                       
1040001300091P 0101298027300700000000000140000000000578451122057845          2905202000000000000590000000099N2905201922905202000000000000060000000000000000000000000000000000000000000000000000000057845                    3001029090000000000 
1040001300092Q 012032545723000162RAIANE BATISTA LUIZ TRANSPORTES         AV. PRESIDENTE VARGAS                   CENTRO         76300000CERES          GO0000000000000000                                                                       
1040001300093R 01000000000000000000000000000000000000000000000000229052020000000000000200                                                                                                                                                       
1040001300094P 0101298027300700000000000140000000000578631122057863          3010201900000000000599000000099N3005201923010201900000000000060000000000000000000000000000000000000000000000000000000057863                    3001029090000000000 
1040001300095Q 012002685006000175VERA CRUZ AGRO PECUARIA LTDA            AV. PRESIDENTE VARGAS                   CENTRO         76300000CERES          GO0000000000000000                                                                       
1040001300096R 01000000000000000000000000000000000000000000000000230102019000000000000200                                                                                                                                                       
1040001300097P 0101298027300700000000000140000000000578641122057864          3011201900000000000599000000099N3005201923011201900000000000060000000000000000000000000000000000000000000000000000000057864                    3001029090000000000 
1040001300098Q 012002685006000175VERA CRUZ AGRO PECUARIA LTDA            AV. PRESIDENTE VARGAS                   CENTRO         76300000CERES          GO0000000000000000                                                                       
1040001300099R 01000000000000000000000000000000000000000000000000230112019000000000000200                                                                                                                                                       
1040001300100P 0101298027300700000000000140000000000578651122057865          3012201900000000000599000000099N3005201923012201900000000000060000000000000000000000000000000000000000000000000000000057865                    3001029090000000000 
1040001300101Q 012002685006000175VERA CRUZ AGRO PECUARIA LTDA            AV. PRESIDENTE VARGAS                   CENTRO         76300000CERES          GO0000000000000000                                                                       
1040001300102R 01000000000000000000000000000000000000000000000000230122019000000000000200                                                                                                                                                       
1040001300103P 0101298027300700000000000140000000000578661122057866          3001202000000000000599000000099N3005201923001202000000000000060000000000000000000000000000000000000000000000000000000057866                    3001029090000000000 
1040001300104Q 012002685006000175VERA CRUZ AGRO PECUARIA LTDA            AV. PRESIDENTE VARGAS                   CENTRO         76300000CERES          GO0000000000000000                                                                       
1040001300105R 01000000000000000000000000000000000000000000000000230012020000000000000200                                                                                                                                                       
1040001300106P 0101298027300700000000000140000000000578671122057867          0103202000000000000599000000099N3005201920103202000000000000060000000000000000000000000000000000000000000000000000000057867                    3001029090000000000 
1040001300107Q 012002685006000175VERA CRUZ AGRO PECUARIA LTDA            AV. PRESIDENTE VARGAS                   CENTRO         76300000CERES          GO0000000000000000                                                                       
1040001300108R 01000000000000000000000000000000000000000000000000201032020000000000000200                                                                                                                                                       
1040001300109P 0101298027300700000000000140000000000578681122057868          3003202000000000000599000000099N3005201923003202000000000000060000000000000000000000000000000000000000000000000000000057868                    3001029090000000000 
1040001300110Q 012002685006000175VERA CRUZ AGRO PECUARIA LTDA            AV. PRESIDENTE VARGAS                   CENTRO         76300000CERES          GO0000000000000000                                                                       
1040001300111R 01000000000000000000000000000000000000000000000000230032020000000000000200                                                                                                                                                       
1040001300112P 0101298027300700000000000140000000000578691122057869          3004202000000000000599000000099N3005201923004202000000000000060000000000000000000000000000000000000000000000000000000057869                    3001029090000000000 
1040001300113Q 012002685006000175VERA CRUZ AGRO PECUARIA LTDA            AV. PRESIDENTE VARGAS                   CENTRO         76300000CERES          GO0000000000000000                                                                       
1040001300114R 01000000000000000000000000000000000000000000000000230042020000000000000200                                                                                                                                                       
1040001300115P 0101298027300700000000000140000000000578701122057870          3005202000000000000599000000099N3005201923005202000000000000060000000000000000000000000000000000000000000000000000000057870                    3001029090000000000 
1040001300116Q 012002685006000175VERA CRUZ AGRO PECUARIA LTDA            AV. PRESIDENTE VARGAS                   CENTRO         76300000CERES          GO0000000000000000                                                                       
1040001300117R 01000000000000000000000000000000000000000000000000230052020000000000000200                                                                                                                                                       
1040001300118P 0101298027300700000000000140000000000578741122057874          1001201900000000001500000000099N3105201921001201900000000000060000000000000000000000000000000000000000000000000000000057874                    3001029090000000000 
1040001300119Q 012005151767000135MAGRIL MOTOCICLETAS LTDA                AV. PRESIDENTE VARGAS                   CENTRO         76300000CERES          GO0000000000000000                                                                       
1040001300120R 01000000000000000000000000000000000000000000000000210012019000000000000200                                                                                                                                                       
1040001300121P 0101298027300700000000000140000000000578751122057875          1002201900000000001500000000099N3105201921002201900000000000060000000000000000000000000000000000000000000000000000000057875                    3001029090000000000 
1040001300122Q 012005151767000135MAGRIL MOTOCICLETAS LTDA                AV. PRESIDENTE VARGAS                   CENTRO         76300000CERES          GO0000000000000000                                                                       
1040001300123R 01000000000000000000000000000000000000000000000000210022019000000000000200                                                                                                                                                       
1040001300124P 0101298027300700000000000140000000000578761122057876          1003201900000000001500000000099N3105201921003201900000000000060000000000000000000000000000000000000000000000000000000057876                    3001029090000000000 
1040001300125Q 012005151767000135MAGRIL MOTOCICLETAS LTDA                AV. PRESIDENTE VARGAS                   CENTRO         76300000CERES          GO0000000000000000                                                                       
1040001300126R 01000000000000000000000000000000000000000000000000210032019000000000000200                                                                                                                                                       
1040001300127P 0101298027300700000000000140000000000578771122057877          1004201900000000001500000000099N3105201921004201900000000000060000000000000000000000000000000000000000000000000000000057877                    3001029090000000000 
1040001300128Q 012005151767000135MAGRIL MOTOCICLETAS LTDA                AV. PRESIDENTE VARGAS                   CENTRO         76300000CERES          GO0000000000000000                                                                       
1040001300129R 01000000000000000000000000000000000000000000000000210042019000000000000200                                                                                                                                                       
1040001300130P 0101298027300700000000000140000000000578781122057878          1005201900000000001500000000099N3105201921005201900000000000060000000000000000000000000000000000000000000000000000000057878                    3001029090000000000 
1040001300131Q 012005151767000135MAGRIL MOTOCICLETAS LTDA                AV. PRESIDENTE VARGAS                   CENTRO         76300000CERES          GO0000000000000000                                                                       
1040001300132R 01000000000000000000000000000000000000000000000000210052019000000000000200                                                                                                                                                       
1040001300133P 0101298027300700000000000140000000000578791122057879          1006201900000000001500000000099N3105201921006201900000000000060000000000000000000000000000000000000000000000000000000057879                    3001029090000000000 
1040001300134Q 012005151767000135MAGRIL MOTOCICLETAS LTDA                AV. PRESIDENTE VARGAS                   CENTRO         76300000CERES          GO0000000000000000                                                                       
1040001300135R 01000000000000000000000000000000000000000000000000210062019000000000000200                                                                                                                                                       
1040001300136P 0101298027300700000000000140000000000578801122057880          1007201900000000001500000000099N3105201921007201900000000000060000000000000000000000000000000000000000000000000000000057880                    3001029090000000000 
1040001300137Q 012005151767000135MAGRIL MOTOCICLETAS LTDA                AV. PRESIDENTE VARGAS                   CENTRO         76300000CERES          GO0000000000000000                                                                       
1040001300138R 01000000000000000000000000000000000000000000000000210072019000000000000200                                                                                                                                                       
1040001300139P 0101298027300700000000000140000000000578821122057882          1009201900000000001500000000099N3105201921009201900000000000060000000000000000000000000000000000000000000000000000000057882                    3001029090000000000 
1040001300140Q 012005151767000135MAGRIL MOTOCICLETAS LTDA                AV. PRESIDENTE VARGAS                   CENTRO         76300000CERES          GO0000000000000000                                                                       
1040001300141R 01000000000000000000000000000000000000000000000000210092019000000000000200                                                                                                                                                       
1040001300142P 0101298027300700000000000140000000000578831122057883          1010201900000000001500000000099N3105201921010201900000000000060000000000000000000000000000000000000000000000000000000057883                    3001029090000000000 
1040001300143Q 012005151767000135MAGRIL MOTOCICLETAS LTDA                AV. PRESIDENTE VARGAS                   CENTRO         76300000CERES          GO0000000000000000                                                                       
1040001300144R 01000000000000000000000000000000000000000000000000210102019000000000000200                                                                                                                                                       
1040001300145P 0101298027300700000000000140000000000578841122057884          1011201900000000001500000000099N3105201921011201900000000000060000000000000000000000000000000000000000000000000000000057884                    3001029090000000000 
1040001300146Q 012005151767000135MAGRIL MOTOCICLETAS LTDA                AV. PRESIDENTE VARGAS                   CENTRO         76300000CERES          GO0000000000000000                                                                       
1040001300147R 01000000000000000000000000000000000000000000000000210112019000000000000200                                                                                                                                                       
1040001300148P 0101298027300700000000000140000000000578851122057885          1012201900000000001500000000099N3105201921012201900000000000060000000000000000000000000000000000000000000000000000000057885                    3001029090000000000 
1040001300149Q 012005151767000135MAGRIL MOTOCICLETAS LTDA                AV. PRESIDENTE VARGAS                   CENTRO         76300000CERES          GO0000000000000000                                                                       
1040001300150R 01000000000000000000000000000000000000000000000000210122019000000000000200                                                                                                                                                       
1040001300151P 0101298027300700000000000140000000000578911122057891          2006201900000000002500000000099N0306201922006201900000000000060000000000000000000000000000000000000000000000000000000057891                    3001029090000000000 
1040001300152Q 012029398367000197TRANSPORTADORA UNIAO EIRELI             AV. PRESIDENTE VARGAS                   CENTRO         76300000CERES          GO0000000000000000                                                                       
1040001300153R 01000000000000000000000000000000000000000000000000220062019000000000000200                                                                                                                                                       
1040001300154P 0101298027300700000000000140000000000578921122057892          2007201900000000000590000000099N0306201922007201900000000000060000000000000000000000000000000000000000000000000000000057892                    3001029090000000000 
1040001300155Q 012029398367000197TRANSPORTADORA UNIAO EIRELI             AV. PRESIDENTE VARGAS                   CENTRO         76300000CERES          GO0000000000000000                                                                       
1040001300156R 01000000000000000000000000000000000000000000000000220072019000000000000200                                                                                                                                                       
1040001300157P 0101298027300700000000000140000000000578931122057893          2008201900000000000590000000099N0306201922008201900000000000060000000000000000000000000000000000000000000000000000000057893                    3001029090000000000 
1040001300158Q 012029398367000197TRANSPORTADORA UNIAO EIRELI             AV. PRESIDENTE VARGAS                   CENTRO         76300000CERES          GO0000000000000000                                                                       
1040001300159R 01000000000000000000000000000000000000000000000000220082019000000000000200                                                                                                                                                       
1040001300160P 0101298027300700000000000140000000000578941122057894          2009201900000000000590000000099N0306201922009201900000000000060000000000000000000000000000000000000000000000000000000057894                    3001029090000000000 
1040001300161Q 012029398367000197TRANSPORTADORA UNIAO EIRELI             AV. PRESIDENTE VARGAS                   CENTRO         76300000CERES          GO0000000000000000                                                                       
1040001300162R 01000000000000000000000000000000000000000000000000220092019000000000000200                                                                                                                                                       
1040001300163P 0101298027300700000000000140000000000579111122057911          0311201900000000000390000000099N0306201920311201900000000000060000000000000000000000000000000000000000000000000000000057911                    3001029090000000000 
1040001300164Q 011000047999888168ADRIANO  ENEAS RODRIGUES                AV. PRESIDENTE VARGAS                   CENTRO         76300000CERES          GO0000000000000000                                                                       
1040001300165R 01000000000000000000000000000000000000000000000000203112019000000000000200                                                                                                                                                       
1040001300166P 0101298027300700000000000140000000000579121122057912          0312201900000000000390000000099N0306201920312201900000000000060000000000000000000000000000000000000000000000000000000057912                    3001029090000000000 
1040001300167Q 011000047999888168ADRIANO  ENEAS RODRIGUES                AV. PRESIDENTE VARGAS                   CENTRO         76300000CERES          GO0000000000000000                                                                       
1040001300168R 01000000000000000000000000000000000000000000000000203122019000000000000200                                                                                                                                                       
1040001300169P 0101298027300700000000000140000000000579131122057913          0301202000000000000390000000099N0306201920301202000000000000060000000000000000000000000000000000000000000000000000000057913                    3001029090000000000 
1040001300170Q 011000047999888168ADRIANO  ENEAS RODRIGUES                AV. PRESIDENTE VARGAS                   CENTRO         76300000CERES          GO0000000000000000                                                                       
1040001300171R 01000000000000000000000000000000000000000000000000203012020000000000000200                                                                                                                                                       
1040001300172P 0101298027300700000000000140000000000579141122057914          0302202000000000000390000000099N0306201920302202000000000000060000000000000000000000000000000000000000000000000000000057914                    3001029090000000000 
1040001300173Q 011000047999888168ADRIANO  ENEAS RODRIGUES                AV. PRESIDENTE VARGAS                   CENTRO         76300000CERES          GO0000000000000000                                                                       
1040001300174R 01000000000000000000000000000000000000000000000000203022020000000000000200                                                                                                                                                       
1040001300175P 0101298027300700000000000140000000000579151122057915          0303202000000000000390000000099N0306201920303202000000000000060000000000000000000000000000000000000000000000000000000057915                    3001029090000000000 
1040001300176Q 011000047999888168ADRIANO  ENEAS RODRIGUES                AV. PRESIDENTE VARGAS                   CENTRO         76300000CERES          GO0000000000000000                                                                       
1040001300177R 01000000000000000000000000000000000000000000000000203032020000000000000200                                                                                                                                                       
1040001300178P 0101298027300700000000000140000000000579161122057916          0304202000000000000390000000099N0306201920304202000000000000060000000000000000000000000000000000000000000000000000000057916                    3001029090000000000 
1040001300179Q 011000047999888168ADRIANO  ENEAS RODRIGUES                AV. PRESIDENTE VARGAS                   CENTRO         76300000CERES          GO0000000000000000                                                                       
1040001300180R 01000000000000000000000000000000000000000000000000203042020000000000000200                                                                                                                                                       
1040001300181P 0101298027300700000000000140000000000579171122057917          0305202000000000000390000000099N0306201920305202000000000000060000000000000000000000000000000000000000000000000000000057917                    3001029090000000000 
1040001300182Q 011000047999888168ADRIANO  ENEAS RODRIGUES                AV. PRESIDENTE VARGAS                   CENTRO         76300000CERES          GO0000000000000000                                                                       
1040001300183R 01000000000000000000000000000000000000000000000000203052020000000000000200                                                                                                                                                       
1040001300184P 0101298027300700000000000140000000000579181122057918          0306202000000000000390000000099N0306201920306202000000000000060000000000000000000000000000000000000000000000000000000057918                    3001029090000000000 
1040001300185Q 011000047999888168ADRIANO  ENEAS RODRIGUES                AV. PRESIDENTE VARGAS                   CENTRO         76300000CERES          GO0000000000000000                                                                       
1040001300186R 01000000000000000000000000000000000000000000000000203062020000000000000200                                                                                                                                                       
1040001300187P 0101298027300700000000000140000000000579191122057919          0608201900000000004875000000099N0306201920608201900000000000060000000000000000000000000000000000000000000000000000000057919                    3001029090000000000 
1040001300188Q 011000005229193913LUIZ GENUINO RECK                       AV. PRESIDENTE VARGAS                   CENTRO         76300000CERES          GO0000000000000000                                                                       
1040001300189R 01000000000000000000000000000000000000000000000000206082019000000000000200                                                                                                                                                       
1040001300190P 0101298027300700000000000140000000000579201122057920          0609201900000000004875000000099N0306201920609201900000000000060000000000000000000000000000000000000000000000000000000057920                    3001029090000000000 
1040001300191Q 011000005229193913LUIZ GENUINO RECK                       AV. PRESIDENTE VARGAS                   CENTRO         76300000CERES          GO0000000000000000                                                                       
1040001300192R 01000000000000000000000000000000000000000000000000206092019000000000000200                                                                                                                                                       
1040001300193P 0101298027300700000000000140000000000579231122057923          1006201900000000052495000000099N0406201921006201900000000000060000000000000000000000000000000000000000000000000000000057923                    3001029090000000000 
1040001300194Q 012022273037000126ASSOCIACAO DE MORADORES DO MERIDIAN SPORAV. PRESIDENTE VARGAS                   CENTRO         76300000CERES          GO0000000000000000                                                                       
1040001300195R 01000000000000000000000000000000000000000000000000210062019000000000000200                                                                                                                                                       
1040001300196P 0101298027300700000000000140000000000579271122057927          1506201900000000005000000000099N0406201921506201900000000000060000000000000000000000000000000000000000000000000000000057927                    3001029090000000000 
1040001300197Q 012010760310000168NOBRE ALIMENTOS LTDA                    AV. PRESIDENTE VARGAS                   CENTRO         76300000CERES          GO0000000000000000                                                                       
1040001300198R 01000000000000000000000000000000000000000000000000215062019000000000000200                                                                                                                                                       
1040001300199P 0101298027300700000000000140000000000579331122057933          1006201900000000001794000000099N0406201921006201900000000000060000000000000000000000000000000000000000000000000000000057933                    3001029090000000000 
1040001300200Q 012001640145000110ONE CITY GPS EQUIP ELETRONICOS LTDA ME  AV. PRESIDENTE VARGAS                   CENTRO         76300000CERES          GO0000000000000000                                                                       
1040001300201R 01000000000000000000000000000000000000000000000000210062019000000000000200                                                                                                                                                       
1040001300202P 0101298027300700000000000140000000000579381122057938          1006201900000000003926000000099N0406201921006201900000000000060000000000000000000000000000000000000000000000000000000057938                    3001029090000000000 
1040001300203Q 011000001488919348GERSON GAMA LEAL                        AV. PRESIDENTE VARGAS                   CENTRO         76300000CERES          GO0000000000000000                                                                       
1040001300204R 01000000000000000000000000000000000000000000000000210062019000000000000200                                                                                                                                                       
1040001300205P 0101298027300700000000000140000000000579421122057942          1006201900000000002418000000099N0406201921006201900000000000060000000000000000000000000000000000000000000000000000000057942                    3001029090000000000 
1040001300206Q 012017055560000146ALVES DA SILVA E GAMA LEAL LTDA - ME    AV. PRESIDENTE VARGAS                   CENTRO         76300000CERES          GO0000000000000000                                                                       
1040001300207R 01000000000000000000000000000000000000000000000000210062019000000000000200                                                                                                                                                       
1040001300208P 0101298027300700000000000140000000000579501122057950          1006201900000000000418000000099N0406201921006201900000000000060000000000000000000000000000000000000000000000000000000057950                    3001029090000000000 
1040001300209Q 011000007767300960BRUNO DA SILVA NASCIMENTO               AV. PRESIDENTE VARGAS                   CENTRO         76300000CERES          GO0000000000000000                                                                       
1040001300210R 01000000000000000000000000000000000000000000000000210062019000000000000200                                                                                                                                                       
1040001300211P 0101298027300700000000000140000000000579581122057958          1006201900000000001092000000099N0406201921006201900000000000060000000000000000000000000000000000000000000000000000000057958                    3001029090000000000 
1040001300212Q 012024598464000100E S NASCIMENTO SISTEMAS DE MONITORAMENTOAV. PRESIDENTE VARGAS                   CENTRO         76300000CERES          GO0000000000000000                                                                       
1040001300213R 01000000000000000000000000000000000000000000000000210062019000000000000200                                                                                                                                                       
1040001300214P 0101298027300700000000000140000000000579661122057966          1006201900000000000099000000099N0406201921006201900000000000060000000000000000000000000000000000000000000000000000000057966                    3001029090000000000 
1040001300215Q 011000008577593452ANTONIO CARLOS                          AV. PRESIDENTE VARGAS                   CENTRO         76300000CERES          GO0000000000000000                                                                       
1040001300216R 01000000000000000000000000000000000000000000000000210062019000000000000200                                                                                                                                                       
1040001300217P 0101298027300700000000000140000000000579721122057972          1006201900000000001170000000099N0406201921006201900000000000060000000000000000000000000000000000000000000000000000000057972                    3001029090000000000 
1040001300218Q 011000011483301788CAIO CARDOSO                            AV. PRESIDENTE VARGAS                   CENTRO         76300000CERES          GO0000000000000000                                                                       
1040001300219R 01000000000000000000000000000000000000000000000000210062019000000000000200                                                                                                                                                       
1040001300220P 0101298027300700000000000140000000000579741122057974          1006201900000000000297000000099N0406201921006201900000000000060000000000000000000000000000000000000000000000000000000057974                    3001029090000000000 
1040001300221Q 011000087630451334EVERARDO GOMES DE ARAUJO                AV. PRESIDENTE VARGAS                   CENTRO         76300000CERES          GO0000000000000000                                                                       
1040001300222R 01000000000000000000000000000000000000000000000000210062019000000000000200                                                                                                                                                       
1040001300223P 0101298027300700000000000140000000000579761122057976          1006201900000000000099000000099N0406201921006201900000000000060000000000000000000000000000000000000000000000000000000057976                    3001029090000000000 
1040001300224Q 011000004267859914DOUGLAS BORGES                          AV. PRESIDENTE VARGAS                   CENTRO         76300000CERES          GO0000000000000000                                                                       
1040001300225R 01000000000000000000000000000000000000000000000000210062019000000000000200                                                                                                                                                       
1040001300226P 0101298027300700000000000140000000000579851122057985          1006201900000000000198000000099N0406201921006201900000000000060000000000000000000000000000000000000000000000000000000057985                    3001029090000000000 
1040001300227Q 011000003700881746LAZARO TUBARAO                          AV. PRESIDENTE VARGAS                   CENTRO         76300000CERES          GO0000000000000000                                                                       
1040001300228R 01000000000000000000000000000000000000000000000000210062019000000000000200                                                                                                                                                       
1040001300229P 0101298027300700000000000140000000000579871122057987          1006201900000000000198000000099N0406201921006201900000000000060000000000000000000000000000000000000000000000000000000057987                    3001029090000000000 
1040001300230Q 011000028187156104LUZIA CONCEICAO ALVES                   AV. PRESIDENTE VARGAS                   CENTRO         76300000CERES          GO0000000000000000                                                                       
1040001300231R 01000000000000000000000000000000000000000000000000210062019000000000000200                                                                                                                                                       
1040001300232P 0101298027300700000000000140000000000579881122057988          1006201900000000001820000000099N0406201921006201900000000000060000000000000000000000000000000000000000000000000000000057988                    3001029090000000000 
1040001300233Q 011000047403705300JAIRO ROCHA                             AV. PRESIDENTE VARGAS                   CENTRO         76300000CERES          GO0000000000000000                                                                       
1040001300234R 01000000000000000000000000000000000000000000000000210062019000000000000200                                                                                                                                                       
1040001300235P 0101298027300700000000000140000000000579921122057992          1006201900000000000546000000099N0406201921006201900000000000060000000000000000000000000000000000000000000000000000000057992                    3001029090000000000 
1040001300236Q 011000009533034700HIGO BRAGA FONSECA E SILVA              AV. PRESIDENTE VARGAS                   CENTRO         76300000CERES          GO0000000000000000                                                                       
1040001300237R 01000000000000000000000000000000000000000000000000210062019000000000000200                                                                                                                                                       
1040001300238P 0101298027300700000000000140000000000579961122057996          1006201900000000001248000000099N0406201921006201900000000000060000000000000000000000000000000000000000000000000000000057996                    3001029090000000000 
1040001300239Q 011000000147721679WANDERSON ASSUNCAO DA SILVA             AV. PRESIDENTE VARGAS                   CENTRO         76300000CERES          GO0000000000000000                                                                       
1040001300240R 01000000000000000000000000000000000000000000000000210062019000000000000200                                                                                                                                                       
1040001300241P 0101298027300700000000000140000000000579981122057998          1006201900000000000099000000099N0406201921006201900000000000060000000000000000000000000000000000000000000000000000000057998                    3001029090000000000 
1040001300242Q 011000002523867362FRANCIVALDO FEITOSA                     AV. PRESIDENTE VARGAS                   CENTRO         76300000CERES          GO0000000000000000                                                                       
1040001300243R 01000000000000000000000000000000000000000000000000210062019000000000000200                                                                                                                                                       
1040001300244P 0101298027300700000000000140000000000580001122058000          1006201900000000000468000000099N0406201921006201900000000000060000000000000000000000000000000000000000000000000000000058000                    3001029090000000000 
1040001300245Q 011000042308542004GREGORIO VILAS BOAS                     AV. PRESIDENTE VARGAS                   CENTRO         76300000CERES          GO0000000000000000                                                                       
1040001300246R 01000000000000000000000000000000000000000000000000210062019000000000000200                                                                                                                                                       
1040001300247P 0101298027300700000000000140000000000580041122058004          1006201900000000000099000000099N0406201921006201900000000000060000000000000000000000000000000000000000000000000000000058004                    3001029090000000000 
1040001300248Q 011000083833706368ALEXSANDRO JOSE FELIX NOGUEIRA          AV. PRESIDENTE VARGAS                   CENTRO         76300000CERES          GO0000000000000000                                                                       
1040001300249R 01000000000000000000000000000000000000000000000000210062019000000000000200                                                                                                                                                       
1040001300250P 0101298027300700000000000140000000000580161122058016          1006201900000000000780000000099N0406201921006201900000000000060000000000000000000000000000000000000000000000000000000058016                    3001029090000000000 
1040001300251Q 012020085595000119CTX LOCACOES DE EQUIPAMENTOS E CONTAINERAV. PRESIDENTE VARGAS                   CENTRO         76300000CERES          GO0000000000000000                                                                       
1040001300252R 01000000000000000000000000000000000000000000000000210062019000000000000200                                                                                                                                                       
1040001300253P 0101298027300700000000000140000000000580361122058036          1006201900000000000099000000099N0406201921006201900000000000060000000000000000000000000000000000000000000000000000000058036                    3001029090000000000 
1040001300254Q 011000050608282049FLAVIO HENRIQUE ASCARI                  AV. PRESIDENTE VARGAS                   CENTRO         76300000CERES          GO0000000000000000                                                                       
1040001300255R 01000000000000000000000000000000000000000000000000210062019000000000000200                                                                                                                                                       
1040001300256P 0101298027300700000000000140000000000580421122058042          1006201900000000000099000000099N0406201921006201900000000000060000000000000000000000000000000000000000000000000000000058042                    3001029090000000000 
1040001300257Q 011000054781949668NILTON LEFUNDES DA SILVA                AV. PRESIDENTE VARGAS                   CENTRO         76300000CERES          GO0000000000000000                                                                       
1040001300258R 01000000000000000000000000000000000000000000000000210062019000000000000200                                                                                                                                                       
1040001300259P 0101298027300700000000000140000000000580431122058043          2206201900000000001404000000099N0406201922206201900000000000060000000000000000000000000000000000000000000000000000000058043                    3001029090000000000 
1040001300260Q 011000003870412305DIEGO ALMEIDA DE OLIVEIRA               AV. PRESIDENTE VARGAS                   CENTRO         76300000CERES          GO0000000000000000                                                                       
1040001300261R 01000000000000000000000000000000000000000000000000222062019000000000000200                                                                                                                                                       
1040001300262P 0101298027300700000000000140000000000580441122058044          1006201900000000000099000000099N0406201921006201900000000000060000000000000000000000000000000000000000000000000000000058044                    3001029090000000000 
1040001300263Q 011000075176882353ALEXSANDRO ANDRADE SILVA                AV. PRESIDENTE VARGAS                   CENTRO         76300000CERES          GO0000000000000000                                                                       
1040001300264R 01000000000000000000000000000000000000000000000000210062019000000000000200                                                                                                                                                       
1040001300265P 0101298027300700000000000140000000000580461122058046          1006201900000000003003000000099N0406201921006201900000000000060000000000000000000000000000000000000000000000000000000058046                    3001029090000000000 
1040001300266Q 011000064507734304ELTON DE SOUSA E SILVA                  AV. PRESIDENTE VARGAS                   CENTRO         76300000CERES          GO0000000000000000                                                                       
1040001300267R 01000000000000000000000000000000000000000000000000210062019000000000000200                                                                                                                                                       
1040001300268P 0101298027300700000000000140000000000580481122058048          1006201900000000000319000000099N0406201921006201900000000000060000000000000000000000000000000000000000000000000000000058048                    3001029090000000000 
1040001300269Q 011000033739261811JEFFERSON QUINTILIANO                   AV. PRESIDENTE VARGAS                   CENTRO         76300000CERES          GO0000000000000000                                                                       
1040001300270R 01000000000000000000000000000000000000000000000000210062019000000000000200                                                                                                                                                       
1040001300271P 0101298027300700000000000140000000000580551122058055          1006201900000000000099000000099N0406201921006201900000000000060000000000000000000000000000000000000000000000000000000058055                    3001029090000000000 
1040001300272Q 011000033873383845VALTERLINO NUNES PEREIRA JUNIOR         AV. PRESIDENTE VARGAS                   CENTRO         76300000CERES          GO0000000000000000                                                                       
1040001300273R 01000000000000000000000000000000000000000000000000210062019000000000000200                                                                                                                                                       
1040001300274P 0101298027300700000000000140000000000580571122058057          1006201900000000004537000000099N0406201921006201900000000000060000000000000000000000000000000000000000000000000000000058057                    3001029090000000000 
1040001300275Q 011000064824470315JEAN ALEX DA SILVA BARBOSA              AV. PRESIDENTE VARGAS                   CENTRO         76300000CERES          GO0000000000000000                                                                       
1040001300276R 01000000000000000000000000000000000000000000000000210062019000000000000200                                                                                                                                                       
1040001300277P 0101298027300700000000000140000000000580581122058058          1006201900000000000198000000099N0406201921006201900000000000060000000000000000000000000000000000000000000000000000000058058                    3001029090000000000 
1040001300278Q 011000010238304698JESSICA ALVES DE SOUZA MIRANDA          AV. PRESIDENTE VARGAS                   CENTRO         76300000CERES          GO0000000000000000                                                                       
1040001300279R 01000000000000000000000000000000000000000000000000210062019000000000000200                                                                                                                                                       
1040001300280P 0101298027300700000000000140000000000580601122058060          1006201900000000000099000000099N0406201921006201900000000000060000000000000000000000000000000000000000000000000000000058060                    3001029090000000000 
1040001300281Q 011000092582532134KALITON JOSE DA SILVA CARDOSO           AV. PRESIDENTE VARGAS                   CENTRO         76300000CERES          GO0000000000000000                                                                       
1040001300282R 01000000000000000000000000000000000000000000000000210062019000000000000200                                                                                                                                                       
1040001300283P 0101298027300700000000000140000000000580611122058061          1006201900000000002691000000099N0406201921006201900000000000060000000000000000000000000000000000000000000000000000000058061                    3001029090000000000 
1040001300284Q 012019529677000140AUTO VIP - VEICULO                      AV. PRESIDENTE VARGAS                   CENTRO         76300000CERES          GO0000000000000000                                                                       
1040001300285R 01000000000000000000000000000000000000000000000000210062019000000000000200                                                                                                                                                       
1040001300286P 0101298027300700000000000140000000000580721122058072          1006201900000000000099000000099N0406201921006201900000000000060000000000000000000000000000000000000000000000000000000058072                    3001029090000000000 
1040001300287Q 012011680280000142CARLOS ALBERTO DE OLIVEIRA              AV. PRESIDENTE VARGAS                   CENTRO         76300000CERES          GO0000000000000000                                                                       
1040001300288R 01000000000000000000000000000000000000000000000000210062019000000000000200                                                                                                                                                       
1040001300289P 0101298027300700000000000140000000000580751122058075          1006201900000000000390000000099N0406201921006201900000000000060000000000000000000000000000000000000000000000000000000058075                    3001029090000000000 
1040001300290Q 012022959256000163JS RASTREAMENTO ELIRELI ME              AV. PRESIDENTE VARGAS                   CENTRO         76300000CERES          GO0000000000000000                                                                       
1040001300291R 01000000000000000000000000000000000000000000000000210062019000000000000200                                                                                                                                                       
1040001300292P 0101298027300700000000000140000000000580791122058079          1006201900000000000297000000099N0406201921006201900000000000060000000000000000000000000000000000000000000000000000000058079                    3001029090000000000 
1040001300293Q 011000063342545534CRISTIANO SAO JOSE CERQUEIRA            AV. PRESIDENTE VARGAS                   CENTRO         76300000CERES          GO0000000000000000                                                                       
1040001300294R 01000000000000000000000000000000000000000000000000210062019000000000000200                                                                                                                                                       
1040001300295P 0101298027300700000000000140000000000580831122058083          1006201900000000007072000000099N0406201921006201900000000000060000000000000000000000000000000000000000000000000000000058083                    3001029090000000000 
1040001300296Q 011000099579820791LUIS FERNANDO FERREIRA DE ARAUJO        AV. PRESIDENTE VARGAS                   CENTRO         76300000CERES          GO0000000000000000                                                                       
1040001300297R 01000000000000000000000000000000000000000000000000210062019000000000000200                                                                                                                                                       
1040001300298P 0101298027300700000000000140000000000580891122058089          1006201900000000000348000000099N0406201921006201900000000000060000000000000000000000000000000000000000000000000000000058089                    3001029090000000000 
1040001300299Q 011000032081889862ROGERIO DE ALMEIDA LIMA                 AV. PRESIDENTE VARGAS                   CENTRO         76300000CERES          GO0000000000000000                                                                       
1040001300300R 01000000000000000000000000000000000000000000000000210062019000000000000200                                                                                                                                                       
1040001300301P 0101298027300700000000000140000000000580921122058092          1006201900000000000099000000099N0406201921006201900000000000060000000000000000000000000000000000000000000000000000000058092                    3001029090000000000 
1040001300302Q 011000013003646702WILLIAM BARBOZA RODRIGUES               AV. PRESIDENTE VARGAS                   CENTRO         76300000CERES          GO0000000000000000                                                                       
1040001300303R 01000000000000000000000000000000000000000000000000210062019000000000000200                                                                                                                                                       
1040001300304P 0101298027300700000000000140000000000580971122058097          1006201900000000000234000000099N0406201921006201900000000000060000000000000000000000000000000000000000000000000000000058097                    3001029090000000000 
1040001300305Q 011000016698186830MAURO CESAR ZILLIG BARBOSA              AV. PRESIDENTE VARGAS                   CENTRO         76300000CERES          GO0000000000000000                                                                       
1040001300306R 01000000000000000000000000000000000000000000000000210062019000000000000200                                                                                                                                                       
1040001300307P 0101298027300700000000000140000000000581011122058101          1006201900000000000198000000099N0406201921006201900000000000060000000000000000000000000000000000000000000000000000000058101                    3001029090000000000 
1040001300308Q 011000033095205449GIVANILDO SOARES                        AV. PRESIDENTE VARGAS                   CENTRO         76300000CERES          GO0000000000000000                                                                       
1040001300309R 01000000000000000000000000000000000000000000000000210062019000000000000200                                                                                                                                                       
1040001300310P 0101298027300700000000000140000000000581041122058104          1006201900000000000390000000099N0406201921006201900000000000060000000000000000000000000000000000000000000000000000000058104                    3001029090000000000 
1040001300311Q 011000041119160820KEVIN WHITEHEAD DE OLIVEIRA             AV. PRESIDENTE VARGAS                   CENTRO         76300000CERES          GO0000000000000000                                                                       
1040001300312R 01000000000000000000000000000000000000000000000000210062019000000000000200                                                                                                                                                       
1040001300313P 0101298027300700000000000140000000000581111122058111          1006201900000000000099000000099N0406201921006201900000000000060000000000000000000000000000000000000000000000000000000058111                    3001029090000000000 
1040001300314Q 011000016150350100JOSE ROBERTO DE MENEZES                 AV. PRESIDENTE VARGAS                   CENTRO         76300000CERES          GO0000000000000000                                                                       
1040001300315R 01000000000000000000000000000000000000000000000000210062019000000000000200                                                                                                                                                       
1040001300316P 0101298027300700000000000140000000000581131122058113          1006201900000000000297000000099N0406201921006201900000000000060000000000000000000000000000000000000000000000000000000058113                    3001029090000000000 
1040001300317Q 011000065949285700FRANCISCO DA SILVA ANDRADE              AV. PRESIDENTE VARGAS                   CENTRO         76300000CERES          GO0000000000000000                                                                       
1040001300318R 01000000000000000000000000000000000000000000000000210062019000000000000200                                                                                                                                                       
1040001300319P 0101298027300700000000000140000000000581141122058114          1006201900000000000099000000099N0406201921006201900000000000060000000000000000000000000000000000000000000000000000000058114                    3001029090000000000 
1040001300320Q 011000025459643368DIOCLECIANO LIMA DA COSTA               AV. PRESIDENTE VARGAS                   CENTRO         76300000CERES          GO0000000000000000                                                                       
1040001300321R 01000000000000000000000000000000000000000000000000210062019000000000000200                                                                                                                                                       
1040001300322P 0101298027300700000000000140000000000581171122058117          1006201900000000000198000000099N0406201921006201900000000000060000000000000000000000000000000000000000000000000000000058117                    3001029090000000000 
1040001300323Q 011000013351435134EXPEDITO MARTINS SILVA                  AV. PRESIDENTE VARGAS                   CENTRO         76300000CERES          GO0000000000000000                                                                       
1040001300324R 01000000000000000000000000000000000000000000000000210062019000000000000200                                                                                                                                                       
1040001300325P 0101298027300700000000000140000000000581181122058118          1006201900000000000198000000099N0406201921006201900000000000060000000000000000000000000000000000000000000000000000000058118                    3001029090000000000 
1040001300326Q 011000019248358861EDSON DOS SANTOS                        AV. PRESIDENTE VARGAS                   CENTRO         76300000CERES          GO0000000000000000                                                                       
1040001300327R 01000000000000000000000000000000000000000000000000210062019000000000000200                                                                                                                                                       
1040001300328P 0101298027300700000000000140000000000581201122058120          1006201900000000000780000000099N0406201921006201900000000000060000000000000000000000000000000000000000000000000000000058120                    3001029090000000000 
1040001300329Q 011000023774228884PEDRO HENRIQUE DOS SANTOS               AV. PRESIDENTE VARGAS                   CENTRO         76300000CERES          GO0000000000000000                                                                       
1040001300330R 01000000000000000000000000000000000000000000000000210062019000000000000200                                                                                                                                                       
1040001300331P 0101298027300700000000000140000000000581211122058121          1006201900000000000099000000099N0406201921006201900000000000060000000000000000000000000000000000000000000000000000000058121                    3001029090000000000 
1040001300332Q 011000004020644616AMERICO OLIVEIRA PACHECO JUNIOR         AV. PRESIDENTE VARGAS                   CENTRO         76300000CERES          GO0000000000000000                                                                       
1040001300333R 01000000000000000000000000000000000000000000000000210062019000000000000200                                                                                                                                                       
1040001300334P 0101298027300700000000000140000000000581241122058124          1006201900000000000198000000099N0406201921006201900000000000060000000000000000000000000000000000000000000000000000000058124                    3001029090000000000 
1040001300335Q 012007648682000192IVANEZ LUIZ DE MEDEIROS JUNIOR          AV. PRESIDENTE VARGAS                   CENTRO         76300000CERES          GO0000000000000000                                                                       
1040001300336R 01000000000000000000000000000000000000000000000000210062019000000000000200                                                                                                                                                       
1040001300337P 0101298027300700000000000140000000000581251122058125          1006201900000000000297000000099N0406201921006201900000000000060000000000000000000000000000000000000000000000000000000058125                    3001029090000000000 
1040001300338Q 011000047488948068RONALDO PEREIRA BICCA                   AV. PRESIDENTE VARGAS                   CENTRO         76300000CERES          GO0000000000000000                                                                       
1040001300339R 01000000000000000000000000000000000000000000000000210062019000000000000200                                                                                                                                                       
1040001300340P 0101298027300700000000000140000000000581331122058133          1006201900000000000099000000099N0406201921006201900000000000060000000000000000000000000000000000000000000000000000000058133                    3001029090000000000 
1040001300341Q 011000001432444182ERICK LIMA DE ABREU                     AV. PRESIDENTE VARGAS                   CENTRO         76300000CERES          GO0000000000000000                                                                       
1040001300342R 01000000000000000000000000000000000000000000000000210062019000000000000200                                                                                                                                                       
1040001300343P 0101298027300700000000000140000000000581351122058135          1006201900000000001404000000099N0406201921006201900000000000060000000000000000000000000000000000000000000000000000000058135                    3001029090000000000 
1040001300344Q 011000005834749690DIONIZIO ALVES DE SOUZA NETO            AV. PRESIDENTE VARGAS                   CENTRO         76300000CERES          GO0000000000000000                                                                       
1040001300345R 01000000000000000000000000000000000000000000000000210062019000000000000200                                                                                                                                                       
1040001300346P 0101298027300700000000000140000000000581361122058136          1006201900000000000198000000099N0406201921006201900000000000060000000000000000000000000000000000000000000000000000000058136                    3001029090000000000 
1040001300347Q 011000004058357282EWERSON GYOVANE SANTOS SILVA            AV. PRESIDENTE VARGAS                   CENTRO         76300000CERES          GO0000000000000000                                                                       
1040001300348R 01000000000000000000000000000000000000000000000000210062019000000000000200                                                                                                                                                       
1040001300349P 0101298027300700000000000140000000000581371122058137          1006201900000000000198000000099N0406201921006201900000000000060000000000000000000000000000000000000000000000000000000058137                    3001029090000000000 
1040001300350Q 011000004320137337JOAO VITOR DELMONDES DO NASCIMENTO      AV. PRESIDENTE VARGAS                   CENTRO         76300000CERES          GO0000000000000000                                                                       
1040001300351R 01000000000000000000000000000000000000000000000000210062019000000000000200                                                                                                                                                       
1040001300352P 0101298027300700000000000140000000000581401122058140          1006201900000000000099000000099N0406201921006201900000000000060000000000000000000000000000000000000000000000000000000058140                    3001029090000000000 
1040001300353Q 011000032263254854TANER APARECIDO BEZERRA ROSSI           AV. PRESIDENTE VARGAS                   CENTRO         76300000CERES          GO0000000000000000                                                                       
1040001300354R 01000000000000000000000000000000000000000000000000210062019000000000000200                                                                                                                                                       
1040001300355P 0101298027300700000000000140000000000581411122058141          1006201900000000000845000000099N0406201921006201900000000000060000000000000000000000000000000000000000000000000000000058141                    3001029090000000000 
1040001300356Q 011000005236040337WESLEY DA SILVA CORREIA                 AV. PRESIDENTE VARGAS                   CENTRO         76300000CERES          GO0000000000000000                                                                       
1040001300357R 01000000000000000000000000000000000000000000000000210062019000000000000200                                                                                                                                                       
1040001300358P 0101298027300700000000000140000000000581431122058143          1006201900000000000099000000099N0406201921006201900000000000060000000000000000000000000000000000000000000000000000000058143                    3001029090000000000 
1040001300359Q 011000071339493187ANTONIO DA COSTA AMANCIO                AV. PRESIDENTE VARGAS                   CENTRO         76300000CERES          GO0000000000000000                                                                       
1040001300360R 01000000000000000000000000000000000000000000000000210062019000000000000200                                                                                                                                                       
1040001300361P 0101298027300700000000000140000000000581491122058149          1006201900000000004308000000099N0406201921006201900000000000060000000000000000000000000000000000000000000000000000000058149                    3001029090000000000 
1040001300362Q 012017427452000154IVAN CESAR GENOVEZE ALVES               AV. PRESIDENTE VARGAS                   CENTRO         76300000CERES          GO0000000000000000                                                                       
1040001300363R 01000000000000000000000000000000000000000000000000210062019000000000000200                                                                                                                                                       
1040001300364P 0101298027300700000000000140000000000581561122058156          1006201900000000000099000000099N0406201921006201900000000000060000000000000000000000000000000000000000000000000000000058156                    3001029090000000000 
1040001300365Q 011000025429775851CLAUDIO BECKER                          AV. PRESIDENTE VARGAS                   CENTRO         76300000CERES          GO0000000000000000                                                                       
1040001300366R 01000000000000000000000000000000000000000000000000210062019000000000000200                                                                                                                                                       
1040001300367P 0101298027300700000000000140000000000581581122058158          1006201900000000000099000000099N0406201921006201900000000000060000000000000000000000000000000000000000000000000000000058158                    3001029090000000000 
1040001300368Q 011000007241550900ALOIR CRIVELLARO                        AV. PRESIDENTE VARGAS                   CENTRO         76300000CERES          GO0000000000000000                                                                       
1040001300369R 01000000000000000000000000000000000000000000000000210062019000000000000200                                                                                                                                                       
1040001300370P 0101298027300700000000000140000000000581641122058164          1006201900000000000198000000099N0406201921006201900000000000060000000000000000000000000000000000000000000000000000000058164                    3001029090000000000 
1040001300371Q 011000032324243172JOAO BATISTA GONCALVES                  AV. PRESIDENTE VARGAS                   CENTRO         76300000CERES          GO0000000000000000                                                                       
1040001300372R 01000000000000000000000000000000000000000000000000210062019000000000000200                                                                                                                                                       
1040001300373P 0101298027300700000000000140000000000581651122058165          1006201900000000000099000000099N0406201921006201900000000000060000000000000000000000000000000000000000000000000000000058165                    3001029090000000000 
1040001300374Q 011000026248127840GUIDO COPPI MONTEIRO                    AV. PRESIDENTE VARGAS                   CENTRO         76300000CERES          GO0000000000000000                                                                       
1040001300375R 01000000000000000000000000000000000000000000000000210062019000000000000200                                                                                                                                                       
1040001300376P 0101298027300700000000000140000000000581681122058168          1006201900000000000099000000099N0406201921006201900000000000060000000000000000000000000000000000000000000000000000000058168                    3001029090000000000 
1040001300377Q 011000090796306249BRENNO LUCAS CUNHA DOS SANTOS           AV. PRESIDENTE VARGAS                   CENTRO         76300000CERES          GO0000000000000000                                                                       
1040001300378R 01000000000000000000000000000000000000000000000000210062019000000000000200                                                                                                                                                       
1040001300379P 0101298027300700000000000140000000000581691122058169          1006201900000000000151000000099N0406201921006201900000000000060000000000000000000000000000000000000000000000000000000058169                    3001029090000000000 
1040001300380Q 011000042952419892ELVIS ELIAS SANTANA LOPES               AV. PRESIDENTE VARGAS                   CENTRO         76300000CERES          GO0000000000000000                                                                       
1040001300381R 01000000000000000000000000000000000000000000000000210062019000000000000200                                                                                                                                                       
1040001300382P 0101298027300700000000000140000000000581711122058171          1006201900000000000390000000099N0406201921006201900000000000060000000000000000000000000000000000000000000000000000000058171                    3001029090000000000 
1040001300383Q 012000717477000192SANDRO LUIZ LANG - ME                   AV. PRESIDENTE VARGAS                   CENTRO         76300000CERES          GO0000000000000000                                                                       
1040001300384R 01000000000000000000000000000000000000000000000000210062019000000000000200                                                                                                                                                       
1040001300385P 0101298027300700000000000140000000000581731122058173          1006201900000000000319000000099N0406201921006201900000000000060000000000000000000000000000000000000000000000000000000058173                    3001029090000000000 
1040001300386Q 011000010034254889JOAQUIM GUEDES DA SILVA FILHO           AV. PRESIDENTE VARGAS                   CENTRO         76300000CERES          GO0000000000000000                                                                       
1040001300387R 01000000000000000000000000000000000000000000000000210062019000000000000200                                                                                                                                                       
1040001300388P 0101298027300700000000000140000000000581751122058175          1006201900000000000099000000099N0406201921006201900000000000060000000000000000000000000000000000000000000000000000000058175                    3001029090000000000 
1040001300389Q 011000026065113875MARCELO RENATO LOPES SABINO             AV. PRESIDENTE VARGAS                   CENTRO         76300000CERES          GO0000000000000000                                                                       
1040001300390R 01000000000000000000000000000000000000000000000000210062019000000000000200                                                                                                                                                       
1040001300391P 0101298027300700000000000140000000000581771122058177          1006201900000000000250000000099N0406201921006201900000000000060000000000000000000000000000000000000000000000000000000058177                    3001029090000000000 
1040001300392Q 011000077279549420JOCEMAR JOEL DE SOUZA                   AV. PRESIDENTE VARGAS                   CENTRO         76300000CERES          GO0000000000000000                                                                       
1040001300393R 01000000000000000000000000000000000000000000000000210062019000000000000200                                                                                                                                                       
1040001300394P 0101298027300700000000000140000000000581781122058178          1006201900000000000099000000099N0406201921006201900000000000060000000000000000000000000000000000000000000000000000000058178                    3001029090000000000 
1040001300395Q 011000078857937291FABIO JUNIOR DAMASCENO BEZERRA          AV. PRESIDENTE VARGAS                   CENTRO         76300000CERES          GO0000000000000000                                                                       
1040001300396R 01000000000000000000000000000000000000000000000000210062019000000000000200                                                                                                                                                       
1040001300397P 0101298027300700000000000140000000000581811122058181          1006201900000000012375000000099N0406201921006201900000000000060000000000000000000000000000000000000000000000000000000058181                    3001029090000000000 
1040001300398Q 012015521996000158MAURICIO ALMEIDA DE LUCENA 06014754458  AV. PRESIDENTE VARGAS                   CENTRO         76300000CERES          GO0000000000000000                                                                       
1040001300399R 01000000000000000000000000000000000000000000000000210062019000000000000200                                                                                                                                                       
1040001300400P 0101298027300700000000000140000000000581871122058187          1006201900000000000099000000099N0406201921006201900000000000060000000000000000000000000000000000000000000000000000000058187                    3001029090000000000 
1040001300401Q 011000011265277699TAYNANN CHRYSTIAN VICENTE               AV. PRESIDENTE VARGAS                   CENTRO         76300000CERES          GO0000000000000000                                                                       
1040001300402R 01000000000000000000000000000000000000000000000000210062019000000000000200                                                                                                                                                       
1040001300403P 0101298027300700000000000140000000000581901122058190          1006201900000000000297000000099N0406201921006201900000000000060000000000000000000000000000000000000000000000000000000058190                    3001029090000000000 
1040001300404Q 011000006715624607RODOLFO TADEU DA SILVA                  AV. PRESIDENTE VARGAS                   CENTRO         76300000CERES          GO0000000000000000                                                                       
1040001300405R 01000000000000000000000000000000000000000000000000210062019000000000000200                                                                                                                                                       
1040001300406P 0101298027300700000000000140000000000581931122058193          1006201900000000000396000000099N0406201921006201900000000000060000000000000000000000000000000000000000000000000000000058193                    3001029090000000000 
1040001300407Q 012011594419000135ZELIA CORTES - ME                       AV. PRESIDENTE VARGAS                   CENTRO         76300000CERES          GO0000000000000000                                                                       
1040001300408R 01000000000000000000000000000000000000000000000000210062019000000000000200                                                                                                                                                       
1040001300409P 0101298027300700000000000140000000000581941122058194          1006201900000000000099000000099N0406201921006201900000000000060000000000000000000000000000000000000000000000000000000058194                    3001029090000000000 
1040001300410Q 011000038184509863RICARDO VINICIUS VITORIO DA SILVA       AV. PRESIDENTE VARGAS                   CENTRO         76300000CERES          GO0000000000000000                                                                       
1040001300411R 01000000000000000000000000000000000000000000000000210062019000000000000200                                                                                                                                                       
1040001300412P 0101298027300700000000000140000000000581951122058195          1006201900000000000151000000099N0406201921006201900000000000060000000000000000000000000000000000000000000000000000000058195                    3001029090000000000 
